{
	"COAT/tokens/airdrop.sol": {
		"Airdrop": {
			"abi": [
				{
					"inputs": [
						{
							"internalType": "address",
							"name": "_tokenAddress",
							"type": "address"
						},
						{
							"internalType": "address",
							"name": "_fromAddress",
							"type": "address"
						},
						{
							"internalType": "uint256",
							"name": "_airdropType",
							"type": "uint256"
						}
					],
					"stateMutability": "nonpayable",
					"type": "constructor"
				},
				{
					"anonymous": false,
					"inputs": [
						{
							"indexed": false,
							"internalType": "uint256",
							"name": "unitOfToken",
							"type": "uint256"
						},
						{
							"indexed": false,
							"internalType": "string",
							"name": "airdropType",
							"type": "string"
						}
					],
					"name": "TOKENtransfered",
					"type": "event"
				},
				{
					"anonymous": false,
					"inputs": [
						{
							"indexed": false,
							"internalType": "address[]",
							"name": "_address",
							"type": "address[]"
						}
					],
					"name": "addressAddedToWhitelist",
					"type": "event"
				},
				{
					"anonymous": false,
					"inputs": [
						{
							"indexed": false,
							"internalType": "address[]",
							"name": "recipients",
							"type": "address[]"
						},
						{
							"indexed": false,
							"internalType": "uint256[]",
							"name": "unitOfToken",
							"type": "uint256[]"
						}
					],
					"name": "airdroped",
					"type": "event"
				},
				{
					"anonymous": false,
					"inputs": [
						{
							"indexed": false,
							"internalType": "address",
							"name": "operator",
							"type": "address"
						},
						{
							"indexed": false,
							"internalType": "address",
							"name": "from",
							"type": "address"
						},
						{
							"indexed": false,
							"internalType": "uint256",
							"name": "tokenId",
							"type": "uint256"
						},
						{
							"indexed": false,
							"internalType": "bytes",
							"name": "data",
							"type": "bytes"
						}
					],
					"name": "receivedTokens",
					"type": "event"
				},
				{
					"anonymous": false,
					"inputs": [
						{
							"indexed": false,
							"internalType": "address",
							"name": "_address",
							"type": "address"
						}
					],
					"name": "removedAddress",
					"type": "event"
				},
				{
					"inputs": [],
					"name": "airdropVersion",
					"outputs": [
						{
							"internalType": "uint256",
							"name": "",
							"type": "uint256"
						}
					],
					"stateMutability": "view",
					"type": "function"
				},
				{
					"inputs": [
						{
							"internalType": "address",
							"name": "_address",
							"type": "address"
						}
					],
					"name": "getEligibility",
					"outputs": [
						{
							"internalType": "bool",
							"name": "",
							"type": "bool"
						}
					],
					"stateMutability": "view",
					"type": "function"
				},
				{
					"inputs": [],
					"name": "getWhiteList",
					"outputs": [
						{
							"internalType": "address[]",
							"name": "",
							"type": "address[]"
						}
					],
					"stateMutability": "view",
					"type": "function"
				},
				{
					"inputs": [
						{
							"internalType": "address",
							"name": "_address",
							"type": "address"
						}
					],
					"name": "isWhiteListed",
					"outputs": [
						{
							"internalType": "bool",
							"name": "",
							"type": "bool"
						}
					],
					"stateMutability": "view",
					"type": "function"
				},
				{
					"inputs": [
						{
							"internalType": "address",
							"name": "operator",
							"type": "address"
						},
						{
							"internalType": "address",
							"name": "from",
							"type": "address"
						},
						{
							"internalType": "uint256",
							"name": "tokenId",
							"type": "uint256"
						},
						{
							"internalType": "bytes",
							"name": "data",
							"type": "bytes"
						}
					],
					"name": "onERC721Received",
					"outputs": [
						{
							"internalType": "bytes4",
							"name": "",
							"type": "bytes4"
						}
					],
					"stateMutability": "nonpayable",
					"type": "function"
				}
			],
			"devdoc": {
				"kind": "dev",
				"methods": {
					"airdropVersion()": {
						"details": "Returns the current airdrop version state Useful to know the current airdrop version"
					},
					"constructor": {
						"details": "Contract constructor initializes the airdrop settings.",
						"params": {
							"_airdropType": "Airdrop type (0 = ERC20, 1 = ERC721).",
							"_fromAddress": "Address from which the tokens will be sent.",
							"_tokenAddress": "Address of the ERC20 or ERC721 token."
						}
					},
					"getEligibility(address)": {
						"details": "Checks if an address is eligible for an airdrop.",
						"params": {
							"_address": "Address to check."
						},
						"returns": {
							"_0": "True if eligible, false otherwise."
						}
					},
					"getWhiteList()": {
						"details": "Returns the list of whitelisted addresses."
					},
					"isWhiteListed(address)": {
						"details": "Checks if an address is in the whitelist.",
						"params": {
							"_address": "Address to check."
						},
						"returns": {
							"_0": "True if whitelisted, false otherwise."
						}
					}
				},
				"version": 1
			},
			"evm": {
				"assembly": "    /* \"COAT/tokens/airdrop.sol\":14141:22195  contract Airdrop  {... */\n  mstore(0x40, 0x80)\n    /* \"COAT/tokens/airdrop.sol\":15463:15791  constructor(address _tokenAddress, address _fromAddress, uint _airdropType)  {... */\n  callvalue\n  dup1\n  iszero\n  tag_1\n  jumpi\n  0x00\n  dup1\n  revert\ntag_1:\n  pop\n  mload(0x40)\n  sub(codesize, bytecodeSize)\n  dup1\n  bytecodeSize\n  dup4\n  codecopy\n  dup2\n  dup2\n  add\n  0x40\n  mstore\n  dup2\n  add\n  swap1\n  tag_2\n  swap2\n  swap1\n  tag_3\n  jump\t// in\ntag_2:\n    /* \"COAT/tokens/airdrop.sol\":15573:15574  0 */\n  0x00\n    /* \"COAT/tokens/airdrop.sol\":15559:15571  _airdropType */\n  dup2\n    /* \"COAT/tokens/airdrop.sol\":15559:15574  _airdropType==0 */\n  eq\n    /* \"COAT/tokens/airdrop.sol\":15559:15593  _airdropType==0 || _airdropType==1 */\n  dup1\n  tag_6\n  jumpi\n  pop\n    /* \"COAT/tokens/airdrop.sol\":15592:15593  1 */\n  0x01\n    /* \"COAT/tokens/airdrop.sol\":15578:15590  _airdropType */\n  dup2\n    /* \"COAT/tokens/airdrop.sol\":15578:15593  _airdropType==1 */\n  eq\n    /* \"COAT/tokens/airdrop.sol\":15559:15593  _airdropType==0 || _airdropType==1 */\ntag_6:\n    /* \"COAT/tokens/airdrop.sol\":15551:15634  require(_airdropType==0 || _airdropType==1, \"Only 0 or 1 accepted as airdrop type\") */\n  tag_7\n  jumpi\n  mload(0x40)\n  0x08c379a000000000000000000000000000000000000000000000000000000000\n  dup2\n  mstore\n  0x04\n  add\n  tag_8\n  swap1\n  tag_9\n  jump\t// in\ntag_8:\n  mload(0x40)\n  dup1\n  swap2\n  sub\n  swap1\n  revert\ntag_7:\n    /* \"COAT/tokens/airdrop.sol\":15660:15673  _tokenAddress */\n  dup3\n    /* \"COAT/tokens/airdrop.sol\":15645:15657  tokenAddress */\n  0x03\n  0x00\n    /* \"COAT/tokens/airdrop.sol\":15645:15673  tokenAddress = _tokenAddress */\n  0x0100\n  exp\n  dup2\n  sload\n  dup2\n  0xffffffffffffffffffffffffffffffffffffffff\n  mul\n  not\n  and\n  swap1\n  dup4\n  0xffffffffffffffffffffffffffffffffffffffff\n  and\n  mul\n  or\n  swap1\n  sstore\n  pop\n    /* \"COAT/tokens/airdrop.sol\":15698:15710  _fromAddress */\n  dup2\n    /* \"COAT/tokens/airdrop.sol\":15684:15695  fromAddress */\n  0x04\n  0x00\n    /* \"COAT/tokens/airdrop.sol\":15684:15710  fromAddress = _fromAddress */\n  0x0100\n  exp\n  dup2\n  sload\n  dup2\n  0xffffffffffffffffffffffffffffffffffffffff\n  mul\n  not\n  and\n  swap1\n  dup4\n  0xffffffffffffffffffffffffffffffffffffffff\n  and\n  mul\n  or\n  swap1\n  sstore\n  pop\n    /* \"COAT/tokens/airdrop.sol\":15735:15747  _airdropType */\n  dup1\n    /* \"COAT/tokens/airdrop.sol\":15721:15732  airdropType */\n  0x05\n    /* \"COAT/tokens/airdrop.sol\":15721:15747  airdropType = _airdropType */\n  dup2\n  swap1\n  sstore\n  pop\n    /* \"COAT/tokens/airdrop.sol\":15463:15791  constructor(address _tokenAddress, address _fromAddress, uint _airdropType)  {... */\n  pop\n  pop\n  pop\n    /* \"COAT/tokens/airdrop.sol\":14141:22195  contract Airdrop  {... */\n  jump(tag_10)\n    /* \"#utility.yul\":88:205   */\ntag_12:\n    /* \"#utility.yul\":197:198   */\n  0x00\n    /* \"#utility.yul\":194:195   */\n  dup1\n    /* \"#utility.yul\":187:199   */\n  revert\n    /* \"#utility.yul\":334:460   */\ntag_14:\n    /* \"#utility.yul\":371:378   */\n  0x00\n    /* \"#utility.yul\":411:453   */\n  0xffffffffffffffffffffffffffffffffffffffff\n    /* \"#utility.yul\":404:409   */\n  dup3\n    /* \"#utility.yul\":400:454   */\n  and\n    /* \"#utility.yul\":389:454   */\n  swap1\n  pop\n    /* \"#utility.yul\":334:460   */\n  swap2\n  swap1\n  pop\n  jump\t// out\n    /* \"#utility.yul\":466:562   */\ntag_15:\n    /* \"#utility.yul\":503:510   */\n  0x00\n    /* \"#utility.yul\":532:556   */\n  tag_30\n    /* \"#utility.yul\":550:555   */\n  dup3\n    /* \"#utility.yul\":532:556   */\n  tag_14\n  jump\t// in\ntag_30:\n    /* \"#utility.yul\":521:556   */\n  swap1\n  pop\n    /* \"#utility.yul\":466:562   */\n  swap2\n  swap1\n  pop\n  jump\t// out\n    /* \"#utility.yul\":568:690   */\ntag_16:\n    /* \"#utility.yul\":641:665   */\n  tag_32\n    /* \"#utility.yul\":659:664   */\n  dup2\n    /* \"#utility.yul\":641:665   */\n  tag_15\n  jump\t// in\ntag_32:\n    /* \"#utility.yul\":634:639   */\n  dup2\n    /* \"#utility.yul\":631:666   */\n  eq\n    /* \"#utility.yul\":621:684   */\n  tag_33\n  jumpi\n    /* \"#utility.yul\":680:681   */\n  0x00\n    /* \"#utility.yul\":677:678   */\n  dup1\n    /* \"#utility.yul\":670:682   */\n  revert\n    /* \"#utility.yul\":621:684   */\ntag_33:\n    /* \"#utility.yul\":568:690   */\n  pop\n  jump\t// out\n    /* \"#utility.yul\":696:839   */\ntag_17:\n    /* \"#utility.yul\":753:758   */\n  0x00\n    /* \"#utility.yul\":784:790   */\n  dup2\n    /* \"#utility.yul\":778:791   */\n  mload\n    /* \"#utility.yul\":769:791   */\n  swap1\n  pop\n    /* \"#utility.yul\":800:833   */\n  tag_35\n    /* \"#utility.yul\":827:832   */\n  dup2\n    /* \"#utility.yul\":800:833   */\n  tag_16\n  jump\t// in\ntag_35:\n    /* \"#utility.yul\":696:839   */\n  swap3\n  swap2\n  pop\n  pop\n  jump\t// out\n    /* \"#utility.yul\":845:922   */\ntag_18:\n    /* \"#utility.yul\":882:889   */\n  0x00\n    /* \"#utility.yul\":911:916   */\n  dup2\n    /* \"#utility.yul\":900:916   */\n  swap1\n  pop\n    /* \"#utility.yul\":845:922   */\n  swap2\n  swap1\n  pop\n  jump\t// out\n    /* \"#utility.yul\":928:1050   */\ntag_19:\n    /* \"#utility.yul\":1001:1025   */\n  tag_38\n    /* \"#utility.yul\":1019:1024   */\n  dup2\n    /* \"#utility.yul\":1001:1025   */\n  tag_18\n  jump\t// in\ntag_38:\n    /* \"#utility.yul\":994:999   */\n  dup2\n    /* \"#utility.yul\":991:1026   */\n  eq\n    /* \"#utility.yul\":981:1044   */\n  tag_39\n  jumpi\n    /* \"#utility.yul\":1040:1041   */\n  0x00\n    /* \"#utility.yul\":1037:1038   */\n  dup1\n    /* \"#utility.yul\":1030:1042   */\n  revert\n    /* \"#utility.yul\":981:1044   */\ntag_39:\n    /* \"#utility.yul\":928:1050   */\n  pop\n  jump\t// out\n    /* \"#utility.yul\":1056:1199   */\ntag_20:\n    /* \"#utility.yul\":1113:1118   */\n  0x00\n    /* \"#utility.yul\":1144:1150   */\n  dup2\n    /* \"#utility.yul\":1138:1151   */\n  mload\n    /* \"#utility.yul\":1129:1151   */\n  swap1\n  pop\n    /* \"#utility.yul\":1160:1193   */\n  tag_41\n    /* \"#utility.yul\":1187:1192   */\n  dup2\n    /* \"#utility.yul\":1160:1193   */\n  tag_19\n  jump\t// in\ntag_41:\n    /* \"#utility.yul\":1056:1199   */\n  swap3\n  swap2\n  pop\n  pop\n  jump\t// out\n    /* \"#utility.yul\":1205:1868   */\ntag_3:\n    /* \"#utility.yul\":1293:1299   */\n  0x00\n    /* \"#utility.yul\":1301:1307   */\n  dup1\n    /* \"#utility.yul\":1309:1315   */\n  0x00\n    /* \"#utility.yul\":1358:1360   */\n  0x60\n    /* \"#utility.yul\":1346:1355   */\n  dup5\n    /* \"#utility.yul\":1337:1344   */\n  dup7\n    /* \"#utility.yul\":1333:1356   */\n  sub\n    /* \"#utility.yul\":1329:1361   */\n  slt\n    /* \"#utility.yul\":1326:1445   */\n  iszero\n  tag_43\n  jumpi\n    /* \"#utility.yul\":1364:1443   */\n  tag_44\n  tag_12\n  jump\t// in\ntag_44:\n    /* \"#utility.yul\":1326:1445   */\ntag_43:\n    /* \"#utility.yul\":1484:1485   */\n  0x00\n    /* \"#utility.yul\":1509:1573   */\n  tag_45\n    /* \"#utility.yul\":1565:1572   */\n  dup7\n    /* \"#utility.yul\":1556:1562   */\n  dup3\n    /* \"#utility.yul\":1545:1554   */\n  dup8\n    /* \"#utility.yul\":1541:1563   */\n  add\n    /* \"#utility.yul\":1509:1573   */\n  tag_17\n  jump\t// in\ntag_45:\n    /* \"#utility.yul\":1499:1573   */\n  swap4\n  pop\n    /* \"#utility.yul\":1455:1583   */\n  pop\n    /* \"#utility.yul\":1622:1624   */\n  0x20\n    /* \"#utility.yul\":1648:1712   */\n  tag_46\n    /* \"#utility.yul\":1704:1711   */\n  dup7\n    /* \"#utility.yul\":1695:1701   */\n  dup3\n    /* \"#utility.yul\":1684:1693   */\n  dup8\n    /* \"#utility.yul\":1680:1702   */\n  add\n    /* \"#utility.yul\":1648:1712   */\n  tag_17\n  jump\t// in\ntag_46:\n    /* \"#utility.yul\":1638:1712   */\n  swap3\n  pop\n    /* \"#utility.yul\":1593:1722   */\n  pop\n    /* \"#utility.yul\":1761:1763   */\n  0x40\n    /* \"#utility.yul\":1787:1851   */\n  tag_47\n    /* \"#utility.yul\":1843:1850   */\n  dup7\n    /* \"#utility.yul\":1834:1840   */\n  dup3\n    /* \"#utility.yul\":1823:1832   */\n  dup8\n    /* \"#utility.yul\":1819:1841   */\n  add\n    /* \"#utility.yul\":1787:1851   */\n  tag_20\n  jump\t// in\ntag_47:\n    /* \"#utility.yul\":1777:1851   */\n  swap2\n  pop\n    /* \"#utility.yul\":1732:1861   */\n  pop\n    /* \"#utility.yul\":1205:1868   */\n  swap3\n  pop\n  swap3\n  pop\n  swap3\n  jump\t// out\n    /* \"#utility.yul\":1874:2043   */\ntag_21:\n    /* \"#utility.yul\":1958:1969   */\n  0x00\n    /* \"#utility.yul\":1992:1998   */\n  dup3\n    /* \"#utility.yul\":1987:1990   */\n  dup3\n    /* \"#utility.yul\":1980:1999   */\n  mstore\n    /* \"#utility.yul\":2032:2036   */\n  0x20\n    /* \"#utility.yul\":2027:2030   */\n  dup3\n    /* \"#utility.yul\":2023:2037   */\n  add\n    /* \"#utility.yul\":2008:2037   */\n  swap1\n  pop\n    /* \"#utility.yul\":1874:2043   */\n  swap3\n  swap2\n  pop\n  pop\n  jump\t// out\n    /* \"#utility.yul\":2049:2272   */\ntag_22:\n    /* \"#utility.yul\":2189:2223   */\n  0x4f6e6c792030206f7220312061636365707465642061732061697264726f7020\n    /* \"#utility.yul\":2185:2186   */\n  0x00\n    /* \"#utility.yul\":2177:2183   */\n  dup3\n    /* \"#utility.yul\":2173:2187   */\n  add\n    /* \"#utility.yul\":2166:2224   */\n  mstore\n    /* \"#utility.yul\":2258:2264   */\n  0x7479706500000000000000000000000000000000000000000000000000000000\n    /* \"#utility.yul\":2253:2255   */\n  0x20\n    /* \"#utility.yul\":2245:2251   */\n  dup3\n    /* \"#utility.yul\":2241:2256   */\n  add\n    /* \"#utility.yul\":2234:2265   */\n  mstore\n    /* \"#utility.yul\":2049:2272   */\n  pop\n  jump\t// out\n    /* \"#utility.yul\":2278:2644   */\ntag_23:\n    /* \"#utility.yul\":2420:2423   */\n  0x00\n    /* \"#utility.yul\":2441:2508   */\n  tag_51\n    /* \"#utility.yul\":2505:2507   */\n  0x24\n    /* \"#utility.yul\":2500:2503   */\n  dup4\n    /* \"#utility.yul\":2441:2508   */\n  tag_21\n  jump\t// in\ntag_51:\n    /* \"#utility.yul\":2434:2508   */\n  swap2\n  pop\n    /* \"#utility.yul\":2517:2610   */\n  tag_52\n    /* \"#utility.yul\":2606:2609   */\n  dup3\n    /* \"#utility.yul\":2517:2610   */\n  tag_22\n  jump\t// in\ntag_52:\n    /* \"#utility.yul\":2635:2637   */\n  0x40\n    /* \"#utility.yul\":2630:2633   */\n  dup3\n    /* \"#utility.yul\":2626:2638   */\n  add\n    /* \"#utility.yul\":2619:2638   */\n  swap1\n  pop\n    /* \"#utility.yul\":2278:2644   */\n  swap2\n  swap1\n  pop\n  jump\t// out\n    /* \"#utility.yul\":2650:3069   */\ntag_9:\n    /* \"#utility.yul\":2816:2820   */\n  0x00\n    /* \"#utility.yul\":2854:2856   */\n  0x20\n    /* \"#utility.yul\":2843:2852   */\n  dup3\n    /* \"#utility.yul\":2839:2857   */\n  add\n    /* \"#utility.yul\":2831:2857   */\n  swap1\n  pop\n    /* \"#utility.yul\":2903:2912   */\n  dup2\n    /* \"#utility.yul\":2897:2901   */\n  dup2\n    /* \"#utility.yul\":2893:2913   */\n  sub\n    /* \"#utility.yul\":2889:2890   */\n  0x00\n    /* \"#utility.yul\":2878:2887   */\n  dup4\n    /* \"#utility.yul\":2874:2891   */\n  add\n    /* \"#utility.yul\":2867:2914   */\n  mstore\n    /* \"#utility.yul\":2931:3062   */\n  tag_54\n    /* \"#utility.yul\":3057:3061   */\n  dup2\n    /* \"#utility.yul\":2931:3062   */\n  tag_23\n  jump\t// in\ntag_54:\n    /* \"#utility.yul\":2923:3062   */\n  swap1\n  pop\n    /* \"#utility.yul\":2650:3069   */\n  swap2\n  swap1\n  pop\n  jump\t// out\n    /* \"COAT/tokens/airdrop.sol\":14141:22195  contract Airdrop  {... */\ntag_10:\n  dataSize(sub_0)\n  dup1\n  dataOffset(sub_0)\n  0x00\n  codecopy\n  0x00\n  return\nstop\n\nsub_0: assembly {\n        /* \"COAT/tokens/airdrop.sol\":14141:22195  contract Airdrop  {... */\n      mstore(0x40, 0x80)\n      callvalue\n      dup1\n      iszero\n      tag_1\n      jumpi\n      0x00\n      dup1\n      revert\n    tag_1:\n      pop\n      jumpi(tag_2, lt(calldatasize, 0x04))\n      shr(0xe0, calldataload(0x00))\n      dup1\n      0x09a9d76c\n      eq\n      tag_3\n      jumpi\n      dup1\n      0x150b7a02\n      eq\n      tag_4\n      jumpi\n      dup1\n      0x51d6e8a4\n      eq\n      tag_5\n      jumpi\n      dup1\n      0x6f9170f6\n      eq\n      tag_6\n      jumpi\n      dup1\n      0xdca11ab8\n      eq\n      tag_7\n      jumpi\n    tag_2:\n      0x00\n      dup1\n      revert\n        /* \"COAT/tokens/airdrop.sol\":19476:19578  function getWhiteList() public view returns(address[] memory) {... */\n    tag_3:\n      tag_8\n      tag_9\n      jump\t// in\n    tag_8:\n      mload(0x40)\n      tag_10\n      swap2\n      swap1\n      tag_11\n      jump\t// in\n    tag_10:\n      mload(0x40)\n      dup1\n      swap2\n      sub\n      swap1\n      return\n        /* \"COAT/tokens/airdrop.sol\":20366:20763  function onERC721Received(address operator, address from, uint256 tokenId, bytes memory data) public returns (bytes4) {... */\n    tag_4:\n      tag_12\n      0x04\n      dup1\n      calldatasize\n      sub\n      dup2\n      add\n      swap1\n      tag_13\n      swap2\n      swap1\n      tag_14\n      jump\t// in\n    tag_13:\n      tag_15\n      jump\t// in\n    tag_12:\n      mload(0x40)\n      tag_16\n      swap2\n      swap1\n      tag_17\n      jump\t// in\n    tag_16:\n      mload(0x40)\n      dup1\n      swap2\n      sub\n      swap1\n      return\n        /* \"COAT/tokens/airdrop.sol\":19707:19801  function airdropVersion() public view returns(uint) {... */\n    tag_5:\n      tag_18\n      tag_19\n      jump\t// in\n    tag_18:\n      mload(0x40)\n      tag_20\n      swap2\n      swap1\n      tag_21\n      jump\t// in\n    tag_20:\n      mload(0x40)\n      dup1\n      swap2\n      sub\n      swap1\n      return\n        /* \"COAT/tokens/airdrop.sol\":19975:20090  function isWhiteListed(address _address) public view returns(bool) {... */\n    tag_6:\n      tag_22\n      0x04\n      dup1\n      calldatasize\n      sub\n      dup2\n      add\n      swap1\n      tag_23\n      swap2\n      swap1\n      tag_24\n      jump\t// in\n    tag_23:\n      tag_25\n      jump\t// in\n    tag_22:\n      mload(0x40)\n      tag_26\n      swap2\n      swap1\n      tag_27\n      jump\t// in\n    tag_26:\n      mload(0x40)\n      dup1\n      swap2\n      sub\n      swap1\n      return\n        /* \"COAT/tokens/airdrop.sol\":17952:18108  function getEligibility(address _address) public view returns(bool) {... */\n    tag_7:\n      tag_28\n      0x04\n      dup1\n      calldatasize\n      sub\n      dup2\n      add\n      swap1\n      tag_29\n      swap2\n      swap1\n      tag_24\n      jump\t// in\n    tag_29:\n      tag_30\n      jump\t// in\n    tag_28:\n      mload(0x40)\n      tag_31\n      swap2\n      swap1\n      tag_27\n      jump\t// in\n    tag_31:\n      mload(0x40)\n      dup1\n      swap2\n      sub\n      swap1\n      return\n        /* \"COAT/tokens/airdrop.sol\":19476:19578  function getWhiteList() public view returns(address[] memory) {... */\n    tag_9:\n        /* \"COAT/tokens/airdrop.sol\":19520:19536  address[] memory */\n      0x60\n        /* \"COAT/tokens/airdrop.sol\":19556:19566  _whiteList */\n      0x01\n        /* \"COAT/tokens/airdrop.sol\":19549:19566  return _whiteList */\n      dup1\n      sload\n      dup1\n      0x20\n      mul\n      0x20\n      add\n      mload(0x40)\n      swap1\n      dup2\n      add\n      0x40\n      mstore\n      dup1\n      swap3\n      swap2\n      swap1\n      dup2\n      dup2\n      mstore\n      0x20\n      add\n      dup3\n      dup1\n      sload\n      dup1\n      iszero\n      tag_33\n      jumpi\n      0x20\n      mul\n      dup3\n      add\n      swap2\n      swap1\n      0x00\n      mstore\n      keccak256(0x00, 0x20)\n      swap1\n    tag_34:\n      dup2\n      0x00\n      swap1\n      sload\n      swap1\n      0x0100\n      exp\n      swap1\n      div\n      0xffffffffffffffffffffffffffffffffffffffff\n      and\n      0xffffffffffffffffffffffffffffffffffffffff\n      and\n      dup2\n      mstore\n      0x20\n      add\n      swap1\n      0x01\n      add\n      swap1\n      dup1\n      dup4\n      gt\n      tag_34\n      jumpi\n    tag_33:\n      pop\n      pop\n      pop\n      pop\n      pop\n      swap1\n      pop\n        /* \"COAT/tokens/airdrop.sol\":19476:19578  function getWhiteList() public view returns(address[] memory) {... */\n      swap1\n      jump\t// out\n        /* \"COAT/tokens/airdrop.sol\":20366:20763  function onERC721Received(address operator, address from, uint256 tokenId, bytes memory data) public returns (bytes4) {... */\n    tag_15:\n        /* \"COAT/tokens/airdrop.sol\":20476:20482  bytes4 */\n      0x00\n        /* \"COAT/tokens/airdrop.sol\":20551:20596  receivedTokens(operator, from, tokenId, data) */\n      0x541cb930dbb178d9d0a40b098c309dda5a70e722066990941158d1f77b5bfcf3\n        /* \"COAT/tokens/airdrop.sol\":20566:20574  operator */\n      dup6\n        /* \"COAT/tokens/airdrop.sol\":20576:20580  from */\n      dup6\n        /* \"COAT/tokens/airdrop.sol\":20582:20589  tokenId */\n      dup6\n        /* \"COAT/tokens/airdrop.sol\":20591:20595  data */\n      dup6\n        /* \"COAT/tokens/airdrop.sol\":20551:20596  receivedTokens(operator, from, tokenId, data) */\n      mload(0x40)\n      tag_36\n      swap5\n      swap4\n      swap3\n      swap2\n      swap1\n      tag_37\n      jump\t// in\n    tag_36:\n      mload(0x40)\n      dup1\n      swap2\n      sub\n      swap1\n      log1\n        /* \"COAT/tokens/airdrop.sol\":20714:20755  IERC721Receiver.onERC721Received.selector */\n      shl(0xe0, 0x150b7a02)\n        /* \"COAT/tokens/airdrop.sol\":20707:20755  return IERC721Receiver.onERC721Received.selector */\n      swap1\n      pop\n        /* \"COAT/tokens/airdrop.sol\":20366:20763  function onERC721Received(address operator, address from, uint256 tokenId, bytes memory data) public returns (bytes4) {... */\n      swap5\n      swap4\n      pop\n      pop\n      pop\n      pop\n      jump\t// out\n        /* \"COAT/tokens/airdrop.sol\":19707:19801  function airdropVersion() public view returns(uint) {... */\n    tag_19:\n        /* \"COAT/tokens/airdrop.sol\":19753:19757  uint */\n      0x00\n        /* \"COAT/tokens/airdrop.sol\":19777:19789  airdropCount */\n      sload(0x02)\n        /* \"COAT/tokens/airdrop.sol\":19770:19789  return airdropCount */\n      swap1\n      pop\n        /* \"COAT/tokens/airdrop.sol\":19707:19801  function airdropVersion() public view returns(uint) {... */\n      swap1\n      jump\t// out\n        /* \"COAT/tokens/airdrop.sol\":19975:20090  function isWhiteListed(address _address) public view returns(bool) {... */\n    tag_25:\n        /* \"COAT/tokens/airdrop.sol\":20036:20040  bool */\n      0x00\n        /* \"COAT/tokens/airdrop.sol\":20060:20082  checkAddress(_address) */\n      tag_40\n        /* \"COAT/tokens/airdrop.sol\":20073:20081  _address */\n      dup3\n        /* \"COAT/tokens/airdrop.sol\":20060:20072  checkAddress */\n      tag_41\n        /* \"COAT/tokens/airdrop.sol\":20060:20082  checkAddress(_address) */\n      jump\t// in\n    tag_40:\n        /* \"COAT/tokens/airdrop.sol\":20053:20082  return checkAddress(_address) */\n      swap1\n      pop\n        /* \"COAT/tokens/airdrop.sol\":19975:20090  function isWhiteListed(address _address) public view returns(bool) {... */\n      swap2\n      swap1\n      pop\n      jump\t// out\n        /* \"COAT/tokens/airdrop.sol\":17952:18108  function getEligibility(address _address) public view returns(bool) {... */\n    tag_30:\n        /* \"COAT/tokens/airdrop.sol\":18014:18018  bool */\n      0x00\n        /* \"COAT/tokens/airdrop.sol\":18039:18050  _hasClaimed */\n      dup1\n        /* \"COAT/tokens/airdrop.sol\":18039:18064  _hasClaimed[airdropCount] */\n      0x00\n        /* \"COAT/tokens/airdrop.sol\":18051:18063  airdropCount */\n      sload(0x02)\n        /* \"COAT/tokens/airdrop.sol\":18039:18064  _hasClaimed[airdropCount] */\n      dup2\n      mstore\n      0x20\n      add\n      swap1\n      dup2\n      mstore\n      0x20\n      add\n      0x00\n      keccak256\n        /* \"COAT/tokens/airdrop.sol\":18039:18074  _hasClaimed[airdropCount][_address] */\n      0x00\n        /* \"COAT/tokens/airdrop.sol\":18065:18073  _address */\n      dup4\n        /* \"COAT/tokens/airdrop.sol\":18039:18074  _hasClaimed[airdropCount][_address] */\n      0xffffffffffffffffffffffffffffffffffffffff\n      and\n      0xffffffffffffffffffffffffffffffffffffffff\n      and\n      dup2\n      mstore\n      0x20\n      add\n      swap1\n      dup2\n      mstore\n      0x20\n      add\n      0x00\n      keccak256\n      0x00\n      swap1\n      sload\n      swap1\n      0x0100\n      exp\n      swap1\n      div\n      0xff\n      and\n        /* \"COAT/tokens/airdrop.sol\":18038:18074  !_hasClaimed[airdropCount][_address] */\n      iszero\n        /* \"COAT/tokens/airdrop.sol\":18038:18100  !_hasClaimed[airdropCount][_address] && checkAddress(_address) */\n      dup1\n      iszero\n      tag_43\n      jumpi\n      pop\n        /* \"COAT/tokens/airdrop.sol\":18078:18100  checkAddress(_address) */\n      tag_44\n        /* \"COAT/tokens/airdrop.sol\":18091:18099  _address */\n      dup3\n        /* \"COAT/tokens/airdrop.sol\":18078:18090  checkAddress */\n      tag_41\n        /* \"COAT/tokens/airdrop.sol\":18078:18100  checkAddress(_address) */\n      jump\t// in\n    tag_44:\n        /* \"COAT/tokens/airdrop.sol\":18038:18100  !_hasClaimed[airdropCount][_address] && checkAddress(_address) */\n    tag_43:\n        /* \"COAT/tokens/airdrop.sol\":18031:18100  return !_hasClaimed[airdropCount][_address] && checkAddress(_address) */\n      swap1\n      pop\n        /* \"COAT/tokens/airdrop.sol\":17952:18108  function getEligibility(address _address) public view returns(bool) {... */\n      swap2\n      swap1\n      pop\n      jump\t// out\n        /* \"COAT/tokens/airdrop.sol\":20934:21219  function checkAddress(address target) internal view returns (bool) {... */\n    tag_41:\n        /* \"COAT/tokens/airdrop.sol\":20995:20999  bool */\n      0x00\n        /* \"COAT/tokens/airdrop.sol\":21012:21023  uint256 len */\n      dup1\n        /* \"COAT/tokens/airdrop.sol\":21026:21036  _whiteList */\n      0x01\n        /* \"COAT/tokens/airdrop.sol\":21026:21043  _whiteList.length */\n      dup1\n      sload\n      swap1\n      pop\n        /* \"COAT/tokens/airdrop.sol\":21012:21043  uint256 len = _whiteList.length */\n      swap1\n      pop\n        /* \"COAT/tokens/airdrop.sol\":21059:21068  uint256 i */\n      0x00\n        /* \"COAT/tokens/airdrop.sol\":21054:21189  for (uint256 i = 0; i < len; i++) {... */\n    tag_46:\n        /* \"COAT/tokens/airdrop.sol\":21078:21081  len */\n      dup2\n        /* \"COAT/tokens/airdrop.sol\":21074:21075  i */\n      dup2\n        /* \"COAT/tokens/airdrop.sol\":21074:21081  i < len */\n      lt\n        /* \"COAT/tokens/airdrop.sol\":21054:21189  for (uint256 i = 0; i < len; i++) {... */\n      iszero\n      tag_47\n      jumpi\n        /* \"COAT/tokens/airdrop.sol\":21124:21130  target */\n      dup4\n        /* \"COAT/tokens/airdrop.sol\":21107:21130  _whiteList[i] == target */\n      0xffffffffffffffffffffffffffffffffffffffff\n      and\n        /* \"COAT/tokens/airdrop.sol\":21107:21117  _whiteList */\n      0x01\n        /* \"COAT/tokens/airdrop.sol\":21118:21119  i */\n      dup3\n        /* \"COAT/tokens/airdrop.sol\":21107:21120  _whiteList[i] */\n      dup2\n      sload\n      dup2\n      lt\n      tag_49\n      jumpi\n      tag_50\n      tag_51\n      jump\t// in\n    tag_50:\n    tag_49:\n      swap1\n      0x00\n      mstore\n      keccak256(0x00, 0x20)\n      add\n      0x00\n      swap1\n      sload\n      swap1\n      0x0100\n      exp\n      swap1\n      div\n      0xffffffffffffffffffffffffffffffffffffffff\n      and\n        /* \"COAT/tokens/airdrop.sol\":21107:21130  _whiteList[i] == target */\n      0xffffffffffffffffffffffffffffffffffffffff\n      and\n      sub\n        /* \"COAT/tokens/airdrop.sol\":21103:21178  if (_whiteList[i] == target) {... */\n      tag_53\n      jumpi\n        /* \"COAT/tokens/airdrop.sol\":21158:21162  true */\n      0x01\n        /* \"COAT/tokens/airdrop.sol\":21151:21162  return true */\n      swap3\n      pop\n      pop\n      pop\n      jump(tag_45)\n        /* \"COAT/tokens/airdrop.sol\":21103:21178  if (_whiteList[i] == target) {... */\n    tag_53:\n        /* \"COAT/tokens/airdrop.sol\":21083:21086  i++ */\n      dup1\n      dup1\n      0x01\n      add\n      swap2\n      pop\n      pop\n        /* \"COAT/tokens/airdrop.sol\":21054:21189  for (uint256 i = 0; i < len; i++) {... */\n      jump(tag_46)\n    tag_47:\n      pop\n        /* \"COAT/tokens/airdrop.sol\":21206:21211  false */\n      0x00\n        /* \"COAT/tokens/airdrop.sol\":21199:21211  return false */\n      swap2\n      pop\n      pop\n        /* \"COAT/tokens/airdrop.sol\":20934:21219  function checkAddress(address target) internal view returns (bool) {... */\n    tag_45:\n      swap2\n      swap1\n      pop\n      jump\t// out\n        /* \"#utility.yul\":7:121   */\n    tag_54:\n        /* \"#utility.yul\":74:80   */\n      0x00\n        /* \"#utility.yul\":108:113   */\n      dup2\n        /* \"#utility.yul\":102:114   */\n      mload\n        /* \"#utility.yul\":92:114   */\n      swap1\n      pop\n        /* \"#utility.yul\":7:121   */\n      swap2\n      swap1\n      pop\n      jump\t// out\n        /* \"#utility.yul\":127:311   */\n    tag_55:\n        /* \"#utility.yul\":226:237   */\n      0x00\n        /* \"#utility.yul\":260:266   */\n      dup3\n        /* \"#utility.yul\":255:258   */\n      dup3\n        /* \"#utility.yul\":248:267   */\n      mstore\n        /* \"#utility.yul\":300:304   */\n      0x20\n        /* \"#utility.yul\":295:298   */\n      dup3\n        /* \"#utility.yul\":291:305   */\n      add\n        /* \"#utility.yul\":276:305   */\n      swap1\n      pop\n        /* \"#utility.yul\":127:311   */\n      swap3\n      swap2\n      pop\n      pop\n      jump\t// out\n        /* \"#utility.yul\":317:449   */\n    tag_56:\n        /* \"#utility.yul\":384:388   */\n      0x00\n        /* \"#utility.yul\":407:410   */\n      dup2\n        /* \"#utility.yul\":399:410   */\n      swap1\n      pop\n        /* \"#utility.yul\":437:441   */\n      0x20\n        /* \"#utility.yul\":432:435   */\n      dup3\n        /* \"#utility.yul\":428:442   */\n      add\n        /* \"#utility.yul\":420:442   */\n      swap1\n      pop\n        /* \"#utility.yul\":317:449   */\n      swap2\n      swap1\n      pop\n      jump\t// out\n        /* \"#utility.yul\":455:581   */\n    tag_57:\n        /* \"#utility.yul\":492:499   */\n      0x00\n        /* \"#utility.yul\":532:574   */\n      0xffffffffffffffffffffffffffffffffffffffff\n        /* \"#utility.yul\":525:530   */\n      dup3\n        /* \"#utility.yul\":521:575   */\n      and\n        /* \"#utility.yul\":510:575   */\n      swap1\n      pop\n        /* \"#utility.yul\":455:581   */\n      swap2\n      swap1\n      pop\n      jump\t// out\n        /* \"#utility.yul\":587:683   */\n    tag_58:\n        /* \"#utility.yul\":624:631   */\n      0x00\n        /* \"#utility.yul\":653:677   */\n      tag_97\n        /* \"#utility.yul\":671:676   */\n      dup3\n        /* \"#utility.yul\":653:677   */\n      tag_57\n      jump\t// in\n    tag_97:\n        /* \"#utility.yul\":642:677   */\n      swap1\n      pop\n        /* \"#utility.yul\":587:683   */\n      swap2\n      swap1\n      pop\n      jump\t// out\n        /* \"#utility.yul\":689:797   */\n    tag_59:\n        /* \"#utility.yul\":766:790   */\n      tag_99\n        /* \"#utility.yul\":784:789   */\n      dup2\n        /* \"#utility.yul\":766:790   */\n      tag_58\n      jump\t// in\n    tag_99:\n        /* \"#utility.yul\":761:764   */\n      dup3\n        /* \"#utility.yul\":754:791   */\n      mstore\n        /* \"#utility.yul\":689:797   */\n      pop\n      pop\n      jump\t// out\n        /* \"#utility.yul\":803:982   */\n    tag_60:\n        /* \"#utility.yul\":872:882   */\n      0x00\n        /* \"#utility.yul\":893:939   */\n      tag_101\n        /* \"#utility.yul\":935:938   */\n      dup4\n        /* \"#utility.yul\":927:933   */\n      dup4\n        /* \"#utility.yul\":893:939   */\n      tag_59\n      jump\t// in\n    tag_101:\n        /* \"#utility.yul\":971:975   */\n      0x20\n        /* \"#utility.yul\":966:969   */\n      dup4\n        /* \"#utility.yul\":962:976   */\n      add\n        /* \"#utility.yul\":948:976   */\n      swap1\n      pop\n        /* \"#utility.yul\":803:982   */\n      swap3\n      swap2\n      pop\n      pop\n      jump\t// out\n        /* \"#utility.yul\":988:1101   */\n    tag_61:\n        /* \"#utility.yul\":1058:1062   */\n      0x00\n        /* \"#utility.yul\":1090:1094   */\n      0x20\n        /* \"#utility.yul\":1085:1088   */\n      dup3\n        /* \"#utility.yul\":1081:1095   */\n      add\n        /* \"#utility.yul\":1073:1095   */\n      swap1\n      pop\n        /* \"#utility.yul\":988:1101   */\n      swap2\n      swap1\n      pop\n      jump\t// out\n        /* \"#utility.yul\":1137:1869   */\n    tag_62:\n        /* \"#utility.yul\":1256:1259   */\n      0x00\n        /* \"#utility.yul\":1285:1339   */\n      tag_104\n        /* \"#utility.yul\":1333:1338   */\n      dup3\n        /* \"#utility.yul\":1285:1339   */\n      tag_54\n      jump\t// in\n    tag_104:\n        /* \"#utility.yul\":1355:1441   */\n      tag_105\n        /* \"#utility.yul\":1434:1440   */\n      dup2\n        /* \"#utility.yul\":1429:1432   */\n      dup6\n        /* \"#utility.yul\":1355:1441   */\n      tag_55\n      jump\t// in\n    tag_105:\n        /* \"#utility.yul\":1348:1441   */\n      swap4\n      pop\n        /* \"#utility.yul\":1465:1521   */\n      tag_106\n        /* \"#utility.yul\":1515:1520   */\n      dup4\n        /* \"#utility.yul\":1465:1521   */\n      tag_56\n      jump\t// in\n    tag_106:\n        /* \"#utility.yul\":1544:1551   */\n      dup1\n        /* \"#utility.yul\":1575:1576   */\n      0x00\n        /* \"#utility.yul\":1560:1844   */\n    tag_107:\n        /* \"#utility.yul\":1585:1591   */\n      dup4\n        /* \"#utility.yul\":1582:1583   */\n      dup2\n        /* \"#utility.yul\":1579:1592   */\n      lt\n        /* \"#utility.yul\":1560:1844   */\n      iszero\n      tag_109\n      jumpi\n        /* \"#utility.yul\":1661:1667   */\n      dup2\n        /* \"#utility.yul\":1655:1668   */\n      mload\n        /* \"#utility.yul\":1688:1751   */\n      tag_110\n        /* \"#utility.yul\":1747:1750   */\n      dup9\n        /* \"#utility.yul\":1732:1745   */\n      dup3\n        /* \"#utility.yul\":1688:1751   */\n      tag_60\n      jump\t// in\n    tag_110:\n        /* \"#utility.yul\":1681:1751   */\n      swap8\n      pop\n        /* \"#utility.yul\":1774:1834   */\n      tag_111\n        /* \"#utility.yul\":1827:1833   */\n      dup4\n        /* \"#utility.yul\":1774:1834   */\n      tag_61\n      jump\t// in\n    tag_111:\n        /* \"#utility.yul\":1764:1834   */\n      swap3\n      pop\n        /* \"#utility.yul\":1620:1844   */\n      pop\n        /* \"#utility.yul\":1607:1608   */\n      0x01\n        /* \"#utility.yul\":1604:1605   */\n      dup2\n        /* \"#utility.yul\":1600:1609   */\n      add\n        /* \"#utility.yul\":1595:1609   */\n      swap1\n      pop\n        /* \"#utility.yul\":1560:1844   */\n      jump(tag_107)\n    tag_109:\n        /* \"#utility.yul\":1564:1578   */\n      pop\n        /* \"#utility.yul\":1860:1863   */\n      dup6\n        /* \"#utility.yul\":1853:1863   */\n      swap4\n      pop\n        /* \"#utility.yul\":1261:1869   */\n      pop\n      pop\n      pop\n        /* \"#utility.yul\":1137:1869   */\n      swap3\n      swap2\n      pop\n      pop\n      jump\t// out\n        /* \"#utility.yul\":1875:2248   */\n    tag_11:\n        /* \"#utility.yul\":2018:2022   */\n      0x00\n        /* \"#utility.yul\":2056:2058   */\n      0x20\n        /* \"#utility.yul\":2045:2054   */\n      dup3\n        /* \"#utility.yul\":2041:2059   */\n      add\n        /* \"#utility.yul\":2033:2059   */\n      swap1\n      pop\n        /* \"#utility.yul\":2105:2114   */\n      dup2\n        /* \"#utility.yul\":2099:2103   */\n      dup2\n        /* \"#utility.yul\":2095:2115   */\n      sub\n        /* \"#utility.yul\":2091:2092   */\n      0x00\n        /* \"#utility.yul\":2080:2089   */\n      dup4\n        /* \"#utility.yul\":2076:2093   */\n      add\n        /* \"#utility.yul\":2069:2116   */\n      mstore\n        /* \"#utility.yul\":2133:2241   */\n      tag_113\n        /* \"#utility.yul\":2236:2240   */\n      dup2\n        /* \"#utility.yul\":2227:2233   */\n      dup5\n        /* \"#utility.yul\":2133:2241   */\n      tag_62\n      jump\t// in\n    tag_113:\n        /* \"#utility.yul\":2125:2241   */\n      swap1\n      pop\n        /* \"#utility.yul\":1875:2248   */\n      swap3\n      swap2\n      pop\n      pop\n      jump\t// out\n        /* \"#utility.yul\":2254:2329   */\n    tag_63:\n        /* \"#utility.yul\":2287:2293   */\n      0x00\n        /* \"#utility.yul\":2320:2322   */\n      0x40\n        /* \"#utility.yul\":2314:2323   */\n      mload\n        /* \"#utility.yul\":2304:2323   */\n      swap1\n      pop\n        /* \"#utility.yul\":2254:2329   */\n      swap1\n      jump\t// out\n        /* \"#utility.yul\":2335:2452   */\n    tag_64:\n        /* \"#utility.yul\":2444:2445   */\n      0x00\n        /* \"#utility.yul\":2441:2442   */\n      dup1\n        /* \"#utility.yul\":2434:2446   */\n      revert\n        /* \"#utility.yul\":2458:2575   */\n    tag_65:\n        /* \"#utility.yul\":2567:2568   */\n      0x00\n        /* \"#utility.yul\":2564:2565   */\n      dup1\n        /* \"#utility.yul\":2557:2569   */\n      revert\n        /* \"#utility.yul\":2581:2703   */\n    tag_66:\n        /* \"#utility.yul\":2654:2678   */\n      tag_118\n        /* \"#utility.yul\":2672:2677   */\n      dup2\n        /* \"#utility.yul\":2654:2678   */\n      tag_58\n      jump\t// in\n    tag_118:\n        /* \"#utility.yul\":2647:2652   */\n      dup2\n        /* \"#utility.yul\":2644:2679   */\n      eq\n        /* \"#utility.yul\":2634:2697   */\n      tag_119\n      jumpi\n        /* \"#utility.yul\":2693:2694   */\n      0x00\n        /* \"#utility.yul\":2690:2691   */\n      dup1\n        /* \"#utility.yul\":2683:2695   */\n      revert\n        /* \"#utility.yul\":2634:2697   */\n    tag_119:\n        /* \"#utility.yul\":2581:2703   */\n      pop\n      jump\t// out\n        /* \"#utility.yul\":2709:2848   */\n    tag_67:\n        /* \"#utility.yul\":2755:2760   */\n      0x00\n        /* \"#utility.yul\":2793:2799   */\n      dup2\n        /* \"#utility.yul\":2780:2800   */\n      calldataload\n        /* \"#utility.yul\":2771:2800   */\n      swap1\n      pop\n        /* \"#utility.yul\":2809:2842   */\n      tag_121\n        /* \"#utility.yul\":2836:2841   */\n      dup2\n        /* \"#utility.yul\":2809:2842   */\n      tag_66\n      jump\t// in\n    tag_121:\n        /* \"#utility.yul\":2709:2848   */\n      swap3\n      swap2\n      pop\n      pop\n      jump\t// out\n        /* \"#utility.yul\":2854:2931   */\n    tag_68:\n        /* \"#utility.yul\":2891:2898   */\n      0x00\n        /* \"#utility.yul\":2920:2925   */\n      dup2\n        /* \"#utility.yul\":2909:2925   */\n      swap1\n      pop\n        /* \"#utility.yul\":2854:2931   */\n      swap2\n      swap1\n      pop\n      jump\t// out\n        /* \"#utility.yul\":2937:3059   */\n    tag_69:\n        /* \"#utility.yul\":3010:3034   */\n      tag_124\n        /* \"#utility.yul\":3028:3033   */\n      dup2\n        /* \"#utility.yul\":3010:3034   */\n      tag_68\n      jump\t// in\n    tag_124:\n        /* \"#utility.yul\":3003:3008   */\n      dup2\n        /* \"#utility.yul\":3000:3035   */\n      eq\n        /* \"#utility.yul\":2990:3053   */\n      tag_125\n      jumpi\n        /* \"#utility.yul\":3049:3050   */\n      0x00\n        /* \"#utility.yul\":3046:3047   */\n      dup1\n        /* \"#utility.yul\":3039:3051   */\n      revert\n        /* \"#utility.yul\":2990:3053   */\n    tag_125:\n        /* \"#utility.yul\":2937:3059   */\n      pop\n      jump\t// out\n        /* \"#utility.yul\":3065:3204   */\n    tag_70:\n        /* \"#utility.yul\":3111:3116   */\n      0x00\n        /* \"#utility.yul\":3149:3155   */\n      dup2\n        /* \"#utility.yul\":3136:3156   */\n      calldataload\n        /* \"#utility.yul\":3127:3156   */\n      swap1\n      pop\n        /* \"#utility.yul\":3165:3198   */\n      tag_127\n        /* \"#utility.yul\":3192:3197   */\n      dup2\n        /* \"#utility.yul\":3165:3198   */\n      tag_69\n      jump\t// in\n    tag_127:\n        /* \"#utility.yul\":3065:3204   */\n      swap3\n      swap2\n      pop\n      pop\n      jump\t// out\n        /* \"#utility.yul\":3210:3327   */\n    tag_71:\n        /* \"#utility.yul\":3319:3320   */\n      0x00\n        /* \"#utility.yul\":3316:3317   */\n      dup1\n        /* \"#utility.yul\":3309:3321   */\n      revert\n        /* \"#utility.yul\":3333:3450   */\n    tag_72:\n        /* \"#utility.yul\":3442:3443   */\n      0x00\n        /* \"#utility.yul\":3439:3440   */\n      dup1\n        /* \"#utility.yul\":3432:3444   */\n      revert\n        /* \"#utility.yul\":3456:3558   */\n    tag_73:\n        /* \"#utility.yul\":3497:3503   */\n      0x00\n        /* \"#utility.yul\":3548:3550   */\n      0x1f\n        /* \"#utility.yul\":3544:3551   */\n      not\n        /* \"#utility.yul\":3539:3541   */\n      0x1f\n        /* \"#utility.yul\":3532:3537   */\n      dup4\n        /* \"#utility.yul\":3528:3542   */\n      add\n        /* \"#utility.yul\":3524:3552   */\n      and\n        /* \"#utility.yul\":3514:3552   */\n      swap1\n      pop\n        /* \"#utility.yul\":3456:3558   */\n      swap2\n      swap1\n      pop\n      jump\t// out\n        /* \"#utility.yul\":3564:3744   */\n    tag_74:\n        /* \"#utility.yul\":3612:3689   */\n      0x4e487b7100000000000000000000000000000000000000000000000000000000\n        /* \"#utility.yul\":3609:3610   */\n      0x00\n        /* \"#utility.yul\":3602:3690   */\n      mstore\n        /* \"#utility.yul\":3709:3713   */\n      0x41\n        /* \"#utility.yul\":3706:3707   */\n      0x04\n        /* \"#utility.yul\":3699:3714   */\n      mstore\n        /* \"#utility.yul\":3733:3737   */\n      0x24\n        /* \"#utility.yul\":3730:3731   */\n      0x00\n        /* \"#utility.yul\":3723:3738   */\n      revert\n        /* \"#utility.yul\":3750:4031   */\n    tag_75:\n        /* \"#utility.yul\":3833:3860   */\n      tag_133\n        /* \"#utility.yul\":3855:3859   */\n      dup3\n        /* \"#utility.yul\":3833:3860   */\n      tag_73\n      jump\t// in\n    tag_133:\n        /* \"#utility.yul\":3825:3831   */\n      dup2\n        /* \"#utility.yul\":3821:3861   */\n      add\n        /* \"#utility.yul\":3963:3969   */\n      dup2\n        /* \"#utility.yul\":3951:3961   */\n      dup2\n        /* \"#utility.yul\":3948:3970   */\n      lt\n        /* \"#utility.yul\":3927:3945   */\n      0xffffffffffffffff\n        /* \"#utility.yul\":3915:3925   */\n      dup3\n        /* \"#utility.yul\":3912:3946   */\n      gt\n        /* \"#utility.yul\":3909:3971   */\n      or\n        /* \"#utility.yul\":3906:3994   */\n      iszero\n      tag_134\n      jumpi\n        /* \"#utility.yul\":3974:3992   */\n      tag_135\n      tag_74\n      jump\t// in\n    tag_135:\n        /* \"#utility.yul\":3906:3994   */\n    tag_134:\n        /* \"#utility.yul\":4014:4024   */\n      dup1\n        /* \"#utility.yul\":4010:4012   */\n      0x40\n        /* \"#utility.yul\":4003:4025   */\n      mstore\n        /* \"#utility.yul\":3793:4031   */\n      pop\n        /* \"#utility.yul\":3750:4031   */\n      pop\n      pop\n      jump\t// out\n        /* \"#utility.yul\":4037:4166   */\n    tag_76:\n        /* \"#utility.yul\":4071:4077   */\n      0x00\n        /* \"#utility.yul\":4098:4118   */\n      tag_137\n      tag_63\n      jump\t// in\n    tag_137:\n        /* \"#utility.yul\":4088:4118   */\n      swap1\n      pop\n        /* \"#utility.yul\":4127:4160   */\n      tag_138\n        /* \"#utility.yul\":4155:4159   */\n      dup3\n        /* \"#utility.yul\":4147:4153   */\n      dup3\n        /* \"#utility.yul\":4127:4160   */\n      tag_75\n      jump\t// in\n    tag_138:\n        /* \"#utility.yul\":4037:4166   */\n      swap2\n      swap1\n      pop\n      jump\t// out\n        /* \"#utility.yul\":4172:4479   */\n    tag_77:\n        /* \"#utility.yul\":4233:4237   */\n      0x00\n        /* \"#utility.yul\":4323:4341   */\n      0xffffffffffffffff\n        /* \"#utility.yul\":4315:4321   */\n      dup3\n        /* \"#utility.yul\":4312:4342   */\n      gt\n        /* \"#utility.yul\":4309:4365   */\n      iszero\n      tag_140\n      jumpi\n        /* \"#utility.yul\":4345:4363   */\n      tag_141\n      tag_74\n      jump\t// in\n    tag_141:\n        /* \"#utility.yul\":4309:4365   */\n    tag_140:\n        /* \"#utility.yul\":4383:4412   */\n      tag_142\n        /* \"#utility.yul\":4405:4411   */\n      dup3\n        /* \"#utility.yul\":4383:4412   */\n      tag_73\n      jump\t// in\n    tag_142:\n        /* \"#utility.yul\":4375:4412   */\n      swap1\n      pop\n        /* \"#utility.yul\":4467:4471   */\n      0x20\n        /* \"#utility.yul\":4461:4465   */\n      dup2\n        /* \"#utility.yul\":4457:4472   */\n      add\n        /* \"#utility.yul\":4449:4472   */\n      swap1\n      pop\n        /* \"#utility.yul\":4172:4479   */\n      swap2\n      swap1\n      pop\n      jump\t// out\n        /* \"#utility.yul\":4485:4633   */\n    tag_78:\n        /* \"#utility.yul\":4583:4589   */\n      dup3\n        /* \"#utility.yul\":4578:4581   */\n      dup2\n        /* \"#utility.yul\":4573:4576   */\n      dup4\n        /* \"#utility.yul\":4560:4590   */\n      calldatacopy\n        /* \"#utility.yul\":4624:4625   */\n      0x00\n        /* \"#utility.yul\":4615:4621   */\n      dup4\n        /* \"#utility.yul\":4610:4613   */\n      dup4\n        /* \"#utility.yul\":4606:4622   */\n      add\n        /* \"#utility.yul\":4599:4626   */\n      mstore\n        /* \"#utility.yul\":4485:4633   */\n      pop\n      pop\n      pop\n      jump\t// out\n        /* \"#utility.yul\":4639:5062   */\n    tag_79:\n        /* \"#utility.yul\":4716:4721   */\n      0x00\n        /* \"#utility.yul\":4741:4806   */\n      tag_145\n        /* \"#utility.yul\":4757:4805   */\n      tag_146\n        /* \"#utility.yul\":4798:4804   */\n      dup5\n        /* \"#utility.yul\":4757:4805   */\n      tag_77\n      jump\t// in\n    tag_146:\n        /* \"#utility.yul\":4741:4806   */\n      tag_76\n      jump\t// in\n    tag_145:\n        /* \"#utility.yul\":4732:4806   */\n      swap1\n      pop\n        /* \"#utility.yul\":4829:4835   */\n      dup3\n        /* \"#utility.yul\":4822:4827   */\n      dup2\n        /* \"#utility.yul\":4815:4836   */\n      mstore\n        /* \"#utility.yul\":4867:4871   */\n      0x20\n        /* \"#utility.yul\":4860:4865   */\n      dup2\n        /* \"#utility.yul\":4856:4872   */\n      add\n        /* \"#utility.yul\":4905:4908   */\n      dup5\n        /* \"#utility.yul\":4896:4902   */\n      dup5\n        /* \"#utility.yul\":4891:4894   */\n      dup5\n        /* \"#utility.yul\":4887:4903   */\n      add\n        /* \"#utility.yul\":4884:4909   */\n      gt\n        /* \"#utility.yul\":4881:4993   */\n      iszero\n      tag_147\n      jumpi\n        /* \"#utility.yul\":4912:4991   */\n      tag_148\n      tag_72\n      jump\t// in\n    tag_148:\n        /* \"#utility.yul\":4881:4993   */\n    tag_147:\n        /* \"#utility.yul\":5002:5056   */\n      tag_149\n        /* \"#utility.yul\":5049:5055   */\n      dup5\n        /* \"#utility.yul\":5044:5047   */\n      dup3\n        /* \"#utility.yul\":5039:5042   */\n      dup6\n        /* \"#utility.yul\":5002:5056   */\n      tag_78\n      jump\t// in\n    tag_149:\n        /* \"#utility.yul\":4722:5062   */\n      pop\n        /* \"#utility.yul\":4639:5062   */\n      swap4\n      swap3\n      pop\n      pop\n      pop\n      jump\t// out\n        /* \"#utility.yul\":5081:5419   */\n    tag_80:\n        /* \"#utility.yul\":5136:5141   */\n      0x00\n        /* \"#utility.yul\":5185:5188   */\n      dup3\n        /* \"#utility.yul\":5178:5182   */\n      0x1f\n        /* \"#utility.yul\":5170:5176   */\n      dup4\n        /* \"#utility.yul\":5166:5183   */\n      add\n        /* \"#utility.yul\":5162:5189   */\n      slt\n        /* \"#utility.yul\":5152:5274   */\n      tag_151\n      jumpi\n        /* \"#utility.yul\":5193:5272   */\n      tag_152\n      tag_71\n      jump\t// in\n    tag_152:\n        /* \"#utility.yul\":5152:5274   */\n    tag_151:\n        /* \"#utility.yul\":5310:5316   */\n      dup2\n        /* \"#utility.yul\":5297:5317   */\n      calldataload\n        /* \"#utility.yul\":5335:5413   */\n      tag_153\n        /* \"#utility.yul\":5409:5412   */\n      dup5\n        /* \"#utility.yul\":5401:5407   */\n      dup3\n        /* \"#utility.yul\":5394:5398   */\n      0x20\n        /* \"#utility.yul\":5386:5392   */\n      dup7\n        /* \"#utility.yul\":5382:5399   */\n      add\n        /* \"#utility.yul\":5335:5413   */\n      tag_79\n      jump\t// in\n    tag_153:\n        /* \"#utility.yul\":5326:5413   */\n      swap2\n      pop\n        /* \"#utility.yul\":5142:5419   */\n      pop\n        /* \"#utility.yul\":5081:5419   */\n      swap3\n      swap2\n      pop\n      pop\n      jump\t// out\n        /* \"#utility.yul\":5425:6368   */\n    tag_14:\n        /* \"#utility.yul\":5520:5526   */\n      0x00\n        /* \"#utility.yul\":5528:5534   */\n      dup1\n        /* \"#utility.yul\":5536:5542   */\n      0x00\n        /* \"#utility.yul\":5544:5550   */\n      dup1\n        /* \"#utility.yul\":5593:5596   */\n      0x80\n        /* \"#utility.yul\":5581:5590   */\n      dup6\n        /* \"#utility.yul\":5572:5579   */\n      dup8\n        /* \"#utility.yul\":5568:5591   */\n      sub\n        /* \"#utility.yul\":5564:5597   */\n      slt\n        /* \"#utility.yul\":5561:5681   */\n      iszero\n      tag_155\n      jumpi\n        /* \"#utility.yul\":5600:5679   */\n      tag_156\n      tag_64\n      jump\t// in\n    tag_156:\n        /* \"#utility.yul\":5561:5681   */\n    tag_155:\n        /* \"#utility.yul\":5720:5721   */\n      0x00\n        /* \"#utility.yul\":5745:5798   */\n      tag_157\n        /* \"#utility.yul\":5790:5797   */\n      dup8\n        /* \"#utility.yul\":5781:5787   */\n      dup3\n        /* \"#utility.yul\":5770:5779   */\n      dup9\n        /* \"#utility.yul\":5766:5788   */\n      add\n        /* \"#utility.yul\":5745:5798   */\n      tag_67\n      jump\t// in\n    tag_157:\n        /* \"#utility.yul\":5735:5798   */\n      swap5\n      pop\n        /* \"#utility.yul\":5691:5808   */\n      pop\n        /* \"#utility.yul\":5847:5849   */\n      0x20\n        /* \"#utility.yul\":5873:5926   */\n      tag_158\n        /* \"#utility.yul\":5918:5925   */\n      dup8\n        /* \"#utility.yul\":5909:5915   */\n      dup3\n        /* \"#utility.yul\":5898:5907   */\n      dup9\n        /* \"#utility.yul\":5894:5916   */\n      add\n        /* \"#utility.yul\":5873:5926   */\n      tag_67\n      jump\t// in\n    tag_158:\n        /* \"#utility.yul\":5863:5926   */\n      swap4\n      pop\n        /* \"#utility.yul\":5818:5936   */\n      pop\n        /* \"#utility.yul\":5975:5977   */\n      0x40\n        /* \"#utility.yul\":6001:6054   */\n      tag_159\n        /* \"#utility.yul\":6046:6053   */\n      dup8\n        /* \"#utility.yul\":6037:6043   */\n      dup3\n        /* \"#utility.yul\":6026:6035   */\n      dup9\n        /* \"#utility.yul\":6022:6044   */\n      add\n        /* \"#utility.yul\":6001:6054   */\n      tag_70\n      jump\t// in\n    tag_159:\n        /* \"#utility.yul\":5991:6054   */\n      swap3\n      pop\n        /* \"#utility.yul\":5946:6064   */\n      pop\n        /* \"#utility.yul\":6131:6133   */\n      0x60\n        /* \"#utility.yul\":6120:6129   */\n      dup6\n        /* \"#utility.yul\":6116:6134   */\n      add\n        /* \"#utility.yul\":6103:6135   */\n      calldataload\n        /* \"#utility.yul\":6162:6180   */\n      0xffffffffffffffff\n        /* \"#utility.yul\":6154:6160   */\n      dup2\n        /* \"#utility.yul\":6151:6181   */\n      gt\n        /* \"#utility.yul\":6148:6265   */\n      iszero\n      tag_160\n      jumpi\n        /* \"#utility.yul\":6184:6263   */\n      tag_161\n      tag_65\n      jump\t// in\n    tag_161:\n        /* \"#utility.yul\":6148:6265   */\n    tag_160:\n        /* \"#utility.yul\":6289:6351   */\n      tag_162\n        /* \"#utility.yul\":6343:6350   */\n      dup8\n        /* \"#utility.yul\":6334:6340   */\n      dup3\n        /* \"#utility.yul\":6323:6332   */\n      dup9\n        /* \"#utility.yul\":6319:6341   */\n      add\n        /* \"#utility.yul\":6289:6351   */\n      tag_80\n      jump\t// in\n    tag_162:\n        /* \"#utility.yul\":6279:6351   */\n      swap2\n      pop\n        /* \"#utility.yul\":6074:6361   */\n      pop\n        /* \"#utility.yul\":5425:6368   */\n      swap3\n      swap6\n      swap2\n      swap5\n      pop\n      swap3\n      pop\n      jump\t// out\n        /* \"#utility.yul\":6374:6523   */\n    tag_81:\n        /* \"#utility.yul\":6410:6417   */\n      0x00\n        /* \"#utility.yul\":6450:6516   */\n      0xffffffff00000000000000000000000000000000000000000000000000000000\n        /* \"#utility.yul\":6443:6448   */\n      dup3\n        /* \"#utility.yul\":6439:6517   */\n      and\n        /* \"#utility.yul\":6428:6517   */\n      swap1\n      pop\n        /* \"#utility.yul\":6374:6523   */\n      swap2\n      swap1\n      pop\n      jump\t// out\n        /* \"#utility.yul\":6529:6644   */\n    tag_82:\n        /* \"#utility.yul\":6614:6637   */\n      tag_165\n        /* \"#utility.yul\":6631:6636   */\n      dup2\n        /* \"#utility.yul\":6614:6637   */\n      tag_81\n      jump\t// in\n    tag_165:\n        /* \"#utility.yul\":6609:6612   */\n      dup3\n        /* \"#utility.yul\":6602:6638   */\n      mstore\n        /* \"#utility.yul\":6529:6644   */\n      pop\n      pop\n      jump\t// out\n        /* \"#utility.yul\":6650:6868   */\n    tag_17:\n        /* \"#utility.yul\":6741:6745   */\n      0x00\n        /* \"#utility.yul\":6779:6781   */\n      0x20\n        /* \"#utility.yul\":6768:6777   */\n      dup3\n        /* \"#utility.yul\":6764:6782   */\n      add\n        /* \"#utility.yul\":6756:6782   */\n      swap1\n      pop\n        /* \"#utility.yul\":6792:6861   */\n      tag_167\n        /* \"#utility.yul\":6858:6859   */\n      0x00\n        /* \"#utility.yul\":6847:6856   */\n      dup4\n        /* \"#utility.yul\":6843:6860   */\n      add\n        /* \"#utility.yul\":6834:6840   */\n      dup5\n        /* \"#utility.yul\":6792:6861   */\n      tag_82\n      jump\t// in\n    tag_167:\n        /* \"#utility.yul\":6650:6868   */\n      swap3\n      swap2\n      pop\n      pop\n      jump\t// out\n        /* \"#utility.yul\":6874:6992   */\n    tag_83:\n        /* \"#utility.yul\":6961:6985   */\n      tag_169\n        /* \"#utility.yul\":6979:6984   */\n      dup2\n        /* \"#utility.yul\":6961:6985   */\n      tag_68\n      jump\t// in\n    tag_169:\n        /* \"#utility.yul\":6956:6959   */\n      dup3\n        /* \"#utility.yul\":6949:6986   */\n      mstore\n        /* \"#utility.yul\":6874:6992   */\n      pop\n      pop\n      jump\t// out\n        /* \"#utility.yul\":6998:7220   */\n    tag_21:\n        /* \"#utility.yul\":7091:7095   */\n      0x00\n        /* \"#utility.yul\":7129:7131   */\n      0x20\n        /* \"#utility.yul\":7118:7127   */\n      dup3\n        /* \"#utility.yul\":7114:7132   */\n      add\n        /* \"#utility.yul\":7106:7132   */\n      swap1\n      pop\n        /* \"#utility.yul\":7142:7213   */\n      tag_171\n        /* \"#utility.yul\":7210:7211   */\n      0x00\n        /* \"#utility.yul\":7199:7208   */\n      dup4\n        /* \"#utility.yul\":7195:7212   */\n      add\n        /* \"#utility.yul\":7186:7192   */\n      dup5\n        /* \"#utility.yul\":7142:7213   */\n      tag_83\n      jump\t// in\n    tag_171:\n        /* \"#utility.yul\":6998:7220   */\n      swap3\n      swap2\n      pop\n      pop\n      jump\t// out\n        /* \"#utility.yul\":7226:7555   */\n    tag_24:\n        /* \"#utility.yul\":7285:7291   */\n      0x00\n        /* \"#utility.yul\":7334:7336   */\n      0x20\n        /* \"#utility.yul\":7322:7331   */\n      dup3\n        /* \"#utility.yul\":7313:7320   */\n      dup5\n        /* \"#utility.yul\":7309:7332   */\n      sub\n        /* \"#utility.yul\":7305:7337   */\n      slt\n        /* \"#utility.yul\":7302:7421   */\n      iszero\n      tag_173\n      jumpi\n        /* \"#utility.yul\":7340:7419   */\n      tag_174\n      tag_64\n      jump\t// in\n    tag_174:\n        /* \"#utility.yul\":7302:7421   */\n    tag_173:\n        /* \"#utility.yul\":7460:7461   */\n      0x00\n        /* \"#utility.yul\":7485:7538   */\n      tag_175\n        /* \"#utility.yul\":7530:7537   */\n      dup5\n        /* \"#utility.yul\":7521:7527   */\n      dup3\n        /* \"#utility.yul\":7510:7519   */\n      dup6\n        /* \"#utility.yul\":7506:7528   */\n      add\n        /* \"#utility.yul\":7485:7538   */\n      tag_67\n      jump\t// in\n    tag_175:\n        /* \"#utility.yul\":7475:7538   */\n      swap2\n      pop\n        /* \"#utility.yul\":7431:7548   */\n      pop\n        /* \"#utility.yul\":7226:7555   */\n      swap3\n      swap2\n      pop\n      pop\n      jump\t// out\n        /* \"#utility.yul\":7561:7651   */\n    tag_84:\n        /* \"#utility.yul\":7595:7602   */\n      0x00\n        /* \"#utility.yul\":7638:7643   */\n      dup2\n        /* \"#utility.yul\":7631:7644   */\n      iszero\n        /* \"#utility.yul\":7624:7645   */\n      iszero\n        /* \"#utility.yul\":7613:7645   */\n      swap1\n      pop\n        /* \"#utility.yul\":7561:7651   */\n      swap2\n      swap1\n      pop\n      jump\t// out\n        /* \"#utility.yul\":7657:7766   */\n    tag_85:\n        /* \"#utility.yul\":7738:7759   */\n      tag_178\n        /* \"#utility.yul\":7753:7758   */\n      dup2\n        /* \"#utility.yul\":7738:7759   */\n      tag_84\n      jump\t// in\n    tag_178:\n        /* \"#utility.yul\":7733:7736   */\n      dup3\n        /* \"#utility.yul\":7726:7760   */\n      mstore\n        /* \"#utility.yul\":7657:7766   */\n      pop\n      pop\n      jump\t// out\n        /* \"#utility.yul\":7772:7982   */\n    tag_27:\n        /* \"#utility.yul\":7859:7863   */\n      0x00\n        /* \"#utility.yul\":7897:7899   */\n      0x20\n        /* \"#utility.yul\":7886:7895   */\n      dup3\n        /* \"#utility.yul\":7882:7900   */\n      add\n        /* \"#utility.yul\":7874:7900   */\n      swap1\n      pop\n        /* \"#utility.yul\":7910:7975   */\n      tag_180\n        /* \"#utility.yul\":7972:7973   */\n      0x00\n        /* \"#utility.yul\":7961:7970   */\n      dup4\n        /* \"#utility.yul\":7957:7974   */\n      add\n        /* \"#utility.yul\":7948:7954   */\n      dup5\n        /* \"#utility.yul\":7910:7975   */\n      tag_85\n      jump\t// in\n    tag_180:\n        /* \"#utility.yul\":7772:7982   */\n      swap3\n      swap2\n      pop\n      pop\n      jump\t// out\n        /* \"#utility.yul\":7988:8106   */\n    tag_86:\n        /* \"#utility.yul\":8075:8099   */\n      tag_182\n        /* \"#utility.yul\":8093:8098   */\n      dup2\n        /* \"#utility.yul\":8075:8099   */\n      tag_58\n      jump\t// in\n    tag_182:\n        /* \"#utility.yul\":8070:8073   */\n      dup3\n        /* \"#utility.yul\":8063:8100   */\n      mstore\n        /* \"#utility.yul\":7988:8106   */\n      pop\n      pop\n      jump\t// out\n        /* \"#utility.yul\":8112:8210   */\n    tag_87:\n        /* \"#utility.yul\":8163:8169   */\n      0x00\n        /* \"#utility.yul\":8197:8202   */\n      dup2\n        /* \"#utility.yul\":8191:8203   */\n      mload\n        /* \"#utility.yul\":8181:8203   */\n      swap1\n      pop\n        /* \"#utility.yul\":8112:8210   */\n      swap2\n      swap1\n      pop\n      jump\t// out\n        /* \"#utility.yul\":8216:8384   */\n    tag_88:\n        /* \"#utility.yul\":8299:8310   */\n      0x00\n        /* \"#utility.yul\":8333:8339   */\n      dup3\n        /* \"#utility.yul\":8328:8331   */\n      dup3\n        /* \"#utility.yul\":8321:8340   */\n      mstore\n        /* \"#utility.yul\":8373:8377   */\n      0x20\n        /* \"#utility.yul\":8368:8371   */\n      dup3\n        /* \"#utility.yul\":8364:8378   */\n      add\n        /* \"#utility.yul\":8349:8378   */\n      swap1\n      pop\n        /* \"#utility.yul\":8216:8384   */\n      swap3\n      swap2\n      pop\n      pop\n      jump\t// out\n        /* \"#utility.yul\":8390:8529   */\n    tag_89:\n        /* \"#utility.yul\":8479:8485   */\n      dup3\n        /* \"#utility.yul\":8474:8477   */\n      dup2\n        /* \"#utility.yul\":8469:8472   */\n      dup4\n        /* \"#utility.yul\":8463:8486   */\n      mcopy\n        /* \"#utility.yul\":8520:8521   */\n      0x00\n        /* \"#utility.yul\":8511:8517   */\n      dup4\n        /* \"#utility.yul\":8506:8509   */\n      dup4\n        /* \"#utility.yul\":8502:8518   */\n      add\n        /* \"#utility.yul\":8495:8522   */\n      mstore\n        /* \"#utility.yul\":8390:8529   */\n      pop\n      pop\n      pop\n      jump\t// out\n        /* \"#utility.yul\":8535:8908   */\n    tag_90:\n        /* \"#utility.yul\":8621:8624   */\n      0x00\n        /* \"#utility.yul\":8649:8687   */\n      tag_187\n        /* \"#utility.yul\":8681:8686   */\n      dup3\n        /* \"#utility.yul\":8649:8687   */\n      tag_87\n      jump\t// in\n    tag_187:\n        /* \"#utility.yul\":8703:8773   */\n      tag_188\n        /* \"#utility.yul\":8766:8772   */\n      dup2\n        /* \"#utility.yul\":8761:8764   */\n      dup6\n        /* \"#utility.yul\":8703:8773   */\n      tag_88\n      jump\t// in\n    tag_188:\n        /* \"#utility.yul\":8696:8773   */\n      swap4\n      pop\n        /* \"#utility.yul\":8782:8847   */\n      tag_189\n        /* \"#utility.yul\":8840:8846   */\n      dup2\n        /* \"#utility.yul\":8835:8838   */\n      dup6\n        /* \"#utility.yul\":8828:8832   */\n      0x20\n        /* \"#utility.yul\":8821:8826   */\n      dup7\n        /* \"#utility.yul\":8817:8833   */\n      add\n        /* \"#utility.yul\":8782:8847   */\n      tag_89\n      jump\t// in\n    tag_189:\n        /* \"#utility.yul\":8872:8901   */\n      tag_190\n        /* \"#utility.yul\":8894:8900   */\n      dup2\n        /* \"#utility.yul\":8872:8901   */\n      tag_73\n      jump\t// in\n    tag_190:\n        /* \"#utility.yul\":8867:8870   */\n      dup5\n        /* \"#utility.yul\":8863:8902   */\n      add\n        /* \"#utility.yul\":8856:8902   */\n      swap2\n      pop\n        /* \"#utility.yul\":8625:8908   */\n      pop\n        /* \"#utility.yul\":8535:8908   */\n      swap3\n      swap2\n      pop\n      pop\n      jump\t// out\n        /* \"#utility.yul\":8914:9554   */\n    tag_37:\n        /* \"#utility.yul\":9109:9113   */\n      0x00\n        /* \"#utility.yul\":9147:9150   */\n      0x80\n        /* \"#utility.yul\":9136:9145   */\n      dup3\n        /* \"#utility.yul\":9132:9151   */\n      add\n        /* \"#utility.yul\":9124:9151   */\n      swap1\n      pop\n        /* \"#utility.yul\":9161:9232   */\n      tag_192\n        /* \"#utility.yul\":9229:9230   */\n      0x00\n        /* \"#utility.yul\":9218:9227   */\n      dup4\n        /* \"#utility.yul\":9214:9231   */\n      add\n        /* \"#utility.yul\":9205:9211   */\n      dup8\n        /* \"#utility.yul\":9161:9232   */\n      tag_86\n      jump\t// in\n    tag_192:\n        /* \"#utility.yul\":9242:9314   */\n      tag_193\n        /* \"#utility.yul\":9310:9312   */\n      0x20\n        /* \"#utility.yul\":9299:9308   */\n      dup4\n        /* \"#utility.yul\":9295:9313   */\n      add\n        /* \"#utility.yul\":9286:9292   */\n      dup7\n        /* \"#utility.yul\":9242:9314   */\n      tag_86\n      jump\t// in\n    tag_193:\n        /* \"#utility.yul\":9324:9396   */\n      tag_194\n        /* \"#utility.yul\":9392:9394   */\n      0x40\n        /* \"#utility.yul\":9381:9390   */\n      dup4\n        /* \"#utility.yul\":9377:9395   */\n      add\n        /* \"#utility.yul\":9368:9374   */\n      dup6\n        /* \"#utility.yul\":9324:9396   */\n      tag_83\n      jump\t// in\n    tag_194:\n        /* \"#utility.yul\":9443:9452   */\n      dup2\n        /* \"#utility.yul\":9437:9441   */\n      dup2\n        /* \"#utility.yul\":9433:9453   */\n      sub\n        /* \"#utility.yul\":9428:9430   */\n      0x60\n        /* \"#utility.yul\":9417:9426   */\n      dup4\n        /* \"#utility.yul\":9413:9431   */\n      add\n        /* \"#utility.yul\":9406:9454   */\n      mstore\n        /* \"#utility.yul\":9471:9547   */\n      tag_195\n        /* \"#utility.yul\":9542:9546   */\n      dup2\n        /* \"#utility.yul\":9533:9539   */\n      dup5\n        /* \"#utility.yul\":9471:9547   */\n      tag_90\n      jump\t// in\n    tag_195:\n        /* \"#utility.yul\":9463:9547   */\n      swap1\n      pop\n        /* \"#utility.yul\":8914:9554   */\n      swap6\n      swap5\n      pop\n      pop\n      pop\n      pop\n      pop\n      jump\t// out\n        /* \"#utility.yul\":9560:9740   */\n    tag_51:\n        /* \"#utility.yul\":9608:9685   */\n      0x4e487b7100000000000000000000000000000000000000000000000000000000\n        /* \"#utility.yul\":9605:9606   */\n      0x00\n        /* \"#utility.yul\":9598:9686   */\n      mstore\n        /* \"#utility.yul\":9705:9709   */\n      0x32\n        /* \"#utility.yul\":9702:9703   */\n      0x04\n        /* \"#utility.yul\":9695:9710   */\n      mstore\n        /* \"#utility.yul\":9729:9733   */\n      0x24\n        /* \"#utility.yul\":9726:9727   */\n      0x00\n        /* \"#utility.yul\":9719:9734   */\n      revert\n\n    auxdata: 0xa26469706673582212200ad92b2bfcff3b0743f8bac9c38c49a60ba42e768a1920189a13a697c904eecc64736f6c634300081a0033\n}\n",
				"bytecode": {
					"linkReferences": {},
					"object": "608060405234801561000f575f80fd5b50604051610af2380380610af28339818101604052810190610031919061019e565b5f81148061003f5750600181145b61007e576040517f08c379a00000000000000000000000000000000000000000000000000000000081526004016100759061026e565b60405180910390fd5b8260035f6101000a81548173ffffffffffffffffffffffffffffffffffffffff021916908373ffffffffffffffffffffffffffffffffffffffff1602179055508160045f6101000a81548173ffffffffffffffffffffffffffffffffffffffff021916908373ffffffffffffffffffffffffffffffffffffffff1602179055508060058190555050505061028c565b5f80fd5b5f73ffffffffffffffffffffffffffffffffffffffff82169050919050565b5f61013a82610111565b9050919050565b61014a81610130565b8114610154575f80fd5b50565b5f8151905061016581610141565b92915050565b5f819050919050565b61017d8161016b565b8114610187575f80fd5b50565b5f8151905061019881610174565b92915050565b5f805f606084860312156101b5576101b461010d565b5b5f6101c286828701610157565b93505060206101d386828701610157565b92505060406101e48682870161018a565b9150509250925092565b5f82825260208201905092915050565b7f4f6e6c792030206f7220312061636365707465642061732061697264726f70205f8201527f7479706500000000000000000000000000000000000000000000000000000000602082015250565b5f6102586024836101ee565b9150610263826101fe565b604082019050919050565b5f6020820190508181035f8301526102858161024c565b9050919050565b610859806102995f395ff3fe608060405234801561000f575f80fd5b5060043610610055575f3560e01c806309a9d76c14610059578063150b7a021461007757806351d6e8a4146100a75780636f9170f6146100c5578063dca11ab8146100f5575b5f80fd5b610061610125565b60405161006e919061041a565b60405180910390f35b610091600480360381019061008c91906105e4565b6101b0565b60405161009e919061069e565b60405180910390f35b6100af610200565b6040516100bc91906106c6565b60405180910390f35b6100df60048036038101906100da91906106df565b610209565b6040516100ec9190610724565b60405180910390f35b61010f600480360381019061010a91906106df565b61021a565b60405161011c9190610724565b60405180910390f35b606060018054806020026020016040519081016040528092919081815260200182805480156101a657602002820191905f5260205f20905b815f9054906101000a900473ffffffffffffffffffffffffffffffffffffffff1673ffffffffffffffffffffffffffffffffffffffff168152602001906001019080831161015d575b5050505050905090565b5f7f541cb930dbb178d9d0a40b098c309dda5a70e722066990941158d1f77b5bfcf3858585856040516101e694939291906107ac565b60405180910390a163150b7a0260e01b9050949350505050565b5f600254905090565b5f6102138261028e565b9050919050565b5f805f60025481526020019081526020015f205f8373ffffffffffffffffffffffffffffffffffffffff1673ffffffffffffffffffffffffffffffffffffffff1681526020019081526020015f205f9054906101000a900460ff1615801561028757506102868261028e565b5b9050919050565b5f8060018054905090505f5b81811015610328578373ffffffffffffffffffffffffffffffffffffffff16600182815481106102cd576102cc6107f6565b5b905f5260205f20015f9054906101000a900473ffffffffffffffffffffffffffffffffffffffff1673ffffffffffffffffffffffffffffffffffffffff160361031b5760019250505061032e565b808060010191505061029a565b505f9150505b919050565b5f81519050919050565b5f82825260208201905092915050565b5f819050602082019050919050565b5f73ffffffffffffffffffffffffffffffffffffffff82169050919050565b5f6103858261035c565b9050919050565b6103958161037b565b82525050565b5f6103a6838361038c565b60208301905092915050565b5f602082019050919050565b5f6103c882610333565b6103d2818561033d565b93506103dd8361034d565b805f5b8381101561040d5781516103f4888261039b565b97506103ff836103b2565b9250506001810190506103e0565b5085935050505092915050565b5f6020820190508181035f83015261043281846103be565b905092915050565b5f604051905090565b5f80fd5b5f80fd5b6104548161037b565b811461045e575f80fd5b50565b5f8135905061046f8161044b565b92915050565b5f819050919050565b61048781610475565b8114610491575f80fd5b50565b5f813590506104a28161047e565b92915050565b5f80fd5b5f80fd5b5f601f19601f8301169050919050565b7f4e487b71000000000000000000000000000000000000000000000000000000005f52604160045260245ffd5b6104f6826104b0565b810181811067ffffffffffffffff82111715610515576105146104c0565b5b80604052505050565b5f61052761043a565b905061053382826104ed565b919050565b5f67ffffffffffffffff821115610552576105516104c0565b5b61055b826104b0565b9050602081019050919050565b828183375f83830152505050565b5f61058861058384610538565b61051e565b9050828152602081018484840111156105a4576105a36104ac565b5b6105af848285610568565b509392505050565b5f82601f8301126105cb576105ca6104a8565b5b81356105db848260208601610576565b91505092915050565b5f805f80608085870312156105fc576105fb610443565b5b5f61060987828801610461565b945050602061061a87828801610461565b935050604061062b87828801610494565b925050606085013567ffffffffffffffff81111561064c5761064b610447565b5b610658878288016105b7565b91505092959194509250565b5f7fffffffff0000000000000000000000000000000000000000000000000000000082169050919050565b61069881610664565b82525050565b5f6020820190506106b15f83018461068f565b92915050565b6106c081610475565b82525050565b5f6020820190506106d95f8301846106b7565b92915050565b5f602082840312156106f4576106f3610443565b5b5f61070184828501610461565b91505092915050565b5f8115159050919050565b61071e8161070a565b82525050565b5f6020820190506107375f830184610715565b92915050565b6107468161037b565b82525050565b5f81519050919050565b5f82825260208201905092915050565b8281835e5f83830152505050565b5f61077e8261074c565b6107888185610756565b9350610798818560208601610766565b6107a1816104b0565b840191505092915050565b5f6080820190506107bf5f83018761073d565b6107cc602083018661073d565b6107d960408301856106b7565b81810360608301526107eb8184610774565b905095945050505050565b7f4e487b71000000000000000000000000000000000000000000000000000000005f52603260045260245ffdfea26469706673582212200ad92b2bfcff3b0743f8bac9c38c49a60ba42e768a1920189a13a697c904eecc64736f6c634300081a0033",
					"opcodes": "PUSH1 0x80 PUSH1 0x40 MSTORE CALLVALUE DUP1 ISZERO PUSH2 0xF JUMPI PUSH0 DUP1 REVERT JUMPDEST POP PUSH1 0x40 MLOAD PUSH2 0xAF2 CODESIZE SUB DUP1 PUSH2 0xAF2 DUP4 CODECOPY DUP2 DUP2 ADD PUSH1 0x40 MSTORE DUP2 ADD SWAP1 PUSH2 0x31 SWAP2 SWAP1 PUSH2 0x19E JUMP JUMPDEST PUSH0 DUP2 EQ DUP1 PUSH2 0x3F JUMPI POP PUSH1 0x1 DUP2 EQ JUMPDEST PUSH2 0x7E JUMPI PUSH1 0x40 MLOAD PUSH32 0x8C379A000000000000000000000000000000000000000000000000000000000 DUP2 MSTORE PUSH1 0x4 ADD PUSH2 0x75 SWAP1 PUSH2 0x26E JUMP JUMPDEST PUSH1 0x40 MLOAD DUP1 SWAP2 SUB SWAP1 REVERT JUMPDEST DUP3 PUSH1 0x3 PUSH0 PUSH2 0x100 EXP DUP2 SLOAD DUP2 PUSH20 0xFFFFFFFFFFFFFFFFFFFFFFFFFFFFFFFFFFFFFFFF MUL NOT AND SWAP1 DUP4 PUSH20 0xFFFFFFFFFFFFFFFFFFFFFFFFFFFFFFFFFFFFFFFF AND MUL OR SWAP1 SSTORE POP DUP2 PUSH1 0x4 PUSH0 PUSH2 0x100 EXP DUP2 SLOAD DUP2 PUSH20 0xFFFFFFFFFFFFFFFFFFFFFFFFFFFFFFFFFFFFFFFF MUL NOT AND SWAP1 DUP4 PUSH20 0xFFFFFFFFFFFFFFFFFFFFFFFFFFFFFFFFFFFFFFFF AND MUL OR SWAP1 SSTORE POP DUP1 PUSH1 0x5 DUP2 SWAP1 SSTORE POP POP POP POP PUSH2 0x28C JUMP JUMPDEST PUSH0 DUP1 REVERT JUMPDEST PUSH0 PUSH20 0xFFFFFFFFFFFFFFFFFFFFFFFFFFFFFFFFFFFFFFFF DUP3 AND SWAP1 POP SWAP2 SWAP1 POP JUMP JUMPDEST PUSH0 PUSH2 0x13A DUP3 PUSH2 0x111 JUMP JUMPDEST SWAP1 POP SWAP2 SWAP1 POP JUMP JUMPDEST PUSH2 0x14A DUP2 PUSH2 0x130 JUMP JUMPDEST DUP2 EQ PUSH2 0x154 JUMPI PUSH0 DUP1 REVERT JUMPDEST POP JUMP JUMPDEST PUSH0 DUP2 MLOAD SWAP1 POP PUSH2 0x165 DUP2 PUSH2 0x141 JUMP JUMPDEST SWAP3 SWAP2 POP POP JUMP JUMPDEST PUSH0 DUP2 SWAP1 POP SWAP2 SWAP1 POP JUMP JUMPDEST PUSH2 0x17D DUP2 PUSH2 0x16B JUMP JUMPDEST DUP2 EQ PUSH2 0x187 JUMPI PUSH0 DUP1 REVERT JUMPDEST POP JUMP JUMPDEST PUSH0 DUP2 MLOAD SWAP1 POP PUSH2 0x198 DUP2 PUSH2 0x174 JUMP JUMPDEST SWAP3 SWAP2 POP POP JUMP JUMPDEST PUSH0 DUP1 PUSH0 PUSH1 0x60 DUP5 DUP7 SUB SLT ISZERO PUSH2 0x1B5 JUMPI PUSH2 0x1B4 PUSH2 0x10D JUMP JUMPDEST JUMPDEST PUSH0 PUSH2 0x1C2 DUP7 DUP3 DUP8 ADD PUSH2 0x157 JUMP JUMPDEST SWAP4 POP POP PUSH1 0x20 PUSH2 0x1D3 DUP7 DUP3 DUP8 ADD PUSH2 0x157 JUMP JUMPDEST SWAP3 POP POP PUSH1 0x40 PUSH2 0x1E4 DUP7 DUP3 DUP8 ADD PUSH2 0x18A JUMP JUMPDEST SWAP2 POP POP SWAP3 POP SWAP3 POP SWAP3 JUMP JUMPDEST PUSH0 DUP3 DUP3 MSTORE PUSH1 0x20 DUP3 ADD SWAP1 POP SWAP3 SWAP2 POP POP JUMP JUMPDEST PUSH32 0x4F6E6C792030206F7220312061636365707465642061732061697264726F7020 PUSH0 DUP3 ADD MSTORE PUSH32 0x7479706500000000000000000000000000000000000000000000000000000000 PUSH1 0x20 DUP3 ADD MSTORE POP JUMP JUMPDEST PUSH0 PUSH2 0x258 PUSH1 0x24 DUP4 PUSH2 0x1EE JUMP JUMPDEST SWAP2 POP PUSH2 0x263 DUP3 PUSH2 0x1FE JUMP JUMPDEST PUSH1 0x40 DUP3 ADD SWAP1 POP SWAP2 SWAP1 POP JUMP JUMPDEST PUSH0 PUSH1 0x20 DUP3 ADD SWAP1 POP DUP2 DUP2 SUB PUSH0 DUP4 ADD MSTORE PUSH2 0x285 DUP2 PUSH2 0x24C JUMP JUMPDEST SWAP1 POP SWAP2 SWAP1 POP JUMP JUMPDEST PUSH2 0x859 DUP1 PUSH2 0x299 PUSH0 CODECOPY PUSH0 RETURN INVALID PUSH1 0x80 PUSH1 0x40 MSTORE CALLVALUE DUP1 ISZERO PUSH2 0xF JUMPI PUSH0 DUP1 REVERT JUMPDEST POP PUSH1 0x4 CALLDATASIZE LT PUSH2 0x55 JUMPI PUSH0 CALLDATALOAD PUSH1 0xE0 SHR DUP1 PUSH4 0x9A9D76C EQ PUSH2 0x59 JUMPI DUP1 PUSH4 0x150B7A02 EQ PUSH2 0x77 JUMPI DUP1 PUSH4 0x51D6E8A4 EQ PUSH2 0xA7 JUMPI DUP1 PUSH4 0x6F9170F6 EQ PUSH2 0xC5 JUMPI DUP1 PUSH4 0xDCA11AB8 EQ PUSH2 0xF5 JUMPI JUMPDEST PUSH0 DUP1 REVERT JUMPDEST PUSH2 0x61 PUSH2 0x125 JUMP JUMPDEST PUSH1 0x40 MLOAD PUSH2 0x6E SWAP2 SWAP1 PUSH2 0x41A JUMP JUMPDEST PUSH1 0x40 MLOAD DUP1 SWAP2 SUB SWAP1 RETURN JUMPDEST PUSH2 0x91 PUSH1 0x4 DUP1 CALLDATASIZE SUB DUP2 ADD SWAP1 PUSH2 0x8C SWAP2 SWAP1 PUSH2 0x5E4 JUMP JUMPDEST PUSH2 0x1B0 JUMP JUMPDEST PUSH1 0x40 MLOAD PUSH2 0x9E SWAP2 SWAP1 PUSH2 0x69E JUMP JUMPDEST PUSH1 0x40 MLOAD DUP1 SWAP2 SUB SWAP1 RETURN JUMPDEST PUSH2 0xAF PUSH2 0x200 JUMP JUMPDEST PUSH1 0x40 MLOAD PUSH2 0xBC SWAP2 SWAP1 PUSH2 0x6C6 JUMP JUMPDEST PUSH1 0x40 MLOAD DUP1 SWAP2 SUB SWAP1 RETURN JUMPDEST PUSH2 0xDF PUSH1 0x4 DUP1 CALLDATASIZE SUB DUP2 ADD SWAP1 PUSH2 0xDA SWAP2 SWAP1 PUSH2 0x6DF JUMP JUMPDEST PUSH2 0x209 JUMP JUMPDEST PUSH1 0x40 MLOAD PUSH2 0xEC SWAP2 SWAP1 PUSH2 0x724 JUMP JUMPDEST PUSH1 0x40 MLOAD DUP1 SWAP2 SUB SWAP1 RETURN JUMPDEST PUSH2 0x10F PUSH1 0x4 DUP1 CALLDATASIZE SUB DUP2 ADD SWAP1 PUSH2 0x10A SWAP2 SWAP1 PUSH2 0x6DF JUMP JUMPDEST PUSH2 0x21A JUMP JUMPDEST PUSH1 0x40 MLOAD PUSH2 0x11C SWAP2 SWAP1 PUSH2 0x724 JUMP JUMPDEST PUSH1 0x40 MLOAD DUP1 SWAP2 SUB SWAP1 RETURN JUMPDEST PUSH1 0x60 PUSH1 0x1 DUP1 SLOAD DUP1 PUSH1 0x20 MUL PUSH1 0x20 ADD PUSH1 0x40 MLOAD SWAP1 DUP2 ADD PUSH1 0x40 MSTORE DUP1 SWAP3 SWAP2 SWAP1 DUP2 DUP2 MSTORE PUSH1 0x20 ADD DUP3 DUP1 SLOAD DUP1 ISZERO PUSH2 0x1A6 JUMPI PUSH1 0x20 MUL DUP3 ADD SWAP2 SWAP1 PUSH0 MSTORE PUSH1 0x20 PUSH0 KECCAK256 SWAP1 JUMPDEST DUP2 PUSH0 SWAP1 SLOAD SWAP1 PUSH2 0x100 EXP SWAP1 DIV PUSH20 0xFFFFFFFFFFFFFFFFFFFFFFFFFFFFFFFFFFFFFFFF AND PUSH20 0xFFFFFFFFFFFFFFFFFFFFFFFFFFFFFFFFFFFFFFFF AND DUP2 MSTORE PUSH1 0x20 ADD SWAP1 PUSH1 0x1 ADD SWAP1 DUP1 DUP4 GT PUSH2 0x15D JUMPI JUMPDEST POP POP POP POP POP SWAP1 POP SWAP1 JUMP JUMPDEST PUSH0 PUSH32 0x541CB930DBB178D9D0A40B098C309DDA5A70E722066990941158D1F77B5BFCF3 DUP6 DUP6 DUP6 DUP6 PUSH1 0x40 MLOAD PUSH2 0x1E6 SWAP5 SWAP4 SWAP3 SWAP2 SWAP1 PUSH2 0x7AC JUMP JUMPDEST PUSH1 0x40 MLOAD DUP1 SWAP2 SUB SWAP1 LOG1 PUSH4 0x150B7A02 PUSH1 0xE0 SHL SWAP1 POP SWAP5 SWAP4 POP POP POP POP JUMP JUMPDEST PUSH0 PUSH1 0x2 SLOAD SWAP1 POP SWAP1 JUMP JUMPDEST PUSH0 PUSH2 0x213 DUP3 PUSH2 0x28E JUMP JUMPDEST SWAP1 POP SWAP2 SWAP1 POP JUMP JUMPDEST PUSH0 DUP1 PUSH0 PUSH1 0x2 SLOAD DUP2 MSTORE PUSH1 0x20 ADD SWAP1 DUP2 MSTORE PUSH1 0x20 ADD PUSH0 KECCAK256 PUSH0 DUP4 PUSH20 0xFFFFFFFFFFFFFFFFFFFFFFFFFFFFFFFFFFFFFFFF AND PUSH20 0xFFFFFFFFFFFFFFFFFFFFFFFFFFFFFFFFFFFFFFFF AND DUP2 MSTORE PUSH1 0x20 ADD SWAP1 DUP2 MSTORE PUSH1 0x20 ADD PUSH0 KECCAK256 PUSH0 SWAP1 SLOAD SWAP1 PUSH2 0x100 EXP SWAP1 DIV PUSH1 0xFF AND ISZERO DUP1 ISZERO PUSH2 0x287 JUMPI POP PUSH2 0x286 DUP3 PUSH2 0x28E JUMP JUMPDEST JUMPDEST SWAP1 POP SWAP2 SWAP1 POP JUMP JUMPDEST PUSH0 DUP1 PUSH1 0x1 DUP1 SLOAD SWAP1 POP SWAP1 POP PUSH0 JUMPDEST DUP2 DUP2 LT ISZERO PUSH2 0x328 JUMPI DUP4 PUSH20 0xFFFFFFFFFFFFFFFFFFFFFFFFFFFFFFFFFFFFFFFF AND PUSH1 0x1 DUP3 DUP2 SLOAD DUP2 LT PUSH2 0x2CD JUMPI PUSH2 0x2CC PUSH2 0x7F6 JUMP JUMPDEST JUMPDEST SWAP1 PUSH0 MSTORE PUSH1 0x20 PUSH0 KECCAK256 ADD PUSH0 SWAP1 SLOAD SWAP1 PUSH2 0x100 EXP SWAP1 DIV PUSH20 0xFFFFFFFFFFFFFFFFFFFFFFFFFFFFFFFFFFFFFFFF AND PUSH20 0xFFFFFFFFFFFFFFFFFFFFFFFFFFFFFFFFFFFFFFFF AND SUB PUSH2 0x31B JUMPI PUSH1 0x1 SWAP3 POP POP POP PUSH2 0x32E JUMP JUMPDEST DUP1 DUP1 PUSH1 0x1 ADD SWAP2 POP POP PUSH2 0x29A JUMP JUMPDEST POP PUSH0 SWAP2 POP POP JUMPDEST SWAP2 SWAP1 POP JUMP JUMPDEST PUSH0 DUP2 MLOAD SWAP1 POP SWAP2 SWAP1 POP JUMP JUMPDEST PUSH0 DUP3 DUP3 MSTORE PUSH1 0x20 DUP3 ADD SWAP1 POP SWAP3 SWAP2 POP POP JUMP JUMPDEST PUSH0 DUP2 SWAP1 POP PUSH1 0x20 DUP3 ADD SWAP1 POP SWAP2 SWAP1 POP JUMP JUMPDEST PUSH0 PUSH20 0xFFFFFFFFFFFFFFFFFFFFFFFFFFFFFFFFFFFFFFFF DUP3 AND SWAP1 POP SWAP2 SWAP1 POP JUMP JUMPDEST PUSH0 PUSH2 0x385 DUP3 PUSH2 0x35C JUMP JUMPDEST SWAP1 POP SWAP2 SWAP1 POP JUMP JUMPDEST PUSH2 0x395 DUP2 PUSH2 0x37B JUMP JUMPDEST DUP3 MSTORE POP POP JUMP JUMPDEST PUSH0 PUSH2 0x3A6 DUP4 DUP4 PUSH2 0x38C JUMP JUMPDEST PUSH1 0x20 DUP4 ADD SWAP1 POP SWAP3 SWAP2 POP POP JUMP JUMPDEST PUSH0 PUSH1 0x20 DUP3 ADD SWAP1 POP SWAP2 SWAP1 POP JUMP JUMPDEST PUSH0 PUSH2 0x3C8 DUP3 PUSH2 0x333 JUMP JUMPDEST PUSH2 0x3D2 DUP2 DUP6 PUSH2 0x33D JUMP JUMPDEST SWAP4 POP PUSH2 0x3DD DUP4 PUSH2 0x34D JUMP JUMPDEST DUP1 PUSH0 JUMPDEST DUP4 DUP2 LT ISZERO PUSH2 0x40D JUMPI DUP2 MLOAD PUSH2 0x3F4 DUP9 DUP3 PUSH2 0x39B JUMP JUMPDEST SWAP8 POP PUSH2 0x3FF DUP4 PUSH2 0x3B2 JUMP JUMPDEST SWAP3 POP POP PUSH1 0x1 DUP2 ADD SWAP1 POP PUSH2 0x3E0 JUMP JUMPDEST POP DUP6 SWAP4 POP POP POP POP SWAP3 SWAP2 POP POP JUMP JUMPDEST PUSH0 PUSH1 0x20 DUP3 ADD SWAP1 POP DUP2 DUP2 SUB PUSH0 DUP4 ADD MSTORE PUSH2 0x432 DUP2 DUP5 PUSH2 0x3BE JUMP JUMPDEST SWAP1 POP SWAP3 SWAP2 POP POP JUMP JUMPDEST PUSH0 PUSH1 0x40 MLOAD SWAP1 POP SWAP1 JUMP JUMPDEST PUSH0 DUP1 REVERT JUMPDEST PUSH0 DUP1 REVERT JUMPDEST PUSH2 0x454 DUP2 PUSH2 0x37B JUMP JUMPDEST DUP2 EQ PUSH2 0x45E JUMPI PUSH0 DUP1 REVERT JUMPDEST POP JUMP JUMPDEST PUSH0 DUP2 CALLDATALOAD SWAP1 POP PUSH2 0x46F DUP2 PUSH2 0x44B JUMP JUMPDEST SWAP3 SWAP2 POP POP JUMP JUMPDEST PUSH0 DUP2 SWAP1 POP SWAP2 SWAP1 POP JUMP JUMPDEST PUSH2 0x487 DUP2 PUSH2 0x475 JUMP JUMPDEST DUP2 EQ PUSH2 0x491 JUMPI PUSH0 DUP1 REVERT JUMPDEST POP JUMP JUMPDEST PUSH0 DUP2 CALLDATALOAD SWAP1 POP PUSH2 0x4A2 DUP2 PUSH2 0x47E JUMP JUMPDEST SWAP3 SWAP2 POP POP JUMP JUMPDEST PUSH0 DUP1 REVERT JUMPDEST PUSH0 DUP1 REVERT JUMPDEST PUSH0 PUSH1 0x1F NOT PUSH1 0x1F DUP4 ADD AND SWAP1 POP SWAP2 SWAP1 POP JUMP JUMPDEST PUSH32 0x4E487B7100000000000000000000000000000000000000000000000000000000 PUSH0 MSTORE PUSH1 0x41 PUSH1 0x4 MSTORE PUSH1 0x24 PUSH0 REVERT JUMPDEST PUSH2 0x4F6 DUP3 PUSH2 0x4B0 JUMP JUMPDEST DUP2 ADD DUP2 DUP2 LT PUSH8 0xFFFFFFFFFFFFFFFF DUP3 GT OR ISZERO PUSH2 0x515 JUMPI PUSH2 0x514 PUSH2 0x4C0 JUMP JUMPDEST JUMPDEST DUP1 PUSH1 0x40 MSTORE POP POP POP JUMP JUMPDEST PUSH0 PUSH2 0x527 PUSH2 0x43A JUMP JUMPDEST SWAP1 POP PUSH2 0x533 DUP3 DUP3 PUSH2 0x4ED JUMP JUMPDEST SWAP2 SWAP1 POP JUMP JUMPDEST PUSH0 PUSH8 0xFFFFFFFFFFFFFFFF DUP3 GT ISZERO PUSH2 0x552 JUMPI PUSH2 0x551 PUSH2 0x4C0 JUMP JUMPDEST JUMPDEST PUSH2 0x55B DUP3 PUSH2 0x4B0 JUMP JUMPDEST SWAP1 POP PUSH1 0x20 DUP2 ADD SWAP1 POP SWAP2 SWAP1 POP JUMP JUMPDEST DUP3 DUP2 DUP4 CALLDATACOPY PUSH0 DUP4 DUP4 ADD MSTORE POP POP POP JUMP JUMPDEST PUSH0 PUSH2 0x588 PUSH2 0x583 DUP5 PUSH2 0x538 JUMP JUMPDEST PUSH2 0x51E JUMP JUMPDEST SWAP1 POP DUP3 DUP2 MSTORE PUSH1 0x20 DUP2 ADD DUP5 DUP5 DUP5 ADD GT ISZERO PUSH2 0x5A4 JUMPI PUSH2 0x5A3 PUSH2 0x4AC JUMP JUMPDEST JUMPDEST PUSH2 0x5AF DUP5 DUP3 DUP6 PUSH2 0x568 JUMP JUMPDEST POP SWAP4 SWAP3 POP POP POP JUMP JUMPDEST PUSH0 DUP3 PUSH1 0x1F DUP4 ADD SLT PUSH2 0x5CB JUMPI PUSH2 0x5CA PUSH2 0x4A8 JUMP JUMPDEST JUMPDEST DUP2 CALLDATALOAD PUSH2 0x5DB DUP5 DUP3 PUSH1 0x20 DUP7 ADD PUSH2 0x576 JUMP JUMPDEST SWAP2 POP POP SWAP3 SWAP2 POP POP JUMP JUMPDEST PUSH0 DUP1 PUSH0 DUP1 PUSH1 0x80 DUP6 DUP8 SUB SLT ISZERO PUSH2 0x5FC JUMPI PUSH2 0x5FB PUSH2 0x443 JUMP JUMPDEST JUMPDEST PUSH0 PUSH2 0x609 DUP8 DUP3 DUP9 ADD PUSH2 0x461 JUMP JUMPDEST SWAP5 POP POP PUSH1 0x20 PUSH2 0x61A DUP8 DUP3 DUP9 ADD PUSH2 0x461 JUMP JUMPDEST SWAP4 POP POP PUSH1 0x40 PUSH2 0x62B DUP8 DUP3 DUP9 ADD PUSH2 0x494 JUMP JUMPDEST SWAP3 POP POP PUSH1 0x60 DUP6 ADD CALLDATALOAD PUSH8 0xFFFFFFFFFFFFFFFF DUP2 GT ISZERO PUSH2 0x64C JUMPI PUSH2 0x64B PUSH2 0x447 JUMP JUMPDEST JUMPDEST PUSH2 0x658 DUP8 DUP3 DUP9 ADD PUSH2 0x5B7 JUMP JUMPDEST SWAP2 POP POP SWAP3 SWAP6 SWAP2 SWAP5 POP SWAP3 POP JUMP JUMPDEST PUSH0 PUSH32 0xFFFFFFFF00000000000000000000000000000000000000000000000000000000 DUP3 AND SWAP1 POP SWAP2 SWAP1 POP JUMP JUMPDEST PUSH2 0x698 DUP2 PUSH2 0x664 JUMP JUMPDEST DUP3 MSTORE POP POP JUMP JUMPDEST PUSH0 PUSH1 0x20 DUP3 ADD SWAP1 POP PUSH2 0x6B1 PUSH0 DUP4 ADD DUP5 PUSH2 0x68F JUMP JUMPDEST SWAP3 SWAP2 POP POP JUMP JUMPDEST PUSH2 0x6C0 DUP2 PUSH2 0x475 JUMP JUMPDEST DUP3 MSTORE POP POP JUMP JUMPDEST PUSH0 PUSH1 0x20 DUP3 ADD SWAP1 POP PUSH2 0x6D9 PUSH0 DUP4 ADD DUP5 PUSH2 0x6B7 JUMP JUMPDEST SWAP3 SWAP2 POP POP JUMP JUMPDEST PUSH0 PUSH1 0x20 DUP3 DUP5 SUB SLT ISZERO PUSH2 0x6F4 JUMPI PUSH2 0x6F3 PUSH2 0x443 JUMP JUMPDEST JUMPDEST PUSH0 PUSH2 0x701 DUP5 DUP3 DUP6 ADD PUSH2 0x461 JUMP JUMPDEST SWAP2 POP POP SWAP3 SWAP2 POP POP JUMP JUMPDEST PUSH0 DUP2 ISZERO ISZERO SWAP1 POP SWAP2 SWAP1 POP JUMP JUMPDEST PUSH2 0x71E DUP2 PUSH2 0x70A JUMP JUMPDEST DUP3 MSTORE POP POP JUMP JUMPDEST PUSH0 PUSH1 0x20 DUP3 ADD SWAP1 POP PUSH2 0x737 PUSH0 DUP4 ADD DUP5 PUSH2 0x715 JUMP JUMPDEST SWAP3 SWAP2 POP POP JUMP JUMPDEST PUSH2 0x746 DUP2 PUSH2 0x37B JUMP JUMPDEST DUP3 MSTORE POP POP JUMP JUMPDEST PUSH0 DUP2 MLOAD SWAP1 POP SWAP2 SWAP1 POP JUMP JUMPDEST PUSH0 DUP3 DUP3 MSTORE PUSH1 0x20 DUP3 ADD SWAP1 POP SWAP3 SWAP2 POP POP JUMP JUMPDEST DUP3 DUP2 DUP4 MCOPY PUSH0 DUP4 DUP4 ADD MSTORE POP POP POP JUMP JUMPDEST PUSH0 PUSH2 0x77E DUP3 PUSH2 0x74C JUMP JUMPDEST PUSH2 0x788 DUP2 DUP6 PUSH2 0x756 JUMP JUMPDEST SWAP4 POP PUSH2 0x798 DUP2 DUP6 PUSH1 0x20 DUP7 ADD PUSH2 0x766 JUMP JUMPDEST PUSH2 0x7A1 DUP2 PUSH2 0x4B0 JUMP JUMPDEST DUP5 ADD SWAP2 POP POP SWAP3 SWAP2 POP POP JUMP JUMPDEST PUSH0 PUSH1 0x80 DUP3 ADD SWAP1 POP PUSH2 0x7BF PUSH0 DUP4 ADD DUP8 PUSH2 0x73D JUMP JUMPDEST PUSH2 0x7CC PUSH1 0x20 DUP4 ADD DUP7 PUSH2 0x73D JUMP JUMPDEST PUSH2 0x7D9 PUSH1 0x40 DUP4 ADD DUP6 PUSH2 0x6B7 JUMP JUMPDEST DUP2 DUP2 SUB PUSH1 0x60 DUP4 ADD MSTORE PUSH2 0x7EB DUP2 DUP5 PUSH2 0x774 JUMP JUMPDEST SWAP1 POP SWAP6 SWAP5 POP POP POP POP POP JUMP JUMPDEST PUSH32 0x4E487B7100000000000000000000000000000000000000000000000000000000 PUSH0 MSTORE PUSH1 0x32 PUSH1 0x4 MSTORE PUSH1 0x24 PUSH0 REVERT INVALID LOG2 PUSH5 0x6970667358 0x22 SLT KECCAK256 EXP 0xD9 0x2B 0x2B 0xFC SELFDESTRUCT EXTCODESIZE SMOD NUMBER 0xF8 0xBA 0xC9 0xC3 DUP13 BLOBHASH 0xA6 SIGNEXTEND LOG4 0x2E PUSH23 0x8A1920189A13A697C904EECC64736F6C634300081A0033 "
				},
				"gasEstimates": {
					"creation": {
						"codeDepositCost": "427400",
						"executionCost": "infinite",
						"totalCost": "infinite"
					},
					"external": {
						"airdropVersion()": "2454",
						"getEligibility(address)": "infinite",
						"getWhiteList()": "infinite",
						"isWhiteListed(address)": "infinite",
						"onERC721Received(address,address,uint256,bytes)": "infinite"
					},
					"internal": {
						"_checkReceiver(address,uint256)": "infinite",
						"_removeFromWhiteList(address)": "infinite",
						"_resetAirdrop()": "infinite",
						"_startAirdrop(uint256[] calldata)": "infinite",
						"_whiteListAddress(address[] calldata)": "infinite",
						"checkAddress(address)": "infinite",
						"isContract(address)": "infinite"
					}
				},
				"methodIdentifiers": {
					"airdropVersion()": "51d6e8a4",
					"getEligibility(address)": "dca11ab8",
					"getWhiteList()": "09a9d76c",
					"isWhiteListed(address)": "6f9170f6",
					"onERC721Received(address,address,uint256,bytes)": "150b7a02"
				}
			},
			"storageLayout": {
				"storage": [
					{
						"astId": 235,
						"contract": "COAT/tokens/airdrop.sol:Airdrop",
						"label": "_hasClaimed",
						"offset": 0,
						"slot": "0",
						"type": "t_mapping(t_uint256,t_mapping(t_address,t_bool))"
					},
					{
						"astId": 238,
						"contract": "COAT/tokens/airdrop.sol:Airdrop",
						"label": "_whiteList",
						"offset": 0,
						"slot": "1",
						"type": "t_array(t_address)dyn_storage"
					},
					{
						"astId": 240,
						"contract": "COAT/tokens/airdrop.sol:Airdrop",
						"label": "airdropCount",
						"offset": 0,
						"slot": "2",
						"type": "t_uint256"
					},
					{
						"astId": 242,
						"contract": "COAT/tokens/airdrop.sol:Airdrop",
						"label": "tokenAddress",
						"offset": 0,
						"slot": "3",
						"type": "t_address"
					},
					{
						"astId": 244,
						"contract": "COAT/tokens/airdrop.sol:Airdrop",
						"label": "fromAddress",
						"offset": 0,
						"slot": "4",
						"type": "t_address"
					},
					{
						"astId": 246,
						"contract": "COAT/tokens/airdrop.sol:Airdrop",
						"label": "airdropType",
						"offset": 0,
						"slot": "5",
						"type": "t_uint256"
					}
				],
				"types": {
					"t_address": {
						"encoding": "inplace",
						"label": "address",
						"numberOfBytes": "20"
					},
					"t_array(t_address)dyn_storage": {
						"base": "t_address",
						"encoding": "dynamic_array",
						"label": "address[]",
						"numberOfBytes": "32"
					},
					"t_bool": {
						"encoding": "inplace",
						"label": "bool",
						"numberOfBytes": "1"
					},
					"t_mapping(t_address,t_bool)": {
						"encoding": "mapping",
						"key": "t_address",
						"label": "mapping(address => bool)",
						"numberOfBytes": "32",
						"value": "t_bool"
					},
					"t_mapping(t_uint256,t_mapping(t_address,t_bool))": {
						"encoding": "mapping",
						"key": "t_uint256",
						"label": "mapping(uint256 => mapping(address => bool))",
						"numberOfBytes": "32",
						"value": "t_mapping(t_address,t_bool)"
					},
					"t_uint256": {
						"encoding": "inplace",
						"label": "uint256",
						"numberOfBytes": "32"
					}
				}
			},
			"userdoc": {
				"kind": "user",
				"methods": {},
				"version": 1
			}
		}
	}
}