{
	"COAT/tokens/airdrop.sol": {
		"Airdrop": {
			"abi": [
				{
					"inputs": [
						{
							"internalType": "address",
							"name": "_tokenAddress",
							"type": "address"
						},
						{
							"internalType": "address",
							"name": "_fromAddress",
							"type": "address"
						},
						{
							"internalType": "uint256",
							"name": "_airdropType",
							"type": "uint256"
						}
					],
					"stateMutability": "nonpayable",
					"type": "constructor"
				},
				{
					"inputs": [
						{
							"internalType": "address",
							"name": "owner",
							"type": "address"
						}
					],
					"name": "OwnableInvalidOwner",
					"type": "error"
				},
				{
					"inputs": [
						{
							"internalType": "address",
							"name": "account",
							"type": "address"
						}
					],
					"name": "OwnableUnauthorizedAccount",
					"type": "error"
				},
				{
					"anonymous": false,
					"inputs": [
						{
							"indexed": true,
							"internalType": "address",
							"name": "previousOwner",
							"type": "address"
						},
						{
							"indexed": true,
							"internalType": "address",
							"name": "newOwner",
							"type": "address"
						}
					],
					"name": "OwnershipTransferred",
					"type": "event"
				},
				{
					"anonymous": false,
					"inputs": [
						{
							"indexed": false,
							"internalType": "uint256",
							"name": "tokenId",
							"type": "uint256"
						},
						{
							"indexed": false,
							"internalType": "bool",
							"name": "success",
							"type": "bool"
						}
					],
					"name": "TOKENtransfered",
					"type": "event"
				},
				{
					"anonymous": false,
					"inputs": [
						{
							"indexed": false,
							"internalType": "address[]",
							"name": "_address",
							"type": "address[]"
						}
					],
					"name": "addressAddedToWhitelist",
					"type": "event"
				},
				{
					"anonymous": false,
					"inputs": [
						{
							"indexed": false,
							"internalType": "address[]",
							"name": "recipients",
							"type": "address[]"
						},
						{
							"indexed": false,
							"internalType": "uint256[]",
							"name": "unitOfToken",
							"type": "uint256[]"
						}
					],
					"name": "airdroped",
					"type": "event"
				},
				{
					"anonymous": false,
					"inputs": [
						{
							"indexed": false,
							"internalType": "address",
							"name": "operator",
							"type": "address"
						},
						{
							"indexed": false,
							"internalType": "address",
							"name": "from",
							"type": "address"
						},
						{
							"indexed": false,
							"internalType": "uint256",
							"name": "tokenId",
							"type": "uint256"
						},
						{
							"indexed": false,
							"internalType": "bytes",
							"name": "data",
							"type": "bytes"
						}
					],
					"name": "receivedTokens",
					"type": "event"
				},
				{
					"anonymous": false,
					"inputs": [
						{
							"indexed": false,
							"internalType": "address",
							"name": "_address",
							"type": "address"
						}
					],
					"name": "removedAddress",
					"type": "event"
				},
				{
					"inputs": [
						{
							"internalType": "address",
							"name": "_address",
							"type": "address"
						},
						{
							"internalType": "uint256",
							"name": "tokenId",
							"type": "uint256"
						}
					],
					"name": "getEligibility",
					"outputs": [
						{
							"internalType": "bool",
							"name": "",
							"type": "bool"
						}
					],
					"stateMutability": "view",
					"type": "function"
				},
				{
					"inputs": [],
					"name": "getWhiteList",
					"outputs": [
						{
							"internalType": "address[]",
							"name": "",
							"type": "address[]"
						}
					],
					"stateMutability": "view",
					"type": "function"
				},
				{
					"inputs": [
						{
							"internalType": "address",
							"name": "_address",
							"type": "address"
						}
					],
					"name": "isWhiteListed",
					"outputs": [
						{
							"internalType": "bool",
							"name": "",
							"type": "bool"
						}
					],
					"stateMutability": "view",
					"type": "function"
				},
				{
					"inputs": [
						{
							"internalType": "address",
							"name": "operator",
							"type": "address"
						},
						{
							"internalType": "address",
							"name": "from",
							"type": "address"
						},
						{
							"internalType": "uint256",
							"name": "tokenId",
							"type": "uint256"
						},
						{
							"internalType": "bytes",
							"name": "data",
							"type": "bytes"
						}
					],
					"name": "onERC721Received",
					"outputs": [
						{
							"internalType": "bytes4",
							"name": "",
							"type": "bytes4"
						}
					],
					"stateMutability": "nonpayable",
					"type": "function"
				},
				{
					"inputs": [],
					"name": "owner",
					"outputs": [
						{
							"internalType": "address",
							"name": "",
							"type": "address"
						}
					],
					"stateMutability": "view",
					"type": "function"
				},
				{
					"inputs": [
						{
							"internalType": "address",
							"name": "_address",
							"type": "address"
						}
					],
					"name": "removeFromWhiteList",
					"outputs": [
						{
							"internalType": "bool",
							"name": "",
							"type": "bool"
						}
					],
					"stateMutability": "nonpayable",
					"type": "function"
				},
				{
					"inputs": [],
					"name": "renounceOwnership",
					"outputs": [],
					"stateMutability": "nonpayable",
					"type": "function"
				},
				{
					"inputs": [],
					"name": "resetAirdrop",
					"outputs": [
						{
							"internalType": "bool",
							"name": "",
							"type": "bool"
						}
					],
					"stateMutability": "nonpayable",
					"type": "function"
				},
				{
					"inputs": [
						{
							"internalType": "uint256[]",
							"name": "unitOfToken",
							"type": "uint256[]"
						}
					],
					"name": "startAirdrop",
					"outputs": [
						{
							"internalType": "bool",
							"name": "",
							"type": "bool"
						}
					],
					"stateMutability": "nonpayable",
					"type": "function"
				},
				{
					"inputs": [
						{
							"internalType": "address",
							"name": "newOwner",
							"type": "address"
						}
					],
					"name": "transferOwnership",
					"outputs": [],
					"stateMutability": "nonpayable",
					"type": "function"
				},
				{
					"inputs": [
						{
							"internalType": "address[]",
							"name": "_address",
							"type": "address[]"
						}
					],
					"name": "whiteList",
					"outputs": [
						{
							"internalType": "bool",
							"name": "",
							"type": "bool"
						}
					],
					"stateMutability": "nonpayable",
					"type": "function"
				}
			],
			"devdoc": {
				"errors": {
					"OwnableInvalidOwner(address)": [
						{
							"details": "The owner is not a valid owner account. (eg. `address(0)`)"
						}
					],
					"OwnableUnauthorizedAccount(address)": [
						{
							"details": "The caller account is not authorized to perform an operation."
						}
					]
				},
				"kind": "dev",
				"methods": {
					"constructor": {
						"details": "Contract constructor initializes the airdrop settings.",
						"params": {
							"_airdropType": "Airdrop type (0 = ERC20, 1 = ERC721).",
							"_fromAddress": "Address from which the tokens will be sent.",
							"_tokenAddress": "Address of the ERC20 or ERC721 token."
						}
					},
					"getEligibility(address,uint256)": {
						"details": "Checks if an address is eligible for an airdrop.",
						"params": {
							"_address": "Address to check.",
							"tokenId": "Token ID (used only for ERC721)."
						},
						"returns": {
							"_0": "True if eligible, false otherwise."
						}
					},
					"getWhiteList()": {
						"details": "Returns the list of whitelisted addresses."
					},
					"isWhiteListed(address)": {
						"details": "Checks if an address is in the whitelist.",
						"params": {
							"_address": "Address to check."
						},
						"returns": {
							"_0": "True if whitelisted, false otherwise."
						}
					},
					"owner()": {
						"details": "Returns the address of the current owner."
					},
					"removeFromWhiteList(address)": {
						"details": "Removes an address from the whitelist.",
						"params": {
							"_address": "Address to remove."
						}
					},
					"renounceOwnership()": {
						"details": "Leaves the contract without owner. It will not be possible to call `onlyOwner` functions. Can only be called by the current owner. NOTE: Renouncing ownership will leave the contract without an owner, thereby disabling any functionality that is only available to the owner."
					},
					"resetAirdrop()": {
						"details": "Reset an aurdrop.",
						"returns": {
							"_0": "True."
						}
					},
					"startAirdrop(uint256[])": {
						"details": "Starts the airdrop process for either ERC20 or ERC721 tokens.",
						"params": {
							"unitOfToken": "Array specifying the amount (for ERC20) or token ID (for ERC721) to be sent."
						},
						"returns": {
							"_0": "True if the airdrop was successful."
						}
					},
					"transferOwnership(address)": {
						"details": "Transfers ownership of the contract to a new account (`newOwner`). Can only be called by the current owner."
					},
					"whiteList(address[])": {
						"details": "Adds addresses to the whitelist.",
						"params": {
							"_address": "Array of addresses to whitelist."
						}
					}
				},
				"version": 1
			},
			"evm": {
				"assembly": "    /* \"COAT/tokens/airdrop.sol\":14196:22444  contract Airdrop is Ownable(address(this)) {... */\n  mstore(0x40, 0x80)\n    /* \"COAT/tokens/airdrop.sol\":15589:15916  constructor(address _tokenAddress, address _fromAddress, uint _airdropType) {... */\n  callvalue\n  dup1\n  iszero\n  tag_1\n  jumpi\n  0x00\n  dup1\n  revert\ntag_1:\n  pop\n  mload(0x40)\n  sub(codesize, bytecodeSize)\n  dup1\n  bytecodeSize\n  dup4\n  codecopy\n  dup2\n  dup2\n  add\n  0x40\n  mstore\n  dup2\n  add\n  swap1\n  tag_2\n  swap2\n  swap1\n  tag_3\n  jump\t// in\ntag_2:\n    /* \"COAT/tokens/airdrop.sol\":14232:14236  this */\n  address\n    /* \"@openzeppelin/contracts/access/Ownable.sol\":1297:1298  0 */\n  0x00\n    /* \"@openzeppelin/contracts/access/Ownable.sol\":1273:1299  initialOwner == address(0) */\n  0xffffffffffffffffffffffffffffffffffffffff\n  and\n    /* \"@openzeppelin/contracts/access/Ownable.sol\":1273:1285  initialOwner */\n  dup2\n    /* \"@openzeppelin/contracts/access/Ownable.sol\":1273:1299  initialOwner == address(0) */\n  0xffffffffffffffffffffffffffffffffffffffff\n  and\n  sub\n    /* \"@openzeppelin/contracts/access/Ownable.sol\":1269:1364  if (initialOwner == address(0)) {... */\n  tag_7\n  jumpi\n    /* \"@openzeppelin/contracts/access/Ownable.sol\":1350:1351  0 */\n  0x00\n    /* \"@openzeppelin/contracts/access/Ownable.sol\":1322:1353  OwnableInvalidOwner(address(0)) */\n  mload(0x40)\n  0x1e4fbdf700000000000000000000000000000000000000000000000000000000\n  dup2\n  mstore\n  0x04\n  add\n  tag_8\n  swap2\n  swap1\n  tag_9\n  jump\t// in\ntag_8:\n  mload(0x40)\n  dup1\n  swap2\n  sub\n  swap1\n  revert\n    /* \"@openzeppelin/contracts/access/Ownable.sol\":1269:1364  if (initialOwner == address(0)) {... */\ntag_7:\n    /* \"@openzeppelin/contracts/access/Ownable.sol\":1373:1405  _transferOwnership(initialOwner) */\n  tag_10\n    /* \"@openzeppelin/contracts/access/Ownable.sol\":1392:1404  initialOwner */\n  dup2\n    /* \"@openzeppelin/contracts/access/Ownable.sol\":1373:1391  _transferOwnership */\n  shl(0x20, tag_11)\n    /* \"@openzeppelin/contracts/access/Ownable.sol\":1373:1405  _transferOwnership(initialOwner) */\n  0x20\n  shr\n  jump\t// in\ntag_10:\n    /* \"@openzeppelin/contracts/access/Ownable.sol\":1225:1412  constructor(address initialOwner) {... */\n  pop\n    /* \"COAT/tokens/airdrop.sol\":15698:15699  0 */\n  0x00\n    /* \"COAT/tokens/airdrop.sol\":15684:15696  _airdropType */\n  dup2\n    /* \"COAT/tokens/airdrop.sol\":15684:15699  _airdropType==0 */\n  eq\n    /* \"COAT/tokens/airdrop.sol\":15684:15718  _airdropType==0 || _airdropType==1 */\n  dup1\n  tag_13\n  jumpi\n  pop\n    /* \"COAT/tokens/airdrop.sol\":15717:15718  1 */\n  0x01\n    /* \"COAT/tokens/airdrop.sol\":15703:15715  _airdropType */\n  dup2\n    /* \"COAT/tokens/airdrop.sol\":15703:15718  _airdropType==1 */\n  eq\n    /* \"COAT/tokens/airdrop.sol\":15684:15718  _airdropType==0 || _airdropType==1 */\ntag_13:\n    /* \"COAT/tokens/airdrop.sol\":15676:15759  require(_airdropType==0 || _airdropType==1, \"Only 0 or 1 accepted as airdrop type\") */\n  tag_14\n  jumpi\n  mload(0x40)\n  0x08c379a000000000000000000000000000000000000000000000000000000000\n  dup2\n  mstore\n  0x04\n  add\n  tag_15\n  swap1\n  tag_16\n  jump\t// in\ntag_15:\n  mload(0x40)\n  dup1\n  swap2\n  sub\n  swap1\n  revert\ntag_14:\n    /* \"COAT/tokens/airdrop.sol\":15785:15798  _tokenAddress */\n  dup3\n    /* \"COAT/tokens/airdrop.sol\":15770:15782  tokenAddress */\n  0x05\n  0x00\n    /* \"COAT/tokens/airdrop.sol\":15770:15798  tokenAddress = _tokenAddress */\n  0x0100\n  exp\n  dup2\n  sload\n  dup2\n  0xffffffffffffffffffffffffffffffffffffffff\n  mul\n  not\n  and\n  swap1\n  dup4\n  0xffffffffffffffffffffffffffffffffffffffff\n  and\n  mul\n  or\n  swap1\n  sstore\n  pop\n    /* \"COAT/tokens/airdrop.sol\":15823:15835  _fromAddress */\n  dup2\n    /* \"COAT/tokens/airdrop.sol\":15809:15820  fromAddress */\n  0x06\n  0x00\n    /* \"COAT/tokens/airdrop.sol\":15809:15835  fromAddress = _fromAddress */\n  0x0100\n  exp\n  dup2\n  sload\n  dup2\n  0xffffffffffffffffffffffffffffffffffffffff\n  mul\n  not\n  and\n  swap1\n  dup4\n  0xffffffffffffffffffffffffffffffffffffffff\n  and\n  mul\n  or\n  swap1\n  sstore\n  pop\n    /* \"COAT/tokens/airdrop.sol\":15860:15872  _airdropType */\n  dup1\n    /* \"COAT/tokens/airdrop.sol\":15846:15857  airdropType */\n  0x07\n    /* \"COAT/tokens/airdrop.sol\":15846:15872  airdropType = _airdropType */\n  dup2\n  swap1\n  sstore\n  pop\n    /* \"COAT/tokens/airdrop.sol\":15589:15916  constructor(address _tokenAddress, address _fromAddress, uint _airdropType) {... */\n  pop\n  pop\n  pop\n    /* \"COAT/tokens/airdrop.sol\":14196:22444  contract Airdrop is Ownable(address(this)) {... */\n  jump(tag_17)\n    /* \"@openzeppelin/contracts/access/Ownable.sol\":2912:3099  function _transferOwnership(address newOwner) internal virtual {... */\ntag_11:\n    /* \"@openzeppelin/contracts/access/Ownable.sol\":2985:3001  address oldOwner */\n  0x00\n    /* \"@openzeppelin/contracts/access/Ownable.sol\":3004:3010  _owner */\n  dup1\n  0x00\n  swap1\n  sload\n  swap1\n  0x0100\n  exp\n  swap1\n  div\n  0xffffffffffffffffffffffffffffffffffffffff\n  and\n    /* \"@openzeppelin/contracts/access/Ownable.sol\":2985:3010  address oldOwner = _owner */\n  swap1\n  pop\n    /* \"@openzeppelin/contracts/access/Ownable.sol\":3029:3037  newOwner */\n  dup2\n    /* \"@openzeppelin/contracts/access/Ownable.sol\":3020:3026  _owner */\n  0x00\n  dup1\n    /* \"@openzeppelin/contracts/access/Ownable.sol\":3020:3037  _owner = newOwner */\n  0x0100\n  exp\n  dup2\n  sload\n  dup2\n  0xffffffffffffffffffffffffffffffffffffffff\n  mul\n  not\n  and\n  swap1\n  dup4\n  0xffffffffffffffffffffffffffffffffffffffff\n  and\n  mul\n  or\n  swap1\n  sstore\n  pop\n    /* \"@openzeppelin/contracts/access/Ownable.sol\":3083:3091  newOwner */\n  dup2\n    /* \"@openzeppelin/contracts/access/Ownable.sol\":3052:3092  OwnershipTransferred(oldOwner, newOwner) */\n  0xffffffffffffffffffffffffffffffffffffffff\n  and\n    /* \"@openzeppelin/contracts/access/Ownable.sol\":3073:3081  oldOwner */\n  dup2\n    /* \"@openzeppelin/contracts/access/Ownable.sol\":3052:3092  OwnershipTransferred(oldOwner, newOwner) */\n  0xffffffffffffffffffffffffffffffffffffffff\n  and\n  0x8be0079c531659141344cd1fd0a4f28419497f9722a3daafe3b4186f6b6457e0\n  mload(0x40)\n  mload(0x40)\n  dup1\n  swap2\n  sub\n  swap1\n  log3\n    /* \"@openzeppelin/contracts/access/Ownable.sol\":2975:3099  {... */\n  pop\n    /* \"@openzeppelin/contracts/access/Ownable.sol\":2912:3099  function _transferOwnership(address newOwner) internal virtual {... */\n  pop\n  jump\t// out\n    /* \"#utility.yul\":88:205   */\ntag_20:\n    /* \"#utility.yul\":197:198   */\n  0x00\n    /* \"#utility.yul\":194:195   */\n  dup1\n    /* \"#utility.yul\":187:199   */\n  revert\n    /* \"#utility.yul\":334:460   */\ntag_22:\n    /* \"#utility.yul\":371:378   */\n  0x00\n    /* \"#utility.yul\":411:453   */\n  0xffffffffffffffffffffffffffffffffffffffff\n    /* \"#utility.yul\":404:409   */\n  dup3\n    /* \"#utility.yul\":400:454   */\n  and\n    /* \"#utility.yul\":389:454   */\n  swap1\n  pop\n    /* \"#utility.yul\":334:460   */\n  swap2\n  swap1\n  pop\n  jump\t// out\n    /* \"#utility.yul\":466:562   */\ntag_23:\n    /* \"#utility.yul\":503:510   */\n  0x00\n    /* \"#utility.yul\":532:556   */\n  tag_39\n    /* \"#utility.yul\":550:555   */\n  dup3\n    /* \"#utility.yul\":532:556   */\n  tag_22\n  jump\t// in\ntag_39:\n    /* \"#utility.yul\":521:556   */\n  swap1\n  pop\n    /* \"#utility.yul\":466:562   */\n  swap2\n  swap1\n  pop\n  jump\t// out\n    /* \"#utility.yul\":568:690   */\ntag_24:\n    /* \"#utility.yul\":641:665   */\n  tag_41\n    /* \"#utility.yul\":659:664   */\n  dup2\n    /* \"#utility.yul\":641:665   */\n  tag_23\n  jump\t// in\ntag_41:\n    /* \"#utility.yul\":634:639   */\n  dup2\n    /* \"#utility.yul\":631:666   */\n  eq\n    /* \"#utility.yul\":621:684   */\n  tag_42\n  jumpi\n    /* \"#utility.yul\":680:681   */\n  0x00\n    /* \"#utility.yul\":677:678   */\n  dup1\n    /* \"#utility.yul\":670:682   */\n  revert\n    /* \"#utility.yul\":621:684   */\ntag_42:\n    /* \"#utility.yul\":568:690   */\n  pop\n  jump\t// out\n    /* \"#utility.yul\":696:839   */\ntag_25:\n    /* \"#utility.yul\":753:758   */\n  0x00\n    /* \"#utility.yul\":784:790   */\n  dup2\n    /* \"#utility.yul\":778:791   */\n  mload\n    /* \"#utility.yul\":769:791   */\n  swap1\n  pop\n    /* \"#utility.yul\":800:833   */\n  tag_44\n    /* \"#utility.yul\":827:832   */\n  dup2\n    /* \"#utility.yul\":800:833   */\n  tag_24\n  jump\t// in\ntag_44:\n    /* \"#utility.yul\":696:839   */\n  swap3\n  swap2\n  pop\n  pop\n  jump\t// out\n    /* \"#utility.yul\":845:922   */\ntag_26:\n    /* \"#utility.yul\":882:889   */\n  0x00\n    /* \"#utility.yul\":911:916   */\n  dup2\n    /* \"#utility.yul\":900:916   */\n  swap1\n  pop\n    /* \"#utility.yul\":845:922   */\n  swap2\n  swap1\n  pop\n  jump\t// out\n    /* \"#utility.yul\":928:1050   */\ntag_27:\n    /* \"#utility.yul\":1001:1025   */\n  tag_47\n    /* \"#utility.yul\":1019:1024   */\n  dup2\n    /* \"#utility.yul\":1001:1025   */\n  tag_26\n  jump\t// in\ntag_47:\n    /* \"#utility.yul\":994:999   */\n  dup2\n    /* \"#utility.yul\":991:1026   */\n  eq\n    /* \"#utility.yul\":981:1044   */\n  tag_48\n  jumpi\n    /* \"#utility.yul\":1040:1041   */\n  0x00\n    /* \"#utility.yul\":1037:1038   */\n  dup1\n    /* \"#utility.yul\":1030:1042   */\n  revert\n    /* \"#utility.yul\":981:1044   */\ntag_48:\n    /* \"#utility.yul\":928:1050   */\n  pop\n  jump\t// out\n    /* \"#utility.yul\":1056:1199   */\ntag_28:\n    /* \"#utility.yul\":1113:1118   */\n  0x00\n    /* \"#utility.yul\":1144:1150   */\n  dup2\n    /* \"#utility.yul\":1138:1151   */\n  mload\n    /* \"#utility.yul\":1129:1151   */\n  swap1\n  pop\n    /* \"#utility.yul\":1160:1193   */\n  tag_50\n    /* \"#utility.yul\":1187:1192   */\n  dup2\n    /* \"#utility.yul\":1160:1193   */\n  tag_27\n  jump\t// in\ntag_50:\n    /* \"#utility.yul\":1056:1199   */\n  swap3\n  swap2\n  pop\n  pop\n  jump\t// out\n    /* \"#utility.yul\":1205:1868   */\ntag_3:\n    /* \"#utility.yul\":1293:1299   */\n  0x00\n    /* \"#utility.yul\":1301:1307   */\n  dup1\n    /* \"#utility.yul\":1309:1315   */\n  0x00\n    /* \"#utility.yul\":1358:1360   */\n  0x60\n    /* \"#utility.yul\":1346:1355   */\n  dup5\n    /* \"#utility.yul\":1337:1344   */\n  dup7\n    /* \"#utility.yul\":1333:1356   */\n  sub\n    /* \"#utility.yul\":1329:1361   */\n  slt\n    /* \"#utility.yul\":1326:1445   */\n  iszero\n  tag_52\n  jumpi\n    /* \"#utility.yul\":1364:1443   */\n  tag_53\n  tag_20\n  jump\t// in\ntag_53:\n    /* \"#utility.yul\":1326:1445   */\ntag_52:\n    /* \"#utility.yul\":1484:1485   */\n  0x00\n    /* \"#utility.yul\":1509:1573   */\n  tag_54\n    /* \"#utility.yul\":1565:1572   */\n  dup7\n    /* \"#utility.yul\":1556:1562   */\n  dup3\n    /* \"#utility.yul\":1545:1554   */\n  dup8\n    /* \"#utility.yul\":1541:1563   */\n  add\n    /* \"#utility.yul\":1509:1573   */\n  tag_25\n  jump\t// in\ntag_54:\n    /* \"#utility.yul\":1499:1573   */\n  swap4\n  pop\n    /* \"#utility.yul\":1455:1583   */\n  pop\n    /* \"#utility.yul\":1622:1624   */\n  0x20\n    /* \"#utility.yul\":1648:1712   */\n  tag_55\n    /* \"#utility.yul\":1704:1711   */\n  dup7\n    /* \"#utility.yul\":1695:1701   */\n  dup3\n    /* \"#utility.yul\":1684:1693   */\n  dup8\n    /* \"#utility.yul\":1680:1702   */\n  add\n    /* \"#utility.yul\":1648:1712   */\n  tag_25\n  jump\t// in\ntag_55:\n    /* \"#utility.yul\":1638:1712   */\n  swap3\n  pop\n    /* \"#utility.yul\":1593:1722   */\n  pop\n    /* \"#utility.yul\":1761:1763   */\n  0x40\n    /* \"#utility.yul\":1787:1851   */\n  tag_56\n    /* \"#utility.yul\":1843:1850   */\n  dup7\n    /* \"#utility.yul\":1834:1840   */\n  dup3\n    /* \"#utility.yul\":1823:1832   */\n  dup8\n    /* \"#utility.yul\":1819:1841   */\n  add\n    /* \"#utility.yul\":1787:1851   */\n  tag_28\n  jump\t// in\ntag_56:\n    /* \"#utility.yul\":1777:1851   */\n  swap2\n  pop\n    /* \"#utility.yul\":1732:1861   */\n  pop\n    /* \"#utility.yul\":1205:1868   */\n  swap3\n  pop\n  swap3\n  pop\n  swap3\n  jump\t// out\n    /* \"#utility.yul\":1874:1992   */\ntag_29:\n    /* \"#utility.yul\":1961:1985   */\n  tag_58\n    /* \"#utility.yul\":1979:1984   */\n  dup2\n    /* \"#utility.yul\":1961:1985   */\n  tag_23\n  jump\t// in\ntag_58:\n    /* \"#utility.yul\":1956:1959   */\n  dup3\n    /* \"#utility.yul\":1949:1986   */\n  mstore\n    /* \"#utility.yul\":1874:1992   */\n  pop\n  pop\n  jump\t// out\n    /* \"#utility.yul\":1998:2220   */\ntag_9:\n    /* \"#utility.yul\":2091:2095   */\n  0x00\n    /* \"#utility.yul\":2129:2131   */\n  0x20\n    /* \"#utility.yul\":2118:2127   */\n  dup3\n    /* \"#utility.yul\":2114:2132   */\n  add\n    /* \"#utility.yul\":2106:2132   */\n  swap1\n  pop\n    /* \"#utility.yul\":2142:2213   */\n  tag_60\n    /* \"#utility.yul\":2210:2211   */\n  0x00\n    /* \"#utility.yul\":2199:2208   */\n  dup4\n    /* \"#utility.yul\":2195:2212   */\n  add\n    /* \"#utility.yul\":2186:2192   */\n  dup5\n    /* \"#utility.yul\":2142:2213   */\n  tag_29\n  jump\t// in\ntag_60:\n    /* \"#utility.yul\":1998:2220   */\n  swap3\n  swap2\n  pop\n  pop\n  jump\t// out\n    /* \"#utility.yul\":2226:2395   */\ntag_30:\n    /* \"#utility.yul\":2310:2321   */\n  0x00\n    /* \"#utility.yul\":2344:2350   */\n  dup3\n    /* \"#utility.yul\":2339:2342   */\n  dup3\n    /* \"#utility.yul\":2332:2351   */\n  mstore\n    /* \"#utility.yul\":2384:2388   */\n  0x20\n    /* \"#utility.yul\":2379:2382   */\n  dup3\n    /* \"#utility.yul\":2375:2389   */\n  add\n    /* \"#utility.yul\":2360:2389   */\n  swap1\n  pop\n    /* \"#utility.yul\":2226:2395   */\n  swap3\n  swap2\n  pop\n  pop\n  jump\t// out\n    /* \"#utility.yul\":2401:2624   */\ntag_31:\n    /* \"#utility.yul\":2541:2575   */\n  0x4f6e6c792030206f7220312061636365707465642061732061697264726f7020\n    /* \"#utility.yul\":2537:2538   */\n  0x00\n    /* \"#utility.yul\":2529:2535   */\n  dup3\n    /* \"#utility.yul\":2525:2539   */\n  add\n    /* \"#utility.yul\":2518:2576   */\n  mstore\n    /* \"#utility.yul\":2610:2616   */\n  0x7479706500000000000000000000000000000000000000000000000000000000\n    /* \"#utility.yul\":2605:2607   */\n  0x20\n    /* \"#utility.yul\":2597:2603   */\n  dup3\n    /* \"#utility.yul\":2593:2608   */\n  add\n    /* \"#utility.yul\":2586:2617   */\n  mstore\n    /* \"#utility.yul\":2401:2624   */\n  pop\n  jump\t// out\n    /* \"#utility.yul\":2630:2996   */\ntag_32:\n    /* \"#utility.yul\":2772:2775   */\n  0x00\n    /* \"#utility.yul\":2793:2860   */\n  tag_64\n    /* \"#utility.yul\":2857:2859   */\n  0x24\n    /* \"#utility.yul\":2852:2855   */\n  dup4\n    /* \"#utility.yul\":2793:2860   */\n  tag_30\n  jump\t// in\ntag_64:\n    /* \"#utility.yul\":2786:2860   */\n  swap2\n  pop\n    /* \"#utility.yul\":2869:2962   */\n  tag_65\n    /* \"#utility.yul\":2958:2961   */\n  dup3\n    /* \"#utility.yul\":2869:2962   */\n  tag_31\n  jump\t// in\ntag_65:\n    /* \"#utility.yul\":2987:2989   */\n  0x40\n    /* \"#utility.yul\":2982:2985   */\n  dup3\n    /* \"#utility.yul\":2978:2990   */\n  add\n    /* \"#utility.yul\":2971:2990   */\n  swap1\n  pop\n    /* \"#utility.yul\":2630:2996   */\n  swap2\n  swap1\n  pop\n  jump\t// out\n    /* \"#utility.yul\":3002:3421   */\ntag_16:\n    /* \"#utility.yul\":3168:3172   */\n  0x00\n    /* \"#utility.yul\":3206:3208   */\n  0x20\n    /* \"#utility.yul\":3195:3204   */\n  dup3\n    /* \"#utility.yul\":3191:3209   */\n  add\n    /* \"#utility.yul\":3183:3209   */\n  swap1\n  pop\n    /* \"#utility.yul\":3255:3264   */\n  dup2\n    /* \"#utility.yul\":3249:3253   */\n  dup2\n    /* \"#utility.yul\":3245:3265   */\n  sub\n    /* \"#utility.yul\":3241:3242   */\n  0x00\n    /* \"#utility.yul\":3230:3239   */\n  dup4\n    /* \"#utility.yul\":3226:3243   */\n  add\n    /* \"#utility.yul\":3219:3266   */\n  mstore\n    /* \"#utility.yul\":3283:3414   */\n  tag_67\n    /* \"#utility.yul\":3409:3413   */\n  dup2\n    /* \"#utility.yul\":3283:3414   */\n  tag_32\n  jump\t// in\ntag_67:\n    /* \"#utility.yul\":3275:3414   */\n  swap1\n  pop\n    /* \"#utility.yul\":3002:3421   */\n  swap2\n  swap1\n  pop\n  jump\t// out\n    /* \"COAT/tokens/airdrop.sol\":14196:22444  contract Airdrop is Ownable(address(this)) {... */\ntag_17:\n  dataSize(sub_0)\n  dup1\n  dataOffset(sub_0)\n  0x00\n  codecopy\n  0x00\n  return\nstop\n\nsub_0: assembly {\n        /* \"COAT/tokens/airdrop.sol\":14196:22444  contract Airdrop is Ownable(address(this)) {... */\n      mstore(0x40, 0x80)\n      callvalue\n      dup1\n      iszero\n      tag_1\n      jumpi\n      0x00\n      dup1\n      revert\n    tag_1:\n      pop\n      jumpi(tag_2, lt(calldatasize, 0x04))\n      shr(0xe0, calldataload(0x00))\n      dup1\n      0x715018a6\n      gt\n      tag_14\n      jumpi\n      dup1\n      0x715018a6\n      eq\n      tag_8\n      jumpi\n      dup1\n      0x8da5cb5b\n      eq\n      tag_9\n      jumpi\n      dup1\n      0x91c5f4a6\n      eq\n      tag_10\n      jumpi\n      dup1\n      0xb1a2039e\n      eq\n      tag_11\n      jumpi\n      dup1\n      0xb2736a7b\n      eq\n      tag_12\n      jumpi\n      dup1\n      0xf2fde38b\n      eq\n      tag_13\n      jumpi\n      jump(tag_2)\n    tag_14:\n      dup1\n      0x01bf6648\n      eq\n      tag_3\n      jumpi\n      dup1\n      0x09a9d76c\n      eq\n      tag_4\n      jumpi\n      dup1\n      0x150b7a02\n      eq\n      tag_5\n      jumpi\n      dup1\n      0x47aa476e\n      eq\n      tag_6\n      jumpi\n      dup1\n      0x6f9170f6\n      eq\n      tag_7\n      jumpi\n    tag_2:\n      0x00\n      dup1\n      revert\n        /* \"COAT/tokens/airdrop.sol\":19313:19852  function removeFromWhiteList(address _address) public onlyOwner returns(bool) {... */\n    tag_3:\n      tag_15\n      0x04\n      dup1\n      calldatasize\n      sub\n      dup2\n      add\n      swap1\n      tag_16\n      swap2\n      swap1\n      tag_17\n      jump\t// in\n    tag_16:\n      tag_18\n      jump\t// in\n    tag_15:\n      mload(0x40)\n      tag_19\n      swap2\n      swap1\n      tag_20\n      jump\t// in\n    tag_19:\n      mload(0x40)\n      dup1\n      swap2\n      sub\n      swap1\n      return\n        /* \"COAT/tokens/airdrop.sol\":19931:20039  function getWhiteList() public view returns(address[] memory) {... */\n    tag_4:\n      tag_21\n      tag_22\n      jump\t// in\n    tag_21:\n      mload(0x40)\n      tag_23\n      swap2\n      swap1\n      tag_24\n      jump\t// in\n    tag_23:\n      mload(0x40)\n      dup1\n      swap2\n      sub\n      swap1\n      return\n        /* \"COAT/tokens/airdrop.sol\":20611:21008  function onERC721Received(address operator, address from, uint256 tokenId, bytes memory data) public returns (bytes4) {... */\n    tag_5:\n      tag_25\n      0x04\n      dup1\n      calldatasize\n      sub\n      dup2\n      add\n      swap1\n      tag_26\n      swap2\n      swap1\n      tag_27\n      jump\t// in\n    tag_26:\n      tag_28\n      jump\t// in\n    tag_25:\n      mload(0x40)\n      tag_29\n      swap2\n      swap1\n      tag_30\n      jump\t// in\n    tag_29:\n      mload(0x40)\n      dup1\n      swap2\n      sub\n      swap1\n      return\n        /* \"COAT/tokens/airdrop.sol\":20405:20515  function resetAirdrop() public onlyOwner returns(bool) {... */\n    tag_6:\n      tag_31\n      tag_32\n      jump\t// in\n    tag_31:\n      mload(0x40)\n      tag_33\n      swap2\n      swap1\n      tag_20\n      jump\t// in\n    tag_33:\n      mload(0x40)\n      dup1\n      swap2\n      sub\n      swap1\n      return\n        /* \"COAT/tokens/airdrop.sol\":20213:20328  function isWhiteListed(address _address) public view returns(bool) {... */\n    tag_7:\n      tag_34\n      0x04\n      dup1\n      calldatasize\n      sub\n      dup2\n      add\n      swap1\n      tag_35\n      swap2\n      swap1\n      tag_17\n      jump\t// in\n    tag_35:\n      tag_36\n      jump\t// in\n    tag_34:\n      mload(0x40)\n      tag_37\n      swap2\n      swap1\n      tag_20\n      jump\t// in\n    tag_37:\n      mload(0x40)\n      dup1\n      swap2\n      sub\n      swap1\n      return\n        /* \"@openzeppelin/contracts/access/Ownable.sol\":2293:2394  function renounceOwnership() public virtual onlyOwner {... */\n    tag_8:\n      tag_38\n      tag_39\n      jump\t// in\n    tag_38:\n      stop\n        /* \"@openzeppelin/contracts/access/Ownable.sol\":1638:1723  function owner() public view virtual returns (address) {... */\n    tag_9:\n      tag_40\n      tag_41\n      jump\t// in\n    tag_40:\n      mload(0x40)\n      tag_42\n      swap2\n      swap1\n      tag_43\n      jump\t// in\n    tag_42:\n      mload(0x40)\n      dup1\n      swap2\n      sub\n      swap1\n      return\n        /* \"COAT/tokens/airdrop.sol\":18682:19195  function whiteList(address[] calldata _address) public onlyOwner returns(bool) {... */\n    tag_10:\n      tag_44\n      0x04\n      dup1\n      calldatasize\n      sub\n      dup2\n      add\n      swap1\n      tag_45\n      swap2\n      swap1\n      tag_46\n      jump\t// in\n    tag_45:\n      tag_47\n      jump\t// in\n    tag_44:\n      mload(0x40)\n      tag_48\n      swap2\n      swap1\n      tag_20\n      jump\t// in\n    tag_48:\n      mload(0x40)\n      dup1\n      swap2\n      sub\n      swap1\n      return\n        /* \"COAT/tokens/airdrop.sol\":16167:18097  function startAirdrop(uint256[] calldata unitOfToken) public onlyOwner returns(bool){... */\n    tag_11:\n      tag_49\n      0x04\n      dup1\n      calldatasize\n      sub\n      dup2\n      add\n      swap1\n      tag_50\n      swap2\n      swap1\n      tag_51\n      jump\t// in\n    tag_50:\n      tag_52\n      jump\t// in\n    tag_49:\n      mload(0x40)\n      tag_53\n      swap2\n      swap1\n      tag_20\n      jump\t// in\n    tag_53:\n      mload(0x40)\n      dup1\n      swap2\n      sub\n      swap1\n      return\n        /* \"COAT/tokens/airdrop.sol\":18334:18556  function getEligibility(address _address, uint256 tokenId) public view returns(bool) {... */\n    tag_12:\n      tag_54\n      0x04\n      dup1\n      calldatasize\n      sub\n      dup2\n      add\n      swap1\n      tag_55\n      swap2\n      swap1\n      tag_56\n      jump\t// in\n    tag_55:\n      tag_57\n      jump\t// in\n    tag_54:\n      mload(0x40)\n      tag_58\n      swap2\n      swap1\n      tag_20\n      jump\t// in\n    tag_58:\n      mload(0x40)\n      dup1\n      swap2\n      sub\n      swap1\n      return\n        /* \"@openzeppelin/contracts/access/Ownable.sol\":2543:2758  function transferOwnership(address newOwner) public virtual onlyOwner {... */\n    tag_13:\n      tag_59\n      0x04\n      dup1\n      calldatasize\n      sub\n      dup2\n      add\n      swap1\n      tag_60\n      swap2\n      swap1\n      tag_17\n      jump\t// in\n    tag_60:\n      tag_61\n      jump\t// in\n    tag_59:\n      stop\n        /* \"COAT/tokens/airdrop.sol\":19313:19852  function removeFromWhiteList(address _address) public onlyOwner returns(bool) {... */\n    tag_18:\n        /* \"COAT/tokens/airdrop.sol\":19385:19389  bool */\n      0x00\n        /* \"@openzeppelin/contracts/access/Ownable.sol\":1531:1544  _checkOwner() */\n      tag_63\n        /* \"@openzeppelin/contracts/access/Ownable.sol\":1531:1542  _checkOwner */\n      tag_64\n        /* \"@openzeppelin/contracts/access/Ownable.sol\":1531:1544  _checkOwner() */\n      jump\t// in\n    tag_63:\n        /* \"COAT/tokens/airdrop.sol\":19410:19432  checkAddress(_address) */\n      tag_66\n        /* \"COAT/tokens/airdrop.sol\":19423:19431  _address */\n      dup3\n        /* \"COAT/tokens/airdrop.sol\":19410:19422  checkAddress */\n      tag_67\n        /* \"COAT/tokens/airdrop.sol\":19410:19432  checkAddress(_address) */\n      jump\t// in\n    tag_66:\n        /* \"COAT/tokens/airdrop.sol\":19402:19475  require(checkAddress(_address),\"Address does not exist in the whitelist\") */\n      tag_68\n      jumpi\n      mload(0x40)\n      0x08c379a000000000000000000000000000000000000000000000000000000000\n      dup2\n      mstore\n      0x04\n      add\n      tag_69\n      swap1\n      tag_70\n      jump\t// in\n    tag_69:\n      mload(0x40)\n      dup1\n      swap2\n      sub\n      swap1\n      revert\n    tag_68:\n        /* \"COAT/tokens/airdrop.sol\":19526:19535  uint256 i */\n      0x00\n        /* \"COAT/tokens/airdrop.sol\":19521:19823  for (uint256 i = 0; i < _whiteList.length; i++) {... */\n    tag_71:\n        /* \"COAT/tokens/airdrop.sol\":19545:19555  _whiteList */\n      0x03\n        /* \"COAT/tokens/airdrop.sol\":19545:19562  _whiteList.length */\n      dup1\n      sload\n      swap1\n      pop\n        /* \"COAT/tokens/airdrop.sol\":19541:19542  i */\n      dup2\n        /* \"COAT/tokens/airdrop.sol\":19541:19562  i < _whiteList.length */\n      lt\n        /* \"COAT/tokens/airdrop.sol\":19521:19823  for (uint256 i = 0; i < _whiteList.length; i++) {... */\n      iszero\n      tag_72\n      jumpi\n        /* \"COAT/tokens/airdrop.sol\":19605:19613  _address */\n      dup3\n        /* \"COAT/tokens/airdrop.sol\":19588:19613  _whiteList[i] == _address */\n      0xffffffffffffffffffffffffffffffffffffffff\n      and\n        /* \"COAT/tokens/airdrop.sol\":19588:19598  _whiteList */\n      0x03\n        /* \"COAT/tokens/airdrop.sol\":19599:19600  i */\n      dup3\n        /* \"COAT/tokens/airdrop.sol\":19588:19601  _whiteList[i] */\n      dup2\n      sload\n      dup2\n      lt\n      tag_74\n      jumpi\n      tag_75\n      tag_76\n      jump\t// in\n    tag_75:\n    tag_74:\n      swap1\n      0x00\n      mstore\n      keccak256(0x00, 0x20)\n      add\n      0x00\n      swap1\n      sload\n      swap1\n      0x0100\n      exp\n      swap1\n      div\n      0xffffffffffffffffffffffffffffffffffffffff\n      and\n        /* \"COAT/tokens/airdrop.sol\":19588:19613  _whiteList[i] == _address */\n      0xffffffffffffffffffffffffffffffffffffffff\n      and\n      sub\n        /* \"COAT/tokens/airdrop.sol\":19584:19812  if (_whiteList[i] == _address) {... */\n      tag_78\n      jumpi\n        /* \"COAT/tokens/airdrop.sol\":19650:19660  _whiteList */\n      0x03\n        /* \"COAT/tokens/airdrop.sol\":19681:19682  1 */\n      0x01\n        /* \"COAT/tokens/airdrop.sol\":19661:19671  _whiteList */\n      0x03\n        /* \"COAT/tokens/airdrop.sol\":19661:19678  _whiteList.length */\n      dup1\n      sload\n      swap1\n      pop\n        /* \"COAT/tokens/airdrop.sol\":19661:19682  _whiteList.length - 1 */\n      tag_79\n      swap2\n      swap1\n      tag_80\n      jump\t// in\n    tag_79:\n        /* \"COAT/tokens/airdrop.sol\":19650:19683  _whiteList[_whiteList.length - 1] */\n      dup2\n      sload\n      dup2\n      lt\n      tag_81\n      jumpi\n      tag_82\n      tag_76\n      jump\t// in\n    tag_82:\n    tag_81:\n      swap1\n      0x00\n      mstore\n      keccak256(0x00, 0x20)\n      add\n      0x00\n      swap1\n      sload\n      swap1\n      0x0100\n      exp\n      swap1\n      div\n      0xffffffffffffffffffffffffffffffffffffffff\n      and\n        /* \"COAT/tokens/airdrop.sol\":19634:19644  _whiteList */\n      0x03\n        /* \"COAT/tokens/airdrop.sol\":19645:19646  i */\n      dup3\n        /* \"COAT/tokens/airdrop.sol\":19634:19647  _whiteList[i] */\n      dup2\n      sload\n      dup2\n      lt\n      tag_84\n      jumpi\n      tag_85\n      tag_76\n      jump\t// in\n    tag_85:\n    tag_84:\n      swap1\n      0x00\n      mstore\n      keccak256(0x00, 0x20)\n      add\n      0x00\n        /* \"COAT/tokens/airdrop.sol\":19634:19683  _whiteList[i] = _whiteList[_whiteList.length - 1] */\n      0x0100\n      exp\n      dup2\n      sload\n      dup2\n      0xffffffffffffffffffffffffffffffffffffffff\n      mul\n      not\n      and\n      swap1\n      dup4\n      0xffffffffffffffffffffffffffffffffffffffff\n      and\n      mul\n      or\n      swap1\n      sstore\n      pop\n        /* \"COAT/tokens/airdrop.sol\":19702:19712  _whiteList */\n      0x03\n        /* \"COAT/tokens/airdrop.sol\":19702:19718  _whiteList.pop() */\n      dup1\n      sload\n      dup1\n      tag_87\n      jumpi\n      tag_88\n      tag_89\n      jump\t// in\n    tag_88:\n    tag_87:\n      0x01\n      swap1\n      sub\n      dup2\n      dup2\n      swap1\n      0x00\n      mstore\n      keccak256(0x00, 0x20)\n      add\n      exp(0x0100, 0x00)\n      dup2\n      sload\n      swap1\n      0xffffffffffffffffffffffffffffffffffffffff\n      mul\n      not\n      and\n      swap1\n      sstore\n      swap1\n      sstore\n        /* \"COAT/tokens/airdrop.sol\":19742:19766  removedAddress(_address) */\n      0xfff8612f5ebb2ef78030ade93e8ff4b3686d931416bef43806aeaddf398c3f73\n        /* \"COAT/tokens/airdrop.sol\":19757:19765  _address */\n      dup4\n        /* \"COAT/tokens/airdrop.sol\":19742:19766  removedAddress(_address) */\n      mload(0x40)\n      tag_91\n      swap2\n      swap1\n      tag_43\n      jump\t// in\n    tag_91:\n      mload(0x40)\n      dup1\n      swap2\n      sub\n      swap1\n      log1\n        /* \"COAT/tokens/airdrop.sol\":19792:19796  true */\n      0x01\n        /* \"COAT/tokens/airdrop.sol\":19785:19796  return true */\n      swap2\n      pop\n      pop\n      jump(tag_65)\n        /* \"COAT/tokens/airdrop.sol\":19584:19812  if (_whiteList[i] == _address) {... */\n    tag_78:\n        /* \"COAT/tokens/airdrop.sol\":19564:19567  i++ */\n      dup1\n      dup1\n      0x01\n      add\n      swap2\n      pop\n      pop\n        /* \"COAT/tokens/airdrop.sol\":19521:19823  for (uint256 i = 0; i < _whiteList.length; i++) {... */\n      jump(tag_71)\n    tag_72:\n      pop\n        /* \"COAT/tokens/airdrop.sol\":19840:19844  true */\n      0x01\n        /* \"COAT/tokens/airdrop.sol\":19833:19844  return true */\n      swap1\n      pop\n        /* \"@openzeppelin/contracts/access/Ownable.sol\":1554:1555  _ */\n    tag_65:\n        /* \"COAT/tokens/airdrop.sol\":19313:19852  function removeFromWhiteList(address _address) public onlyOwner returns(bool) {... */\n      swap2\n      swap1\n      pop\n      jump\t// out\n        /* \"COAT/tokens/airdrop.sol\":19931:20039  function getWhiteList() public view returns(address[] memory) {... */\n    tag_22:\n        /* \"COAT/tokens/airdrop.sol\":19975:19991  address[] memory */\n      0x60\n        /* \"COAT/tokens/airdrop.sol\":20011:20021  _whiteList */\n      0x03\n        /* \"COAT/tokens/airdrop.sol\":20004:20021  return _whiteList */\n      dup1\n      sload\n      dup1\n      0x20\n      mul\n      0x20\n      add\n      mload(0x40)\n      swap1\n      dup2\n      add\n      0x40\n      mstore\n      dup1\n      swap3\n      swap2\n      swap1\n      dup2\n      dup2\n      mstore\n      0x20\n      add\n      dup3\n      dup1\n      sload\n      dup1\n      iszero\n      tag_93\n      jumpi\n      0x20\n      mul\n      dup3\n      add\n      swap2\n      swap1\n      0x00\n      mstore\n      keccak256(0x00, 0x20)\n      swap1\n    tag_94:\n      dup2\n      0x00\n      swap1\n      sload\n      swap1\n      0x0100\n      exp\n      swap1\n      div\n      0xffffffffffffffffffffffffffffffffffffffff\n      and\n      0xffffffffffffffffffffffffffffffffffffffff\n      and\n      dup2\n      mstore\n      0x20\n      add\n      swap1\n      0x01\n      add\n      swap1\n      dup1\n      dup4\n      gt\n      tag_94\n      jumpi\n    tag_93:\n      pop\n      pop\n      pop\n      pop\n      pop\n      swap1\n      pop\n        /* \"COAT/tokens/airdrop.sol\":19931:20039  function getWhiteList() public view returns(address[] memory) {... */\n      swap1\n      jump\t// out\n        /* \"COAT/tokens/airdrop.sol\":20611:21008  function onERC721Received(address operator, address from, uint256 tokenId, bytes memory data) public returns (bytes4) {... */\n    tag_28:\n        /* \"COAT/tokens/airdrop.sol\":20721:20727  bytes4 */\n      0x00\n        /* \"COAT/tokens/airdrop.sol\":20796:20841  receivedTokens(operator, from, tokenId, data) */\n      0x541cb930dbb178d9d0a40b098c309dda5a70e722066990941158d1f77b5bfcf3\n        /* \"COAT/tokens/airdrop.sol\":20811:20819  operator */\n      dup6\n        /* \"COAT/tokens/airdrop.sol\":20821:20825  from */\n      dup6\n        /* \"COAT/tokens/airdrop.sol\":20827:20834  tokenId */\n      dup6\n        /* \"COAT/tokens/airdrop.sol\":20836:20840  data */\n      dup6\n        /* \"COAT/tokens/airdrop.sol\":20796:20841  receivedTokens(operator, from, tokenId, data) */\n      mload(0x40)\n      tag_96\n      swap5\n      swap4\n      swap3\n      swap2\n      swap1\n      tag_97\n      jump\t// in\n    tag_96:\n      mload(0x40)\n      dup1\n      swap2\n      sub\n      swap1\n      log1\n        /* \"COAT/tokens/airdrop.sol\":20959:21000  IERC721Receiver.onERC721Received.selector */\n      shl(0xe0, 0x150b7a02)\n        /* \"COAT/tokens/airdrop.sol\":20952:21000  return IERC721Receiver.onERC721Received.selector */\n      swap1\n      pop\n        /* \"COAT/tokens/airdrop.sol\":20611:21008  function onERC721Received(address operator, address from, uint256 tokenId, bytes memory data) public returns (bytes4) {... */\n      swap5\n      swap4\n      pop\n      pop\n      pop\n      pop\n      jump\t// out\n        /* \"COAT/tokens/airdrop.sol\":20405:20515  function resetAirdrop() public onlyOwner returns(bool) {... */\n    tag_32:\n        /* \"COAT/tokens/airdrop.sol\":20454:20458  bool */\n      0x00\n        /* \"@openzeppelin/contracts/access/Ownable.sol\":1531:1544  _checkOwner() */\n      tag_99\n        /* \"@openzeppelin/contracts/access/Ownable.sol\":1531:1542  _checkOwner */\n      tag_64\n        /* \"@openzeppelin/contracts/access/Ownable.sol\":1531:1544  _checkOwner() */\n      jump\t// in\n    tag_99:\n        /* \"COAT/tokens/airdrop.sol\":20471:20483  airdropCount */\n      0x04\n      0x00\n        /* \"COAT/tokens/airdrop.sol\":20471:20485  airdropCount++ */\n      dup2\n      sload\n      dup1\n      swap3\n      swap2\n      swap1\n      tag_101\n      swap1\n      tag_102\n      jump\t// in\n    tag_101:\n      swap2\n      swap1\n      pop\n      sstore\n      pop\n        /* \"COAT/tokens/airdrop.sol\":20503:20507  true */\n      0x01\n        /* \"COAT/tokens/airdrop.sol\":20496:20507  return true */\n      swap1\n      pop\n        /* \"COAT/tokens/airdrop.sol\":20405:20515  function resetAirdrop() public onlyOwner returns(bool) {... */\n      swap1\n      jump\t// out\n        /* \"COAT/tokens/airdrop.sol\":20213:20328  function isWhiteListed(address _address) public view returns(bool) {... */\n    tag_36:\n        /* \"COAT/tokens/airdrop.sol\":20274:20278  bool */\n      0x00\n        /* \"COAT/tokens/airdrop.sol\":20298:20320  checkAddress(_address) */\n      tag_104\n        /* \"COAT/tokens/airdrop.sol\":20311:20319  _address */\n      dup3\n        /* \"COAT/tokens/airdrop.sol\":20298:20310  checkAddress */\n      tag_67\n        /* \"COAT/tokens/airdrop.sol\":20298:20320  checkAddress(_address) */\n      jump\t// in\n    tag_104:\n        /* \"COAT/tokens/airdrop.sol\":20291:20320  return checkAddress(_address) */\n      swap1\n      pop\n        /* \"COAT/tokens/airdrop.sol\":20213:20328  function isWhiteListed(address _address) public view returns(bool) {... */\n      swap2\n      swap1\n      pop\n      jump\t// out\n        /* \"@openzeppelin/contracts/access/Ownable.sol\":2293:2394  function renounceOwnership() public virtual onlyOwner {... */\n    tag_39:\n        /* \"@openzeppelin/contracts/access/Ownable.sol\":1531:1544  _checkOwner() */\n      tag_106\n        /* \"@openzeppelin/contracts/access/Ownable.sol\":1531:1542  _checkOwner */\n      tag_64\n        /* \"@openzeppelin/contracts/access/Ownable.sol\":1531:1544  _checkOwner() */\n      jump\t// in\n    tag_106:\n        /* \"@openzeppelin/contracts/access/Ownable.sol\":2357:2387  _transferOwnership(address(0)) */\n      tag_108\n        /* \"@openzeppelin/contracts/access/Ownable.sol\":2384:2385  0 */\n      0x00\n        /* \"@openzeppelin/contracts/access/Ownable.sol\":2357:2375  _transferOwnership */\n      tag_109\n        /* \"@openzeppelin/contracts/access/Ownable.sol\":2357:2387  _transferOwnership(address(0)) */\n      jump\t// in\n    tag_108:\n        /* \"@openzeppelin/contracts/access/Ownable.sol\":2293:2394  function renounceOwnership() public virtual onlyOwner {... */\n      jump\t// out\n        /* \"@openzeppelin/contracts/access/Ownable.sol\":1638:1723  function owner() public view virtual returns (address) {... */\n    tag_41:\n        /* \"@openzeppelin/contracts/access/Ownable.sol\":1684:1691  address */\n      0x00\n        /* \"@openzeppelin/contracts/access/Ownable.sol\":1710:1716  _owner */\n      dup1\n      0x00\n      swap1\n      sload\n      swap1\n      0x0100\n      exp\n      swap1\n      div\n      0xffffffffffffffffffffffffffffffffffffffff\n      and\n        /* \"@openzeppelin/contracts/access/Ownable.sol\":1703:1716  return _owner */\n      swap1\n      pop\n        /* \"@openzeppelin/contracts/access/Ownable.sol\":1638:1723  function owner() public view virtual returns (address) {... */\n      swap1\n      jump\t// out\n        /* \"COAT/tokens/airdrop.sol\":18682:19195  function whiteList(address[] calldata _address) public onlyOwner returns(bool) {... */\n    tag_47:\n        /* \"COAT/tokens/airdrop.sol\":18755:18759  bool */\n      0x00\n        /* \"@openzeppelin/contracts/access/Ownable.sol\":1531:1544  _checkOwner() */\n      tag_112\n        /* \"@openzeppelin/contracts/access/Ownable.sol\":1531:1542  _checkOwner */\n      tag_64\n        /* \"@openzeppelin/contracts/access/Ownable.sol\":1531:1544  _checkOwner() */\n      jump\t// in\n    tag_112:\n        /* \"COAT/tokens/airdrop.sol\":18777:18783  uint i */\n      0x00\n        /* \"COAT/tokens/airdrop.sol\":18772:19117  for (uint i = 0; i < _address.length; i++) {... */\n    tag_114:\n        /* \"COAT/tokens/airdrop.sol\":18793:18801  _address */\n      dup4\n      dup4\n        /* \"COAT/tokens/airdrop.sol\":18793:18808  _address.length */\n      swap1\n      pop\n        /* \"COAT/tokens/airdrop.sol\":18789:18790  i */\n      dup2\n        /* \"COAT/tokens/airdrop.sol\":18789:18808  i < _address.length */\n      lt\n        /* \"COAT/tokens/airdrop.sol\":18772:19117  for (uint i = 0; i < _address.length; i++) {... */\n      iszero\n      tag_115\n      jumpi\n        /* \"COAT/tokens/airdrop.sol\":18861:18862  0 */\n      0x00\n        /* \"COAT/tokens/airdrop.sol\":18838:18863  _address[i] != address(0) */\n      0xffffffffffffffffffffffffffffffffffffffff\n      and\n        /* \"COAT/tokens/airdrop.sol\":18838:18846  _address */\n      dup5\n      dup5\n        /* \"COAT/tokens/airdrop.sol\":18847:18848  i */\n      dup4\n        /* \"COAT/tokens/airdrop.sol\":18838:18849  _address[i] */\n      dup2\n      dup2\n      lt\n      tag_117\n      jumpi\n      tag_118\n      tag_76\n      jump\t// in\n    tag_118:\n    tag_117:\n      swap1\n      pop\n      0x20\n      mul\n      add\n      0x20\n      dup2\n      add\n      swap1\n      tag_119\n      swap2\n      swap1\n      tag_17\n      jump\t// in\n    tag_119:\n        /* \"COAT/tokens/airdrop.sol\":18838:18863  _address[i] != address(0) */\n      0xffffffffffffffffffffffffffffffffffffffff\n      and\n      sub\n        /* \"COAT/tokens/airdrop.sol\":18830:18887  require(_address[i] != address(0),\"Zero Address present\") */\n      tag_120\n      jumpi\n      mload(0x40)\n      0x08c379a000000000000000000000000000000000000000000000000000000000\n      dup2\n      mstore\n      0x04\n      add\n      tag_121\n      swap1\n      tag_122\n      jump\t// in\n    tag_121:\n      mload(0x40)\n      dup1\n      swap2\n      sub\n      swap1\n      revert\n    tag_120:\n        /* \"COAT/tokens/airdrop.sol\":18918:18919  1 */\n      0x01\n        /* \"COAT/tokens/airdrop.sol\":18905:18916  airdropType */\n      sload(0x07)\n        /* \"COAT/tokens/airdrop.sol\":18905:18919  airdropType==1 */\n      sub\n        /* \"COAT/tokens/airdrop.sol\":18902:18986  if(airdropType==1){require(_checkReceiver(_address[i], 0), \"Faulty address found\");} */\n      tag_123\n      jumpi\n        /* \"COAT/tokens/airdrop.sol\":18929:18959  _checkReceiver(_address[i], 0) */\n      tag_124\n        /* \"COAT/tokens/airdrop.sol\":18944:18952  _address */\n      dup5\n      dup5\n        /* \"COAT/tokens/airdrop.sol\":18953:18954  i */\n      dup4\n        /* \"COAT/tokens/airdrop.sol\":18944:18955  _address[i] */\n      dup2\n      dup2\n      lt\n      tag_125\n      jumpi\n      tag_126\n      tag_76\n      jump\t// in\n    tag_126:\n    tag_125:\n      swap1\n      pop\n      0x20\n      mul\n      add\n      0x20\n      dup2\n      add\n      swap1\n      tag_127\n      swap2\n      swap1\n      tag_17\n      jump\t// in\n    tag_127:\n        /* \"COAT/tokens/airdrop.sol\":18957:18958  0 */\n      0x00\n        /* \"COAT/tokens/airdrop.sol\":18929:18943  _checkReceiver */\n      tag_128\n        /* \"COAT/tokens/airdrop.sol\":18929:18959  _checkReceiver(_address[i], 0) */\n      jump\t// in\n    tag_124:\n        /* \"COAT/tokens/airdrop.sol\":18921:18984  require(_checkReceiver(_address[i], 0), \"Faulty address found\") */\n      tag_129\n      jumpi\n      mload(0x40)\n      0x08c379a000000000000000000000000000000000000000000000000000000000\n      dup2\n      mstore\n      0x04\n      add\n      tag_130\n      swap1\n      tag_131\n      jump\t// in\n    tag_130:\n      mload(0x40)\n      dup1\n      swap2\n      sub\n      swap1\n      revert\n    tag_129:\n        /* \"COAT/tokens/airdrop.sol\":18902:18986  if(airdropType==1){require(_checkReceiver(_address[i], 0), \"Faulty address found\");} */\n    tag_123:\n        /* \"COAT/tokens/airdrop.sol\":19009:19035  isWhiteListed(_address[i]) */\n      tag_132\n        /* \"COAT/tokens/airdrop.sol\":19023:19031  _address */\n      dup5\n      dup5\n        /* \"COAT/tokens/airdrop.sol\":19032:19033  i */\n      dup4\n        /* \"COAT/tokens/airdrop.sol\":19023:19034  _address[i] */\n      dup2\n      dup2\n      lt\n      tag_133\n      jumpi\n      tag_134\n      tag_76\n      jump\t// in\n    tag_134:\n    tag_133:\n      swap1\n      pop\n      0x20\n      mul\n      add\n      0x20\n      dup2\n      add\n      swap1\n      tag_135\n      swap2\n      swap1\n      tag_17\n      jump\t// in\n    tag_135:\n        /* \"COAT/tokens/airdrop.sol\":19009:19022  isWhiteListed */\n      tag_36\n        /* \"COAT/tokens/airdrop.sol\":19009:19035  isWhiteListed(_address[i]) */\n      jump\t// in\n    tag_132:\n        /* \"COAT/tokens/airdrop.sol\":19008:19035  !isWhiteListed(_address[i]) */\n      iszero\n        /* \"COAT/tokens/airdrop.sol\":19000:19062  require(!isWhiteListed(_address[i]),\"Address allready Exists\") */\n      tag_136\n      jumpi\n      mload(0x40)\n      0x08c379a000000000000000000000000000000000000000000000000000000000\n      dup2\n      mstore\n      0x04\n      add\n      tag_137\n      swap1\n      tag_138\n      jump\t// in\n    tag_137:\n      mload(0x40)\n      dup1\n      swap2\n      sub\n      swap1\n      revert\n    tag_136:\n        /* \"COAT/tokens/airdrop.sol\":19077:19087  _whiteList */\n      0x03\n        /* \"COAT/tokens/airdrop.sol\":19093:19101  _address */\n      dup5\n      dup5\n        /* \"COAT/tokens/airdrop.sol\":19102:19103  i */\n      dup4\n        /* \"COAT/tokens/airdrop.sol\":19093:19104  _address[i] */\n      dup2\n      dup2\n      lt\n      tag_139\n      jumpi\n      tag_140\n      tag_76\n      jump\t// in\n    tag_140:\n    tag_139:\n      swap1\n      pop\n      0x20\n      mul\n      add\n      0x20\n      dup2\n      add\n      swap1\n      tag_141\n      swap2\n      swap1\n      tag_17\n      jump\t// in\n    tag_141:\n        /* \"COAT/tokens/airdrop.sol\":19077:19105  _whiteList.push(_address[i]) */\n      swap1\n      dup1\n      0x01\n      dup2\n      sload\n      add\n      dup1\n      dup3\n      sstore\n      dup1\n      swap2\n      pop\n      pop\n      0x01\n      swap1\n      sub\n      swap1\n      0x00\n      mstore\n      keccak256(0x00, 0x20)\n      add\n      0x00\n      swap1\n      swap2\n      swap1\n      swap2\n      swap1\n      swap2\n      0x0100\n      exp\n      dup2\n      sload\n      dup2\n      0xffffffffffffffffffffffffffffffffffffffff\n      mul\n      not\n      and\n      swap1\n      dup4\n      0xffffffffffffffffffffffffffffffffffffffff\n      and\n      mul\n      or\n      swap1\n      sstore\n      pop\n        /* \"COAT/tokens/airdrop.sol\":18810:18813  i++ */\n      dup1\n      dup1\n      0x01\n      add\n      swap2\n      pop\n      pop\n        /* \"COAT/tokens/airdrop.sol\":18772:19117  for (uint i = 0; i < _address.length; i++) {... */\n      jump(tag_114)\n    tag_115:\n      pop\n        /* \"COAT/tokens/airdrop.sol\":19132:19165  addressAddedToWhitelist(_address) */\n      0x8f47a973c821cca98d90b2c53821dc01e2971b8b14db8aae5776f42ea6cccc9a\n        /* \"COAT/tokens/airdrop.sol\":19156:19164  _address */\n      dup4\n      dup4\n        /* \"COAT/tokens/airdrop.sol\":19132:19165  addressAddedToWhitelist(_address) */\n      mload(0x40)\n      tag_143\n      swap3\n      swap2\n      swap1\n      tag_144\n      jump\t// in\n    tag_143:\n      mload(0x40)\n      dup1\n      swap2\n      sub\n      swap1\n      log1\n        /* \"COAT/tokens/airdrop.sol\":19183:19187  true */\n      0x01\n        /* \"COAT/tokens/airdrop.sol\":19176:19187  return true */\n      swap1\n      pop\n        /* \"COAT/tokens/airdrop.sol\":18682:19195  function whiteList(address[] calldata _address) public onlyOwner returns(bool) {... */\n      swap3\n      swap2\n      pop\n      pop\n      jump\t// out\n        /* \"COAT/tokens/airdrop.sol\":16167:18097  function startAirdrop(uint256[] calldata unitOfToken) public onlyOwner returns(bool){... */\n    tag_52:\n        /* \"COAT/tokens/airdrop.sol\":16246:16250  bool */\n      0x00\n        /* \"@openzeppelin/contracts/access/Ownable.sol\":1531:1544  _checkOwner() */\n      tag_146\n        /* \"@openzeppelin/contracts/access/Ownable.sol\":1531:1542  _checkOwner */\n      tag_64\n        /* \"@openzeppelin/contracts/access/Ownable.sol\":1531:1544  _checkOwner() */\n      jump\t// in\n    tag_146:\n        /* \"COAT/tokens/airdrop.sol\":16294:16295  0 */\n      0x00\n        /* \"COAT/tokens/airdrop.sol\":16270:16296  tokenAddress != address(0) */\n      0xffffffffffffffffffffffffffffffffffffffff\n      and\n        /* \"COAT/tokens/airdrop.sol\":16270:16282  tokenAddress */\n      0x05\n      0x00\n      swap1\n      sload\n      swap1\n      0x0100\n      exp\n      swap1\n      div\n      0xffffffffffffffffffffffffffffffffffffffff\n      and\n        /* \"COAT/tokens/airdrop.sol\":16270:16296  tokenAddress != address(0) */\n      0xffffffffffffffffffffffffffffffffffffffff\n      and\n      sub\n        /* \"COAT/tokens/airdrop.sol\":16262:16313  require(tokenAddress != address(0), \"Zero address\") */\n      tag_148\n      jumpi\n      mload(0x40)\n      0x08c379a000000000000000000000000000000000000000000000000000000000\n      dup2\n      mstore\n      0x04\n      add\n      tag_149\n      swap1\n      tag_150\n      jump\t// in\n    tag_149:\n      mload(0x40)\n      dup1\n      swap2\n      sub\n      swap1\n      revert\n    tag_148:\n        /* \"COAT/tokens/airdrop.sol\":16550:16551  0 */\n      0x00\n        /* \"COAT/tokens/airdrop.sol\":16530:16540  _whiteList */\n      0x03\n        /* \"COAT/tokens/airdrop.sol\":16530:16547  _whiteList.length */\n      dup1\n      sload\n      swap1\n      pop\n        /* \"COAT/tokens/airdrop.sol\":16530:16551  _whiteList.length > 0 */\n      gt\n        /* \"COAT/tokens/airdrop.sol\":16522:16578  require(_whiteList.length > 0, \"No whitelisted address\") */\n      tag_151\n      jumpi\n      mload(0x40)\n      0x08c379a000000000000000000000000000000000000000000000000000000000\n      dup2\n      mstore\n      0x04\n      add\n      tag_152\n      swap1\n      tag_153\n      jump\t// in\n    tag_152:\n      mload(0x40)\n      dup1\n      swap2\n      sub\n      swap1\n      revert\n    tag_151:\n        /* \"COAT/tokens/airdrop.sol\":16618:16629  unitOfToken */\n      dup3\n      dup3\n        /* \"COAT/tokens/airdrop.sol\":16618:16636  unitOfToken.length */\n      swap1\n      pop\n        /* \"COAT/tokens/airdrop.sol\":16597:16607  _whiteList */\n      0x03\n        /* \"COAT/tokens/airdrop.sol\":16597:16614  _whiteList.length */\n      dup1\n      sload\n      swap1\n      pop\n        /* \"COAT/tokens/airdrop.sol\":16597:16636  _whiteList.length == unitOfToken.length */\n      eq\n        /* \"COAT/tokens/airdrop.sol\":16589:16706  require(_whiteList.length == unitOfToken.length,\"Number of Tokens and number of whitelisted addresses are not equal\") */\n      tag_154\n      jumpi\n      mload(0x40)\n      0x08c379a000000000000000000000000000000000000000000000000000000000\n      dup2\n      mstore\n      0x04\n      add\n      tag_155\n      swap1\n      tag_156\n      jump\t// in\n    tag_155:\n      mload(0x40)\n      dup1\n      swap2\n      sub\n      swap1\n      revert\n    tag_154:\n        /* \"COAT/tokens/airdrop.sol\":16717:16730  IERC721 token */\n      0x00\n        /* \"COAT/tokens/airdrop.sol\":16732:16745  IERC20 _token */\n      dup1\n        /* \"COAT/tokens/airdrop.sol\":16815:16816  0 */\n      0x00\n        /* \"COAT/tokens/airdrop.sol\":16800:16811  airdropType */\n      sload(0x07)\n        /* \"COAT/tokens/airdrop.sol\":16800:16816  airdropType == 0 */\n      sub\n        /* \"COAT/tokens/airdrop.sol\":16797:16944  if(airdropType == 0) {... */\n      tag_157\n      jumpi\n        /* \"COAT/tokens/airdrop.sol\":16849:16861  tokenAddress */\n      0x05\n      0x00\n      swap1\n      sload\n      swap1\n      0x0100\n      exp\n      swap1\n      div\n      0xffffffffffffffffffffffffffffffffffffffff\n      and\n        /* \"COAT/tokens/airdrop.sol\":16833:16862  _token = IERC20(tokenAddress) */\n      swap1\n      pop\n        /* \"COAT/tokens/airdrop.sol\":16797:16944  if(airdropType == 0) {... */\n      jump(tag_158)\n    tag_157:\n        /* \"COAT/tokens/airdrop.sol\":16919:16931  tokenAddress */\n      0x05\n      0x00\n      swap1\n      sload\n      swap1\n      0x0100\n      exp\n      swap1\n      div\n      0xffffffffffffffffffffffffffffffffffffffff\n      and\n        /* \"COAT/tokens/airdrop.sol\":16903:16932  token = IERC721(tokenAddress) */\n      swap2\n      pop\n        /* \"COAT/tokens/airdrop.sol\":16797:16944  if(airdropType == 0) {... */\n    tag_158:\n        /* \"COAT/tokens/airdrop.sol\":16959:16993  airdroped(_whiteList, unitOfToken) */\n      0xe92cfca7bdc1f76f97b0cecc8d1ddabb94d01c99d9429c0963302a2f2a92714d\n        /* \"COAT/tokens/airdrop.sol\":16969:16979  _whiteList */\n      0x03\n        /* \"COAT/tokens/airdrop.sol\":16981:16992  unitOfToken */\n      dup7\n      dup7\n        /* \"COAT/tokens/airdrop.sol\":16959:16993  airdroped(_whiteList, unitOfToken) */\n      mload(0x40)\n      tag_159\n      swap4\n      swap3\n      swap2\n      swap1\n      tag_160\n      jump\t// in\n    tag_159:\n      mload(0x40)\n      dup1\n      swap2\n      sub\n      swap1\n      log1\n        /* \"COAT/tokens/airdrop.sol\":17009:17015  uint i */\n      0x00\n        /* \"COAT/tokens/airdrop.sol\":17004:18068  for (uint i = 0; i < _whiteList.length; i++) {... */\n    tag_161:\n        /* \"COAT/tokens/airdrop.sol\":17025:17035  _whiteList */\n      0x03\n        /* \"COAT/tokens/airdrop.sol\":17025:17042  _whiteList.length */\n      dup1\n      sload\n      swap1\n      pop\n        /* \"COAT/tokens/airdrop.sol\":17021:17022  i */\n      dup2\n        /* \"COAT/tokens/airdrop.sol\":17021:17042  i < _whiteList.length */\n      lt\n        /* \"COAT/tokens/airdrop.sol\":17004:18068  for (uint i = 0; i < _whiteList.length; i++) {... */\n      iszero\n      tag_162\n      jumpi\n        /* \"COAT/tokens/airdrop.sol\":17064:17081  address recipient */\n      0x00\n        /* \"COAT/tokens/airdrop.sol\":17084:17094  _whiteList */\n      0x03\n        /* \"COAT/tokens/airdrop.sol\":17095:17096  i */\n      dup3\n        /* \"COAT/tokens/airdrop.sol\":17084:17097  _whiteList[i] */\n      dup2\n      sload\n      dup2\n      lt\n      tag_164\n      jumpi\n      tag_165\n      tag_76\n      jump\t// in\n    tag_165:\n    tag_164:\n      swap1\n      0x00\n      mstore\n      keccak256(0x00, 0x20)\n      add\n      0x00\n      swap1\n      sload\n      swap1\n      0x0100\n      exp\n      swap1\n      div\n      0xffffffffffffffffffffffffffffffffffffffff\n      and\n        /* \"COAT/tokens/airdrop.sol\":17064:17097  address recipient = _whiteList[i] */\n      swap1\n      pop\n        /* \"COAT/tokens/airdrop.sol\":17157:17181  transfferedTOKEN_Success */\n      0x02\n        /* \"COAT/tokens/airdrop.sol\":17157:17197  transfferedTOKEN_Success[unitOfToken[i]] */\n      0x00\n        /* \"COAT/tokens/airdrop.sol\":17182:17193  unitOfToken */\n      dup9\n      dup9\n        /* \"COAT/tokens/airdrop.sol\":17194:17195  i */\n      dup6\n        /* \"COAT/tokens/airdrop.sol\":17182:17196  unitOfToken[i] */\n      dup2\n      dup2\n      lt\n      tag_167\n      jumpi\n      tag_168\n      tag_76\n      jump\t// in\n    tag_168:\n    tag_167:\n      swap1\n      pop\n      0x20\n      mul\n      add\n      calldataload\n        /* \"COAT/tokens/airdrop.sol\":17157:17197  transfferedTOKEN_Success[unitOfToken[i]] */\n      dup2\n      mstore\n      0x20\n      add\n      swap1\n      dup2\n      mstore\n      0x20\n      add\n      0x00\n      keccak256\n      0x00\n      swap1\n      sload\n      swap1\n      0x0100\n      exp\n      swap1\n      div\n      0xff\n      and\n        /* \"COAT/tokens/airdrop.sol\":17156:17197  !transfferedTOKEN_Success[unitOfToken[i]] */\n      iszero\n        /* \"COAT/tokens/airdrop.sol\":17148:17220  require(!transfferedTOKEN_Success[unitOfToken[i]],\"Allready Transfered\") */\n      tag_169\n      jumpi\n      mload(0x40)\n      0x08c379a000000000000000000000000000000000000000000000000000000000\n      dup2\n      mstore\n      0x04\n      add\n      tag_170\n      swap1\n      tag_171\n      jump\t// in\n    tag_170:\n      mload(0x40)\n      dup1\n      swap2\n      sub\n      swap1\n      revert\n    tag_169:\n        /* \"COAT/tokens/airdrop.sol\":17304:17305  0 */\n      0x00\n        /* \"COAT/tokens/airdrop.sol\":17289:17300  airdropType */\n      sload(0x07)\n        /* \"COAT/tokens/airdrop.sol\":17289:17305  airdropType == 0 */\n      sub\n        /* \"COAT/tokens/airdrop.sol\":17286:17490  if(airdropType == 0) {require(token.balanceOf(fromAddress) > unitOfToken[i],\"Not enough balance\");}... */\n      tag_172\n      jumpi\n        /* \"COAT/tokens/airdrop.sol\":17347:17358  unitOfToken */\n      dup7\n      dup7\n        /* \"COAT/tokens/airdrop.sol\":17359:17360  i */\n      dup4\n        /* \"COAT/tokens/airdrop.sol\":17347:17361  unitOfToken[i] */\n      dup2\n      dup2\n      lt\n      tag_173\n      jumpi\n      tag_174\n      tag_76\n      jump\t// in\n    tag_174:\n    tag_173:\n      swap1\n      pop\n      0x20\n      mul\n      add\n      calldataload\n        /* \"COAT/tokens/airdrop.sol\":17316:17321  token */\n      dup5\n        /* \"COAT/tokens/airdrop.sol\":17316:17331  token.balanceOf */\n      0xffffffffffffffffffffffffffffffffffffffff\n      and\n      0x70a08231\n        /* \"COAT/tokens/airdrop.sol\":17332:17343  fromAddress */\n      0x06\n      0x00\n      swap1\n      sload\n      swap1\n      0x0100\n      exp\n      swap1\n      div\n      0xffffffffffffffffffffffffffffffffffffffff\n      and\n        /* \"COAT/tokens/airdrop.sol\":17316:17344  token.balanceOf(fromAddress) */\n      mload(0x40)\n      dup3\n      0xffffffff\n      and\n      0xe0\n      shl\n      dup2\n      mstore\n      0x04\n      add\n      tag_175\n      swap2\n      swap1\n      tag_43\n      jump\t// in\n    tag_175:\n      0x20\n      mload(0x40)\n      dup1\n      dup4\n      sub\n      dup2\n      dup7\n      gas\n      staticcall\n      iszero\n      dup1\n      iszero\n      tag_177\n      jumpi\n      returndatasize\n      0x00\n      dup1\n      returndatacopy\n      revert(0x00, returndatasize)\n    tag_177:\n      pop\n      pop\n      pop\n      pop\n      mload(0x40)\n      returndatasize\n      not(0x1f)\n      0x1f\n      dup3\n      add\n      and\n      dup3\n      add\n      dup1\n      0x40\n      mstore\n      pop\n      dup2\n      add\n      swap1\n      tag_178\n      swap2\n      swap1\n      tag_179\n      jump\t// in\n    tag_178:\n        /* \"COAT/tokens/airdrop.sol\":17316:17361  token.balanceOf(fromAddress) > unitOfToken[i] */\n      gt\n        /* \"COAT/tokens/airdrop.sol\":17308:17383  require(token.balanceOf(fromAddress) > unitOfToken[i],\"Not enough balance\") */\n      tag_180\n      jumpi\n      mload(0x40)\n      0x08c379a000000000000000000000000000000000000000000000000000000000\n      dup2\n      mstore\n      0x04\n      add\n      tag_181\n      swap1\n      tag_182\n      jump\t// in\n    tag_181:\n      mload(0x40)\n      dup1\n      swap2\n      sub\n      swap1\n      revert\n    tag_180:\n        /* \"COAT/tokens/airdrop.sol\":17286:17490  if(airdropType == 0) {require(token.balanceOf(fromAddress) > unitOfToken[i],\"Not enough balance\");}... */\n      jump(tag_183)\n    tag_172:\n        /* \"COAT/tokens/airdrop.sol\":17445:17456  fromAddress */\n      0x06\n      0x00\n      swap1\n      sload\n      swap1\n      0x0100\n      exp\n      swap1\n      div\n      0xffffffffffffffffffffffffffffffffffffffff\n      and\n        /* \"COAT/tokens/airdrop.sol\":17412:17456  token.ownerOf(unitOfToken[i]) == fromAddress */\n      0xffffffffffffffffffffffffffffffffffffffff\n      and\n        /* \"COAT/tokens/airdrop.sol\":17412:17417  token */\n      dup5\n        /* \"COAT/tokens/airdrop.sol\":17412:17425  token.ownerOf */\n      0xffffffffffffffffffffffffffffffffffffffff\n      and\n      0x6352211e\n        /* \"COAT/tokens/airdrop.sol\":17426:17437  unitOfToken */\n      dup10\n      dup10\n        /* \"COAT/tokens/airdrop.sol\":17438:17439  i */\n      dup7\n        /* \"COAT/tokens/airdrop.sol\":17426:17440  unitOfToken[i] */\n      dup2\n      dup2\n      lt\n      tag_184\n      jumpi\n      tag_185\n      tag_76\n      jump\t// in\n    tag_185:\n    tag_184:\n      swap1\n      pop\n      0x20\n      mul\n      add\n      calldataload\n        /* \"COAT/tokens/airdrop.sol\":17412:17441  token.ownerOf(unitOfToken[i]) */\n      mload(0x40)\n      dup3\n      0xffffffff\n      and\n      0xe0\n      shl\n      dup2\n      mstore\n      0x04\n      add\n      tag_186\n      swap2\n      swap1\n      tag_187\n      jump\t// in\n    tag_186:\n      0x20\n      mload(0x40)\n      dup1\n      dup4\n      sub\n      dup2\n      dup7\n      gas\n      staticcall\n      iszero\n      dup1\n      iszero\n      tag_189\n      jumpi\n      returndatasize\n      0x00\n      dup1\n      returndatacopy\n      revert(0x00, returndatasize)\n    tag_189:\n      pop\n      pop\n      pop\n      pop\n      mload(0x40)\n      returndatasize\n      not(0x1f)\n      0x1f\n      dup3\n      add\n      and\n      dup3\n      add\n      dup1\n      0x40\n      mstore\n      pop\n      dup2\n      add\n      swap1\n      tag_190\n      swap2\n      swap1\n      tag_191\n      jump\t// in\n    tag_190:\n        /* \"COAT/tokens/airdrop.sol\":17412:17456  token.ownerOf(unitOfToken[i]) == fromAddress */\n      0xffffffffffffffffffffffffffffffffffffffff\n      and\n      eq\n        /* \"COAT/tokens/airdrop.sol\":17404:17488  require(token.ownerOf(unitOfToken[i]) == fromAddress, \"Not the owner of this NFT[]\") */\n      tag_192\n      jumpi\n      mload(0x40)\n      0x08c379a000000000000000000000000000000000000000000000000000000000\n      dup2\n      mstore\n      0x04\n      add\n      tag_193\n      swap1\n      tag_194\n      jump\t// in\n    tag_193:\n      mload(0x40)\n      dup1\n      swap2\n      sub\n      swap1\n      revert\n    tag_192:\n        /* \"COAT/tokens/airdrop.sol\":17286:17490  if(airdropType == 0) {require(token.balanceOf(fromAddress) > unitOfToken[i],\"Not enough balance\");}... */\n    tag_183:\n        /* \"COAT/tokens/airdrop.sol\":17509:17520  _hasClaimed */\n      0x01\n        /* \"COAT/tokens/airdrop.sol\":17509:17534  _hasClaimed[airdropCount] */\n      0x00\n        /* \"COAT/tokens/airdrop.sol\":17521:17533  airdropCount */\n      sload(0x04)\n        /* \"COAT/tokens/airdrop.sol\":17509:17534  _hasClaimed[airdropCount] */\n      dup2\n      mstore\n      0x20\n      add\n      swap1\n      dup2\n      mstore\n      0x20\n      add\n      0x00\n      keccak256\n        /* \"COAT/tokens/airdrop.sol\":17509:17545  _hasClaimed[airdropCount][recipient] */\n      0x00\n        /* \"COAT/tokens/airdrop.sol\":17535:17544  recipient */\n      dup3\n        /* \"COAT/tokens/airdrop.sol\":17509:17545  _hasClaimed[airdropCount][recipient] */\n      0xffffffffffffffffffffffffffffffffffffffff\n      and\n      0xffffffffffffffffffffffffffffffffffffffff\n      and\n      dup2\n      mstore\n      0x20\n      add\n      swap1\n      dup2\n      mstore\n      0x20\n      add\n      0x00\n      keccak256\n      0x00\n      swap1\n      sload\n      swap1\n      0x0100\n      exp\n      swap1\n      div\n      0xff\n      and\n        /* \"COAT/tokens/airdrop.sol\":17504:18057  if (!_hasClaimed[airdropCount][recipient]) {... */\n      tag_195\n      jumpi\n        /* \"COAT/tokens/airdrop.sol\":17605:17609  true */\n      0x01\n        /* \"COAT/tokens/airdrop.sol\":17566:17577  _hasClaimed */\n      dup1\n        /* \"COAT/tokens/airdrop.sol\":17566:17591  _hasClaimed[airdropCount] */\n      0x00\n        /* \"COAT/tokens/airdrop.sol\":17578:17590  airdropCount */\n      sload(0x04)\n        /* \"COAT/tokens/airdrop.sol\":17566:17591  _hasClaimed[airdropCount] */\n      dup2\n      mstore\n      0x20\n      add\n      swap1\n      dup2\n      mstore\n      0x20\n      add\n      0x00\n      keccak256\n        /* \"COAT/tokens/airdrop.sol\":17566:17602  _hasClaimed[airdropCount][recipient] */\n      0x00\n        /* \"COAT/tokens/airdrop.sol\":17592:17601  recipient */\n      dup4\n        /* \"COAT/tokens/airdrop.sol\":17566:17602  _hasClaimed[airdropCount][recipient] */\n      0xffffffffffffffffffffffffffffffffffffffff\n      and\n      0xffffffffffffffffffffffffffffffffffffffff\n      and\n      dup2\n      mstore\n      0x20\n      add\n      swap1\n      dup2\n      mstore\n      0x20\n      add\n      0x00\n      keccak256\n      0x00\n        /* \"COAT/tokens/airdrop.sol\":17566:17609  _hasClaimed[airdropCount][recipient] = true */\n      0x0100\n      exp\n      dup2\n      sload\n      dup2\n      0xff\n      mul\n      not\n      and\n      swap1\n      dup4\n      iszero\n      iszero\n      mul\n      or\n      swap1\n      sstore\n      pop\n        /* \"COAT/tokens/airdrop.sol\":17691:17695  true */\n      0x01\n        /* \"COAT/tokens/airdrop.sol\":17648:17672  transfferedTOKEN_Success */\n      0x02\n        /* \"COAT/tokens/airdrop.sol\":17648:17688  transfferedTOKEN_Success[unitOfToken[i]] */\n      0x00\n        /* \"COAT/tokens/airdrop.sol\":17673:17684  unitOfToken */\n      dup10\n      dup10\n        /* \"COAT/tokens/airdrop.sol\":17685:17686  i */\n      dup7\n        /* \"COAT/tokens/airdrop.sol\":17673:17687  unitOfToken[i] */\n      dup2\n      dup2\n      lt\n      tag_196\n      jumpi\n      tag_197\n      tag_76\n      jump\t// in\n    tag_197:\n    tag_196:\n      swap1\n      pop\n      0x20\n      mul\n      add\n      calldataload\n        /* \"COAT/tokens/airdrop.sol\":17648:17688  transfferedTOKEN_Success[unitOfToken[i]] */\n      dup2\n      mstore\n      0x20\n      add\n      swap1\n      dup2\n      mstore\n      0x20\n      add\n      0x00\n      keccak256\n      0x00\n        /* \"COAT/tokens/airdrop.sol\":17648:17695  transfferedTOKEN_Success[unitOfToken[i]] = true */\n      0x0100\n      exp\n      dup2\n      sload\n      dup2\n      0xff\n      mul\n      not\n      and\n      swap1\n      dup4\n      iszero\n      iszero\n      mul\n      or\n      swap1\n      sstore\n      pop\n        /* \"COAT/tokens/airdrop.sol\":17748:17821  TOKENtransfered(unitOfToken[i], transfferedTOKEN_Success[unitOfToken[i]]) */\n      0x21d7275921040b7a98cb165bed5d78db95b33cbb86caeab5ab5a8ae3c801a029\n        /* \"COAT/tokens/airdrop.sol\":17764:17775  unitOfToken */\n      dup8\n      dup8\n        /* \"COAT/tokens/airdrop.sol\":17776:17777  i */\n      dup5\n        /* \"COAT/tokens/airdrop.sol\":17764:17778  unitOfToken[i] */\n      dup2\n      dup2\n      lt\n      tag_198\n      jumpi\n      tag_199\n      tag_76\n      jump\t// in\n    tag_199:\n    tag_198:\n      swap1\n      pop\n      0x20\n      mul\n      add\n      calldataload\n        /* \"COAT/tokens/airdrop.sol\":17780:17804  transfferedTOKEN_Success */\n      0x02\n        /* \"COAT/tokens/airdrop.sol\":17780:17820  transfferedTOKEN_Success[unitOfToken[i]] */\n      0x00\n        /* \"COAT/tokens/airdrop.sol\":17805:17816  unitOfToken */\n      dup11\n      dup11\n        /* \"COAT/tokens/airdrop.sol\":17817:17818  i */\n      dup8\n        /* \"COAT/tokens/airdrop.sol\":17805:17819  unitOfToken[i] */\n      dup2\n      dup2\n      lt\n      tag_200\n      jumpi\n      tag_201\n      tag_76\n      jump\t// in\n    tag_201:\n    tag_200:\n      swap1\n      pop\n      0x20\n      mul\n      add\n      calldataload\n        /* \"COAT/tokens/airdrop.sol\":17780:17820  transfferedTOKEN_Success[unitOfToken[i]] */\n      dup2\n      mstore\n      0x20\n      add\n      swap1\n      dup2\n      mstore\n      0x20\n      add\n      0x00\n      keccak256\n      0x00\n      swap1\n      sload\n      swap1\n      0x0100\n      exp\n      swap1\n      div\n      0xff\n      and\n        /* \"COAT/tokens/airdrop.sol\":17748:17821  TOKENtransfered(unitOfToken[i], transfferedTOKEN_Success[unitOfToken[i]]) */\n      mload(0x40)\n      tag_202\n      swap3\n      swap2\n      swap1\n      tag_203\n      jump\t// in\n    tag_202:\n      mload(0x40)\n      dup1\n      swap2\n      sub\n      swap1\n      log1\n        /* \"COAT/tokens/airdrop.sol\":17894:17895  0 */\n      0x00\n        /* \"COAT/tokens/airdrop.sol\":17881:17892  airdropType */\n      sload(0x07)\n        /* \"COAT/tokens/airdrop.sol\":17881:17895  airdropType==0 */\n      sub\n        /* \"COAT/tokens/airdrop.sol\":17878:18041  if(airdropType==0){_token.transferFrom(fromAddress, recipient, unitOfToken[i]);}... */\n      tag_204\n      jumpi\n        /* \"COAT/tokens/airdrop.sol\":17897:17903  _token */\n      dup3\n        /* \"COAT/tokens/airdrop.sol\":17897:17916  _token.transferFrom */\n      0xffffffffffffffffffffffffffffffffffffffff\n      and\n      0x23b872dd\n        /* \"COAT/tokens/airdrop.sol\":17917:17928  fromAddress */\n      0x06\n      0x00\n      swap1\n      sload\n      swap1\n      0x0100\n      exp\n      swap1\n      div\n      0xffffffffffffffffffffffffffffffffffffffff\n      and\n        /* \"COAT/tokens/airdrop.sol\":17930:17939  recipient */\n      dup4\n        /* \"COAT/tokens/airdrop.sol\":17941:17952  unitOfToken */\n      dup11\n      dup11\n        /* \"COAT/tokens/airdrop.sol\":17953:17954  i */\n      dup8\n        /* \"COAT/tokens/airdrop.sol\":17941:17955  unitOfToken[i] */\n      dup2\n      dup2\n      lt\n      tag_205\n      jumpi\n      tag_206\n      tag_76\n      jump\t// in\n    tag_206:\n    tag_205:\n      swap1\n      pop\n      0x20\n      mul\n      add\n      calldataload\n        /* \"COAT/tokens/airdrop.sol\":17897:17956  _token.transferFrom(fromAddress, recipient, unitOfToken[i]) */\n      mload(0x40)\n      dup5\n      0xffffffff\n      and\n      0xe0\n      shl\n      dup2\n      mstore\n      0x04\n      add\n      tag_207\n      swap4\n      swap3\n      swap2\n      swap1\n      tag_208\n      jump\t// in\n    tag_207:\n      0x20\n      mload(0x40)\n      dup1\n      dup4\n      sub\n      dup2\n      0x00\n      dup8\n      gas\n      call\n      iszero\n      dup1\n      iszero\n      tag_210\n      jumpi\n      returndatasize\n      0x00\n      dup1\n      returndatacopy\n      revert(0x00, returndatasize)\n    tag_210:\n      pop\n      pop\n      pop\n      pop\n      mload(0x40)\n      returndatasize\n      not(0x1f)\n      0x1f\n      dup3\n      add\n      and\n      dup3\n      add\n      dup1\n      0x40\n      mstore\n      pop\n      dup2\n      add\n      swap1\n      tag_211\n      swap2\n      swap1\n      tag_212\n      jump\t// in\n    tag_211:\n      pop\n        /* \"COAT/tokens/airdrop.sol\":17878:18041  if(airdropType==0){_token.transferFrom(fromAddress, recipient, unitOfToken[i]);}... */\n      jump(tag_213)\n    tag_204:\n        /* \"COAT/tokens/airdrop.sol\":17981:17986  token */\n      dup4\n        /* \"COAT/tokens/airdrop.sol\":17981:17999  token.transferFrom */\n      0xffffffffffffffffffffffffffffffffffffffff\n      and\n      0x23b872dd\n        /* \"COAT/tokens/airdrop.sol\":18000:18011  fromAddress */\n      0x06\n      0x00\n      swap1\n      sload\n      swap1\n      0x0100\n      exp\n      swap1\n      div\n      0xffffffffffffffffffffffffffffffffffffffff\n      and\n        /* \"COAT/tokens/airdrop.sol\":18013:18022  recipient */\n      dup4\n        /* \"COAT/tokens/airdrop.sol\":18024:18035  unitOfToken */\n      dup11\n      dup11\n        /* \"COAT/tokens/airdrop.sol\":18036:18037  i */\n      dup8\n        /* \"COAT/tokens/airdrop.sol\":18024:18038  unitOfToken[i] */\n      dup2\n      dup2\n      lt\n      tag_214\n      jumpi\n      tag_215\n      tag_76\n      jump\t// in\n    tag_215:\n    tag_214:\n      swap1\n      pop\n      0x20\n      mul\n      add\n      calldataload\n        /* \"COAT/tokens/airdrop.sol\":17981:18039  token.transferFrom(fromAddress, recipient, unitOfToken[i]) */\n      mload(0x40)\n      dup5\n      0xffffffff\n      and\n      0xe0\n      shl\n      dup2\n      mstore\n      0x04\n      add\n      tag_216\n      swap4\n      swap3\n      swap2\n      swap1\n      tag_208\n      jump\t// in\n    tag_216:\n      0x00\n      mload(0x40)\n      dup1\n      dup4\n      sub\n      dup2\n      0x00\n      dup8\n      dup1\n      extcodesize\n      iszero\n      dup1\n      iszero\n      tag_217\n      jumpi\n      0x00\n      dup1\n      revert\n    tag_217:\n      pop\n      gas\n      call\n      iszero\n      dup1\n      iszero\n      tag_219\n      jumpi\n      returndatasize\n      0x00\n      dup1\n      returndatacopy\n      revert(0x00, returndatasize)\n    tag_219:\n      pop\n      pop\n      pop\n      pop\n        /* \"COAT/tokens/airdrop.sol\":17878:18041  if(airdropType==0){_token.transferFrom(fromAddress, recipient, unitOfToken[i]);}... */\n    tag_213:\n        /* \"COAT/tokens/airdrop.sol\":17504:18057  if (!_hasClaimed[airdropCount][recipient]) {... */\n    tag_195:\n        /* \"COAT/tokens/airdrop.sol\":17049:18068  {... */\n      pop\n        /* \"COAT/tokens/airdrop.sol\":17044:17047  i++ */\n      dup1\n      dup1\n      0x01\n      add\n      swap2\n      pop\n      pop\n        /* \"COAT/tokens/airdrop.sol\":17004:18068  for (uint i = 0; i < _whiteList.length; i++) {... */\n      jump(tag_161)\n    tag_162:\n      pop\n        /* \"COAT/tokens/airdrop.sol\":18085:18089  true */\n      0x01\n        /* \"COAT/tokens/airdrop.sol\":18078:18089  return true */\n      swap3\n      pop\n      pop\n      pop\n        /* \"COAT/tokens/airdrop.sol\":16167:18097  function startAirdrop(uint256[] calldata unitOfToken) public onlyOwner returns(bool){... */\n      swap3\n      swap2\n      pop\n      pop\n      jump\t// out\n        /* \"COAT/tokens/airdrop.sol\":18334:18556  function getEligibility(address _address, uint256 tokenId) public view returns(bool) {... */\n    tag_57:\n        /* \"COAT/tokens/airdrop.sol\":18413:18417  bool */\n      0x00\n        /* \"COAT/tokens/airdrop.sol\":18448:18459  _hasClaimed */\n      0x01\n        /* \"COAT/tokens/airdrop.sol\":18448:18473  _hasClaimed[airdropCount] */\n      0x00\n        /* \"COAT/tokens/airdrop.sol\":18460:18472  airdropCount */\n      sload(0x04)\n        /* \"COAT/tokens/airdrop.sol\":18448:18473  _hasClaimed[airdropCount] */\n      dup2\n      mstore\n      0x20\n      add\n      swap1\n      dup2\n      mstore\n      0x20\n      add\n      0x00\n      keccak256\n        /* \"COAT/tokens/airdrop.sol\":18448:18483  _hasClaimed[airdropCount][_address] */\n      0x00\n        /* \"COAT/tokens/airdrop.sol\":18474:18482  _address */\n      dup5\n        /* \"COAT/tokens/airdrop.sol\":18448:18483  _hasClaimed[airdropCount][_address] */\n      0xffffffffffffffffffffffffffffffffffffffff\n      and\n      0xffffffffffffffffffffffffffffffffffffffff\n      and\n      dup2\n      mstore\n      0x20\n      add\n      swap1\n      dup2\n      mstore\n      0x20\n      add\n      0x00\n      keccak256\n      0x00\n      swap1\n      sload\n      swap1\n      0x0100\n      exp\n      swap1\n      div\n      0xff\n      and\n        /* \"COAT/tokens/airdrop.sol\":18447:18483  !_hasClaimed[airdropCount][_address] */\n      iszero\n        /* \"COAT/tokens/airdrop.sol\":18447:18510  !_hasClaimed[airdropCount][_address] && checkAddress(_address ) */\n      dup1\n      iszero\n      tag_221\n      jumpi\n      pop\n        /* \"COAT/tokens/airdrop.sol\":18487:18510  checkAddress(_address ) */\n      tag_222\n        /* \"COAT/tokens/airdrop.sol\":18500:18508  _address */\n      dup4\n        /* \"COAT/tokens/airdrop.sol\":18487:18499  checkAddress */\n      tag_67\n        /* \"COAT/tokens/airdrop.sol\":18487:18510  checkAddress(_address ) */\n      jump\t// in\n    tag_222:\n        /* \"COAT/tokens/airdrop.sol\":18447:18510  !_hasClaimed[airdropCount][_address] && checkAddress(_address ) */\n    tag_221:\n        /* \"COAT/tokens/airdrop.sol\":18447:18548  !_hasClaimed[airdropCount][_address] && checkAddress(_address ) && !transfferedTOKEN_Success[tokenId] */\n      dup1\n      iszero\n      tag_223\n      jumpi\n      pop\n        /* \"COAT/tokens/airdrop.sol\":18515:18539  transfferedTOKEN_Success */\n      0x02\n        /* \"COAT/tokens/airdrop.sol\":18515:18548  transfferedTOKEN_Success[tokenId] */\n      0x00\n        /* \"COAT/tokens/airdrop.sol\":18540:18547  tokenId */\n      dup4\n        /* \"COAT/tokens/airdrop.sol\":18515:18548  transfferedTOKEN_Success[tokenId] */\n      dup2\n      mstore\n      0x20\n      add\n      swap1\n      dup2\n      mstore\n      0x20\n      add\n      0x00\n      keccak256\n      0x00\n      swap1\n      sload\n      swap1\n      0x0100\n      exp\n      swap1\n      div\n      0xff\n      and\n        /* \"COAT/tokens/airdrop.sol\":18514:18548  !transfferedTOKEN_Success[tokenId] */\n      iszero\n        /* \"COAT/tokens/airdrop.sol\":18447:18548  !_hasClaimed[airdropCount][_address] && checkAddress(_address ) && !transfferedTOKEN_Success[tokenId] */\n    tag_223:\n        /* \"COAT/tokens/airdrop.sol\":18440:18548  return !_hasClaimed[airdropCount][_address] && checkAddress(_address ) && !transfferedTOKEN_Success[tokenId] */\n      swap1\n      pop\n        /* \"COAT/tokens/airdrop.sol\":18334:18556  function getEligibility(address _address, uint256 tokenId) public view returns(bool) {... */\n      swap3\n      swap2\n      pop\n      pop\n      jump\t// out\n        /* \"@openzeppelin/contracts/access/Ownable.sol\":2543:2758  function transferOwnership(address newOwner) public virtual onlyOwner {... */\n    tag_61:\n        /* \"@openzeppelin/contracts/access/Ownable.sol\":1531:1544  _checkOwner() */\n      tag_225\n        /* \"@openzeppelin/contracts/access/Ownable.sol\":1531:1542  _checkOwner */\n      tag_64\n        /* \"@openzeppelin/contracts/access/Ownable.sol\":1531:1544  _checkOwner() */\n      jump\t// in\n    tag_225:\n        /* \"@openzeppelin/contracts/access/Ownable.sol\":2647:2648  0 */\n      0x00\n        /* \"@openzeppelin/contracts/access/Ownable.sol\":2627:2649  newOwner == address(0) */\n      0xffffffffffffffffffffffffffffffffffffffff\n      and\n        /* \"@openzeppelin/contracts/access/Ownable.sol\":2627:2635  newOwner */\n      dup2\n        /* \"@openzeppelin/contracts/access/Ownable.sol\":2627:2649  newOwner == address(0) */\n      0xffffffffffffffffffffffffffffffffffffffff\n      and\n      sub\n        /* \"@openzeppelin/contracts/access/Ownable.sol\":2623:2714  if (newOwner == address(0)) {... */\n      tag_227\n      jumpi\n        /* \"@openzeppelin/contracts/access/Ownable.sol\":2700:2701  0 */\n      0x00\n        /* \"@openzeppelin/contracts/access/Ownable.sol\":2672:2703  OwnableInvalidOwner(address(0)) */\n      mload(0x40)\n      0x1e4fbdf700000000000000000000000000000000000000000000000000000000\n      dup2\n      mstore\n      0x04\n      add\n      tag_228\n      swap2\n      swap1\n      tag_43\n      jump\t// in\n    tag_228:\n      mload(0x40)\n      dup1\n      swap2\n      sub\n      swap1\n      revert\n        /* \"@openzeppelin/contracts/access/Ownable.sol\":2623:2714  if (newOwner == address(0)) {... */\n    tag_227:\n        /* \"@openzeppelin/contracts/access/Ownable.sol\":2723:2751  _transferOwnership(newOwner) */\n      tag_229\n        /* \"@openzeppelin/contracts/access/Ownable.sol\":2742:2750  newOwner */\n      dup2\n        /* \"@openzeppelin/contracts/access/Ownable.sol\":2723:2741  _transferOwnership */\n      tag_109\n        /* \"@openzeppelin/contracts/access/Ownable.sol\":2723:2751  _transferOwnership(newOwner) */\n      jump\t// in\n    tag_229:\n        /* \"@openzeppelin/contracts/access/Ownable.sol\":2543:2758  function transferOwnership(address newOwner) public virtual onlyOwner {... */\n      pop\n      jump\t// out\n        /* \"@openzeppelin/contracts/access/Ownable.sol\":1796:1958  function _checkOwner() internal view virtual {... */\n    tag_64:\n        /* \"@openzeppelin/contracts/access/Ownable.sol\":1866:1878  _msgSender() */\n      tag_231\n        /* \"@openzeppelin/contracts/access/Ownable.sol\":1866:1876  _msgSender */\n      tag_232\n        /* \"@openzeppelin/contracts/access/Ownable.sol\":1866:1878  _msgSender() */\n      jump\t// in\n    tag_231:\n        /* \"@openzeppelin/contracts/access/Ownable.sol\":1855:1878  owner() != _msgSender() */\n      0xffffffffffffffffffffffffffffffffffffffff\n      and\n        /* \"@openzeppelin/contracts/access/Ownable.sol\":1855:1862  owner() */\n      tag_233\n        /* \"@openzeppelin/contracts/access/Ownable.sol\":1855:1860  owner */\n      tag_41\n        /* \"@openzeppelin/contracts/access/Ownable.sol\":1855:1862  owner() */\n      jump\t// in\n    tag_233:\n        /* \"@openzeppelin/contracts/access/Ownable.sol\":1855:1878  owner() != _msgSender() */\n      0xffffffffffffffffffffffffffffffffffffffff\n      and\n      eq\n        /* \"@openzeppelin/contracts/access/Ownable.sol\":1851:1952  if (owner() != _msgSender()) {... */\n      tag_234\n      jumpi\n        /* \"@openzeppelin/contracts/access/Ownable.sol\":1928:1940  _msgSender() */\n      tag_235\n        /* \"@openzeppelin/contracts/access/Ownable.sol\":1928:1938  _msgSender */\n      tag_232\n        /* \"@openzeppelin/contracts/access/Ownable.sol\":1928:1940  _msgSender() */\n      jump\t// in\n    tag_235:\n        /* \"@openzeppelin/contracts/access/Ownable.sol\":1901:1941  OwnableUnauthorizedAccount(_msgSender()) */\n      mload(0x40)\n      0x118cdaa700000000000000000000000000000000000000000000000000000000\n      dup2\n      mstore\n      0x04\n      add\n      tag_236\n      swap2\n      swap1\n      tag_43\n      jump\t// in\n    tag_236:\n      mload(0x40)\n      dup1\n      swap2\n      sub\n      swap1\n      revert\n        /* \"@openzeppelin/contracts/access/Ownable.sol\":1851:1952  if (owner() != _msgSender()) {... */\n    tag_234:\n        /* \"@openzeppelin/contracts/access/Ownable.sol\":1796:1958  function _checkOwner() internal view virtual {... */\n      jump\t// out\n        /* \"COAT/tokens/airdrop.sol\":21179:21464  function checkAddress(address target) internal view returns (bool) {... */\n    tag_67:\n        /* \"COAT/tokens/airdrop.sol\":21240:21244  bool */\n      0x00\n        /* \"COAT/tokens/airdrop.sol\":21257:21268  uint256 len */\n      dup1\n        /* \"COAT/tokens/airdrop.sol\":21271:21281  _whiteList */\n      0x03\n        /* \"COAT/tokens/airdrop.sol\":21271:21288  _whiteList.length */\n      dup1\n      sload\n      swap1\n      pop\n        /* \"COAT/tokens/airdrop.sol\":21257:21288  uint256 len = _whiteList.length */\n      swap1\n      pop\n        /* \"COAT/tokens/airdrop.sol\":21304:21313  uint256 i */\n      0x00\n        /* \"COAT/tokens/airdrop.sol\":21299:21434  for (uint256 i = 0; i < len; i++) {... */\n    tag_238:\n        /* \"COAT/tokens/airdrop.sol\":21323:21326  len */\n      dup2\n        /* \"COAT/tokens/airdrop.sol\":21319:21320  i */\n      dup2\n        /* \"COAT/tokens/airdrop.sol\":21319:21326  i < len */\n      lt\n        /* \"COAT/tokens/airdrop.sol\":21299:21434  for (uint256 i = 0; i < len; i++) {... */\n      iszero\n      tag_239\n      jumpi\n        /* \"COAT/tokens/airdrop.sol\":21369:21375  target */\n      dup4\n        /* \"COAT/tokens/airdrop.sol\":21352:21375  _whiteList[i] == target */\n      0xffffffffffffffffffffffffffffffffffffffff\n      and\n        /* \"COAT/tokens/airdrop.sol\":21352:21362  _whiteList */\n      0x03\n        /* \"COAT/tokens/airdrop.sol\":21363:21364  i */\n      dup3\n        /* \"COAT/tokens/airdrop.sol\":21352:21365  _whiteList[i] */\n      dup2\n      sload\n      dup2\n      lt\n      tag_241\n      jumpi\n      tag_242\n      tag_76\n      jump\t// in\n    tag_242:\n    tag_241:\n      swap1\n      0x00\n      mstore\n      keccak256(0x00, 0x20)\n      add\n      0x00\n      swap1\n      sload\n      swap1\n      0x0100\n      exp\n      swap1\n      div\n      0xffffffffffffffffffffffffffffffffffffffff\n      and\n        /* \"COAT/tokens/airdrop.sol\":21352:21375  _whiteList[i] == target */\n      0xffffffffffffffffffffffffffffffffffffffff\n      and\n      sub\n        /* \"COAT/tokens/airdrop.sol\":21348:21423  if (_whiteList[i] == target) {... */\n      tag_244\n      jumpi\n        /* \"COAT/tokens/airdrop.sol\":21403:21407  true */\n      0x01\n        /* \"COAT/tokens/airdrop.sol\":21396:21407  return true */\n      swap3\n      pop\n      pop\n      pop\n      jump(tag_237)\n        /* \"COAT/tokens/airdrop.sol\":21348:21423  if (_whiteList[i] == target) {... */\n    tag_244:\n        /* \"COAT/tokens/airdrop.sol\":21328:21331  i++ */\n      dup1\n      dup1\n      0x01\n      add\n      swap2\n      pop\n      pop\n        /* \"COAT/tokens/airdrop.sol\":21299:21434  for (uint256 i = 0; i < len; i++) {... */\n      jump(tag_238)\n    tag_239:\n      pop\n        /* \"COAT/tokens/airdrop.sol\":21451:21456  false */\n      0x00\n        /* \"COAT/tokens/airdrop.sol\":21444:21456  return false */\n      swap2\n      pop\n      pop\n        /* \"COAT/tokens/airdrop.sol\":21179:21464  function checkAddress(address target) internal view returns (bool) {... */\n    tag_237:\n      swap2\n      swap1\n      pop\n      jump\t// out\n        /* \"@openzeppelin/contracts/access/Ownable.sol\":2912:3099  function _transferOwnership(address newOwner) internal virtual {... */\n    tag_109:\n        /* \"@openzeppelin/contracts/access/Ownable.sol\":2985:3001  address oldOwner */\n      0x00\n        /* \"@openzeppelin/contracts/access/Ownable.sol\":3004:3010  _owner */\n      dup1\n      0x00\n      swap1\n      sload\n      swap1\n      0x0100\n      exp\n      swap1\n      div\n      0xffffffffffffffffffffffffffffffffffffffff\n      and\n        /* \"@openzeppelin/contracts/access/Ownable.sol\":2985:3010  address oldOwner = _owner */\n      swap1\n      pop\n        /* \"@openzeppelin/contracts/access/Ownable.sol\":3029:3037  newOwner */\n      dup2\n        /* \"@openzeppelin/contracts/access/Ownable.sol\":3020:3026  _owner */\n      0x00\n      dup1\n        /* \"@openzeppelin/contracts/access/Ownable.sol\":3020:3037  _owner = newOwner */\n      0x0100\n      exp\n      dup2\n      sload\n      dup2\n      0xffffffffffffffffffffffffffffffffffffffff\n      mul\n      not\n      and\n      swap1\n      dup4\n      0xffffffffffffffffffffffffffffffffffffffff\n      and\n      mul\n      or\n      swap1\n      sstore\n      pop\n        /* \"@openzeppelin/contracts/access/Ownable.sol\":3083:3091  newOwner */\n      dup2\n        /* \"@openzeppelin/contracts/access/Ownable.sol\":3052:3092  OwnershipTransferred(oldOwner, newOwner) */\n      0xffffffffffffffffffffffffffffffffffffffff\n      and\n        /* \"@openzeppelin/contracts/access/Ownable.sol\":3073:3081  oldOwner */\n      dup2\n        /* \"@openzeppelin/contracts/access/Ownable.sol\":3052:3092  OwnershipTransferred(oldOwner, newOwner) */\n      0xffffffffffffffffffffffffffffffffffffffff\n      and\n      0x8be0079c531659141344cd1fd0a4f28419497f9722a3daafe3b4186f6b6457e0\n      mload(0x40)\n      mload(0x40)\n      dup1\n      swap2\n      sub\n      swap1\n      log3\n        /* \"@openzeppelin/contracts/access/Ownable.sol\":2975:3099  {... */\n      pop\n        /* \"@openzeppelin/contracts/access/Ownable.sol\":2912:3099  function _transferOwnership(address newOwner) internal virtual {... */\n      pop\n      jump\t// out\n        /* \"COAT/tokens/airdrop.sol\":21645:22241  function _checkReceiver(address to, uint256 tokenId) internal  returns (bool) {... */\n    tag_128:\n        /* \"COAT/tokens/airdrop.sol\":21717:21721  bool */\n      0x00\n        /* \"COAT/tokens/airdrop.sol\":21802:21803  0 */\n      dup1\n        /* \"COAT/tokens/airdrop.sol\":21785:21799  isContract(to) */\n      tag_247\n        /* \"COAT/tokens/airdrop.sol\":21796:21798  to */\n      dup5\n        /* \"COAT/tokens/airdrop.sol\":21785:21795  isContract */\n      tag_248\n        /* \"COAT/tokens/airdrop.sol\":21785:21799  isContract(to) */\n      jump\t// in\n    tag_247:\n        /* \"COAT/tokens/airdrop.sol\":21785:21803  isContract(to) > 0 */\n      gt\n        /* \"COAT/tokens/airdrop.sol\":21781:21877  if (isContract(to) > 0) {... */\n      iszero\n      tag_249\n      jumpi\n        /* \"COAT/tokens/airdrop.sol\":21827:21831  true */\n      0x01\n        /* \"COAT/tokens/airdrop.sol\":21820:21831  return true */\n      swap1\n      pop\n      jump(tag_246)\n        /* \"COAT/tokens/airdrop.sol\":21781:21877  if (isContract(to) > 0) {... */\n    tag_249:\n        /* \"COAT/tokens/airdrop.sol\":21983:22007  IERC721Receiver receiver */\n      0x00\n        /* \"COAT/tokens/airdrop.sol\":22026:22028  to */\n      dup4\n        /* \"COAT/tokens/airdrop.sol\":21983:22029  IERC721Receiver receiver = IERC721Receiver(to) */\n      swap1\n      pop\n        /* \"COAT/tokens/airdrop.sol\":22188:22233  IERC721Receiver(to).onERC721Received.selector */\n      shl(0xe0, 0x150b7a02)\n        /* \"COAT/tokens/airdrop.sol\":22119:22233  receiver.onERC721Received(address(this), msg.sender, tokenId, \"\") == IERC721Receiver(to).onERC721Received.selector */\n      not(0xffffffffffffffffffffffffffffffffffffffffffffffffffffffff)\n      and\n        /* \"COAT/tokens/airdrop.sol\":22119:22127  receiver */\n      dup2\n        /* \"COAT/tokens/airdrop.sol\":22119:22144  receiver.onERC721Received */\n      0xffffffffffffffffffffffffffffffffffffffff\n      and\n      0x150b7a02\n        /* \"COAT/tokens/airdrop.sol\":22153:22157  this */\n      address\n        /* \"COAT/tokens/airdrop.sol\":22160:22170  msg.sender */\n      caller\n        /* \"COAT/tokens/airdrop.sol\":22172:22179  tokenId */\n      dup8\n        /* \"COAT/tokens/airdrop.sol\":22119:22184  receiver.onERC721Received(address(this), msg.sender, tokenId, \"\") */\n      mload(0x40)\n      dup5\n      0xffffffff\n      and\n      0xe0\n      shl\n      dup2\n      mstore\n      0x04\n      add\n      tag_250\n      swap4\n      swap3\n      swap2\n      swap1\n      tag_251\n      jump\t// in\n    tag_250:\n      0x20\n      mload(0x40)\n      dup1\n      dup4\n      sub\n      dup2\n      0x00\n      dup8\n      gas\n      call\n      iszero\n      dup1\n      iszero\n      tag_253\n      jumpi\n      returndatasize\n      0x00\n      dup1\n      returndatacopy\n      revert(0x00, returndatasize)\n    tag_253:\n      pop\n      pop\n      pop\n      pop\n      mload(0x40)\n      returndatasize\n      not(0x1f)\n      0x1f\n      dup3\n      add\n      and\n      dup3\n      add\n      dup1\n      0x40\n      mstore\n      pop\n      dup2\n      add\n      swap1\n      tag_254\n      swap2\n      swap1\n      tag_255\n      jump\t// in\n    tag_254:\n        /* \"COAT/tokens/airdrop.sol\":22119:22233  receiver.onERC721Received(address(this), msg.sender, tokenId, \"\") == IERC721Receiver(to).onERC721Received.selector */\n      not(0xffffffffffffffffffffffffffffffffffffffffffffffffffffffff)\n      and\n      eq\n        /* \"COAT/tokens/airdrop.sol\":22112:22233  return receiver.onERC721Received(address(this), msg.sender, tokenId, \"\") == IERC721Receiver(to).onERC721Received.selector */\n      swap2\n      pop\n      pop\n        /* \"COAT/tokens/airdrop.sol\":21645:22241  function _checkReceiver(address to, uint256 tokenId) internal  returns (bool) {... */\n    tag_246:\n      swap3\n      swap2\n      pop\n      pop\n      jump\t// out\n        /* \"@openzeppelin/contracts/utils/Context.sol\":656:752  function _msgSender() internal view virtual returns (address) {... */\n    tag_232:\n        /* \"@openzeppelin/contracts/utils/Context.sol\":709:716  address */\n      0x00\n        /* \"@openzeppelin/contracts/utils/Context.sol\":735:745  msg.sender */\n      caller\n        /* \"@openzeppelin/contracts/utils/Context.sol\":728:745  return msg.sender */\n      swap1\n      pop\n        /* \"@openzeppelin/contracts/utils/Context.sol\":656:752  function _msgSender() internal view virtual returns (address) {... */\n      swap1\n      jump\t// out\n        /* \"COAT/tokens/airdrop.sol\":22249:22441  function isContract(address addr) private view returns(uint extSize) {... */\n    tag_248:\n        /* \"COAT/tokens/airdrop.sol\":22304:22316  uint extSize */\n      0x00\n        /* \"COAT/tokens/airdrop.sol\":22376:22380  addr */\n      dup2\n        /* \"COAT/tokens/airdrop.sol\":22364:22381  extcodesize(addr) */\n      extcodesize\n        /* \"COAT/tokens/airdrop.sol\":22353:22381  extSize := extcodesize(addr) */\n      swap1\n      pop\n        /* \"COAT/tokens/airdrop.sol\":22249:22441  function isContract(address addr) private view returns(uint extSize) {... */\n      swap2\n      swap1\n      pop\n      jump\t// out\n        /* \"#utility.yul\":7:82   */\n    tag_258:\n        /* \"#utility.yul\":40:46   */\n      0x00\n        /* \"#utility.yul\":73:75   */\n      0x40\n        /* \"#utility.yul\":67:76   */\n      mload\n        /* \"#utility.yul\":57:76   */\n      swap1\n      pop\n        /* \"#utility.yul\":7:82   */\n      swap1\n      jump\t// out\n        /* \"#utility.yul\":88:205   */\n    tag_259:\n        /* \"#utility.yul\":197:198   */\n      0x00\n        /* \"#utility.yul\":194:195   */\n      dup1\n        /* \"#utility.yul\":187:199   */\n      revert\n        /* \"#utility.yul\":211:328   */\n    tag_260:\n        /* \"#utility.yul\":320:321   */\n      0x00\n        /* \"#utility.yul\":317:318   */\n      dup1\n        /* \"#utility.yul\":310:322   */\n      revert\n        /* \"#utility.yul\":334:460   */\n    tag_261:\n        /* \"#utility.yul\":371:378   */\n      0x00\n        /* \"#utility.yul\":411:453   */\n      0xffffffffffffffffffffffffffffffffffffffff\n        /* \"#utility.yul\":404:409   */\n      dup3\n        /* \"#utility.yul\":400:454   */\n      and\n        /* \"#utility.yul\":389:454   */\n      swap1\n      pop\n        /* \"#utility.yul\":334:460   */\n      swap2\n      swap1\n      pop\n      jump\t// out\n        /* \"#utility.yul\":466:562   */\n    tag_262:\n        /* \"#utility.yul\":503:510   */\n      0x00\n        /* \"#utility.yul\":532:556   */\n      tag_351\n        /* \"#utility.yul\":550:555   */\n      dup3\n        /* \"#utility.yul\":532:556   */\n      tag_261\n      jump\t// in\n    tag_351:\n        /* \"#utility.yul\":521:556   */\n      swap1\n      pop\n        /* \"#utility.yul\":466:562   */\n      swap2\n      swap1\n      pop\n      jump\t// out\n        /* \"#utility.yul\":568:690   */\n    tag_263:\n        /* \"#utility.yul\":641:665   */\n      tag_353\n        /* \"#utility.yul\":659:664   */\n      dup2\n        /* \"#utility.yul\":641:665   */\n      tag_262\n      jump\t// in\n    tag_353:\n        /* \"#utility.yul\":634:639   */\n      dup2\n        /* \"#utility.yul\":631:666   */\n      eq\n        /* \"#utility.yul\":621:684   */\n      tag_354\n      jumpi\n        /* \"#utility.yul\":680:681   */\n      0x00\n        /* \"#utility.yul\":677:678   */\n      dup1\n        /* \"#utility.yul\":670:682   */\n      revert\n        /* \"#utility.yul\":621:684   */\n    tag_354:\n        /* \"#utility.yul\":568:690   */\n      pop\n      jump\t// out\n        /* \"#utility.yul\":696:835   */\n    tag_264:\n        /* \"#utility.yul\":742:747   */\n      0x00\n        /* \"#utility.yul\":780:786   */\n      dup2\n        /* \"#utility.yul\":767:787   */\n      calldataload\n        /* \"#utility.yul\":758:787   */\n      swap1\n      pop\n        /* \"#utility.yul\":796:829   */\n      tag_356\n        /* \"#utility.yul\":823:828   */\n      dup2\n        /* \"#utility.yul\":796:829   */\n      tag_263\n      jump\t// in\n    tag_356:\n        /* \"#utility.yul\":696:835   */\n      swap3\n      swap2\n      pop\n      pop\n      jump\t// out\n        /* \"#utility.yul\":841:1170   */\n    tag_17:\n        /* \"#utility.yul\":900:906   */\n      0x00\n        /* \"#utility.yul\":949:951   */\n      0x20\n        /* \"#utility.yul\":937:946   */\n      dup3\n        /* \"#utility.yul\":928:935   */\n      dup5\n        /* \"#utility.yul\":924:947   */\n      sub\n        /* \"#utility.yul\":920:952   */\n      slt\n        /* \"#utility.yul\":917:1036   */\n      iszero\n      tag_358\n      jumpi\n        /* \"#utility.yul\":955:1034   */\n      tag_359\n      tag_259\n      jump\t// in\n    tag_359:\n        /* \"#utility.yul\":917:1036   */\n    tag_358:\n        /* \"#utility.yul\":1075:1076   */\n      0x00\n        /* \"#utility.yul\":1100:1153   */\n      tag_360\n        /* \"#utility.yul\":1145:1152   */\n      dup5\n        /* \"#utility.yul\":1136:1142   */\n      dup3\n        /* \"#utility.yul\":1125:1134   */\n      dup6\n        /* \"#utility.yul\":1121:1143   */\n      add\n        /* \"#utility.yul\":1100:1153   */\n      tag_264\n      jump\t// in\n    tag_360:\n        /* \"#utility.yul\":1090:1153   */\n      swap2\n      pop\n        /* \"#utility.yul\":1046:1163   */\n      pop\n        /* \"#utility.yul\":841:1170   */\n      swap3\n      swap2\n      pop\n      pop\n      jump\t// out\n        /* \"#utility.yul\":1176:1266   */\n    tag_265:\n        /* \"#utility.yul\":1210:1217   */\n      0x00\n        /* \"#utility.yul\":1253:1258   */\n      dup2\n        /* \"#utility.yul\":1246:1259   */\n      iszero\n        /* \"#utility.yul\":1239:1260   */\n      iszero\n        /* \"#utility.yul\":1228:1260   */\n      swap1\n      pop\n        /* \"#utility.yul\":1176:1266   */\n      swap2\n      swap1\n      pop\n      jump\t// out\n        /* \"#utility.yul\":1272:1381   */\n    tag_266:\n        /* \"#utility.yul\":1353:1374   */\n      tag_363\n        /* \"#utility.yul\":1368:1373   */\n      dup2\n        /* \"#utility.yul\":1353:1374   */\n      tag_265\n      jump\t// in\n    tag_363:\n        /* \"#utility.yul\":1348:1351   */\n      dup3\n        /* \"#utility.yul\":1341:1375   */\n      mstore\n        /* \"#utility.yul\":1272:1381   */\n      pop\n      pop\n      jump\t// out\n        /* \"#utility.yul\":1387:1597   */\n    tag_20:\n        /* \"#utility.yul\":1474:1478   */\n      0x00\n        /* \"#utility.yul\":1512:1514   */\n      0x20\n        /* \"#utility.yul\":1501:1510   */\n      dup3\n        /* \"#utility.yul\":1497:1515   */\n      add\n        /* \"#utility.yul\":1489:1515   */\n      swap1\n      pop\n        /* \"#utility.yul\":1525:1590   */\n      tag_365\n        /* \"#utility.yul\":1587:1588   */\n      0x00\n        /* \"#utility.yul\":1576:1585   */\n      dup4\n        /* \"#utility.yul\":1572:1589   */\n      add\n        /* \"#utility.yul\":1563:1569   */\n      dup5\n        /* \"#utility.yul\":1525:1590   */\n      tag_266\n      jump\t// in\n    tag_365:\n        /* \"#utility.yul\":1387:1597   */\n      swap3\n      swap2\n      pop\n      pop\n      jump\t// out\n        /* \"#utility.yul\":1603:1717   */\n    tag_267:\n        /* \"#utility.yul\":1670:1676   */\n      0x00\n        /* \"#utility.yul\":1704:1709   */\n      dup2\n        /* \"#utility.yul\":1698:1710   */\n      mload\n        /* \"#utility.yul\":1688:1710   */\n      swap1\n      pop\n        /* \"#utility.yul\":1603:1717   */\n      swap2\n      swap1\n      pop\n      jump\t// out\n        /* \"#utility.yul\":1723:1907   */\n    tag_268:\n        /* \"#utility.yul\":1822:1833   */\n      0x00\n        /* \"#utility.yul\":1856:1862   */\n      dup3\n        /* \"#utility.yul\":1851:1854   */\n      dup3\n        /* \"#utility.yul\":1844:1863   */\n      mstore\n        /* \"#utility.yul\":1896:1900   */\n      0x20\n        /* \"#utility.yul\":1891:1894   */\n      dup3\n        /* \"#utility.yul\":1887:1901   */\n      add\n        /* \"#utility.yul\":1872:1901   */\n      swap1\n      pop\n        /* \"#utility.yul\":1723:1907   */\n      swap3\n      swap2\n      pop\n      pop\n      jump\t// out\n        /* \"#utility.yul\":1913:2045   */\n    tag_269:\n        /* \"#utility.yul\":1980:1984   */\n      0x00\n        /* \"#utility.yul\":2003:2006   */\n      dup2\n        /* \"#utility.yul\":1995:2006   */\n      swap1\n      pop\n        /* \"#utility.yul\":2033:2037   */\n      0x20\n        /* \"#utility.yul\":2028:2031   */\n      dup3\n        /* \"#utility.yul\":2024:2038   */\n      add\n        /* \"#utility.yul\":2016:2038   */\n      swap1\n      pop\n        /* \"#utility.yul\":1913:2045   */\n      swap2\n      swap1\n      pop\n      jump\t// out\n        /* \"#utility.yul\":2051:2159   */\n    tag_270:\n        /* \"#utility.yul\":2128:2152   */\n      tag_370\n        /* \"#utility.yul\":2146:2151   */\n      dup2\n        /* \"#utility.yul\":2128:2152   */\n      tag_262\n      jump\t// in\n    tag_370:\n        /* \"#utility.yul\":2123:2126   */\n      dup3\n        /* \"#utility.yul\":2116:2153   */\n      mstore\n        /* \"#utility.yul\":2051:2159   */\n      pop\n      pop\n      jump\t// out\n        /* \"#utility.yul\":2165:2344   */\n    tag_271:\n        /* \"#utility.yul\":2234:2244   */\n      0x00\n        /* \"#utility.yul\":2255:2301   */\n      tag_372\n        /* \"#utility.yul\":2297:2300   */\n      dup4\n        /* \"#utility.yul\":2289:2295   */\n      dup4\n        /* \"#utility.yul\":2255:2301   */\n      tag_270\n      jump\t// in\n    tag_372:\n        /* \"#utility.yul\":2333:2337   */\n      0x20\n        /* \"#utility.yul\":2328:2331   */\n      dup4\n        /* \"#utility.yul\":2324:2338   */\n      add\n        /* \"#utility.yul\":2310:2338   */\n      swap1\n      pop\n        /* \"#utility.yul\":2165:2344   */\n      swap3\n      swap2\n      pop\n      pop\n      jump\t// out\n        /* \"#utility.yul\":2350:2463   */\n    tag_272:\n        /* \"#utility.yul\":2420:2424   */\n      0x00\n        /* \"#utility.yul\":2452:2456   */\n      0x20\n        /* \"#utility.yul\":2447:2450   */\n      dup3\n        /* \"#utility.yul\":2443:2457   */\n      add\n        /* \"#utility.yul\":2435:2457   */\n      swap1\n      pop\n        /* \"#utility.yul\":2350:2463   */\n      swap2\n      swap1\n      pop\n      jump\t// out\n        /* \"#utility.yul\":2499:3231   */\n    tag_273:\n        /* \"#utility.yul\":2618:2621   */\n      0x00\n        /* \"#utility.yul\":2647:2701   */\n      tag_375\n        /* \"#utility.yul\":2695:2700   */\n      dup3\n        /* \"#utility.yul\":2647:2701   */\n      tag_267\n      jump\t// in\n    tag_375:\n        /* \"#utility.yul\":2717:2803   */\n      tag_376\n        /* \"#utility.yul\":2796:2802   */\n      dup2\n        /* \"#utility.yul\":2791:2794   */\n      dup6\n        /* \"#utility.yul\":2717:2803   */\n      tag_268\n      jump\t// in\n    tag_376:\n        /* \"#utility.yul\":2710:2803   */\n      swap4\n      pop\n        /* \"#utility.yul\":2827:2883   */\n      tag_377\n        /* \"#utility.yul\":2877:2882   */\n      dup4\n        /* \"#utility.yul\":2827:2883   */\n      tag_269\n      jump\t// in\n    tag_377:\n        /* \"#utility.yul\":2906:2913   */\n      dup1\n        /* \"#utility.yul\":2937:2938   */\n      0x00\n        /* \"#utility.yul\":2922:3206   */\n    tag_378:\n        /* \"#utility.yul\":2947:2953   */\n      dup4\n        /* \"#utility.yul\":2944:2945   */\n      dup2\n        /* \"#utility.yul\":2941:2954   */\n      lt\n        /* \"#utility.yul\":2922:3206   */\n      iszero\n      tag_380\n      jumpi\n        /* \"#utility.yul\":3023:3029   */\n      dup2\n        /* \"#utility.yul\":3017:3030   */\n      mload\n        /* \"#utility.yul\":3050:3113   */\n      tag_381\n        /* \"#utility.yul\":3109:3112   */\n      dup9\n        /* \"#utility.yul\":3094:3107   */\n      dup3\n        /* \"#utility.yul\":3050:3113   */\n      tag_271\n      jump\t// in\n    tag_381:\n        /* \"#utility.yul\":3043:3113   */\n      swap8\n      pop\n        /* \"#utility.yul\":3136:3196   */\n      tag_382\n        /* \"#utility.yul\":3189:3195   */\n      dup4\n        /* \"#utility.yul\":3136:3196   */\n      tag_272\n      jump\t// in\n    tag_382:\n        /* \"#utility.yul\":3126:3196   */\n      swap3\n      pop\n        /* \"#utility.yul\":2982:3206   */\n      pop\n        /* \"#utility.yul\":2969:2970   */\n      0x01\n        /* \"#utility.yul\":2966:2967   */\n      dup2\n        /* \"#utility.yul\":2962:2971   */\n      add\n        /* \"#utility.yul\":2957:2971   */\n      swap1\n      pop\n        /* \"#utility.yul\":2922:3206   */\n      jump(tag_378)\n    tag_380:\n        /* \"#utility.yul\":2926:2940   */\n      pop\n        /* \"#utility.yul\":3222:3225   */\n      dup6\n        /* \"#utility.yul\":3215:3225   */\n      swap4\n      pop\n        /* \"#utility.yul\":2623:3231   */\n      pop\n      pop\n      pop\n        /* \"#utility.yul\":2499:3231   */\n      swap3\n      swap2\n      pop\n      pop\n      jump\t// out\n        /* \"#utility.yul\":3237:3610   */\n    tag_24:\n        /* \"#utility.yul\":3380:3384   */\n      0x00\n        /* \"#utility.yul\":3418:3420   */\n      0x20\n        /* \"#utility.yul\":3407:3416   */\n      dup3\n        /* \"#utility.yul\":3403:3421   */\n      add\n        /* \"#utility.yul\":3395:3421   */\n      swap1\n      pop\n        /* \"#utility.yul\":3467:3476   */\n      dup2\n        /* \"#utility.yul\":3461:3465   */\n      dup2\n        /* \"#utility.yul\":3457:3477   */\n      sub\n        /* \"#utility.yul\":3453:3454   */\n      0x00\n        /* \"#utility.yul\":3442:3451   */\n      dup4\n        /* \"#utility.yul\":3438:3455   */\n      add\n        /* \"#utility.yul\":3431:3478   */\n      mstore\n        /* \"#utility.yul\":3495:3603   */\n      tag_384\n        /* \"#utility.yul\":3598:3602   */\n      dup2\n        /* \"#utility.yul\":3589:3595   */\n      dup5\n        /* \"#utility.yul\":3495:3603   */\n      tag_273\n      jump\t// in\n    tag_384:\n        /* \"#utility.yul\":3487:3603   */\n      swap1\n      pop\n        /* \"#utility.yul\":3237:3610   */\n      swap3\n      swap2\n      pop\n      pop\n      jump\t// out\n        /* \"#utility.yul\":3616:3693   */\n    tag_274:\n        /* \"#utility.yul\":3653:3660   */\n      0x00\n        /* \"#utility.yul\":3682:3687   */\n      dup2\n        /* \"#utility.yul\":3671:3687   */\n      swap1\n      pop\n        /* \"#utility.yul\":3616:3693   */\n      swap2\n      swap1\n      pop\n      jump\t// out\n        /* \"#utility.yul\":3699:3821   */\n    tag_275:\n        /* \"#utility.yul\":3772:3796   */\n      tag_387\n        /* \"#utility.yul\":3790:3795   */\n      dup2\n        /* \"#utility.yul\":3772:3796   */\n      tag_274\n      jump\t// in\n    tag_387:\n        /* \"#utility.yul\":3765:3770   */\n      dup2\n        /* \"#utility.yul\":3762:3797   */\n      eq\n        /* \"#utility.yul\":3752:3815   */\n      tag_388\n      jumpi\n        /* \"#utility.yul\":3811:3812   */\n      0x00\n        /* \"#utility.yul\":3808:3809   */\n      dup1\n        /* \"#utility.yul\":3801:3813   */\n      revert\n        /* \"#utility.yul\":3752:3815   */\n    tag_388:\n        /* \"#utility.yul\":3699:3821   */\n      pop\n      jump\t// out\n        /* \"#utility.yul\":3827:3966   */\n    tag_276:\n        /* \"#utility.yul\":3873:3878   */\n      0x00\n        /* \"#utility.yul\":3911:3917   */\n      dup2\n        /* \"#utility.yul\":3898:3918   */\n      calldataload\n        /* \"#utility.yul\":3889:3918   */\n      swap1\n      pop\n        /* \"#utility.yul\":3927:3960   */\n      tag_390\n        /* \"#utility.yul\":3954:3959   */\n      dup2\n        /* \"#utility.yul\":3927:3960   */\n      tag_275\n      jump\t// in\n    tag_390:\n        /* \"#utility.yul\":3827:3966   */\n      swap3\n      swap2\n      pop\n      pop\n      jump\t// out\n        /* \"#utility.yul\":3972:4089   */\n    tag_277:\n        /* \"#utility.yul\":4081:4082   */\n      0x00\n        /* \"#utility.yul\":4078:4079   */\n      dup1\n        /* \"#utility.yul\":4071:4083   */\n      revert\n        /* \"#utility.yul\":4095:4212   */\n    tag_278:\n        /* \"#utility.yul\":4204:4205   */\n      0x00\n        /* \"#utility.yul\":4201:4202   */\n      dup1\n        /* \"#utility.yul\":4194:4206   */\n      revert\n        /* \"#utility.yul\":4218:4320   */\n    tag_279:\n        /* \"#utility.yul\":4259:4265   */\n      0x00\n        /* \"#utility.yul\":4310:4312   */\n      0x1f\n        /* \"#utility.yul\":4306:4313   */\n      not\n        /* \"#utility.yul\":4301:4303   */\n      0x1f\n        /* \"#utility.yul\":4294:4299   */\n      dup4\n        /* \"#utility.yul\":4290:4304   */\n      add\n        /* \"#utility.yul\":4286:4314   */\n      and\n        /* \"#utility.yul\":4276:4314   */\n      swap1\n      pop\n        /* \"#utility.yul\":4218:4320   */\n      swap2\n      swap1\n      pop\n      jump\t// out\n        /* \"#utility.yul\":4326:4506   */\n    tag_280:\n        /* \"#utility.yul\":4374:4451   */\n      0x4e487b7100000000000000000000000000000000000000000000000000000000\n        /* \"#utility.yul\":4371:4372   */\n      0x00\n        /* \"#utility.yul\":4364:4452   */\n      mstore\n        /* \"#utility.yul\":4471:4475   */\n      0x41\n        /* \"#utility.yul\":4468:4469   */\n      0x04\n        /* \"#utility.yul\":4461:4476   */\n      mstore\n        /* \"#utility.yul\":4495:4499   */\n      0x24\n        /* \"#utility.yul\":4492:4493   */\n      0x00\n        /* \"#utility.yul\":4485:4500   */\n      revert\n        /* \"#utility.yul\":4512:4793   */\n    tag_281:\n        /* \"#utility.yul\":4595:4622   */\n      tag_396\n        /* \"#utility.yul\":4617:4621   */\n      dup3\n        /* \"#utility.yul\":4595:4622   */\n      tag_279\n      jump\t// in\n    tag_396:\n        /* \"#utility.yul\":4587:4593   */\n      dup2\n        /* \"#utility.yul\":4583:4623   */\n      add\n        /* \"#utility.yul\":4725:4731   */\n      dup2\n        /* \"#utility.yul\":4713:4723   */\n      dup2\n        /* \"#utility.yul\":4710:4732   */\n      lt\n        /* \"#utility.yul\":4689:4707   */\n      0xffffffffffffffff\n        /* \"#utility.yul\":4677:4687   */\n      dup3\n        /* \"#utility.yul\":4674:4708   */\n      gt\n        /* \"#utility.yul\":4671:4733   */\n      or\n        /* \"#utility.yul\":4668:4756   */\n      iszero\n      tag_397\n      jumpi\n        /* \"#utility.yul\":4736:4754   */\n      tag_398\n      tag_280\n      jump\t// in\n    tag_398:\n        /* \"#utility.yul\":4668:4756   */\n    tag_397:\n        /* \"#utility.yul\":4776:4786   */\n      dup1\n        /* \"#utility.yul\":4772:4774   */\n      0x40\n        /* \"#utility.yul\":4765:4787   */\n      mstore\n        /* \"#utility.yul\":4555:4793   */\n      pop\n        /* \"#utility.yul\":4512:4793   */\n      pop\n      pop\n      jump\t// out\n        /* \"#utility.yul\":4799:4928   */\n    tag_282:\n        /* \"#utility.yul\":4833:4839   */\n      0x00\n        /* \"#utility.yul\":4860:4880   */\n      tag_400\n      tag_258\n      jump\t// in\n    tag_400:\n        /* \"#utility.yul\":4850:4880   */\n      swap1\n      pop\n        /* \"#utility.yul\":4889:4922   */\n      tag_401\n        /* \"#utility.yul\":4917:4921   */\n      dup3\n        /* \"#utility.yul\":4909:4915   */\n      dup3\n        /* \"#utility.yul\":4889:4922   */\n      tag_281\n      jump\t// in\n    tag_401:\n        /* \"#utility.yul\":4799:4928   */\n      swap2\n      swap1\n      pop\n      jump\t// out\n        /* \"#utility.yul\":4934:5241   */\n    tag_283:\n        /* \"#utility.yul\":4995:4999   */\n      0x00\n        /* \"#utility.yul\":5085:5103   */\n      0xffffffffffffffff\n        /* \"#utility.yul\":5077:5083   */\n      dup3\n        /* \"#utility.yul\":5074:5104   */\n      gt\n        /* \"#utility.yul\":5071:5127   */\n      iszero\n      tag_403\n      jumpi\n        /* \"#utility.yul\":5107:5125   */\n      tag_404\n      tag_280\n      jump\t// in\n    tag_404:\n        /* \"#utility.yul\":5071:5127   */\n    tag_403:\n        /* \"#utility.yul\":5145:5174   */\n      tag_405\n        /* \"#utility.yul\":5167:5173   */\n      dup3\n        /* \"#utility.yul\":5145:5174   */\n      tag_279\n      jump\t// in\n    tag_405:\n        /* \"#utility.yul\":5137:5174   */\n      swap1\n      pop\n        /* \"#utility.yul\":5229:5233   */\n      0x20\n        /* \"#utility.yul\":5223:5227   */\n      dup2\n        /* \"#utility.yul\":5219:5234   */\n      add\n        /* \"#utility.yul\":5211:5234   */\n      swap1\n      pop\n        /* \"#utility.yul\":4934:5241   */\n      swap2\n      swap1\n      pop\n      jump\t// out\n        /* \"#utility.yul\":5247:5395   */\n    tag_284:\n        /* \"#utility.yul\":5345:5351   */\n      dup3\n        /* \"#utility.yul\":5340:5343   */\n      dup2\n        /* \"#utility.yul\":5335:5338   */\n      dup4\n        /* \"#utility.yul\":5322:5352   */\n      calldatacopy\n        /* \"#utility.yul\":5386:5387   */\n      0x00\n        /* \"#utility.yul\":5377:5383   */\n      dup4\n        /* \"#utility.yul\":5372:5375   */\n      dup4\n        /* \"#utility.yul\":5368:5384   */\n      add\n        /* \"#utility.yul\":5361:5388   */\n      mstore\n        /* \"#utility.yul\":5247:5395   */\n      pop\n      pop\n      pop\n      jump\t// out\n        /* \"#utility.yul\":5401:5824   */\n    tag_285:\n        /* \"#utility.yul\":5478:5483   */\n      0x00\n        /* \"#utility.yul\":5503:5568   */\n      tag_408\n        /* \"#utility.yul\":5519:5567   */\n      tag_409\n        /* \"#utility.yul\":5560:5566   */\n      dup5\n        /* \"#utility.yul\":5519:5567   */\n      tag_283\n      jump\t// in\n    tag_409:\n        /* \"#utility.yul\":5503:5568   */\n      tag_282\n      jump\t// in\n    tag_408:\n        /* \"#utility.yul\":5494:5568   */\n      swap1\n      pop\n        /* \"#utility.yul\":5591:5597   */\n      dup3\n        /* \"#utility.yul\":5584:5589   */\n      dup2\n        /* \"#utility.yul\":5577:5598   */\n      mstore\n        /* \"#utility.yul\":5629:5633   */\n      0x20\n        /* \"#utility.yul\":5622:5627   */\n      dup2\n        /* \"#utility.yul\":5618:5634   */\n      add\n        /* \"#utility.yul\":5667:5670   */\n      dup5\n        /* \"#utility.yul\":5658:5664   */\n      dup5\n        /* \"#utility.yul\":5653:5656   */\n      dup5\n        /* \"#utility.yul\":5649:5665   */\n      add\n        /* \"#utility.yul\":5646:5671   */\n      gt\n        /* \"#utility.yul\":5643:5755   */\n      iszero\n      tag_410\n      jumpi\n        /* \"#utility.yul\":5674:5753   */\n      tag_411\n      tag_278\n      jump\t// in\n    tag_411:\n        /* \"#utility.yul\":5643:5755   */\n    tag_410:\n        /* \"#utility.yul\":5764:5818   */\n      tag_412\n        /* \"#utility.yul\":5811:5817   */\n      dup5\n        /* \"#utility.yul\":5806:5809   */\n      dup3\n        /* \"#utility.yul\":5801:5804   */\n      dup6\n        /* \"#utility.yul\":5764:5818   */\n      tag_284\n      jump\t// in\n    tag_412:\n        /* \"#utility.yul\":5484:5824   */\n      pop\n        /* \"#utility.yul\":5401:5824   */\n      swap4\n      swap3\n      pop\n      pop\n      pop\n      jump\t// out\n        /* \"#utility.yul\":5843:6181   */\n    tag_286:\n        /* \"#utility.yul\":5898:5903   */\n      0x00\n        /* \"#utility.yul\":5947:5950   */\n      dup3\n        /* \"#utility.yul\":5940:5944   */\n      0x1f\n        /* \"#utility.yul\":5932:5938   */\n      dup4\n        /* \"#utility.yul\":5928:5945   */\n      add\n        /* \"#utility.yul\":5924:5951   */\n      slt\n        /* \"#utility.yul\":5914:6036   */\n      tag_414\n      jumpi\n        /* \"#utility.yul\":5955:6034   */\n      tag_415\n      tag_277\n      jump\t// in\n    tag_415:\n        /* \"#utility.yul\":5914:6036   */\n    tag_414:\n        /* \"#utility.yul\":6072:6078   */\n      dup2\n        /* \"#utility.yul\":6059:6079   */\n      calldataload\n        /* \"#utility.yul\":6097:6175   */\n      tag_416\n        /* \"#utility.yul\":6171:6174   */\n      dup5\n        /* \"#utility.yul\":6163:6169   */\n      dup3\n        /* \"#utility.yul\":6156:6160   */\n      0x20\n        /* \"#utility.yul\":6148:6154   */\n      dup7\n        /* \"#utility.yul\":6144:6161   */\n      add\n        /* \"#utility.yul\":6097:6175   */\n      tag_285\n      jump\t// in\n    tag_416:\n        /* \"#utility.yul\":6088:6175   */\n      swap2\n      pop\n        /* \"#utility.yul\":5904:6181   */\n      pop\n        /* \"#utility.yul\":5843:6181   */\n      swap3\n      swap2\n      pop\n      pop\n      jump\t// out\n        /* \"#utility.yul\":6187:7130   */\n    tag_27:\n        /* \"#utility.yul\":6282:6288   */\n      0x00\n        /* \"#utility.yul\":6290:6296   */\n      dup1\n        /* \"#utility.yul\":6298:6304   */\n      0x00\n        /* \"#utility.yul\":6306:6312   */\n      dup1\n        /* \"#utility.yul\":6355:6358   */\n      0x80\n        /* \"#utility.yul\":6343:6352   */\n      dup6\n        /* \"#utility.yul\":6334:6341   */\n      dup8\n        /* \"#utility.yul\":6330:6353   */\n      sub\n        /* \"#utility.yul\":6326:6359   */\n      slt\n        /* \"#utility.yul\":6323:6443   */\n      iszero\n      tag_418\n      jumpi\n        /* \"#utility.yul\":6362:6441   */\n      tag_419\n      tag_259\n      jump\t// in\n    tag_419:\n        /* \"#utility.yul\":6323:6443   */\n    tag_418:\n        /* \"#utility.yul\":6482:6483   */\n      0x00\n        /* \"#utility.yul\":6507:6560   */\n      tag_420\n        /* \"#utility.yul\":6552:6559   */\n      dup8\n        /* \"#utility.yul\":6543:6549   */\n      dup3\n        /* \"#utility.yul\":6532:6541   */\n      dup9\n        /* \"#utility.yul\":6528:6550   */\n      add\n        /* \"#utility.yul\":6507:6560   */\n      tag_264\n      jump\t// in\n    tag_420:\n        /* \"#utility.yul\":6497:6560   */\n      swap5\n      pop\n        /* \"#utility.yul\":6453:6570   */\n      pop\n        /* \"#utility.yul\":6609:6611   */\n      0x20\n        /* \"#utility.yul\":6635:6688   */\n      tag_421\n        /* \"#utility.yul\":6680:6687   */\n      dup8\n        /* \"#utility.yul\":6671:6677   */\n      dup3\n        /* \"#utility.yul\":6660:6669   */\n      dup9\n        /* \"#utility.yul\":6656:6678   */\n      add\n        /* \"#utility.yul\":6635:6688   */\n      tag_264\n      jump\t// in\n    tag_421:\n        /* \"#utility.yul\":6625:6688   */\n      swap4\n      pop\n        /* \"#utility.yul\":6580:6698   */\n      pop\n        /* \"#utility.yul\":6737:6739   */\n      0x40\n        /* \"#utility.yul\":6763:6816   */\n      tag_422\n        /* \"#utility.yul\":6808:6815   */\n      dup8\n        /* \"#utility.yul\":6799:6805   */\n      dup3\n        /* \"#utility.yul\":6788:6797   */\n      dup9\n        /* \"#utility.yul\":6784:6806   */\n      add\n        /* \"#utility.yul\":6763:6816   */\n      tag_276\n      jump\t// in\n    tag_422:\n        /* \"#utility.yul\":6753:6816   */\n      swap3\n      pop\n        /* \"#utility.yul\":6708:6826   */\n      pop\n        /* \"#utility.yul\":6893:6895   */\n      0x60\n        /* \"#utility.yul\":6882:6891   */\n      dup6\n        /* \"#utility.yul\":6878:6896   */\n      add\n        /* \"#utility.yul\":6865:6897   */\n      calldataload\n        /* \"#utility.yul\":6924:6942   */\n      0xffffffffffffffff\n        /* \"#utility.yul\":6916:6922   */\n      dup2\n        /* \"#utility.yul\":6913:6943   */\n      gt\n        /* \"#utility.yul\":6910:7027   */\n      iszero\n      tag_423\n      jumpi\n        /* \"#utility.yul\":6946:7025   */\n      tag_424\n      tag_260\n      jump\t// in\n    tag_424:\n        /* \"#utility.yul\":6910:7027   */\n    tag_423:\n        /* \"#utility.yul\":7051:7113   */\n      tag_425\n        /* \"#utility.yul\":7105:7112   */\n      dup8\n        /* \"#utility.yul\":7096:7102   */\n      dup3\n        /* \"#utility.yul\":7085:7094   */\n      dup9\n        /* \"#utility.yul\":7081:7103   */\n      add\n        /* \"#utility.yul\":7051:7113   */\n      tag_286\n      jump\t// in\n    tag_425:\n        /* \"#utility.yul\":7041:7113   */\n      swap2\n      pop\n        /* \"#utility.yul\":6836:7123   */\n      pop\n        /* \"#utility.yul\":6187:7130   */\n      swap3\n      swap6\n      swap2\n      swap5\n      pop\n      swap3\n      pop\n      jump\t// out\n        /* \"#utility.yul\":7136:7285   */\n    tag_287:\n        /* \"#utility.yul\":7172:7179   */\n      0x00\n        /* \"#utility.yul\":7212:7278   */\n      0xffffffff00000000000000000000000000000000000000000000000000000000\n        /* \"#utility.yul\":7205:7210   */\n      dup3\n        /* \"#utility.yul\":7201:7279   */\n      and\n        /* \"#utility.yul\":7190:7279   */\n      swap1\n      pop\n        /* \"#utility.yul\":7136:7285   */\n      swap2\n      swap1\n      pop\n      jump\t// out\n        /* \"#utility.yul\":7291:7406   */\n    tag_288:\n        /* \"#utility.yul\":7376:7399   */\n      tag_428\n        /* \"#utility.yul\":7393:7398   */\n      dup2\n        /* \"#utility.yul\":7376:7399   */\n      tag_287\n      jump\t// in\n    tag_428:\n        /* \"#utility.yul\":7371:7374   */\n      dup3\n        /* \"#utility.yul\":7364:7400   */\n      mstore\n        /* \"#utility.yul\":7291:7406   */\n      pop\n      pop\n      jump\t// out\n        /* \"#utility.yul\":7412:7630   */\n    tag_30:\n        /* \"#utility.yul\":7503:7507   */\n      0x00\n        /* \"#utility.yul\":7541:7543   */\n      0x20\n        /* \"#utility.yul\":7530:7539   */\n      dup3\n        /* \"#utility.yul\":7526:7544   */\n      add\n        /* \"#utility.yul\":7518:7544   */\n      swap1\n      pop\n        /* \"#utility.yul\":7554:7623   */\n      tag_430\n        /* \"#utility.yul\":7620:7621   */\n      0x00\n        /* \"#utility.yul\":7609:7618   */\n      dup4\n        /* \"#utility.yul\":7605:7622   */\n      add\n        /* \"#utility.yul\":7596:7602   */\n      dup5\n        /* \"#utility.yul\":7554:7623   */\n      tag_288\n      jump\t// in\n    tag_430:\n        /* \"#utility.yul\":7412:7630   */\n      swap3\n      swap2\n      pop\n      pop\n      jump\t// out\n        /* \"#utility.yul\":7636:7754   */\n    tag_289:\n        /* \"#utility.yul\":7723:7747   */\n      tag_432\n        /* \"#utility.yul\":7741:7746   */\n      dup2\n        /* \"#utility.yul\":7723:7747   */\n      tag_262\n      jump\t// in\n    tag_432:\n        /* \"#utility.yul\":7718:7721   */\n      dup3\n        /* \"#utility.yul\":7711:7748   */\n      mstore\n        /* \"#utility.yul\":7636:7754   */\n      pop\n      pop\n      jump\t// out\n        /* \"#utility.yul\":7760:7982   */\n    tag_43:\n        /* \"#utility.yul\":7853:7857   */\n      0x00\n        /* \"#utility.yul\":7891:7893   */\n      0x20\n        /* \"#utility.yul\":7880:7889   */\n      dup3\n        /* \"#utility.yul\":7876:7894   */\n      add\n        /* \"#utility.yul\":7868:7894   */\n      swap1\n      pop\n        /* \"#utility.yul\":7904:7975   */\n      tag_434\n        /* \"#utility.yul\":7972:7973   */\n      0x00\n        /* \"#utility.yul\":7961:7970   */\n      dup4\n        /* \"#utility.yul\":7957:7974   */\n      add\n        /* \"#utility.yul\":7948:7954   */\n      dup5\n        /* \"#utility.yul\":7904:7975   */\n      tag_289\n      jump\t// in\n    tag_434:\n        /* \"#utility.yul\":7760:7982   */\n      swap3\n      swap2\n      pop\n      pop\n      jump\t// out\n        /* \"#utility.yul\":7988:8105   */\n    tag_290:\n        /* \"#utility.yul\":8097:8098   */\n      0x00\n        /* \"#utility.yul\":8094:8095   */\n      dup1\n        /* \"#utility.yul\":8087:8099   */\n      revert\n        /* \"#utility.yul\":8111:8228   */\n    tag_291:\n        /* \"#utility.yul\":8220:8221   */\n      0x00\n        /* \"#utility.yul\":8217:8218   */\n      dup1\n        /* \"#utility.yul\":8210:8222   */\n      revert\n        /* \"#utility.yul\":8251:8819   */\n    tag_292:\n        /* \"#utility.yul\":8324:8332   */\n      0x00\n        /* \"#utility.yul\":8334:8340   */\n      dup1\n        /* \"#utility.yul\":8384:8387   */\n      dup4\n        /* \"#utility.yul\":8377:8381   */\n      0x1f\n        /* \"#utility.yul\":8369:8375   */\n      dup5\n        /* \"#utility.yul\":8365:8382   */\n      add\n        /* \"#utility.yul\":8361:8388   */\n      slt\n        /* \"#utility.yul\":8351:8473   */\n      tag_438\n      jumpi\n        /* \"#utility.yul\":8392:8471   */\n      tag_439\n      tag_277\n      jump\t// in\n    tag_439:\n        /* \"#utility.yul\":8351:8473   */\n    tag_438:\n        /* \"#utility.yul\":8505:8511   */\n      dup3\n        /* \"#utility.yul\":8492:8512   */\n      calldataload\n        /* \"#utility.yul\":8482:8512   */\n      swap1\n      pop\n        /* \"#utility.yul\":8535:8553   */\n      0xffffffffffffffff\n        /* \"#utility.yul\":8527:8533   */\n      dup2\n        /* \"#utility.yul\":8524:8554   */\n      gt\n        /* \"#utility.yul\":8521:8638   */\n      iszero\n      tag_440\n      jumpi\n        /* \"#utility.yul\":8557:8636   */\n      tag_441\n      tag_290\n      jump\t// in\n    tag_441:\n        /* \"#utility.yul\":8521:8638   */\n    tag_440:\n        /* \"#utility.yul\":8671:8675   */\n      0x20\n        /* \"#utility.yul\":8663:8669   */\n      dup4\n        /* \"#utility.yul\":8659:8676   */\n      add\n        /* \"#utility.yul\":8647:8676   */\n      swap2\n      pop\n        /* \"#utility.yul\":8725:8728   */\n      dup4\n        /* \"#utility.yul\":8717:8721   */\n      0x20\n        /* \"#utility.yul\":8709:8715   */\n      dup3\n        /* \"#utility.yul\":8705:8722   */\n      mul\n        /* \"#utility.yul\":8695:8703   */\n      dup4\n        /* \"#utility.yul\":8691:8723   */\n      add\n        /* \"#utility.yul\":8688:8729   */\n      gt\n        /* \"#utility.yul\":8685:8813   */\n      iszero\n      tag_442\n      jumpi\n        /* \"#utility.yul\":8732:8811   */\n      tag_443\n      tag_291\n      jump\t// in\n    tag_443:\n        /* \"#utility.yul\":8685:8813   */\n    tag_442:\n        /* \"#utility.yul\":8251:8819   */\n      swap3\n      pop\n      swap3\n      swap1\n      pop\n      jump\t// out\n        /* \"#utility.yul\":8825:9384   */\n    tag_46:\n        /* \"#utility.yul\":8911:8917   */\n      0x00\n        /* \"#utility.yul\":8919:8925   */\n      dup1\n        /* \"#utility.yul\":8968:8970   */\n      0x20\n        /* \"#utility.yul\":8956:8965   */\n      dup4\n        /* \"#utility.yul\":8947:8954   */\n      dup6\n        /* \"#utility.yul\":8943:8966   */\n      sub\n        /* \"#utility.yul\":8939:8971   */\n      slt\n        /* \"#utility.yul\":8936:9055   */\n      iszero\n      tag_445\n      jumpi\n        /* \"#utility.yul\":8974:9053   */\n      tag_446\n      tag_259\n      jump\t// in\n    tag_446:\n        /* \"#utility.yul\":8936:9055   */\n    tag_445:\n        /* \"#utility.yul\":9122:9123   */\n      0x00\n        /* \"#utility.yul\":9111:9120   */\n      dup4\n        /* \"#utility.yul\":9107:9124   */\n      add\n        /* \"#utility.yul\":9094:9125   */\n      calldataload\n        /* \"#utility.yul\":9152:9170   */\n      0xffffffffffffffff\n        /* \"#utility.yul\":9144:9150   */\n      dup2\n        /* \"#utility.yul\":9141:9171   */\n      gt\n        /* \"#utility.yul\":9138:9255   */\n      iszero\n      tag_447\n      jumpi\n        /* \"#utility.yul\":9174:9253   */\n      tag_448\n      tag_260\n      jump\t// in\n    tag_448:\n        /* \"#utility.yul\":9138:9255   */\n    tag_447:\n        /* \"#utility.yul\":9287:9367   */\n      tag_449\n        /* \"#utility.yul\":9359:9366   */\n      dup6\n        /* \"#utility.yul\":9350:9356   */\n      dup3\n        /* \"#utility.yul\":9339:9348   */\n      dup7\n        /* \"#utility.yul\":9335:9357   */\n      add\n        /* \"#utility.yul\":9287:9367   */\n      tag_292\n      jump\t// in\n    tag_449:\n        /* \"#utility.yul\":9269:9367   */\n      swap3\n      pop\n      swap3\n      pop\n        /* \"#utility.yul\":9065:9377   */\n      pop\n        /* \"#utility.yul\":8825:9384   */\n      swap3\n      pop\n      swap3\n      swap1\n      pop\n      jump\t// out\n        /* \"#utility.yul\":9407:9975   */\n    tag_293:\n        /* \"#utility.yul\":9480:9488   */\n      0x00\n        /* \"#utility.yul\":9490:9496   */\n      dup1\n        /* \"#utility.yul\":9540:9543   */\n      dup4\n        /* \"#utility.yul\":9533:9537   */\n      0x1f\n        /* \"#utility.yul\":9525:9531   */\n      dup5\n        /* \"#utility.yul\":9521:9538   */\n      add\n        /* \"#utility.yul\":9517:9544   */\n      slt\n        /* \"#utility.yul\":9507:9629   */\n      tag_451\n      jumpi\n        /* \"#utility.yul\":9548:9627   */\n      tag_452\n      tag_277\n      jump\t// in\n    tag_452:\n        /* \"#utility.yul\":9507:9629   */\n    tag_451:\n        /* \"#utility.yul\":9661:9667   */\n      dup3\n        /* \"#utility.yul\":9648:9668   */\n      calldataload\n        /* \"#utility.yul\":9638:9668   */\n      swap1\n      pop\n        /* \"#utility.yul\":9691:9709   */\n      0xffffffffffffffff\n        /* \"#utility.yul\":9683:9689   */\n      dup2\n        /* \"#utility.yul\":9680:9710   */\n      gt\n        /* \"#utility.yul\":9677:9794   */\n      iszero\n      tag_453\n      jumpi\n        /* \"#utility.yul\":9713:9792   */\n      tag_454\n      tag_290\n      jump\t// in\n    tag_454:\n        /* \"#utility.yul\":9677:9794   */\n    tag_453:\n        /* \"#utility.yul\":9827:9831   */\n      0x20\n        /* \"#utility.yul\":9819:9825   */\n      dup4\n        /* \"#utility.yul\":9815:9832   */\n      add\n        /* \"#utility.yul\":9803:9832   */\n      swap2\n      pop\n        /* \"#utility.yul\":9881:9884   */\n      dup4\n        /* \"#utility.yul\":9873:9877   */\n      0x20\n        /* \"#utility.yul\":9865:9871   */\n      dup3\n        /* \"#utility.yul\":9861:9878   */\n      mul\n        /* \"#utility.yul\":9851:9859   */\n      dup4\n        /* \"#utility.yul\":9847:9879   */\n      add\n        /* \"#utility.yul\":9844:9885   */\n      gt\n        /* \"#utility.yul\":9841:9969   */\n      iszero\n      tag_455\n      jumpi\n        /* \"#utility.yul\":9888:9967   */\n      tag_456\n      tag_291\n      jump\t// in\n    tag_456:\n        /* \"#utility.yul\":9841:9969   */\n    tag_455:\n        /* \"#utility.yul\":9407:9975   */\n      swap3\n      pop\n      swap3\n      swap1\n      pop\n      jump\t// out\n        /* \"#utility.yul\":9981:10540   */\n    tag_51:\n        /* \"#utility.yul\":10067:10073   */\n      0x00\n        /* \"#utility.yul\":10075:10081   */\n      dup1\n        /* \"#utility.yul\":10124:10126   */\n      0x20\n        /* \"#utility.yul\":10112:10121   */\n      dup4\n        /* \"#utility.yul\":10103:10110   */\n      dup6\n        /* \"#utility.yul\":10099:10122   */\n      sub\n        /* \"#utility.yul\":10095:10127   */\n      slt\n        /* \"#utility.yul\":10092:10211   */\n      iszero\n      tag_458\n      jumpi\n        /* \"#utility.yul\":10130:10209   */\n      tag_459\n      tag_259\n      jump\t// in\n    tag_459:\n        /* \"#utility.yul\":10092:10211   */\n    tag_458:\n        /* \"#utility.yul\":10278:10279   */\n      0x00\n        /* \"#utility.yul\":10267:10276   */\n      dup4\n        /* \"#utility.yul\":10263:10280   */\n      add\n        /* \"#utility.yul\":10250:10281   */\n      calldataload\n        /* \"#utility.yul\":10308:10326   */\n      0xffffffffffffffff\n        /* \"#utility.yul\":10300:10306   */\n      dup2\n        /* \"#utility.yul\":10297:10327   */\n      gt\n        /* \"#utility.yul\":10294:10411   */\n      iszero\n      tag_460\n      jumpi\n        /* \"#utility.yul\":10330:10409   */\n      tag_461\n      tag_260\n      jump\t// in\n    tag_461:\n        /* \"#utility.yul\":10294:10411   */\n    tag_460:\n        /* \"#utility.yul\":10443:10523   */\n      tag_462\n        /* \"#utility.yul\":10515:10522   */\n      dup6\n        /* \"#utility.yul\":10506:10512   */\n      dup3\n        /* \"#utility.yul\":10495:10504   */\n      dup7\n        /* \"#utility.yul\":10491:10513   */\n      add\n        /* \"#utility.yul\":10443:10523   */\n      tag_293\n      jump\t// in\n    tag_462:\n        /* \"#utility.yul\":10425:10523   */\n      swap3\n      pop\n      swap3\n      pop\n        /* \"#utility.yul\":10221:10533   */\n      pop\n        /* \"#utility.yul\":9981:10540   */\n      swap3\n      pop\n      swap3\n      swap1\n      pop\n      jump\t// out\n        /* \"#utility.yul\":10546:11020   */\n    tag_56:\n        /* \"#utility.yul\":10614:10620   */\n      0x00\n        /* \"#utility.yul\":10622:10628   */\n      dup1\n        /* \"#utility.yul\":10671:10673   */\n      0x40\n        /* \"#utility.yul\":10659:10668   */\n      dup4\n        /* \"#utility.yul\":10650:10657   */\n      dup6\n        /* \"#utility.yul\":10646:10669   */\n      sub\n        /* \"#utility.yul\":10642:10674   */\n      slt\n        /* \"#utility.yul\":10639:10758   */\n      iszero\n      tag_464\n      jumpi\n        /* \"#utility.yul\":10677:10756   */\n      tag_465\n      tag_259\n      jump\t// in\n    tag_465:\n        /* \"#utility.yul\":10639:10758   */\n    tag_464:\n        /* \"#utility.yul\":10797:10798   */\n      0x00\n        /* \"#utility.yul\":10822:10875   */\n      tag_466\n        /* \"#utility.yul\":10867:10874   */\n      dup6\n        /* \"#utility.yul\":10858:10864   */\n      dup3\n        /* \"#utility.yul\":10847:10856   */\n      dup7\n        /* \"#utility.yul\":10843:10865   */\n      add\n        /* \"#utility.yul\":10822:10875   */\n      tag_264\n      jump\t// in\n    tag_466:\n        /* \"#utility.yul\":10812:10875   */\n      swap3\n      pop\n        /* \"#utility.yul\":10768:10885   */\n      pop\n        /* \"#utility.yul\":10924:10926   */\n      0x20\n        /* \"#utility.yul\":10950:11003   */\n      tag_467\n        /* \"#utility.yul\":10995:11002   */\n      dup6\n        /* \"#utility.yul\":10986:10992   */\n      dup3\n        /* \"#utility.yul\":10975:10984   */\n      dup7\n        /* \"#utility.yul\":10971:10993   */\n      add\n        /* \"#utility.yul\":10950:11003   */\n      tag_276\n      jump\t// in\n    tag_467:\n        /* \"#utility.yul\":10940:11003   */\n      swap2\n      pop\n        /* \"#utility.yul\":10895:11013   */\n      pop\n        /* \"#utility.yul\":10546:11020   */\n      swap3\n      pop\n      swap3\n      swap1\n      pop\n      jump\t// out\n        /* \"#utility.yul\":11026:11195   */\n    tag_294:\n        /* \"#utility.yul\":11110:11121   */\n      0x00\n        /* \"#utility.yul\":11144:11150   */\n      dup3\n        /* \"#utility.yul\":11139:11142   */\n      dup3\n        /* \"#utility.yul\":11132:11151   */\n      mstore\n        /* \"#utility.yul\":11184:11188   */\n      0x20\n        /* \"#utility.yul\":11179:11182   */\n      dup3\n        /* \"#utility.yul\":11175:11189   */\n      add\n        /* \"#utility.yul\":11160:11189   */\n      swap1\n      pop\n        /* \"#utility.yul\":11026:11195   */\n      swap3\n      swap2\n      pop\n      pop\n      jump\t// out\n        /* \"#utility.yul\":11201:11427   */\n    tag_295:\n        /* \"#utility.yul\":11341:11375   */\n      0x4164647265737320646f6573206e6f7420657869737420696e20746865207768\n        /* \"#utility.yul\":11337:11338   */\n      0x00\n        /* \"#utility.yul\":11329:11335   */\n      dup3\n        /* \"#utility.yul\":11325:11339   */\n      add\n        /* \"#utility.yul\":11318:11376   */\n      mstore\n        /* \"#utility.yul\":11410:11419   */\n      0x6974656c69737400000000000000000000000000000000000000000000000000\n        /* \"#utility.yul\":11405:11407   */\n      0x20\n        /* \"#utility.yul\":11397:11403   */\n      dup3\n        /* \"#utility.yul\":11393:11408   */\n      add\n        /* \"#utility.yul\":11386:11420   */\n      mstore\n        /* \"#utility.yul\":11201:11427   */\n      pop\n      jump\t// out\n        /* \"#utility.yul\":11433:11799   */\n    tag_296:\n        /* \"#utility.yul\":11575:11578   */\n      0x00\n        /* \"#utility.yul\":11596:11663   */\n      tag_471\n        /* \"#utility.yul\":11660:11662   */\n      0x27\n        /* \"#utility.yul\":11655:11658   */\n      dup4\n        /* \"#utility.yul\":11596:11663   */\n      tag_294\n      jump\t// in\n    tag_471:\n        /* \"#utility.yul\":11589:11663   */\n      swap2\n      pop\n        /* \"#utility.yul\":11672:11765   */\n      tag_472\n        /* \"#utility.yul\":11761:11764   */\n      dup3\n        /* \"#utility.yul\":11672:11765   */\n      tag_295\n      jump\t// in\n    tag_472:\n        /* \"#utility.yul\":11790:11792   */\n      0x40\n        /* \"#utility.yul\":11785:11788   */\n      dup3\n        /* \"#utility.yul\":11781:11793   */\n      add\n        /* \"#utility.yul\":11774:11793   */\n      swap1\n      pop\n        /* \"#utility.yul\":11433:11799   */\n      swap2\n      swap1\n      pop\n      jump\t// out\n        /* \"#utility.yul\":11805:12224   */\n    tag_70:\n        /* \"#utility.yul\":11971:11975   */\n      0x00\n        /* \"#utility.yul\":12009:12011   */\n      0x20\n        /* \"#utility.yul\":11998:12007   */\n      dup3\n        /* \"#utility.yul\":11994:12012   */\n      add\n        /* \"#utility.yul\":11986:12012   */\n      swap1\n      pop\n        /* \"#utility.yul\":12058:12067   */\n      dup2\n        /* \"#utility.yul\":12052:12056   */\n      dup2\n        /* \"#utility.yul\":12048:12068   */\n      sub\n        /* \"#utility.yul\":12044:12045   */\n      0x00\n        /* \"#utility.yul\":12033:12042   */\n      dup4\n        /* \"#utility.yul\":12029:12046   */\n      add\n        /* \"#utility.yul\":12022:12069   */\n      mstore\n        /* \"#utility.yul\":12086:12217   */\n      tag_474\n        /* \"#utility.yul\":12212:12216   */\n      dup2\n        /* \"#utility.yul\":12086:12217   */\n      tag_296\n      jump\t// in\n    tag_474:\n        /* \"#utility.yul\":12078:12217   */\n      swap1\n      pop\n        /* \"#utility.yul\":11805:12224   */\n      swap2\n      swap1\n      pop\n      jump\t// out\n        /* \"#utility.yul\":12230:12410   */\n    tag_76:\n        /* \"#utility.yul\":12278:12355   */\n      0x4e487b7100000000000000000000000000000000000000000000000000000000\n        /* \"#utility.yul\":12275:12276   */\n      0x00\n        /* \"#utility.yul\":12268:12356   */\n      mstore\n        /* \"#utility.yul\":12375:12379   */\n      0x32\n        /* \"#utility.yul\":12372:12373   */\n      0x04\n        /* \"#utility.yul\":12365:12380   */\n      mstore\n        /* \"#utility.yul\":12399:12403   */\n      0x24\n        /* \"#utility.yul\":12396:12397   */\n      0x00\n        /* \"#utility.yul\":12389:12404   */\n      revert\n        /* \"#utility.yul\":12416:12596   */\n    tag_297:\n        /* \"#utility.yul\":12464:12541   */\n      0x4e487b7100000000000000000000000000000000000000000000000000000000\n        /* \"#utility.yul\":12461:12462   */\n      0x00\n        /* \"#utility.yul\":12454:12542   */\n      mstore\n        /* \"#utility.yul\":12561:12565   */\n      0x11\n        /* \"#utility.yul\":12558:12559   */\n      0x04\n        /* \"#utility.yul\":12551:12566   */\n      mstore\n        /* \"#utility.yul\":12585:12589   */\n      0x24\n        /* \"#utility.yul\":12582:12583   */\n      0x00\n        /* \"#utility.yul\":12575:12590   */\n      revert\n        /* \"#utility.yul\":12602:12796   */\n    tag_80:\n        /* \"#utility.yul\":12642:12646   */\n      0x00\n        /* \"#utility.yul\":12662:12682   */\n      tag_478\n        /* \"#utility.yul\":12680:12681   */\n      dup3\n        /* \"#utility.yul\":12662:12682   */\n      tag_274\n      jump\t// in\n    tag_478:\n        /* \"#utility.yul\":12657:12682   */\n      swap2\n      pop\n        /* \"#utility.yul\":12696:12716   */\n      tag_479\n        /* \"#utility.yul\":12714:12715   */\n      dup4\n        /* \"#utility.yul\":12696:12716   */\n      tag_274\n      jump\t// in\n    tag_479:\n        /* \"#utility.yul\":12691:12716   */\n      swap3\n      pop\n        /* \"#utility.yul\":12740:12741   */\n      dup3\n        /* \"#utility.yul\":12737:12738   */\n      dup3\n        /* \"#utility.yul\":12733:12742   */\n      sub\n        /* \"#utility.yul\":12725:12742   */\n      swap1\n      pop\n        /* \"#utility.yul\":12764:12765   */\n      dup2\n        /* \"#utility.yul\":12758:12762   */\n      dup2\n        /* \"#utility.yul\":12755:12766   */\n      gt\n        /* \"#utility.yul\":12752:12789   */\n      iszero\n      tag_480\n      jumpi\n        /* \"#utility.yul\":12769:12787   */\n      tag_481\n      tag_297\n      jump\t// in\n    tag_481:\n        /* \"#utility.yul\":12752:12789   */\n    tag_480:\n        /* \"#utility.yul\":12602:12796   */\n      swap3\n      swap2\n      pop\n      pop\n      jump\t// out\n        /* \"#utility.yul\":12802:12982   */\n    tag_89:\n        /* \"#utility.yul\":12850:12927   */\n      0x4e487b7100000000000000000000000000000000000000000000000000000000\n        /* \"#utility.yul\":12847:12848   */\n      0x00\n        /* \"#utility.yul\":12840:12928   */\n      mstore\n        /* \"#utility.yul\":12947:12951   */\n      0x31\n        /* \"#utility.yul\":12944:12945   */\n      0x04\n        /* \"#utility.yul\":12937:12952   */\n      mstore\n        /* \"#utility.yul\":12971:12975   */\n      0x24\n        /* \"#utility.yul\":12968:12969   */\n      0x00\n        /* \"#utility.yul\":12961:12976   */\n      revert\n        /* \"#utility.yul\":12988:13106   */\n    tag_298:\n        /* \"#utility.yul\":13075:13099   */\n      tag_484\n        /* \"#utility.yul\":13093:13098   */\n      dup2\n        /* \"#utility.yul\":13075:13099   */\n      tag_274\n      jump\t// in\n    tag_484:\n        /* \"#utility.yul\":13070:13073   */\n      dup3\n        /* \"#utility.yul\":13063:13100   */\n      mstore\n        /* \"#utility.yul\":12988:13106   */\n      pop\n      pop\n      jump\t// out\n        /* \"#utility.yul\":13112:13210   */\n    tag_299:\n        /* \"#utility.yul\":13163:13169   */\n      0x00\n        /* \"#utility.yul\":13197:13202   */\n      dup2\n        /* \"#utility.yul\":13191:13203   */\n      mload\n        /* \"#utility.yul\":13181:13203   */\n      swap1\n      pop\n        /* \"#utility.yul\":13112:13210   */\n      swap2\n      swap1\n      pop\n      jump\t// out\n        /* \"#utility.yul\":13216:13384   */\n    tag_300:\n        /* \"#utility.yul\":13299:13310   */\n      0x00\n        /* \"#utility.yul\":13333:13339   */\n      dup3\n        /* \"#utility.yul\":13328:13331   */\n      dup3\n        /* \"#utility.yul\":13321:13340   */\n      mstore\n        /* \"#utility.yul\":13373:13377   */\n      0x20\n        /* \"#utility.yul\":13368:13371   */\n      dup3\n        /* \"#utility.yul\":13364:13378   */\n      add\n        /* \"#utility.yul\":13349:13378   */\n      swap1\n      pop\n        /* \"#utility.yul\":13216:13384   */\n      swap3\n      swap2\n      pop\n      pop\n      jump\t// out\n        /* \"#utility.yul\":13390:13529   */\n    tag_301:\n        /* \"#utility.yul\":13479:13485   */\n      dup3\n        /* \"#utility.yul\":13474:13477   */\n      dup2\n        /* \"#utility.yul\":13469:13472   */\n      dup4\n        /* \"#utility.yul\":13463:13486   */\n      mcopy\n        /* \"#utility.yul\":13520:13521   */\n      0x00\n        /* \"#utility.yul\":13511:13517   */\n      dup4\n        /* \"#utility.yul\":13506:13509   */\n      dup4\n        /* \"#utility.yul\":13502:13518   */\n      add\n        /* \"#utility.yul\":13495:13522   */\n      mstore\n        /* \"#utility.yul\":13390:13529   */\n      pop\n      pop\n      pop\n      jump\t// out\n        /* \"#utility.yul\":13535:13908   */\n    tag_302:\n        /* \"#utility.yul\":13621:13624   */\n      0x00\n        /* \"#utility.yul\":13649:13687   */\n      tag_489\n        /* \"#utility.yul\":13681:13686   */\n      dup3\n        /* \"#utility.yul\":13649:13687   */\n      tag_299\n      jump\t// in\n    tag_489:\n        /* \"#utility.yul\":13703:13773   */\n      tag_490\n        /* \"#utility.yul\":13766:13772   */\n      dup2\n        /* \"#utility.yul\":13761:13764   */\n      dup6\n        /* \"#utility.yul\":13703:13773   */\n      tag_300\n      jump\t// in\n    tag_490:\n        /* \"#utility.yul\":13696:13773   */\n      swap4\n      pop\n        /* \"#utility.yul\":13782:13847   */\n      tag_491\n        /* \"#utility.yul\":13840:13846   */\n      dup2\n        /* \"#utility.yul\":13835:13838   */\n      dup6\n        /* \"#utility.yul\":13828:13832   */\n      0x20\n        /* \"#utility.yul\":13821:13826   */\n      dup7\n        /* \"#utility.yul\":13817:13833   */\n      add\n        /* \"#utility.yul\":13782:13847   */\n      tag_301\n      jump\t// in\n    tag_491:\n        /* \"#utility.yul\":13872:13901   */\n      tag_492\n        /* \"#utility.yul\":13894:13900   */\n      dup2\n        /* \"#utility.yul\":13872:13901   */\n      tag_279\n      jump\t// in\n    tag_492:\n        /* \"#utility.yul\":13867:13870   */\n      dup5\n        /* \"#utility.yul\":13863:13902   */\n      add\n        /* \"#utility.yul\":13856:13902   */\n      swap2\n      pop\n        /* \"#utility.yul\":13625:13908   */\n      pop\n        /* \"#utility.yul\":13535:13908   */\n      swap3\n      swap2\n      pop\n      pop\n      jump\t// out\n        /* \"#utility.yul\":13914:14554   */\n    tag_97:\n        /* \"#utility.yul\":14109:14113   */\n      0x00\n        /* \"#utility.yul\":14147:14150   */\n      0x80\n        /* \"#utility.yul\":14136:14145   */\n      dup3\n        /* \"#utility.yul\":14132:14151   */\n      add\n        /* \"#utility.yul\":14124:14151   */\n      swap1\n      pop\n        /* \"#utility.yul\":14161:14232   */\n      tag_494\n        /* \"#utility.yul\":14229:14230   */\n      0x00\n        /* \"#utility.yul\":14218:14227   */\n      dup4\n        /* \"#utility.yul\":14214:14231   */\n      add\n        /* \"#utility.yul\":14205:14211   */\n      dup8\n        /* \"#utility.yul\":14161:14232   */\n      tag_289\n      jump\t// in\n    tag_494:\n        /* \"#utility.yul\":14242:14314   */\n      tag_495\n        /* \"#utility.yul\":14310:14312   */\n      0x20\n        /* \"#utility.yul\":14299:14308   */\n      dup4\n        /* \"#utility.yul\":14295:14313   */\n      add\n        /* \"#utility.yul\":14286:14292   */\n      dup7\n        /* \"#utility.yul\":14242:14314   */\n      tag_289\n      jump\t// in\n    tag_495:\n        /* \"#utility.yul\":14324:14396   */\n      tag_496\n        /* \"#utility.yul\":14392:14394   */\n      0x40\n        /* \"#utility.yul\":14381:14390   */\n      dup4\n        /* \"#utility.yul\":14377:14395   */\n      add\n        /* \"#utility.yul\":14368:14374   */\n      dup6\n        /* \"#utility.yul\":14324:14396   */\n      tag_298\n      jump\t// in\n    tag_496:\n        /* \"#utility.yul\":14443:14452   */\n      dup2\n        /* \"#utility.yul\":14437:14441   */\n      dup2\n        /* \"#utility.yul\":14433:14453   */\n      sub\n        /* \"#utility.yul\":14428:14430   */\n      0x60\n        /* \"#utility.yul\":14417:14426   */\n      dup4\n        /* \"#utility.yul\":14413:14431   */\n      add\n        /* \"#utility.yul\":14406:14454   */\n      mstore\n        /* \"#utility.yul\":14471:14547   */\n      tag_497\n        /* \"#utility.yul\":14542:14546   */\n      dup2\n        /* \"#utility.yul\":14533:14539   */\n      dup5\n        /* \"#utility.yul\":14471:14547   */\n      tag_302\n      jump\t// in\n    tag_497:\n        /* \"#utility.yul\":14463:14547   */\n      swap1\n      pop\n        /* \"#utility.yul\":13914:14554   */\n      swap6\n      swap5\n      pop\n      pop\n      pop\n      pop\n      pop\n      jump\t// out\n        /* \"#utility.yul\":14560:14793   */\n    tag_102:\n        /* \"#utility.yul\":14599:14602   */\n      0x00\n        /* \"#utility.yul\":14622:14646   */\n      tag_499\n        /* \"#utility.yul\":14640:14645   */\n      dup3\n        /* \"#utility.yul\":14622:14646   */\n      tag_274\n      jump\t// in\n    tag_499:\n        /* \"#utility.yul\":14613:14646   */\n      swap2\n      pop\n        /* \"#utility.yul\":14668:14734   */\n      0xffffffffffffffffffffffffffffffffffffffffffffffffffffffffffffffff\n        /* \"#utility.yul\":14661:14666   */\n      dup3\n        /* \"#utility.yul\":14658:14735   */\n      sub\n        /* \"#utility.yul\":14655:14758   */\n      tag_500\n      jumpi\n        /* \"#utility.yul\":14738:14756   */\n      tag_501\n      tag_297\n      jump\t// in\n    tag_501:\n        /* \"#utility.yul\":14655:14758   */\n    tag_500:\n        /* \"#utility.yul\":14785:14786   */\n      0x01\n        /* \"#utility.yul\":14778:14783   */\n      dup3\n        /* \"#utility.yul\":14774:14787   */\n      add\n        /* \"#utility.yul\":14767:14787   */\n      swap1\n      pop\n        /* \"#utility.yul\":14560:14793   */\n      swap2\n      swap1\n      pop\n      jump\t// out\n        /* \"#utility.yul\":14799:14969   */\n    tag_303:\n        /* \"#utility.yul\":14939:14961   */\n      0x5a65726f20416464726573732070726573656e74000000000000000000000000\n        /* \"#utility.yul\":14935:14936   */\n      0x00\n        /* \"#utility.yul\":14927:14933   */\n      dup3\n        /* \"#utility.yul\":14923:14937   */\n      add\n        /* \"#utility.yul\":14916:14962   */\n      mstore\n        /* \"#utility.yul\":14799:14969   */\n      pop\n      jump\t// out\n        /* \"#utility.yul\":14975:15341   */\n    tag_304:\n        /* \"#utility.yul\":15117:15120   */\n      0x00\n        /* \"#utility.yul\":15138:15205   */\n      tag_504\n        /* \"#utility.yul\":15202:15204   */\n      0x14\n        /* \"#utility.yul\":15197:15200   */\n      dup4\n        /* \"#utility.yul\":15138:15205   */\n      tag_294\n      jump\t// in\n    tag_504:\n        /* \"#utility.yul\":15131:15205   */\n      swap2\n      pop\n        /* \"#utility.yul\":15214:15307   */\n      tag_505\n        /* \"#utility.yul\":15303:15306   */\n      dup3\n        /* \"#utility.yul\":15214:15307   */\n      tag_303\n      jump\t// in\n    tag_505:\n        /* \"#utility.yul\":15332:15334   */\n      0x20\n        /* \"#utility.yul\":15327:15330   */\n      dup3\n        /* \"#utility.yul\":15323:15335   */\n      add\n        /* \"#utility.yul\":15316:15335   */\n      swap1\n      pop\n        /* \"#utility.yul\":14975:15341   */\n      swap2\n      swap1\n      pop\n      jump\t// out\n        /* \"#utility.yul\":15347:15766   */\n    tag_122:\n        /* \"#utility.yul\":15513:15517   */\n      0x00\n        /* \"#utility.yul\":15551:15553   */\n      0x20\n        /* \"#utility.yul\":15540:15549   */\n      dup3\n        /* \"#utility.yul\":15536:15554   */\n      add\n        /* \"#utility.yul\":15528:15554   */\n      swap1\n      pop\n        /* \"#utility.yul\":15600:15609   */\n      dup2\n        /* \"#utility.yul\":15594:15598   */\n      dup2\n        /* \"#utility.yul\":15590:15610   */\n      sub\n        /* \"#utility.yul\":15586:15587   */\n      0x00\n        /* \"#utility.yul\":15575:15584   */\n      dup4\n        /* \"#utility.yul\":15571:15588   */\n      add\n        /* \"#utility.yul\":15564:15611   */\n      mstore\n        /* \"#utility.yul\":15628:15759   */\n      tag_507\n        /* \"#utility.yul\":15754:15758   */\n      dup2\n        /* \"#utility.yul\":15628:15759   */\n      tag_304\n      jump\t// in\n    tag_507:\n        /* \"#utility.yul\":15620:15759   */\n      swap1\n      pop\n        /* \"#utility.yul\":15347:15766   */\n      swap2\n      swap1\n      pop\n      jump\t// out\n        /* \"#utility.yul\":15772:15942   */\n    tag_305:\n        /* \"#utility.yul\":15912:15934   */\n      0x4661756c7479206164647265737320666f756e64000000000000000000000000\n        /* \"#utility.yul\":15908:15909   */\n      0x00\n        /* \"#utility.yul\":15900:15906   */\n      dup3\n        /* \"#utility.yul\":15896:15910   */\n      add\n        /* \"#utility.yul\":15889:15935   */\n      mstore\n        /* \"#utility.yul\":15772:15942   */\n      pop\n      jump\t// out\n        /* \"#utility.yul\":15948:16314   */\n    tag_306:\n        /* \"#utility.yul\":16090:16093   */\n      0x00\n        /* \"#utility.yul\":16111:16178   */\n      tag_510\n        /* \"#utility.yul\":16175:16177   */\n      0x14\n        /* \"#utility.yul\":16170:16173   */\n      dup4\n        /* \"#utility.yul\":16111:16178   */\n      tag_294\n      jump\t// in\n    tag_510:\n        /* \"#utility.yul\":16104:16178   */\n      swap2\n      pop\n        /* \"#utility.yul\":16187:16280   */\n      tag_511\n        /* \"#utility.yul\":16276:16279   */\n      dup3\n        /* \"#utility.yul\":16187:16280   */\n      tag_305\n      jump\t// in\n    tag_511:\n        /* \"#utility.yul\":16305:16307   */\n      0x20\n        /* \"#utility.yul\":16300:16303   */\n      dup3\n        /* \"#utility.yul\":16296:16308   */\n      add\n        /* \"#utility.yul\":16289:16308   */\n      swap1\n      pop\n        /* \"#utility.yul\":15948:16314   */\n      swap2\n      swap1\n      pop\n      jump\t// out\n        /* \"#utility.yul\":16320:16739   */\n    tag_131:\n        /* \"#utility.yul\":16486:16490   */\n      0x00\n        /* \"#utility.yul\":16524:16526   */\n      0x20\n        /* \"#utility.yul\":16513:16522   */\n      dup3\n        /* \"#utility.yul\":16509:16527   */\n      add\n        /* \"#utility.yul\":16501:16527   */\n      swap1\n      pop\n        /* \"#utility.yul\":16573:16582   */\n      dup2\n        /* \"#utility.yul\":16567:16571   */\n      dup2\n        /* \"#utility.yul\":16563:16583   */\n      sub\n        /* \"#utility.yul\":16559:16560   */\n      0x00\n        /* \"#utility.yul\":16548:16557   */\n      dup4\n        /* \"#utility.yul\":16544:16561   */\n      add\n        /* \"#utility.yul\":16537:16584   */\n      mstore\n        /* \"#utility.yul\":16601:16732   */\n      tag_513\n        /* \"#utility.yul\":16727:16731   */\n      dup2\n        /* \"#utility.yul\":16601:16732   */\n      tag_306\n      jump\t// in\n    tag_513:\n        /* \"#utility.yul\":16593:16732   */\n      swap1\n      pop\n        /* \"#utility.yul\":16320:16739   */\n      swap2\n      swap1\n      pop\n      jump\t// out\n        /* \"#utility.yul\":16745:16918   */\n    tag_307:\n        /* \"#utility.yul\":16885:16910   */\n      0x4164647265737320616c6c726561647920457869737473000000000000000000\n        /* \"#utility.yul\":16881:16882   */\n      0x00\n        /* \"#utility.yul\":16873:16879   */\n      dup3\n        /* \"#utility.yul\":16869:16883   */\n      add\n        /* \"#utility.yul\":16862:16911   */\n      mstore\n        /* \"#utility.yul\":16745:16918   */\n      pop\n      jump\t// out\n        /* \"#utility.yul\":16924:17290   */\n    tag_308:\n        /* \"#utility.yul\":17066:17069   */\n      0x00\n        /* \"#utility.yul\":17087:17154   */\n      tag_516\n        /* \"#utility.yul\":17151:17153   */\n      0x17\n        /* \"#utility.yul\":17146:17149   */\n      dup4\n        /* \"#utility.yul\":17087:17154   */\n      tag_294\n      jump\t// in\n    tag_516:\n        /* \"#utility.yul\":17080:17154   */\n      swap2\n      pop\n        /* \"#utility.yul\":17163:17256   */\n      tag_517\n        /* \"#utility.yul\":17252:17255   */\n      dup3\n        /* \"#utility.yul\":17163:17256   */\n      tag_307\n      jump\t// in\n    tag_517:\n        /* \"#utility.yul\":17281:17283   */\n      0x20\n        /* \"#utility.yul\":17276:17279   */\n      dup3\n        /* \"#utility.yul\":17272:17284   */\n      add\n        /* \"#utility.yul\":17265:17284   */\n      swap1\n      pop\n        /* \"#utility.yul\":16924:17290   */\n      swap2\n      swap1\n      pop\n      jump\t// out\n        /* \"#utility.yul\":17296:17715   */\n    tag_138:\n        /* \"#utility.yul\":17462:17466   */\n      0x00\n        /* \"#utility.yul\":17500:17502   */\n      0x20\n        /* \"#utility.yul\":17489:17498   */\n      dup3\n        /* \"#utility.yul\":17485:17503   */\n      add\n        /* \"#utility.yul\":17477:17503   */\n      swap1\n      pop\n        /* \"#utility.yul\":17549:17558   */\n      dup2\n        /* \"#utility.yul\":17543:17547   */\n      dup2\n        /* \"#utility.yul\":17539:17559   */\n      sub\n        /* \"#utility.yul\":17535:17536   */\n      0x00\n        /* \"#utility.yul\":17524:17533   */\n      dup4\n        /* \"#utility.yul\":17520:17537   */\n      add\n        /* \"#utility.yul\":17513:17560   */\n      mstore\n        /* \"#utility.yul\":17577:17708   */\n      tag_519\n        /* \"#utility.yul\":17703:17707   */\n      dup2\n        /* \"#utility.yul\":17577:17708   */\n      tag_308\n      jump\t// in\n    tag_519:\n        /* \"#utility.yul\":17569:17708   */\n      swap1\n      pop\n        /* \"#utility.yul\":17296:17715   */\n      swap2\n      swap1\n      pop\n      jump\t// out\n        /* \"#utility.yul\":17721:17823   */\n    tag_309:\n        /* \"#utility.yul\":17790:17794   */\n      0x00\n        /* \"#utility.yul\":17813:17816   */\n      dup2\n        /* \"#utility.yul\":17805:17816   */\n      swap1\n      pop\n        /* \"#utility.yul\":17721:17823   */\n      swap2\n      swap1\n      pop\n      jump\t// out\n        /* \"#utility.yul\":17829:17951   */\n    tag_310:\n        /* \"#utility.yul\":17881:17886   */\n      0x00\n        /* \"#utility.yul\":17906:17945   */\n      tag_522\n        /* \"#utility.yul\":17941:17943   */\n      0x20\n        /* \"#utility.yul\":17936:17939   */\n      dup5\n        /* \"#utility.yul\":17932:17944   */\n      add\n        /* \"#utility.yul\":17927:17930   */\n      dup5\n        /* \"#utility.yul\":17906:17945   */\n      tag_264\n      jump\t// in\n    tag_522:\n        /* \"#utility.yul\":17897:17945   */\n      swap1\n      pop\n        /* \"#utility.yul\":17829:17951   */\n      swap3\n      swap2\n      pop\n      pop\n      jump\t// out\n        /* \"#utility.yul\":17957:18072   */\n    tag_311:\n        /* \"#utility.yul\":18029:18033   */\n      0x00\n        /* \"#utility.yul\":18061:18065   */\n      0x20\n        /* \"#utility.yul\":18056:18059   */\n      dup3\n        /* \"#utility.yul\":18052:18066   */\n      add\n        /* \"#utility.yul\":18044:18066   */\n      swap1\n      pop\n        /* \"#utility.yul\":17957:18072   */\n      swap2\n      swap1\n      pop\n      jump\t// out\n        /* \"#utility.yul\":18108:18807   */\n    tag_312:\n        /* \"#utility.yul\":18237:18240   */\n      0x00\n        /* \"#utility.yul\":18260:18346   */\n      tag_525\n        /* \"#utility.yul\":18339:18345   */\n      dup4\n        /* \"#utility.yul\":18334:18337   */\n      dup6\n        /* \"#utility.yul\":18260:18346   */\n      tag_268\n      jump\t// in\n    tag_525:\n        /* \"#utility.yul\":18253:18346   */\n      swap4\n      pop\n        /* \"#utility.yul\":18370:18428   */\n      tag_526\n        /* \"#utility.yul\":18422:18427   */\n      dup3\n        /* \"#utility.yul\":18370:18428   */\n      tag_309\n      jump\t// in\n    tag_526:\n        /* \"#utility.yul\":18451:18458   */\n      dup1\n        /* \"#utility.yul\":18482:18483   */\n      0x00\n        /* \"#utility.yul\":18467:18782   */\n    tag_527:\n        /* \"#utility.yul\":18492:18498   */\n      dup6\n        /* \"#utility.yul\":18489:18490   */\n      dup2\n        /* \"#utility.yul\":18486:18499   */\n      lt\n        /* \"#utility.yul\":18467:18782   */\n      iszero\n      tag_529\n      jumpi\n        /* \"#utility.yul\":18562:18604   */\n      tag_530\n        /* \"#utility.yul\":18597:18603   */\n      dup3\n        /* \"#utility.yul\":18588:18595   */\n      dup5\n        /* \"#utility.yul\":18562:18604   */\n      tag_310\n      jump\t// in\n    tag_530:\n        /* \"#utility.yul\":18624:18687   */\n      tag_531\n        /* \"#utility.yul\":18683:18686   */\n      dup9\n        /* \"#utility.yul\":18668:18681   */\n      dup3\n        /* \"#utility.yul\":18624:18687   */\n      tag_271\n      jump\t// in\n    tag_531:\n        /* \"#utility.yul\":18617:18687   */\n      swap8\n      pop\n        /* \"#utility.yul\":18710:18772   */\n      tag_532\n        /* \"#utility.yul\":18765:18771   */\n      dup4\n        /* \"#utility.yul\":18710:18772   */\n      tag_311\n      jump\t// in\n    tag_532:\n        /* \"#utility.yul\":18700:18772   */\n      swap3\n      pop\n        /* \"#utility.yul\":18527:18782   */\n      pop\n        /* \"#utility.yul\":18514:18515   */\n      0x01\n        /* \"#utility.yul\":18511:18512   */\n      dup2\n        /* \"#utility.yul\":18507:18516   */\n      add\n        /* \"#utility.yul\":18502:18516   */\n      swap1\n      pop\n        /* \"#utility.yul\":18467:18782   */\n      jump(tag_527)\n    tag_529:\n        /* \"#utility.yul\":18471:18485   */\n      pop\n        /* \"#utility.yul\":18798:18801   */\n      dup6\n        /* \"#utility.yul\":18791:18801   */\n      swap3\n      pop\n        /* \"#utility.yul\":18242:18807   */\n      pop\n      pop\n        /* \"#utility.yul\":18108:18807   */\n      swap4\n      swap3\n      pop\n      pop\n      pop\n      jump\t// out\n        /* \"#utility.yul\":18813:19206   */\n    tag_144:\n        /* \"#utility.yul\":18966:18970   */\n      0x00\n        /* \"#utility.yul\":19004:19006   */\n      0x20\n        /* \"#utility.yul\":18993:19002   */\n      dup3\n        /* \"#utility.yul\":18989:19007   */\n      add\n        /* \"#utility.yul\":18981:19007   */\n      swap1\n      pop\n        /* \"#utility.yul\":19053:19062   */\n      dup2\n        /* \"#utility.yul\":19047:19051   */\n      dup2\n        /* \"#utility.yul\":19043:19063   */\n      sub\n        /* \"#utility.yul\":19039:19040   */\n      0x00\n        /* \"#utility.yul\":19028:19037   */\n      dup4\n        /* \"#utility.yul\":19024:19041   */\n      add\n        /* \"#utility.yul\":19017:19064   */\n      mstore\n        /* \"#utility.yul\":19081:19199   */\n      tag_534\n        /* \"#utility.yul\":19194:19198   */\n      dup2\n        /* \"#utility.yul\":19185:19191   */\n      dup5\n        /* \"#utility.yul\":19177:19183   */\n      dup7\n        /* \"#utility.yul\":19081:19199   */\n      tag_312\n      jump\t// in\n    tag_534:\n        /* \"#utility.yul\":19073:19199   */\n      swap1\n      pop\n        /* \"#utility.yul\":18813:19206   */\n      swap4\n      swap3\n      pop\n      pop\n      pop\n      jump\t// out\n        /* \"#utility.yul\":19212:19374   */\n    tag_313:\n        /* \"#utility.yul\":19352:19366   */\n      0x5a65726f20616464726573730000000000000000000000000000000000000000\n        /* \"#utility.yul\":19348:19349   */\n      0x00\n        /* \"#utility.yul\":19340:19346   */\n      dup3\n        /* \"#utility.yul\":19336:19350   */\n      add\n        /* \"#utility.yul\":19329:19367   */\n      mstore\n        /* \"#utility.yul\":19212:19374   */\n      pop\n      jump\t// out\n        /* \"#utility.yul\":19380:19746   */\n    tag_314:\n        /* \"#utility.yul\":19522:19525   */\n      0x00\n        /* \"#utility.yul\":19543:19610   */\n      tag_537\n        /* \"#utility.yul\":19607:19609   */\n      0x0c\n        /* \"#utility.yul\":19602:19605   */\n      dup4\n        /* \"#utility.yul\":19543:19610   */\n      tag_294\n      jump\t// in\n    tag_537:\n        /* \"#utility.yul\":19536:19610   */\n      swap2\n      pop\n        /* \"#utility.yul\":19619:19712   */\n      tag_538\n        /* \"#utility.yul\":19708:19711   */\n      dup3\n        /* \"#utility.yul\":19619:19712   */\n      tag_313\n      jump\t// in\n    tag_538:\n        /* \"#utility.yul\":19737:19739   */\n      0x20\n        /* \"#utility.yul\":19732:19735   */\n      dup3\n        /* \"#utility.yul\":19728:19740   */\n      add\n        /* \"#utility.yul\":19721:19740   */\n      swap1\n      pop\n        /* \"#utility.yul\":19380:19746   */\n      swap2\n      swap1\n      pop\n      jump\t// out\n        /* \"#utility.yul\":19752:20171   */\n    tag_150:\n        /* \"#utility.yul\":19918:19922   */\n      0x00\n        /* \"#utility.yul\":19956:19958   */\n      0x20\n        /* \"#utility.yul\":19945:19954   */\n      dup3\n        /* \"#utility.yul\":19941:19959   */\n      add\n        /* \"#utility.yul\":19933:19959   */\n      swap1\n      pop\n        /* \"#utility.yul\":20005:20014   */\n      dup2\n        /* \"#utility.yul\":19999:20003   */\n      dup2\n        /* \"#utility.yul\":19995:20015   */\n      sub\n        /* \"#utility.yul\":19991:19992   */\n      0x00\n        /* \"#utility.yul\":19980:19989   */\n      dup4\n        /* \"#utility.yul\":19976:19993   */\n      add\n        /* \"#utility.yul\":19969:20016   */\n      mstore\n        /* \"#utility.yul\":20033:20164   */\n      tag_540\n        /* \"#utility.yul\":20159:20163   */\n      dup2\n        /* \"#utility.yul\":20033:20164   */\n      tag_314\n      jump\t// in\n    tag_540:\n        /* \"#utility.yul\":20025:20164   */\n      swap1\n      pop\n        /* \"#utility.yul\":19752:20171   */\n      swap2\n      swap1\n      pop\n      jump\t// out\n        /* \"#utility.yul\":20177:20349   */\n    tag_315:\n        /* \"#utility.yul\":20317:20341   */\n      0x4e6f2077686974656c6973746564206164647265737300000000000000000000\n        /* \"#utility.yul\":20313:20314   */\n      0x00\n        /* \"#utility.yul\":20305:20311   */\n      dup3\n        /* \"#utility.yul\":20301:20315   */\n      add\n        /* \"#utility.yul\":20294:20342   */\n      mstore\n        /* \"#utility.yul\":20177:20349   */\n      pop\n      jump\t// out\n        /* \"#utility.yul\":20355:20721   */\n    tag_316:\n        /* \"#utility.yul\":20497:20500   */\n      0x00\n        /* \"#utility.yul\":20518:20585   */\n      tag_543\n        /* \"#utility.yul\":20582:20584   */\n      0x16\n        /* \"#utility.yul\":20577:20580   */\n      dup4\n        /* \"#utility.yul\":20518:20585   */\n      tag_294\n      jump\t// in\n    tag_543:\n        /* \"#utility.yul\":20511:20585   */\n      swap2\n      pop\n        /* \"#utility.yul\":20594:20687   */\n      tag_544\n        /* \"#utility.yul\":20683:20686   */\n      dup3\n        /* \"#utility.yul\":20594:20687   */\n      tag_315\n      jump\t// in\n    tag_544:\n        /* \"#utility.yul\":20712:20714   */\n      0x20\n        /* \"#utility.yul\":20707:20710   */\n      dup3\n        /* \"#utility.yul\":20703:20715   */\n      add\n        /* \"#utility.yul\":20696:20715   */\n      swap1\n      pop\n        /* \"#utility.yul\":20355:20721   */\n      swap2\n      swap1\n      pop\n      jump\t// out\n        /* \"#utility.yul\":20727:21146   */\n    tag_153:\n        /* \"#utility.yul\":20893:20897   */\n      0x00\n        /* \"#utility.yul\":20931:20933   */\n      0x20\n        /* \"#utility.yul\":20920:20929   */\n      dup3\n        /* \"#utility.yul\":20916:20934   */\n      add\n        /* \"#utility.yul\":20908:20934   */\n      swap1\n      pop\n        /* \"#utility.yul\":20980:20989   */\n      dup2\n        /* \"#utility.yul\":20974:20978   */\n      dup2\n        /* \"#utility.yul\":20970:20990   */\n      sub\n        /* \"#utility.yul\":20966:20967   */\n      0x00\n        /* \"#utility.yul\":20955:20964   */\n      dup4\n        /* \"#utility.yul\":20951:20968   */\n      add\n        /* \"#utility.yul\":20944:20991   */\n      mstore\n        /* \"#utility.yul\":21008:21139   */\n      tag_546\n        /* \"#utility.yul\":21134:21138   */\n      dup2\n        /* \"#utility.yul\":21008:21139   */\n      tag_316\n      jump\t// in\n    tag_546:\n        /* \"#utility.yul\":21000:21139   */\n      swap1\n      pop\n        /* \"#utility.yul\":20727:21146   */\n      swap2\n      swap1\n      pop\n      jump\t// out\n        /* \"#utility.yul\":21152:21442   */\n    tag_317:\n        /* \"#utility.yul\":21292:21326   */\n      0x4e756d626572206f6620546f6b656e7320616e64206e756d626572206f662077\n        /* \"#utility.yul\":21288:21289   */\n      0x00\n        /* \"#utility.yul\":21280:21286   */\n      dup3\n        /* \"#utility.yul\":21276:21290   */\n      add\n        /* \"#utility.yul\":21269:21327   */\n      mstore\n        /* \"#utility.yul\":21361:21395   */\n      0x686974656c69737465642061646472657373657320617265206e6f7420657175\n        /* \"#utility.yul\":21356:21358   */\n      0x20\n        /* \"#utility.yul\":21348:21354   */\n      dup3\n        /* \"#utility.yul\":21344:21359   */\n      add\n        /* \"#utility.yul\":21337:21396   */\n      mstore\n        /* \"#utility.yul\":21430:21434   */\n      0x616c000000000000000000000000000000000000000000000000000000000000\n        /* \"#utility.yul\":21425:21427   */\n      0x40\n        /* \"#utility.yul\":21417:21423   */\n      dup3\n        /* \"#utility.yul\":21413:21428   */\n      add\n        /* \"#utility.yul\":21406:21435   */\n      mstore\n        /* \"#utility.yul\":21152:21442   */\n      pop\n      jump\t// out\n        /* \"#utility.yul\":21448:21814   */\n    tag_318:\n        /* \"#utility.yul\":21590:21593   */\n      0x00\n        /* \"#utility.yul\":21611:21678   */\n      tag_549\n        /* \"#utility.yul\":21675:21677   */\n      0x42\n        /* \"#utility.yul\":21670:21673   */\n      dup4\n        /* \"#utility.yul\":21611:21678   */\n      tag_294\n      jump\t// in\n    tag_549:\n        /* \"#utility.yul\":21604:21678   */\n      swap2\n      pop\n        /* \"#utility.yul\":21687:21780   */\n      tag_550\n        /* \"#utility.yul\":21776:21779   */\n      dup3\n        /* \"#utility.yul\":21687:21780   */\n      tag_317\n      jump\t// in\n    tag_550:\n        /* \"#utility.yul\":21805:21807   */\n      0x60\n        /* \"#utility.yul\":21800:21803   */\n      dup3\n        /* \"#utility.yul\":21796:21808   */\n      add\n        /* \"#utility.yul\":21789:21808   */\n      swap1\n      pop\n        /* \"#utility.yul\":21448:21814   */\n      swap2\n      swap1\n      pop\n      jump\t// out\n        /* \"#utility.yul\":21820:22239   */\n    tag_156:\n        /* \"#utility.yul\":21986:21990   */\n      0x00\n        /* \"#utility.yul\":22024:22026   */\n      0x20\n        /* \"#utility.yul\":22013:22022   */\n      dup3\n        /* \"#utility.yul\":22009:22027   */\n      add\n        /* \"#utility.yul\":22001:22027   */\n      swap1\n      pop\n        /* \"#utility.yul\":22073:22082   */\n      dup2\n        /* \"#utility.yul\":22067:22071   */\n      dup2\n        /* \"#utility.yul\":22063:22083   */\n      sub\n        /* \"#utility.yul\":22059:22060   */\n      0x00\n        /* \"#utility.yul\":22048:22057   */\n      dup4\n        /* \"#utility.yul\":22044:22061   */\n      add\n        /* \"#utility.yul\":22037:22084   */\n      mstore\n        /* \"#utility.yul\":22101:22232   */\n      tag_552\n        /* \"#utility.yul\":22227:22231   */\n      dup2\n        /* \"#utility.yul\":22101:22232   */\n      tag_318\n      jump\t// in\n    tag_552:\n        /* \"#utility.yul\":22093:22232   */\n      swap1\n      pop\n        /* \"#utility.yul\":21820:22239   */\n      swap2\n      swap1\n      pop\n      jump\t// out\n        /* \"#utility.yul\":22245:22356   */\n    tag_319:\n        /* \"#utility.yul\":22309:22315   */\n      0x00\n        /* \"#utility.yul\":22343:22348   */\n      dup2\n        /* \"#utility.yul\":22337:22349   */\n      sload\n        /* \"#utility.yul\":22327:22349   */\n      swap1\n      pop\n        /* \"#utility.yul\":22245:22356   */\n      swap2\n      swap1\n      pop\n      jump\t// out\n        /* \"#utility.yul\":22362:22518   */\n    tag_320:\n        /* \"#utility.yul\":22426:22430   */\n      0x00\n        /* \"#utility.yul\":22449:22452   */\n      dup2\n        /* \"#utility.yul\":22441:22452   */\n      swap1\n      pop\n        /* \"#utility.yul\":22472:22475   */\n      dup2\n        /* \"#utility.yul\":22469:22470   */\n      0x00\n        /* \"#utility.yul\":22462:22476   */\n      mstore\n        /* \"#utility.yul\":22506:22510   */\n      0x20\n        /* \"#utility.yul\":22503:22504   */\n      0x00\n        /* \"#utility.yul\":22493:22511   */\n      keccak256\n        /* \"#utility.yul\":22485:22511   */\n      swap1\n      pop\n        /* \"#utility.yul\":22362:22518   */\n      swap2\n      swap1\n      pop\n      jump\t// out\n        /* \"#utility.yul\":22524:22626   */\n    tag_321:\n        /* \"#utility.yul\":22566:22574   */\n      0x00\n        /* \"#utility.yul\":22613:22618   */\n      dup2\n        /* \"#utility.yul\":22610:22611   */\n      0x00\n        /* \"#utility.yul\":22606:22619   */\n      shr\n        /* \"#utility.yul\":22585:22619   */\n      swap1\n      pop\n        /* \"#utility.yul\":22524:22626   */\n      swap2\n      swap1\n      pop\n      jump\t// out\n        /* \"#utility.yul\":22632:22771   */\n    tag_322:\n        /* \"#utility.yul\":22682:22689   */\n      0x00\n        /* \"#utility.yul\":22722:22764   */\n      0xffffffffffffffffffffffffffffffffffffffff\n        /* \"#utility.yul\":22715:22720   */\n      dup3\n        /* \"#utility.yul\":22711:22765   */\n      and\n        /* \"#utility.yul\":22700:22765   */\n      swap1\n      pop\n        /* \"#utility.yul\":22632:22771   */\n      swap2\n      swap1\n      pop\n      jump\t// out\n        /* \"#utility.yul\":22777:22943   */\n    tag_323:\n        /* \"#utility.yul\":22846:22851   */\n      0x00\n        /* \"#utility.yul\":22871:22937   */\n      tag_558\n        /* \"#utility.yul\":22902:22936   */\n      tag_559\n        /* \"#utility.yul\":22925:22935   */\n      dup4\n        /* \"#utility.yul\":22902:22936   */\n      tag_321\n      jump\t// in\n    tag_559:\n        /* \"#utility.yul\":22871:22937   */\n      tag_322\n      jump\t// in\n    tag_558:\n        /* \"#utility.yul\":22862:22937   */\n      swap1\n      pop\n        /* \"#utility.yul\":22777:22943   */\n      swap2\n      swap1\n      pop\n      jump\t// out\n        /* \"#utility.yul\":22949:23093   */\n    tag_324:\n        /* \"#utility.yul\":23004:23009   */\n      0x00\n        /* \"#utility.yul\":23029:23086   */\n      tag_561\n        /* \"#utility.yul\":23080:23084   */\n      dup3\n        /* \"#utility.yul\":23074:23085   */\n      sload\n        /* \"#utility.yul\":23029:23086   */\n      tag_323\n      jump\t// in\n    tag_561:\n        /* \"#utility.yul\":23020:23086   */\n      swap1\n      pop\n        /* \"#utility.yul\":22949:23093   */\n      swap2\n      swap1\n      pop\n      jump\t// out\n        /* \"#utility.yul\":23099:23209   */\n    tag_325:\n        /* \"#utility.yul\":23166:23170   */\n      0x00\n        /* \"#utility.yul\":23198:23202   */\n      0x01\n        /* \"#utility.yul\":23193:23196   */\n      dup3\n        /* \"#utility.yul\":23189:23203   */\n      add\n        /* \"#utility.yul\":23181:23203   */\n      swap1\n      pop\n        /* \"#utility.yul\":23099:23209   */\n      swap2\n      swap1\n      pop\n      jump\t// out\n        /* \"#utility.yul\":23245:23996   */\n    tag_326:\n        /* \"#utility.yul\":23361:23364   */\n      0x00\n        /* \"#utility.yul\":23390:23441   */\n      tag_564\n        /* \"#utility.yul\":23435:23440   */\n      dup3\n        /* \"#utility.yul\":23390:23441   */\n      tag_319\n      jump\t// in\n    tag_564:\n        /* \"#utility.yul\":23457:23543   */\n      tag_565\n        /* \"#utility.yul\":23536:23542   */\n      dup2\n        /* \"#utility.yul\":23531:23534   */\n      dup6\n        /* \"#utility.yul\":23457:23543   */\n      tag_268\n      jump\t// in\n    tag_565:\n        /* \"#utility.yul\":23450:23543   */\n      swap4\n      pop\n        /* \"#utility.yul\":23567:23620   */\n      tag_566\n        /* \"#utility.yul\":23614:23619   */\n      dup4\n        /* \"#utility.yul\":23567:23620   */\n      tag_320\n      jump\t// in\n    tag_566:\n        /* \"#utility.yul\":23643:23650   */\n      dup1\n        /* \"#utility.yul\":23674:23675   */\n      0x00\n        /* \"#utility.yul\":23659:23971   */\n    tag_567:\n        /* \"#utility.yul\":23684:23690   */\n      dup4\n        /* \"#utility.yul\":23681:23682   */\n      dup2\n        /* \"#utility.yul\":23678:23691   */\n      lt\n        /* \"#utility.yul\":23659:23971   */\n      iszero\n      tag_569\n      jumpi\n        /* \"#utility.yul\":23754:23798   */\n      tag_570\n        /* \"#utility.yul\":23791:23797   */\n      dup3\n        /* \"#utility.yul\":23754:23798   */\n      tag_324\n      jump\t// in\n    tag_570:\n        /* \"#utility.yul\":23818:23881   */\n      tag_571\n        /* \"#utility.yul\":23877:23880   */\n      dup9\n        /* \"#utility.yul\":23862:23875   */\n      dup3\n        /* \"#utility.yul\":23818:23881   */\n      tag_271\n      jump\t// in\n    tag_571:\n        /* \"#utility.yul\":23811:23881   */\n      swap8\n      pop\n        /* \"#utility.yul\":23904:23961   */\n      tag_572\n        /* \"#utility.yul\":23954:23960   */\n      dup4\n        /* \"#utility.yul\":23904:23961   */\n      tag_325\n      jump\t// in\n    tag_572:\n        /* \"#utility.yul\":23894:23961   */\n      swap3\n      pop\n        /* \"#utility.yul\":23719:23971   */\n      pop\n        /* \"#utility.yul\":23706:23707   */\n      0x01\n        /* \"#utility.yul\":23703:23704   */\n      dup2\n        /* \"#utility.yul\":23699:23708   */\n      add\n        /* \"#utility.yul\":23694:23708   */\n      swap1\n      pop\n        /* \"#utility.yul\":23659:23971   */\n      jump(tag_567)\n    tag_569:\n        /* \"#utility.yul\":23663:23677   */\n      pop\n        /* \"#utility.yul\":23987:23990   */\n      dup6\n        /* \"#utility.yul\":23980:23990   */\n      swap4\n      pop\n        /* \"#utility.yul\":23366:23996   */\n      pop\n      pop\n      pop\n        /* \"#utility.yul\":23245:23996   */\n      swap3\n      swap2\n      pop\n      pop\n      jump\t// out\n        /* \"#utility.yul\":24002:24186   */\n    tag_327:\n        /* \"#utility.yul\":24101:24112   */\n      0x00\n        /* \"#utility.yul\":24135:24141   */\n      dup3\n        /* \"#utility.yul\":24130:24133   */\n      dup3\n        /* \"#utility.yul\":24123:24142   */\n      mstore\n        /* \"#utility.yul\":24175:24179   */\n      0x20\n        /* \"#utility.yul\":24170:24173   */\n      dup3\n        /* \"#utility.yul\":24166:24180   */\n      add\n        /* \"#utility.yul\":24151:24180   */\n      swap1\n      pop\n        /* \"#utility.yul\":24002:24186   */\n      swap3\n      swap2\n      pop\n      pop\n      jump\t// out\n        /* \"#utility.yul\":24192:24309   */\n    tag_328:\n        /* \"#utility.yul\":24301:24302   */\n      0x00\n        /* \"#utility.yul\":24298:24299   */\n      dup1\n        /* \"#utility.yul\":24291:24303   */\n      revert\n        /* \"#utility.yul\":24315:24414   */\n    tag_329:\n        /* \"#utility.yul\":24400:24406   */\n      dup3\n        /* \"#utility.yul\":24395:24398   */\n      dup2\n        /* \"#utility.yul\":24390:24393   */\n      dup4\n        /* \"#utility.yul\":24377:24407   */\n      calldatacopy\n        /* \"#utility.yul\":24315:24414   */\n      pop\n      pop\n      pop\n      jump\t// out\n        /* \"#utility.yul\":24450:24987   */\n    tag_330:\n        /* \"#utility.yul\":24578:24581   */\n      0x00\n        /* \"#utility.yul\":24599:24685   */\n      tag_577\n        /* \"#utility.yul\":24678:24684   */\n      dup4\n        /* \"#utility.yul\":24673:24676   */\n      dup6\n        /* \"#utility.yul\":24599:24685   */\n      tag_327\n      jump\t// in\n    tag_577:\n        /* \"#utility.yul\":24592:24685   */\n      swap4\n      pop\n        /* \"#utility.yul\":24709:24775   */\n      0x07ffffffffffffffffffffffffffffffffffffffffffffffffffffffffffffff\n        /* \"#utility.yul\":24701:24707   */\n      dup4\n        /* \"#utility.yul\":24698:24776   */\n      gt\n        /* \"#utility.yul\":24695:24860   */\n      iszero\n      tag_578\n      jumpi\n        /* \"#utility.yul\":24779:24858   */\n      tag_579\n      tag_328\n      jump\t// in\n    tag_579:\n        /* \"#utility.yul\":24695:24860   */\n    tag_578:\n        /* \"#utility.yul\":24891:24895   */\n      0x20\n        /* \"#utility.yul\":24883:24889   */\n      dup4\n        /* \"#utility.yul\":24879:24896   */\n      mul\n        /* \"#utility.yul\":24869:24896   */\n      swap3\n      pop\n        /* \"#utility.yul\":24906:24949   */\n      tag_580\n        /* \"#utility.yul\":24942:24948   */\n      dup4\n        /* \"#utility.yul\":24937:24940   */\n      dup6\n        /* \"#utility.yul\":24930:24935   */\n      dup5\n        /* \"#utility.yul\":24906:24949   */\n      tag_329\n      jump\t// in\n    tag_580:\n        /* \"#utility.yul\":24974:24980   */\n      dup3\n        /* \"#utility.yul\":24969:24972   */\n      dup5\n        /* \"#utility.yul\":24965:24981   */\n      add\n        /* \"#utility.yul\":24958:24981   */\n      swap1\n      pop\n        /* \"#utility.yul\":24450:24987   */\n      swap4\n      swap3\n      pop\n      pop\n      pop\n      jump\t// out\n        /* \"#utility.yul\":24993:25641   */\n    tag_160:\n        /* \"#utility.yul\":25221:25225   */\n      0x00\n        /* \"#utility.yul\":25259:25261   */\n      0x40\n        /* \"#utility.yul\":25248:25257   */\n      dup3\n        /* \"#utility.yul\":25244:25262   */\n      add\n        /* \"#utility.yul\":25236:25262   */\n      swap1\n      pop\n        /* \"#utility.yul\":25308:25317   */\n      dup2\n        /* \"#utility.yul\":25302:25306   */\n      dup2\n        /* \"#utility.yul\":25298:25318   */\n      sub\n        /* \"#utility.yul\":25294:25295   */\n      0x00\n        /* \"#utility.yul\":25283:25292   */\n      dup4\n        /* \"#utility.yul\":25279:25296   */\n      add\n        /* \"#utility.yul\":25272:25319   */\n      mstore\n        /* \"#utility.yul\":25336:25441   */\n      tag_582\n        /* \"#utility.yul\":25436:25440   */\n      dup2\n        /* \"#utility.yul\":25427:25433   */\n      dup7\n        /* \"#utility.yul\":25336:25441   */\n      tag_326\n      jump\t// in\n    tag_582:\n        /* \"#utility.yul\":25328:25441   */\n      swap1\n      pop\n        /* \"#utility.yul\":25488:25497   */\n      dup2\n        /* \"#utility.yul\":25482:25486   */\n      dup2\n        /* \"#utility.yul\":25478:25498   */\n      sub\n        /* \"#utility.yul\":25473:25475   */\n      0x20\n        /* \"#utility.yul\":25462:25471   */\n      dup4\n        /* \"#utility.yul\":25458:25476   */\n      add\n        /* \"#utility.yul\":25451:25499   */\n      mstore\n        /* \"#utility.yul\":25516:25634   */\n      tag_583\n        /* \"#utility.yul\":25629:25633   */\n      dup2\n        /* \"#utility.yul\":25620:25626   */\n      dup5\n        /* \"#utility.yul\":25612:25618   */\n      dup7\n        /* \"#utility.yul\":25516:25634   */\n      tag_330\n      jump\t// in\n    tag_583:\n        /* \"#utility.yul\":25508:25634   */\n      swap1\n      pop\n        /* \"#utility.yul\":24993:25641   */\n      swap5\n      swap4\n      pop\n      pop\n      pop\n      pop\n      jump\t// out\n        /* \"#utility.yul\":25647:25816   */\n    tag_331:\n        /* \"#utility.yul\":25787:25808   */\n      0x416c6c7265616479205472616e73666572656400000000000000000000000000\n        /* \"#utility.yul\":25783:25784   */\n      0x00\n        /* \"#utility.yul\":25775:25781   */\n      dup3\n        /* \"#utility.yul\":25771:25785   */\n      add\n        /* \"#utility.yul\":25764:25809   */\n      mstore\n        /* \"#utility.yul\":25647:25816   */\n      pop\n      jump\t// out\n        /* \"#utility.yul\":25822:26188   */\n    tag_332:\n        /* \"#utility.yul\":25964:25967   */\n      0x00\n        /* \"#utility.yul\":25985:26052   */\n      tag_586\n        /* \"#utility.yul\":26049:26051   */\n      0x13\n        /* \"#utility.yul\":26044:26047   */\n      dup4\n        /* \"#utility.yul\":25985:26052   */\n      tag_294\n      jump\t// in\n    tag_586:\n        /* \"#utility.yul\":25978:26052   */\n      swap2\n      pop\n        /* \"#utility.yul\":26061:26154   */\n      tag_587\n        /* \"#utility.yul\":26150:26153   */\n      dup3\n        /* \"#utility.yul\":26061:26154   */\n      tag_331\n      jump\t// in\n    tag_587:\n        /* \"#utility.yul\":26179:26181   */\n      0x20\n        /* \"#utility.yul\":26174:26177   */\n      dup3\n        /* \"#utility.yul\":26170:26182   */\n      add\n        /* \"#utility.yul\":26163:26182   */\n      swap1\n      pop\n        /* \"#utility.yul\":25822:26188   */\n      swap2\n      swap1\n      pop\n      jump\t// out\n        /* \"#utility.yul\":26194:26613   */\n    tag_171:\n        /* \"#utility.yul\":26360:26364   */\n      0x00\n        /* \"#utility.yul\":26398:26400   */\n      0x20\n        /* \"#utility.yul\":26387:26396   */\n      dup3\n        /* \"#utility.yul\":26383:26401   */\n      add\n        /* \"#utility.yul\":26375:26401   */\n      swap1\n      pop\n        /* \"#utility.yul\":26447:26456   */\n      dup2\n        /* \"#utility.yul\":26441:26445   */\n      dup2\n        /* \"#utility.yul\":26437:26457   */\n      sub\n        /* \"#utility.yul\":26433:26434   */\n      0x00\n        /* \"#utility.yul\":26422:26431   */\n      dup4\n        /* \"#utility.yul\":26418:26435   */\n      add\n        /* \"#utility.yul\":26411:26458   */\n      mstore\n        /* \"#utility.yul\":26475:26606   */\n      tag_589\n        /* \"#utility.yul\":26601:26605   */\n      dup2\n        /* \"#utility.yul\":26475:26606   */\n      tag_332\n      jump\t// in\n    tag_589:\n        /* \"#utility.yul\":26467:26606   */\n      swap1\n      pop\n        /* \"#utility.yul\":26194:26613   */\n      swap2\n      swap1\n      pop\n      jump\t// out\n        /* \"#utility.yul\":26619:26762   */\n    tag_333:\n        /* \"#utility.yul\":26676:26681   */\n      0x00\n        /* \"#utility.yul\":26707:26713   */\n      dup2\n        /* \"#utility.yul\":26701:26714   */\n      mload\n        /* \"#utility.yul\":26692:26714   */\n      swap1\n      pop\n        /* \"#utility.yul\":26723:26756   */\n      tag_591\n        /* \"#utility.yul\":26750:26755   */\n      dup2\n        /* \"#utility.yul\":26723:26756   */\n      tag_275\n      jump\t// in\n    tag_591:\n        /* \"#utility.yul\":26619:26762   */\n      swap3\n      swap2\n      pop\n      pop\n      jump\t// out\n        /* \"#utility.yul\":26768:27119   */\n    tag_179:\n        /* \"#utility.yul\":26838:26844   */\n      0x00\n        /* \"#utility.yul\":26887:26889   */\n      0x20\n        /* \"#utility.yul\":26875:26884   */\n      dup3\n        /* \"#utility.yul\":26866:26873   */\n      dup5\n        /* \"#utility.yul\":26862:26885   */\n      sub\n        /* \"#utility.yul\":26858:26890   */\n      slt\n        /* \"#utility.yul\":26855:26974   */\n      iszero\n      tag_593\n      jumpi\n        /* \"#utility.yul\":26893:26972   */\n      tag_594\n      tag_259\n      jump\t// in\n    tag_594:\n        /* \"#utility.yul\":26855:26974   */\n    tag_593:\n        /* \"#utility.yul\":27013:27014   */\n      0x00\n        /* \"#utility.yul\":27038:27102   */\n      tag_595\n        /* \"#utility.yul\":27094:27101   */\n      dup5\n        /* \"#utility.yul\":27085:27091   */\n      dup3\n        /* \"#utility.yul\":27074:27083   */\n      dup6\n        /* \"#utility.yul\":27070:27092   */\n      add\n        /* \"#utility.yul\":27038:27102   */\n      tag_333\n      jump\t// in\n    tag_595:\n        /* \"#utility.yul\":27028:27102   */\n      swap2\n      pop\n        /* \"#utility.yul\":26984:27112   */\n      pop\n        /* \"#utility.yul\":26768:27119   */\n      swap3\n      swap2\n      pop\n      pop\n      jump\t// out\n        /* \"#utility.yul\":27125:27293   */\n    tag_334:\n        /* \"#utility.yul\":27265:27285   */\n      0x4e6f7420656e6f7567682062616c616e63650000000000000000000000000000\n        /* \"#utility.yul\":27261:27262   */\n      0x00\n        /* \"#utility.yul\":27253:27259   */\n      dup3\n        /* \"#utility.yul\":27249:27263   */\n      add\n        /* \"#utility.yul\":27242:27286   */\n      mstore\n        /* \"#utility.yul\":27125:27293   */\n      pop\n      jump\t// out\n        /* \"#utility.yul\":27299:27665   */\n    tag_335:\n        /* \"#utility.yul\":27441:27444   */\n      0x00\n        /* \"#utility.yul\":27462:27529   */\n      tag_598\n        /* \"#utility.yul\":27526:27528   */\n      0x12\n        /* \"#utility.yul\":27521:27524   */\n      dup4\n        /* \"#utility.yul\":27462:27529   */\n      tag_294\n      jump\t// in\n    tag_598:\n        /* \"#utility.yul\":27455:27529   */\n      swap2\n      pop\n        /* \"#utility.yul\":27538:27631   */\n      tag_599\n        /* \"#utility.yul\":27627:27630   */\n      dup3\n        /* \"#utility.yul\":27538:27631   */\n      tag_334\n      jump\t// in\n    tag_599:\n        /* \"#utility.yul\":27656:27658   */\n      0x20\n        /* \"#utility.yul\":27651:27654   */\n      dup3\n        /* \"#utility.yul\":27647:27659   */\n      add\n        /* \"#utility.yul\":27640:27659   */\n      swap1\n      pop\n        /* \"#utility.yul\":27299:27665   */\n      swap2\n      swap1\n      pop\n      jump\t// out\n        /* \"#utility.yul\":27671:28090   */\n    tag_182:\n        /* \"#utility.yul\":27837:27841   */\n      0x00\n        /* \"#utility.yul\":27875:27877   */\n      0x20\n        /* \"#utility.yul\":27864:27873   */\n      dup3\n        /* \"#utility.yul\":27860:27878   */\n      add\n        /* \"#utility.yul\":27852:27878   */\n      swap1\n      pop\n        /* \"#utility.yul\":27924:27933   */\n      dup2\n        /* \"#utility.yul\":27918:27922   */\n      dup2\n        /* \"#utility.yul\":27914:27934   */\n      sub\n        /* \"#utility.yul\":27910:27911   */\n      0x00\n        /* \"#utility.yul\":27899:27908   */\n      dup4\n        /* \"#utility.yul\":27895:27912   */\n      add\n        /* \"#utility.yul\":27888:27935   */\n      mstore\n        /* \"#utility.yul\":27952:28083   */\n      tag_601\n        /* \"#utility.yul\":28078:28082   */\n      dup2\n        /* \"#utility.yul\":27952:28083   */\n      tag_335\n      jump\t// in\n    tag_601:\n        /* \"#utility.yul\":27944:28083   */\n      swap1\n      pop\n        /* \"#utility.yul\":27671:28090   */\n      swap2\n      swap1\n      pop\n      jump\t// out\n        /* \"#utility.yul\":28096:28318   */\n    tag_187:\n        /* \"#utility.yul\":28189:28193   */\n      0x00\n        /* \"#utility.yul\":28227:28229   */\n      0x20\n        /* \"#utility.yul\":28216:28225   */\n      dup3\n        /* \"#utility.yul\":28212:28230   */\n      add\n        /* \"#utility.yul\":28204:28230   */\n      swap1\n      pop\n        /* \"#utility.yul\":28240:28311   */\n      tag_603\n        /* \"#utility.yul\":28308:28309   */\n      0x00\n        /* \"#utility.yul\":28297:28306   */\n      dup4\n        /* \"#utility.yul\":28293:28310   */\n      add\n        /* \"#utility.yul\":28284:28290   */\n      dup5\n        /* \"#utility.yul\":28240:28311   */\n      tag_298\n      jump\t// in\n    tag_603:\n        /* \"#utility.yul\":28096:28318   */\n      swap3\n      swap2\n      pop\n      pop\n      jump\t// out\n        /* \"#utility.yul\":28324:28467   */\n    tag_336:\n        /* \"#utility.yul\":28381:28386   */\n      0x00\n        /* \"#utility.yul\":28412:28418   */\n      dup2\n        /* \"#utility.yul\":28406:28419   */\n      mload\n        /* \"#utility.yul\":28397:28419   */\n      swap1\n      pop\n        /* \"#utility.yul\":28428:28461   */\n      tag_605\n        /* \"#utility.yul\":28455:28460   */\n      dup2\n        /* \"#utility.yul\":28428:28461   */\n      tag_263\n      jump\t// in\n    tag_605:\n        /* \"#utility.yul\":28324:28467   */\n      swap3\n      swap2\n      pop\n      pop\n      jump\t// out\n        /* \"#utility.yul\":28473:28824   */\n    tag_191:\n        /* \"#utility.yul\":28543:28549   */\n      0x00\n        /* \"#utility.yul\":28592:28594   */\n      0x20\n        /* \"#utility.yul\":28580:28589   */\n      dup3\n        /* \"#utility.yul\":28571:28578   */\n      dup5\n        /* \"#utility.yul\":28567:28590   */\n      sub\n        /* \"#utility.yul\":28563:28595   */\n      slt\n        /* \"#utility.yul\":28560:28679   */\n      iszero\n      tag_607\n      jumpi\n        /* \"#utility.yul\":28598:28677   */\n      tag_608\n      tag_259\n      jump\t// in\n    tag_608:\n        /* \"#utility.yul\":28560:28679   */\n    tag_607:\n        /* \"#utility.yul\":28718:28719   */\n      0x00\n        /* \"#utility.yul\":28743:28807   */\n      tag_609\n        /* \"#utility.yul\":28799:28806   */\n      dup5\n        /* \"#utility.yul\":28790:28796   */\n      dup3\n        /* \"#utility.yul\":28779:28788   */\n      dup6\n        /* \"#utility.yul\":28775:28797   */\n      add\n        /* \"#utility.yul\":28743:28807   */\n      tag_336\n      jump\t// in\n    tag_609:\n        /* \"#utility.yul\":28733:28807   */\n      swap2\n      pop\n        /* \"#utility.yul\":28689:28817   */\n      pop\n        /* \"#utility.yul\":28473:28824   */\n      swap3\n      swap2\n      pop\n      pop\n      jump\t// out\n        /* \"#utility.yul\":28830:29007   */\n    tag_337:\n        /* \"#utility.yul\":28970:28999   */\n      0x4e6f7420746865206f776e6572206f662074686973204e46545b5d0000000000\n        /* \"#utility.yul\":28966:28967   */\n      0x00\n        /* \"#utility.yul\":28958:28964   */\n      dup3\n        /* \"#utility.yul\":28954:28968   */\n      add\n        /* \"#utility.yul\":28947:29000   */\n      mstore\n        /* \"#utility.yul\":28830:29007   */\n      pop\n      jump\t// out\n        /* \"#utility.yul\":29013:29379   */\n    tag_338:\n        /* \"#utility.yul\":29155:29158   */\n      0x00\n        /* \"#utility.yul\":29176:29243   */\n      tag_612\n        /* \"#utility.yul\":29240:29242   */\n      0x1b\n        /* \"#utility.yul\":29235:29238   */\n      dup4\n        /* \"#utility.yul\":29176:29243   */\n      tag_294\n      jump\t// in\n    tag_612:\n        /* \"#utility.yul\":29169:29243   */\n      swap2\n      pop\n        /* \"#utility.yul\":29252:29345   */\n      tag_613\n        /* \"#utility.yul\":29341:29344   */\n      dup3\n        /* \"#utility.yul\":29252:29345   */\n      tag_337\n      jump\t// in\n    tag_613:\n        /* \"#utility.yul\":29370:29372   */\n      0x20\n        /* \"#utility.yul\":29365:29368   */\n      dup3\n        /* \"#utility.yul\":29361:29373   */\n      add\n        /* \"#utility.yul\":29354:29373   */\n      swap1\n      pop\n        /* \"#utility.yul\":29013:29379   */\n      swap2\n      swap1\n      pop\n      jump\t// out\n        /* \"#utility.yul\":29385:29804   */\n    tag_194:\n        /* \"#utility.yul\":29551:29555   */\n      0x00\n        /* \"#utility.yul\":29589:29591   */\n      0x20\n        /* \"#utility.yul\":29578:29587   */\n      dup3\n        /* \"#utility.yul\":29574:29592   */\n      add\n        /* \"#utility.yul\":29566:29592   */\n      swap1\n      pop\n        /* \"#utility.yul\":29638:29647   */\n      dup2\n        /* \"#utility.yul\":29632:29636   */\n      dup2\n        /* \"#utility.yul\":29628:29648   */\n      sub\n        /* \"#utility.yul\":29624:29625   */\n      0x00\n        /* \"#utility.yul\":29613:29622   */\n      dup4\n        /* \"#utility.yul\":29609:29626   */\n      add\n        /* \"#utility.yul\":29602:29649   */\n      mstore\n        /* \"#utility.yul\":29666:29797   */\n      tag_615\n        /* \"#utility.yul\":29792:29796   */\n      dup2\n        /* \"#utility.yul\":29666:29797   */\n      tag_338\n      jump\t// in\n    tag_615:\n        /* \"#utility.yul\":29658:29797   */\n      swap1\n      pop\n        /* \"#utility.yul\":29385:29804   */\n      swap2\n      swap1\n      pop\n      jump\t// out\n        /* \"#utility.yul\":29810:30130   */\n    tag_203:\n        /* \"#utility.yul\":29925:29929   */\n      0x00\n        /* \"#utility.yul\":29963:29965   */\n      0x40\n        /* \"#utility.yul\":29952:29961   */\n      dup3\n        /* \"#utility.yul\":29948:29966   */\n      add\n        /* \"#utility.yul\":29940:29966   */\n      swap1\n      pop\n        /* \"#utility.yul\":29976:30047   */\n      tag_617\n        /* \"#utility.yul\":30044:30045   */\n      0x00\n        /* \"#utility.yul\":30033:30042   */\n      dup4\n        /* \"#utility.yul\":30029:30046   */\n      add\n        /* \"#utility.yul\":30020:30026   */\n      dup6\n        /* \"#utility.yul\":29976:30047   */\n      tag_298\n      jump\t// in\n    tag_617:\n        /* \"#utility.yul\":30057:30123   */\n      tag_618\n        /* \"#utility.yul\":30119:30121   */\n      0x20\n        /* \"#utility.yul\":30108:30117   */\n      dup4\n        /* \"#utility.yul\":30104:30122   */\n      add\n        /* \"#utility.yul\":30095:30101   */\n      dup5\n        /* \"#utility.yul\":30057:30123   */\n      tag_266\n      jump\t// in\n    tag_618:\n        /* \"#utility.yul\":29810:30130   */\n      swap4\n      swap3\n      pop\n      pop\n      pop\n      jump\t// out\n        /* \"#utility.yul\":30136:30578   */\n    tag_208:\n        /* \"#utility.yul\":30285:30289   */\n      0x00\n        /* \"#utility.yul\":30323:30325   */\n      0x60\n        /* \"#utility.yul\":30312:30321   */\n      dup3\n        /* \"#utility.yul\":30308:30326   */\n      add\n        /* \"#utility.yul\":30300:30326   */\n      swap1\n      pop\n        /* \"#utility.yul\":30336:30407   */\n      tag_620\n        /* \"#utility.yul\":30404:30405   */\n      0x00\n        /* \"#utility.yul\":30393:30402   */\n      dup4\n        /* \"#utility.yul\":30389:30406   */\n      add\n        /* \"#utility.yul\":30380:30386   */\n      dup7\n        /* \"#utility.yul\":30336:30407   */\n      tag_289\n      jump\t// in\n    tag_620:\n        /* \"#utility.yul\":30417:30489   */\n      tag_621\n        /* \"#utility.yul\":30485:30487   */\n      0x20\n        /* \"#utility.yul\":30474:30483   */\n      dup4\n        /* \"#utility.yul\":30470:30488   */\n      add\n        /* \"#utility.yul\":30461:30467   */\n      dup6\n        /* \"#utility.yul\":30417:30489   */\n      tag_289\n      jump\t// in\n    tag_621:\n        /* \"#utility.yul\":30499:30571   */\n      tag_622\n        /* \"#utility.yul\":30567:30569   */\n      0x40\n        /* \"#utility.yul\":30556:30565   */\n      dup4\n        /* \"#utility.yul\":30552:30570   */\n      add\n        /* \"#utility.yul\":30543:30549   */\n      dup5\n        /* \"#utility.yul\":30499:30571   */\n      tag_298\n      jump\t// in\n    tag_622:\n        /* \"#utility.yul\":30136:30578   */\n      swap5\n      swap4\n      pop\n      pop\n      pop\n      pop\n      jump\t// out\n        /* \"#utility.yul\":30584:30700   */\n    tag_339:\n        /* \"#utility.yul\":30654:30675   */\n      tag_624\n        /* \"#utility.yul\":30669:30674   */\n      dup2\n        /* \"#utility.yul\":30654:30675   */\n      tag_265\n      jump\t// in\n    tag_624:\n        /* \"#utility.yul\":30647:30652   */\n      dup2\n        /* \"#utility.yul\":30644:30676   */\n      eq\n        /* \"#utility.yul\":30634:30694   */\n      tag_625\n      jumpi\n        /* \"#utility.yul\":30690:30691   */\n      0x00\n        /* \"#utility.yul\":30687:30688   */\n      dup1\n        /* \"#utility.yul\":30680:30692   */\n      revert\n        /* \"#utility.yul\":30634:30694   */\n    tag_625:\n        /* \"#utility.yul\":30584:30700   */\n      pop\n      jump\t// out\n        /* \"#utility.yul\":30706:30843   */\n    tag_340:\n        /* \"#utility.yul\":30760:30765   */\n      0x00\n        /* \"#utility.yul\":30791:30797   */\n      dup2\n        /* \"#utility.yul\":30785:30798   */\n      mload\n        /* \"#utility.yul\":30776:30798   */\n      swap1\n      pop\n        /* \"#utility.yul\":30807:30837   */\n      tag_627\n        /* \"#utility.yul\":30831:30836   */\n      dup2\n        /* \"#utility.yul\":30807:30837   */\n      tag_339\n      jump\t// in\n    tag_627:\n        /* \"#utility.yul\":30706:30843   */\n      swap3\n      swap2\n      pop\n      pop\n      jump\t// out\n        /* \"#utility.yul\":30849:31194   */\n    tag_212:\n        /* \"#utility.yul\":30916:30922   */\n      0x00\n        /* \"#utility.yul\":30965:30967   */\n      0x20\n        /* \"#utility.yul\":30953:30962   */\n      dup3\n        /* \"#utility.yul\":30944:30951   */\n      dup5\n        /* \"#utility.yul\":30940:30963   */\n      sub\n        /* \"#utility.yul\":30936:30968   */\n      slt\n        /* \"#utility.yul\":30933:31052   */\n      iszero\n      tag_629\n      jumpi\n        /* \"#utility.yul\":30971:31050   */\n      tag_630\n      tag_259\n      jump\t// in\n    tag_630:\n        /* \"#utility.yul\":30933:31052   */\n    tag_629:\n        /* \"#utility.yul\":31091:31092   */\n      0x00\n        /* \"#utility.yul\":31116:31177   */\n      tag_631\n        /* \"#utility.yul\":31169:31176   */\n      dup5\n        /* \"#utility.yul\":31160:31166   */\n      dup3\n        /* \"#utility.yul\":31149:31158   */\n      dup6\n        /* \"#utility.yul\":31145:31167   */\n      add\n        /* \"#utility.yul\":31116:31177   */\n      tag_340\n      jump\t// in\n    tag_631:\n        /* \"#utility.yul\":31106:31177   */\n      swap2\n      pop\n        /* \"#utility.yul\":31062:31187   */\n      pop\n        /* \"#utility.yul\":30849:31194   */\n      swap3\n      swap2\n      pop\n      pop\n      jump\t// out\n        /* \"#utility.yul\":31200:31314   */\n    tag_341:\n      pop\n      jump\t// out\n        /* \"#utility.yul\":31320:31682   */\n    tag_342:\n        /* \"#utility.yul\":31461:31464   */\n      0x00\n        /* \"#utility.yul\":31482:31547   */\n      tag_634\n        /* \"#utility.yul\":31545:31546   */\n      0x00\n        /* \"#utility.yul\":31540:31543   */\n      dup4\n        /* \"#utility.yul\":31482:31547   */\n      tag_300\n      jump\t// in\n    tag_634:\n        /* \"#utility.yul\":31475:31547   */\n      swap2\n      pop\n        /* \"#utility.yul\":31556:31649   */\n      tag_635\n        /* \"#utility.yul\":31645:31648   */\n      dup3\n        /* \"#utility.yul\":31556:31649   */\n      tag_341\n      jump\t// in\n    tag_635:\n        /* \"#utility.yul\":31674:31675   */\n      0x00\n        /* \"#utility.yul\":31669:31672   */\n      dup3\n        /* \"#utility.yul\":31665:31676   */\n      add\n        /* \"#utility.yul\":31658:31676   */\n      swap1\n      pop\n        /* \"#utility.yul\":31320:31682   */\n      swap2\n      swap1\n      pop\n      jump\t// out\n        /* \"#utility.yul\":31688:32436   */\n    tag_251:\n        /* \"#utility.yul\":31937:31941   */\n      0x00\n        /* \"#utility.yul\":31975:31978   */\n      0x80\n        /* \"#utility.yul\":31964:31973   */\n      dup3\n        /* \"#utility.yul\":31960:31979   */\n      add\n        /* \"#utility.yul\":31952:31979   */\n      swap1\n      pop\n        /* \"#utility.yul\":31989:32060   */\n      tag_637\n        /* \"#utility.yul\":32057:32058   */\n      0x00\n        /* \"#utility.yul\":32046:32055   */\n      dup4\n        /* \"#utility.yul\":32042:32059   */\n      add\n        /* \"#utility.yul\":32033:32039   */\n      dup7\n        /* \"#utility.yul\":31989:32060   */\n      tag_289\n      jump\t// in\n    tag_637:\n        /* \"#utility.yul\":32070:32142   */\n      tag_638\n        /* \"#utility.yul\":32138:32140   */\n      0x20\n        /* \"#utility.yul\":32127:32136   */\n      dup4\n        /* \"#utility.yul\":32123:32141   */\n      add\n        /* \"#utility.yul\":32114:32120   */\n      dup6\n        /* \"#utility.yul\":32070:32142   */\n      tag_289\n      jump\t// in\n    tag_638:\n        /* \"#utility.yul\":32152:32224   */\n      tag_639\n        /* \"#utility.yul\":32220:32222   */\n      0x40\n        /* \"#utility.yul\":32209:32218   */\n      dup4\n        /* \"#utility.yul\":32205:32223   */\n      add\n        /* \"#utility.yul\":32196:32202   */\n      dup5\n        /* \"#utility.yul\":32152:32224   */\n      tag_298\n      jump\t// in\n    tag_639:\n        /* \"#utility.yul\":32271:32280   */\n      dup2\n        /* \"#utility.yul\":32265:32269   */\n      dup2\n        /* \"#utility.yul\":32261:32281   */\n      sub\n        /* \"#utility.yul\":32256:32258   */\n      0x60\n        /* \"#utility.yul\":32245:32254   */\n      dup4\n        /* \"#utility.yul\":32241:32259   */\n      add\n        /* \"#utility.yul\":32234:32282   */\n      mstore\n        /* \"#utility.yul\":32299:32429   */\n      tag_640\n        /* \"#utility.yul\":32424:32428   */\n      dup2\n        /* \"#utility.yul\":32299:32429   */\n      tag_342\n      jump\t// in\n    tag_640:\n        /* \"#utility.yul\":32291:32429   */\n      swap1\n      pop\n        /* \"#utility.yul\":31688:32436   */\n      swap5\n      swap4\n      pop\n      pop\n      pop\n      pop\n      jump\t// out\n        /* \"#utility.yul\":32442:32562   */\n    tag_343:\n        /* \"#utility.yul\":32514:32537   */\n      tag_642\n        /* \"#utility.yul\":32531:32536   */\n      dup2\n        /* \"#utility.yul\":32514:32537   */\n      tag_287\n      jump\t// in\n    tag_642:\n        /* \"#utility.yul\":32507:32512   */\n      dup2\n        /* \"#utility.yul\":32504:32538   */\n      eq\n        /* \"#utility.yul\":32494:32556   */\n      tag_643\n      jumpi\n        /* \"#utility.yul\":32552:32553   */\n      0x00\n        /* \"#utility.yul\":32549:32550   */\n      dup1\n        /* \"#utility.yul\":32542:32554   */\n      revert\n        /* \"#utility.yul\":32494:32556   */\n    tag_643:\n        /* \"#utility.yul\":32442:32562   */\n      pop\n      jump\t// out\n        /* \"#utility.yul\":32568:32709   */\n    tag_344:\n        /* \"#utility.yul\":32624:32629   */\n      0x00\n        /* \"#utility.yul\":32655:32661   */\n      dup2\n        /* \"#utility.yul\":32649:32662   */\n      mload\n        /* \"#utility.yul\":32640:32662   */\n      swap1\n      pop\n        /* \"#utility.yul\":32671:32703   */\n      tag_645\n        /* \"#utility.yul\":32697:32702   */\n      dup2\n        /* \"#utility.yul\":32671:32703   */\n      tag_343\n      jump\t// in\n    tag_645:\n        /* \"#utility.yul\":32568:32709   */\n      swap3\n      swap2\n      pop\n      pop\n      jump\t// out\n        /* \"#utility.yul\":32715:33064   */\n    tag_255:\n        /* \"#utility.yul\":32784:32790   */\n      0x00\n        /* \"#utility.yul\":32833:32835   */\n      0x20\n        /* \"#utility.yul\":32821:32830   */\n      dup3\n        /* \"#utility.yul\":32812:32819   */\n      dup5\n        /* \"#utility.yul\":32808:32831   */\n      sub\n        /* \"#utility.yul\":32804:32836   */\n      slt\n        /* \"#utility.yul\":32801:32920   */\n      iszero\n      tag_647\n      jumpi\n        /* \"#utility.yul\":32839:32918   */\n      tag_648\n      tag_259\n      jump\t// in\n    tag_648:\n        /* \"#utility.yul\":32801:32920   */\n    tag_647:\n        /* \"#utility.yul\":32959:32960   */\n      0x00\n        /* \"#utility.yul\":32984:33047   */\n      tag_649\n        /* \"#utility.yul\":33039:33046   */\n      dup5\n        /* \"#utility.yul\":33030:33036   */\n      dup3\n        /* \"#utility.yul\":33019:33028   */\n      dup6\n        /* \"#utility.yul\":33015:33037   */\n      add\n        /* \"#utility.yul\":32984:33047   */\n      tag_344\n      jump\t// in\n    tag_649:\n        /* \"#utility.yul\":32974:33047   */\n      swap2\n      pop\n        /* \"#utility.yul\":32930:33057   */\n      pop\n        /* \"#utility.yul\":32715:33064   */\n      swap3\n      swap2\n      pop\n      pop\n      jump\t// out\n\n    auxdata: 0xa26469706673582212208fff9a14c62a3f9fec3599e54b6c390028cd1b6fe518e9c3cb5e2b2fe4a0994f64736f6c634300081a0033\n}\n",
				"bytecode": {
					"linkReferences": {},
					"object": "608060405234801561000f575f80fd5b5060405161282f38038061282f833981810160405281019061003191906102e0565b305f73ffffffffffffffffffffffffffffffffffffffff168173ffffffffffffffffffffffffffffffffffffffff16036100a2575f6040517f1e4fbdf7000000000000000000000000000000000000000000000000000000008152600401610099919061033f565b60405180910390fd5b6100b18161018e60201b60201c565b505f8114806100c05750600181145b6100ff576040517f08c379a00000000000000000000000000000000000000000000000000000000081526004016100f6906103d8565b60405180910390fd5b8260055f6101000a81548173ffffffffffffffffffffffffffffffffffffffff021916908373ffffffffffffffffffffffffffffffffffffffff1602179055508160065f6101000a81548173ffffffffffffffffffffffffffffffffffffffff021916908373ffffffffffffffffffffffffffffffffffffffff160217905550806007819055505050506103f6565b5f805f9054906101000a900473ffffffffffffffffffffffffffffffffffffffff169050815f806101000a81548173ffffffffffffffffffffffffffffffffffffffff021916908373ffffffffffffffffffffffffffffffffffffffff1602179055508173ffffffffffffffffffffffffffffffffffffffff168173ffffffffffffffffffffffffffffffffffffffff167f8be0079c531659141344cd1fd0a4f28419497f9722a3daafe3b4186f6b6457e060405160405180910390a35050565b5f80fd5b5f73ffffffffffffffffffffffffffffffffffffffff82169050919050565b5f61027c82610253565b9050919050565b61028c81610272565b8114610296575f80fd5b50565b5f815190506102a781610283565b92915050565b5f819050919050565b6102bf816102ad565b81146102c9575f80fd5b50565b5f815190506102da816102b6565b92915050565b5f805f606084860312156102f7576102f661024f565b5b5f61030486828701610299565b935050602061031586828701610299565b9250506040610326868287016102cc565b9150509250925092565b61033981610272565b82525050565b5f6020820190506103525f830184610330565b92915050565b5f82825260208201905092915050565b7f4f6e6c792030206f7220312061636365707465642061732061697264726f70205f8201527f7479706500000000000000000000000000000000000000000000000000000000602082015250565b5f6103c2602483610358565b91506103cd82610368565b604082019050919050565b5f6020820190508181035f8301526103ef816103b6565b9050919050565b61242c806104035f395ff3fe608060405234801561000f575f80fd5b50600436106100a7575f3560e01c8063715018a61161006f578063715018a6146101775780638da5cb5b1461018157806391c5f4a61461019f578063b1a2039e146101cf578063b2736a7b146101ff578063f2fde38b1461022f576100a7565b806301bf6648146100ab57806309a9d76c146100db578063150b7a02146100f957806347aa476e146101295780636f9170f614610147575b5f80fd5b6100c560048036038101906100c09190611446565b61024b565b6040516100d2919061148b565b60405180910390f35b6100e361045c565b6040516100f0919061155b565b60405180910390f35b610113600480360381019061010e91906116ea565b6104e7565b60405161012091906117a4565b60405180910390f35b610131610537565b60405161013e919061148b565b60405180910390f35b610161600480360381019061015c9190611446565b61055e565b60405161016e919061148b565b60405180910390f35b61017f61056f565b005b610189610582565b60405161019691906117cc565b60405180910390f35b6101b960048036038101906101b49190611842565b6105a9565b6040516101c6919061148b565b60405180910390f35b6101e960048036038101906101e491906118e2565b610817565b6040516101f6919061148b565b60405180910390f35b6102196004803603810190610214919061192d565b610fd0565b604051610226919061148b565b60405180910390f35b61024960048036038101906102449190611446565b61106d565b005b5f6102546110f1565b61025d82611178565b61029c576040517f08c379a0000000000000000000000000000000000000000000000000000000008152600401610293906119eb565b60405180910390fd5b5f5b600380549050811015610451578273ffffffffffffffffffffffffffffffffffffffff16600382815481106102d6576102d5611a09565b5b905f5260205f20015f9054906101000a900473ffffffffffffffffffffffffffffffffffffffff1673ffffffffffffffffffffffffffffffffffffffff1603610444576003600160038054905061032d9190611a63565b8154811061033e5761033d611a09565b5b905f5260205f20015f9054906101000a900473ffffffffffffffffffffffffffffffffffffffff166003828154811061037a57610379611a09565b5b905f5260205f20015f6101000a81548173ffffffffffffffffffffffffffffffffffffffff021916908373ffffffffffffffffffffffffffffffffffffffff16021790555060038054806103d1576103d0611a96565b5b600190038181905f5260205f20015f6101000a81549073ffffffffffffffffffffffffffffffffffffffff021916905590557ffff8612f5ebb2ef78030ade93e8ff4b3686d931416bef43806aeaddf398c3f738360405161043291906117cc565b60405180910390a16001915050610457565b808060010191505061029e565b50600190505b919050565b606060038054806020026020016040519081016040528092919081815260200182805480156104dd57602002820191905f5260205f20905b815f9054906101000a900473ffffffffffffffffffffffffffffffffffffffff1673ffffffffffffffffffffffffffffffffffffffff1681526020019060010190808311610494575b5050505050905090565b5f7f541cb930dbb178d9d0a40b098c309dda5a70e722066990941158d1f77b5bfcf38585858560405161051d9493929190611b32565b60405180910390a163150b7a0260e01b9050949350505050565b5f6105406110f1565b60045f81548092919061055290611b7c565b91905055506001905090565b5f61056882611178565b9050919050565b6105776110f1565b6105805f61121d565b565b5f805f9054906101000a900473ffffffffffffffffffffffffffffffffffffffff16905090565b5f6105b26110f1565b5f5b838390508110156107d3575f73ffffffffffffffffffffffffffffffffffffffff168484838181106105e9576105e8611a09565b5b90506020020160208101906105fe9190611446565b73ffffffffffffffffffffffffffffffffffffffff1603610654576040517f08c379a000000000000000000000000000000000000000000000000000000000815260040161064b90611c0d565b60405180910390fd5b6001600754036106cf5761068f84848381811061067457610673611a09565b5b90506020020160208101906106899190611446565b5f6112de565b6106ce576040517f08c379a00000000000000000000000000000000000000000000000000000000081526004016106c590611c75565b60405180910390fd5b5b6106ff8484838181106106e5576106e4611a09565b5b90506020020160208101906106fa9190611446565b61055e565b1561073f576040517f08c379a000000000000000000000000000000000000000000000000000000000815260040161073690611cdd565b60405180910390fd5b600384848381811061075457610753611a09565b5b90506020020160208101906107699190611446565b908060018154018082558091505060019003905f5260205f20015f9091909190916101000a81548173ffffffffffffffffffffffffffffffffffffffff021916908373ffffffffffffffffffffffffffffffffffffffff16021790555080806001019150506105b4565b507f8f47a973c821cca98d90b2c53821dc01e2971b8b14db8aae5776f42ea6cccc9a8383604051610805929190611d81565b60405180910390a16001905092915050565b5f6108206110f1565b5f73ffffffffffffffffffffffffffffffffffffffff1660055f9054906101000a900473ffffffffffffffffffffffffffffffffffffffff1673ffffffffffffffffffffffffffffffffffffffff16036108af576040517f08c379a00000000000000000000000000000000000000000000000000000000081526004016108a690611ded565b60405180910390fd5b5f600380549050116108f6576040517f08c379a00000000000000000000000000000000000000000000000000000000081526004016108ed90611e55565b60405180910390fd5b8282905060038054905014610940576040517f08c379a000000000000000000000000000000000000000000000000000000000815260040161093790611f09565b60405180910390fd5b5f805f600754036109745760055f9054906101000a900473ffffffffffffffffffffffffffffffffffffffff169050610999565b60055f9054906101000a900473ffffffffffffffffffffffffffffffffffffffff1691505b7fe92cfca7bdc1f76f97b0cecc8d1ddabb94d01c99d9429c0963302a2f2a92714d600386866040516109cd9392919061207f565b60405180910390a15f5b600380549050811015610fc3575f600382815481106109f9576109f8611a09565b5b905f5260205f20015f9054906101000a900473ffffffffffffffffffffffffffffffffffffffff16905060025f888885818110610a3957610a38611a09565b5b9050602002013581526020019081526020015f205f9054906101000a900460ff1615610a9a576040517f08c379a0000000000000000000000000000000000000000000000000000000008152600401610a9190612100565b60405180910390fd5b5f60075403610b9b57868683818110610ab657610ab5611a09565b5b905060200201358473ffffffffffffffffffffffffffffffffffffffff166370a0823160065f9054906101000a900473ffffffffffffffffffffffffffffffffffffffff166040518263ffffffff1660e01b8152600401610b1791906117cc565b602060405180830381865afa158015610b32573d5f803e3d5ffd5b505050506040513d601f19601f82011682018060405250810190610b569190612132565b11610b96576040517f08c379a0000000000000000000000000000000000000000000000000000000008152600401610b8d906121a7565b60405180910390fd5b610cbb565b60065f9054906101000a900473ffffffffffffffffffffffffffffffffffffffff1673ffffffffffffffffffffffffffffffffffffffff168473ffffffffffffffffffffffffffffffffffffffff16636352211e898986818110610c0257610c01611a09565b5b905060200201356040518263ffffffff1660e01b8152600401610c2591906121c5565b602060405180830381865afa158015610c40573d5f803e3d5ffd5b505050506040513d601f19601f82011682018060405250810190610c6491906121f2565b73ffffffffffffffffffffffffffffffffffffffff1614610cba576040517f08c379a0000000000000000000000000000000000000000000000000000000008152600401610cb190612267565b60405180910390fd5b5b60015f60045481526020019081526020015f205f8273ffffffffffffffffffffffffffffffffffffffff1673ffffffffffffffffffffffffffffffffffffffff1681526020019081526020015f205f9054906101000a900460ff16610fb5576001805f60045481526020019081526020015f205f8373ffffffffffffffffffffffffffffffffffffffff1673ffffffffffffffffffffffffffffffffffffffff1681526020019081526020015f205f6101000a81548160ff021916908315150217905550600160025f898986818110610d9757610d96611a09565b5b9050602002013581526020019081526020015f205f6101000a81548160ff0219169083151502179055507f21d7275921040b7a98cb165bed5d78db95b33cbb86caeab5ab5a8ae3c801a029878784818110610df557610df4611a09565b5b9050602002013560025f8a8a87818110610e1257610e11611a09565b5b9050602002013581526020019081526020015f205f9054906101000a900460ff16604051610e41929190612285565b60405180910390a15f60075403610f0f578273ffffffffffffffffffffffffffffffffffffffff166323b872dd60065f9054906101000a900473ffffffffffffffffffffffffffffffffffffffff16838a8a87818110610ea457610ea3611a09565b5b905060200201356040518463ffffffff1660e01b8152600401610ec9939291906122ac565b6020604051808303815f875af1158015610ee5573d5f803e3d5ffd5b505050506040513d601f19601f82011682018060405250810190610f09919061230b565b50610fb4565b8373ffffffffffffffffffffffffffffffffffffffff166323b872dd60065f9054906101000a900473ffffffffffffffffffffffffffffffffffffffff16838a8a87818110610f6157610f60611a09565b5b905060200201356040518463ffffffff1660e01b8152600401610f86939291906122ac565b5f604051808303815f87803b158015610f9d575f80fd5b505af1158015610faf573d5f803e3d5ffd5b505050505b5b5080806001019150506109d7565b5060019250505092915050565b5f60015f60045481526020019081526020015f205f8473ffffffffffffffffffffffffffffffffffffffff1673ffffffffffffffffffffffffffffffffffffffff1681526020019081526020015f205f9054906101000a900460ff1615801561103e575061103d83611178565b5b8015611065575060025f8381526020019081526020015f205f9054906101000a900460ff16155b905092915050565b6110756110f1565b5f73ffffffffffffffffffffffffffffffffffffffff168173ffffffffffffffffffffffffffffffffffffffff16036110e5575f6040517f1e4fbdf70000000000000000000000000000000000000000000000000000000081526004016110dc91906117cc565b60405180910390fd5b6110ee8161121d565b50565b6110f96113ca565b73ffffffffffffffffffffffffffffffffffffffff16611117610582565b73ffffffffffffffffffffffffffffffffffffffff16146111765761113a6113ca565b6040517f118cdaa700000000000000000000000000000000000000000000000000000000815260040161116d91906117cc565b60405180910390fd5b565b5f8060038054905090505f5b81811015611212578373ffffffffffffffffffffffffffffffffffffffff16600382815481106111b7576111b6611a09565b5b905f5260205f20015f9054906101000a900473ffffffffffffffffffffffffffffffffffffffff1673ffffffffffffffffffffffffffffffffffffffff160361120557600192505050611218565b8080600101915050611184565b505f9150505b919050565b5f805f9054906101000a900473ffffffffffffffffffffffffffffffffffffffff169050815f806101000a81548173ffffffffffffffffffffffffffffffffffffffff021916908373ffffffffffffffffffffffffffffffffffffffff1602179055508173ffffffffffffffffffffffffffffffffffffffff168173ffffffffffffffffffffffffffffffffffffffff167f8be0079c531659141344cd1fd0a4f28419497f9722a3daafe3b4186f6b6457e060405160405180910390a35050565b5f806112e9846113d1565b11156112f857600190506113c4565b5f83905063150b7a0260e01b7bffffffffffffffffffffffffffffffffffffffffffffffffffffffff19168173ffffffffffffffffffffffffffffffffffffffff1663150b7a023033876040518463ffffffff1660e01b815260040161136093929190612359565b6020604051808303815f875af115801561137c573d5f803e3d5ffd5b505050506040513d601f19601f820116820180604052508101906113a091906123cb565b7bffffffffffffffffffffffffffffffffffffffffffffffffffffffff1916149150505b92915050565b5f33905090565b5f813b9050919050565b5f604051905090565b5f80fd5b5f80fd5b5f73ffffffffffffffffffffffffffffffffffffffff82169050919050565b5f611415826113ec565b9050919050565b6114258161140b565b811461142f575f80fd5b50565b5f813590506114408161141c565b92915050565b5f6020828403121561145b5761145a6113e4565b5b5f61146884828501611432565b91505092915050565b5f8115159050919050565b61148581611471565b82525050565b5f60208201905061149e5f83018461147c565b92915050565b5f81519050919050565b5f82825260208201905092915050565b5f819050602082019050919050565b6114d68161140b565b82525050565b5f6114e783836114cd565b60208301905092915050565b5f602082019050919050565b5f611509826114a4565b61151381856114ae565b935061151e836114be565b805f5b8381101561154e57815161153588826114dc565b9750611540836114f3565b925050600181019050611521565b5085935050505092915050565b5f6020820190508181035f83015261157381846114ff565b905092915050565b5f819050919050565b61158d8161157b565b8114611597575f80fd5b50565b5f813590506115a881611584565b92915050565b5f80fd5b5f80fd5b5f601f19601f8301169050919050565b7f4e487b71000000000000000000000000000000000000000000000000000000005f52604160045260245ffd5b6115fc826115b6565b810181811067ffffffffffffffff8211171561161b5761161a6115c6565b5b80604052505050565b5f61162d6113db565b905061163982826115f3565b919050565b5f67ffffffffffffffff821115611658576116576115c6565b5b611661826115b6565b9050602081019050919050565b828183375f83830152505050565b5f61168e6116898461163e565b611624565b9050828152602081018484840111156116aa576116a96115b2565b5b6116b584828561166e565b509392505050565b5f82601f8301126116d1576116d06115ae565b5b81356116e184826020860161167c565b91505092915050565b5f805f8060808587031215611702576117016113e4565b5b5f61170f87828801611432565b945050602061172087828801611432565b93505060406117318782880161159a565b925050606085013567ffffffffffffffff811115611752576117516113e8565b5b61175e878288016116bd565b91505092959194509250565b5f7fffffffff0000000000000000000000000000000000000000000000000000000082169050919050565b61179e8161176a565b82525050565b5f6020820190506117b75f830184611795565b92915050565b6117c68161140b565b82525050565b5f6020820190506117df5f8301846117bd565b92915050565b5f80fd5b5f80fd5b5f8083601f840112611802576118016115ae565b5b8235905067ffffffffffffffff81111561181f5761181e6117e5565b5b60208301915083602082028301111561183b5761183a6117e9565b5b9250929050565b5f8060208385031215611858576118576113e4565b5b5f83013567ffffffffffffffff811115611875576118746113e8565b5b611881858286016117ed565b92509250509250929050565b5f8083601f8401126118a2576118a16115ae565b5b8235905067ffffffffffffffff8111156118bf576118be6117e5565b5b6020830191508360208202830111156118db576118da6117e9565b5b9250929050565b5f80602083850312156118f8576118f76113e4565b5b5f83013567ffffffffffffffff811115611915576119146113e8565b5b6119218582860161188d565b92509250509250929050565b5f8060408385031215611943576119426113e4565b5b5f61195085828601611432565b92505060206119618582860161159a565b9150509250929050565b5f82825260208201905092915050565b7f4164647265737320646f6573206e6f7420657869737420696e207468652077685f8201527f6974656c69737400000000000000000000000000000000000000000000000000602082015250565b5f6119d560278361196b565b91506119e08261197b565b604082019050919050565b5f6020820190508181035f830152611a02816119c9565b9050919050565b7f4e487b71000000000000000000000000000000000000000000000000000000005f52603260045260245ffd5b7f4e487b71000000000000000000000000000000000000000000000000000000005f52601160045260245ffd5b5f611a6d8261157b565b9150611a788361157b565b9250828203905081811115611a9057611a8f611a36565b5b92915050565b7f4e487b71000000000000000000000000000000000000000000000000000000005f52603160045260245ffd5b611acc8161157b565b82525050565b5f81519050919050565b5f82825260208201905092915050565b8281835e5f83830152505050565b5f611b0482611ad2565b611b0e8185611adc565b9350611b1e818560208601611aec565b611b27816115b6565b840191505092915050565b5f608082019050611b455f8301876117bd565b611b5260208301866117bd565b611b5f6040830185611ac3565b8181036060830152611b718184611afa565b905095945050505050565b5f611b868261157b565b91507fffffffffffffffffffffffffffffffffffffffffffffffffffffffffffffffff8203611bb857611bb7611a36565b5b600182019050919050565b7f5a65726f20416464726573732070726573656e740000000000000000000000005f82015250565b5f611bf760148361196b565b9150611c0282611bc3565b602082019050919050565b5f6020820190508181035f830152611c2481611beb565b9050919050565b7f4661756c7479206164647265737320666f756e640000000000000000000000005f82015250565b5f611c5f60148361196b565b9150611c6a82611c2b565b602082019050919050565b5f6020820190508181035f830152611c8c81611c53565b9050919050565b7f4164647265737320616c6c7265616479204578697374730000000000000000005f82015250565b5f611cc760178361196b565b9150611cd282611c93565b602082019050919050565b5f6020820190508181035f830152611cf481611cbb565b9050919050565b5f819050919050565b5f611d126020840184611432565b905092915050565b5f602082019050919050565b5f611d3183856114ae565b9350611d3c82611cfb565b805f5b85811015611d7457611d518284611d04565b611d5b88826114dc565b9750611d6683611d1a565b925050600181019050611d3f565b5085925050509392505050565b5f6020820190508181035f830152611d9a818486611d26565b90509392505050565b7f5a65726f206164647265737300000000000000000000000000000000000000005f82015250565b5f611dd7600c8361196b565b9150611de282611da3565b602082019050919050565b5f6020820190508181035f830152611e0481611dcb565b9050919050565b7f4e6f2077686974656c69737465642061646472657373000000000000000000005f82015250565b5f611e3f60168361196b565b9150611e4a82611e0b565b602082019050919050565b5f6020820190508181035f830152611e6c81611e33565b9050919050565b7f4e756d626572206f6620546f6b656e7320616e64206e756d626572206f6620775f8201527f686974656c69737465642061646472657373657320617265206e6f742065717560208201527f616c000000000000000000000000000000000000000000000000000000000000604082015250565b5f611ef360428361196b565b9150611efe82611e73565b606082019050919050565b5f6020820190508181035f830152611f2081611ee7565b9050919050565b5f81549050919050565b5f819050815f5260205f209050919050565b5f815f1c9050919050565b5f73ffffffffffffffffffffffffffffffffffffffff82169050919050565b5f611f7f611f7a83611f43565b611f4e565b9050919050565b5f611f918254611f6d565b9050919050565b5f600182019050919050565b5f611fae82611f27565b611fb881856114ae565b9350611fc383611f31565b805f5b83811015611ffa57611fd782611f86565b611fe188826114dc565b9750611fec83611f98565b925050600181019050611fc6565b5085935050505092915050565b5f82825260208201905092915050565b5f80fd5b82818337505050565b5f61202f8385612007565b93507f07ffffffffffffffffffffffffffffffffffffffffffffffffffffffffffffff83111561206257612061612017565b5b60208302925061207383858461201b565b82840190509392505050565b5f6040820190508181035f8301526120978186611fa4565b905081810360208301526120ac818486612024565b9050949350505050565b7f416c6c7265616479205472616e736665726564000000000000000000000000005f82015250565b5f6120ea60138361196b565b91506120f5826120b6565b602082019050919050565b5f6020820190508181035f830152612117816120de565b9050919050565b5f8151905061212c81611584565b92915050565b5f60208284031215612147576121466113e4565b5b5f6121548482850161211e565b91505092915050565b7f4e6f7420656e6f7567682062616c616e636500000000000000000000000000005f82015250565b5f61219160128361196b565b915061219c8261215d565b602082019050919050565b5f6020820190508181035f8301526121be81612185565b9050919050565b5f6020820190506121d85f830184611ac3565b92915050565b5f815190506121ec8161141c565b92915050565b5f60208284031215612207576122066113e4565b5b5f612214848285016121de565b91505092915050565b7f4e6f7420746865206f776e6572206f662074686973204e46545b5d00000000005f82015250565b5f612251601b8361196b565b915061225c8261221d565b602082019050919050565b5f6020820190508181035f83015261227e81612245565b9050919050565b5f6040820190506122985f830185611ac3565b6122a5602083018461147c565b9392505050565b5f6060820190506122bf5f8301866117bd565b6122cc60208301856117bd565b6122d96040830184611ac3565b949350505050565b6122ea81611471565b81146122f4575f80fd5b50565b5f81519050612305816122e1565b92915050565b5f602082840312156123205761231f6113e4565b5b5f61232d848285016122f7565b91505092915050565b50565b5f6123445f83611adc565b915061234f82612336565b5f82019050919050565b5f60808201905061236c5f8301866117bd565b61237960208301856117bd565b6123866040830184611ac3565b818103606083015261239781612339565b9050949350505050565b6123aa8161176a565b81146123b4575f80fd5b50565b5f815190506123c5816123a1565b92915050565b5f602082840312156123e0576123df6113e4565b5b5f6123ed848285016123b7565b9150509291505056fea26469706673582212208fff9a14c62a3f9fec3599e54b6c390028cd1b6fe518e9c3cb5e2b2fe4a0994f64736f6c634300081a0033",
					"opcodes": "PUSH1 0x80 PUSH1 0x40 MSTORE CALLVALUE DUP1 ISZERO PUSH2 0xF JUMPI PUSH0 DUP1 REVERT JUMPDEST POP PUSH1 0x40 MLOAD PUSH2 0x282F CODESIZE SUB DUP1 PUSH2 0x282F DUP4 CODECOPY DUP2 DUP2 ADD PUSH1 0x40 MSTORE DUP2 ADD SWAP1 PUSH2 0x31 SWAP2 SWAP1 PUSH2 0x2E0 JUMP JUMPDEST ADDRESS PUSH0 PUSH20 0xFFFFFFFFFFFFFFFFFFFFFFFFFFFFFFFFFFFFFFFF AND DUP2 PUSH20 0xFFFFFFFFFFFFFFFFFFFFFFFFFFFFFFFFFFFFFFFF AND SUB PUSH2 0xA2 JUMPI PUSH0 PUSH1 0x40 MLOAD PUSH32 0x1E4FBDF700000000000000000000000000000000000000000000000000000000 DUP2 MSTORE PUSH1 0x4 ADD PUSH2 0x99 SWAP2 SWAP1 PUSH2 0x33F JUMP JUMPDEST PUSH1 0x40 MLOAD DUP1 SWAP2 SUB SWAP1 REVERT JUMPDEST PUSH2 0xB1 DUP2 PUSH2 0x18E PUSH1 0x20 SHL PUSH1 0x20 SHR JUMP JUMPDEST POP PUSH0 DUP2 EQ DUP1 PUSH2 0xC0 JUMPI POP PUSH1 0x1 DUP2 EQ JUMPDEST PUSH2 0xFF JUMPI PUSH1 0x40 MLOAD PUSH32 0x8C379A000000000000000000000000000000000000000000000000000000000 DUP2 MSTORE PUSH1 0x4 ADD PUSH2 0xF6 SWAP1 PUSH2 0x3D8 JUMP JUMPDEST PUSH1 0x40 MLOAD DUP1 SWAP2 SUB SWAP1 REVERT JUMPDEST DUP3 PUSH1 0x5 PUSH0 PUSH2 0x100 EXP DUP2 SLOAD DUP2 PUSH20 0xFFFFFFFFFFFFFFFFFFFFFFFFFFFFFFFFFFFFFFFF MUL NOT AND SWAP1 DUP4 PUSH20 0xFFFFFFFFFFFFFFFFFFFFFFFFFFFFFFFFFFFFFFFF AND MUL OR SWAP1 SSTORE POP DUP2 PUSH1 0x6 PUSH0 PUSH2 0x100 EXP DUP2 SLOAD DUP2 PUSH20 0xFFFFFFFFFFFFFFFFFFFFFFFFFFFFFFFFFFFFFFFF MUL NOT AND SWAP1 DUP4 PUSH20 0xFFFFFFFFFFFFFFFFFFFFFFFFFFFFFFFFFFFFFFFF AND MUL OR SWAP1 SSTORE POP DUP1 PUSH1 0x7 DUP2 SWAP1 SSTORE POP POP POP POP PUSH2 0x3F6 JUMP JUMPDEST PUSH0 DUP1 PUSH0 SWAP1 SLOAD SWAP1 PUSH2 0x100 EXP SWAP1 DIV PUSH20 0xFFFFFFFFFFFFFFFFFFFFFFFFFFFFFFFFFFFFFFFF AND SWAP1 POP DUP2 PUSH0 DUP1 PUSH2 0x100 EXP DUP2 SLOAD DUP2 PUSH20 0xFFFFFFFFFFFFFFFFFFFFFFFFFFFFFFFFFFFFFFFF MUL NOT AND SWAP1 DUP4 PUSH20 0xFFFFFFFFFFFFFFFFFFFFFFFFFFFFFFFFFFFFFFFF AND MUL OR SWAP1 SSTORE POP DUP2 PUSH20 0xFFFFFFFFFFFFFFFFFFFFFFFFFFFFFFFFFFFFFFFF AND DUP2 PUSH20 0xFFFFFFFFFFFFFFFFFFFFFFFFFFFFFFFFFFFFFFFF AND PUSH32 0x8BE0079C531659141344CD1FD0A4F28419497F9722A3DAAFE3B4186F6B6457E0 PUSH1 0x40 MLOAD PUSH1 0x40 MLOAD DUP1 SWAP2 SUB SWAP1 LOG3 POP POP JUMP JUMPDEST PUSH0 DUP1 REVERT JUMPDEST PUSH0 PUSH20 0xFFFFFFFFFFFFFFFFFFFFFFFFFFFFFFFFFFFFFFFF DUP3 AND SWAP1 POP SWAP2 SWAP1 POP JUMP JUMPDEST PUSH0 PUSH2 0x27C DUP3 PUSH2 0x253 JUMP JUMPDEST SWAP1 POP SWAP2 SWAP1 POP JUMP JUMPDEST PUSH2 0x28C DUP2 PUSH2 0x272 JUMP JUMPDEST DUP2 EQ PUSH2 0x296 JUMPI PUSH0 DUP1 REVERT JUMPDEST POP JUMP JUMPDEST PUSH0 DUP2 MLOAD SWAP1 POP PUSH2 0x2A7 DUP2 PUSH2 0x283 JUMP JUMPDEST SWAP3 SWAP2 POP POP JUMP JUMPDEST PUSH0 DUP2 SWAP1 POP SWAP2 SWAP1 POP JUMP JUMPDEST PUSH2 0x2BF DUP2 PUSH2 0x2AD JUMP JUMPDEST DUP2 EQ PUSH2 0x2C9 JUMPI PUSH0 DUP1 REVERT JUMPDEST POP JUMP JUMPDEST PUSH0 DUP2 MLOAD SWAP1 POP PUSH2 0x2DA DUP2 PUSH2 0x2B6 JUMP JUMPDEST SWAP3 SWAP2 POP POP JUMP JUMPDEST PUSH0 DUP1 PUSH0 PUSH1 0x60 DUP5 DUP7 SUB SLT ISZERO PUSH2 0x2F7 JUMPI PUSH2 0x2F6 PUSH2 0x24F JUMP JUMPDEST JUMPDEST PUSH0 PUSH2 0x304 DUP7 DUP3 DUP8 ADD PUSH2 0x299 JUMP JUMPDEST SWAP4 POP POP PUSH1 0x20 PUSH2 0x315 DUP7 DUP3 DUP8 ADD PUSH2 0x299 JUMP JUMPDEST SWAP3 POP POP PUSH1 0x40 PUSH2 0x326 DUP7 DUP3 DUP8 ADD PUSH2 0x2CC JUMP JUMPDEST SWAP2 POP POP SWAP3 POP SWAP3 POP SWAP3 JUMP JUMPDEST PUSH2 0x339 DUP2 PUSH2 0x272 JUMP JUMPDEST DUP3 MSTORE POP POP JUMP JUMPDEST PUSH0 PUSH1 0x20 DUP3 ADD SWAP1 POP PUSH2 0x352 PUSH0 DUP4 ADD DUP5 PUSH2 0x330 JUMP JUMPDEST SWAP3 SWAP2 POP POP JUMP JUMPDEST PUSH0 DUP3 DUP3 MSTORE PUSH1 0x20 DUP3 ADD SWAP1 POP SWAP3 SWAP2 POP POP JUMP JUMPDEST PUSH32 0x4F6E6C792030206F7220312061636365707465642061732061697264726F7020 PUSH0 DUP3 ADD MSTORE PUSH32 0x7479706500000000000000000000000000000000000000000000000000000000 PUSH1 0x20 DUP3 ADD MSTORE POP JUMP JUMPDEST PUSH0 PUSH2 0x3C2 PUSH1 0x24 DUP4 PUSH2 0x358 JUMP JUMPDEST SWAP2 POP PUSH2 0x3CD DUP3 PUSH2 0x368 JUMP JUMPDEST PUSH1 0x40 DUP3 ADD SWAP1 POP SWAP2 SWAP1 POP JUMP JUMPDEST PUSH0 PUSH1 0x20 DUP3 ADD SWAP1 POP DUP2 DUP2 SUB PUSH0 DUP4 ADD MSTORE PUSH2 0x3EF DUP2 PUSH2 0x3B6 JUMP JUMPDEST SWAP1 POP SWAP2 SWAP1 POP JUMP JUMPDEST PUSH2 0x242C DUP1 PUSH2 0x403 PUSH0 CODECOPY PUSH0 RETURN INVALID PUSH1 0x80 PUSH1 0x40 MSTORE CALLVALUE DUP1 ISZERO PUSH2 0xF JUMPI PUSH0 DUP1 REVERT JUMPDEST POP PUSH1 0x4 CALLDATASIZE LT PUSH2 0xA7 JUMPI PUSH0 CALLDATALOAD PUSH1 0xE0 SHR DUP1 PUSH4 0x715018A6 GT PUSH2 0x6F JUMPI DUP1 PUSH4 0x715018A6 EQ PUSH2 0x177 JUMPI DUP1 PUSH4 0x8DA5CB5B EQ PUSH2 0x181 JUMPI DUP1 PUSH4 0x91C5F4A6 EQ PUSH2 0x19F JUMPI DUP1 PUSH4 0xB1A2039E EQ PUSH2 0x1CF JUMPI DUP1 PUSH4 0xB2736A7B EQ PUSH2 0x1FF JUMPI DUP1 PUSH4 0xF2FDE38B EQ PUSH2 0x22F JUMPI PUSH2 0xA7 JUMP JUMPDEST DUP1 PUSH4 0x1BF6648 EQ PUSH2 0xAB JUMPI DUP1 PUSH4 0x9A9D76C EQ PUSH2 0xDB JUMPI DUP1 PUSH4 0x150B7A02 EQ PUSH2 0xF9 JUMPI DUP1 PUSH4 0x47AA476E EQ PUSH2 0x129 JUMPI DUP1 PUSH4 0x6F9170F6 EQ PUSH2 0x147 JUMPI JUMPDEST PUSH0 DUP1 REVERT JUMPDEST PUSH2 0xC5 PUSH1 0x4 DUP1 CALLDATASIZE SUB DUP2 ADD SWAP1 PUSH2 0xC0 SWAP2 SWAP1 PUSH2 0x1446 JUMP JUMPDEST PUSH2 0x24B JUMP JUMPDEST PUSH1 0x40 MLOAD PUSH2 0xD2 SWAP2 SWAP1 PUSH2 0x148B JUMP JUMPDEST PUSH1 0x40 MLOAD DUP1 SWAP2 SUB SWAP1 RETURN JUMPDEST PUSH2 0xE3 PUSH2 0x45C JUMP JUMPDEST PUSH1 0x40 MLOAD PUSH2 0xF0 SWAP2 SWAP1 PUSH2 0x155B JUMP JUMPDEST PUSH1 0x40 MLOAD DUP1 SWAP2 SUB SWAP1 RETURN JUMPDEST PUSH2 0x113 PUSH1 0x4 DUP1 CALLDATASIZE SUB DUP2 ADD SWAP1 PUSH2 0x10E SWAP2 SWAP1 PUSH2 0x16EA JUMP JUMPDEST PUSH2 0x4E7 JUMP JUMPDEST PUSH1 0x40 MLOAD PUSH2 0x120 SWAP2 SWAP1 PUSH2 0x17A4 JUMP JUMPDEST PUSH1 0x40 MLOAD DUP1 SWAP2 SUB SWAP1 RETURN JUMPDEST PUSH2 0x131 PUSH2 0x537 JUMP JUMPDEST PUSH1 0x40 MLOAD PUSH2 0x13E SWAP2 SWAP1 PUSH2 0x148B JUMP JUMPDEST PUSH1 0x40 MLOAD DUP1 SWAP2 SUB SWAP1 RETURN JUMPDEST PUSH2 0x161 PUSH1 0x4 DUP1 CALLDATASIZE SUB DUP2 ADD SWAP1 PUSH2 0x15C SWAP2 SWAP1 PUSH2 0x1446 JUMP JUMPDEST PUSH2 0x55E JUMP JUMPDEST PUSH1 0x40 MLOAD PUSH2 0x16E SWAP2 SWAP1 PUSH2 0x148B JUMP JUMPDEST PUSH1 0x40 MLOAD DUP1 SWAP2 SUB SWAP1 RETURN JUMPDEST PUSH2 0x17F PUSH2 0x56F JUMP JUMPDEST STOP JUMPDEST PUSH2 0x189 PUSH2 0x582 JUMP JUMPDEST PUSH1 0x40 MLOAD PUSH2 0x196 SWAP2 SWAP1 PUSH2 0x17CC JUMP JUMPDEST PUSH1 0x40 MLOAD DUP1 SWAP2 SUB SWAP1 RETURN JUMPDEST PUSH2 0x1B9 PUSH1 0x4 DUP1 CALLDATASIZE SUB DUP2 ADD SWAP1 PUSH2 0x1B4 SWAP2 SWAP1 PUSH2 0x1842 JUMP JUMPDEST PUSH2 0x5A9 JUMP JUMPDEST PUSH1 0x40 MLOAD PUSH2 0x1C6 SWAP2 SWAP1 PUSH2 0x148B JUMP JUMPDEST PUSH1 0x40 MLOAD DUP1 SWAP2 SUB SWAP1 RETURN JUMPDEST PUSH2 0x1E9 PUSH1 0x4 DUP1 CALLDATASIZE SUB DUP2 ADD SWAP1 PUSH2 0x1E4 SWAP2 SWAP1 PUSH2 0x18E2 JUMP JUMPDEST PUSH2 0x817 JUMP JUMPDEST PUSH1 0x40 MLOAD PUSH2 0x1F6 SWAP2 SWAP1 PUSH2 0x148B JUMP JUMPDEST PUSH1 0x40 MLOAD DUP1 SWAP2 SUB SWAP1 RETURN JUMPDEST PUSH2 0x219 PUSH1 0x4 DUP1 CALLDATASIZE SUB DUP2 ADD SWAP1 PUSH2 0x214 SWAP2 SWAP1 PUSH2 0x192D JUMP JUMPDEST PUSH2 0xFD0 JUMP JUMPDEST PUSH1 0x40 MLOAD PUSH2 0x226 SWAP2 SWAP1 PUSH2 0x148B JUMP JUMPDEST PUSH1 0x40 MLOAD DUP1 SWAP2 SUB SWAP1 RETURN JUMPDEST PUSH2 0x249 PUSH1 0x4 DUP1 CALLDATASIZE SUB DUP2 ADD SWAP1 PUSH2 0x244 SWAP2 SWAP1 PUSH2 0x1446 JUMP JUMPDEST PUSH2 0x106D JUMP JUMPDEST STOP JUMPDEST PUSH0 PUSH2 0x254 PUSH2 0x10F1 JUMP JUMPDEST PUSH2 0x25D DUP3 PUSH2 0x1178 JUMP JUMPDEST PUSH2 0x29C JUMPI PUSH1 0x40 MLOAD PUSH32 0x8C379A000000000000000000000000000000000000000000000000000000000 DUP2 MSTORE PUSH1 0x4 ADD PUSH2 0x293 SWAP1 PUSH2 0x19EB JUMP JUMPDEST PUSH1 0x40 MLOAD DUP1 SWAP2 SUB SWAP1 REVERT JUMPDEST PUSH0 JUMPDEST PUSH1 0x3 DUP1 SLOAD SWAP1 POP DUP2 LT ISZERO PUSH2 0x451 JUMPI DUP3 PUSH20 0xFFFFFFFFFFFFFFFFFFFFFFFFFFFFFFFFFFFFFFFF AND PUSH1 0x3 DUP3 DUP2 SLOAD DUP2 LT PUSH2 0x2D6 JUMPI PUSH2 0x2D5 PUSH2 0x1A09 JUMP JUMPDEST JUMPDEST SWAP1 PUSH0 MSTORE PUSH1 0x20 PUSH0 KECCAK256 ADD PUSH0 SWAP1 SLOAD SWAP1 PUSH2 0x100 EXP SWAP1 DIV PUSH20 0xFFFFFFFFFFFFFFFFFFFFFFFFFFFFFFFFFFFFFFFF AND PUSH20 0xFFFFFFFFFFFFFFFFFFFFFFFFFFFFFFFFFFFFFFFF AND SUB PUSH2 0x444 JUMPI PUSH1 0x3 PUSH1 0x1 PUSH1 0x3 DUP1 SLOAD SWAP1 POP PUSH2 0x32D SWAP2 SWAP1 PUSH2 0x1A63 JUMP JUMPDEST DUP2 SLOAD DUP2 LT PUSH2 0x33E JUMPI PUSH2 0x33D PUSH2 0x1A09 JUMP JUMPDEST JUMPDEST SWAP1 PUSH0 MSTORE PUSH1 0x20 PUSH0 KECCAK256 ADD PUSH0 SWAP1 SLOAD SWAP1 PUSH2 0x100 EXP SWAP1 DIV PUSH20 0xFFFFFFFFFFFFFFFFFFFFFFFFFFFFFFFFFFFFFFFF AND PUSH1 0x3 DUP3 DUP2 SLOAD DUP2 LT PUSH2 0x37A JUMPI PUSH2 0x379 PUSH2 0x1A09 JUMP JUMPDEST JUMPDEST SWAP1 PUSH0 MSTORE PUSH1 0x20 PUSH0 KECCAK256 ADD PUSH0 PUSH2 0x100 EXP DUP2 SLOAD DUP2 PUSH20 0xFFFFFFFFFFFFFFFFFFFFFFFFFFFFFFFFFFFFFFFF MUL NOT AND SWAP1 DUP4 PUSH20 0xFFFFFFFFFFFFFFFFFFFFFFFFFFFFFFFFFFFFFFFF AND MUL OR SWAP1 SSTORE POP PUSH1 0x3 DUP1 SLOAD DUP1 PUSH2 0x3D1 JUMPI PUSH2 0x3D0 PUSH2 0x1A96 JUMP JUMPDEST JUMPDEST PUSH1 0x1 SWAP1 SUB DUP2 DUP2 SWAP1 PUSH0 MSTORE PUSH1 0x20 PUSH0 KECCAK256 ADD PUSH0 PUSH2 0x100 EXP DUP2 SLOAD SWAP1 PUSH20 0xFFFFFFFFFFFFFFFFFFFFFFFFFFFFFFFFFFFFFFFF MUL NOT AND SWAP1 SSTORE SWAP1 SSTORE PUSH32 0xFFF8612F5EBB2EF78030ADE93E8FF4B3686D931416BEF43806AEADDF398C3F73 DUP4 PUSH1 0x40 MLOAD PUSH2 0x432 SWAP2 SWAP1 PUSH2 0x17CC JUMP JUMPDEST PUSH1 0x40 MLOAD DUP1 SWAP2 SUB SWAP1 LOG1 PUSH1 0x1 SWAP2 POP POP PUSH2 0x457 JUMP JUMPDEST DUP1 DUP1 PUSH1 0x1 ADD SWAP2 POP POP PUSH2 0x29E JUMP JUMPDEST POP PUSH1 0x1 SWAP1 POP JUMPDEST SWAP2 SWAP1 POP JUMP JUMPDEST PUSH1 0x60 PUSH1 0x3 DUP1 SLOAD DUP1 PUSH1 0x20 MUL PUSH1 0x20 ADD PUSH1 0x40 MLOAD SWAP1 DUP2 ADD PUSH1 0x40 MSTORE DUP1 SWAP3 SWAP2 SWAP1 DUP2 DUP2 MSTORE PUSH1 0x20 ADD DUP3 DUP1 SLOAD DUP1 ISZERO PUSH2 0x4DD JUMPI PUSH1 0x20 MUL DUP3 ADD SWAP2 SWAP1 PUSH0 MSTORE PUSH1 0x20 PUSH0 KECCAK256 SWAP1 JUMPDEST DUP2 PUSH0 SWAP1 SLOAD SWAP1 PUSH2 0x100 EXP SWAP1 DIV PUSH20 0xFFFFFFFFFFFFFFFFFFFFFFFFFFFFFFFFFFFFFFFF AND PUSH20 0xFFFFFFFFFFFFFFFFFFFFFFFFFFFFFFFFFFFFFFFF AND DUP2 MSTORE PUSH1 0x20 ADD SWAP1 PUSH1 0x1 ADD SWAP1 DUP1 DUP4 GT PUSH2 0x494 JUMPI JUMPDEST POP POP POP POP POP SWAP1 POP SWAP1 JUMP JUMPDEST PUSH0 PUSH32 0x541CB930DBB178D9D0A40B098C309DDA5A70E722066990941158D1F77B5BFCF3 DUP6 DUP6 DUP6 DUP6 PUSH1 0x40 MLOAD PUSH2 0x51D SWAP5 SWAP4 SWAP3 SWAP2 SWAP1 PUSH2 0x1B32 JUMP JUMPDEST PUSH1 0x40 MLOAD DUP1 SWAP2 SUB SWAP1 LOG1 PUSH4 0x150B7A02 PUSH1 0xE0 SHL SWAP1 POP SWAP5 SWAP4 POP POP POP POP JUMP JUMPDEST PUSH0 PUSH2 0x540 PUSH2 0x10F1 JUMP JUMPDEST PUSH1 0x4 PUSH0 DUP2 SLOAD DUP1 SWAP3 SWAP2 SWAP1 PUSH2 0x552 SWAP1 PUSH2 0x1B7C JUMP JUMPDEST SWAP2 SWAP1 POP SSTORE POP PUSH1 0x1 SWAP1 POP SWAP1 JUMP JUMPDEST PUSH0 PUSH2 0x568 DUP3 PUSH2 0x1178 JUMP JUMPDEST SWAP1 POP SWAP2 SWAP1 POP JUMP JUMPDEST PUSH2 0x577 PUSH2 0x10F1 JUMP JUMPDEST PUSH2 0x580 PUSH0 PUSH2 0x121D JUMP JUMPDEST JUMP JUMPDEST PUSH0 DUP1 PUSH0 SWAP1 SLOAD SWAP1 PUSH2 0x100 EXP SWAP1 DIV PUSH20 0xFFFFFFFFFFFFFFFFFFFFFFFFFFFFFFFFFFFFFFFF AND SWAP1 POP SWAP1 JUMP JUMPDEST PUSH0 PUSH2 0x5B2 PUSH2 0x10F1 JUMP JUMPDEST PUSH0 JUMPDEST DUP4 DUP4 SWAP1 POP DUP2 LT ISZERO PUSH2 0x7D3 JUMPI PUSH0 PUSH20 0xFFFFFFFFFFFFFFFFFFFFFFFFFFFFFFFFFFFFFFFF AND DUP5 DUP5 DUP4 DUP2 DUP2 LT PUSH2 0x5E9 JUMPI PUSH2 0x5E8 PUSH2 0x1A09 JUMP JUMPDEST JUMPDEST SWAP1 POP PUSH1 0x20 MUL ADD PUSH1 0x20 DUP2 ADD SWAP1 PUSH2 0x5FE SWAP2 SWAP1 PUSH2 0x1446 JUMP JUMPDEST PUSH20 0xFFFFFFFFFFFFFFFFFFFFFFFFFFFFFFFFFFFFFFFF AND SUB PUSH2 0x654 JUMPI PUSH1 0x40 MLOAD PUSH32 0x8C379A000000000000000000000000000000000000000000000000000000000 DUP2 MSTORE PUSH1 0x4 ADD PUSH2 0x64B SWAP1 PUSH2 0x1C0D JUMP JUMPDEST PUSH1 0x40 MLOAD DUP1 SWAP2 SUB SWAP1 REVERT JUMPDEST PUSH1 0x1 PUSH1 0x7 SLOAD SUB PUSH2 0x6CF JUMPI PUSH2 0x68F DUP5 DUP5 DUP4 DUP2 DUP2 LT PUSH2 0x674 JUMPI PUSH2 0x673 PUSH2 0x1A09 JUMP JUMPDEST JUMPDEST SWAP1 POP PUSH1 0x20 MUL ADD PUSH1 0x20 DUP2 ADD SWAP1 PUSH2 0x689 SWAP2 SWAP1 PUSH2 0x1446 JUMP JUMPDEST PUSH0 PUSH2 0x12DE JUMP JUMPDEST PUSH2 0x6CE JUMPI PUSH1 0x40 MLOAD PUSH32 0x8C379A000000000000000000000000000000000000000000000000000000000 DUP2 MSTORE PUSH1 0x4 ADD PUSH2 0x6C5 SWAP1 PUSH2 0x1C75 JUMP JUMPDEST PUSH1 0x40 MLOAD DUP1 SWAP2 SUB SWAP1 REVERT JUMPDEST JUMPDEST PUSH2 0x6FF DUP5 DUP5 DUP4 DUP2 DUP2 LT PUSH2 0x6E5 JUMPI PUSH2 0x6E4 PUSH2 0x1A09 JUMP JUMPDEST JUMPDEST SWAP1 POP PUSH1 0x20 MUL ADD PUSH1 0x20 DUP2 ADD SWAP1 PUSH2 0x6FA SWAP2 SWAP1 PUSH2 0x1446 JUMP JUMPDEST PUSH2 0x55E JUMP JUMPDEST ISZERO PUSH2 0x73F JUMPI PUSH1 0x40 MLOAD PUSH32 0x8C379A000000000000000000000000000000000000000000000000000000000 DUP2 MSTORE PUSH1 0x4 ADD PUSH2 0x736 SWAP1 PUSH2 0x1CDD JUMP JUMPDEST PUSH1 0x40 MLOAD DUP1 SWAP2 SUB SWAP1 REVERT JUMPDEST PUSH1 0x3 DUP5 DUP5 DUP4 DUP2 DUP2 LT PUSH2 0x754 JUMPI PUSH2 0x753 PUSH2 0x1A09 JUMP JUMPDEST JUMPDEST SWAP1 POP PUSH1 0x20 MUL ADD PUSH1 0x20 DUP2 ADD SWAP1 PUSH2 0x769 SWAP2 SWAP1 PUSH2 0x1446 JUMP JUMPDEST SWAP1 DUP1 PUSH1 0x1 DUP2 SLOAD ADD DUP1 DUP3 SSTORE DUP1 SWAP2 POP POP PUSH1 0x1 SWAP1 SUB SWAP1 PUSH0 MSTORE PUSH1 0x20 PUSH0 KECCAK256 ADD PUSH0 SWAP1 SWAP2 SWAP1 SWAP2 SWAP1 SWAP2 PUSH2 0x100 EXP DUP2 SLOAD DUP2 PUSH20 0xFFFFFFFFFFFFFFFFFFFFFFFFFFFFFFFFFFFFFFFF MUL NOT AND SWAP1 DUP4 PUSH20 0xFFFFFFFFFFFFFFFFFFFFFFFFFFFFFFFFFFFFFFFF AND MUL OR SWAP1 SSTORE POP DUP1 DUP1 PUSH1 0x1 ADD SWAP2 POP POP PUSH2 0x5B4 JUMP JUMPDEST POP PUSH32 0x8F47A973C821CCA98D90B2C53821DC01E2971B8B14DB8AAE5776F42EA6CCCC9A DUP4 DUP4 PUSH1 0x40 MLOAD PUSH2 0x805 SWAP3 SWAP2 SWAP1 PUSH2 0x1D81 JUMP JUMPDEST PUSH1 0x40 MLOAD DUP1 SWAP2 SUB SWAP1 LOG1 PUSH1 0x1 SWAP1 POP SWAP3 SWAP2 POP POP JUMP JUMPDEST PUSH0 PUSH2 0x820 PUSH2 0x10F1 JUMP JUMPDEST PUSH0 PUSH20 0xFFFFFFFFFFFFFFFFFFFFFFFFFFFFFFFFFFFFFFFF AND PUSH1 0x5 PUSH0 SWAP1 SLOAD SWAP1 PUSH2 0x100 EXP SWAP1 DIV PUSH20 0xFFFFFFFFFFFFFFFFFFFFFFFFFFFFFFFFFFFFFFFF AND PUSH20 0xFFFFFFFFFFFFFFFFFFFFFFFFFFFFFFFFFFFFFFFF AND SUB PUSH2 0x8AF JUMPI PUSH1 0x40 MLOAD PUSH32 0x8C379A000000000000000000000000000000000000000000000000000000000 DUP2 MSTORE PUSH1 0x4 ADD PUSH2 0x8A6 SWAP1 PUSH2 0x1DED JUMP JUMPDEST PUSH1 0x40 MLOAD DUP1 SWAP2 SUB SWAP1 REVERT JUMPDEST PUSH0 PUSH1 0x3 DUP1 SLOAD SWAP1 POP GT PUSH2 0x8F6 JUMPI PUSH1 0x40 MLOAD PUSH32 0x8C379A000000000000000000000000000000000000000000000000000000000 DUP2 MSTORE PUSH1 0x4 ADD PUSH2 0x8ED SWAP1 PUSH2 0x1E55 JUMP JUMPDEST PUSH1 0x40 MLOAD DUP1 SWAP2 SUB SWAP1 REVERT JUMPDEST DUP3 DUP3 SWAP1 POP PUSH1 0x3 DUP1 SLOAD SWAP1 POP EQ PUSH2 0x940 JUMPI PUSH1 0x40 MLOAD PUSH32 0x8C379A000000000000000000000000000000000000000000000000000000000 DUP2 MSTORE PUSH1 0x4 ADD PUSH2 0x937 SWAP1 PUSH2 0x1F09 JUMP JUMPDEST PUSH1 0x40 MLOAD DUP1 SWAP2 SUB SWAP1 REVERT JUMPDEST PUSH0 DUP1 PUSH0 PUSH1 0x7 SLOAD SUB PUSH2 0x974 JUMPI PUSH1 0x5 PUSH0 SWAP1 SLOAD SWAP1 PUSH2 0x100 EXP SWAP1 DIV PUSH20 0xFFFFFFFFFFFFFFFFFFFFFFFFFFFFFFFFFFFFFFFF AND SWAP1 POP PUSH2 0x999 JUMP JUMPDEST PUSH1 0x5 PUSH0 SWAP1 SLOAD SWAP1 PUSH2 0x100 EXP SWAP1 DIV PUSH20 0xFFFFFFFFFFFFFFFFFFFFFFFFFFFFFFFFFFFFFFFF AND SWAP2 POP JUMPDEST PUSH32 0xE92CFCA7BDC1F76F97B0CECC8D1DDABB94D01C99D9429C0963302A2F2A92714D PUSH1 0x3 DUP7 DUP7 PUSH1 0x40 MLOAD PUSH2 0x9CD SWAP4 SWAP3 SWAP2 SWAP1 PUSH2 0x207F JUMP JUMPDEST PUSH1 0x40 MLOAD DUP1 SWAP2 SUB SWAP1 LOG1 PUSH0 JUMPDEST PUSH1 0x3 DUP1 SLOAD SWAP1 POP DUP2 LT ISZERO PUSH2 0xFC3 JUMPI PUSH0 PUSH1 0x3 DUP3 DUP2 SLOAD DUP2 LT PUSH2 0x9F9 JUMPI PUSH2 0x9F8 PUSH2 0x1A09 JUMP JUMPDEST JUMPDEST SWAP1 PUSH0 MSTORE PUSH1 0x20 PUSH0 KECCAK256 ADD PUSH0 SWAP1 SLOAD SWAP1 PUSH2 0x100 EXP SWAP1 DIV PUSH20 0xFFFFFFFFFFFFFFFFFFFFFFFFFFFFFFFFFFFFFFFF AND SWAP1 POP PUSH1 0x2 PUSH0 DUP9 DUP9 DUP6 DUP2 DUP2 LT PUSH2 0xA39 JUMPI PUSH2 0xA38 PUSH2 0x1A09 JUMP JUMPDEST JUMPDEST SWAP1 POP PUSH1 0x20 MUL ADD CALLDATALOAD DUP2 MSTORE PUSH1 0x20 ADD SWAP1 DUP2 MSTORE PUSH1 0x20 ADD PUSH0 KECCAK256 PUSH0 SWAP1 SLOAD SWAP1 PUSH2 0x100 EXP SWAP1 DIV PUSH1 0xFF AND ISZERO PUSH2 0xA9A JUMPI PUSH1 0x40 MLOAD PUSH32 0x8C379A000000000000000000000000000000000000000000000000000000000 DUP2 MSTORE PUSH1 0x4 ADD PUSH2 0xA91 SWAP1 PUSH2 0x2100 JUMP JUMPDEST PUSH1 0x40 MLOAD DUP1 SWAP2 SUB SWAP1 REVERT JUMPDEST PUSH0 PUSH1 0x7 SLOAD SUB PUSH2 0xB9B JUMPI DUP7 DUP7 DUP4 DUP2 DUP2 LT PUSH2 0xAB6 JUMPI PUSH2 0xAB5 PUSH2 0x1A09 JUMP JUMPDEST JUMPDEST SWAP1 POP PUSH1 0x20 MUL ADD CALLDATALOAD DUP5 PUSH20 0xFFFFFFFFFFFFFFFFFFFFFFFFFFFFFFFFFFFFFFFF AND PUSH4 0x70A08231 PUSH1 0x6 PUSH0 SWAP1 SLOAD SWAP1 PUSH2 0x100 EXP SWAP1 DIV PUSH20 0xFFFFFFFFFFFFFFFFFFFFFFFFFFFFFFFFFFFFFFFF AND PUSH1 0x40 MLOAD DUP3 PUSH4 0xFFFFFFFF AND PUSH1 0xE0 SHL DUP2 MSTORE PUSH1 0x4 ADD PUSH2 0xB17 SWAP2 SWAP1 PUSH2 0x17CC JUMP JUMPDEST PUSH1 0x20 PUSH1 0x40 MLOAD DUP1 DUP4 SUB DUP2 DUP7 GAS STATICCALL ISZERO DUP1 ISZERO PUSH2 0xB32 JUMPI RETURNDATASIZE PUSH0 DUP1 RETURNDATACOPY RETURNDATASIZE PUSH0 REVERT JUMPDEST POP POP POP POP PUSH1 0x40 MLOAD RETURNDATASIZE PUSH1 0x1F NOT PUSH1 0x1F DUP3 ADD AND DUP3 ADD DUP1 PUSH1 0x40 MSTORE POP DUP2 ADD SWAP1 PUSH2 0xB56 SWAP2 SWAP1 PUSH2 0x2132 JUMP JUMPDEST GT PUSH2 0xB96 JUMPI PUSH1 0x40 MLOAD PUSH32 0x8C379A000000000000000000000000000000000000000000000000000000000 DUP2 MSTORE PUSH1 0x4 ADD PUSH2 0xB8D SWAP1 PUSH2 0x21A7 JUMP JUMPDEST PUSH1 0x40 MLOAD DUP1 SWAP2 SUB SWAP1 REVERT JUMPDEST PUSH2 0xCBB JUMP JUMPDEST PUSH1 0x6 PUSH0 SWAP1 SLOAD SWAP1 PUSH2 0x100 EXP SWAP1 DIV PUSH20 0xFFFFFFFFFFFFFFFFFFFFFFFFFFFFFFFFFFFFFFFF AND PUSH20 0xFFFFFFFFFFFFFFFFFFFFFFFFFFFFFFFFFFFFFFFF AND DUP5 PUSH20 0xFFFFFFFFFFFFFFFFFFFFFFFFFFFFFFFFFFFFFFFF AND PUSH4 0x6352211E DUP10 DUP10 DUP7 DUP2 DUP2 LT PUSH2 0xC02 JUMPI PUSH2 0xC01 PUSH2 0x1A09 JUMP JUMPDEST JUMPDEST SWAP1 POP PUSH1 0x20 MUL ADD CALLDATALOAD PUSH1 0x40 MLOAD DUP3 PUSH4 0xFFFFFFFF AND PUSH1 0xE0 SHL DUP2 MSTORE PUSH1 0x4 ADD PUSH2 0xC25 SWAP2 SWAP1 PUSH2 0x21C5 JUMP JUMPDEST PUSH1 0x20 PUSH1 0x40 MLOAD DUP1 DUP4 SUB DUP2 DUP7 GAS STATICCALL ISZERO DUP1 ISZERO PUSH2 0xC40 JUMPI RETURNDATASIZE PUSH0 DUP1 RETURNDATACOPY RETURNDATASIZE PUSH0 REVERT JUMPDEST POP POP POP POP PUSH1 0x40 MLOAD RETURNDATASIZE PUSH1 0x1F NOT PUSH1 0x1F DUP3 ADD AND DUP3 ADD DUP1 PUSH1 0x40 MSTORE POP DUP2 ADD SWAP1 PUSH2 0xC64 SWAP2 SWAP1 PUSH2 0x21F2 JUMP JUMPDEST PUSH20 0xFFFFFFFFFFFFFFFFFFFFFFFFFFFFFFFFFFFFFFFF AND EQ PUSH2 0xCBA JUMPI PUSH1 0x40 MLOAD PUSH32 0x8C379A000000000000000000000000000000000000000000000000000000000 DUP2 MSTORE PUSH1 0x4 ADD PUSH2 0xCB1 SWAP1 PUSH2 0x2267 JUMP JUMPDEST PUSH1 0x40 MLOAD DUP1 SWAP2 SUB SWAP1 REVERT JUMPDEST JUMPDEST PUSH1 0x1 PUSH0 PUSH1 0x4 SLOAD DUP2 MSTORE PUSH1 0x20 ADD SWAP1 DUP2 MSTORE PUSH1 0x20 ADD PUSH0 KECCAK256 PUSH0 DUP3 PUSH20 0xFFFFFFFFFFFFFFFFFFFFFFFFFFFFFFFFFFFFFFFF AND PUSH20 0xFFFFFFFFFFFFFFFFFFFFFFFFFFFFFFFFFFFFFFFF AND DUP2 MSTORE PUSH1 0x20 ADD SWAP1 DUP2 MSTORE PUSH1 0x20 ADD PUSH0 KECCAK256 PUSH0 SWAP1 SLOAD SWAP1 PUSH2 0x100 EXP SWAP1 DIV PUSH1 0xFF AND PUSH2 0xFB5 JUMPI PUSH1 0x1 DUP1 PUSH0 PUSH1 0x4 SLOAD DUP2 MSTORE PUSH1 0x20 ADD SWAP1 DUP2 MSTORE PUSH1 0x20 ADD PUSH0 KECCAK256 PUSH0 DUP4 PUSH20 0xFFFFFFFFFFFFFFFFFFFFFFFFFFFFFFFFFFFFFFFF AND PUSH20 0xFFFFFFFFFFFFFFFFFFFFFFFFFFFFFFFFFFFFFFFF AND DUP2 MSTORE PUSH1 0x20 ADD SWAP1 DUP2 MSTORE PUSH1 0x20 ADD PUSH0 KECCAK256 PUSH0 PUSH2 0x100 EXP DUP2 SLOAD DUP2 PUSH1 0xFF MUL NOT AND SWAP1 DUP4 ISZERO ISZERO MUL OR SWAP1 SSTORE POP PUSH1 0x1 PUSH1 0x2 PUSH0 DUP10 DUP10 DUP7 DUP2 DUP2 LT PUSH2 0xD97 JUMPI PUSH2 0xD96 PUSH2 0x1A09 JUMP JUMPDEST JUMPDEST SWAP1 POP PUSH1 0x20 MUL ADD CALLDATALOAD DUP2 MSTORE PUSH1 0x20 ADD SWAP1 DUP2 MSTORE PUSH1 0x20 ADD PUSH0 KECCAK256 PUSH0 PUSH2 0x100 EXP DUP2 SLOAD DUP2 PUSH1 0xFF MUL NOT AND SWAP1 DUP4 ISZERO ISZERO MUL OR SWAP1 SSTORE POP PUSH32 0x21D7275921040B7A98CB165BED5D78DB95B33CBB86CAEAB5AB5A8AE3C801A029 DUP8 DUP8 DUP5 DUP2 DUP2 LT PUSH2 0xDF5 JUMPI PUSH2 0xDF4 PUSH2 0x1A09 JUMP JUMPDEST JUMPDEST SWAP1 POP PUSH1 0x20 MUL ADD CALLDATALOAD PUSH1 0x2 PUSH0 DUP11 DUP11 DUP8 DUP2 DUP2 LT PUSH2 0xE12 JUMPI PUSH2 0xE11 PUSH2 0x1A09 JUMP JUMPDEST JUMPDEST SWAP1 POP PUSH1 0x20 MUL ADD CALLDATALOAD DUP2 MSTORE PUSH1 0x20 ADD SWAP1 DUP2 MSTORE PUSH1 0x20 ADD PUSH0 KECCAK256 PUSH0 SWAP1 SLOAD SWAP1 PUSH2 0x100 EXP SWAP1 DIV PUSH1 0xFF AND PUSH1 0x40 MLOAD PUSH2 0xE41 SWAP3 SWAP2 SWAP1 PUSH2 0x2285 JUMP JUMPDEST PUSH1 0x40 MLOAD DUP1 SWAP2 SUB SWAP1 LOG1 PUSH0 PUSH1 0x7 SLOAD SUB PUSH2 0xF0F JUMPI DUP3 PUSH20 0xFFFFFFFFFFFFFFFFFFFFFFFFFFFFFFFFFFFFFFFF AND PUSH4 0x23B872DD PUSH1 0x6 PUSH0 SWAP1 SLOAD SWAP1 PUSH2 0x100 EXP SWAP1 DIV PUSH20 0xFFFFFFFFFFFFFFFFFFFFFFFFFFFFFFFFFFFFFFFF AND DUP4 DUP11 DUP11 DUP8 DUP2 DUP2 LT PUSH2 0xEA4 JUMPI PUSH2 0xEA3 PUSH2 0x1A09 JUMP JUMPDEST JUMPDEST SWAP1 POP PUSH1 0x20 MUL ADD CALLDATALOAD PUSH1 0x40 MLOAD DUP5 PUSH4 0xFFFFFFFF AND PUSH1 0xE0 SHL DUP2 MSTORE PUSH1 0x4 ADD PUSH2 0xEC9 SWAP4 SWAP3 SWAP2 SWAP1 PUSH2 0x22AC JUMP JUMPDEST PUSH1 0x20 PUSH1 0x40 MLOAD DUP1 DUP4 SUB DUP2 PUSH0 DUP8 GAS CALL ISZERO DUP1 ISZERO PUSH2 0xEE5 JUMPI RETURNDATASIZE PUSH0 DUP1 RETURNDATACOPY RETURNDATASIZE PUSH0 REVERT JUMPDEST POP POP POP POP PUSH1 0x40 MLOAD RETURNDATASIZE PUSH1 0x1F NOT PUSH1 0x1F DUP3 ADD AND DUP3 ADD DUP1 PUSH1 0x40 MSTORE POP DUP2 ADD SWAP1 PUSH2 0xF09 SWAP2 SWAP1 PUSH2 0x230B JUMP JUMPDEST POP PUSH2 0xFB4 JUMP JUMPDEST DUP4 PUSH20 0xFFFFFFFFFFFFFFFFFFFFFFFFFFFFFFFFFFFFFFFF AND PUSH4 0x23B872DD PUSH1 0x6 PUSH0 SWAP1 SLOAD SWAP1 PUSH2 0x100 EXP SWAP1 DIV PUSH20 0xFFFFFFFFFFFFFFFFFFFFFFFFFFFFFFFFFFFFFFFF AND DUP4 DUP11 DUP11 DUP8 DUP2 DUP2 LT PUSH2 0xF61 JUMPI PUSH2 0xF60 PUSH2 0x1A09 JUMP JUMPDEST JUMPDEST SWAP1 POP PUSH1 0x20 MUL ADD CALLDATALOAD PUSH1 0x40 MLOAD DUP5 PUSH4 0xFFFFFFFF AND PUSH1 0xE0 SHL DUP2 MSTORE PUSH1 0x4 ADD PUSH2 0xF86 SWAP4 SWAP3 SWAP2 SWAP1 PUSH2 0x22AC JUMP JUMPDEST PUSH0 PUSH1 0x40 MLOAD DUP1 DUP4 SUB DUP2 PUSH0 DUP8 DUP1 EXTCODESIZE ISZERO DUP1 ISZERO PUSH2 0xF9D JUMPI PUSH0 DUP1 REVERT JUMPDEST POP GAS CALL ISZERO DUP1 ISZERO PUSH2 0xFAF JUMPI RETURNDATASIZE PUSH0 DUP1 RETURNDATACOPY RETURNDATASIZE PUSH0 REVERT JUMPDEST POP POP POP POP JUMPDEST JUMPDEST POP DUP1 DUP1 PUSH1 0x1 ADD SWAP2 POP POP PUSH2 0x9D7 JUMP JUMPDEST POP PUSH1 0x1 SWAP3 POP POP POP SWAP3 SWAP2 POP POP JUMP JUMPDEST PUSH0 PUSH1 0x1 PUSH0 PUSH1 0x4 SLOAD DUP2 MSTORE PUSH1 0x20 ADD SWAP1 DUP2 MSTORE PUSH1 0x20 ADD PUSH0 KECCAK256 PUSH0 DUP5 PUSH20 0xFFFFFFFFFFFFFFFFFFFFFFFFFFFFFFFFFFFFFFFF AND PUSH20 0xFFFFFFFFFFFFFFFFFFFFFFFFFFFFFFFFFFFFFFFF AND DUP2 MSTORE PUSH1 0x20 ADD SWAP1 DUP2 MSTORE PUSH1 0x20 ADD PUSH0 KECCAK256 PUSH0 SWAP1 SLOAD SWAP1 PUSH2 0x100 EXP SWAP1 DIV PUSH1 0xFF AND ISZERO DUP1 ISZERO PUSH2 0x103E JUMPI POP PUSH2 0x103D DUP4 PUSH2 0x1178 JUMP JUMPDEST JUMPDEST DUP1 ISZERO PUSH2 0x1065 JUMPI POP PUSH1 0x2 PUSH0 DUP4 DUP2 MSTORE PUSH1 0x20 ADD SWAP1 DUP2 MSTORE PUSH1 0x20 ADD PUSH0 KECCAK256 PUSH0 SWAP1 SLOAD SWAP1 PUSH2 0x100 EXP SWAP1 DIV PUSH1 0xFF AND ISZERO JUMPDEST SWAP1 POP SWAP3 SWAP2 POP POP JUMP JUMPDEST PUSH2 0x1075 PUSH2 0x10F1 JUMP JUMPDEST PUSH0 PUSH20 0xFFFFFFFFFFFFFFFFFFFFFFFFFFFFFFFFFFFFFFFF AND DUP2 PUSH20 0xFFFFFFFFFFFFFFFFFFFFFFFFFFFFFFFFFFFFFFFF AND SUB PUSH2 0x10E5 JUMPI PUSH0 PUSH1 0x40 MLOAD PUSH32 0x1E4FBDF700000000000000000000000000000000000000000000000000000000 DUP2 MSTORE PUSH1 0x4 ADD PUSH2 0x10DC SWAP2 SWAP1 PUSH2 0x17CC JUMP JUMPDEST PUSH1 0x40 MLOAD DUP1 SWAP2 SUB SWAP1 REVERT JUMPDEST PUSH2 0x10EE DUP2 PUSH2 0x121D JUMP JUMPDEST POP JUMP JUMPDEST PUSH2 0x10F9 PUSH2 0x13CA JUMP JUMPDEST PUSH20 0xFFFFFFFFFFFFFFFFFFFFFFFFFFFFFFFFFFFFFFFF AND PUSH2 0x1117 PUSH2 0x582 JUMP JUMPDEST PUSH20 0xFFFFFFFFFFFFFFFFFFFFFFFFFFFFFFFFFFFFFFFF AND EQ PUSH2 0x1176 JUMPI PUSH2 0x113A PUSH2 0x13CA JUMP JUMPDEST PUSH1 0x40 MLOAD PUSH32 0x118CDAA700000000000000000000000000000000000000000000000000000000 DUP2 MSTORE PUSH1 0x4 ADD PUSH2 0x116D SWAP2 SWAP1 PUSH2 0x17CC JUMP JUMPDEST PUSH1 0x40 MLOAD DUP1 SWAP2 SUB SWAP1 REVERT JUMPDEST JUMP JUMPDEST PUSH0 DUP1 PUSH1 0x3 DUP1 SLOAD SWAP1 POP SWAP1 POP PUSH0 JUMPDEST DUP2 DUP2 LT ISZERO PUSH2 0x1212 JUMPI DUP4 PUSH20 0xFFFFFFFFFFFFFFFFFFFFFFFFFFFFFFFFFFFFFFFF AND PUSH1 0x3 DUP3 DUP2 SLOAD DUP2 LT PUSH2 0x11B7 JUMPI PUSH2 0x11B6 PUSH2 0x1A09 JUMP JUMPDEST JUMPDEST SWAP1 PUSH0 MSTORE PUSH1 0x20 PUSH0 KECCAK256 ADD PUSH0 SWAP1 SLOAD SWAP1 PUSH2 0x100 EXP SWAP1 DIV PUSH20 0xFFFFFFFFFFFFFFFFFFFFFFFFFFFFFFFFFFFFFFFF AND PUSH20 0xFFFFFFFFFFFFFFFFFFFFFFFFFFFFFFFFFFFFFFFF AND SUB PUSH2 0x1205 JUMPI PUSH1 0x1 SWAP3 POP POP POP PUSH2 0x1218 JUMP JUMPDEST DUP1 DUP1 PUSH1 0x1 ADD SWAP2 POP POP PUSH2 0x1184 JUMP JUMPDEST POP PUSH0 SWAP2 POP POP JUMPDEST SWAP2 SWAP1 POP JUMP JUMPDEST PUSH0 DUP1 PUSH0 SWAP1 SLOAD SWAP1 PUSH2 0x100 EXP SWAP1 DIV PUSH20 0xFFFFFFFFFFFFFFFFFFFFFFFFFFFFFFFFFFFFFFFF AND SWAP1 POP DUP2 PUSH0 DUP1 PUSH2 0x100 EXP DUP2 SLOAD DUP2 PUSH20 0xFFFFFFFFFFFFFFFFFFFFFFFFFFFFFFFFFFFFFFFF MUL NOT AND SWAP1 DUP4 PUSH20 0xFFFFFFFFFFFFFFFFFFFFFFFFFFFFFFFFFFFFFFFF AND MUL OR SWAP1 SSTORE POP DUP2 PUSH20 0xFFFFFFFFFFFFFFFFFFFFFFFFFFFFFFFFFFFFFFFF AND DUP2 PUSH20 0xFFFFFFFFFFFFFFFFFFFFFFFFFFFFFFFFFFFFFFFF AND PUSH32 0x8BE0079C531659141344CD1FD0A4F28419497F9722A3DAAFE3B4186F6B6457E0 PUSH1 0x40 MLOAD PUSH1 0x40 MLOAD DUP1 SWAP2 SUB SWAP1 LOG3 POP POP JUMP JUMPDEST PUSH0 DUP1 PUSH2 0x12E9 DUP5 PUSH2 0x13D1 JUMP JUMPDEST GT ISZERO PUSH2 0x12F8 JUMPI PUSH1 0x1 SWAP1 POP PUSH2 0x13C4 JUMP JUMPDEST PUSH0 DUP4 SWAP1 POP PUSH4 0x150B7A02 PUSH1 0xE0 SHL PUSH28 0xFFFFFFFFFFFFFFFFFFFFFFFFFFFFFFFFFFFFFFFFFFFFFFFFFFFFFFFF NOT AND DUP2 PUSH20 0xFFFFFFFFFFFFFFFFFFFFFFFFFFFFFFFFFFFFFFFF AND PUSH4 0x150B7A02 ADDRESS CALLER DUP8 PUSH1 0x40 MLOAD DUP5 PUSH4 0xFFFFFFFF AND PUSH1 0xE0 SHL DUP2 MSTORE PUSH1 0x4 ADD PUSH2 0x1360 SWAP4 SWAP3 SWAP2 SWAP1 PUSH2 0x2359 JUMP JUMPDEST PUSH1 0x20 PUSH1 0x40 MLOAD DUP1 DUP4 SUB DUP2 PUSH0 DUP8 GAS CALL ISZERO DUP1 ISZERO PUSH2 0x137C JUMPI RETURNDATASIZE PUSH0 DUP1 RETURNDATACOPY RETURNDATASIZE PUSH0 REVERT JUMPDEST POP POP POP POP PUSH1 0x40 MLOAD RETURNDATASIZE PUSH1 0x1F NOT PUSH1 0x1F DUP3 ADD AND DUP3 ADD DUP1 PUSH1 0x40 MSTORE POP DUP2 ADD SWAP1 PUSH2 0x13A0 SWAP2 SWAP1 PUSH2 0x23CB JUMP JUMPDEST PUSH28 0xFFFFFFFFFFFFFFFFFFFFFFFFFFFFFFFFFFFFFFFFFFFFFFFFFFFFFFFF NOT AND EQ SWAP2 POP POP JUMPDEST SWAP3 SWAP2 POP POP JUMP JUMPDEST PUSH0 CALLER SWAP1 POP SWAP1 JUMP JUMPDEST PUSH0 DUP2 EXTCODESIZE SWAP1 POP SWAP2 SWAP1 POP JUMP JUMPDEST PUSH0 PUSH1 0x40 MLOAD SWAP1 POP SWAP1 JUMP JUMPDEST PUSH0 DUP1 REVERT JUMPDEST PUSH0 DUP1 REVERT JUMPDEST PUSH0 PUSH20 0xFFFFFFFFFFFFFFFFFFFFFFFFFFFFFFFFFFFFFFFF DUP3 AND SWAP1 POP SWAP2 SWAP1 POP JUMP JUMPDEST PUSH0 PUSH2 0x1415 DUP3 PUSH2 0x13EC JUMP JUMPDEST SWAP1 POP SWAP2 SWAP1 POP JUMP JUMPDEST PUSH2 0x1425 DUP2 PUSH2 0x140B JUMP JUMPDEST DUP2 EQ PUSH2 0x142F JUMPI PUSH0 DUP1 REVERT JUMPDEST POP JUMP JUMPDEST PUSH0 DUP2 CALLDATALOAD SWAP1 POP PUSH2 0x1440 DUP2 PUSH2 0x141C JUMP JUMPDEST SWAP3 SWAP2 POP POP JUMP JUMPDEST PUSH0 PUSH1 0x20 DUP3 DUP5 SUB SLT ISZERO PUSH2 0x145B JUMPI PUSH2 0x145A PUSH2 0x13E4 JUMP JUMPDEST JUMPDEST PUSH0 PUSH2 0x1468 DUP5 DUP3 DUP6 ADD PUSH2 0x1432 JUMP JUMPDEST SWAP2 POP POP SWAP3 SWAP2 POP POP JUMP JUMPDEST PUSH0 DUP2 ISZERO ISZERO SWAP1 POP SWAP2 SWAP1 POP JUMP JUMPDEST PUSH2 0x1485 DUP2 PUSH2 0x1471 JUMP JUMPDEST DUP3 MSTORE POP POP JUMP JUMPDEST PUSH0 PUSH1 0x20 DUP3 ADD SWAP1 POP PUSH2 0x149E PUSH0 DUP4 ADD DUP5 PUSH2 0x147C JUMP JUMPDEST SWAP3 SWAP2 POP POP JUMP JUMPDEST PUSH0 DUP2 MLOAD SWAP1 POP SWAP2 SWAP1 POP JUMP JUMPDEST PUSH0 DUP3 DUP3 MSTORE PUSH1 0x20 DUP3 ADD SWAP1 POP SWAP3 SWAP2 POP POP JUMP JUMPDEST PUSH0 DUP2 SWAP1 POP PUSH1 0x20 DUP3 ADD SWAP1 POP SWAP2 SWAP1 POP JUMP JUMPDEST PUSH2 0x14D6 DUP2 PUSH2 0x140B JUMP JUMPDEST DUP3 MSTORE POP POP JUMP JUMPDEST PUSH0 PUSH2 0x14E7 DUP4 DUP4 PUSH2 0x14CD JUMP JUMPDEST PUSH1 0x20 DUP4 ADD SWAP1 POP SWAP3 SWAP2 POP POP JUMP JUMPDEST PUSH0 PUSH1 0x20 DUP3 ADD SWAP1 POP SWAP2 SWAP1 POP JUMP JUMPDEST PUSH0 PUSH2 0x1509 DUP3 PUSH2 0x14A4 JUMP JUMPDEST PUSH2 0x1513 DUP2 DUP6 PUSH2 0x14AE JUMP JUMPDEST SWAP4 POP PUSH2 0x151E DUP4 PUSH2 0x14BE JUMP JUMPDEST DUP1 PUSH0 JUMPDEST DUP4 DUP2 LT ISZERO PUSH2 0x154E JUMPI DUP2 MLOAD PUSH2 0x1535 DUP9 DUP3 PUSH2 0x14DC JUMP JUMPDEST SWAP8 POP PUSH2 0x1540 DUP4 PUSH2 0x14F3 JUMP JUMPDEST SWAP3 POP POP PUSH1 0x1 DUP2 ADD SWAP1 POP PUSH2 0x1521 JUMP JUMPDEST POP DUP6 SWAP4 POP POP POP POP SWAP3 SWAP2 POP POP JUMP JUMPDEST PUSH0 PUSH1 0x20 DUP3 ADD SWAP1 POP DUP2 DUP2 SUB PUSH0 DUP4 ADD MSTORE PUSH2 0x1573 DUP2 DUP5 PUSH2 0x14FF JUMP JUMPDEST SWAP1 POP SWAP3 SWAP2 POP POP JUMP JUMPDEST PUSH0 DUP2 SWAP1 POP SWAP2 SWAP1 POP JUMP JUMPDEST PUSH2 0x158D DUP2 PUSH2 0x157B JUMP JUMPDEST DUP2 EQ PUSH2 0x1597 JUMPI PUSH0 DUP1 REVERT JUMPDEST POP JUMP JUMPDEST PUSH0 DUP2 CALLDATALOAD SWAP1 POP PUSH2 0x15A8 DUP2 PUSH2 0x1584 JUMP JUMPDEST SWAP3 SWAP2 POP POP JUMP JUMPDEST PUSH0 DUP1 REVERT JUMPDEST PUSH0 DUP1 REVERT JUMPDEST PUSH0 PUSH1 0x1F NOT PUSH1 0x1F DUP4 ADD AND SWAP1 POP SWAP2 SWAP1 POP JUMP JUMPDEST PUSH32 0x4E487B7100000000000000000000000000000000000000000000000000000000 PUSH0 MSTORE PUSH1 0x41 PUSH1 0x4 MSTORE PUSH1 0x24 PUSH0 REVERT JUMPDEST PUSH2 0x15FC DUP3 PUSH2 0x15B6 JUMP JUMPDEST DUP2 ADD DUP2 DUP2 LT PUSH8 0xFFFFFFFFFFFFFFFF DUP3 GT OR ISZERO PUSH2 0x161B JUMPI PUSH2 0x161A PUSH2 0x15C6 JUMP JUMPDEST JUMPDEST DUP1 PUSH1 0x40 MSTORE POP POP POP JUMP JUMPDEST PUSH0 PUSH2 0x162D PUSH2 0x13DB JUMP JUMPDEST SWAP1 POP PUSH2 0x1639 DUP3 DUP3 PUSH2 0x15F3 JUMP JUMPDEST SWAP2 SWAP1 POP JUMP JUMPDEST PUSH0 PUSH8 0xFFFFFFFFFFFFFFFF DUP3 GT ISZERO PUSH2 0x1658 JUMPI PUSH2 0x1657 PUSH2 0x15C6 JUMP JUMPDEST JUMPDEST PUSH2 0x1661 DUP3 PUSH2 0x15B6 JUMP JUMPDEST SWAP1 POP PUSH1 0x20 DUP2 ADD SWAP1 POP SWAP2 SWAP1 POP JUMP JUMPDEST DUP3 DUP2 DUP4 CALLDATACOPY PUSH0 DUP4 DUP4 ADD MSTORE POP POP POP JUMP JUMPDEST PUSH0 PUSH2 0x168E PUSH2 0x1689 DUP5 PUSH2 0x163E JUMP JUMPDEST PUSH2 0x1624 JUMP JUMPDEST SWAP1 POP DUP3 DUP2 MSTORE PUSH1 0x20 DUP2 ADD DUP5 DUP5 DUP5 ADD GT ISZERO PUSH2 0x16AA JUMPI PUSH2 0x16A9 PUSH2 0x15B2 JUMP JUMPDEST JUMPDEST PUSH2 0x16B5 DUP5 DUP3 DUP6 PUSH2 0x166E JUMP JUMPDEST POP SWAP4 SWAP3 POP POP POP JUMP JUMPDEST PUSH0 DUP3 PUSH1 0x1F DUP4 ADD SLT PUSH2 0x16D1 JUMPI PUSH2 0x16D0 PUSH2 0x15AE JUMP JUMPDEST JUMPDEST DUP2 CALLDATALOAD PUSH2 0x16E1 DUP5 DUP3 PUSH1 0x20 DUP7 ADD PUSH2 0x167C JUMP JUMPDEST SWAP2 POP POP SWAP3 SWAP2 POP POP JUMP JUMPDEST PUSH0 DUP1 PUSH0 DUP1 PUSH1 0x80 DUP6 DUP8 SUB SLT ISZERO PUSH2 0x1702 JUMPI PUSH2 0x1701 PUSH2 0x13E4 JUMP JUMPDEST JUMPDEST PUSH0 PUSH2 0x170F DUP8 DUP3 DUP9 ADD PUSH2 0x1432 JUMP JUMPDEST SWAP5 POP POP PUSH1 0x20 PUSH2 0x1720 DUP8 DUP3 DUP9 ADD PUSH2 0x1432 JUMP JUMPDEST SWAP4 POP POP PUSH1 0x40 PUSH2 0x1731 DUP8 DUP3 DUP9 ADD PUSH2 0x159A JUMP JUMPDEST SWAP3 POP POP PUSH1 0x60 DUP6 ADD CALLDATALOAD PUSH8 0xFFFFFFFFFFFFFFFF DUP2 GT ISZERO PUSH2 0x1752 JUMPI PUSH2 0x1751 PUSH2 0x13E8 JUMP JUMPDEST JUMPDEST PUSH2 0x175E DUP8 DUP3 DUP9 ADD PUSH2 0x16BD JUMP JUMPDEST SWAP2 POP POP SWAP3 SWAP6 SWAP2 SWAP5 POP SWAP3 POP JUMP JUMPDEST PUSH0 PUSH32 0xFFFFFFFF00000000000000000000000000000000000000000000000000000000 DUP3 AND SWAP1 POP SWAP2 SWAP1 POP JUMP JUMPDEST PUSH2 0x179E DUP2 PUSH2 0x176A JUMP JUMPDEST DUP3 MSTORE POP POP JUMP JUMPDEST PUSH0 PUSH1 0x20 DUP3 ADD SWAP1 POP PUSH2 0x17B7 PUSH0 DUP4 ADD DUP5 PUSH2 0x1795 JUMP JUMPDEST SWAP3 SWAP2 POP POP JUMP JUMPDEST PUSH2 0x17C6 DUP2 PUSH2 0x140B JUMP JUMPDEST DUP3 MSTORE POP POP JUMP JUMPDEST PUSH0 PUSH1 0x20 DUP3 ADD SWAP1 POP PUSH2 0x17DF PUSH0 DUP4 ADD DUP5 PUSH2 0x17BD JUMP JUMPDEST SWAP3 SWAP2 POP POP JUMP JUMPDEST PUSH0 DUP1 REVERT JUMPDEST PUSH0 DUP1 REVERT JUMPDEST PUSH0 DUP1 DUP4 PUSH1 0x1F DUP5 ADD SLT PUSH2 0x1802 JUMPI PUSH2 0x1801 PUSH2 0x15AE JUMP JUMPDEST JUMPDEST DUP3 CALLDATALOAD SWAP1 POP PUSH8 0xFFFFFFFFFFFFFFFF DUP2 GT ISZERO PUSH2 0x181F JUMPI PUSH2 0x181E PUSH2 0x17E5 JUMP JUMPDEST JUMPDEST PUSH1 0x20 DUP4 ADD SWAP2 POP DUP4 PUSH1 0x20 DUP3 MUL DUP4 ADD GT ISZERO PUSH2 0x183B JUMPI PUSH2 0x183A PUSH2 0x17E9 JUMP JUMPDEST JUMPDEST SWAP3 POP SWAP3 SWAP1 POP JUMP JUMPDEST PUSH0 DUP1 PUSH1 0x20 DUP4 DUP6 SUB SLT ISZERO PUSH2 0x1858 JUMPI PUSH2 0x1857 PUSH2 0x13E4 JUMP JUMPDEST JUMPDEST PUSH0 DUP4 ADD CALLDATALOAD PUSH8 0xFFFFFFFFFFFFFFFF DUP2 GT ISZERO PUSH2 0x1875 JUMPI PUSH2 0x1874 PUSH2 0x13E8 JUMP JUMPDEST JUMPDEST PUSH2 0x1881 DUP6 DUP3 DUP7 ADD PUSH2 0x17ED JUMP JUMPDEST SWAP3 POP SWAP3 POP POP SWAP3 POP SWAP3 SWAP1 POP JUMP JUMPDEST PUSH0 DUP1 DUP4 PUSH1 0x1F DUP5 ADD SLT PUSH2 0x18A2 JUMPI PUSH2 0x18A1 PUSH2 0x15AE JUMP JUMPDEST JUMPDEST DUP3 CALLDATALOAD SWAP1 POP PUSH8 0xFFFFFFFFFFFFFFFF DUP2 GT ISZERO PUSH2 0x18BF JUMPI PUSH2 0x18BE PUSH2 0x17E5 JUMP JUMPDEST JUMPDEST PUSH1 0x20 DUP4 ADD SWAP2 POP DUP4 PUSH1 0x20 DUP3 MUL DUP4 ADD GT ISZERO PUSH2 0x18DB JUMPI PUSH2 0x18DA PUSH2 0x17E9 JUMP JUMPDEST JUMPDEST SWAP3 POP SWAP3 SWAP1 POP JUMP JUMPDEST PUSH0 DUP1 PUSH1 0x20 DUP4 DUP6 SUB SLT ISZERO PUSH2 0x18F8 JUMPI PUSH2 0x18F7 PUSH2 0x13E4 JUMP JUMPDEST JUMPDEST PUSH0 DUP4 ADD CALLDATALOAD PUSH8 0xFFFFFFFFFFFFFFFF DUP2 GT ISZERO PUSH2 0x1915 JUMPI PUSH2 0x1914 PUSH2 0x13E8 JUMP JUMPDEST JUMPDEST PUSH2 0x1921 DUP6 DUP3 DUP7 ADD PUSH2 0x188D JUMP JUMPDEST SWAP3 POP SWAP3 POP POP SWAP3 POP SWAP3 SWAP1 POP JUMP JUMPDEST PUSH0 DUP1 PUSH1 0x40 DUP4 DUP6 SUB SLT ISZERO PUSH2 0x1943 JUMPI PUSH2 0x1942 PUSH2 0x13E4 JUMP JUMPDEST JUMPDEST PUSH0 PUSH2 0x1950 DUP6 DUP3 DUP7 ADD PUSH2 0x1432 JUMP JUMPDEST SWAP3 POP POP PUSH1 0x20 PUSH2 0x1961 DUP6 DUP3 DUP7 ADD PUSH2 0x159A JUMP JUMPDEST SWAP2 POP POP SWAP3 POP SWAP3 SWAP1 POP JUMP JUMPDEST PUSH0 DUP3 DUP3 MSTORE PUSH1 0x20 DUP3 ADD SWAP1 POP SWAP3 SWAP2 POP POP JUMP JUMPDEST PUSH32 0x4164647265737320646F6573206E6F7420657869737420696E20746865207768 PUSH0 DUP3 ADD MSTORE PUSH32 0x6974656C69737400000000000000000000000000000000000000000000000000 PUSH1 0x20 DUP3 ADD MSTORE POP JUMP JUMPDEST PUSH0 PUSH2 0x19D5 PUSH1 0x27 DUP4 PUSH2 0x196B JUMP JUMPDEST SWAP2 POP PUSH2 0x19E0 DUP3 PUSH2 0x197B JUMP JUMPDEST PUSH1 0x40 DUP3 ADD SWAP1 POP SWAP2 SWAP1 POP JUMP JUMPDEST PUSH0 PUSH1 0x20 DUP3 ADD SWAP1 POP DUP2 DUP2 SUB PUSH0 DUP4 ADD MSTORE PUSH2 0x1A02 DUP2 PUSH2 0x19C9 JUMP JUMPDEST SWAP1 POP SWAP2 SWAP1 POP JUMP JUMPDEST PUSH32 0x4E487B7100000000000000000000000000000000000000000000000000000000 PUSH0 MSTORE PUSH1 0x32 PUSH1 0x4 MSTORE PUSH1 0x24 PUSH0 REVERT JUMPDEST PUSH32 0x4E487B7100000000000000000000000000000000000000000000000000000000 PUSH0 MSTORE PUSH1 0x11 PUSH1 0x4 MSTORE PUSH1 0x24 PUSH0 REVERT JUMPDEST PUSH0 PUSH2 0x1A6D DUP3 PUSH2 0x157B JUMP JUMPDEST SWAP2 POP PUSH2 0x1A78 DUP4 PUSH2 0x157B JUMP JUMPDEST SWAP3 POP DUP3 DUP3 SUB SWAP1 POP DUP2 DUP2 GT ISZERO PUSH2 0x1A90 JUMPI PUSH2 0x1A8F PUSH2 0x1A36 JUMP JUMPDEST JUMPDEST SWAP3 SWAP2 POP POP JUMP JUMPDEST PUSH32 0x4E487B7100000000000000000000000000000000000000000000000000000000 PUSH0 MSTORE PUSH1 0x31 PUSH1 0x4 MSTORE PUSH1 0x24 PUSH0 REVERT JUMPDEST PUSH2 0x1ACC DUP2 PUSH2 0x157B JUMP JUMPDEST DUP3 MSTORE POP POP JUMP JUMPDEST PUSH0 DUP2 MLOAD SWAP1 POP SWAP2 SWAP1 POP JUMP JUMPDEST PUSH0 DUP3 DUP3 MSTORE PUSH1 0x20 DUP3 ADD SWAP1 POP SWAP3 SWAP2 POP POP JUMP JUMPDEST DUP3 DUP2 DUP4 MCOPY PUSH0 DUP4 DUP4 ADD MSTORE POP POP POP JUMP JUMPDEST PUSH0 PUSH2 0x1B04 DUP3 PUSH2 0x1AD2 JUMP JUMPDEST PUSH2 0x1B0E DUP2 DUP6 PUSH2 0x1ADC JUMP JUMPDEST SWAP4 POP PUSH2 0x1B1E DUP2 DUP6 PUSH1 0x20 DUP7 ADD PUSH2 0x1AEC JUMP JUMPDEST PUSH2 0x1B27 DUP2 PUSH2 0x15B6 JUMP JUMPDEST DUP5 ADD SWAP2 POP POP SWAP3 SWAP2 POP POP JUMP JUMPDEST PUSH0 PUSH1 0x80 DUP3 ADD SWAP1 POP PUSH2 0x1B45 PUSH0 DUP4 ADD DUP8 PUSH2 0x17BD JUMP JUMPDEST PUSH2 0x1B52 PUSH1 0x20 DUP4 ADD DUP7 PUSH2 0x17BD JUMP JUMPDEST PUSH2 0x1B5F PUSH1 0x40 DUP4 ADD DUP6 PUSH2 0x1AC3 JUMP JUMPDEST DUP2 DUP2 SUB PUSH1 0x60 DUP4 ADD MSTORE PUSH2 0x1B71 DUP2 DUP5 PUSH2 0x1AFA JUMP JUMPDEST SWAP1 POP SWAP6 SWAP5 POP POP POP POP POP JUMP JUMPDEST PUSH0 PUSH2 0x1B86 DUP3 PUSH2 0x157B JUMP JUMPDEST SWAP2 POP PUSH32 0xFFFFFFFFFFFFFFFFFFFFFFFFFFFFFFFFFFFFFFFFFFFFFFFFFFFFFFFFFFFFFFFF DUP3 SUB PUSH2 0x1BB8 JUMPI PUSH2 0x1BB7 PUSH2 0x1A36 JUMP JUMPDEST JUMPDEST PUSH1 0x1 DUP3 ADD SWAP1 POP SWAP2 SWAP1 POP JUMP JUMPDEST PUSH32 0x5A65726F20416464726573732070726573656E74000000000000000000000000 PUSH0 DUP3 ADD MSTORE POP JUMP JUMPDEST PUSH0 PUSH2 0x1BF7 PUSH1 0x14 DUP4 PUSH2 0x196B JUMP JUMPDEST SWAP2 POP PUSH2 0x1C02 DUP3 PUSH2 0x1BC3 JUMP JUMPDEST PUSH1 0x20 DUP3 ADD SWAP1 POP SWAP2 SWAP1 POP JUMP JUMPDEST PUSH0 PUSH1 0x20 DUP3 ADD SWAP1 POP DUP2 DUP2 SUB PUSH0 DUP4 ADD MSTORE PUSH2 0x1C24 DUP2 PUSH2 0x1BEB JUMP JUMPDEST SWAP1 POP SWAP2 SWAP1 POP JUMP JUMPDEST PUSH32 0x4661756C7479206164647265737320666F756E64000000000000000000000000 PUSH0 DUP3 ADD MSTORE POP JUMP JUMPDEST PUSH0 PUSH2 0x1C5F PUSH1 0x14 DUP4 PUSH2 0x196B JUMP JUMPDEST SWAP2 POP PUSH2 0x1C6A DUP3 PUSH2 0x1C2B JUMP JUMPDEST PUSH1 0x20 DUP3 ADD SWAP1 POP SWAP2 SWAP1 POP JUMP JUMPDEST PUSH0 PUSH1 0x20 DUP3 ADD SWAP1 POP DUP2 DUP2 SUB PUSH0 DUP4 ADD MSTORE PUSH2 0x1C8C DUP2 PUSH2 0x1C53 JUMP JUMPDEST SWAP1 POP SWAP2 SWAP1 POP JUMP JUMPDEST PUSH32 0x4164647265737320616C6C726561647920457869737473000000000000000000 PUSH0 DUP3 ADD MSTORE POP JUMP JUMPDEST PUSH0 PUSH2 0x1CC7 PUSH1 0x17 DUP4 PUSH2 0x196B JUMP JUMPDEST SWAP2 POP PUSH2 0x1CD2 DUP3 PUSH2 0x1C93 JUMP JUMPDEST PUSH1 0x20 DUP3 ADD SWAP1 POP SWAP2 SWAP1 POP JUMP JUMPDEST PUSH0 PUSH1 0x20 DUP3 ADD SWAP1 POP DUP2 DUP2 SUB PUSH0 DUP4 ADD MSTORE PUSH2 0x1CF4 DUP2 PUSH2 0x1CBB JUMP JUMPDEST SWAP1 POP SWAP2 SWAP1 POP JUMP JUMPDEST PUSH0 DUP2 SWAP1 POP SWAP2 SWAP1 POP JUMP JUMPDEST PUSH0 PUSH2 0x1D12 PUSH1 0x20 DUP5 ADD DUP5 PUSH2 0x1432 JUMP JUMPDEST SWAP1 POP SWAP3 SWAP2 POP POP JUMP JUMPDEST PUSH0 PUSH1 0x20 DUP3 ADD SWAP1 POP SWAP2 SWAP1 POP JUMP JUMPDEST PUSH0 PUSH2 0x1D31 DUP4 DUP6 PUSH2 0x14AE JUMP JUMPDEST SWAP4 POP PUSH2 0x1D3C DUP3 PUSH2 0x1CFB JUMP JUMPDEST DUP1 PUSH0 JUMPDEST DUP6 DUP2 LT ISZERO PUSH2 0x1D74 JUMPI PUSH2 0x1D51 DUP3 DUP5 PUSH2 0x1D04 JUMP JUMPDEST PUSH2 0x1D5B DUP9 DUP3 PUSH2 0x14DC JUMP JUMPDEST SWAP8 POP PUSH2 0x1D66 DUP4 PUSH2 0x1D1A JUMP JUMPDEST SWAP3 POP POP PUSH1 0x1 DUP2 ADD SWAP1 POP PUSH2 0x1D3F JUMP JUMPDEST POP DUP6 SWAP3 POP POP POP SWAP4 SWAP3 POP POP POP JUMP JUMPDEST PUSH0 PUSH1 0x20 DUP3 ADD SWAP1 POP DUP2 DUP2 SUB PUSH0 DUP4 ADD MSTORE PUSH2 0x1D9A DUP2 DUP5 DUP7 PUSH2 0x1D26 JUMP JUMPDEST SWAP1 POP SWAP4 SWAP3 POP POP POP JUMP JUMPDEST PUSH32 0x5A65726F20616464726573730000000000000000000000000000000000000000 PUSH0 DUP3 ADD MSTORE POP JUMP JUMPDEST PUSH0 PUSH2 0x1DD7 PUSH1 0xC DUP4 PUSH2 0x196B JUMP JUMPDEST SWAP2 POP PUSH2 0x1DE2 DUP3 PUSH2 0x1DA3 JUMP JUMPDEST PUSH1 0x20 DUP3 ADD SWAP1 POP SWAP2 SWAP1 POP JUMP JUMPDEST PUSH0 PUSH1 0x20 DUP3 ADD SWAP1 POP DUP2 DUP2 SUB PUSH0 DUP4 ADD MSTORE PUSH2 0x1E04 DUP2 PUSH2 0x1DCB JUMP JUMPDEST SWAP1 POP SWAP2 SWAP1 POP JUMP JUMPDEST PUSH32 0x4E6F2077686974656C6973746564206164647265737300000000000000000000 PUSH0 DUP3 ADD MSTORE POP JUMP JUMPDEST PUSH0 PUSH2 0x1E3F PUSH1 0x16 DUP4 PUSH2 0x196B JUMP JUMPDEST SWAP2 POP PUSH2 0x1E4A DUP3 PUSH2 0x1E0B JUMP JUMPDEST PUSH1 0x20 DUP3 ADD SWAP1 POP SWAP2 SWAP1 POP JUMP JUMPDEST PUSH0 PUSH1 0x20 DUP3 ADD SWAP1 POP DUP2 DUP2 SUB PUSH0 DUP4 ADD MSTORE PUSH2 0x1E6C DUP2 PUSH2 0x1E33 JUMP JUMPDEST SWAP1 POP SWAP2 SWAP1 POP JUMP JUMPDEST PUSH32 0x4E756D626572206F6620546F6B656E7320616E64206E756D626572206F662077 PUSH0 DUP3 ADD MSTORE PUSH32 0x686974656C69737465642061646472657373657320617265206E6F7420657175 PUSH1 0x20 DUP3 ADD MSTORE PUSH32 0x616C000000000000000000000000000000000000000000000000000000000000 PUSH1 0x40 DUP3 ADD MSTORE POP JUMP JUMPDEST PUSH0 PUSH2 0x1EF3 PUSH1 0x42 DUP4 PUSH2 0x196B JUMP JUMPDEST SWAP2 POP PUSH2 0x1EFE DUP3 PUSH2 0x1E73 JUMP JUMPDEST PUSH1 0x60 DUP3 ADD SWAP1 POP SWAP2 SWAP1 POP JUMP JUMPDEST PUSH0 PUSH1 0x20 DUP3 ADD SWAP1 POP DUP2 DUP2 SUB PUSH0 DUP4 ADD MSTORE PUSH2 0x1F20 DUP2 PUSH2 0x1EE7 JUMP JUMPDEST SWAP1 POP SWAP2 SWAP1 POP JUMP JUMPDEST PUSH0 DUP2 SLOAD SWAP1 POP SWAP2 SWAP1 POP JUMP JUMPDEST PUSH0 DUP2 SWAP1 POP DUP2 PUSH0 MSTORE PUSH1 0x20 PUSH0 KECCAK256 SWAP1 POP SWAP2 SWAP1 POP JUMP JUMPDEST PUSH0 DUP2 PUSH0 SHR SWAP1 POP SWAP2 SWAP1 POP JUMP JUMPDEST PUSH0 PUSH20 0xFFFFFFFFFFFFFFFFFFFFFFFFFFFFFFFFFFFFFFFF DUP3 AND SWAP1 POP SWAP2 SWAP1 POP JUMP JUMPDEST PUSH0 PUSH2 0x1F7F PUSH2 0x1F7A DUP4 PUSH2 0x1F43 JUMP JUMPDEST PUSH2 0x1F4E JUMP JUMPDEST SWAP1 POP SWAP2 SWAP1 POP JUMP JUMPDEST PUSH0 PUSH2 0x1F91 DUP3 SLOAD PUSH2 0x1F6D JUMP JUMPDEST SWAP1 POP SWAP2 SWAP1 POP JUMP JUMPDEST PUSH0 PUSH1 0x1 DUP3 ADD SWAP1 POP SWAP2 SWAP1 POP JUMP JUMPDEST PUSH0 PUSH2 0x1FAE DUP3 PUSH2 0x1F27 JUMP JUMPDEST PUSH2 0x1FB8 DUP2 DUP6 PUSH2 0x14AE JUMP JUMPDEST SWAP4 POP PUSH2 0x1FC3 DUP4 PUSH2 0x1F31 JUMP JUMPDEST DUP1 PUSH0 JUMPDEST DUP4 DUP2 LT ISZERO PUSH2 0x1FFA JUMPI PUSH2 0x1FD7 DUP3 PUSH2 0x1F86 JUMP JUMPDEST PUSH2 0x1FE1 DUP9 DUP3 PUSH2 0x14DC JUMP JUMPDEST SWAP8 POP PUSH2 0x1FEC DUP4 PUSH2 0x1F98 JUMP JUMPDEST SWAP3 POP POP PUSH1 0x1 DUP2 ADD SWAP1 POP PUSH2 0x1FC6 JUMP JUMPDEST POP DUP6 SWAP4 POP POP POP POP SWAP3 SWAP2 POP POP JUMP JUMPDEST PUSH0 DUP3 DUP3 MSTORE PUSH1 0x20 DUP3 ADD SWAP1 POP SWAP3 SWAP2 POP POP JUMP JUMPDEST PUSH0 DUP1 REVERT JUMPDEST DUP3 DUP2 DUP4 CALLDATACOPY POP POP POP JUMP JUMPDEST PUSH0 PUSH2 0x202F DUP4 DUP6 PUSH2 0x2007 JUMP JUMPDEST SWAP4 POP PUSH32 0x7FFFFFFFFFFFFFFFFFFFFFFFFFFFFFFFFFFFFFFFFFFFFFFFFFFFFFFFFFFFFFF DUP4 GT ISZERO PUSH2 0x2062 JUMPI PUSH2 0x2061 PUSH2 0x2017 JUMP JUMPDEST JUMPDEST PUSH1 0x20 DUP4 MUL SWAP3 POP PUSH2 0x2073 DUP4 DUP6 DUP5 PUSH2 0x201B JUMP JUMPDEST DUP3 DUP5 ADD SWAP1 POP SWAP4 SWAP3 POP POP POP JUMP JUMPDEST PUSH0 PUSH1 0x40 DUP3 ADD SWAP1 POP DUP2 DUP2 SUB PUSH0 DUP4 ADD MSTORE PUSH2 0x2097 DUP2 DUP7 PUSH2 0x1FA4 JUMP JUMPDEST SWAP1 POP DUP2 DUP2 SUB PUSH1 0x20 DUP4 ADD MSTORE PUSH2 0x20AC DUP2 DUP5 DUP7 PUSH2 0x2024 JUMP JUMPDEST SWAP1 POP SWAP5 SWAP4 POP POP POP POP JUMP JUMPDEST PUSH32 0x416C6C7265616479205472616E73666572656400000000000000000000000000 PUSH0 DUP3 ADD MSTORE POP JUMP JUMPDEST PUSH0 PUSH2 0x20EA PUSH1 0x13 DUP4 PUSH2 0x196B JUMP JUMPDEST SWAP2 POP PUSH2 0x20F5 DUP3 PUSH2 0x20B6 JUMP JUMPDEST PUSH1 0x20 DUP3 ADD SWAP1 POP SWAP2 SWAP1 POP JUMP JUMPDEST PUSH0 PUSH1 0x20 DUP3 ADD SWAP1 POP DUP2 DUP2 SUB PUSH0 DUP4 ADD MSTORE PUSH2 0x2117 DUP2 PUSH2 0x20DE JUMP JUMPDEST SWAP1 POP SWAP2 SWAP1 POP JUMP JUMPDEST PUSH0 DUP2 MLOAD SWAP1 POP PUSH2 0x212C DUP2 PUSH2 0x1584 JUMP JUMPDEST SWAP3 SWAP2 POP POP JUMP JUMPDEST PUSH0 PUSH1 0x20 DUP3 DUP5 SUB SLT ISZERO PUSH2 0x2147 JUMPI PUSH2 0x2146 PUSH2 0x13E4 JUMP JUMPDEST JUMPDEST PUSH0 PUSH2 0x2154 DUP5 DUP3 DUP6 ADD PUSH2 0x211E JUMP JUMPDEST SWAP2 POP POP SWAP3 SWAP2 POP POP JUMP JUMPDEST PUSH32 0x4E6F7420656E6F7567682062616C616E63650000000000000000000000000000 PUSH0 DUP3 ADD MSTORE POP JUMP JUMPDEST PUSH0 PUSH2 0x2191 PUSH1 0x12 DUP4 PUSH2 0x196B JUMP JUMPDEST SWAP2 POP PUSH2 0x219C DUP3 PUSH2 0x215D JUMP JUMPDEST PUSH1 0x20 DUP3 ADD SWAP1 POP SWAP2 SWAP1 POP JUMP JUMPDEST PUSH0 PUSH1 0x20 DUP3 ADD SWAP1 POP DUP2 DUP2 SUB PUSH0 DUP4 ADD MSTORE PUSH2 0x21BE DUP2 PUSH2 0x2185 JUMP JUMPDEST SWAP1 POP SWAP2 SWAP1 POP JUMP JUMPDEST PUSH0 PUSH1 0x20 DUP3 ADD SWAP1 POP PUSH2 0x21D8 PUSH0 DUP4 ADD DUP5 PUSH2 0x1AC3 JUMP JUMPDEST SWAP3 SWAP2 POP POP JUMP JUMPDEST PUSH0 DUP2 MLOAD SWAP1 POP PUSH2 0x21EC DUP2 PUSH2 0x141C JUMP JUMPDEST SWAP3 SWAP2 POP POP JUMP JUMPDEST PUSH0 PUSH1 0x20 DUP3 DUP5 SUB SLT ISZERO PUSH2 0x2207 JUMPI PUSH2 0x2206 PUSH2 0x13E4 JUMP JUMPDEST JUMPDEST PUSH0 PUSH2 0x2214 DUP5 DUP3 DUP6 ADD PUSH2 0x21DE JUMP JUMPDEST SWAP2 POP POP SWAP3 SWAP2 POP POP JUMP JUMPDEST PUSH32 0x4E6F7420746865206F776E6572206F662074686973204E46545B5D0000000000 PUSH0 DUP3 ADD MSTORE POP JUMP JUMPDEST PUSH0 PUSH2 0x2251 PUSH1 0x1B DUP4 PUSH2 0x196B JUMP JUMPDEST SWAP2 POP PUSH2 0x225C DUP3 PUSH2 0x221D JUMP JUMPDEST PUSH1 0x20 DUP3 ADD SWAP1 POP SWAP2 SWAP1 POP JUMP JUMPDEST PUSH0 PUSH1 0x20 DUP3 ADD SWAP1 POP DUP2 DUP2 SUB PUSH0 DUP4 ADD MSTORE PUSH2 0x227E DUP2 PUSH2 0x2245 JUMP JUMPDEST SWAP1 POP SWAP2 SWAP1 POP JUMP JUMPDEST PUSH0 PUSH1 0x40 DUP3 ADD SWAP1 POP PUSH2 0x2298 PUSH0 DUP4 ADD DUP6 PUSH2 0x1AC3 JUMP JUMPDEST PUSH2 0x22A5 PUSH1 0x20 DUP4 ADD DUP5 PUSH2 0x147C JUMP JUMPDEST SWAP4 SWAP3 POP POP POP JUMP JUMPDEST PUSH0 PUSH1 0x60 DUP3 ADD SWAP1 POP PUSH2 0x22BF PUSH0 DUP4 ADD DUP7 PUSH2 0x17BD JUMP JUMPDEST PUSH2 0x22CC PUSH1 0x20 DUP4 ADD DUP6 PUSH2 0x17BD JUMP JUMPDEST PUSH2 0x22D9 PUSH1 0x40 DUP4 ADD DUP5 PUSH2 0x1AC3 JUMP JUMPDEST SWAP5 SWAP4 POP POP POP POP JUMP JUMPDEST PUSH2 0x22EA DUP2 PUSH2 0x1471 JUMP JUMPDEST DUP2 EQ PUSH2 0x22F4 JUMPI PUSH0 DUP1 REVERT JUMPDEST POP JUMP JUMPDEST PUSH0 DUP2 MLOAD SWAP1 POP PUSH2 0x2305 DUP2 PUSH2 0x22E1 JUMP JUMPDEST SWAP3 SWAP2 POP POP JUMP JUMPDEST PUSH0 PUSH1 0x20 DUP3 DUP5 SUB SLT ISZERO PUSH2 0x2320 JUMPI PUSH2 0x231F PUSH2 0x13E4 JUMP JUMPDEST JUMPDEST PUSH0 PUSH2 0x232D DUP5 DUP3 DUP6 ADD PUSH2 0x22F7 JUMP JUMPDEST SWAP2 POP POP SWAP3 SWAP2 POP POP JUMP JUMPDEST POP JUMP JUMPDEST PUSH0 PUSH2 0x2344 PUSH0 DUP4 PUSH2 0x1ADC JUMP JUMPDEST SWAP2 POP PUSH2 0x234F DUP3 PUSH2 0x2336 JUMP JUMPDEST PUSH0 DUP3 ADD SWAP1 POP SWAP2 SWAP1 POP JUMP JUMPDEST PUSH0 PUSH1 0x80 DUP3 ADD SWAP1 POP PUSH2 0x236C PUSH0 DUP4 ADD DUP7 PUSH2 0x17BD JUMP JUMPDEST PUSH2 0x2379 PUSH1 0x20 DUP4 ADD DUP6 PUSH2 0x17BD JUMP JUMPDEST PUSH2 0x2386 PUSH1 0x40 DUP4 ADD DUP5 PUSH2 0x1AC3 JUMP JUMPDEST DUP2 DUP2 SUB PUSH1 0x60 DUP4 ADD MSTORE PUSH2 0x2397 DUP2 PUSH2 0x2339 JUMP JUMPDEST SWAP1 POP SWAP5 SWAP4 POP POP POP POP JUMP JUMPDEST PUSH2 0x23AA DUP2 PUSH2 0x176A JUMP JUMPDEST DUP2 EQ PUSH2 0x23B4 JUMPI PUSH0 DUP1 REVERT JUMPDEST POP JUMP JUMPDEST PUSH0 DUP2 MLOAD SWAP1 POP PUSH2 0x23C5 DUP2 PUSH2 0x23A1 JUMP JUMPDEST SWAP3 SWAP2 POP POP JUMP JUMPDEST PUSH0 PUSH1 0x20 DUP3 DUP5 SUB SLT ISZERO PUSH2 0x23E0 JUMPI PUSH2 0x23DF PUSH2 0x13E4 JUMP JUMPDEST JUMPDEST PUSH0 PUSH2 0x23ED DUP5 DUP3 DUP6 ADD PUSH2 0x23B7 JUMP JUMPDEST SWAP2 POP POP SWAP3 SWAP2 POP POP JUMP INVALID LOG2 PUSH5 0x6970667358 0x22 SLT KECCAK256 DUP16 SELFDESTRUCT SWAP11 EQ 0xC6 0x2A EXTCODEHASH SWAP16 0xEC CALLDATALOAD SWAP10 0xE5 0x4B PUSH13 0x390028CD1B6FE518E9C3CB5E2B 0x2F 0xE4 LOG0 SWAP10 0x4F PUSH5 0x736F6C6343 STOP ADDMOD BYTE STOP CALLER "
				},
				"gasEstimates": {
					"creation": {
						"codeDepositCost": "1852000",
						"executionCost": "infinite",
						"totalCost": "infinite"
					},
					"external": {
						"getEligibility(address,uint256)": "infinite",
						"getWhiteList()": "infinite",
						"isWhiteListed(address)": "infinite",
						"onERC721Received(address,address,uint256,bytes)": "infinite",
						"owner()": "2537",
						"removeFromWhiteList(address)": "infinite",
						"renounceOwnership()": "infinite",
						"resetAirdrop()": "infinite",
						"startAirdrop(uint256[])": "infinite",
						"transferOwnership(address)": "infinite",
						"whiteList(address[])": "infinite"
					},
					"internal": {
						"_checkReceiver(address,uint256)": "infinite",
						"checkAddress(address)": "infinite",
						"isContract(address)": "2627"
					}
				},
				"methodIdentifiers": {
					"getEligibility(address,uint256)": "b2736a7b",
					"getWhiteList()": "09a9d76c",
					"isWhiteListed(address)": "6f9170f6",
					"onERC721Received(address,address,uint256,bytes)": "150b7a02",
					"owner()": "8da5cb5b",
					"removeFromWhiteList(address)": "01bf6648",
					"renounceOwnership()": "715018a6",
					"resetAirdrop()": "47aa476e",
					"startAirdrop(uint256[])": "b1a2039e",
					"transferOwnership(address)": "f2fde38b",
					"whiteList(address[])": "91c5f4a6"
				}
			},
			"storageLayout": {
				"storage": [
					{
						"astId": 8,
						"contract": "COAT/tokens/airdrop.sol:Airdrop",
						"label": "_owner",
						"offset": 0,
						"slot": "0",
						"type": "t_address"
					},
					{
						"astId": 420,
						"contract": "COAT/tokens/airdrop.sol:Airdrop",
						"label": "_hasClaimed",
						"offset": 0,
						"slot": "1",
						"type": "t_mapping(t_uint256,t_mapping(t_address,t_bool))"
					},
					{
						"astId": 424,
						"contract": "COAT/tokens/airdrop.sol:Airdrop",
						"label": "transfferedTOKEN_Success",
						"offset": 0,
						"slot": "2",
						"type": "t_mapping(t_uint256,t_bool)"
					},
					{
						"astId": 427,
						"contract": "COAT/tokens/airdrop.sol:Airdrop",
						"label": "_whiteList",
						"offset": 0,
						"slot": "3",
						"type": "t_array(t_address)dyn_storage"
					},
					{
						"astId": 429,
						"contract": "COAT/tokens/airdrop.sol:Airdrop",
						"label": "airdropCount",
						"offset": 0,
						"slot": "4",
						"type": "t_uint256"
					},
					{
						"astId": 431,
						"contract": "COAT/tokens/airdrop.sol:Airdrop",
						"label": "tokenAddress",
						"offset": 0,
						"slot": "5",
						"type": "t_address"
					},
					{
						"astId": 433,
						"contract": "COAT/tokens/airdrop.sol:Airdrop",
						"label": "fromAddress",
						"offset": 0,
						"slot": "6",
						"type": "t_address"
					},
					{
						"astId": 435,
						"contract": "COAT/tokens/airdrop.sol:Airdrop",
						"label": "airdropType",
						"offset": 0,
						"slot": "7",
						"type": "t_uint256"
					}
				],
				"types": {
					"t_address": {
						"encoding": "inplace",
						"label": "address",
						"numberOfBytes": "20"
					},
					"t_array(t_address)dyn_storage": {
						"base": "t_address",
						"encoding": "dynamic_array",
						"label": "address[]",
						"numberOfBytes": "32"
					},
					"t_bool": {
						"encoding": "inplace",
						"label": "bool",
						"numberOfBytes": "1"
					},
					"t_mapping(t_address,t_bool)": {
						"encoding": "mapping",
						"key": "t_address",
						"label": "mapping(address => bool)",
						"numberOfBytes": "32",
						"value": "t_bool"
					},
					"t_mapping(t_uint256,t_bool)": {
						"encoding": "mapping",
						"key": "t_uint256",
						"label": "mapping(uint256 => bool)",
						"numberOfBytes": "32",
						"value": "t_bool"
					},
					"t_mapping(t_uint256,t_mapping(t_address,t_bool))": {
						"encoding": "mapping",
						"key": "t_uint256",
						"label": "mapping(uint256 => mapping(address => bool))",
						"numberOfBytes": "32",
						"value": "t_mapping(t_address,t_bool)"
					},
					"t_uint256": {
						"encoding": "inplace",
						"label": "uint256",
						"numberOfBytes": "32"
					}
				}
			},
			"userdoc": {
				"kind": "user",
				"methods": {},
				"version": 1
			}
		}
	}
}