{
	"COAT/test/token.sol": {
		"BUSD": {
			"abi": [
				{
					"inputs": [],
					"stateMutability": "nonpayable",
					"type": "constructor"
				},
				{
					"inputs": [
						{
							"internalType": "address",
							"name": "spender",
							"type": "address"
						},
						{
							"internalType": "uint256",
							"name": "allowance",
							"type": "uint256"
						},
						{
							"internalType": "uint256",
							"name": "needed",
							"type": "uint256"
						}
					],
					"name": "ERC20InsufficientAllowance",
					"type": "error"
				},
				{
					"inputs": [
						{
							"internalType": "address",
							"name": "sender",
							"type": "address"
						},
						{
							"internalType": "uint256",
							"name": "balance",
							"type": "uint256"
						},
						{
							"internalType": "uint256",
							"name": "needed",
							"type": "uint256"
						}
					],
					"name": "ERC20InsufficientBalance",
					"type": "error"
				},
				{
					"inputs": [
						{
							"internalType": "address",
							"name": "approver",
							"type": "address"
						}
					],
					"name": "ERC20InvalidApprover",
					"type": "error"
				},
				{
					"inputs": [
						{
							"internalType": "address",
							"name": "receiver",
							"type": "address"
						}
					],
					"name": "ERC20InvalidReceiver",
					"type": "error"
				},
				{
					"inputs": [
						{
							"internalType": "address",
							"name": "sender",
							"type": "address"
						}
					],
					"name": "ERC20InvalidSender",
					"type": "error"
				},
				{
					"inputs": [
						{
							"internalType": "address",
							"name": "spender",
							"type": "address"
						}
					],
					"name": "ERC20InvalidSpender",
					"type": "error"
				},
				{
					"anonymous": false,
					"inputs": [
						{
							"indexed": true,
							"internalType": "address",
							"name": "owner",
							"type": "address"
						},
						{
							"indexed": true,
							"internalType": "address",
							"name": "spender",
							"type": "address"
						},
						{
							"indexed": false,
							"internalType": "uint256",
							"name": "value",
							"type": "uint256"
						}
					],
					"name": "Approval",
					"type": "event"
				},
				{
					"anonymous": false,
					"inputs": [
						{
							"indexed": false,
							"internalType": "uint256",
							"name": "unitOfToken",
							"type": "uint256"
						},
						{
							"indexed": false,
							"internalType": "string",
							"name": "airdropType",
							"type": "string"
						}
					],
					"name": "TOKENtransfered",
					"type": "event"
				},
				{
					"anonymous": false,
					"inputs": [
						{
							"indexed": true,
							"internalType": "address",
							"name": "from",
							"type": "address"
						},
						{
							"indexed": true,
							"internalType": "address",
							"name": "to",
							"type": "address"
						},
						{
							"indexed": false,
							"internalType": "uint256",
							"name": "value",
							"type": "uint256"
						}
					],
					"name": "Transfer",
					"type": "event"
				},
				{
					"anonymous": false,
					"inputs": [
						{
							"indexed": false,
							"internalType": "address[]",
							"name": "_address",
							"type": "address[]"
						}
					],
					"name": "addressAddedToWhitelist",
					"type": "event"
				},
				{
					"anonymous": false,
					"inputs": [
						{
							"indexed": false,
							"internalType": "address[]",
							"name": "recipients",
							"type": "address[]"
						},
						{
							"indexed": false,
							"internalType": "uint256[]",
							"name": "unitOfToken",
							"type": "uint256[]"
						}
					],
					"name": "airdroped",
					"type": "event"
				},
				{
					"anonymous": false,
					"inputs": [
						{
							"indexed": false,
							"internalType": "address",
							"name": "operator",
							"type": "address"
						},
						{
							"indexed": false,
							"internalType": "address",
							"name": "from",
							"type": "address"
						},
						{
							"indexed": false,
							"internalType": "uint256",
							"name": "tokenId",
							"type": "uint256"
						},
						{
							"indexed": false,
							"internalType": "bytes",
							"name": "data",
							"type": "bytes"
						}
					],
					"name": "receivedTokens",
					"type": "event"
				},
				{
					"anonymous": false,
					"inputs": [
						{
							"indexed": false,
							"internalType": "address",
							"name": "_address",
							"type": "address"
						}
					],
					"name": "removedAddress",
					"type": "event"
				},
				{
					"inputs": [],
					"name": "airdropVersion",
					"outputs": [
						{
							"internalType": "uint256",
							"name": "",
							"type": "uint256"
						}
					],
					"stateMutability": "view",
					"type": "function"
				},
				{
					"inputs": [
						{
							"internalType": "address",
							"name": "owner",
							"type": "address"
						},
						{
							"internalType": "address",
							"name": "spender",
							"type": "address"
						}
					],
					"name": "allowance",
					"outputs": [
						{
							"internalType": "uint256",
							"name": "",
							"type": "uint256"
						}
					],
					"stateMutability": "view",
					"type": "function"
				},
				{
					"inputs": [
						{
							"internalType": "address",
							"name": "spender",
							"type": "address"
						},
						{
							"internalType": "uint256",
							"name": "value",
							"type": "uint256"
						}
					],
					"name": "approve",
					"outputs": [
						{
							"internalType": "bool",
							"name": "",
							"type": "bool"
						}
					],
					"stateMutability": "nonpayable",
					"type": "function"
				},
				{
					"inputs": [
						{
							"internalType": "address",
							"name": "account",
							"type": "address"
						}
					],
					"name": "balanceOf",
					"outputs": [
						{
							"internalType": "uint256",
							"name": "",
							"type": "uint256"
						}
					],
					"stateMutability": "view",
					"type": "function"
				},
				{
					"inputs": [],
					"name": "decimals",
					"outputs": [
						{
							"internalType": "uint8",
							"name": "",
							"type": "uint8"
						}
					],
					"stateMutability": "view",
					"type": "function"
				},
				{
					"inputs": [
						{
							"internalType": "address",
							"name": "_address",
							"type": "address"
						}
					],
					"name": "getEligibility",
					"outputs": [
						{
							"internalType": "bool",
							"name": "",
							"type": "bool"
						}
					],
					"stateMutability": "view",
					"type": "function"
				},
				{
					"inputs": [],
					"name": "getWhiteList",
					"outputs": [
						{
							"internalType": "address[]",
							"name": "",
							"type": "address[]"
						}
					],
					"stateMutability": "view",
					"type": "function"
				},
				{
					"inputs": [
						{
							"internalType": "address",
							"name": "_address",
							"type": "address"
						}
					],
					"name": "isWhiteListed",
					"outputs": [
						{
							"internalType": "bool",
							"name": "",
							"type": "bool"
						}
					],
					"stateMutability": "view",
					"type": "function"
				},
				{
					"inputs": [
						{
							"internalType": "uint256",
							"name": "amount",
							"type": "uint256"
						}
					],
					"name": "mint",
					"outputs": [
						{
							"internalType": "bool",
							"name": "",
							"type": "bool"
						}
					],
					"stateMutability": "nonpayable",
					"type": "function"
				},
				{
					"inputs": [],
					"name": "name",
					"outputs": [
						{
							"internalType": "string",
							"name": "",
							"type": "string"
						}
					],
					"stateMutability": "view",
					"type": "function"
				},
				{
					"inputs": [
						{
							"internalType": "address",
							"name": "operator",
							"type": "address"
						},
						{
							"internalType": "address",
							"name": "from",
							"type": "address"
						},
						{
							"internalType": "uint256",
							"name": "tokenId",
							"type": "uint256"
						},
						{
							"internalType": "bytes",
							"name": "data",
							"type": "bytes"
						}
					],
					"name": "onERC721Received",
					"outputs": [
						{
							"internalType": "bytes4",
							"name": "",
							"type": "bytes4"
						}
					],
					"stateMutability": "nonpayable",
					"type": "function"
				},
				{
					"inputs": [],
					"name": "reset",
					"outputs": [
						{
							"internalType": "bool",
							"name": "",
							"type": "bool"
						}
					],
					"stateMutability": "nonpayable",
					"type": "function"
				},
				{
					"inputs": [
						{
							"internalType": "uint256[]",
							"name": "unitOfToken",
							"type": "uint256[]"
						}
					],
					"name": "sartAirdrop",
					"outputs": [
						{
							"internalType": "bool",
							"name": "",
							"type": "bool"
						}
					],
					"stateMutability": "nonpayable",
					"type": "function"
				},
				{
					"inputs": [],
					"name": "symbol",
					"outputs": [
						{
							"internalType": "string",
							"name": "",
							"type": "string"
						}
					],
					"stateMutability": "view",
					"type": "function"
				},
				{
					"inputs": [],
					"name": "totalSupply",
					"outputs": [
						{
							"internalType": "uint256",
							"name": "",
							"type": "uint256"
						}
					],
					"stateMutability": "view",
					"type": "function"
				},
				{
					"inputs": [
						{
							"internalType": "address",
							"name": "to",
							"type": "address"
						},
						{
							"internalType": "uint256",
							"name": "value",
							"type": "uint256"
						}
					],
					"name": "transfer",
					"outputs": [
						{
							"internalType": "bool",
							"name": "",
							"type": "bool"
						}
					],
					"stateMutability": "nonpayable",
					"type": "function"
				},
				{
					"inputs": [
						{
							"internalType": "address",
							"name": "from",
							"type": "address"
						},
						{
							"internalType": "address",
							"name": "to",
							"type": "address"
						},
						{
							"internalType": "uint256",
							"name": "value",
							"type": "uint256"
						}
					],
					"name": "transferFrom",
					"outputs": [
						{
							"internalType": "bool",
							"name": "",
							"type": "bool"
						}
					],
					"stateMutability": "nonpayable",
					"type": "function"
				},
				{
					"inputs": [
						{
							"internalType": "address[]",
							"name": "_address",
							"type": "address[]"
						}
					],
					"name": "whiteListAddress",
					"outputs": [
						{
							"internalType": "bool",
							"name": "",
							"type": "bool"
						}
					],
					"stateMutability": "nonpayable",
					"type": "function"
				}
			],
			"devdoc": {
				"errors": {
					"ERC20InsufficientAllowance(address,uint256,uint256)": [
						{
							"details": "Indicates a failure with the `spender`’s `allowance`. Used in transfers.",
							"params": {
								"allowance": "Amount of tokens a `spender` is allowed to operate with.",
								"needed": "Minimum amount required to perform a transfer.",
								"spender": "Address that may be allowed to operate on tokens without being their owner."
							}
						}
					],
					"ERC20InsufficientBalance(address,uint256,uint256)": [
						{
							"details": "Indicates an error related to the current `balance` of a `sender`. Used in transfers.",
							"params": {
								"balance": "Current balance for the interacting account.",
								"needed": "Minimum amount required to perform a transfer.",
								"sender": "Address whose tokens are being transferred."
							}
						}
					],
					"ERC20InvalidApprover(address)": [
						{
							"details": "Indicates a failure with the `approver` of a token to be approved. Used in approvals.",
							"params": {
								"approver": "Address initiating an approval operation."
							}
						}
					],
					"ERC20InvalidReceiver(address)": [
						{
							"details": "Indicates a failure with the token `receiver`. Used in transfers.",
							"params": {
								"receiver": "Address to which tokens are being transferred."
							}
						}
					],
					"ERC20InvalidSender(address)": [
						{
							"details": "Indicates a failure with the token `sender`. Used in transfers.",
							"params": {
								"sender": "Address whose tokens are being transferred."
							}
						}
					],
					"ERC20InvalidSpender(address)": [
						{
							"details": "Indicates a failure with the `spender` to be approved. Used in approvals.",
							"params": {
								"spender": "Address that may be allowed to operate on tokens without being their owner."
							}
						}
					]
				},
				"events": {
					"Approval(address,address,uint256)": {
						"details": "Emitted when the allowance of a `spender` for an `owner` is set by a call to {approve}. `value` is the new allowance."
					},
					"Transfer(address,address,uint256)": {
						"details": "Emitted when `value` tokens are moved from one account (`from`) to another (`to`). Note that `value` may be zero."
					}
				},
				"kind": "dev",
				"methods": {
					"airdropVersion()": {
						"details": "Returns the current airdrop version state Useful to know the current airdrop version"
					},
					"allowance(address,address)": {
						"details": "See {IERC20-allowance}."
					},
					"approve(address,uint256)": {
						"details": "See {IERC20-approve}. NOTE: If `value` is the maximum `uint256`, the allowance is not updated on `transferFrom`. This is semantically equivalent to an infinite approval. Requirements: - `spender` cannot be the zero address."
					},
					"balanceOf(address)": {
						"details": "See {IERC20-balanceOf}."
					},
					"decimals()": {
						"details": "Returns the number of decimals used to get its user representation. For example, if `decimals` equals `2`, a balance of `505` tokens should be displayed to a user as `5.05` (`505 / 10 ** 2`). Tokens usually opt for a value of 18, imitating the relationship between Ether and Wei. This is the default value returned by this function, unless it's overridden. NOTE: This information is only used for _display_ purposes: it in no way affects any of the arithmetic of the contract, including {IERC20-balanceOf} and {IERC20-transfer}."
					},
					"getEligibility(address)": {
						"details": "Checks if an address is eligible for an airdrop.",
						"params": {
							"_address": "Address to check."
						},
						"returns": {
							"_0": "True if eligible, false otherwise."
						}
					},
					"getWhiteList()": {
						"details": "Returns the list of whitelisted addresses."
					},
					"isWhiteListed(address)": {
						"details": "Checks if an address is in the whitelist.",
						"params": {
							"_address": "Address to check."
						},
						"returns": {
							"_0": "True if whitelisted, false otherwise."
						}
					},
					"name()": {
						"details": "Returns the name of the token."
					},
					"symbol()": {
						"details": "Returns the symbol of the token, usually a shorter version of the name."
					},
					"totalSupply()": {
						"details": "See {IERC20-totalSupply}."
					},
					"transfer(address,uint256)": {
						"details": "See {IERC20-transfer}. Requirements: - `to` cannot be the zero address. - the caller must have a balance of at least `value`."
					},
					"transferFrom(address,address,uint256)": {
						"details": "See {IERC20-transferFrom}. Skips emitting an {Approval} event indicating an allowance update. This is not required by the ERC. See {xref-ERC20-_approve-address-address-uint256-bool-}[_approve]. NOTE: Does not update the allowance if the current allowance is the maximum `uint256`. Requirements: - `from` and `to` cannot be the zero address. - `from` must have a balance of at least `value`. - the caller must have allowance for ``from``'s tokens of at least `value`."
					}
				},
				"version": 1
			},
			"evm": {
				"assembly": "    /* \"COAT/test/token.sol\":152:847  contract BUSD is ERC20, Airdrop(address(this), msg.sender, 0) {... */\n  mstore(0x40, 0x80)\n    /* \"COAT/test/token.sol\":227:406  constructor() ERC20(\"Binance USD\", \"BUSD\") {... */\n  callvalue\n  dup1\n  iszero\n  tag_1\n  jumpi\n  0x00\n  dup1\n  revert\ntag_1:\n  pop\n    /* \"COAT/test/token.sol\":192:196  this */\n  address\n    /* \"COAT/test/token.sol\":199:209  msg.sender */\n  caller\n    /* \"COAT/test/token.sol\":211:212  0 */\n  0x00\n    /* \"@openzeppelin/contracts/token/ERC20/ERC20.sol\":1601:1714  constructor(string memory name_, string memory symbol_) {... */\n  mload(0x40)\n  dup1\n  0x40\n  add\n  0x40\n  mstore\n  dup1\n  0x0b\n  dup2\n  mstore\n  0x20\n  add\n  0x42696e616e636520555344000000000000000000000000000000000000000000\n  dup2\n  mstore\n  pop\n  mload(0x40)\n  dup1\n  0x40\n  add\n  0x40\n  mstore\n  dup1\n  0x04\n  dup2\n  mstore\n  0x20\n  add\n  0x4255534400000000000000000000000000000000000000000000000000000000\n  dup2\n  mstore\n  pop\n    /* \"@openzeppelin/contracts/token/ERC20/ERC20.sol\":1675:1680  name_ */\n  dup2\n    /* \"@openzeppelin/contracts/token/ERC20/ERC20.sol\":1667:1672  _name */\n  0x03\n    /* \"@openzeppelin/contracts/token/ERC20/ERC20.sol\":1667:1680  _name = name_ */\n  swap1\n  dup2\n  tag_6\n  swap2\n  swap1\n  tag_7\n  jump\t// in\ntag_6:\n  pop\n    /* \"@openzeppelin/contracts/token/ERC20/ERC20.sol\":1700:1707  symbol_ */\n  dup1\n    /* \"@openzeppelin/contracts/token/ERC20/ERC20.sol\":1690:1697  _symbol */\n  0x04\n    /* \"@openzeppelin/contracts/token/ERC20/ERC20.sol\":1690:1707  _symbol = symbol_ */\n  swap1\n  dup2\n  tag_8\n  swap2\n  swap1\n  tag_7\n  jump\t// in\ntag_8:\n  pop\n    /* \"@openzeppelin/contracts/token/ERC20/ERC20.sol\":1601:1714  constructor(string memory name_, string memory symbol_) {... */\n  pop\n  pop\n    /* \"COAT/tokens/airdrop.sol\":15572:15573  0 */\n  0x00\n    /* \"COAT/tokens/airdrop.sol\":15558:15570  _airdropType */\n  dup2\n    /* \"COAT/tokens/airdrop.sol\":15558:15573  _airdropType==0 */\n  eq\n    /* \"COAT/tokens/airdrop.sol\":15558:15592  _airdropType==0 || _airdropType==1 */\n  dup1\n  tag_10\n  jumpi\n  pop\n    /* \"COAT/tokens/airdrop.sol\":15591:15592  1 */\n  0x01\n    /* \"COAT/tokens/airdrop.sol\":15577:15589  _airdropType */\n  dup2\n    /* \"COAT/tokens/airdrop.sol\":15577:15592  _airdropType==1 */\n  eq\n    /* \"COAT/tokens/airdrop.sol\":15558:15592  _airdropType==0 || _airdropType==1 */\ntag_10:\n    /* \"COAT/tokens/airdrop.sol\":15550:15633  require(_airdropType==0 || _airdropType==1, \"Only 0 or 1 accepted as airdrop type\") */\n  tag_11\n  jumpi\n  mload(0x40)\n  0x08c379a000000000000000000000000000000000000000000000000000000000\n  dup2\n  mstore\n  0x04\n  add\n  tag_12\n  swap1\n  tag_13\n  jump\t// in\ntag_12:\n  mload(0x40)\n  dup1\n  swap2\n  sub\n  swap1\n  revert\ntag_11:\n    /* \"COAT/tokens/airdrop.sol\":15659:15672  _tokenAddress */\n  dup3\n    /* \"COAT/tokens/airdrop.sol\":15644:15656  tokenAddress */\n  0x08\n  0x00\n    /* \"COAT/tokens/airdrop.sol\":15644:15672  tokenAddress = _tokenAddress */\n  0x0100\n  exp\n  dup2\n  sload\n  dup2\n  0xffffffffffffffffffffffffffffffffffffffff\n  mul\n  not\n  and\n  swap1\n  dup4\n  0xffffffffffffffffffffffffffffffffffffffff\n  and\n  mul\n  or\n  swap1\n  sstore\n  pop\n    /* \"COAT/tokens/airdrop.sol\":15697:15709  _fromAddress */\n  dup2\n    /* \"COAT/tokens/airdrop.sol\":15683:15694  fromAddress */\n  0x09\n  0x00\n    /* \"COAT/tokens/airdrop.sol\":15683:15709  fromAddress = _fromAddress */\n  0x0100\n  exp\n  dup2\n  sload\n  dup2\n  0xffffffffffffffffffffffffffffffffffffffff\n  mul\n  not\n  and\n  swap1\n  dup4\n  0xffffffffffffffffffffffffffffffffffffffff\n  and\n  mul\n  or\n  swap1\n  sstore\n  pop\n    /* \"COAT/tokens/airdrop.sol\":15734:15746  _airdropType */\n  dup1\n    /* \"COAT/tokens/airdrop.sol\":15720:15731  airdropType */\n  0x0a\n    /* \"COAT/tokens/airdrop.sol\":15720:15746  airdropType = _airdropType */\n  dup2\n  swap1\n  sstore\n  pop\n    /* \"COAT/tokens/airdrop.sol\":15463:15790  constructor(address _tokenAddress, address _fromAddress, uint _airdropType) {... */\n  pop\n  pop\n  pop\n    /* \"COAT/test/token.sol\":281:327  _mint(msg.sender, 100000000000000000000000000) */\n  tag_15\n    /* \"COAT/test/token.sol\":287:297  msg.sender */\n  caller\n    /* \"COAT/test/token.sol\":299:326  100000000000000000000000000 */\n  0x52b7d2dcc80cd2e4000000\n    /* \"COAT/test/token.sol\":281:286  _mint */\n  shl(0x20, tag_16)\n    /* \"COAT/test/token.sol\":281:327  _mint(msg.sender, 100000000000000000000000000) */\n  0x20\n  shr\n  jump\t// in\ntag_15:\n    /* \"COAT/test/token.sol\":338:398  _approve(msg.sender, address(this), 10000000000000000000000) */\n  tag_17\n    /* \"COAT/test/token.sol\":347:357  msg.sender */\n  caller\n    /* \"COAT/test/token.sol\":367:371  this */\n  address\n    /* \"COAT/test/token.sol\":374:397  10000000000000000000000 */\n  0x021e19e0c9bab2400000\n    /* \"COAT/test/token.sol\":338:346  _approve */\n  shl(0x20, tag_18)\n    /* \"COAT/test/token.sol\":338:398  _approve(msg.sender, address(this), 10000000000000000000000) */\n  0x20\n  shr\n  jump\t// in\ntag_17:\n    /* \"COAT/test/token.sol\":152:847  contract BUSD is ERC20, Airdrop(address(this), msg.sender, 0) {... */\n  jump(tag_19)\n    /* \"@openzeppelin/contracts/token/ERC20/ERC20.sol\":7458:7666  function _mint(address account, uint256 value) internal {... */\ntag_16:\n    /* \"@openzeppelin/contracts/token/ERC20/ERC20.sol\":7547:7548  0 */\n  0x00\n    /* \"@openzeppelin/contracts/token/ERC20/ERC20.sol\":7528:7549  account == address(0) */\n  0xffffffffffffffffffffffffffffffffffffffff\n  and\n    /* \"@openzeppelin/contracts/token/ERC20/ERC20.sol\":7528:7535  account */\n  dup3\n    /* \"@openzeppelin/contracts/token/ERC20/ERC20.sol\":7528:7549  account == address(0) */\n  0xffffffffffffffffffffffffffffffffffffffff\n  and\n  sub\n    /* \"@openzeppelin/contracts/token/ERC20/ERC20.sol\":7524:7615  if (account == address(0)) {... */\n  tag_21\n  jumpi\n    /* \"@openzeppelin/contracts/token/ERC20/ERC20.sol\":7601:7602  0 */\n  0x00\n    /* \"@openzeppelin/contracts/token/ERC20/ERC20.sol\":7572:7604  ERC20InvalidReceiver(address(0)) */\n  mload(0x40)\n  0xec442f0500000000000000000000000000000000000000000000000000000000\n  dup2\n  mstore\n  0x04\n  add\n  tag_22\n  swap2\n  swap1\n  tag_23\n  jump\t// in\ntag_22:\n  mload(0x40)\n  dup1\n  swap2\n  sub\n  swap1\n  revert\n    /* \"@openzeppelin/contracts/token/ERC20/ERC20.sol\":7524:7615  if (account == address(0)) {... */\ntag_21:\n    /* \"@openzeppelin/contracts/token/ERC20/ERC20.sol\":7624:7659  _update(address(0), account, value) */\n  tag_24\n    /* \"@openzeppelin/contracts/token/ERC20/ERC20.sol\":7640:7641  0 */\n  0x00\n    /* \"@openzeppelin/contracts/token/ERC20/ERC20.sol\":7644:7651  account */\n  dup4\n    /* \"@openzeppelin/contracts/token/ERC20/ERC20.sol\":7653:7658  value */\n  dup4\n    /* \"@openzeppelin/contracts/token/ERC20/ERC20.sol\":7624:7631  _update */\n  shl(0x20, tag_25)\n    /* \"@openzeppelin/contracts/token/ERC20/ERC20.sol\":7624:7659  _update(address(0), account, value) */\n  0x20\n  shr\n  jump\t// in\ntag_24:\n    /* \"@openzeppelin/contracts/token/ERC20/ERC20.sol\":7458:7666  function _mint(address account, uint256 value) internal {... */\n  pop\n  pop\n  jump\t// out\n    /* \"@openzeppelin/contracts/token/ERC20/ERC20.sol\":8726:8854  function _approve(address owner, address spender, uint256 value) internal {... */\ntag_18:\n    /* \"@openzeppelin/contracts/token/ERC20/ERC20.sol\":8810:8847  _approve(owner, spender, value, true) */\n  tag_27\n    /* \"@openzeppelin/contracts/token/ERC20/ERC20.sol\":8819:8824  owner */\n  dup4\n    /* \"@openzeppelin/contracts/token/ERC20/ERC20.sol\":8826:8833  spender */\n  dup4\n    /* \"@openzeppelin/contracts/token/ERC20/ERC20.sol\":8835:8840  value */\n  dup4\n    /* \"@openzeppelin/contracts/token/ERC20/ERC20.sol\":8842:8846  true */\n  0x01\n    /* \"@openzeppelin/contracts/token/ERC20/ERC20.sol\":8810:8818  _approve */\n  shl(0x20, tag_28)\n    /* \"@openzeppelin/contracts/token/ERC20/ERC20.sol\":8810:8847  _approve(owner, spender, value, true) */\n  0x20\n  shr\n  jump\t// in\ntag_27:\n    /* \"@openzeppelin/contracts/token/ERC20/ERC20.sol\":8726:8854  function _approve(address owner, address spender, uint256 value) internal {... */\n  pop\n  pop\n  pop\n  jump\t// out\n    /* \"@openzeppelin/contracts/token/ERC20/ERC20.sol\":6008:7115  function _update(address from, address to, uint256 value) internal virtual {... */\ntag_25:\n    /* \"@openzeppelin/contracts/token/ERC20/ERC20.sol\":6113:6114  0 */\n  0x00\n    /* \"@openzeppelin/contracts/token/ERC20/ERC20.sol\":6097:6115  from == address(0) */\n  0xffffffffffffffffffffffffffffffffffffffff\n  and\n    /* \"@openzeppelin/contracts/token/ERC20/ERC20.sol\":6097:6101  from */\n  dup4\n    /* \"@openzeppelin/contracts/token/ERC20/ERC20.sol\":6097:6115  from == address(0) */\n  0xffffffffffffffffffffffffffffffffffffffff\n  and\n  sub\n    /* \"@openzeppelin/contracts/token/ERC20/ERC20.sol\":6093:6633  if (from == address(0)) {... */\n  tag_30\n  jumpi\n    /* \"@openzeppelin/contracts/token/ERC20/ERC20.sol\":6249:6254  value */\n  dup1\n    /* \"@openzeppelin/contracts/token/ERC20/ERC20.sol\":6233:6245  _totalSupply */\n  0x02\n  0x00\n    /* \"@openzeppelin/contracts/token/ERC20/ERC20.sol\":6233:6254  _totalSupply += value */\n  dup3\n  dup3\n  sload\n  tag_31\n  swap2\n  swap1\n  tag_32\n  jump\t// in\ntag_31:\n  swap3\n  pop\n  pop\n  dup2\n  swap1\n  sstore\n  pop\n    /* \"@openzeppelin/contracts/token/ERC20/ERC20.sol\":6093:6633  if (from == address(0)) {... */\n  jump(tag_33)\ntag_30:\n    /* \"@openzeppelin/contracts/token/ERC20/ERC20.sol\":6285:6304  uint256 fromBalance */\n  0x00\n    /* \"@openzeppelin/contracts/token/ERC20/ERC20.sol\":6307:6316  _balances */\n  dup1\n    /* \"@openzeppelin/contracts/token/ERC20/ERC20.sol\":6307:6322  _balances[from] */\n  0x00\n    /* \"@openzeppelin/contracts/token/ERC20/ERC20.sol\":6317:6321  from */\n  dup6\n    /* \"@openzeppelin/contracts/token/ERC20/ERC20.sol\":6307:6322  _balances[from] */\n  0xffffffffffffffffffffffffffffffffffffffff\n  and\n  0xffffffffffffffffffffffffffffffffffffffff\n  and\n  dup2\n  mstore\n  0x20\n  add\n  swap1\n  dup2\n  mstore\n  0x20\n  add\n  0x00\n  keccak256\n  sload\n    /* \"@openzeppelin/contracts/token/ERC20/ERC20.sol\":6285:6322  uint256 fromBalance = _balances[from] */\n  swap1\n  pop\n    /* \"@openzeppelin/contracts/token/ERC20/ERC20.sol\":6354:6359  value */\n  dup2\n    /* \"@openzeppelin/contracts/token/ERC20/ERC20.sol\":6340:6351  fromBalance */\n  dup2\n    /* \"@openzeppelin/contracts/token/ERC20/ERC20.sol\":6340:6359  fromBalance < value */\n  lt\n    /* \"@openzeppelin/contracts/token/ERC20/ERC20.sol\":6336:6451  if (fromBalance < value) {... */\n  iszero\n  tag_34\n  jumpi\n    /* \"@openzeppelin/contracts/token/ERC20/ERC20.sol\":6411:6415  from */\n  dup4\n    /* \"@openzeppelin/contracts/token/ERC20/ERC20.sol\":6417:6428  fromBalance */\n  dup2\n    /* \"@openzeppelin/contracts/token/ERC20/ERC20.sol\":6430:6435  value */\n  dup4\n    /* \"@openzeppelin/contracts/token/ERC20/ERC20.sol\":6386:6436  ERC20InsufficientBalance(from, fromBalance, value) */\n  mload(0x40)\n  0xe450d38c00000000000000000000000000000000000000000000000000000000\n  dup2\n  mstore\n  0x04\n  add\n  tag_35\n  swap4\n  swap3\n  swap2\n  swap1\n  tag_36\n  jump\t// in\ntag_35:\n  mload(0x40)\n  dup1\n  swap2\n  sub\n  swap1\n  revert\n    /* \"@openzeppelin/contracts/token/ERC20/ERC20.sol\":6336:6451  if (fromBalance < value) {... */\ntag_34:\n    /* \"@openzeppelin/contracts/token/ERC20/ERC20.sol\":6603:6608  value */\n  dup2\n    /* \"@openzeppelin/contracts/token/ERC20/ERC20.sol\":6589:6600  fromBalance */\n  dup2\n    /* \"@openzeppelin/contracts/token/ERC20/ERC20.sol\":6589:6608  fromBalance - value */\n  sub\n    /* \"@openzeppelin/contracts/token/ERC20/ERC20.sol\":6571:6580  _balances */\n  0x00\n    /* \"@openzeppelin/contracts/token/ERC20/ERC20.sol\":6571:6586  _balances[from] */\n  dup1\n    /* \"@openzeppelin/contracts/token/ERC20/ERC20.sol\":6581:6585  from */\n  dup7\n    /* \"@openzeppelin/contracts/token/ERC20/ERC20.sol\":6571:6586  _balances[from] */\n  0xffffffffffffffffffffffffffffffffffffffff\n  and\n  0xffffffffffffffffffffffffffffffffffffffff\n  and\n  dup2\n  mstore\n  0x20\n  add\n  swap1\n  dup2\n  mstore\n  0x20\n  add\n  0x00\n  keccak256\n    /* \"@openzeppelin/contracts/token/ERC20/ERC20.sol\":6571:6608  _balances[from] = fromBalance - value */\n  dup2\n  swap1\n  sstore\n  pop\n    /* \"@openzeppelin/contracts/token/ERC20/ERC20.sol\":6271:6633  {... */\n  pop\n    /* \"@openzeppelin/contracts/token/ERC20/ERC20.sol\":6093:6633  if (from == address(0)) {... */\ntag_33:\n    /* \"@openzeppelin/contracts/token/ERC20/ERC20.sol\":6661:6662  0 */\n  0x00\n    /* \"@openzeppelin/contracts/token/ERC20/ERC20.sol\":6647:6663  to == address(0) */\n  0xffffffffffffffffffffffffffffffffffffffff\n  and\n    /* \"@openzeppelin/contracts/token/ERC20/ERC20.sol\":6647:6649  to */\n  dup3\n    /* \"@openzeppelin/contracts/token/ERC20/ERC20.sol\":6647:6663  to == address(0) */\n  0xffffffffffffffffffffffffffffffffffffffff\n  and\n  sub\n    /* \"@openzeppelin/contracts/token/ERC20/ERC20.sol\":6643:7068  if (to == address(0)) {... */\n  tag_37\n  jumpi\n    /* \"@openzeppelin/contracts/token/ERC20/ERC20.sol\":6826:6831  value */\n  dup1\n    /* \"@openzeppelin/contracts/token/ERC20/ERC20.sol\":6810:6822  _totalSupply */\n  0x02\n  0x00\n    /* \"@openzeppelin/contracts/token/ERC20/ERC20.sol\":6810:6831  _totalSupply -= value */\n  dup3\n  dup3\n  sload\n  sub\n  swap3\n  pop\n  pop\n  dup2\n  swap1\n  sstore\n  pop\n    /* \"@openzeppelin/contracts/token/ERC20/ERC20.sol\":6643:7068  if (to == address(0)) {... */\n  jump(tag_38)\ntag_37:\n    /* \"@openzeppelin/contracts/token/ERC20/ERC20.sol\":7038:7043  value */\n  dup1\n    /* \"@openzeppelin/contracts/token/ERC20/ERC20.sol\":7021:7030  _balances */\n  0x00\n    /* \"@openzeppelin/contracts/token/ERC20/ERC20.sol\":7021:7034  _balances[to] */\n  dup1\n    /* \"@openzeppelin/contracts/token/ERC20/ERC20.sol\":7031:7033  to */\n  dup5\n    /* \"@openzeppelin/contracts/token/ERC20/ERC20.sol\":7021:7034  _balances[to] */\n  0xffffffffffffffffffffffffffffffffffffffff\n  and\n  0xffffffffffffffffffffffffffffffffffffffff\n  and\n  dup2\n  mstore\n  0x20\n  add\n  swap1\n  dup2\n  mstore\n  0x20\n  add\n  0x00\n  keccak256\n  0x00\n    /* \"@openzeppelin/contracts/token/ERC20/ERC20.sol\":7021:7043  _balances[to] += value */\n  dup3\n  dup3\n  sload\n  add\n  swap3\n  pop\n  pop\n  dup2\n  swap1\n  sstore\n  pop\n    /* \"@openzeppelin/contracts/token/ERC20/ERC20.sol\":6643:7068  if (to == address(0)) {... */\ntag_38:\n    /* \"@openzeppelin/contracts/token/ERC20/ERC20.sol\":7098:7100  to */\n  dup2\n    /* \"@openzeppelin/contracts/token/ERC20/ERC20.sol\":7083:7108  Transfer(from, to, value) */\n  0xffffffffffffffffffffffffffffffffffffffff\n  and\n    /* \"@openzeppelin/contracts/token/ERC20/ERC20.sol\":7092:7096  from */\n  dup4\n    /* \"@openzeppelin/contracts/token/ERC20/ERC20.sol\":7083:7108  Transfer(from, to, value) */\n  0xffffffffffffffffffffffffffffffffffffffff\n  and\n  0xddf252ad1be2c89b69c2b068fc378daa952ba7f163c4a11628f55a4df523b3ef\n    /* \"@openzeppelin/contracts/token/ERC20/ERC20.sol\":7102:7107  value */\n  dup4\n    /* \"@openzeppelin/contracts/token/ERC20/ERC20.sol\":7083:7108  Transfer(from, to, value) */\n  mload(0x40)\n  tag_39\n  swap2\n  swap1\n  tag_40\n  jump\t// in\ntag_39:\n  mload(0x40)\n  dup1\n  swap2\n  sub\n  swap1\n  log3\n    /* \"@openzeppelin/contracts/token/ERC20/ERC20.sol\":6008:7115  function _update(address from, address to, uint256 value) internal virtual {... */\n  pop\n  pop\n  pop\n  jump\t// out\n    /* \"@openzeppelin/contracts/token/ERC20/ERC20.sol\":9701:10133  function _approve(address owner, address spender, uint256 value, bool emitEvent) internal virtual {... */\ntag_28:\n    /* \"@openzeppelin/contracts/token/ERC20/ERC20.sol\":9830:9831  0 */\n  0x00\n    /* \"@openzeppelin/contracts/token/ERC20/ERC20.sol\":9813:9832  owner == address(0) */\n  0xffffffffffffffffffffffffffffffffffffffff\n  and\n    /* \"@openzeppelin/contracts/token/ERC20/ERC20.sol\":9813:9818  owner */\n  dup5\n    /* \"@openzeppelin/contracts/token/ERC20/ERC20.sol\":9813:9832  owner == address(0) */\n  0xffffffffffffffffffffffffffffffffffffffff\n  and\n  sub\n    /* \"@openzeppelin/contracts/token/ERC20/ERC20.sol\":9809:9898  if (owner == address(0)) {... */\n  tag_42\n  jumpi\n    /* \"@openzeppelin/contracts/token/ERC20/ERC20.sol\":9884:9885  0 */\n  0x00\n    /* \"@openzeppelin/contracts/token/ERC20/ERC20.sol\":9855:9887  ERC20InvalidApprover(address(0)) */\n  mload(0x40)\n  0xe602df0500000000000000000000000000000000000000000000000000000000\n  dup2\n  mstore\n  0x04\n  add\n  tag_43\n  swap2\n  swap1\n  tag_23\n  jump\t// in\ntag_43:\n  mload(0x40)\n  dup1\n  swap2\n  sub\n  swap1\n  revert\n    /* \"@openzeppelin/contracts/token/ERC20/ERC20.sol\":9809:9898  if (owner == address(0)) {... */\ntag_42:\n    /* \"@openzeppelin/contracts/token/ERC20/ERC20.sol\":9930:9931  0 */\n  0x00\n    /* \"@openzeppelin/contracts/token/ERC20/ERC20.sol\":9911:9932  spender == address(0) */\n  0xffffffffffffffffffffffffffffffffffffffff\n  and\n    /* \"@openzeppelin/contracts/token/ERC20/ERC20.sol\":9911:9918  spender */\n  dup4\n    /* \"@openzeppelin/contracts/token/ERC20/ERC20.sol\":9911:9932  spender == address(0) */\n  0xffffffffffffffffffffffffffffffffffffffff\n  and\n  sub\n    /* \"@openzeppelin/contracts/token/ERC20/ERC20.sol\":9907:9997  if (spender == address(0)) {... */\n  tag_44\n  jumpi\n    /* \"@openzeppelin/contracts/token/ERC20/ERC20.sol\":9983:9984  0 */\n  0x00\n    /* \"@openzeppelin/contracts/token/ERC20/ERC20.sol\":9955:9986  ERC20InvalidSpender(address(0)) */\n  mload(0x40)\n  0x94280d6200000000000000000000000000000000000000000000000000000000\n  dup2\n  mstore\n  0x04\n  add\n  tag_45\n  swap2\n  swap1\n  tag_23\n  jump\t// in\ntag_45:\n  mload(0x40)\n  dup1\n  swap2\n  sub\n  swap1\n  revert\n    /* \"@openzeppelin/contracts/token/ERC20/ERC20.sol\":9907:9997  if (spender == address(0)) {... */\ntag_44:\n    /* \"@openzeppelin/contracts/token/ERC20/ERC20.sol\":10036:10041  value */\n  dup2\n    /* \"@openzeppelin/contracts/token/ERC20/ERC20.sol\":10006:10017  _allowances */\n  0x01\n    /* \"@openzeppelin/contracts/token/ERC20/ERC20.sol\":10006:10024  _allowances[owner] */\n  0x00\n    /* \"@openzeppelin/contracts/token/ERC20/ERC20.sol\":10018:10023  owner */\n  dup7\n    /* \"@openzeppelin/contracts/token/ERC20/ERC20.sol\":10006:10024  _allowances[owner] */\n  0xffffffffffffffffffffffffffffffffffffffff\n  and\n  0xffffffffffffffffffffffffffffffffffffffff\n  and\n  dup2\n  mstore\n  0x20\n  add\n  swap1\n  dup2\n  mstore\n  0x20\n  add\n  0x00\n  keccak256\n    /* \"@openzeppelin/contracts/token/ERC20/ERC20.sol\":10006:10033  _allowances[owner][spender] */\n  0x00\n    /* \"@openzeppelin/contracts/token/ERC20/ERC20.sol\":10025:10032  spender */\n  dup6\n    /* \"@openzeppelin/contracts/token/ERC20/ERC20.sol\":10006:10033  _allowances[owner][spender] */\n  0xffffffffffffffffffffffffffffffffffffffff\n  and\n  0xffffffffffffffffffffffffffffffffffffffff\n  and\n  dup2\n  mstore\n  0x20\n  add\n  swap1\n  dup2\n  mstore\n  0x20\n  add\n  0x00\n  keccak256\n    /* \"@openzeppelin/contracts/token/ERC20/ERC20.sol\":10006:10041  _allowances[owner][spender] = value */\n  dup2\n  swap1\n  sstore\n  pop\n    /* \"@openzeppelin/contracts/token/ERC20/ERC20.sol\":10055:10064  emitEvent */\n  dup1\n    /* \"@openzeppelin/contracts/token/ERC20/ERC20.sol\":10051:10127  if (emitEvent) {... */\n  iszero\n  tag_46\n  jumpi\n    /* \"@openzeppelin/contracts/token/ERC20/ERC20.sol\":10101:10108  spender */\n  dup3\n    /* \"@openzeppelin/contracts/token/ERC20/ERC20.sol\":10085:10116  Approval(owner, spender, value) */\n  0xffffffffffffffffffffffffffffffffffffffff\n  and\n    /* \"@openzeppelin/contracts/token/ERC20/ERC20.sol\":10094:10099  owner */\n  dup5\n    /* \"@openzeppelin/contracts/token/ERC20/ERC20.sol\":10085:10116  Approval(owner, spender, value) */\n  0xffffffffffffffffffffffffffffffffffffffff\n  and\n  0x8c5be1e5ebec7d5bd14f71427d1e84f3dd0314c0f7b2291e5b200ac8c7c3b925\n    /* \"@openzeppelin/contracts/token/ERC20/ERC20.sol\":10110:10115  value */\n  dup5\n    /* \"@openzeppelin/contracts/token/ERC20/ERC20.sol\":10085:10116  Approval(owner, spender, value) */\n  mload(0x40)\n  tag_47\n  swap2\n  swap1\n  tag_40\n  jump\t// in\ntag_47:\n  mload(0x40)\n  dup1\n  swap2\n  sub\n  swap1\n  log3\n    /* \"@openzeppelin/contracts/token/ERC20/ERC20.sol\":10051:10127  if (emitEvent) {... */\ntag_46:\n    /* \"@openzeppelin/contracts/token/ERC20/ERC20.sol\":9701:10133  function _approve(address owner, address spender, uint256 value, bool emitEvent) internal virtual {... */\n  pop\n  pop\n  pop\n  pop\n  jump\t// out\n    /* \"#utility.yul\":7:106   */\ntag_48:\n    /* \"#utility.yul\":59:65   */\n  0x00\n    /* \"#utility.yul\":93:98   */\n  dup2\n    /* \"#utility.yul\":87:99   */\n  mload\n    /* \"#utility.yul\":77:99   */\n  swap1\n  pop\n    /* \"#utility.yul\":7:106   */\n  swap2\n  swap1\n  pop\n  jump\t// out\n    /* \"#utility.yul\":112:292   */\ntag_49:\n    /* \"#utility.yul\":160:237   */\n  0x4e487b7100000000000000000000000000000000000000000000000000000000\n    /* \"#utility.yul\":157:158   */\n  0x00\n    /* \"#utility.yul\":150:238   */\n  mstore\n    /* \"#utility.yul\":257:261   */\n  0x41\n    /* \"#utility.yul\":254:255   */\n  0x04\n    /* \"#utility.yul\":247:262   */\n  mstore\n    /* \"#utility.yul\":281:285   */\n  0x24\n    /* \"#utility.yul\":278:279   */\n  0x00\n    /* \"#utility.yul\":271:286   */\n  revert\n    /* \"#utility.yul\":298:478   */\ntag_50:\n    /* \"#utility.yul\":346:423   */\n  0x4e487b7100000000000000000000000000000000000000000000000000000000\n    /* \"#utility.yul\":343:344   */\n  0x00\n    /* \"#utility.yul\":336:424   */\n  mstore\n    /* \"#utility.yul\":443:447   */\n  0x22\n    /* \"#utility.yul\":440:441   */\n  0x04\n    /* \"#utility.yul\":433:448   */\n  mstore\n    /* \"#utility.yul\":467:471   */\n  0x24\n    /* \"#utility.yul\":464:465   */\n  0x00\n    /* \"#utility.yul\":457:472   */\n  revert\n    /* \"#utility.yul\":484:804   */\ntag_51:\n    /* \"#utility.yul\":528:534   */\n  0x00\n    /* \"#utility.yul\":565:566   */\n  0x02\n    /* \"#utility.yul\":559:563   */\n  dup3\n    /* \"#utility.yul\":555:567   */\n  div\n    /* \"#utility.yul\":545:567   */\n  swap1\n  pop\n    /* \"#utility.yul\":612:613   */\n  0x01\n    /* \"#utility.yul\":606:610   */\n  dup3\n    /* \"#utility.yul\":602:614   */\n  and\n    /* \"#utility.yul\":633:651   */\n  dup1\n    /* \"#utility.yul\":623:704   */\n  tag_81\n  jumpi\n    /* \"#utility.yul\":689:693   */\n  0x7f\n    /* \"#utility.yul\":681:687   */\n  dup3\n    /* \"#utility.yul\":677:694   */\n  and\n    /* \"#utility.yul\":667:694   */\n  swap2\n  pop\n    /* \"#utility.yul\":623:704   */\ntag_81:\n    /* \"#utility.yul\":751:753   */\n  0x20\n    /* \"#utility.yul\":743:749   */\n  dup3\n    /* \"#utility.yul\":740:754   */\n  lt\n    /* \"#utility.yul\":720:738   */\n  dup2\n    /* \"#utility.yul\":717:755   */\n  sub\n    /* \"#utility.yul\":714:798   */\n  tag_82\n  jumpi\n    /* \"#utility.yul\":770:788   */\n  tag_83\n  tag_50\n  jump\t// in\ntag_83:\n    /* \"#utility.yul\":714:798   */\ntag_82:\n    /* \"#utility.yul\":535:804   */\n  pop\n    /* \"#utility.yul\":484:804   */\n  swap2\n  swap1\n  pop\n  jump\t// out\n    /* \"#utility.yul\":810:951   */\ntag_52:\n    /* \"#utility.yul\":859:863   */\n  0x00\n    /* \"#utility.yul\":882:885   */\n  dup2\n    /* \"#utility.yul\":874:885   */\n  swap1\n  pop\n    /* \"#utility.yul\":905:908   */\n  dup2\n    /* \"#utility.yul\":902:903   */\n  0x00\n    /* \"#utility.yul\":895:909   */\n  mstore\n    /* \"#utility.yul\":939:943   */\n  0x20\n    /* \"#utility.yul\":936:937   */\n  0x00\n    /* \"#utility.yul\":926:944   */\n  keccak256\n    /* \"#utility.yul\":918:944   */\n  swap1\n  pop\n    /* \"#utility.yul\":810:951   */\n  swap2\n  swap1\n  pop\n  jump\t// out\n    /* \"#utility.yul\":957:1050   */\ntag_53:\n    /* \"#utility.yul\":994:1000   */\n  0x00\n    /* \"#utility.yul\":1041:1043   */\n  0x20\n    /* \"#utility.yul\":1036:1038   */\n  0x1f\n    /* \"#utility.yul\":1029:1034   */\n  dup4\n    /* \"#utility.yul\":1025:1039   */\n  add\n    /* \"#utility.yul\":1021:1044   */\n  div\n    /* \"#utility.yul\":1011:1044   */\n  swap1\n  pop\n    /* \"#utility.yul\":957:1050   */\n  swap2\n  swap1\n  pop\n  jump\t// out\n    /* \"#utility.yul\":1056:1163   */\ntag_54:\n    /* \"#utility.yul\":1100:1108   */\n  0x00\n    /* \"#utility.yul\":1150:1155   */\n  dup3\n    /* \"#utility.yul\":1144:1148   */\n  dup3\n    /* \"#utility.yul\":1140:1156   */\n  shl\n    /* \"#utility.yul\":1119:1156   */\n  swap1\n  pop\n    /* \"#utility.yul\":1056:1163   */\n  swap3\n  swap2\n  pop\n  pop\n  jump\t// out\n    /* \"#utility.yul\":1169:1562   */\ntag_55:\n    /* \"#utility.yul\":1238:1244   */\n  0x00\n    /* \"#utility.yul\":1288:1289   */\n  0x08\n    /* \"#utility.yul\":1276:1286   */\n  dup4\n    /* \"#utility.yul\":1272:1290   */\n  mul\n    /* \"#utility.yul\":1311:1408   */\n  tag_88\n    /* \"#utility.yul\":1341:1407   */\n  0xffffffffffffffffffffffffffffffffffffffffffffffffffffffffffffffff\n    /* \"#utility.yul\":1330:1339   */\n  dup3\n    /* \"#utility.yul\":1311:1408   */\n  tag_54\n  jump\t// in\ntag_88:\n    /* \"#utility.yul\":1429:1468   */\n  tag_89\n    /* \"#utility.yul\":1459:1467   */\n  dup7\n    /* \"#utility.yul\":1448:1457   */\n  dup4\n    /* \"#utility.yul\":1429:1468   */\n  tag_54\n  jump\t// in\ntag_89:\n    /* \"#utility.yul\":1417:1468   */\n  swap6\n  pop\n    /* \"#utility.yul\":1501:1505   */\n  dup1\n    /* \"#utility.yul\":1497:1506   */\n  not\n    /* \"#utility.yul\":1490:1495   */\n  dup5\n    /* \"#utility.yul\":1486:1507   */\n  and\n    /* \"#utility.yul\":1477:1507   */\n  swap4\n  pop\n    /* \"#utility.yul\":1550:1554   */\n  dup1\n    /* \"#utility.yul\":1540:1548   */\n  dup7\n    /* \"#utility.yul\":1536:1555   */\n  and\n    /* \"#utility.yul\":1529:1534   */\n  dup5\n    /* \"#utility.yul\":1526:1556   */\n  or\n    /* \"#utility.yul\":1516:1556   */\n  swap3\n  pop\n    /* \"#utility.yul\":1245:1562   */\n  pop\n  pop\n    /* \"#utility.yul\":1169:1562   */\n  swap4\n  swap3\n  pop\n  pop\n  pop\n  jump\t// out\n    /* \"#utility.yul\":1568:1645   */\ntag_56:\n    /* \"#utility.yul\":1605:1612   */\n  0x00\n    /* \"#utility.yul\":1634:1639   */\n  dup2\n    /* \"#utility.yul\":1623:1639   */\n  swap1\n  pop\n    /* \"#utility.yul\":1568:1645   */\n  swap2\n  swap1\n  pop\n  jump\t// out\n    /* \"#utility.yul\":1651:1711   */\ntag_57:\n    /* \"#utility.yul\":1679:1682   */\n  0x00\n    /* \"#utility.yul\":1700:1705   */\n  dup2\n    /* \"#utility.yul\":1693:1705   */\n  swap1\n  pop\n    /* \"#utility.yul\":1651:1711   */\n  swap2\n  swap1\n  pop\n  jump\t// out\n    /* \"#utility.yul\":1717:1859   */\ntag_58:\n    /* \"#utility.yul\":1767:1776   */\n  0x00\n    /* \"#utility.yul\":1800:1853   */\n  tag_93\n    /* \"#utility.yul\":1818:1852   */\n  tag_94\n    /* \"#utility.yul\":1827:1851   */\n  tag_95\n    /* \"#utility.yul\":1845:1850   */\n  dup5\n    /* \"#utility.yul\":1827:1851   */\n  tag_56\n  jump\t// in\ntag_95:\n    /* \"#utility.yul\":1818:1852   */\n  tag_57\n  jump\t// in\ntag_94:\n    /* \"#utility.yul\":1800:1853   */\n  tag_56\n  jump\t// in\ntag_93:\n    /* \"#utility.yul\":1787:1853   */\n  swap1\n  pop\n    /* \"#utility.yul\":1717:1859   */\n  swap2\n  swap1\n  pop\n  jump\t// out\n    /* \"#utility.yul\":1865:1940   */\ntag_59:\n    /* \"#utility.yul\":1908:1911   */\n  0x00\n    /* \"#utility.yul\":1929:1934   */\n  dup2\n    /* \"#utility.yul\":1922:1934   */\n  swap1\n  pop\n    /* \"#utility.yul\":1865:1940   */\n  swap2\n  swap1\n  pop\n  jump\t// out\n    /* \"#utility.yul\":1946:2215   */\ntag_60:\n    /* \"#utility.yul\":2056:2095   */\n  tag_98\n    /* \"#utility.yul\":2087:2094   */\n  dup4\n    /* \"#utility.yul\":2056:2095   */\n  tag_58\n  jump\t// in\ntag_98:\n    /* \"#utility.yul\":2117:2208   */\n  tag_99\n    /* \"#utility.yul\":2166:2207   */\n  tag_100\n    /* \"#utility.yul\":2190:2206   */\n  dup3\n    /* \"#utility.yul\":2166:2207   */\n  tag_59\n  jump\t// in\ntag_100:\n    /* \"#utility.yul\":2158:2164   */\n  dup5\n    /* \"#utility.yul\":2151:2155   */\n  dup5\n    /* \"#utility.yul\":2145:2156   */\n  sload\n    /* \"#utility.yul\":2117:2208   */\n  tag_55\n  jump\t// in\ntag_99:\n    /* \"#utility.yul\":2111:2115   */\n  dup3\n    /* \"#utility.yul\":2104:2209   */\n  sstore\n    /* \"#utility.yul\":2022:2215   */\n  pop\n    /* \"#utility.yul\":1946:2215   */\n  pop\n  pop\n  pop\n  jump\t// out\n    /* \"#utility.yul\":2221:2294   */\ntag_61:\n    /* \"#utility.yul\":2266:2269   */\n  0x00\n    /* \"#utility.yul\":2221:2294   */\n  swap1\n  jump\t// out\n    /* \"#utility.yul\":2300:2489   */\ntag_62:\n    /* \"#utility.yul\":2377:2409   */\n  tag_103\n  tag_61\n  jump\t// in\ntag_103:\n    /* \"#utility.yul\":2418:2483   */\n  tag_104\n    /* \"#utility.yul\":2476:2482   */\n  dup2\n    /* \"#utility.yul\":2468:2474   */\n  dup5\n    /* \"#utility.yul\":2462:2466   */\n  dup5\n    /* \"#utility.yul\":2418:2483   */\n  tag_60\n  jump\t// in\ntag_104:\n    /* \"#utility.yul\":2353:2489   */\n  pop\n    /* \"#utility.yul\":2300:2489   */\n  pop\n  pop\n  jump\t// out\n    /* \"#utility.yul\":2495:2681   */\ntag_63:\n    /* \"#utility.yul\":2555:2675   */\ntag_106:\n    /* \"#utility.yul\":2572:2575   */\n  dup2\n    /* \"#utility.yul\":2565:2570   */\n  dup2\n    /* \"#utility.yul\":2562:2576   */\n  lt\n    /* \"#utility.yul\":2555:2675   */\n  iszero\n  tag_108\n  jumpi\n    /* \"#utility.yul\":2626:2665   */\n  tag_109\n    /* \"#utility.yul\":2663:2664   */\n  0x00\n    /* \"#utility.yul\":2656:2661   */\n  dup3\n    /* \"#utility.yul\":2626:2665   */\n  tag_62\n  jump\t// in\ntag_109:\n    /* \"#utility.yul\":2599:2600   */\n  0x01\n    /* \"#utility.yul\":2592:2597   */\n  dup2\n    /* \"#utility.yul\":2588:2601   */\n  add\n    /* \"#utility.yul\":2579:2601   */\n  swap1\n  pop\n    /* \"#utility.yul\":2555:2675   */\n  jump(tag_106)\ntag_108:\n    /* \"#utility.yul\":2495:2681   */\n  pop\n  pop\n  jump\t// out\n    /* \"#utility.yul\":2687:3230   */\ntag_64:\n    /* \"#utility.yul\":2788:2790   */\n  0x1f\n    /* \"#utility.yul\":2783:2786   */\n  dup3\n    /* \"#utility.yul\":2780:2791   */\n  gt\n    /* \"#utility.yul\":2777:3223   */\n  iszero\n  tag_111\n  jumpi\n    /* \"#utility.yul\":2822:2860   */\n  tag_112\n    /* \"#utility.yul\":2854:2859   */\n  dup2\n    /* \"#utility.yul\":2822:2860   */\n  tag_52\n  jump\t// in\ntag_112:\n    /* \"#utility.yul\":2906:2935   */\n  tag_113\n    /* \"#utility.yul\":2924:2934   */\n  dup5\n    /* \"#utility.yul\":2906:2935   */\n  tag_53\n  jump\t// in\ntag_113:\n    /* \"#utility.yul\":2896:2904   */\n  dup2\n    /* \"#utility.yul\":2892:2936   */\n  add\n    /* \"#utility.yul\":3089:3091   */\n  0x20\n    /* \"#utility.yul\":3077:3087   */\n  dup6\n    /* \"#utility.yul\":3074:3092   */\n  lt\n    /* \"#utility.yul\":3071:3120   */\n  iszero\n  tag_114\n  jumpi\n    /* \"#utility.yul\":3110:3118   */\n  dup2\n    /* \"#utility.yul\":3095:3118   */\n  swap1\n  pop\n    /* \"#utility.yul\":3071:3120   */\ntag_114:\n    /* \"#utility.yul\":3133:3213   */\n  tag_115\n    /* \"#utility.yul\":3189:3211   */\n  tag_116\n    /* \"#utility.yul\":3207:3210   */\n  dup6\n    /* \"#utility.yul\":3189:3211   */\n  tag_53\n  jump\t// in\ntag_116:\n    /* \"#utility.yul\":3179:3187   */\n  dup4\n    /* \"#utility.yul\":3175:3212   */\n  add\n    /* \"#utility.yul\":3162:3173   */\n  dup3\n    /* \"#utility.yul\":3133:3213   */\n  tag_63\n  jump\t// in\ntag_115:\n    /* \"#utility.yul\":2792:3223   */\n  pop\n  pop\n    /* \"#utility.yul\":2777:3223   */\ntag_111:\n    /* \"#utility.yul\":2687:3230   */\n  pop\n  pop\n  pop\n  jump\t// out\n    /* \"#utility.yul\":3236:3353   */\ntag_65:\n    /* \"#utility.yul\":3290:3298   */\n  0x00\n    /* \"#utility.yul\":3340:3345   */\n  dup3\n    /* \"#utility.yul\":3334:3338   */\n  dup3\n    /* \"#utility.yul\":3330:3346   */\n  shr\n    /* \"#utility.yul\":3309:3346   */\n  swap1\n  pop\n    /* \"#utility.yul\":3236:3353   */\n  swap3\n  swap2\n  pop\n  pop\n  jump\t// out\n    /* \"#utility.yul\":3359:3528   */\ntag_66:\n    /* \"#utility.yul\":3403:3409   */\n  0x00\n    /* \"#utility.yul\":3436:3487   */\n  tag_119\n    /* \"#utility.yul\":3484:3485   */\n  0x00\n    /* \"#utility.yul\":3480:3486   */\n  not\n    /* \"#utility.yul\":3472:3477   */\n  dup5\n    /* \"#utility.yul\":3469:3470   */\n  0x08\n    /* \"#utility.yul\":3465:3478   */\n  mul\n    /* \"#utility.yul\":3436:3487   */\n  tag_65\n  jump\t// in\ntag_119:\n    /* \"#utility.yul\":3432:3488   */\n  not\n    /* \"#utility.yul\":3517:3521   */\n  dup1\n    /* \"#utility.yul\":3511:3515   */\n  dup4\n    /* \"#utility.yul\":3507:3522   */\n  and\n    /* \"#utility.yul\":3497:3522   */\n  swap2\n  pop\n    /* \"#utility.yul\":3410:3528   */\n  pop\n    /* \"#utility.yul\":3359:3528   */\n  swap3\n  swap2\n  pop\n  pop\n  jump\t// out\n    /* \"#utility.yul\":3533:3828   */\ntag_67:\n    /* \"#utility.yul\":3609:3613   */\n  0x00\n    /* \"#utility.yul\":3755:3784   */\n  tag_121\n    /* \"#utility.yul\":3780:3783   */\n  dup4\n    /* \"#utility.yul\":3774:3778   */\n  dup4\n    /* \"#utility.yul\":3755:3784   */\n  tag_66\n  jump\t// in\ntag_121:\n    /* \"#utility.yul\":3747:3784   */\n  swap2\n  pop\n    /* \"#utility.yul\":3817:3820   */\n  dup3\n    /* \"#utility.yul\":3814:3815   */\n  0x02\n    /* \"#utility.yul\":3810:3821   */\n  mul\n    /* \"#utility.yul\":3804:3808   */\n  dup3\n    /* \"#utility.yul\":3801:3822   */\n  or\n    /* \"#utility.yul\":3793:3822   */\n  swap1\n  pop\n    /* \"#utility.yul\":3533:3828   */\n  swap3\n  swap2\n  pop\n  pop\n  jump\t// out\n    /* \"#utility.yul\":3833:5228   */\ntag_7:\n    /* \"#utility.yul\":3950:3987   */\n  tag_123\n    /* \"#utility.yul\":3983:3986   */\n  dup3\n    /* \"#utility.yul\":3950:3987   */\n  tag_48\n  jump\t// in\ntag_123:\n    /* \"#utility.yul\":4052:4070   */\n  0xffffffffffffffff\n    /* \"#utility.yul\":4044:4050   */\n  dup2\n    /* \"#utility.yul\":4041:4071   */\n  gt\n    /* \"#utility.yul\":4038:4094   */\n  iszero\n  tag_124\n  jumpi\n    /* \"#utility.yul\":4074:4092   */\n  tag_125\n  tag_49\n  jump\t// in\ntag_125:\n    /* \"#utility.yul\":4038:4094   */\ntag_124:\n    /* \"#utility.yul\":4118:4156   */\n  tag_126\n    /* \"#utility.yul\":4150:4154   */\n  dup3\n    /* \"#utility.yul\":4144:4155   */\n  sload\n    /* \"#utility.yul\":4118:4156   */\n  tag_51\n  jump\t// in\ntag_126:\n    /* \"#utility.yul\":4203:4270   */\n  tag_127\n    /* \"#utility.yul\":4263:4269   */\n  dup3\n    /* \"#utility.yul\":4255:4261   */\n  dup3\n    /* \"#utility.yul\":4249:4253   */\n  dup6\n    /* \"#utility.yul\":4203:4270   */\n  tag_64\n  jump\t// in\ntag_127:\n    /* \"#utility.yul\":4297:4298   */\n  0x00\n    /* \"#utility.yul\":4321:4325   */\n  0x20\n    /* \"#utility.yul\":4308:4325   */\n  swap1\n  pop\n    /* \"#utility.yul\":4353:4355   */\n  0x1f\n    /* \"#utility.yul\":4345:4351   */\n  dup4\n    /* \"#utility.yul\":4342:4356   */\n  gt\n    /* \"#utility.yul\":4370:4371   */\n  0x01\n    /* \"#utility.yul\":4365:4983   */\n  dup2\n  eq\n  tag_129\n  jumpi\n    /* \"#utility.yul\":5027:5028   */\n  0x00\n    /* \"#utility.yul\":5044:5050   */\n  dup5\n    /* \"#utility.yul\":5041:5118   */\n  iszero\n  tag_130\n  jumpi\n    /* \"#utility.yul\":5093:5102   */\n  dup3\n    /* \"#utility.yul\":5088:5091   */\n  dup8\n    /* \"#utility.yul\":5084:5103   */\n  add\n    /* \"#utility.yul\":5078:5104   */\n  mload\n    /* \"#utility.yul\":5069:5104   */\n  swap1\n  pop\n    /* \"#utility.yul\":5041:5118   */\ntag_130:\n    /* \"#utility.yul\":5144:5211   */\n  tag_131\n    /* \"#utility.yul\":5204:5210   */\n  dup6\n    /* \"#utility.yul\":5197:5202   */\n  dup3\n    /* \"#utility.yul\":5144:5211   */\n  tag_67\n  jump\t// in\ntag_131:\n    /* \"#utility.yul\":5138:5142   */\n  dup7\n    /* \"#utility.yul\":5131:5212   */\n  sstore\n    /* \"#utility.yul\":5000:5222   */\n  pop\n    /* \"#utility.yul\":4335:5222   */\n  jump(tag_128)\n    /* \"#utility.yul\":4365:4983   */\ntag_129:\n    /* \"#utility.yul\":4417:4421   */\n  0x1f\n    /* \"#utility.yul\":4413:4422   */\n  not\n    /* \"#utility.yul\":4405:4411   */\n  dup5\n    /* \"#utility.yul\":4401:4423   */\n  and\n    /* \"#utility.yul\":4451:4488   */\n  tag_132\n    /* \"#utility.yul\":4483:4487   */\n  dup7\n    /* \"#utility.yul\":4451:4488   */\n  tag_52\n  jump\t// in\ntag_132:\n    /* \"#utility.yul\":4510:4511   */\n  0x00\n    /* \"#utility.yul\":4524:4732   */\ntag_133:\n    /* \"#utility.yul\":4538:4545   */\n  dup3\n    /* \"#utility.yul\":4535:4536   */\n  dup2\n    /* \"#utility.yul\":4532:4546   */\n  lt\n    /* \"#utility.yul\":4524:4732   */\n  iszero\n  tag_135\n  jumpi\n    /* \"#utility.yul\":4617:4626   */\n  dup5\n    /* \"#utility.yul\":4612:4615   */\n  dup10\n    /* \"#utility.yul\":4608:4627   */\n  add\n    /* \"#utility.yul\":4602:4628   */\n  mload\n    /* \"#utility.yul\":4594:4600   */\n  dup3\n    /* \"#utility.yul\":4587:4629   */\n  sstore\n    /* \"#utility.yul\":4668:4669   */\n  0x01\n    /* \"#utility.yul\":4660:4666   */\n  dup3\n    /* \"#utility.yul\":4656:4670   */\n  add\n    /* \"#utility.yul\":4646:4670   */\n  swap2\n  pop\n    /* \"#utility.yul\":4715:4717   */\n  0x20\n    /* \"#utility.yul\":4704:4713   */\n  dup6\n    /* \"#utility.yul\":4700:4718   */\n  add\n    /* \"#utility.yul\":4687:4718   */\n  swap5\n  pop\n    /* \"#utility.yul\":4561:4565   */\n  0x20\n    /* \"#utility.yul\":4558:4559   */\n  dup2\n    /* \"#utility.yul\":4554:4566   */\n  add\n    /* \"#utility.yul\":4549:4566   */\n  swap1\n  pop\n    /* \"#utility.yul\":4524:4732   */\n  jump(tag_133)\ntag_135:\n    /* \"#utility.yul\":4760:4766   */\n  dup7\n    /* \"#utility.yul\":4751:4758   */\n  dup4\n    /* \"#utility.yul\":4748:4767   */\n  lt\n    /* \"#utility.yul\":4745:4924   */\n  iszero\n  tag_136\n  jumpi\n    /* \"#utility.yul\":4818:4827   */\n  dup5\n    /* \"#utility.yul\":4813:4816   */\n  dup10\n    /* \"#utility.yul\":4809:4828   */\n  add\n    /* \"#utility.yul\":4803:4829   */\n  mload\n    /* \"#utility.yul\":4861:4909   */\n  tag_137\n    /* \"#utility.yul\":4903:4907   */\n  0x1f\n    /* \"#utility.yul\":4895:4901   */\n  dup10\n    /* \"#utility.yul\":4891:4908   */\n  and\n    /* \"#utility.yul\":4880:4889   */\n  dup3\n    /* \"#utility.yul\":4861:4909   */\n  tag_66\n  jump\t// in\ntag_137:\n    /* \"#utility.yul\":4853:4859   */\n  dup4\n    /* \"#utility.yul\":4846:4910   */\n  sstore\n    /* \"#utility.yul\":4768:4924   */\n  pop\n    /* \"#utility.yul\":4745:4924   */\ntag_136:\n    /* \"#utility.yul\":4970:4971   */\n  0x01\n    /* \"#utility.yul\":4966:4967   */\n  0x02\n    /* \"#utility.yul\":4958:4964   */\n  dup9\n    /* \"#utility.yul\":4954:4968   */\n  mul\n    /* \"#utility.yul\":4950:4972   */\n  add\n    /* \"#utility.yul\":4944:4948   */\n  dup9\n    /* \"#utility.yul\":4937:4973   */\n  sstore\n    /* \"#utility.yul\":4372:4983   */\n  pop\n  pop\n  pop\n    /* \"#utility.yul\":4335:5222   */\ntag_128:\n  pop\n    /* \"#utility.yul\":3925:5228   */\n  pop\n  pop\n  pop\n    /* \"#utility.yul\":3833:5228   */\n  pop\n  pop\n  jump\t// out\n    /* \"#utility.yul\":5234:5403   */\ntag_68:\n    /* \"#utility.yul\":5318:5329   */\n  0x00\n    /* \"#utility.yul\":5352:5358   */\n  dup3\n    /* \"#utility.yul\":5347:5350   */\n  dup3\n    /* \"#utility.yul\":5340:5359   */\n  mstore\n    /* \"#utility.yul\":5392:5396   */\n  0x20\n    /* \"#utility.yul\":5387:5390   */\n  dup3\n    /* \"#utility.yul\":5383:5397   */\n  add\n    /* \"#utility.yul\":5368:5397   */\n  swap1\n  pop\n    /* \"#utility.yul\":5234:5403   */\n  swap3\n  swap2\n  pop\n  pop\n  jump\t// out\n    /* \"#utility.yul\":5409:5632   */\ntag_69:\n    /* \"#utility.yul\":5549:5583   */\n  0x4f6e6c792030206f7220312061636365707465642061732061697264726f7020\n    /* \"#utility.yul\":5545:5546   */\n  0x00\n    /* \"#utility.yul\":5537:5543   */\n  dup3\n    /* \"#utility.yul\":5533:5547   */\n  add\n    /* \"#utility.yul\":5526:5584   */\n  mstore\n    /* \"#utility.yul\":5618:5624   */\n  0x7479706500000000000000000000000000000000000000000000000000000000\n    /* \"#utility.yul\":5613:5615   */\n  0x20\n    /* \"#utility.yul\":5605:5611   */\n  dup3\n    /* \"#utility.yul\":5601:5616   */\n  add\n    /* \"#utility.yul\":5594:5625   */\n  mstore\n    /* \"#utility.yul\":5409:5632   */\n  pop\n  jump\t// out\n    /* \"#utility.yul\":5638:6004   */\ntag_70:\n    /* \"#utility.yul\":5780:5783   */\n  0x00\n    /* \"#utility.yul\":5801:5868   */\n  tag_141\n    /* \"#utility.yul\":5865:5867   */\n  0x24\n    /* \"#utility.yul\":5860:5863   */\n  dup4\n    /* \"#utility.yul\":5801:5868   */\n  tag_68\n  jump\t// in\ntag_141:\n    /* \"#utility.yul\":5794:5868   */\n  swap2\n  pop\n    /* \"#utility.yul\":5877:5970   */\n  tag_142\n    /* \"#utility.yul\":5966:5969   */\n  dup3\n    /* \"#utility.yul\":5877:5970   */\n  tag_69\n  jump\t// in\ntag_142:\n    /* \"#utility.yul\":5995:5997   */\n  0x40\n    /* \"#utility.yul\":5990:5993   */\n  dup3\n    /* \"#utility.yul\":5986:5998   */\n  add\n    /* \"#utility.yul\":5979:5998   */\n  swap1\n  pop\n    /* \"#utility.yul\":5638:6004   */\n  swap2\n  swap1\n  pop\n  jump\t// out\n    /* \"#utility.yul\":6010:6429   */\ntag_13:\n    /* \"#utility.yul\":6176:6180   */\n  0x00\n    /* \"#utility.yul\":6214:6216   */\n  0x20\n    /* \"#utility.yul\":6203:6212   */\n  dup3\n    /* \"#utility.yul\":6199:6217   */\n  add\n    /* \"#utility.yul\":6191:6217   */\n  swap1\n  pop\n    /* \"#utility.yul\":6263:6272   */\n  dup2\n    /* \"#utility.yul\":6257:6261   */\n  dup2\n    /* \"#utility.yul\":6253:6273   */\n  sub\n    /* \"#utility.yul\":6249:6250   */\n  0x00\n    /* \"#utility.yul\":6238:6247   */\n  dup4\n    /* \"#utility.yul\":6234:6251   */\n  add\n    /* \"#utility.yul\":6227:6274   */\n  mstore\n    /* \"#utility.yul\":6291:6422   */\n  tag_144\n    /* \"#utility.yul\":6417:6421   */\n  dup2\n    /* \"#utility.yul\":6291:6422   */\n  tag_70\n  jump\t// in\ntag_144:\n    /* \"#utility.yul\":6283:6422   */\n  swap1\n  pop\n    /* \"#utility.yul\":6010:6429   */\n  swap2\n  swap1\n  pop\n  jump\t// out\n    /* \"#utility.yul\":6435:6561   */\ntag_71:\n    /* \"#utility.yul\":6472:6479   */\n  0x00\n    /* \"#utility.yul\":6512:6554   */\n  0xffffffffffffffffffffffffffffffffffffffff\n    /* \"#utility.yul\":6505:6510   */\n  dup3\n    /* \"#utility.yul\":6501:6555   */\n  and\n    /* \"#utility.yul\":6490:6555   */\n  swap1\n  pop\n    /* \"#utility.yul\":6435:6561   */\n  swap2\n  swap1\n  pop\n  jump\t// out\n    /* \"#utility.yul\":6567:6663   */\ntag_72:\n    /* \"#utility.yul\":6604:6611   */\n  0x00\n    /* \"#utility.yul\":6633:6657   */\n  tag_147\n    /* \"#utility.yul\":6651:6656   */\n  dup3\n    /* \"#utility.yul\":6633:6657   */\n  tag_71\n  jump\t// in\ntag_147:\n    /* \"#utility.yul\":6622:6657   */\n  swap1\n  pop\n    /* \"#utility.yul\":6567:6663   */\n  swap2\n  swap1\n  pop\n  jump\t// out\n    /* \"#utility.yul\":6669:6787   */\ntag_73:\n    /* \"#utility.yul\":6756:6780   */\n  tag_149\n    /* \"#utility.yul\":6774:6779   */\n  dup2\n    /* \"#utility.yul\":6756:6780   */\n  tag_72\n  jump\t// in\ntag_149:\n    /* \"#utility.yul\":6751:6754   */\n  dup3\n    /* \"#utility.yul\":6744:6781   */\n  mstore\n    /* \"#utility.yul\":6669:6787   */\n  pop\n  pop\n  jump\t// out\n    /* \"#utility.yul\":6793:7015   */\ntag_23:\n    /* \"#utility.yul\":6886:6890   */\n  0x00\n    /* \"#utility.yul\":6924:6926   */\n  0x20\n    /* \"#utility.yul\":6913:6922   */\n  dup3\n    /* \"#utility.yul\":6909:6927   */\n  add\n    /* \"#utility.yul\":6901:6927   */\n  swap1\n  pop\n    /* \"#utility.yul\":6937:7008   */\n  tag_151\n    /* \"#utility.yul\":7005:7006   */\n  0x00\n    /* \"#utility.yul\":6994:7003   */\n  dup4\n    /* \"#utility.yul\":6990:7007   */\n  add\n    /* \"#utility.yul\":6981:6987   */\n  dup5\n    /* \"#utility.yul\":6937:7008   */\n  tag_73\n  jump\t// in\ntag_151:\n    /* \"#utility.yul\":6793:7015   */\n  swap3\n  swap2\n  pop\n  pop\n  jump\t// out\n    /* \"#utility.yul\":7021:7201   */\ntag_74:\n    /* \"#utility.yul\":7069:7146   */\n  0x4e487b7100000000000000000000000000000000000000000000000000000000\n    /* \"#utility.yul\":7066:7067   */\n  0x00\n    /* \"#utility.yul\":7059:7147   */\n  mstore\n    /* \"#utility.yul\":7166:7170   */\n  0x11\n    /* \"#utility.yul\":7163:7164   */\n  0x04\n    /* \"#utility.yul\":7156:7171   */\n  mstore\n    /* \"#utility.yul\":7190:7194   */\n  0x24\n    /* \"#utility.yul\":7187:7188   */\n  0x00\n    /* \"#utility.yul\":7180:7195   */\n  revert\n    /* \"#utility.yul\":7207:7398   */\ntag_32:\n    /* \"#utility.yul\":7247:7250   */\n  0x00\n    /* \"#utility.yul\":7266:7286   */\n  tag_154\n    /* \"#utility.yul\":7284:7285   */\n  dup3\n    /* \"#utility.yul\":7266:7286   */\n  tag_56\n  jump\t// in\ntag_154:\n    /* \"#utility.yul\":7261:7286   */\n  swap2\n  pop\n    /* \"#utility.yul\":7300:7320   */\n  tag_155\n    /* \"#utility.yul\":7318:7319   */\n  dup4\n    /* \"#utility.yul\":7300:7320   */\n  tag_56\n  jump\t// in\ntag_155:\n    /* \"#utility.yul\":7295:7320   */\n  swap3\n  pop\n    /* \"#utility.yul\":7343:7344   */\n  dup3\n    /* \"#utility.yul\":7340:7341   */\n  dup3\n    /* \"#utility.yul\":7336:7345   */\n  add\n    /* \"#utility.yul\":7329:7345   */\n  swap1\n  pop\n    /* \"#utility.yul\":7364:7367   */\n  dup1\n    /* \"#utility.yul\":7361:7362   */\n  dup3\n    /* \"#utility.yul\":7358:7368   */\n  gt\n    /* \"#utility.yul\":7355:7391   */\n  iszero\n  tag_156\n  jumpi\n    /* \"#utility.yul\":7371:7389   */\n  tag_157\n  tag_74\n  jump\t// in\ntag_157:\n    /* \"#utility.yul\":7355:7391   */\ntag_156:\n    /* \"#utility.yul\":7207:7398   */\n  swap3\n  swap2\n  pop\n  pop\n  jump\t// out\n    /* \"#utility.yul\":7404:7522   */\ntag_75:\n    /* \"#utility.yul\":7491:7515   */\n  tag_159\n    /* \"#utility.yul\":7509:7514   */\n  dup2\n    /* \"#utility.yul\":7491:7515   */\n  tag_56\n  jump\t// in\ntag_159:\n    /* \"#utility.yul\":7486:7489   */\n  dup3\n    /* \"#utility.yul\":7479:7516   */\n  mstore\n    /* \"#utility.yul\":7404:7522   */\n  pop\n  pop\n  jump\t// out\n    /* \"#utility.yul\":7528:7970   */\ntag_36:\n    /* \"#utility.yul\":7677:7681   */\n  0x00\n    /* \"#utility.yul\":7715:7717   */\n  0x60\n    /* \"#utility.yul\":7704:7713   */\n  dup3\n    /* \"#utility.yul\":7700:7718   */\n  add\n    /* \"#utility.yul\":7692:7718   */\n  swap1\n  pop\n    /* \"#utility.yul\":7728:7799   */\n  tag_161\n    /* \"#utility.yul\":7796:7797   */\n  0x00\n    /* \"#utility.yul\":7785:7794   */\n  dup4\n    /* \"#utility.yul\":7781:7798   */\n  add\n    /* \"#utility.yul\":7772:7778   */\n  dup7\n    /* \"#utility.yul\":7728:7799   */\n  tag_73\n  jump\t// in\ntag_161:\n    /* \"#utility.yul\":7809:7881   */\n  tag_162\n    /* \"#utility.yul\":7877:7879   */\n  0x20\n    /* \"#utility.yul\":7866:7875   */\n  dup4\n    /* \"#utility.yul\":7862:7880   */\n  add\n    /* \"#utility.yul\":7853:7859   */\n  dup6\n    /* \"#utility.yul\":7809:7881   */\n  tag_75\n  jump\t// in\ntag_162:\n    /* \"#utility.yul\":7891:7963   */\n  tag_163\n    /* \"#utility.yul\":7959:7961   */\n  0x40\n    /* \"#utility.yul\":7948:7957   */\n  dup4\n    /* \"#utility.yul\":7944:7962   */\n  add\n    /* \"#utility.yul\":7935:7941   */\n  dup5\n    /* \"#utility.yul\":7891:7963   */\n  tag_75\n  jump\t// in\ntag_163:\n    /* \"#utility.yul\":7528:7970   */\n  swap5\n  swap4\n  pop\n  pop\n  pop\n  pop\n  jump\t// out\n    /* \"#utility.yul\":7976:8198   */\ntag_40:\n    /* \"#utility.yul\":8069:8073   */\n  0x00\n    /* \"#utility.yul\":8107:8109   */\n  0x20\n    /* \"#utility.yul\":8096:8105   */\n  dup3\n    /* \"#utility.yul\":8092:8110   */\n  add\n    /* \"#utility.yul\":8084:8110   */\n  swap1\n  pop\n    /* \"#utility.yul\":8120:8191   */\n  tag_165\n    /* \"#utility.yul\":8188:8189   */\n  0x00\n    /* \"#utility.yul\":8177:8186   */\n  dup4\n    /* \"#utility.yul\":8173:8190   */\n  add\n    /* \"#utility.yul\":8164:8170   */\n  dup5\n    /* \"#utility.yul\":8120:8191   */\n  tag_75\n  jump\t// in\ntag_165:\n    /* \"#utility.yul\":7976:8198   */\n  swap3\n  swap2\n  pop\n  pop\n  jump\t// out\n    /* \"COAT/test/token.sol\":152:847  contract BUSD is ERC20, Airdrop(address(this), msg.sender, 0) {... */\ntag_19:\n  dataSize(sub_0)\n  dup1\n  dataOffset(sub_0)\n  0x00\n  codecopy\n  0x00\n  return\nstop\n\nsub_0: assembly {\n        /* \"COAT/test/token.sol\":152:847  contract BUSD is ERC20, Airdrop(address(this), msg.sender, 0) {... */\n      mstore(0x40, 0x80)\n      callvalue\n      dup1\n      iszero\n      tag_1\n      jumpi\n      0x00\n      dup1\n      revert\n    tag_1:\n      pop\n      jumpi(tag_2, lt(calldatasize, 0x04))\n      shr(0xe0, calldataload(0x00))\n      dup1\n      0x6f9170f6\n      gt\n      tag_21\n      jumpi\n      dup1\n      0xa2efa6ae\n      gt\n      tag_22\n      jumpi\n      dup1\n      0xa2efa6ae\n      eq\n      tag_16\n      jumpi\n      dup1\n      0xa9059cbb\n      eq\n      tag_17\n      jumpi\n      dup1\n      0xd826f88f\n      eq\n      tag_18\n      jumpi\n      dup1\n      0xdca11ab8\n      eq\n      tag_19\n      jumpi\n      dup1\n      0xdd62ed3e\n      eq\n      tag_20\n      jumpi\n      jump(tag_2)\n    tag_22:\n      dup1\n      0x6f9170f6\n      eq\n      tag_12\n      jumpi\n      dup1\n      0x70a08231\n      eq\n      tag_13\n      jumpi\n      dup1\n      0x95d89b41\n      eq\n      tag_14\n      jumpi\n      dup1\n      0xa0712d68\n      eq\n      tag_15\n      jumpi\n      jump(tag_2)\n    tag_21:\n      dup1\n      0x18160ddd\n      gt\n      tag_23\n      jumpi\n      dup1\n      0x18160ddd\n      eq\n      tag_7\n      jumpi\n      dup1\n      0x23b872dd\n      eq\n      tag_8\n      jumpi\n      dup1\n      0x313ce567\n      eq\n      tag_9\n      jumpi\n      dup1\n      0x4e41cfdb\n      eq\n      tag_10\n      jumpi\n      dup1\n      0x51d6e8a4\n      eq\n      tag_11\n      jumpi\n      jump(tag_2)\n    tag_23:\n      dup1\n      0x06fdde03\n      eq\n      tag_3\n      jumpi\n      dup1\n      0x095ea7b3\n      eq\n      tag_4\n      jumpi\n      dup1\n      0x09a9d76c\n      eq\n      tag_5\n      jumpi\n      dup1\n      0x150b7a02\n      eq\n      tag_6\n      jumpi\n    tag_2:\n      0x00\n      dup1\n      revert\n        /* \"@openzeppelin/contracts/token/ERC20/ERC20.sol\":1779:1868  function name() public view virtual returns (string memory) {... */\n    tag_3:\n      tag_24\n      tag_25\n      jump\t// in\n    tag_24:\n      mload(0x40)\n      tag_26\n      swap2\n      swap1\n      tag_27\n      jump\t// in\n    tag_26:\n      mload(0x40)\n      dup1\n      swap2\n      sub\n      swap1\n      return\n        /* \"@openzeppelin/contracts/token/ERC20/ERC20.sol\":3998:4184  function approve(address spender, uint256 value) public virtual returns (bool) {... */\n    tag_4:\n      tag_28\n      0x04\n      dup1\n      calldatasize\n      sub\n      dup2\n      add\n      swap1\n      tag_29\n      swap2\n      swap1\n      tag_30\n      jump\t// in\n    tag_29:\n      tag_31\n      jump\t// in\n    tag_28:\n      mload(0x40)\n      tag_32\n      swap2\n      swap1\n      tag_33\n      jump\t// in\n    tag_32:\n      mload(0x40)\n      dup1\n      swap2\n      sub\n      swap1\n      return\n        /* \"COAT/tokens/airdrop.sol\":19475:19577  function getWhiteList() public view returns(address[] memory) {... */\n    tag_5:\n      tag_34\n      tag_35\n      jump\t// in\n    tag_34:\n      mload(0x40)\n      tag_36\n      swap2\n      swap1\n      tag_37\n      jump\t// in\n    tag_36:\n      mload(0x40)\n      dup1\n      swap2\n      sub\n      swap1\n      return\n        /* \"COAT/tokens/airdrop.sol\":20365:20762  function onERC721Received(address operator, address from, uint256 tokenId, bytes memory data) public returns (bytes4) {... */\n    tag_6:\n      tag_38\n      0x04\n      dup1\n      calldatasize\n      sub\n      dup2\n      add\n      swap1\n      tag_39\n      swap2\n      swap1\n      tag_40\n      jump\t// in\n    tag_39:\n      tag_41\n      jump\t// in\n    tag_38:\n      mload(0x40)\n      tag_42\n      swap2\n      swap1\n      tag_43\n      jump\t// in\n    tag_42:\n      mload(0x40)\n      dup1\n      swap2\n      sub\n      swap1\n      return\n        /* \"@openzeppelin/contracts/token/ERC20/ERC20.sol\":2849:2946  function totalSupply() public view virtual returns (uint256) {... */\n    tag_7:\n      tag_44\n      tag_45\n      jump\t// in\n    tag_44:\n      mload(0x40)\n      tag_46\n      swap2\n      swap1\n      tag_47\n      jump\t// in\n    tag_46:\n      mload(0x40)\n      dup1\n      swap2\n      sub\n      swap1\n      return\n        /* \"@openzeppelin/contracts/token/ERC20/ERC20.sol\":4776:5020  function transferFrom(address from, address to, uint256 value) public virtual returns (bool) {... */\n    tag_8:\n      tag_48\n      0x04\n      dup1\n      calldatasize\n      sub\n      dup2\n      add\n      swap1\n      tag_49\n      swap2\n      swap1\n      tag_50\n      jump\t// in\n    tag_49:\n      tag_51\n      jump\t// in\n    tag_48:\n      mload(0x40)\n      tag_52\n      swap2\n      swap1\n      tag_33\n      jump\t// in\n    tag_52:\n      mload(0x40)\n      dup1\n      swap2\n      sub\n      swap1\n      return\n        /* \"@openzeppelin/contracts/token/ERC20/ERC20.sol\":2707:2789  function decimals() public view virtual returns (uint8) {... */\n    tag_9:\n      tag_53\n      tag_54\n      jump\t// in\n    tag_53:\n      mload(0x40)\n      tag_55\n      swap2\n      swap1\n      tag_56\n      jump\t// in\n    tag_55:\n      mload(0x40)\n      dup1\n      swap2\n      sub\n      swap1\n      return\n        /* \"COAT/test/token.sol\":642:765  function whiteListAddress(address[] calldata _address) public  returns(bool) {... */\n    tag_10:\n      tag_57\n      0x04\n      dup1\n      calldatasize\n      sub\n      dup2\n      add\n      swap1\n      tag_58\n      swap2\n      swap1\n      tag_59\n      jump\t// in\n    tag_58:\n      tag_60\n      jump\t// in\n    tag_57:\n      mload(0x40)\n      tag_61\n      swap2\n      swap1\n      tag_33\n      jump\t// in\n    tag_61:\n      mload(0x40)\n      dup1\n      swap2\n      sub\n      swap1\n      return\n        /* \"COAT/tokens/airdrop.sol\":19706:19800  function airdropVersion() public view returns(uint) {... */\n    tag_11:\n      tag_62\n      tag_63\n      jump\t// in\n    tag_62:\n      mload(0x40)\n      tag_64\n      swap2\n      swap1\n      tag_47\n      jump\t// in\n    tag_64:\n      mload(0x40)\n      dup1\n      swap2\n      sub\n      swap1\n      return\n        /* \"COAT/tokens/airdrop.sol\":19974:20089  function isWhiteListed(address _address) public view returns(bool) {... */\n    tag_12:\n      tag_65\n      0x04\n      dup1\n      calldatasize\n      sub\n      dup2\n      add\n      swap1\n      tag_66\n      swap2\n      swap1\n      tag_67\n      jump\t// in\n    tag_66:\n      tag_68\n      jump\t// in\n    tag_65:\n      mload(0x40)\n      tag_69\n      swap2\n      swap1\n      tag_33\n      jump\t// in\n    tag_69:\n      mload(0x40)\n      dup1\n      swap2\n      sub\n      swap1\n      return\n        /* \"@openzeppelin/contracts/token/ERC20/ERC20.sol\":3004:3120  function balanceOf(address account) public view virtual returns (uint256) {... */\n    tag_13:\n      tag_70\n      0x04\n      dup1\n      calldatasize\n      sub\n      dup2\n      add\n      swap1\n      tag_71\n      swap2\n      swap1\n      tag_67\n      jump\t// in\n    tag_71:\n      tag_72\n      jump\t// in\n    tag_70:\n      mload(0x40)\n      tag_73\n      swap2\n      swap1\n      tag_47\n      jump\t// in\n    tag_73:\n      mload(0x40)\n      dup1\n      swap2\n      sub\n      swap1\n      return\n        /* \"@openzeppelin/contracts/token/ERC20/ERC20.sol\":1981:2074  function symbol() public view virtual returns (string memory) {... */\n    tag_14:\n      tag_74\n      tag_75\n      jump\t// in\n    tag_74:\n      mload(0x40)\n      tag_76\n      swap2\n      swap1\n      tag_27\n      jump\t// in\n    tag_76:\n      mload(0x40)\n      dup1\n      swap2\n      sub\n      swap1\n      return\n        /* \"COAT/test/token.sol\":414:508  function mint(uint amount) external returns(bool) {... */\n    tag_15:\n      tag_77\n      0x04\n      dup1\n      calldatasize\n      sub\n      dup2\n      add\n      swap1\n      tag_78\n      swap2\n      swap1\n      tag_79\n      jump\t// in\n    tag_78:\n      tag_80\n      jump\t// in\n    tag_77:\n      mload(0x40)\n      tag_81\n      swap2\n      swap1\n      tag_33\n      jump\t// in\n    tag_81:\n      mload(0x40)\n      dup1\n      swap2\n      sub\n      swap1\n      return\n        /* \"COAT/test/token.sol\":516:634  function sartAirdrop(uint256[] calldata unitOfToken) public returns(bool){... */\n    tag_16:\n      tag_82\n      0x04\n      dup1\n      calldatasize\n      sub\n      dup2\n      add\n      swap1\n      tag_83\n      swap2\n      swap1\n      tag_84\n      jump\t// in\n    tag_83:\n      tag_85\n      jump\t// in\n    tag_82:\n      mload(0x40)\n      tag_86\n      swap2\n      swap1\n      tag_33\n      jump\t// in\n    tag_86:\n      mload(0x40)\n      dup1\n      swap2\n      sub\n      swap1\n      return\n        /* \"@openzeppelin/contracts/token/ERC20/ERC20.sol\":3315:3493  function transfer(address to, uint256 value) public virtual returns (bool) {... */\n    tag_17:\n      tag_87\n      0x04\n      dup1\n      calldatasize\n      sub\n      dup2\n      add\n      swap1\n      tag_88\n      swap2\n      swap1\n      tag_30\n      jump\t// in\n    tag_88:\n      tag_89\n      jump\t// in\n    tag_87:\n      mload(0x40)\n      tag_90\n      swap2\n      swap1\n      tag_33\n      jump\t// in\n    tag_90:\n      mload(0x40)\n      dup1\n      swap2\n      sub\n      swap1\n      return\n        /* \"COAT/test/token.sol\":771:844  function reset() public  returns(bool) {... */\n    tag_18:\n      tag_91\n      tag_92\n      jump\t// in\n    tag_91:\n      mload(0x40)\n      tag_93\n      swap2\n      swap1\n      tag_33\n      jump\t// in\n    tag_93:\n      mload(0x40)\n      dup1\n      swap2\n      sub\n      swap1\n      return\n        /* \"COAT/tokens/airdrop.sol\":17951:18107  function getEligibility(address _address) public view returns(bool) {... */\n    tag_19:\n      tag_94\n      0x04\n      dup1\n      calldatasize\n      sub\n      dup2\n      add\n      swap1\n      tag_95\n      swap2\n      swap1\n      tag_67\n      jump\t// in\n    tag_95:\n      tag_96\n      jump\t// in\n    tag_94:\n      mload(0x40)\n      tag_97\n      swap2\n      swap1\n      tag_33\n      jump\t// in\n    tag_97:\n      mload(0x40)\n      dup1\n      swap2\n      sub\n      swap1\n      return\n        /* \"@openzeppelin/contracts/token/ERC20/ERC20.sol\":3551:3691  function allowance(address owner, address spender) public view virtual returns (uint256) {... */\n    tag_20:\n      tag_98\n      0x04\n      dup1\n      calldatasize\n      sub\n      dup2\n      add\n      swap1\n      tag_99\n      swap2\n      swap1\n      tag_100\n      jump\t// in\n    tag_99:\n      tag_101\n      jump\t// in\n    tag_98:\n      mload(0x40)\n      tag_102\n      swap2\n      swap1\n      tag_47\n      jump\t// in\n    tag_102:\n      mload(0x40)\n      dup1\n      swap2\n      sub\n      swap1\n      return\n        /* \"@openzeppelin/contracts/token/ERC20/ERC20.sol\":1779:1868  function name() public view virtual returns (string memory) {... */\n    tag_25:\n        /* \"@openzeppelin/contracts/token/ERC20/ERC20.sol\":1824:1837  string memory */\n      0x60\n        /* \"@openzeppelin/contracts/token/ERC20/ERC20.sol\":1856:1861  _name */\n      0x03\n        /* \"@openzeppelin/contracts/token/ERC20/ERC20.sol\":1849:1861  return _name */\n      dup1\n      sload\n      tag_104\n      swap1\n      tag_105\n      jump\t// in\n    tag_104:\n      dup1\n      0x1f\n      add\n      0x20\n      dup1\n      swap2\n      div\n      mul\n      0x20\n      add\n      mload(0x40)\n      swap1\n      dup2\n      add\n      0x40\n      mstore\n      dup1\n      swap3\n      swap2\n      swap1\n      dup2\n      dup2\n      mstore\n      0x20\n      add\n      dup3\n      dup1\n      sload\n      tag_106\n      swap1\n      tag_105\n      jump\t// in\n    tag_106:\n      dup1\n      iszero\n      tag_107\n      jumpi\n      dup1\n      0x1f\n      lt\n      tag_108\n      jumpi\n      0x0100\n      dup1\n      dup4\n      sload\n      div\n      mul\n      dup4\n      mstore\n      swap2\n      0x20\n      add\n      swap2\n      jump(tag_107)\n    tag_108:\n      dup3\n      add\n      swap2\n      swap1\n      0x00\n      mstore\n      keccak256(0x00, 0x20)\n      swap1\n    tag_109:\n      dup2\n      sload\n      dup2\n      mstore\n      swap1\n      0x01\n      add\n      swap1\n      0x20\n      add\n      dup1\n      dup4\n      gt\n      tag_109\n      jumpi\n      dup3\n      swap1\n      sub\n      0x1f\n      and\n      dup3\n      add\n      swap2\n    tag_107:\n      pop\n      pop\n      pop\n      pop\n      pop\n      swap1\n      pop\n        /* \"@openzeppelin/contracts/token/ERC20/ERC20.sol\":1779:1868  function name() public view virtual returns (string memory) {... */\n      swap1\n      jump\t// out\n        /* \"@openzeppelin/contracts/token/ERC20/ERC20.sol\":3998:4184  function approve(address spender, uint256 value) public virtual returns (bool) {... */\n    tag_31:\n        /* \"@openzeppelin/contracts/token/ERC20/ERC20.sol\":4071:4075  bool */\n      0x00\n        /* \"@openzeppelin/contracts/token/ERC20/ERC20.sol\":4087:4100  address owner */\n      dup1\n        /* \"@openzeppelin/contracts/token/ERC20/ERC20.sol\":4103:4115  _msgSender() */\n      tag_111\n        /* \"@openzeppelin/contracts/token/ERC20/ERC20.sol\":4103:4113  _msgSender */\n      tag_112\n        /* \"@openzeppelin/contracts/token/ERC20/ERC20.sol\":4103:4115  _msgSender() */\n      jump\t// in\n    tag_111:\n        /* \"@openzeppelin/contracts/token/ERC20/ERC20.sol\":4087:4115  address owner = _msgSender() */\n      swap1\n      pop\n        /* \"@openzeppelin/contracts/token/ERC20/ERC20.sol\":4125:4156  _approve(owner, spender, value) */\n      tag_113\n        /* \"@openzeppelin/contracts/token/ERC20/ERC20.sol\":4134:4139  owner */\n      dup2\n        /* \"@openzeppelin/contracts/token/ERC20/ERC20.sol\":4141:4148  spender */\n      dup6\n        /* \"@openzeppelin/contracts/token/ERC20/ERC20.sol\":4150:4155  value */\n      dup6\n        /* \"@openzeppelin/contracts/token/ERC20/ERC20.sol\":4125:4133  _approve */\n      tag_114\n        /* \"@openzeppelin/contracts/token/ERC20/ERC20.sol\":4125:4156  _approve(owner, spender, value) */\n      jump\t// in\n    tag_113:\n        /* \"@openzeppelin/contracts/token/ERC20/ERC20.sol\":4173:4177  true */\n      0x01\n        /* \"@openzeppelin/contracts/token/ERC20/ERC20.sol\":4166:4177  return true */\n      swap2\n      pop\n      pop\n        /* \"@openzeppelin/contracts/token/ERC20/ERC20.sol\":3998:4184  function approve(address spender, uint256 value) public virtual returns (bool) {... */\n      swap3\n      swap2\n      pop\n      pop\n      jump\t// out\n        /* \"COAT/tokens/airdrop.sol\":19475:19577  function getWhiteList() public view returns(address[] memory) {... */\n    tag_35:\n        /* \"COAT/tokens/airdrop.sol\":19519:19535  address[] memory */\n      0x60\n        /* \"COAT/tokens/airdrop.sol\":19555:19565  _whiteList */\n      0x06\n        /* \"COAT/tokens/airdrop.sol\":19548:19565  return _whiteList */\n      dup1\n      sload\n      dup1\n      0x20\n      mul\n      0x20\n      add\n      mload(0x40)\n      swap1\n      dup2\n      add\n      0x40\n      mstore\n      dup1\n      swap3\n      swap2\n      swap1\n      dup2\n      dup2\n      mstore\n      0x20\n      add\n      dup3\n      dup1\n      sload\n      dup1\n      iszero\n      tag_116\n      jumpi\n      0x20\n      mul\n      dup3\n      add\n      swap2\n      swap1\n      0x00\n      mstore\n      keccak256(0x00, 0x20)\n      swap1\n    tag_117:\n      dup2\n      0x00\n      swap1\n      sload\n      swap1\n      0x0100\n      exp\n      swap1\n      div\n      0xffffffffffffffffffffffffffffffffffffffff\n      and\n      0xffffffffffffffffffffffffffffffffffffffff\n      and\n      dup2\n      mstore\n      0x20\n      add\n      swap1\n      0x01\n      add\n      swap1\n      dup1\n      dup4\n      gt\n      tag_117\n      jumpi\n    tag_116:\n      pop\n      pop\n      pop\n      pop\n      pop\n      swap1\n      pop\n        /* \"COAT/tokens/airdrop.sol\":19475:19577  function getWhiteList() public view returns(address[] memory) {... */\n      swap1\n      jump\t// out\n        /* \"COAT/tokens/airdrop.sol\":20365:20762  function onERC721Received(address operator, address from, uint256 tokenId, bytes memory data) public returns (bytes4) {... */\n    tag_41:\n        /* \"COAT/tokens/airdrop.sol\":20475:20481  bytes4 */\n      0x00\n        /* \"COAT/tokens/airdrop.sol\":20550:20595  receivedTokens(operator, from, tokenId, data) */\n      0x541cb930dbb178d9d0a40b098c309dda5a70e722066990941158d1f77b5bfcf3\n        /* \"COAT/tokens/airdrop.sol\":20565:20573  operator */\n      dup6\n        /* \"COAT/tokens/airdrop.sol\":20575:20579  from */\n      dup6\n        /* \"COAT/tokens/airdrop.sol\":20581:20588  tokenId */\n      dup6\n        /* \"COAT/tokens/airdrop.sol\":20590:20594  data */\n      dup6\n        /* \"COAT/tokens/airdrop.sol\":20550:20595  receivedTokens(operator, from, tokenId, data) */\n      mload(0x40)\n      tag_119\n      swap5\n      swap4\n      swap3\n      swap2\n      swap1\n      tag_120\n      jump\t// in\n    tag_119:\n      mload(0x40)\n      dup1\n      swap2\n      sub\n      swap1\n      log1\n        /* \"COAT/tokens/airdrop.sol\":20713:20754  IERC721Receiver.onERC721Received.selector */\n      shl(0xe0, 0x150b7a02)\n        /* \"COAT/tokens/airdrop.sol\":20706:20754  return IERC721Receiver.onERC721Received.selector */\n      swap1\n      pop\n        /* \"COAT/tokens/airdrop.sol\":20365:20762  function onERC721Received(address operator, address from, uint256 tokenId, bytes memory data) public returns (bytes4) {... */\n      swap5\n      swap4\n      pop\n      pop\n      pop\n      pop\n      jump\t// out\n        /* \"@openzeppelin/contracts/token/ERC20/ERC20.sol\":2849:2946  function totalSupply() public view virtual returns (uint256) {... */\n    tag_45:\n        /* \"@openzeppelin/contracts/token/ERC20/ERC20.sol\":2901:2908  uint256 */\n      0x00\n        /* \"@openzeppelin/contracts/token/ERC20/ERC20.sol\":2927:2939  _totalSupply */\n      sload(0x02)\n        /* \"@openzeppelin/contracts/token/ERC20/ERC20.sol\":2920:2939  return _totalSupply */\n      swap1\n      pop\n        /* \"@openzeppelin/contracts/token/ERC20/ERC20.sol\":2849:2946  function totalSupply() public view virtual returns (uint256) {... */\n      swap1\n      jump\t// out\n        /* \"@openzeppelin/contracts/token/ERC20/ERC20.sol\":4776:5020  function transferFrom(address from, address to, uint256 value) public virtual returns (bool) {... */\n    tag_51:\n        /* \"@openzeppelin/contracts/token/ERC20/ERC20.sol\":4863:4867  bool */\n      0x00\n        /* \"@openzeppelin/contracts/token/ERC20/ERC20.sol\":4879:4894  address spender */\n      dup1\n        /* \"@openzeppelin/contracts/token/ERC20/ERC20.sol\":4897:4909  _msgSender() */\n      tag_123\n        /* \"@openzeppelin/contracts/token/ERC20/ERC20.sol\":4897:4907  _msgSender */\n      tag_112\n        /* \"@openzeppelin/contracts/token/ERC20/ERC20.sol\":4897:4909  _msgSender() */\n      jump\t// in\n    tag_123:\n        /* \"@openzeppelin/contracts/token/ERC20/ERC20.sol\":4879:4909  address spender = _msgSender() */\n      swap1\n      pop\n        /* \"@openzeppelin/contracts/token/ERC20/ERC20.sol\":4919:4956  _spendAllowance(from, spender, value) */\n      tag_124\n        /* \"@openzeppelin/contracts/token/ERC20/ERC20.sol\":4935:4939  from */\n      dup6\n        /* \"@openzeppelin/contracts/token/ERC20/ERC20.sol\":4941:4948  spender */\n      dup3\n        /* \"@openzeppelin/contracts/token/ERC20/ERC20.sol\":4950:4955  value */\n      dup6\n        /* \"@openzeppelin/contracts/token/ERC20/ERC20.sol\":4919:4934  _spendAllowance */\n      tag_125\n        /* \"@openzeppelin/contracts/token/ERC20/ERC20.sol\":4919:4956  _spendAllowance(from, spender, value) */\n      jump\t// in\n    tag_124:\n        /* \"@openzeppelin/contracts/token/ERC20/ERC20.sol\":4966:4992  _transfer(from, to, value) */\n      tag_126\n        /* \"@openzeppelin/contracts/token/ERC20/ERC20.sol\":4976:4980  from */\n      dup6\n        /* \"@openzeppelin/contracts/token/ERC20/ERC20.sol\":4982:4984  to */\n      dup6\n        /* \"@openzeppelin/contracts/token/ERC20/ERC20.sol\":4986:4991  value */\n      dup6\n        /* \"@openzeppelin/contracts/token/ERC20/ERC20.sol\":4966:4975  _transfer */\n      tag_127\n        /* \"@openzeppelin/contracts/token/ERC20/ERC20.sol\":4966:4992  _transfer(from, to, value) */\n      jump\t// in\n    tag_126:\n        /* \"@openzeppelin/contracts/token/ERC20/ERC20.sol\":5009:5013  true */\n      0x01\n        /* \"@openzeppelin/contracts/token/ERC20/ERC20.sol\":5002:5013  return true */\n      swap2\n      pop\n      pop\n        /* \"@openzeppelin/contracts/token/ERC20/ERC20.sol\":4776:5020  function transferFrom(address from, address to, uint256 value) public virtual returns (bool) {... */\n      swap4\n      swap3\n      pop\n      pop\n      pop\n      jump\t// out\n        /* \"@openzeppelin/contracts/token/ERC20/ERC20.sol\":2707:2789  function decimals() public view virtual returns (uint8) {... */\n    tag_54:\n        /* \"@openzeppelin/contracts/token/ERC20/ERC20.sol\":2756:2761  uint8 */\n      0x00\n        /* \"@openzeppelin/contracts/token/ERC20/ERC20.sol\":2780:2782  18 */\n      0x12\n        /* \"@openzeppelin/contracts/token/ERC20/ERC20.sol\":2773:2782  return 18 */\n      swap1\n      pop\n        /* \"@openzeppelin/contracts/token/ERC20/ERC20.sol\":2707:2789  function decimals() public view virtual returns (uint8) {... */\n      swap1\n      jump\t// out\n        /* \"COAT/test/token.sol\":642:765  function whiteListAddress(address[] calldata _address) public  returns(bool) {... */\n    tag_60:\n        /* \"COAT/test/token.sol\":713:717  bool */\n      0x00\n        /* \"COAT/test/token.sol\":730:757  _whiteListAddress(_address) */\n      tag_130\n        /* \"COAT/test/token.sol\":748:756  _address */\n      dup4\n      dup4\n        /* \"COAT/test/token.sol\":730:747  _whiteListAddress */\n      tag_131\n        /* \"COAT/test/token.sol\":730:757  _whiteListAddress(_address) */\n      jump\t// in\n    tag_130:\n      pop\n        /* \"COAT/test/token.sol\":642:765  function whiteListAddress(address[] calldata _address) public  returns(bool) {... */\n      swap3\n      swap2\n      pop\n      pop\n      jump\t// out\n        /* \"COAT/tokens/airdrop.sol\":19706:19800  function airdropVersion() public view returns(uint) {... */\n    tag_63:\n        /* \"COAT/tokens/airdrop.sol\":19752:19756  uint */\n      0x00\n        /* \"COAT/tokens/airdrop.sol\":19776:19788  airdropCount */\n      sload(0x07)\n        /* \"COAT/tokens/airdrop.sol\":19769:19788  return airdropCount */\n      swap1\n      pop\n        /* \"COAT/tokens/airdrop.sol\":19706:19800  function airdropVersion() public view returns(uint) {... */\n      swap1\n      jump\t// out\n        /* \"COAT/tokens/airdrop.sol\":19974:20089  function isWhiteListed(address _address) public view returns(bool) {... */\n    tag_68:\n        /* \"COAT/tokens/airdrop.sol\":20035:20039  bool */\n      0x00\n        /* \"COAT/tokens/airdrop.sol\":20059:20081  checkAddress(_address) */\n      tag_134\n        /* \"COAT/tokens/airdrop.sol\":20072:20080  _address */\n      dup3\n        /* \"COAT/tokens/airdrop.sol\":20059:20071  checkAddress */\n      tag_135\n        /* \"COAT/tokens/airdrop.sol\":20059:20081  checkAddress(_address) */\n      jump\t// in\n    tag_134:\n        /* \"COAT/tokens/airdrop.sol\":20052:20081  return checkAddress(_address) */\n      swap1\n      pop\n        /* \"COAT/tokens/airdrop.sol\":19974:20089  function isWhiteListed(address _address) public view returns(bool) {... */\n      swap2\n      swap1\n      pop\n      jump\t// out\n        /* \"@openzeppelin/contracts/token/ERC20/ERC20.sol\":3004:3120  function balanceOf(address account) public view virtual returns (uint256) {... */\n    tag_72:\n        /* \"@openzeppelin/contracts/token/ERC20/ERC20.sol\":3069:3076  uint256 */\n      0x00\n        /* \"@openzeppelin/contracts/token/ERC20/ERC20.sol\":3095:3104  _balances */\n      dup1\n        /* \"@openzeppelin/contracts/token/ERC20/ERC20.sol\":3095:3113  _balances[account] */\n      0x00\n        /* \"@openzeppelin/contracts/token/ERC20/ERC20.sol\":3105:3112  account */\n      dup4\n        /* \"@openzeppelin/contracts/token/ERC20/ERC20.sol\":3095:3113  _balances[account] */\n      0xffffffffffffffffffffffffffffffffffffffff\n      and\n      0xffffffffffffffffffffffffffffffffffffffff\n      and\n      dup2\n      mstore\n      0x20\n      add\n      swap1\n      dup2\n      mstore\n      0x20\n      add\n      0x00\n      keccak256\n      sload\n        /* \"@openzeppelin/contracts/token/ERC20/ERC20.sol\":3088:3113  return _balances[account] */\n      swap1\n      pop\n        /* \"@openzeppelin/contracts/token/ERC20/ERC20.sol\":3004:3120  function balanceOf(address account) public view virtual returns (uint256) {... */\n      swap2\n      swap1\n      pop\n      jump\t// out\n        /* \"@openzeppelin/contracts/token/ERC20/ERC20.sol\":1981:2074  function symbol() public view virtual returns (string memory) {... */\n    tag_75:\n        /* \"@openzeppelin/contracts/token/ERC20/ERC20.sol\":2028:2041  string memory */\n      0x60\n        /* \"@openzeppelin/contracts/token/ERC20/ERC20.sol\":2060:2067  _symbol */\n      0x04\n        /* \"@openzeppelin/contracts/token/ERC20/ERC20.sol\":2053:2067  return _symbol */\n      dup1\n      sload\n      tag_138\n      swap1\n      tag_105\n      jump\t// in\n    tag_138:\n      dup1\n      0x1f\n      add\n      0x20\n      dup1\n      swap2\n      div\n      mul\n      0x20\n      add\n      mload(0x40)\n      swap1\n      dup2\n      add\n      0x40\n      mstore\n      dup1\n      swap3\n      swap2\n      swap1\n      dup2\n      dup2\n      mstore\n      0x20\n      add\n      dup3\n      dup1\n      sload\n      tag_139\n      swap1\n      tag_105\n      jump\t// in\n    tag_139:\n      dup1\n      iszero\n      tag_140\n      jumpi\n      dup1\n      0x1f\n      lt\n      tag_141\n      jumpi\n      0x0100\n      dup1\n      dup4\n      sload\n      div\n      mul\n      dup4\n      mstore\n      swap2\n      0x20\n      add\n      swap2\n      jump(tag_140)\n    tag_141:\n      dup3\n      add\n      swap2\n      swap1\n      0x00\n      mstore\n      keccak256(0x00, 0x20)\n      swap1\n    tag_142:\n      dup2\n      sload\n      dup2\n      mstore\n      swap1\n      0x01\n      add\n      swap1\n      0x20\n      add\n      dup1\n      dup4\n      gt\n      tag_142\n      jumpi\n      dup3\n      swap1\n      sub\n      0x1f\n      and\n      dup3\n      add\n      swap2\n    tag_140:\n      pop\n      pop\n      pop\n      pop\n      pop\n      swap1\n      pop\n        /* \"@openzeppelin/contracts/token/ERC20/ERC20.sol\":1981:2074  function symbol() public view virtual returns (string memory) {... */\n      swap1\n      jump\t// out\n        /* \"COAT/test/token.sol\":414:508  function mint(uint amount) external returns(bool) {... */\n    tag_80:\n        /* \"COAT/test/token.sol\":458:462  bool */\n      0x00\n        /* \"COAT/test/token.sol\":475:500  _mint(msg.sender, amount) */\n      tag_144\n        /* \"COAT/test/token.sol\":481:491  msg.sender */\n      caller\n        /* \"COAT/test/token.sol\":493:499  amount */\n      dup4\n        /* \"COAT/test/token.sol\":475:480  _mint */\n      tag_145\n        /* \"COAT/test/token.sol\":475:500  _mint(msg.sender, amount) */\n      jump\t// in\n    tag_144:\n        /* \"COAT/test/token.sol\":414:508  function mint(uint amount) external returns(bool) {... */\n      swap2\n      swap1\n      pop\n      jump\t// out\n        /* \"COAT/test/token.sol\":516:634  function sartAirdrop(uint256[] calldata unitOfToken) public returns(bool){... */\n    tag_85:\n        /* \"COAT/test/token.sol\":584:588  bool */\n      0x00\n        /* \"COAT/test/token.sol\":600:626  _startAirdrop(unitOfToken) */\n      tag_147\n        /* \"COAT/test/token.sol\":614:625  unitOfToken */\n      dup4\n      dup4\n        /* \"COAT/test/token.sol\":600:613  _startAirdrop */\n      tag_148\n        /* \"COAT/test/token.sol\":600:626  _startAirdrop(unitOfToken) */\n      jump\t// in\n    tag_147:\n      pop\n        /* \"COAT/test/token.sol\":516:634  function sartAirdrop(uint256[] calldata unitOfToken) public returns(bool){... */\n      swap3\n      swap2\n      pop\n      pop\n      jump\t// out\n        /* \"@openzeppelin/contracts/token/ERC20/ERC20.sol\":3315:3493  function transfer(address to, uint256 value) public virtual returns (bool) {... */\n    tag_89:\n        /* \"@openzeppelin/contracts/token/ERC20/ERC20.sol\":3384:3388  bool */\n      0x00\n        /* \"@openzeppelin/contracts/token/ERC20/ERC20.sol\":3400:3413  address owner */\n      dup1\n        /* \"@openzeppelin/contracts/token/ERC20/ERC20.sol\":3416:3428  _msgSender() */\n      tag_150\n        /* \"@openzeppelin/contracts/token/ERC20/ERC20.sol\":3416:3426  _msgSender */\n      tag_112\n        /* \"@openzeppelin/contracts/token/ERC20/ERC20.sol\":3416:3428  _msgSender() */\n      jump\t// in\n    tag_150:\n        /* \"@openzeppelin/contracts/token/ERC20/ERC20.sol\":3400:3428  address owner = _msgSender() */\n      swap1\n      pop\n        /* \"@openzeppelin/contracts/token/ERC20/ERC20.sol\":3438:3465  _transfer(owner, to, value) */\n      tag_151\n        /* \"@openzeppelin/contracts/token/ERC20/ERC20.sol\":3448:3453  owner */\n      dup2\n        /* \"@openzeppelin/contracts/token/ERC20/ERC20.sol\":3455:3457  to */\n      dup6\n        /* \"@openzeppelin/contracts/token/ERC20/ERC20.sol\":3459:3464  value */\n      dup6\n        /* \"@openzeppelin/contracts/token/ERC20/ERC20.sol\":3438:3447  _transfer */\n      tag_127\n        /* \"@openzeppelin/contracts/token/ERC20/ERC20.sol\":3438:3465  _transfer(owner, to, value) */\n      jump\t// in\n    tag_151:\n        /* \"@openzeppelin/contracts/token/ERC20/ERC20.sol\":3482:3486  true */\n      0x01\n        /* \"@openzeppelin/contracts/token/ERC20/ERC20.sol\":3475:3486  return true */\n      swap2\n      pop\n      pop\n        /* \"@openzeppelin/contracts/token/ERC20/ERC20.sol\":3315:3493  function transfer(address to, uint256 value) public virtual returns (bool) {... */\n      swap3\n      swap2\n      pop\n      pop\n      jump\t// out\n        /* \"COAT/test/token.sol\":771:844  function reset() public  returns(bool) {... */\n    tag_92:\n        /* \"COAT/test/token.sol\":804:808  bool */\n      0x00\n        /* \"COAT/test/token.sol\":821:836  _resetAirdrop() */\n      tag_153\n        /* \"COAT/test/token.sol\":821:834  _resetAirdrop */\n      tag_154\n        /* \"COAT/test/token.sol\":821:836  _resetAirdrop() */\n      jump\t// in\n    tag_153:\n      pop\n        /* \"COAT/test/token.sol\":771:844  function reset() public  returns(bool) {... */\n      swap1\n      jump\t// out\n        /* \"COAT/tokens/airdrop.sol\":17951:18107  function getEligibility(address _address) public view returns(bool) {... */\n    tag_96:\n        /* \"COAT/tokens/airdrop.sol\":18013:18017  bool */\n      0x00\n        /* \"COAT/tokens/airdrop.sol\":18038:18049  _hasClaimed */\n      0x05\n        /* \"COAT/tokens/airdrop.sol\":18038:18063  _hasClaimed[airdropCount] */\n      0x00\n        /* \"COAT/tokens/airdrop.sol\":18050:18062  airdropCount */\n      sload(0x07)\n        /* \"COAT/tokens/airdrop.sol\":18038:18063  _hasClaimed[airdropCount] */\n      dup2\n      mstore\n      0x20\n      add\n      swap1\n      dup2\n      mstore\n      0x20\n      add\n      0x00\n      keccak256\n        /* \"COAT/tokens/airdrop.sol\":18038:18073  _hasClaimed[airdropCount][_address] */\n      0x00\n        /* \"COAT/tokens/airdrop.sol\":18064:18072  _address */\n      dup4\n        /* \"COAT/tokens/airdrop.sol\":18038:18073  _hasClaimed[airdropCount][_address] */\n      0xffffffffffffffffffffffffffffffffffffffff\n      and\n      0xffffffffffffffffffffffffffffffffffffffff\n      and\n      dup2\n      mstore\n      0x20\n      add\n      swap1\n      dup2\n      mstore\n      0x20\n      add\n      0x00\n      keccak256\n      0x00\n      swap1\n      sload\n      swap1\n      0x0100\n      exp\n      swap1\n      div\n      0xff\n      and\n        /* \"COAT/tokens/airdrop.sol\":18037:18073  !_hasClaimed[airdropCount][_address] */\n      iszero\n        /* \"COAT/tokens/airdrop.sol\":18037:18099  !_hasClaimed[airdropCount][_address] && checkAddress(_address) */\n      dup1\n      iszero\n      tag_156\n      jumpi\n      pop\n        /* \"COAT/tokens/airdrop.sol\":18077:18099  checkAddress(_address) */\n      tag_157\n        /* \"COAT/tokens/airdrop.sol\":18090:18098  _address */\n      dup3\n        /* \"COAT/tokens/airdrop.sol\":18077:18089  checkAddress */\n      tag_135\n        /* \"COAT/tokens/airdrop.sol\":18077:18099  checkAddress(_address) */\n      jump\t// in\n    tag_157:\n        /* \"COAT/tokens/airdrop.sol\":18037:18099  !_hasClaimed[airdropCount][_address] && checkAddress(_address) */\n    tag_156:\n        /* \"COAT/tokens/airdrop.sol\":18030:18099  return !_hasClaimed[airdropCount][_address] && checkAddress(_address) */\n      swap1\n      pop\n        /* \"COAT/tokens/airdrop.sol\":17951:18107  function getEligibility(address _address) public view returns(bool) {... */\n      swap2\n      swap1\n      pop\n      jump\t// out\n        /* \"@openzeppelin/contracts/token/ERC20/ERC20.sol\":3551:3691  function allowance(address owner, address spender) public view virtual returns (uint256) {... */\n    tag_101:\n        /* \"@openzeppelin/contracts/token/ERC20/ERC20.sol\":3631:3638  uint256 */\n      0x00\n        /* \"@openzeppelin/contracts/token/ERC20/ERC20.sol\":3657:3668  _allowances */\n      0x01\n        /* \"@openzeppelin/contracts/token/ERC20/ERC20.sol\":3657:3675  _allowances[owner] */\n      0x00\n        /* \"@openzeppelin/contracts/token/ERC20/ERC20.sol\":3669:3674  owner */\n      dup5\n        /* \"@openzeppelin/contracts/token/ERC20/ERC20.sol\":3657:3675  _allowances[owner] */\n      0xffffffffffffffffffffffffffffffffffffffff\n      and\n      0xffffffffffffffffffffffffffffffffffffffff\n      and\n      dup2\n      mstore\n      0x20\n      add\n      swap1\n      dup2\n      mstore\n      0x20\n      add\n      0x00\n      keccak256\n        /* \"@openzeppelin/contracts/token/ERC20/ERC20.sol\":3657:3684  _allowances[owner][spender] */\n      0x00\n        /* \"@openzeppelin/contracts/token/ERC20/ERC20.sol\":3676:3683  spender */\n      dup4\n        /* \"@openzeppelin/contracts/token/ERC20/ERC20.sol\":3657:3684  _allowances[owner][spender] */\n      0xffffffffffffffffffffffffffffffffffffffff\n      and\n      0xffffffffffffffffffffffffffffffffffffffff\n      and\n      dup2\n      mstore\n      0x20\n      add\n      swap1\n      dup2\n      mstore\n      0x20\n      add\n      0x00\n      keccak256\n      sload\n        /* \"@openzeppelin/contracts/token/ERC20/ERC20.sol\":3650:3684  return _allowances[owner][spender] */\n      swap1\n      pop\n        /* \"@openzeppelin/contracts/token/ERC20/ERC20.sol\":3551:3691  function allowance(address owner, address spender) public view virtual returns (uint256) {... */\n      swap3\n      swap2\n      pop\n      pop\n      jump\t// out\n        /* \"@openzeppelin/contracts/utils/Context.sol\":656:752  function _msgSender() internal view virtual returns (address) {... */\n    tag_112:\n        /* \"@openzeppelin/contracts/utils/Context.sol\":709:716  address */\n      0x00\n        /* \"@openzeppelin/contracts/utils/Context.sol\":735:745  msg.sender */\n      caller\n        /* \"@openzeppelin/contracts/utils/Context.sol\":728:745  return msg.sender */\n      swap1\n      pop\n        /* \"@openzeppelin/contracts/utils/Context.sol\":656:752  function _msgSender() internal view virtual returns (address) {... */\n      swap1\n      jump\t// out\n        /* \"@openzeppelin/contracts/token/ERC20/ERC20.sol\":8726:8854  function _approve(address owner, address spender, uint256 value) internal {... */\n    tag_114:\n        /* \"@openzeppelin/contracts/token/ERC20/ERC20.sol\":8810:8847  _approve(owner, spender, value, true) */\n      tag_161\n        /* \"@openzeppelin/contracts/token/ERC20/ERC20.sol\":8819:8824  owner */\n      dup4\n        /* \"@openzeppelin/contracts/token/ERC20/ERC20.sol\":8826:8833  spender */\n      dup4\n        /* \"@openzeppelin/contracts/token/ERC20/ERC20.sol\":8835:8840  value */\n      dup4\n        /* \"@openzeppelin/contracts/token/ERC20/ERC20.sol\":8842:8846  true */\n      0x01\n        /* \"@openzeppelin/contracts/token/ERC20/ERC20.sol\":8810:8818  _approve */\n      tag_162\n        /* \"@openzeppelin/contracts/token/ERC20/ERC20.sol\":8810:8847  _approve(owner, spender, value, true) */\n      jump\t// in\n    tag_161:\n        /* \"@openzeppelin/contracts/token/ERC20/ERC20.sol\":8726:8854  function _approve(address owner, address spender, uint256 value) internal {... */\n      pop\n      pop\n      pop\n      jump\t// out\n        /* \"@openzeppelin/contracts/token/ERC20/ERC20.sol\":10415:10891  function _spendAllowance(address owner, address spender, uint256 value) internal virtual {... */\n    tag_125:\n        /* \"@openzeppelin/contracts/token/ERC20/ERC20.sol\":10514:10538  uint256 currentAllowance */\n      0x00\n        /* \"@openzeppelin/contracts/token/ERC20/ERC20.sol\":10541:10566  allowance(owner, spender) */\n      tag_164\n        /* \"@openzeppelin/contracts/token/ERC20/ERC20.sol\":10551:10556  owner */\n      dup5\n        /* \"@openzeppelin/contracts/token/ERC20/ERC20.sol\":10558:10565  spender */\n      dup5\n        /* \"@openzeppelin/contracts/token/ERC20/ERC20.sol\":10541:10550  allowance */\n      tag_101\n        /* \"@openzeppelin/contracts/token/ERC20/ERC20.sol\":10541:10566  allowance(owner, spender) */\n      jump\t// in\n    tag_164:\n        /* \"@openzeppelin/contracts/token/ERC20/ERC20.sol\":10514:10566  uint256 currentAllowance = allowance(owner, spender) */\n      swap1\n      pop\n        /* \"@openzeppelin/contracts/token/ERC20/ERC20.sol\":10599:10616  type(uint256).max */\n      0xffffffffffffffffffffffffffffffffffffffffffffffffffffffffffffffff\n        /* \"@openzeppelin/contracts/token/ERC20/ERC20.sol\":10580:10596  currentAllowance */\n      dup2\n        /* \"@openzeppelin/contracts/token/ERC20/ERC20.sol\":10580:10616  currentAllowance < type(uint256).max */\n      lt\n        /* \"@openzeppelin/contracts/token/ERC20/ERC20.sol\":10576:10885  if (currentAllowance < type(uint256).max) {... */\n      iszero\n      tag_165\n      jumpi\n        /* \"@openzeppelin/contracts/token/ERC20/ERC20.sol\":10655:10660  value */\n      dup2\n        /* \"@openzeppelin/contracts/token/ERC20/ERC20.sol\":10636:10652  currentAllowance */\n      dup2\n        /* \"@openzeppelin/contracts/token/ERC20/ERC20.sol\":10636:10660  currentAllowance < value */\n      lt\n        /* \"@openzeppelin/contracts/token/ERC20/ERC20.sol\":10632:10762  if (currentAllowance < value) {... */\n      iszero\n      tag_166\n      jumpi\n        /* \"@openzeppelin/contracts/token/ERC20/ERC20.sol\":10714:10721  spender */\n      dup3\n        /* \"@openzeppelin/contracts/token/ERC20/ERC20.sol\":10723:10739  currentAllowance */\n      dup2\n        /* \"@openzeppelin/contracts/token/ERC20/ERC20.sol\":10741:10746  value */\n      dup4\n        /* \"@openzeppelin/contracts/token/ERC20/ERC20.sol\":10687:10747  ERC20InsufficientAllowance(spender, currentAllowance, value) */\n      mload(0x40)\n      0xfb8f41b200000000000000000000000000000000000000000000000000000000\n      dup2\n      mstore\n      0x04\n      add\n      tag_167\n      swap4\n      swap3\n      swap2\n      swap1\n      tag_168\n      jump\t// in\n    tag_167:\n      mload(0x40)\n      dup1\n      swap2\n      sub\n      swap1\n      revert\n        /* \"@openzeppelin/contracts/token/ERC20/ERC20.sol\":10632:10762  if (currentAllowance < value) {... */\n    tag_166:\n        /* \"@openzeppelin/contracts/token/ERC20/ERC20.sol\":10803:10860  _approve(owner, spender, currentAllowance - value, false) */\n      tag_169\n        /* \"@openzeppelin/contracts/token/ERC20/ERC20.sol\":10812:10817  owner */\n      dup5\n        /* \"@openzeppelin/contracts/token/ERC20/ERC20.sol\":10819:10826  spender */\n      dup5\n        /* \"@openzeppelin/contracts/token/ERC20/ERC20.sol\":10847:10852  value */\n      dup5\n        /* \"@openzeppelin/contracts/token/ERC20/ERC20.sol\":10828:10844  currentAllowance */\n      dup5\n        /* \"@openzeppelin/contracts/token/ERC20/ERC20.sol\":10828:10852  currentAllowance - value */\n      sub\n        /* \"@openzeppelin/contracts/token/ERC20/ERC20.sol\":10854:10859  false */\n      0x00\n        /* \"@openzeppelin/contracts/token/ERC20/ERC20.sol\":10803:10811  _approve */\n      tag_162\n        /* \"@openzeppelin/contracts/token/ERC20/ERC20.sol\":10803:10860  _approve(owner, spender, currentAllowance - value, false) */\n      jump\t// in\n    tag_169:\n        /* \"@openzeppelin/contracts/token/ERC20/ERC20.sol\":10576:10885  if (currentAllowance < type(uint256).max) {... */\n    tag_165:\n        /* \"@openzeppelin/contracts/token/ERC20/ERC20.sol\":10504:10891  {... */\n      pop\n        /* \"@openzeppelin/contracts/token/ERC20/ERC20.sol\":10415:10891  function _spendAllowance(address owner, address spender, uint256 value) internal virtual {... */\n      pop\n      pop\n      pop\n      jump\t// out\n        /* \"@openzeppelin/contracts/token/ERC20/ERC20.sol\":5393:5693  function _transfer(address from, address to, uint256 value) internal {... */\n    tag_127:\n        /* \"@openzeppelin/contracts/token/ERC20/ERC20.sol\":5492:5493  0 */\n      0x00\n        /* \"@openzeppelin/contracts/token/ERC20/ERC20.sol\":5476:5494  from == address(0) */\n      0xffffffffffffffffffffffffffffffffffffffff\n      and\n        /* \"@openzeppelin/contracts/token/ERC20/ERC20.sol\":5476:5480  from */\n      dup4\n        /* \"@openzeppelin/contracts/token/ERC20/ERC20.sol\":5476:5494  from == address(0) */\n      0xffffffffffffffffffffffffffffffffffffffff\n      and\n      sub\n        /* \"@openzeppelin/contracts/token/ERC20/ERC20.sol\":5472:5558  if (from == address(0)) {... */\n      tag_171\n      jumpi\n        /* \"@openzeppelin/contracts/token/ERC20/ERC20.sol\":5544:5545  0 */\n      0x00\n        /* \"@openzeppelin/contracts/token/ERC20/ERC20.sol\":5517:5547  ERC20InvalidSender(address(0)) */\n      mload(0x40)\n      0x96c6fd1e00000000000000000000000000000000000000000000000000000000\n      dup2\n      mstore\n      0x04\n      add\n      tag_172\n      swap2\n      swap1\n      tag_173\n      jump\t// in\n    tag_172:\n      mload(0x40)\n      dup1\n      swap2\n      sub\n      swap1\n      revert\n        /* \"@openzeppelin/contracts/token/ERC20/ERC20.sol\":5472:5558  if (from == address(0)) {... */\n    tag_171:\n        /* \"@openzeppelin/contracts/token/ERC20/ERC20.sol\":5585:5586  0 */\n      0x00\n        /* \"@openzeppelin/contracts/token/ERC20/ERC20.sol\":5571:5587  to == address(0) */\n      0xffffffffffffffffffffffffffffffffffffffff\n      and\n        /* \"@openzeppelin/contracts/token/ERC20/ERC20.sol\":5571:5573  to */\n      dup3\n        /* \"@openzeppelin/contracts/token/ERC20/ERC20.sol\":5571:5587  to == address(0) */\n      0xffffffffffffffffffffffffffffffffffffffff\n      and\n      sub\n        /* \"@openzeppelin/contracts/token/ERC20/ERC20.sol\":5567:5653  if (to == address(0)) {... */\n      tag_174\n      jumpi\n        /* \"@openzeppelin/contracts/token/ERC20/ERC20.sol\":5639:5640  0 */\n      0x00\n        /* \"@openzeppelin/contracts/token/ERC20/ERC20.sol\":5610:5642  ERC20InvalidReceiver(address(0)) */\n      mload(0x40)\n      0xec442f0500000000000000000000000000000000000000000000000000000000\n      dup2\n      mstore\n      0x04\n      add\n      tag_175\n      swap2\n      swap1\n      tag_173\n      jump\t// in\n    tag_175:\n      mload(0x40)\n      dup1\n      swap2\n      sub\n      swap1\n      revert\n        /* \"@openzeppelin/contracts/token/ERC20/ERC20.sol\":5567:5653  if (to == address(0)) {... */\n    tag_174:\n        /* \"@openzeppelin/contracts/token/ERC20/ERC20.sol\":5662:5686  _update(from, to, value) */\n      tag_176\n        /* \"@openzeppelin/contracts/token/ERC20/ERC20.sol\":5670:5674  from */\n      dup4\n        /* \"@openzeppelin/contracts/token/ERC20/ERC20.sol\":5676:5678  to */\n      dup4\n        /* \"@openzeppelin/contracts/token/ERC20/ERC20.sol\":5680:5685  value */\n      dup4\n        /* \"@openzeppelin/contracts/token/ERC20/ERC20.sol\":5662:5669  _update */\n      tag_177\n        /* \"@openzeppelin/contracts/token/ERC20/ERC20.sol\":5662:5686  _update(from, to, value) */\n      jump\t// in\n    tag_176:\n        /* \"@openzeppelin/contracts/token/ERC20/ERC20.sol\":5393:5693  function _transfer(address from, address to, uint256 value) internal {... */\n      pop\n      pop\n      pop\n      jump\t// out\n        /* \"COAT/tokens/airdrop.sol\":18233:18746  function _whiteListAddress(address[] calldata _address) internal returns(bool) {... */\n    tag_131:\n        /* \"COAT/tokens/airdrop.sol\":18306:18310  bool */\n      0x00\n        /* \"COAT/tokens/airdrop.sol\":18328:18334  uint i */\n      dup1\n        /* \"COAT/tokens/airdrop.sol\":18337:18338  0 */\n      0x00\n        /* \"COAT/tokens/airdrop.sol\":18328:18338  uint i = 0 */\n      swap1\n      pop\n        /* \"COAT/tokens/airdrop.sol\":18323:18668  for (uint i = 0; i < _address.length; i++) {... */\n    tag_179:\n        /* \"COAT/tokens/airdrop.sol\":18344:18352  _address */\n      dup4\n      dup4\n        /* \"COAT/tokens/airdrop.sol\":18344:18359  _address.length */\n      swap1\n      pop\n        /* \"COAT/tokens/airdrop.sol\":18340:18341  i */\n      dup2\n        /* \"COAT/tokens/airdrop.sol\":18340:18359  i < _address.length */\n      lt\n        /* \"COAT/tokens/airdrop.sol\":18323:18668  for (uint i = 0; i < _address.length; i++) {... */\n      iszero\n      tag_180\n      jumpi\n        /* \"COAT/tokens/airdrop.sol\":18412:18413  0 */\n      0x00\n        /* \"COAT/tokens/airdrop.sol\":18389:18414  _address[i] != address(0) */\n      0xffffffffffffffffffffffffffffffffffffffff\n      and\n        /* \"COAT/tokens/airdrop.sol\":18389:18397  _address */\n      dup5\n      dup5\n        /* \"COAT/tokens/airdrop.sol\":18398:18399  i */\n      dup4\n        /* \"COAT/tokens/airdrop.sol\":18389:18400  _address[i] */\n      dup2\n      dup2\n      lt\n      tag_182\n      jumpi\n      tag_183\n      tag_184\n      jump\t// in\n    tag_183:\n    tag_182:\n      swap1\n      pop\n      0x20\n      mul\n      add\n      0x20\n      dup2\n      add\n      swap1\n      tag_185\n      swap2\n      swap1\n      tag_67\n      jump\t// in\n    tag_185:\n        /* \"COAT/tokens/airdrop.sol\":18389:18414  _address[i] != address(0) */\n      0xffffffffffffffffffffffffffffffffffffffff\n      and\n      sub\n        /* \"COAT/tokens/airdrop.sol\":18381:18438  require(_address[i] != address(0),\"Zero Address present\") */\n      tag_186\n      jumpi\n      mload(0x40)\n      0x08c379a000000000000000000000000000000000000000000000000000000000\n      dup2\n      mstore\n      0x04\n      add\n      tag_187\n      swap1\n      tag_188\n      jump\t// in\n    tag_187:\n      mload(0x40)\n      dup1\n      swap2\n      sub\n      swap1\n      revert\n    tag_186:\n        /* \"COAT/tokens/airdrop.sol\":18469:18470  1 */\n      0x01\n        /* \"COAT/tokens/airdrop.sol\":18456:18467  airdropType */\n      sload(0x0a)\n        /* \"COAT/tokens/airdrop.sol\":18456:18470  airdropType==1 */\n      sub\n        /* \"COAT/tokens/airdrop.sol\":18453:18537  if(airdropType==1){require(_checkReceiver(_address[i], 0), \"Faulty address found\");} */\n      tag_189\n      jumpi\n        /* \"COAT/tokens/airdrop.sol\":18480:18510  _checkReceiver(_address[i], 0) */\n      tag_190\n        /* \"COAT/tokens/airdrop.sol\":18495:18503  _address */\n      dup5\n      dup5\n        /* \"COAT/tokens/airdrop.sol\":18504:18505  i */\n      dup4\n        /* \"COAT/tokens/airdrop.sol\":18495:18506  _address[i] */\n      dup2\n      dup2\n      lt\n      tag_191\n      jumpi\n      tag_192\n      tag_184\n      jump\t// in\n    tag_192:\n    tag_191:\n      swap1\n      pop\n      0x20\n      mul\n      add\n      0x20\n      dup2\n      add\n      swap1\n      tag_193\n      swap2\n      swap1\n      tag_67\n      jump\t// in\n    tag_193:\n        /* \"COAT/tokens/airdrop.sol\":18508:18509  0 */\n      0x00\n        /* \"COAT/tokens/airdrop.sol\":18480:18494  _checkReceiver */\n      tag_194\n        /* \"COAT/tokens/airdrop.sol\":18480:18510  _checkReceiver(_address[i], 0) */\n      jump\t// in\n    tag_190:\n        /* \"COAT/tokens/airdrop.sol\":18472:18535  require(_checkReceiver(_address[i], 0), \"Faulty address found\") */\n      tag_195\n      jumpi\n      mload(0x40)\n      0x08c379a000000000000000000000000000000000000000000000000000000000\n      dup2\n      mstore\n      0x04\n      add\n      tag_196\n      swap1\n      tag_197\n      jump\t// in\n    tag_196:\n      mload(0x40)\n      dup1\n      swap2\n      sub\n      swap1\n      revert\n    tag_195:\n        /* \"COAT/tokens/airdrop.sol\":18453:18537  if(airdropType==1){require(_checkReceiver(_address[i], 0), \"Faulty address found\");} */\n    tag_189:\n        /* \"COAT/tokens/airdrop.sol\":18560:18586  isWhiteListed(_address[i]) */\n      tag_198\n        /* \"COAT/tokens/airdrop.sol\":18574:18582  _address */\n      dup5\n      dup5\n        /* \"COAT/tokens/airdrop.sol\":18583:18584  i */\n      dup4\n        /* \"COAT/tokens/airdrop.sol\":18574:18585  _address[i] */\n      dup2\n      dup2\n      lt\n      tag_199\n      jumpi\n      tag_200\n      tag_184\n      jump\t// in\n    tag_200:\n    tag_199:\n      swap1\n      pop\n      0x20\n      mul\n      add\n      0x20\n      dup2\n      add\n      swap1\n      tag_201\n      swap2\n      swap1\n      tag_67\n      jump\t// in\n    tag_201:\n        /* \"COAT/tokens/airdrop.sol\":18560:18573  isWhiteListed */\n      tag_68\n        /* \"COAT/tokens/airdrop.sol\":18560:18586  isWhiteListed(_address[i]) */\n      jump\t// in\n    tag_198:\n        /* \"COAT/tokens/airdrop.sol\":18559:18586  !isWhiteListed(_address[i]) */\n      iszero\n        /* \"COAT/tokens/airdrop.sol\":18551:18613  require(!isWhiteListed(_address[i]),\"Address allready Exists\") */\n      tag_202\n      jumpi\n      mload(0x40)\n      0x08c379a000000000000000000000000000000000000000000000000000000000\n      dup2\n      mstore\n      0x04\n      add\n      tag_203\n      swap1\n      tag_204\n      jump\t// in\n    tag_203:\n      mload(0x40)\n      dup1\n      swap2\n      sub\n      swap1\n      revert\n    tag_202:\n        /* \"COAT/tokens/airdrop.sol\":18628:18638  _whiteList */\n      0x06\n        /* \"COAT/tokens/airdrop.sol\":18644:18652  _address */\n      dup5\n      dup5\n        /* \"COAT/tokens/airdrop.sol\":18653:18654  i */\n      dup4\n        /* \"COAT/tokens/airdrop.sol\":18644:18655  _address[i] */\n      dup2\n      dup2\n      lt\n      tag_205\n      jumpi\n      tag_206\n      tag_184\n      jump\t// in\n    tag_206:\n    tag_205:\n      swap1\n      pop\n      0x20\n      mul\n      add\n      0x20\n      dup2\n      add\n      swap1\n      tag_207\n      swap2\n      swap1\n      tag_67\n      jump\t// in\n    tag_207:\n        /* \"COAT/tokens/airdrop.sol\":18628:18656  _whiteList.push(_address[i]) */\n      swap1\n      dup1\n      0x01\n      dup2\n      sload\n      add\n      dup1\n      dup3\n      sstore\n      dup1\n      swap2\n      pop\n      pop\n      0x01\n      swap1\n      sub\n      swap1\n      0x00\n      mstore\n      keccak256(0x00, 0x20)\n      add\n      0x00\n      swap1\n      swap2\n      swap1\n      swap2\n      swap1\n      swap2\n      0x0100\n      exp\n      dup2\n      sload\n      dup2\n      0xffffffffffffffffffffffffffffffffffffffff\n      mul\n      not\n      and\n      swap1\n      dup4\n      0xffffffffffffffffffffffffffffffffffffffff\n      and\n      mul\n      or\n      swap1\n      sstore\n      pop\n        /* \"COAT/tokens/airdrop.sol\":18361:18364  i++ */\n      dup1\n      dup1\n      0x01\n      add\n      swap2\n      pop\n      pop\n        /* \"COAT/tokens/airdrop.sol\":18323:18668  for (uint i = 0; i < _address.length; i++) {... */\n      jump(tag_179)\n    tag_180:\n      pop\n        /* \"COAT/tokens/airdrop.sol\":18683:18716  addressAddedToWhitelist(_address) */\n      0x8f47a973c821cca98d90b2c53821dc01e2971b8b14db8aae5776f42ea6cccc9a\n        /* \"COAT/tokens/airdrop.sol\":18707:18715  _address */\n      dup4\n      dup4\n        /* \"COAT/tokens/airdrop.sol\":18683:18716  addressAddedToWhitelist(_address) */\n      mload(0x40)\n      tag_209\n      swap3\n      swap2\n      swap1\n      tag_210\n      jump\t// in\n    tag_209:\n      mload(0x40)\n      dup1\n      swap2\n      sub\n      swap1\n      log1\n        /* \"COAT/tokens/airdrop.sol\":18734:18738  true */\n      0x01\n        /* \"COAT/tokens/airdrop.sol\":18727:18738  return true */\n      swap1\n      pop\n        /* \"COAT/tokens/airdrop.sol\":18233:18746  function _whiteListAddress(address[] calldata _address) internal returns(bool) {... */\n      swap3\n      swap2\n      pop\n      pop\n      jump\t// out\n        /* \"COAT/tokens/airdrop.sol\":20933:21218  function checkAddress(address target) internal view returns (bool) {... */\n    tag_135:\n        /* \"COAT/tokens/airdrop.sol\":20994:20998  bool */\n      0x00\n        /* \"COAT/tokens/airdrop.sol\":21011:21022  uint256 len */\n      dup1\n        /* \"COAT/tokens/airdrop.sol\":21025:21035  _whiteList */\n      0x06\n        /* \"COAT/tokens/airdrop.sol\":21025:21042  _whiteList.length */\n      dup1\n      sload\n      swap1\n      pop\n        /* \"COAT/tokens/airdrop.sol\":21011:21042  uint256 len = _whiteList.length */\n      swap1\n      pop\n        /* \"COAT/tokens/airdrop.sol\":21058:21067  uint256 i */\n      0x00\n        /* \"COAT/tokens/airdrop.sol\":21053:21188  for (uint256 i = 0; i < len; i++) {... */\n    tag_212:\n        /* \"COAT/tokens/airdrop.sol\":21077:21080  len */\n      dup2\n        /* \"COAT/tokens/airdrop.sol\":21073:21074  i */\n      dup2\n        /* \"COAT/tokens/airdrop.sol\":21073:21080  i < len */\n      lt\n        /* \"COAT/tokens/airdrop.sol\":21053:21188  for (uint256 i = 0; i < len; i++) {... */\n      iszero\n      tag_213\n      jumpi\n        /* \"COAT/tokens/airdrop.sol\":21123:21129  target */\n      dup4\n        /* \"COAT/tokens/airdrop.sol\":21106:21129  _whiteList[i] == target */\n      0xffffffffffffffffffffffffffffffffffffffff\n      and\n        /* \"COAT/tokens/airdrop.sol\":21106:21116  _whiteList */\n      0x06\n        /* \"COAT/tokens/airdrop.sol\":21117:21118  i */\n      dup3\n        /* \"COAT/tokens/airdrop.sol\":21106:21119  _whiteList[i] */\n      dup2\n      sload\n      dup2\n      lt\n      tag_215\n      jumpi\n      tag_216\n      tag_184\n      jump\t// in\n    tag_216:\n    tag_215:\n      swap1\n      0x00\n      mstore\n      keccak256(0x00, 0x20)\n      add\n      0x00\n      swap1\n      sload\n      swap1\n      0x0100\n      exp\n      swap1\n      div\n      0xffffffffffffffffffffffffffffffffffffffff\n      and\n        /* \"COAT/tokens/airdrop.sol\":21106:21129  _whiteList[i] == target */\n      0xffffffffffffffffffffffffffffffffffffffff\n      and\n      sub\n        /* \"COAT/tokens/airdrop.sol\":21102:21177  if (_whiteList[i] == target) {... */\n      tag_218\n      jumpi\n        /* \"COAT/tokens/airdrop.sol\":21157:21161  true */\n      0x01\n        /* \"COAT/tokens/airdrop.sol\":21150:21161  return true */\n      swap3\n      pop\n      pop\n      pop\n      jump(tag_211)\n        /* \"COAT/tokens/airdrop.sol\":21102:21177  if (_whiteList[i] == target) {... */\n    tag_218:\n        /* \"COAT/tokens/airdrop.sol\":21082:21085  i++ */\n      dup1\n      dup1\n      0x01\n      add\n      swap2\n      pop\n      pop\n        /* \"COAT/tokens/airdrop.sol\":21053:21188  for (uint256 i = 0; i < len; i++) {... */\n      jump(tag_212)\n    tag_213:\n      pop\n        /* \"COAT/tokens/airdrop.sol\":21205:21210  false */\n      0x00\n        /* \"COAT/tokens/airdrop.sol\":21198:21210  return false */\n      swap2\n      pop\n      pop\n        /* \"COAT/tokens/airdrop.sol\":20933:21218  function checkAddress(address target) internal view returns (bool) {... */\n    tag_211:\n      swap2\n      swap1\n      pop\n      jump\t// out\n        /* \"@openzeppelin/contracts/token/ERC20/ERC20.sol\":7458:7666  function _mint(address account, uint256 value) internal {... */\n    tag_145:\n        /* \"@openzeppelin/contracts/token/ERC20/ERC20.sol\":7547:7548  0 */\n      0x00\n        /* \"@openzeppelin/contracts/token/ERC20/ERC20.sol\":7528:7549  account == address(0) */\n      0xffffffffffffffffffffffffffffffffffffffff\n      and\n        /* \"@openzeppelin/contracts/token/ERC20/ERC20.sol\":7528:7535  account */\n      dup3\n        /* \"@openzeppelin/contracts/token/ERC20/ERC20.sol\":7528:7549  account == address(0) */\n      0xffffffffffffffffffffffffffffffffffffffff\n      and\n      sub\n        /* \"@openzeppelin/contracts/token/ERC20/ERC20.sol\":7524:7615  if (account == address(0)) {... */\n      tag_220\n      jumpi\n        /* \"@openzeppelin/contracts/token/ERC20/ERC20.sol\":7601:7602  0 */\n      0x00\n        /* \"@openzeppelin/contracts/token/ERC20/ERC20.sol\":7572:7604  ERC20InvalidReceiver(address(0)) */\n      mload(0x40)\n      0xec442f0500000000000000000000000000000000000000000000000000000000\n      dup2\n      mstore\n      0x04\n      add\n      tag_221\n      swap2\n      swap1\n      tag_173\n      jump\t// in\n    tag_221:\n      mload(0x40)\n      dup1\n      swap2\n      sub\n      swap1\n      revert\n        /* \"@openzeppelin/contracts/token/ERC20/ERC20.sol\":7524:7615  if (account == address(0)) {... */\n    tag_220:\n        /* \"@openzeppelin/contracts/token/ERC20/ERC20.sol\":7624:7659  _update(address(0), account, value) */\n      tag_222\n        /* \"@openzeppelin/contracts/token/ERC20/ERC20.sol\":7640:7641  0 */\n      0x00\n        /* \"@openzeppelin/contracts/token/ERC20/ERC20.sol\":7644:7651  account */\n      dup4\n        /* \"@openzeppelin/contracts/token/ERC20/ERC20.sol\":7653:7658  value */\n      dup4\n        /* \"@openzeppelin/contracts/token/ERC20/ERC20.sol\":7624:7631  _update */\n      tag_177\n        /* \"@openzeppelin/contracts/token/ERC20/ERC20.sol\":7624:7659  _update(address(0), account, value) */\n      jump\t// in\n    tag_222:\n        /* \"@openzeppelin/contracts/token/ERC20/ERC20.sol\":7458:7666  function _mint(address account, uint256 value) internal {... */\n      pop\n      pop\n      jump\t// out\n        /* \"COAT/tokens/airdrop.sol\":16041:17770  function _startAirdrop(uint256[] calldata unitOfToken) internal returns(bool){... */\n    tag_148:\n        /* \"COAT/tokens/airdrop.sol\":16113:16117  bool */\n      0x00\n        /* \"COAT/tokens/airdrop.sol\":16161:16162  0 */\n      dup1\n        /* \"COAT/tokens/airdrop.sol\":16137:16163  tokenAddress != address(0) */\n      0xffffffffffffffffffffffffffffffffffffffff\n      and\n        /* \"COAT/tokens/airdrop.sol\":16137:16149  tokenAddress */\n      0x08\n      0x00\n      swap1\n      sload\n      swap1\n      0x0100\n      exp\n      swap1\n      div\n      0xffffffffffffffffffffffffffffffffffffffff\n      and\n        /* \"COAT/tokens/airdrop.sol\":16137:16163  tokenAddress != address(0) */\n      0xffffffffffffffffffffffffffffffffffffffff\n      and\n      sub\n        /* \"COAT/tokens/airdrop.sol\":16129:16180  require(tokenAddress != address(0), \"Zero address\") */\n      tag_224\n      jumpi\n      mload(0x40)\n      0x08c379a000000000000000000000000000000000000000000000000000000000\n      dup2\n      mstore\n      0x04\n      add\n      tag_225\n      swap1\n      tag_226\n      jump\t// in\n    tag_225:\n      mload(0x40)\n      dup1\n      swap2\n      sub\n      swap1\n      revert\n    tag_224:\n        /* \"COAT/tokens/airdrop.sol\":16417:16418  0 */\n      0x00\n        /* \"COAT/tokens/airdrop.sol\":16397:16407  _whiteList */\n      0x06\n        /* \"COAT/tokens/airdrop.sol\":16397:16414  _whiteList.length */\n      dup1\n      sload\n      swap1\n      pop\n        /* \"COAT/tokens/airdrop.sol\":16397:16418  _whiteList.length > 0 */\n      gt\n        /* \"COAT/tokens/airdrop.sol\":16389:16445  require(_whiteList.length > 0, \"No whitelisted address\") */\n      tag_227\n      jumpi\n      mload(0x40)\n      0x08c379a000000000000000000000000000000000000000000000000000000000\n      dup2\n      mstore\n      0x04\n      add\n      tag_228\n      swap1\n      tag_229\n      jump\t// in\n    tag_228:\n      mload(0x40)\n      dup1\n      swap2\n      sub\n      swap1\n      revert\n    tag_227:\n        /* \"COAT/tokens/airdrop.sol\":16485:16496  unitOfToken */\n      dup3\n      dup3\n        /* \"COAT/tokens/airdrop.sol\":16485:16503  unitOfToken.length */\n      swap1\n      pop\n        /* \"COAT/tokens/airdrop.sol\":16464:16474  _whiteList */\n      0x06\n        /* \"COAT/tokens/airdrop.sol\":16464:16481  _whiteList.length */\n      dup1\n      sload\n      swap1\n      pop\n        /* \"COAT/tokens/airdrop.sol\":16464:16503  _whiteList.length == unitOfToken.length */\n      eq\n        /* \"COAT/tokens/airdrop.sol\":16456:16573  require(_whiteList.length == unitOfToken.length,\"Number of Tokens and number of whitelisted addresses are not equal\") */\n      tag_230\n      jumpi\n      mload(0x40)\n      0x08c379a000000000000000000000000000000000000000000000000000000000\n      dup2\n      mstore\n      0x04\n      add\n      tag_231\n      swap1\n      tag_232\n      jump\t// in\n    tag_231:\n      mload(0x40)\n      dup1\n      swap2\n      sub\n      swap1\n      revert\n    tag_230:\n        /* \"COAT/tokens/airdrop.sol\":16584:16597  IERC721 token */\n      0x00\n        /* \"COAT/tokens/airdrop.sol\":16599:16612  IERC20 _token */\n      dup1\n        /* \"COAT/tokens/airdrop.sol\":16682:16683  0 */\n      0x00\n        /* \"COAT/tokens/airdrop.sol\":16667:16678  airdropType */\n      sload(0x0a)\n        /* \"COAT/tokens/airdrop.sol\":16667:16683  airdropType == 0 */\n      sub\n        /* \"COAT/tokens/airdrop.sol\":16664:16811  if(airdropType == 0) {... */\n      tag_233\n      jumpi\n        /* \"COAT/tokens/airdrop.sol\":16716:16728  tokenAddress */\n      0x08\n      0x00\n      swap1\n      sload\n      swap1\n      0x0100\n      exp\n      swap1\n      div\n      0xffffffffffffffffffffffffffffffffffffffff\n      and\n        /* \"COAT/tokens/airdrop.sol\":16700:16729  _token = IERC20(tokenAddress) */\n      swap1\n      pop\n        /* \"COAT/tokens/airdrop.sol\":16664:16811  if(airdropType == 0) {... */\n      jump(tag_234)\n    tag_233:\n        /* \"COAT/tokens/airdrop.sol\":16786:16798  tokenAddress */\n      0x08\n      0x00\n      swap1\n      sload\n      swap1\n      0x0100\n      exp\n      swap1\n      div\n      0xffffffffffffffffffffffffffffffffffffffff\n      and\n        /* \"COAT/tokens/airdrop.sol\":16770:16799  token = IERC721(tokenAddress) */\n      swap2\n      pop\n        /* \"COAT/tokens/airdrop.sol\":16664:16811  if(airdropType == 0) {... */\n    tag_234:\n        /* \"COAT/tokens/airdrop.sol\":16826:16860  airdroped(_whiteList, unitOfToken) */\n      0xe92cfca7bdc1f76f97b0cecc8d1ddabb94d01c99d9429c0963302a2f2a92714d\n        /* \"COAT/tokens/airdrop.sol\":16836:16846  _whiteList */\n      0x06\n        /* \"COAT/tokens/airdrop.sol\":16848:16859  unitOfToken */\n      dup7\n      dup7\n        /* \"COAT/tokens/airdrop.sol\":16826:16860  airdroped(_whiteList, unitOfToken) */\n      mload(0x40)\n      tag_235\n      swap4\n      swap3\n      swap2\n      swap1\n      tag_236\n      jump\t// in\n    tag_235:\n      mload(0x40)\n      dup1\n      swap2\n      sub\n      swap1\n      log1\n        /* \"COAT/tokens/airdrop.sol\":16871:16888  address recipient */\n      0x00\n        /* \"COAT/tokens/airdrop.sol\":16904:16910  uint i */\n      dup1\n        /* \"COAT/tokens/airdrop.sol\":16913:16914  0 */\n      0x00\n        /* \"COAT/tokens/airdrop.sol\":16904:16914  uint i = 0 */\n      swap1\n      pop\n        /* \"COAT/tokens/airdrop.sol\":16899:17741  for (uint i = 0; i < _whiteList.length; i++) {... */\n    tag_237:\n        /* \"COAT/tokens/airdrop.sol\":16920:16930  _whiteList */\n      0x06\n        /* \"COAT/tokens/airdrop.sol\":16920:16937  _whiteList.length */\n      dup1\n      sload\n      swap1\n      pop\n        /* \"COAT/tokens/airdrop.sol\":16916:16917  i */\n      dup2\n        /* \"COAT/tokens/airdrop.sol\":16916:16937  i < _whiteList.length */\n      lt\n        /* \"COAT/tokens/airdrop.sol\":16899:17741  for (uint i = 0; i < _whiteList.length; i++) {... */\n      iszero\n      tag_238\n      jumpi\n        /* \"COAT/tokens/airdrop.sol\":16971:16981  _whiteList */\n      0x06\n        /* \"COAT/tokens/airdrop.sol\":16982:16983  i */\n      dup2\n        /* \"COAT/tokens/airdrop.sol\":16971:16984  _whiteList[i] */\n      dup2\n      sload\n      dup2\n      lt\n      tag_240\n      jumpi\n      tag_241\n      tag_184\n      jump\t// in\n    tag_241:\n    tag_240:\n      swap1\n      0x00\n      mstore\n      keccak256(0x00, 0x20)\n      add\n      0x00\n      swap1\n      sload\n      swap1\n      0x0100\n      exp\n      swap1\n      div\n      0xffffffffffffffffffffffffffffffffffffffff\n      and\n        /* \"COAT/tokens/airdrop.sol\":16959:16984  recipient = _whiteList[i] */\n      swap2\n      pop\n        /* \"COAT/tokens/airdrop.sol\":17068:17069  0 */\n      0x00\n        /* \"COAT/tokens/airdrop.sol\":17053:17064  airdropType */\n      sload(0x0a)\n        /* \"COAT/tokens/airdrop.sol\":17053:17069  airdropType == 0 */\n      sub\n        /* \"COAT/tokens/airdrop.sol\":17050:17255  if(airdropType == 0) {require(_token.balanceOf(fromAddress) > unitOfToken[i],\"Not enough balance\");}... */\n      tag_243\n      jumpi\n        /* \"COAT/tokens/airdrop.sol\":17112:17123  unitOfToken */\n      dup7\n      dup7\n        /* \"COAT/tokens/airdrop.sol\":17124:17125  i */\n      dup3\n        /* \"COAT/tokens/airdrop.sol\":17112:17126  unitOfToken[i] */\n      dup2\n      dup2\n      lt\n      tag_244\n      jumpi\n      tag_245\n      tag_184\n      jump\t// in\n    tag_245:\n    tag_244:\n      swap1\n      pop\n      0x20\n      mul\n      add\n      calldataload\n        /* \"COAT/tokens/airdrop.sol\":17080:17086  _token */\n      dup4\n        /* \"COAT/tokens/airdrop.sol\":17080:17096  _token.balanceOf */\n      0xffffffffffffffffffffffffffffffffffffffff\n      and\n      0x70a08231\n        /* \"COAT/tokens/airdrop.sol\":17097:17108  fromAddress */\n      0x09\n      0x00\n      swap1\n      sload\n      swap1\n      0x0100\n      exp\n      swap1\n      div\n      0xffffffffffffffffffffffffffffffffffffffff\n      and\n        /* \"COAT/tokens/airdrop.sol\":17080:17109  _token.balanceOf(fromAddress) */\n      mload(0x40)\n      dup3\n      0xffffffff\n      and\n      0xe0\n      shl\n      dup2\n      mstore\n      0x04\n      add\n      tag_246\n      swap2\n      swap1\n      tag_173\n      jump\t// in\n    tag_246:\n      0x20\n      mload(0x40)\n      dup1\n      dup4\n      sub\n      dup2\n      dup7\n      gas\n      staticcall\n      iszero\n      dup1\n      iszero\n      tag_248\n      jumpi\n      returndatasize\n      0x00\n      dup1\n      returndatacopy\n      revert(0x00, returndatasize)\n    tag_248:\n      pop\n      pop\n      pop\n      pop\n      mload(0x40)\n      returndatasize\n      not(0x1f)\n      0x1f\n      dup3\n      add\n      and\n      dup3\n      add\n      dup1\n      0x40\n      mstore\n      pop\n      dup2\n      add\n      swap1\n      tag_249\n      swap2\n      swap1\n      tag_250\n      jump\t// in\n    tag_249:\n        /* \"COAT/tokens/airdrop.sol\":17080:17126  _token.balanceOf(fromAddress) > unitOfToken[i] */\n      gt\n        /* \"COAT/tokens/airdrop.sol\":17072:17148  require(_token.balanceOf(fromAddress) > unitOfToken[i],\"Not enough balance\") */\n      tag_251\n      jumpi\n      mload(0x40)\n      0x08c379a000000000000000000000000000000000000000000000000000000000\n      dup2\n      mstore\n      0x04\n      add\n      tag_252\n      swap1\n      tag_253\n      jump\t// in\n    tag_252:\n      mload(0x40)\n      dup1\n      swap2\n      sub\n      swap1\n      revert\n    tag_251:\n        /* \"COAT/tokens/airdrop.sol\":17050:17255  if(airdropType == 0) {require(_token.balanceOf(fromAddress) > unitOfToken[i],\"Not enough balance\");}... */\n      jump(tag_254)\n    tag_243:\n        /* \"COAT/tokens/airdrop.sol\":17210:17221  fromAddress */\n      0x09\n      0x00\n      swap1\n      sload\n      swap1\n      0x0100\n      exp\n      swap1\n      div\n      0xffffffffffffffffffffffffffffffffffffffff\n      and\n        /* \"COAT/tokens/airdrop.sol\":17177:17221  token.ownerOf(unitOfToken[i]) == fromAddress */\n      0xffffffffffffffffffffffffffffffffffffffff\n      and\n        /* \"COAT/tokens/airdrop.sol\":17177:17182  token */\n      dup5\n        /* \"COAT/tokens/airdrop.sol\":17177:17190  token.ownerOf */\n      0xffffffffffffffffffffffffffffffffffffffff\n      and\n      0x6352211e\n        /* \"COAT/tokens/airdrop.sol\":17191:17202  unitOfToken */\n      dup10\n      dup10\n        /* \"COAT/tokens/airdrop.sol\":17203:17204  i */\n      dup6\n        /* \"COAT/tokens/airdrop.sol\":17191:17205  unitOfToken[i] */\n      dup2\n      dup2\n      lt\n      tag_255\n      jumpi\n      tag_256\n      tag_184\n      jump\t// in\n    tag_256:\n    tag_255:\n      swap1\n      pop\n      0x20\n      mul\n      add\n      calldataload\n        /* \"COAT/tokens/airdrop.sol\":17177:17206  token.ownerOf(unitOfToken[i]) */\n      mload(0x40)\n      dup3\n      0xffffffff\n      and\n      0xe0\n      shl\n      dup2\n      mstore\n      0x04\n      add\n      tag_257\n      swap2\n      swap1\n      tag_47\n      jump\t// in\n    tag_257:\n      0x20\n      mload(0x40)\n      dup1\n      dup4\n      sub\n      dup2\n      dup7\n      gas\n      staticcall\n      iszero\n      dup1\n      iszero\n      tag_259\n      jumpi\n      returndatasize\n      0x00\n      dup1\n      returndatacopy\n      revert(0x00, returndatasize)\n    tag_259:\n      pop\n      pop\n      pop\n      pop\n      mload(0x40)\n      returndatasize\n      not(0x1f)\n      0x1f\n      dup3\n      add\n      and\n      dup3\n      add\n      dup1\n      0x40\n      mstore\n      pop\n      dup2\n      add\n      swap1\n      tag_260\n      swap2\n      swap1\n      tag_261\n      jump\t// in\n    tag_260:\n        /* \"COAT/tokens/airdrop.sol\":17177:17221  token.ownerOf(unitOfToken[i]) == fromAddress */\n      0xffffffffffffffffffffffffffffffffffffffff\n      and\n      eq\n        /* \"COAT/tokens/airdrop.sol\":17169:17253  require(token.ownerOf(unitOfToken[i]) == fromAddress, \"Not the owner of this NFT[]\") */\n      tag_262\n      jumpi\n      mload(0x40)\n      0x08c379a000000000000000000000000000000000000000000000000000000000\n      dup2\n      mstore\n      0x04\n      add\n      tag_263\n      swap1\n      tag_264\n      jump\t// in\n    tag_263:\n      mload(0x40)\n      dup1\n      swap2\n      sub\n      swap1\n      revert\n    tag_262:\n        /* \"COAT/tokens/airdrop.sol\":17050:17255  if(airdropType == 0) {require(_token.balanceOf(fromAddress) > unitOfToken[i],\"Not enough balance\");}... */\n    tag_254:\n        /* \"COAT/tokens/airdrop.sol\":17274:17285  _hasClaimed */\n      0x05\n        /* \"COAT/tokens/airdrop.sol\":17274:17299  _hasClaimed[airdropCount] */\n      0x00\n        /* \"COAT/tokens/airdrop.sol\":17286:17298  airdropCount */\n      sload(0x07)\n        /* \"COAT/tokens/airdrop.sol\":17274:17299  _hasClaimed[airdropCount] */\n      dup2\n      mstore\n      0x20\n      add\n      swap1\n      dup2\n      mstore\n      0x20\n      add\n      0x00\n      keccak256\n        /* \"COAT/tokens/airdrop.sol\":17274:17310  _hasClaimed[airdropCount][recipient] */\n      0x00\n        /* \"COAT/tokens/airdrop.sol\":17300:17309  recipient */\n      dup4\n        /* \"COAT/tokens/airdrop.sol\":17274:17310  _hasClaimed[airdropCount][recipient] */\n      0xffffffffffffffffffffffffffffffffffffffff\n      and\n      0xffffffffffffffffffffffffffffffffffffffff\n      and\n      dup2\n      mstore\n      0x20\n      add\n      swap1\n      dup2\n      mstore\n      0x20\n      add\n      0x00\n      keccak256\n      0x00\n      swap1\n      sload\n      swap1\n      0x0100\n      exp\n      swap1\n      div\n      0xff\n      and\n        /* \"COAT/tokens/airdrop.sol\":17269:17730  if (!_hasClaimed[airdropCount][recipient]) {... */\n      tag_265\n      jumpi\n        /* \"COAT/tokens/airdrop.sol\":17370:17374  true */\n      0x01\n        /* \"COAT/tokens/airdrop.sol\":17331:17342  _hasClaimed */\n      0x05\n        /* \"COAT/tokens/airdrop.sol\":17331:17356  _hasClaimed[airdropCount] */\n      0x00\n        /* \"COAT/tokens/airdrop.sol\":17343:17355  airdropCount */\n      sload(0x07)\n        /* \"COAT/tokens/airdrop.sol\":17331:17356  _hasClaimed[airdropCount] */\n      dup2\n      mstore\n      0x20\n      add\n      swap1\n      dup2\n      mstore\n      0x20\n      add\n      0x00\n      keccak256\n        /* \"COAT/tokens/airdrop.sol\":17331:17367  _hasClaimed[airdropCount][recipient] */\n      0x00\n        /* \"COAT/tokens/airdrop.sol\":17357:17366  recipient */\n      dup5\n        /* \"COAT/tokens/airdrop.sol\":17331:17367  _hasClaimed[airdropCount][recipient] */\n      0xffffffffffffffffffffffffffffffffffffffff\n      and\n      0xffffffffffffffffffffffffffffffffffffffff\n      and\n      dup2\n      mstore\n      0x20\n      add\n      swap1\n      dup2\n      mstore\n      0x20\n      add\n      0x00\n      keccak256\n      0x00\n        /* \"COAT/tokens/airdrop.sol\":17331:17374  _hasClaimed[airdropCount][recipient] = true */\n      0x0100\n      exp\n      dup2\n      sload\n      dup2\n      0xff\n      mul\n      not\n      and\n      swap1\n      dup4\n      iszero\n      iszero\n      mul\n      or\n      swap1\n      sstore\n      pop\n        /* \"COAT/tokens/airdrop.sol\":17431:17432  0 */\n      0x00\n        /* \"COAT/tokens/airdrop.sol\":17416:17427  airdropType */\n      sload(0x0a)\n        /* \"COAT/tokens/airdrop.sol\":17416:17432  airdropType == 0 */\n      sub\n        /* \"COAT/tokens/airdrop.sol\":17413:17531  if(airdropType == 0){emit TOKENtransfered(unitOfToken[i], \"Token\");}else{emit TOKENtransfered(unitOfToken[i], \"Nft\");} */\n      tag_266\n      jumpi\n        /* \"COAT/tokens/airdrop.sol\":17439:17479  TOKENtransfered(unitOfToken[i], \"Token\") */\n      0xccd301c3c585e9d034f1404f101f4d1b3828a9eb5a4bc60b5c2935736dffe4a9\n        /* \"COAT/tokens/airdrop.sol\":17455:17466  unitOfToken */\n      dup8\n      dup8\n        /* \"COAT/tokens/airdrop.sol\":17467:17468  i */\n      dup4\n        /* \"COAT/tokens/airdrop.sol\":17455:17469  unitOfToken[i] */\n      dup2\n      dup2\n      lt\n      tag_267\n      jumpi\n      tag_268\n      tag_184\n      jump\t// in\n    tag_268:\n    tag_267:\n      swap1\n      pop\n      0x20\n      mul\n      add\n      calldataload\n        /* \"COAT/tokens/airdrop.sol\":17439:17479  TOKENtransfered(unitOfToken[i], \"Token\") */\n      mload(0x40)\n      tag_269\n      swap2\n      swap1\n      tag_270\n      jump\t// in\n    tag_269:\n      mload(0x40)\n      dup1\n      swap2\n      sub\n      swap1\n      log1\n        /* \"COAT/tokens/airdrop.sol\":17413:17531  if(airdropType == 0){emit TOKENtransfered(unitOfToken[i], \"Token\");}else{emit TOKENtransfered(unitOfToken[i], \"Nft\");} */\n      jump(tag_271)\n    tag_266:\n        /* \"COAT/tokens/airdrop.sol\":17491:17529  TOKENtransfered(unitOfToken[i], \"Nft\") */\n      0xccd301c3c585e9d034f1404f101f4d1b3828a9eb5a4bc60b5c2935736dffe4a9\n        /* \"COAT/tokens/airdrop.sol\":17507:17518  unitOfToken */\n      dup8\n      dup8\n        /* \"COAT/tokens/airdrop.sol\":17519:17520  i */\n      dup4\n        /* \"COAT/tokens/airdrop.sol\":17507:17521  unitOfToken[i] */\n      dup2\n      dup2\n      lt\n      tag_272\n      jumpi\n      tag_273\n      tag_184\n      jump\t// in\n    tag_273:\n    tag_272:\n      swap1\n      pop\n      0x20\n      mul\n      add\n      calldataload\n        /* \"COAT/tokens/airdrop.sol\":17491:17529  TOKENtransfered(unitOfToken[i], \"Nft\") */\n      mload(0x40)\n      tag_274\n      swap2\n      swap1\n      tag_275\n      jump\t// in\n    tag_274:\n      mload(0x40)\n      dup1\n      swap2\n      sub\n      swap1\n      log1\n        /* \"COAT/tokens/airdrop.sol\":17413:17531  if(airdropType == 0){emit TOKENtransfered(unitOfToken[i], \"Token\");}else{emit TOKENtransfered(unitOfToken[i], \"Nft\");} */\n    tag_271:\n        /* \"COAT/tokens/airdrop.sol\":17567:17568  0 */\n      0x00\n        /* \"COAT/tokens/airdrop.sol\":17554:17565  airdropType */\n      sload(0x0a)\n        /* \"COAT/tokens/airdrop.sol\":17554:17568  airdropType==0 */\n      sub\n        /* \"COAT/tokens/airdrop.sol\":17551:17714  if(airdropType==0){_token.transferFrom(fromAddress, recipient, unitOfToken[i]);}... */\n      tag_276\n      jumpi\n        /* \"COAT/tokens/airdrop.sol\":17570:17576  _token */\n      dup3\n        /* \"COAT/tokens/airdrop.sol\":17570:17589  _token.transferFrom */\n      0xffffffffffffffffffffffffffffffffffffffff\n      and\n      0x23b872dd\n        /* \"COAT/tokens/airdrop.sol\":17590:17601  fromAddress */\n      0x09\n      0x00\n      swap1\n      sload\n      swap1\n      0x0100\n      exp\n      swap1\n      div\n      0xffffffffffffffffffffffffffffffffffffffff\n      and\n        /* \"COAT/tokens/airdrop.sol\":17603:17612  recipient */\n      dup5\n        /* \"COAT/tokens/airdrop.sol\":17614:17625  unitOfToken */\n      dup11\n      dup11\n        /* \"COAT/tokens/airdrop.sol\":17626:17627  i */\n      dup7\n        /* \"COAT/tokens/airdrop.sol\":17614:17628  unitOfToken[i] */\n      dup2\n      dup2\n      lt\n      tag_277\n      jumpi\n      tag_278\n      tag_184\n      jump\t// in\n    tag_278:\n    tag_277:\n      swap1\n      pop\n      0x20\n      mul\n      add\n      calldataload\n        /* \"COAT/tokens/airdrop.sol\":17570:17629  _token.transferFrom(fromAddress, recipient, unitOfToken[i]) */\n      mload(0x40)\n      dup5\n      0xffffffff\n      and\n      0xe0\n      shl\n      dup2\n      mstore\n      0x04\n      add\n      tag_279\n      swap4\n      swap3\n      swap2\n      swap1\n      tag_280\n      jump\t// in\n    tag_279:\n      0x20\n      mload(0x40)\n      dup1\n      dup4\n      sub\n      dup2\n      0x00\n      dup8\n      gas\n      call\n      iszero\n      dup1\n      iszero\n      tag_282\n      jumpi\n      returndatasize\n      0x00\n      dup1\n      returndatacopy\n      revert(0x00, returndatasize)\n    tag_282:\n      pop\n      pop\n      pop\n      pop\n      mload(0x40)\n      returndatasize\n      not(0x1f)\n      0x1f\n      dup3\n      add\n      and\n      dup3\n      add\n      dup1\n      0x40\n      mstore\n      pop\n      dup2\n      add\n      swap1\n      tag_283\n      swap2\n      swap1\n      tag_284\n      jump\t// in\n    tag_283:\n      pop\n        /* \"COAT/tokens/airdrop.sol\":17551:17714  if(airdropType==0){_token.transferFrom(fromAddress, recipient, unitOfToken[i]);}... */\n      jump(tag_285)\n    tag_276:\n        /* \"COAT/tokens/airdrop.sol\":17654:17659  token */\n      dup4\n        /* \"COAT/tokens/airdrop.sol\":17654:17672  token.transferFrom */\n      0xffffffffffffffffffffffffffffffffffffffff\n      and\n      0x23b872dd\n        /* \"COAT/tokens/airdrop.sol\":17673:17684  fromAddress */\n      0x09\n      0x00\n      swap1\n      sload\n      swap1\n      0x0100\n      exp\n      swap1\n      div\n      0xffffffffffffffffffffffffffffffffffffffff\n      and\n        /* \"COAT/tokens/airdrop.sol\":17686:17695  recipient */\n      dup5\n        /* \"COAT/tokens/airdrop.sol\":17697:17708  unitOfToken */\n      dup11\n      dup11\n        /* \"COAT/tokens/airdrop.sol\":17709:17710  i */\n      dup7\n        /* \"COAT/tokens/airdrop.sol\":17697:17711  unitOfToken[i] */\n      dup2\n      dup2\n      lt\n      tag_286\n      jumpi\n      tag_287\n      tag_184\n      jump\t// in\n    tag_287:\n    tag_286:\n      swap1\n      pop\n      0x20\n      mul\n      add\n      calldataload\n        /* \"COAT/tokens/airdrop.sol\":17654:17712  token.transferFrom(fromAddress, recipient, unitOfToken[i]) */\n      mload(0x40)\n      dup5\n      0xffffffff\n      and\n      0xe0\n      shl\n      dup2\n      mstore\n      0x04\n      add\n      tag_288\n      swap4\n      swap3\n      swap2\n      swap1\n      tag_280\n      jump\t// in\n    tag_288:\n      0x00\n      mload(0x40)\n      dup1\n      dup4\n      sub\n      dup2\n      0x00\n      dup8\n      dup1\n      extcodesize\n      iszero\n      dup1\n      iszero\n      tag_289\n      jumpi\n      0x00\n      dup1\n      revert\n    tag_289:\n      pop\n      gas\n      call\n      iszero\n      dup1\n      iszero\n      tag_291\n      jumpi\n      returndatasize\n      0x00\n      dup1\n      returndatacopy\n      revert(0x00, returndatasize)\n    tag_291:\n      pop\n      pop\n      pop\n      pop\n        /* \"COAT/tokens/airdrop.sol\":17551:17714  if(airdropType==0){_token.transferFrom(fromAddress, recipient, unitOfToken[i]);}... */\n    tag_285:\n        /* \"COAT/tokens/airdrop.sol\":17269:17730  if (!_hasClaimed[airdropCount][recipient]) {... */\n    tag_265:\n        /* \"COAT/tokens/airdrop.sol\":16939:16942  i++ */\n      dup1\n      dup1\n      0x01\n      add\n      swap2\n      pop\n      pop\n        /* \"COAT/tokens/airdrop.sol\":16899:17741  for (uint i = 0; i < _whiteList.length; i++) {... */\n      jump(tag_237)\n    tag_238:\n      pop\n        /* \"COAT/tokens/airdrop.sol\":17758:17762  true */\n      0x01\n        /* \"COAT/tokens/airdrop.sol\":17751:17762  return true */\n      swap4\n      pop\n      pop\n      pop\n      pop\n        /* \"COAT/tokens/airdrop.sol\":16041:17770  function _startAirdrop(uint256[] calldata unitOfToken) internal returns(bool){... */\n      swap3\n      swap2\n      pop\n      pop\n      jump\t// out\n        /* \"COAT/tokens/airdrop.sol\":20166:20269  function _resetAirdrop() internal returns(bool) {... */\n    tag_154:\n        /* \"COAT/tokens/airdrop.sol\":20208:20212  bool */\n      0x00\n        /* \"COAT/tokens/airdrop.sol\":20225:20237  airdropCount */\n      0x07\n      0x00\n        /* \"COAT/tokens/airdrop.sol\":20225:20239  airdropCount++ */\n      dup2\n      sload\n      dup1\n      swap3\n      swap2\n      swap1\n      tag_293\n      swap1\n      tag_294\n      jump\t// in\n    tag_293:\n      swap2\n      swap1\n      pop\n      sstore\n      pop\n        /* \"COAT/tokens/airdrop.sol\":20257:20261  true */\n      0x01\n        /* \"COAT/tokens/airdrop.sol\":20250:20261  return true */\n      swap1\n      pop\n        /* \"COAT/tokens/airdrop.sol\":20166:20269  function _resetAirdrop() internal returns(bool) {... */\n      swap1\n      jump\t// out\n        /* \"@openzeppelin/contracts/token/ERC20/ERC20.sol\":9701:10133  function _approve(address owner, address spender, uint256 value, bool emitEvent) internal virtual {... */\n    tag_162:\n        /* \"@openzeppelin/contracts/token/ERC20/ERC20.sol\":9830:9831  0 */\n      0x00\n        /* \"@openzeppelin/contracts/token/ERC20/ERC20.sol\":9813:9832  owner == address(0) */\n      0xffffffffffffffffffffffffffffffffffffffff\n      and\n        /* \"@openzeppelin/contracts/token/ERC20/ERC20.sol\":9813:9818  owner */\n      dup5\n        /* \"@openzeppelin/contracts/token/ERC20/ERC20.sol\":9813:9832  owner == address(0) */\n      0xffffffffffffffffffffffffffffffffffffffff\n      and\n      sub\n        /* \"@openzeppelin/contracts/token/ERC20/ERC20.sol\":9809:9898  if (owner == address(0)) {... */\n      tag_296\n      jumpi\n        /* \"@openzeppelin/contracts/token/ERC20/ERC20.sol\":9884:9885  0 */\n      0x00\n        /* \"@openzeppelin/contracts/token/ERC20/ERC20.sol\":9855:9887  ERC20InvalidApprover(address(0)) */\n      mload(0x40)\n      0xe602df0500000000000000000000000000000000000000000000000000000000\n      dup2\n      mstore\n      0x04\n      add\n      tag_297\n      swap2\n      swap1\n      tag_173\n      jump\t// in\n    tag_297:\n      mload(0x40)\n      dup1\n      swap2\n      sub\n      swap1\n      revert\n        /* \"@openzeppelin/contracts/token/ERC20/ERC20.sol\":9809:9898  if (owner == address(0)) {... */\n    tag_296:\n        /* \"@openzeppelin/contracts/token/ERC20/ERC20.sol\":9930:9931  0 */\n      0x00\n        /* \"@openzeppelin/contracts/token/ERC20/ERC20.sol\":9911:9932  spender == address(0) */\n      0xffffffffffffffffffffffffffffffffffffffff\n      and\n        /* \"@openzeppelin/contracts/token/ERC20/ERC20.sol\":9911:9918  spender */\n      dup4\n        /* \"@openzeppelin/contracts/token/ERC20/ERC20.sol\":9911:9932  spender == address(0) */\n      0xffffffffffffffffffffffffffffffffffffffff\n      and\n      sub\n        /* \"@openzeppelin/contracts/token/ERC20/ERC20.sol\":9907:9997  if (spender == address(0)) {... */\n      tag_298\n      jumpi\n        /* \"@openzeppelin/contracts/token/ERC20/ERC20.sol\":9983:9984  0 */\n      0x00\n        /* \"@openzeppelin/contracts/token/ERC20/ERC20.sol\":9955:9986  ERC20InvalidSpender(address(0)) */\n      mload(0x40)\n      0x94280d6200000000000000000000000000000000000000000000000000000000\n      dup2\n      mstore\n      0x04\n      add\n      tag_299\n      swap2\n      swap1\n      tag_173\n      jump\t// in\n    tag_299:\n      mload(0x40)\n      dup1\n      swap2\n      sub\n      swap1\n      revert\n        /* \"@openzeppelin/contracts/token/ERC20/ERC20.sol\":9907:9997  if (spender == address(0)) {... */\n    tag_298:\n        /* \"@openzeppelin/contracts/token/ERC20/ERC20.sol\":10036:10041  value */\n      dup2\n        /* \"@openzeppelin/contracts/token/ERC20/ERC20.sol\":10006:10017  _allowances */\n      0x01\n        /* \"@openzeppelin/contracts/token/ERC20/ERC20.sol\":10006:10024  _allowances[owner] */\n      0x00\n        /* \"@openzeppelin/contracts/token/ERC20/ERC20.sol\":10018:10023  owner */\n      dup7\n        /* \"@openzeppelin/contracts/token/ERC20/ERC20.sol\":10006:10024  _allowances[owner] */\n      0xffffffffffffffffffffffffffffffffffffffff\n      and\n      0xffffffffffffffffffffffffffffffffffffffff\n      and\n      dup2\n      mstore\n      0x20\n      add\n      swap1\n      dup2\n      mstore\n      0x20\n      add\n      0x00\n      keccak256\n        /* \"@openzeppelin/contracts/token/ERC20/ERC20.sol\":10006:10033  _allowances[owner][spender] */\n      0x00\n        /* \"@openzeppelin/contracts/token/ERC20/ERC20.sol\":10025:10032  spender */\n      dup6\n        /* \"@openzeppelin/contracts/token/ERC20/ERC20.sol\":10006:10033  _allowances[owner][spender] */\n      0xffffffffffffffffffffffffffffffffffffffff\n      and\n      0xffffffffffffffffffffffffffffffffffffffff\n      and\n      dup2\n      mstore\n      0x20\n      add\n      swap1\n      dup2\n      mstore\n      0x20\n      add\n      0x00\n      keccak256\n        /* \"@openzeppelin/contracts/token/ERC20/ERC20.sol\":10006:10041  _allowances[owner][spender] = value */\n      dup2\n      swap1\n      sstore\n      pop\n        /* \"@openzeppelin/contracts/token/ERC20/ERC20.sol\":10055:10064  emitEvent */\n      dup1\n        /* \"@openzeppelin/contracts/token/ERC20/ERC20.sol\":10051:10127  if (emitEvent) {... */\n      iszero\n      tag_300\n      jumpi\n        /* \"@openzeppelin/contracts/token/ERC20/ERC20.sol\":10101:10108  spender */\n      dup3\n        /* \"@openzeppelin/contracts/token/ERC20/ERC20.sol\":10085:10116  Approval(owner, spender, value) */\n      0xffffffffffffffffffffffffffffffffffffffff\n      and\n        /* \"@openzeppelin/contracts/token/ERC20/ERC20.sol\":10094:10099  owner */\n      dup5\n        /* \"@openzeppelin/contracts/token/ERC20/ERC20.sol\":10085:10116  Approval(owner, spender, value) */\n      0xffffffffffffffffffffffffffffffffffffffff\n      and\n      0x8c5be1e5ebec7d5bd14f71427d1e84f3dd0314c0f7b2291e5b200ac8c7c3b925\n        /* \"@openzeppelin/contracts/token/ERC20/ERC20.sol\":10110:10115  value */\n      dup5\n        /* \"@openzeppelin/contracts/token/ERC20/ERC20.sol\":10085:10116  Approval(owner, spender, value) */\n      mload(0x40)\n      tag_301\n      swap2\n      swap1\n      tag_47\n      jump\t// in\n    tag_301:\n      mload(0x40)\n      dup1\n      swap2\n      sub\n      swap1\n      log3\n        /* \"@openzeppelin/contracts/token/ERC20/ERC20.sol\":10051:10127  if (emitEvent) {... */\n    tag_300:\n        /* \"@openzeppelin/contracts/token/ERC20/ERC20.sol\":9701:10133  function _approve(address owner, address spender, uint256 value, bool emitEvent) internal virtual {... */\n      pop\n      pop\n      pop\n      pop\n      jump\t// out\n        /* \"@openzeppelin/contracts/token/ERC20/ERC20.sol\":6008:7115  function _update(address from, address to, uint256 value) internal virtual {... */\n    tag_177:\n        /* \"@openzeppelin/contracts/token/ERC20/ERC20.sol\":6113:6114  0 */\n      0x00\n        /* \"@openzeppelin/contracts/token/ERC20/ERC20.sol\":6097:6115  from == address(0) */\n      0xffffffffffffffffffffffffffffffffffffffff\n      and\n        /* \"@openzeppelin/contracts/token/ERC20/ERC20.sol\":6097:6101  from */\n      dup4\n        /* \"@openzeppelin/contracts/token/ERC20/ERC20.sol\":6097:6115  from == address(0) */\n      0xffffffffffffffffffffffffffffffffffffffff\n      and\n      sub\n        /* \"@openzeppelin/contracts/token/ERC20/ERC20.sol\":6093:6633  if (from == address(0)) {... */\n      tag_303\n      jumpi\n        /* \"@openzeppelin/contracts/token/ERC20/ERC20.sol\":6249:6254  value */\n      dup1\n        /* \"@openzeppelin/contracts/token/ERC20/ERC20.sol\":6233:6245  _totalSupply */\n      0x02\n      0x00\n        /* \"@openzeppelin/contracts/token/ERC20/ERC20.sol\":6233:6254  _totalSupply += value */\n      dup3\n      dup3\n      sload\n      tag_304\n      swap2\n      swap1\n      tag_305\n      jump\t// in\n    tag_304:\n      swap3\n      pop\n      pop\n      dup2\n      swap1\n      sstore\n      pop\n        /* \"@openzeppelin/contracts/token/ERC20/ERC20.sol\":6093:6633  if (from == address(0)) {... */\n      jump(tag_306)\n    tag_303:\n        /* \"@openzeppelin/contracts/token/ERC20/ERC20.sol\":6285:6304  uint256 fromBalance */\n      0x00\n        /* \"@openzeppelin/contracts/token/ERC20/ERC20.sol\":6307:6316  _balances */\n      dup1\n        /* \"@openzeppelin/contracts/token/ERC20/ERC20.sol\":6307:6322  _balances[from] */\n      0x00\n        /* \"@openzeppelin/contracts/token/ERC20/ERC20.sol\":6317:6321  from */\n      dup6\n        /* \"@openzeppelin/contracts/token/ERC20/ERC20.sol\":6307:6322  _balances[from] */\n      0xffffffffffffffffffffffffffffffffffffffff\n      and\n      0xffffffffffffffffffffffffffffffffffffffff\n      and\n      dup2\n      mstore\n      0x20\n      add\n      swap1\n      dup2\n      mstore\n      0x20\n      add\n      0x00\n      keccak256\n      sload\n        /* \"@openzeppelin/contracts/token/ERC20/ERC20.sol\":6285:6322  uint256 fromBalance = _balances[from] */\n      swap1\n      pop\n        /* \"@openzeppelin/contracts/token/ERC20/ERC20.sol\":6354:6359  value */\n      dup2\n        /* \"@openzeppelin/contracts/token/ERC20/ERC20.sol\":6340:6351  fromBalance */\n      dup2\n        /* \"@openzeppelin/contracts/token/ERC20/ERC20.sol\":6340:6359  fromBalance < value */\n      lt\n        /* \"@openzeppelin/contracts/token/ERC20/ERC20.sol\":6336:6451  if (fromBalance < value) {... */\n      iszero\n      tag_307\n      jumpi\n        /* \"@openzeppelin/contracts/token/ERC20/ERC20.sol\":6411:6415  from */\n      dup4\n        /* \"@openzeppelin/contracts/token/ERC20/ERC20.sol\":6417:6428  fromBalance */\n      dup2\n        /* \"@openzeppelin/contracts/token/ERC20/ERC20.sol\":6430:6435  value */\n      dup4\n        /* \"@openzeppelin/contracts/token/ERC20/ERC20.sol\":6386:6436  ERC20InsufficientBalance(from, fromBalance, value) */\n      mload(0x40)\n      0xe450d38c00000000000000000000000000000000000000000000000000000000\n      dup2\n      mstore\n      0x04\n      add\n      tag_308\n      swap4\n      swap3\n      swap2\n      swap1\n      tag_168\n      jump\t// in\n    tag_308:\n      mload(0x40)\n      dup1\n      swap2\n      sub\n      swap1\n      revert\n        /* \"@openzeppelin/contracts/token/ERC20/ERC20.sol\":6336:6451  if (fromBalance < value) {... */\n    tag_307:\n        /* \"@openzeppelin/contracts/token/ERC20/ERC20.sol\":6603:6608  value */\n      dup2\n        /* \"@openzeppelin/contracts/token/ERC20/ERC20.sol\":6589:6600  fromBalance */\n      dup2\n        /* \"@openzeppelin/contracts/token/ERC20/ERC20.sol\":6589:6608  fromBalance - value */\n      sub\n        /* \"@openzeppelin/contracts/token/ERC20/ERC20.sol\":6571:6580  _balances */\n      0x00\n        /* \"@openzeppelin/contracts/token/ERC20/ERC20.sol\":6571:6586  _balances[from] */\n      dup1\n        /* \"@openzeppelin/contracts/token/ERC20/ERC20.sol\":6581:6585  from */\n      dup7\n        /* \"@openzeppelin/contracts/token/ERC20/ERC20.sol\":6571:6586  _balances[from] */\n      0xffffffffffffffffffffffffffffffffffffffff\n      and\n      0xffffffffffffffffffffffffffffffffffffffff\n      and\n      dup2\n      mstore\n      0x20\n      add\n      swap1\n      dup2\n      mstore\n      0x20\n      add\n      0x00\n      keccak256\n        /* \"@openzeppelin/contracts/token/ERC20/ERC20.sol\":6571:6608  _balances[from] = fromBalance - value */\n      dup2\n      swap1\n      sstore\n      pop\n        /* \"@openzeppelin/contracts/token/ERC20/ERC20.sol\":6271:6633  {... */\n      pop\n        /* \"@openzeppelin/contracts/token/ERC20/ERC20.sol\":6093:6633  if (from == address(0)) {... */\n    tag_306:\n        /* \"@openzeppelin/contracts/token/ERC20/ERC20.sol\":6661:6662  0 */\n      0x00\n        /* \"@openzeppelin/contracts/token/ERC20/ERC20.sol\":6647:6663  to == address(0) */\n      0xffffffffffffffffffffffffffffffffffffffff\n      and\n        /* \"@openzeppelin/contracts/token/ERC20/ERC20.sol\":6647:6649  to */\n      dup3\n        /* \"@openzeppelin/contracts/token/ERC20/ERC20.sol\":6647:6663  to == address(0) */\n      0xffffffffffffffffffffffffffffffffffffffff\n      and\n      sub\n        /* \"@openzeppelin/contracts/token/ERC20/ERC20.sol\":6643:7068  if (to == address(0)) {... */\n      tag_309\n      jumpi\n        /* \"@openzeppelin/contracts/token/ERC20/ERC20.sol\":6826:6831  value */\n      dup1\n        /* \"@openzeppelin/contracts/token/ERC20/ERC20.sol\":6810:6822  _totalSupply */\n      0x02\n      0x00\n        /* \"@openzeppelin/contracts/token/ERC20/ERC20.sol\":6810:6831  _totalSupply -= value */\n      dup3\n      dup3\n      sload\n      sub\n      swap3\n      pop\n      pop\n      dup2\n      swap1\n      sstore\n      pop\n        /* \"@openzeppelin/contracts/token/ERC20/ERC20.sol\":6643:7068  if (to == address(0)) {... */\n      jump(tag_310)\n    tag_309:\n        /* \"@openzeppelin/contracts/token/ERC20/ERC20.sol\":7038:7043  value */\n      dup1\n        /* \"@openzeppelin/contracts/token/ERC20/ERC20.sol\":7021:7030  _balances */\n      0x00\n        /* \"@openzeppelin/contracts/token/ERC20/ERC20.sol\":7021:7034  _balances[to] */\n      dup1\n        /* \"@openzeppelin/contracts/token/ERC20/ERC20.sol\":7031:7033  to */\n      dup5\n        /* \"@openzeppelin/contracts/token/ERC20/ERC20.sol\":7021:7034  _balances[to] */\n      0xffffffffffffffffffffffffffffffffffffffff\n      and\n      0xffffffffffffffffffffffffffffffffffffffff\n      and\n      dup2\n      mstore\n      0x20\n      add\n      swap1\n      dup2\n      mstore\n      0x20\n      add\n      0x00\n      keccak256\n      0x00\n        /* \"@openzeppelin/contracts/token/ERC20/ERC20.sol\":7021:7043  _balances[to] += value */\n      dup3\n      dup3\n      sload\n      add\n      swap3\n      pop\n      pop\n      dup2\n      swap1\n      sstore\n      pop\n        /* \"@openzeppelin/contracts/token/ERC20/ERC20.sol\":6643:7068  if (to == address(0)) {... */\n    tag_310:\n        /* \"@openzeppelin/contracts/token/ERC20/ERC20.sol\":7098:7100  to */\n      dup2\n        /* \"@openzeppelin/contracts/token/ERC20/ERC20.sol\":7083:7108  Transfer(from, to, value) */\n      0xffffffffffffffffffffffffffffffffffffffff\n      and\n        /* \"@openzeppelin/contracts/token/ERC20/ERC20.sol\":7092:7096  from */\n      dup4\n        /* \"@openzeppelin/contracts/token/ERC20/ERC20.sol\":7083:7108  Transfer(from, to, value) */\n      0xffffffffffffffffffffffffffffffffffffffff\n      and\n      0xddf252ad1be2c89b69c2b068fc378daa952ba7f163c4a11628f55a4df523b3ef\n        /* \"@openzeppelin/contracts/token/ERC20/ERC20.sol\":7102:7107  value */\n      dup4\n        /* \"@openzeppelin/contracts/token/ERC20/ERC20.sol\":7083:7108  Transfer(from, to, value) */\n      mload(0x40)\n      tag_311\n      swap2\n      swap1\n      tag_47\n      jump\t// in\n    tag_311:\n      mload(0x40)\n      dup1\n      swap2\n      sub\n      swap1\n      log3\n        /* \"@openzeppelin/contracts/token/ERC20/ERC20.sol\":6008:7115  function _update(address from, address to, uint256 value) internal virtual {... */\n      pop\n      pop\n      pop\n      jump\t// out\n        /* \"COAT/tokens/airdrop.sol\":21399:21995  function _checkReceiver(address to, uint256 tokenId) internal  returns (bool) {... */\n    tag_194:\n        /* \"COAT/tokens/airdrop.sol\":21471:21475  bool */\n      0x00\n        /* \"COAT/tokens/airdrop.sol\":21556:21557  0 */\n      dup1\n        /* \"COAT/tokens/airdrop.sol\":21539:21553  isContract(to) */\n      tag_313\n        /* \"COAT/tokens/airdrop.sol\":21550:21552  to */\n      dup5\n        /* \"COAT/tokens/airdrop.sol\":21539:21549  isContract */\n      tag_314\n        /* \"COAT/tokens/airdrop.sol\":21539:21553  isContract(to) */\n      jump\t// in\n    tag_313:\n        /* \"COAT/tokens/airdrop.sol\":21539:21557  isContract(to) > 0 */\n      gt\n        /* \"COAT/tokens/airdrop.sol\":21535:21631  if (isContract(to) > 0) {... */\n      iszero\n      tag_315\n      jumpi\n        /* \"COAT/tokens/airdrop.sol\":21581:21585  true */\n      0x01\n        /* \"COAT/tokens/airdrop.sol\":21574:21585  return true */\n      swap1\n      pop\n      jump(tag_312)\n        /* \"COAT/tokens/airdrop.sol\":21535:21631  if (isContract(to) > 0) {... */\n    tag_315:\n        /* \"COAT/tokens/airdrop.sol\":21737:21761  IERC721Receiver receiver */\n      0x00\n        /* \"COAT/tokens/airdrop.sol\":21780:21782  to */\n      dup4\n        /* \"COAT/tokens/airdrop.sol\":21737:21783  IERC721Receiver receiver = IERC721Receiver(to) */\n      swap1\n      pop\n        /* \"COAT/tokens/airdrop.sol\":21942:21987  IERC721Receiver(to).onERC721Received.selector */\n      shl(0xe0, 0x150b7a02)\n        /* \"COAT/tokens/airdrop.sol\":21873:21987  receiver.onERC721Received(address(this), msg.sender, tokenId, \"\") == IERC721Receiver(to).onERC721Received.selector */\n      not(0xffffffffffffffffffffffffffffffffffffffffffffffffffffffff)\n      and\n        /* \"COAT/tokens/airdrop.sol\":21873:21881  receiver */\n      dup2\n        /* \"COAT/tokens/airdrop.sol\":21873:21898  receiver.onERC721Received */\n      0xffffffffffffffffffffffffffffffffffffffff\n      and\n      0x150b7a02\n        /* \"COAT/tokens/airdrop.sol\":21907:21911  this */\n      address\n        /* \"COAT/tokens/airdrop.sol\":21914:21924  msg.sender */\n      caller\n        /* \"COAT/tokens/airdrop.sol\":21926:21933  tokenId */\n      dup8\n        /* \"COAT/tokens/airdrop.sol\":21873:21938  receiver.onERC721Received(address(this), msg.sender, tokenId, \"\") */\n      mload(0x40)\n      dup5\n      0xffffffff\n      and\n      0xe0\n      shl\n      dup2\n      mstore\n      0x04\n      add\n      tag_316\n      swap4\n      swap3\n      swap2\n      swap1\n      tag_317\n      jump\t// in\n    tag_316:\n      0x20\n      mload(0x40)\n      dup1\n      dup4\n      sub\n      dup2\n      0x00\n      dup8\n      gas\n      call\n      iszero\n      dup1\n      iszero\n      tag_319\n      jumpi\n      returndatasize\n      0x00\n      dup1\n      returndatacopy\n      revert(0x00, returndatasize)\n    tag_319:\n      pop\n      pop\n      pop\n      pop\n      mload(0x40)\n      returndatasize\n      not(0x1f)\n      0x1f\n      dup3\n      add\n      and\n      dup3\n      add\n      dup1\n      0x40\n      mstore\n      pop\n      dup2\n      add\n      swap1\n      tag_320\n      swap2\n      swap1\n      tag_321\n      jump\t// in\n    tag_320:\n        /* \"COAT/tokens/airdrop.sol\":21873:21987  receiver.onERC721Received(address(this), msg.sender, tokenId, \"\") == IERC721Receiver(to).onERC721Received.selector */\n      not(0xffffffffffffffffffffffffffffffffffffffffffffffffffffffff)\n      and\n      eq\n        /* \"COAT/tokens/airdrop.sol\":21866:21987  return receiver.onERC721Received(address(this), msg.sender, tokenId, \"\") == IERC721Receiver(to).onERC721Received.selector */\n      swap2\n      pop\n      pop\n        /* \"COAT/tokens/airdrop.sol\":21399:21995  function _checkReceiver(address to, uint256 tokenId) internal  returns (bool) {... */\n    tag_312:\n      swap3\n      swap2\n      pop\n      pop\n      jump\t// out\n        /* \"COAT/tokens/airdrop.sol\":22003:22195  function isContract(address addr) private view returns(uint extSize) {... */\n    tag_314:\n        /* \"COAT/tokens/airdrop.sol\":22058:22070  uint extSize */\n      0x00\n        /* \"COAT/tokens/airdrop.sol\":22130:22134  addr */\n      dup2\n        /* \"COAT/tokens/airdrop.sol\":22118:22135  extcodesize(addr) */\n      extcodesize\n        /* \"COAT/tokens/airdrop.sol\":22107:22135  extSize := extcodesize(addr) */\n      swap1\n      pop\n        /* \"COAT/tokens/airdrop.sol\":22003:22195  function isContract(address addr) private view returns(uint extSize) {... */\n      swap2\n      swap1\n      pop\n      jump\t// out\n        /* \"#utility.yul\":7:106   */\n    tag_323:\n        /* \"#utility.yul\":59:65   */\n      0x00\n        /* \"#utility.yul\":93:98   */\n      dup2\n        /* \"#utility.yul\":87:99   */\n      mload\n        /* \"#utility.yul\":77:99   */\n      swap1\n      pop\n        /* \"#utility.yul\":7:106   */\n      swap2\n      swap1\n      pop\n      jump\t// out\n        /* \"#utility.yul\":112:281   */\n    tag_324:\n        /* \"#utility.yul\":196:207   */\n      0x00\n        /* \"#utility.yul\":230:236   */\n      dup3\n        /* \"#utility.yul\":225:228   */\n      dup3\n        /* \"#utility.yul\":218:237   */\n      mstore\n        /* \"#utility.yul\":270:274   */\n      0x20\n        /* \"#utility.yul\":265:268   */\n      dup3\n        /* \"#utility.yul\":261:275   */\n      add\n        /* \"#utility.yul\":246:275   */\n      swap1\n      pop\n        /* \"#utility.yul\":112:281   */\n      swap3\n      swap2\n      pop\n      pop\n      jump\t// out\n        /* \"#utility.yul\":287:426   */\n    tag_325:\n        /* \"#utility.yul\":376:382   */\n      dup3\n        /* \"#utility.yul\":371:374   */\n      dup2\n        /* \"#utility.yul\":366:369   */\n      dup4\n        /* \"#utility.yul\":360:383   */\n      mcopy\n        /* \"#utility.yul\":417:418   */\n      0x00\n        /* \"#utility.yul\":408:414   */\n      dup4\n        /* \"#utility.yul\":403:406   */\n      dup4\n        /* \"#utility.yul\":399:415   */\n      add\n        /* \"#utility.yul\":392:419   */\n      mstore\n        /* \"#utility.yul\":287:426   */\n      pop\n      pop\n      pop\n      jump\t// out\n        /* \"#utility.yul\":432:534   */\n    tag_326:\n        /* \"#utility.yul\":473:479   */\n      0x00\n        /* \"#utility.yul\":524:526   */\n      0x1f\n        /* \"#utility.yul\":520:527   */\n      not\n        /* \"#utility.yul\":515:517   */\n      0x1f\n        /* \"#utility.yul\":508:513   */\n      dup4\n        /* \"#utility.yul\":504:518   */\n      add\n        /* \"#utility.yul\":500:528   */\n      and\n        /* \"#utility.yul\":490:528   */\n      swap1\n      pop\n        /* \"#utility.yul\":432:534   */\n      swap2\n      swap1\n      pop\n      jump\t// out\n        /* \"#utility.yul\":540:917   */\n    tag_327:\n        /* \"#utility.yul\":628:631   */\n      0x00\n        /* \"#utility.yul\":656:695   */\n      tag_421\n        /* \"#utility.yul\":689:694   */\n      dup3\n        /* \"#utility.yul\":656:695   */\n      tag_323\n      jump\t// in\n    tag_421:\n        /* \"#utility.yul\":711:782   */\n      tag_422\n        /* \"#utility.yul\":775:781   */\n      dup2\n        /* \"#utility.yul\":770:773   */\n      dup6\n        /* \"#utility.yul\":711:782   */\n      tag_324\n      jump\t// in\n    tag_422:\n        /* \"#utility.yul\":704:782   */\n      swap4\n      pop\n        /* \"#utility.yul\":791:856   */\n      tag_423\n        /* \"#utility.yul\":849:855   */\n      dup2\n        /* \"#utility.yul\":844:847   */\n      dup6\n        /* \"#utility.yul\":837:841   */\n      0x20\n        /* \"#utility.yul\":830:835   */\n      dup7\n        /* \"#utility.yul\":826:842   */\n      add\n        /* \"#utility.yul\":791:856   */\n      tag_325\n      jump\t// in\n    tag_423:\n        /* \"#utility.yul\":881:910   */\n      tag_424\n        /* \"#utility.yul\":903:909   */\n      dup2\n        /* \"#utility.yul\":881:910   */\n      tag_326\n      jump\t// in\n    tag_424:\n        /* \"#utility.yul\":876:879   */\n      dup5\n        /* \"#utility.yul\":872:911   */\n      add\n        /* \"#utility.yul\":865:911   */\n      swap2\n      pop\n        /* \"#utility.yul\":632:917   */\n      pop\n        /* \"#utility.yul\":540:917   */\n      swap3\n      swap2\n      pop\n      pop\n      jump\t// out\n        /* \"#utility.yul\":923:1236   */\n    tag_27:\n        /* \"#utility.yul\":1036:1040   */\n      0x00\n        /* \"#utility.yul\":1074:1076   */\n      0x20\n        /* \"#utility.yul\":1063:1072   */\n      dup3\n        /* \"#utility.yul\":1059:1077   */\n      add\n        /* \"#utility.yul\":1051:1077   */\n      swap1\n      pop\n        /* \"#utility.yul\":1123:1132   */\n      dup2\n        /* \"#utility.yul\":1117:1121   */\n      dup2\n        /* \"#utility.yul\":1113:1133   */\n      sub\n        /* \"#utility.yul\":1109:1110   */\n      0x00\n        /* \"#utility.yul\":1098:1107   */\n      dup4\n        /* \"#utility.yul\":1094:1111   */\n      add\n        /* \"#utility.yul\":1087:1134   */\n      mstore\n        /* \"#utility.yul\":1151:1229   */\n      tag_426\n        /* \"#utility.yul\":1224:1228   */\n      dup2\n        /* \"#utility.yul\":1215:1221   */\n      dup5\n        /* \"#utility.yul\":1151:1229   */\n      tag_327\n      jump\t// in\n    tag_426:\n        /* \"#utility.yul\":1143:1229   */\n      swap1\n      pop\n        /* \"#utility.yul\":923:1236   */\n      swap3\n      swap2\n      pop\n      pop\n      jump\t// out\n        /* \"#utility.yul\":1242:1317   */\n    tag_328:\n        /* \"#utility.yul\":1275:1281   */\n      0x00\n        /* \"#utility.yul\":1308:1310   */\n      0x40\n        /* \"#utility.yul\":1302:1311   */\n      mload\n        /* \"#utility.yul\":1292:1311   */\n      swap1\n      pop\n        /* \"#utility.yul\":1242:1317   */\n      swap1\n      jump\t// out\n        /* \"#utility.yul\":1323:1440   */\n    tag_329:\n        /* \"#utility.yul\":1432:1433   */\n      0x00\n        /* \"#utility.yul\":1429:1430   */\n      dup1\n        /* \"#utility.yul\":1422:1434   */\n      revert\n        /* \"#utility.yul\":1446:1563   */\n    tag_330:\n        /* \"#utility.yul\":1555:1556   */\n      0x00\n        /* \"#utility.yul\":1552:1553   */\n      dup1\n        /* \"#utility.yul\":1545:1557   */\n      revert\n        /* \"#utility.yul\":1569:1695   */\n    tag_331:\n        /* \"#utility.yul\":1606:1613   */\n      0x00\n        /* \"#utility.yul\":1646:1688   */\n      0xffffffffffffffffffffffffffffffffffffffff\n        /* \"#utility.yul\":1639:1644   */\n      dup3\n        /* \"#utility.yul\":1635:1689   */\n      and\n        /* \"#utility.yul\":1624:1689   */\n      swap1\n      pop\n        /* \"#utility.yul\":1569:1695   */\n      swap2\n      swap1\n      pop\n      jump\t// out\n        /* \"#utility.yul\":1701:1797   */\n    tag_332:\n        /* \"#utility.yul\":1738:1745   */\n      0x00\n        /* \"#utility.yul\":1767:1791   */\n      tag_432\n        /* \"#utility.yul\":1785:1790   */\n      dup3\n        /* \"#utility.yul\":1767:1791   */\n      tag_331\n      jump\t// in\n    tag_432:\n        /* \"#utility.yul\":1756:1791   */\n      swap1\n      pop\n        /* \"#utility.yul\":1701:1797   */\n      swap2\n      swap1\n      pop\n      jump\t// out\n        /* \"#utility.yul\":1803:1925   */\n    tag_333:\n        /* \"#utility.yul\":1876:1900   */\n      tag_434\n        /* \"#utility.yul\":1894:1899   */\n      dup2\n        /* \"#utility.yul\":1876:1900   */\n      tag_332\n      jump\t// in\n    tag_434:\n        /* \"#utility.yul\":1869:1874   */\n      dup2\n        /* \"#utility.yul\":1866:1901   */\n      eq\n        /* \"#utility.yul\":1856:1919   */\n      tag_435\n      jumpi\n        /* \"#utility.yul\":1915:1916   */\n      0x00\n        /* \"#utility.yul\":1912:1913   */\n      dup1\n        /* \"#utility.yul\":1905:1917   */\n      revert\n        /* \"#utility.yul\":1856:1919   */\n    tag_435:\n        /* \"#utility.yul\":1803:1925   */\n      pop\n      jump\t// out\n        /* \"#utility.yul\":1931:2070   */\n    tag_334:\n        /* \"#utility.yul\":1977:1982   */\n      0x00\n        /* \"#utility.yul\":2015:2021   */\n      dup2\n        /* \"#utility.yul\":2002:2022   */\n      calldataload\n        /* \"#utility.yul\":1993:2022   */\n      swap1\n      pop\n        /* \"#utility.yul\":2031:2064   */\n      tag_437\n        /* \"#utility.yul\":2058:2063   */\n      dup2\n        /* \"#utility.yul\":2031:2064   */\n      tag_333\n      jump\t// in\n    tag_437:\n        /* \"#utility.yul\":1931:2070   */\n      swap3\n      swap2\n      pop\n      pop\n      jump\t// out\n        /* \"#utility.yul\":2076:2153   */\n    tag_335:\n        /* \"#utility.yul\":2113:2120   */\n      0x00\n        /* \"#utility.yul\":2142:2147   */\n      dup2\n        /* \"#utility.yul\":2131:2147   */\n      swap1\n      pop\n        /* \"#utility.yul\":2076:2153   */\n      swap2\n      swap1\n      pop\n      jump\t// out\n        /* \"#utility.yul\":2159:2281   */\n    tag_336:\n        /* \"#utility.yul\":2232:2256   */\n      tag_440\n        /* \"#utility.yul\":2250:2255   */\n      dup2\n        /* \"#utility.yul\":2232:2256   */\n      tag_335\n      jump\t// in\n    tag_440:\n        /* \"#utility.yul\":2225:2230   */\n      dup2\n        /* \"#utility.yul\":2222:2257   */\n      eq\n        /* \"#utility.yul\":2212:2275   */\n      tag_441\n      jumpi\n        /* \"#utility.yul\":2271:2272   */\n      0x00\n        /* \"#utility.yul\":2268:2269   */\n      dup1\n        /* \"#utility.yul\":2261:2273   */\n      revert\n        /* \"#utility.yul\":2212:2275   */\n    tag_441:\n        /* \"#utility.yul\":2159:2281   */\n      pop\n      jump\t// out\n        /* \"#utility.yul\":2287:2426   */\n    tag_337:\n        /* \"#utility.yul\":2333:2338   */\n      0x00\n        /* \"#utility.yul\":2371:2377   */\n      dup2\n        /* \"#utility.yul\":2358:2378   */\n      calldataload\n        /* \"#utility.yul\":2349:2378   */\n      swap1\n      pop\n        /* \"#utility.yul\":2387:2420   */\n      tag_443\n        /* \"#utility.yul\":2414:2419   */\n      dup2\n        /* \"#utility.yul\":2387:2420   */\n      tag_336\n      jump\t// in\n    tag_443:\n        /* \"#utility.yul\":2287:2426   */\n      swap3\n      swap2\n      pop\n      pop\n      jump\t// out\n        /* \"#utility.yul\":2432:2906   */\n    tag_30:\n        /* \"#utility.yul\":2500:2506   */\n      0x00\n        /* \"#utility.yul\":2508:2514   */\n      dup1\n        /* \"#utility.yul\":2557:2559   */\n      0x40\n        /* \"#utility.yul\":2545:2554   */\n      dup4\n        /* \"#utility.yul\":2536:2543   */\n      dup6\n        /* \"#utility.yul\":2532:2555   */\n      sub\n        /* \"#utility.yul\":2528:2560   */\n      slt\n        /* \"#utility.yul\":2525:2644   */\n      iszero\n      tag_445\n      jumpi\n        /* \"#utility.yul\":2563:2642   */\n      tag_446\n      tag_329\n      jump\t// in\n    tag_446:\n        /* \"#utility.yul\":2525:2644   */\n    tag_445:\n        /* \"#utility.yul\":2683:2684   */\n      0x00\n        /* \"#utility.yul\":2708:2761   */\n      tag_447\n        /* \"#utility.yul\":2753:2760   */\n      dup6\n        /* \"#utility.yul\":2744:2750   */\n      dup3\n        /* \"#utility.yul\":2733:2742   */\n      dup7\n        /* \"#utility.yul\":2729:2751   */\n      add\n        /* \"#utility.yul\":2708:2761   */\n      tag_334\n      jump\t// in\n    tag_447:\n        /* \"#utility.yul\":2698:2761   */\n      swap3\n      pop\n        /* \"#utility.yul\":2654:2771   */\n      pop\n        /* \"#utility.yul\":2810:2812   */\n      0x20\n        /* \"#utility.yul\":2836:2889   */\n      tag_448\n        /* \"#utility.yul\":2881:2888   */\n      dup6\n        /* \"#utility.yul\":2872:2878   */\n      dup3\n        /* \"#utility.yul\":2861:2870   */\n      dup7\n        /* \"#utility.yul\":2857:2879   */\n      add\n        /* \"#utility.yul\":2836:2889   */\n      tag_337\n      jump\t// in\n    tag_448:\n        /* \"#utility.yul\":2826:2889   */\n      swap2\n      pop\n        /* \"#utility.yul\":2781:2899   */\n      pop\n        /* \"#utility.yul\":2432:2906   */\n      swap3\n      pop\n      swap3\n      swap1\n      pop\n      jump\t// out\n        /* \"#utility.yul\":2912:3002   */\n    tag_338:\n        /* \"#utility.yul\":2946:2953   */\n      0x00\n        /* \"#utility.yul\":2989:2994   */\n      dup2\n        /* \"#utility.yul\":2982:2995   */\n      iszero\n        /* \"#utility.yul\":2975:2996   */\n      iszero\n        /* \"#utility.yul\":2964:2996   */\n      swap1\n      pop\n        /* \"#utility.yul\":2912:3002   */\n      swap2\n      swap1\n      pop\n      jump\t// out\n        /* \"#utility.yul\":3008:3117   */\n    tag_339:\n        /* \"#utility.yul\":3089:3110   */\n      tag_451\n        /* \"#utility.yul\":3104:3109   */\n      dup2\n        /* \"#utility.yul\":3089:3110   */\n      tag_338\n      jump\t// in\n    tag_451:\n        /* \"#utility.yul\":3084:3087   */\n      dup3\n        /* \"#utility.yul\":3077:3111   */\n      mstore\n        /* \"#utility.yul\":3008:3117   */\n      pop\n      pop\n      jump\t// out\n        /* \"#utility.yul\":3123:3333   */\n    tag_33:\n        /* \"#utility.yul\":3210:3214   */\n      0x00\n        /* \"#utility.yul\":3248:3250   */\n      0x20\n        /* \"#utility.yul\":3237:3246   */\n      dup3\n        /* \"#utility.yul\":3233:3251   */\n      add\n        /* \"#utility.yul\":3225:3251   */\n      swap1\n      pop\n        /* \"#utility.yul\":3261:3326   */\n      tag_453\n        /* \"#utility.yul\":3323:3324   */\n      0x00\n        /* \"#utility.yul\":3312:3321   */\n      dup4\n        /* \"#utility.yul\":3308:3325   */\n      add\n        /* \"#utility.yul\":3299:3305   */\n      dup5\n        /* \"#utility.yul\":3261:3326   */\n      tag_339\n      jump\t// in\n    tag_453:\n        /* \"#utility.yul\":3123:3333   */\n      swap3\n      swap2\n      pop\n      pop\n      jump\t// out\n        /* \"#utility.yul\":3339:3453   */\n    tag_340:\n        /* \"#utility.yul\":3406:3412   */\n      0x00\n        /* \"#utility.yul\":3440:3445   */\n      dup2\n        /* \"#utility.yul\":3434:3446   */\n      mload\n        /* \"#utility.yul\":3424:3446   */\n      swap1\n      pop\n        /* \"#utility.yul\":3339:3453   */\n      swap2\n      swap1\n      pop\n      jump\t// out\n        /* \"#utility.yul\":3459:3643   */\n    tag_341:\n        /* \"#utility.yul\":3558:3569   */\n      0x00\n        /* \"#utility.yul\":3592:3598   */\n      dup3\n        /* \"#utility.yul\":3587:3590   */\n      dup3\n        /* \"#utility.yul\":3580:3599   */\n      mstore\n        /* \"#utility.yul\":3632:3636   */\n      0x20\n        /* \"#utility.yul\":3627:3630   */\n      dup3\n        /* \"#utility.yul\":3623:3637   */\n      add\n        /* \"#utility.yul\":3608:3637   */\n      swap1\n      pop\n        /* \"#utility.yul\":3459:3643   */\n      swap3\n      swap2\n      pop\n      pop\n      jump\t// out\n        /* \"#utility.yul\":3649:3781   */\n    tag_342:\n        /* \"#utility.yul\":3716:3720   */\n      0x00\n        /* \"#utility.yul\":3739:3742   */\n      dup2\n        /* \"#utility.yul\":3731:3742   */\n      swap1\n      pop\n        /* \"#utility.yul\":3769:3773   */\n      0x20\n        /* \"#utility.yul\":3764:3767   */\n      dup3\n        /* \"#utility.yul\":3760:3774   */\n      add\n        /* \"#utility.yul\":3752:3774   */\n      swap1\n      pop\n        /* \"#utility.yul\":3649:3781   */\n      swap2\n      swap1\n      pop\n      jump\t// out\n        /* \"#utility.yul\":3787:3895   */\n    tag_343:\n        /* \"#utility.yul\":3864:3888   */\n      tag_458\n        /* \"#utility.yul\":3882:3887   */\n      dup2\n        /* \"#utility.yul\":3864:3888   */\n      tag_332\n      jump\t// in\n    tag_458:\n        /* \"#utility.yul\":3859:3862   */\n      dup3\n        /* \"#utility.yul\":3852:3889   */\n      mstore\n        /* \"#utility.yul\":3787:3895   */\n      pop\n      pop\n      jump\t// out\n        /* \"#utility.yul\":3901:4080   */\n    tag_344:\n        /* \"#utility.yul\":3970:3980   */\n      0x00\n        /* \"#utility.yul\":3991:4037   */\n      tag_460\n        /* \"#utility.yul\":4033:4036   */\n      dup4\n        /* \"#utility.yul\":4025:4031   */\n      dup4\n        /* \"#utility.yul\":3991:4037   */\n      tag_343\n      jump\t// in\n    tag_460:\n        /* \"#utility.yul\":4069:4073   */\n      0x20\n        /* \"#utility.yul\":4064:4067   */\n      dup4\n        /* \"#utility.yul\":4060:4074   */\n      add\n        /* \"#utility.yul\":4046:4074   */\n      swap1\n      pop\n        /* \"#utility.yul\":3901:4080   */\n      swap3\n      swap2\n      pop\n      pop\n      jump\t// out\n        /* \"#utility.yul\":4086:4199   */\n    tag_345:\n        /* \"#utility.yul\":4156:4160   */\n      0x00\n        /* \"#utility.yul\":4188:4192   */\n      0x20\n        /* \"#utility.yul\":4183:4186   */\n      dup3\n        /* \"#utility.yul\":4179:4193   */\n      add\n        /* \"#utility.yul\":4171:4193   */\n      swap1\n      pop\n        /* \"#utility.yul\":4086:4199   */\n      swap2\n      swap1\n      pop\n      jump\t// out\n        /* \"#utility.yul\":4235:4967   */\n    tag_346:\n        /* \"#utility.yul\":4354:4357   */\n      0x00\n        /* \"#utility.yul\":4383:4437   */\n      tag_463\n        /* \"#utility.yul\":4431:4436   */\n      dup3\n        /* \"#utility.yul\":4383:4437   */\n      tag_340\n      jump\t// in\n    tag_463:\n        /* \"#utility.yul\":4453:4539   */\n      tag_464\n        /* \"#utility.yul\":4532:4538   */\n      dup2\n        /* \"#utility.yul\":4527:4530   */\n      dup6\n        /* \"#utility.yul\":4453:4539   */\n      tag_341\n      jump\t// in\n    tag_464:\n        /* \"#utility.yul\":4446:4539   */\n      swap4\n      pop\n        /* \"#utility.yul\":4563:4619   */\n      tag_465\n        /* \"#utility.yul\":4613:4618   */\n      dup4\n        /* \"#utility.yul\":4563:4619   */\n      tag_342\n      jump\t// in\n    tag_465:\n        /* \"#utility.yul\":4642:4649   */\n      dup1\n        /* \"#utility.yul\":4673:4674   */\n      0x00\n        /* \"#utility.yul\":4658:4942   */\n    tag_466:\n        /* \"#utility.yul\":4683:4689   */\n      dup4\n        /* \"#utility.yul\":4680:4681   */\n      dup2\n        /* \"#utility.yul\":4677:4690   */\n      lt\n        /* \"#utility.yul\":4658:4942   */\n      iszero\n      tag_468\n      jumpi\n        /* \"#utility.yul\":4759:4765   */\n      dup2\n        /* \"#utility.yul\":4753:4766   */\n      mload\n        /* \"#utility.yul\":4786:4849   */\n      tag_469\n        /* \"#utility.yul\":4845:4848   */\n      dup9\n        /* \"#utility.yul\":4830:4843   */\n      dup3\n        /* \"#utility.yul\":4786:4849   */\n      tag_344\n      jump\t// in\n    tag_469:\n        /* \"#utility.yul\":4779:4849   */\n      swap8\n      pop\n        /* \"#utility.yul\":4872:4932   */\n      tag_470\n        /* \"#utility.yul\":4925:4931   */\n      dup4\n        /* \"#utility.yul\":4872:4932   */\n      tag_345\n      jump\t// in\n    tag_470:\n        /* \"#utility.yul\":4862:4932   */\n      swap3\n      pop\n        /* \"#utility.yul\":4718:4942   */\n      pop\n        /* \"#utility.yul\":4705:4706   */\n      0x01\n        /* \"#utility.yul\":4702:4703   */\n      dup2\n        /* \"#utility.yul\":4698:4707   */\n      add\n        /* \"#utility.yul\":4693:4707   */\n      swap1\n      pop\n        /* \"#utility.yul\":4658:4942   */\n      jump(tag_466)\n    tag_468:\n        /* \"#utility.yul\":4662:4676   */\n      pop\n        /* \"#utility.yul\":4958:4961   */\n      dup6\n        /* \"#utility.yul\":4951:4961   */\n      swap4\n      pop\n        /* \"#utility.yul\":4359:4967   */\n      pop\n      pop\n      pop\n        /* \"#utility.yul\":4235:4967   */\n      swap3\n      swap2\n      pop\n      pop\n      jump\t// out\n        /* \"#utility.yul\":4973:5346   */\n    tag_37:\n        /* \"#utility.yul\":5116:5120   */\n      0x00\n        /* \"#utility.yul\":5154:5156   */\n      0x20\n        /* \"#utility.yul\":5143:5152   */\n      dup3\n        /* \"#utility.yul\":5139:5157   */\n      add\n        /* \"#utility.yul\":5131:5157   */\n      swap1\n      pop\n        /* \"#utility.yul\":5203:5212   */\n      dup2\n        /* \"#utility.yul\":5197:5201   */\n      dup2\n        /* \"#utility.yul\":5193:5213   */\n      sub\n        /* \"#utility.yul\":5189:5190   */\n      0x00\n        /* \"#utility.yul\":5178:5187   */\n      dup4\n        /* \"#utility.yul\":5174:5191   */\n      add\n        /* \"#utility.yul\":5167:5214   */\n      mstore\n        /* \"#utility.yul\":5231:5339   */\n      tag_472\n        /* \"#utility.yul\":5334:5338   */\n      dup2\n        /* \"#utility.yul\":5325:5331   */\n      dup5\n        /* \"#utility.yul\":5231:5339   */\n      tag_346\n      jump\t// in\n    tag_472:\n        /* \"#utility.yul\":5223:5339   */\n      swap1\n      pop\n        /* \"#utility.yul\":4973:5346   */\n      swap3\n      swap2\n      pop\n      pop\n      jump\t// out\n        /* \"#utility.yul\":5352:5469   */\n    tag_347:\n        /* \"#utility.yul\":5461:5462   */\n      0x00\n        /* \"#utility.yul\":5458:5459   */\n      dup1\n        /* \"#utility.yul\":5451:5463   */\n      revert\n        /* \"#utility.yul\":5475:5592   */\n    tag_348:\n        /* \"#utility.yul\":5584:5585   */\n      0x00\n        /* \"#utility.yul\":5581:5582   */\n      dup1\n        /* \"#utility.yul\":5574:5586   */\n      revert\n        /* \"#utility.yul\":5598:5778   */\n    tag_349:\n        /* \"#utility.yul\":5646:5723   */\n      0x4e487b7100000000000000000000000000000000000000000000000000000000\n        /* \"#utility.yul\":5643:5644   */\n      0x00\n        /* \"#utility.yul\":5636:5724   */\n      mstore\n        /* \"#utility.yul\":5743:5747   */\n      0x41\n        /* \"#utility.yul\":5740:5741   */\n      0x04\n        /* \"#utility.yul\":5733:5748   */\n      mstore\n        /* \"#utility.yul\":5767:5771   */\n      0x24\n        /* \"#utility.yul\":5764:5765   */\n      0x00\n        /* \"#utility.yul\":5757:5772   */\n      revert\n        /* \"#utility.yul\":5784:6065   */\n    tag_350:\n        /* \"#utility.yul\":5867:5894   */\n      tag_477\n        /* \"#utility.yul\":5889:5893   */\n      dup3\n        /* \"#utility.yul\":5867:5894   */\n      tag_326\n      jump\t// in\n    tag_477:\n        /* \"#utility.yul\":5859:5865   */\n      dup2\n        /* \"#utility.yul\":5855:5895   */\n      add\n        /* \"#utility.yul\":5997:6003   */\n      dup2\n        /* \"#utility.yul\":5985:5995   */\n      dup2\n        /* \"#utility.yul\":5982:6004   */\n      lt\n        /* \"#utility.yul\":5961:5979   */\n      0xffffffffffffffff\n        /* \"#utility.yul\":5949:5959   */\n      dup3\n        /* \"#utility.yul\":5946:5980   */\n      gt\n        /* \"#utility.yul\":5943:6005   */\n      or\n        /* \"#utility.yul\":5940:6028   */\n      iszero\n      tag_478\n      jumpi\n        /* \"#utility.yul\":6008:6026   */\n      tag_479\n      tag_349\n      jump\t// in\n    tag_479:\n        /* \"#utility.yul\":5940:6028   */\n    tag_478:\n        /* \"#utility.yul\":6048:6058   */\n      dup1\n        /* \"#utility.yul\":6044:6046   */\n      0x40\n        /* \"#utility.yul\":6037:6059   */\n      mstore\n        /* \"#utility.yul\":5827:6065   */\n      pop\n        /* \"#utility.yul\":5784:6065   */\n      pop\n      pop\n      jump\t// out\n        /* \"#utility.yul\":6071:6200   */\n    tag_351:\n        /* \"#utility.yul\":6105:6111   */\n      0x00\n        /* \"#utility.yul\":6132:6152   */\n      tag_481\n      tag_328\n      jump\t// in\n    tag_481:\n        /* \"#utility.yul\":6122:6152   */\n      swap1\n      pop\n        /* \"#utility.yul\":6161:6194   */\n      tag_482\n        /* \"#utility.yul\":6189:6193   */\n      dup3\n        /* \"#utility.yul\":6181:6187   */\n      dup3\n        /* \"#utility.yul\":6161:6194   */\n      tag_350\n      jump\t// in\n    tag_482:\n        /* \"#utility.yul\":6071:6200   */\n      swap2\n      swap1\n      pop\n      jump\t// out\n        /* \"#utility.yul\":6206:6513   */\n    tag_352:\n        /* \"#utility.yul\":6267:6271   */\n      0x00\n        /* \"#utility.yul\":6357:6375   */\n      0xffffffffffffffff\n        /* \"#utility.yul\":6349:6355   */\n      dup3\n        /* \"#utility.yul\":6346:6376   */\n      gt\n        /* \"#utility.yul\":6343:6399   */\n      iszero\n      tag_484\n      jumpi\n        /* \"#utility.yul\":6379:6397   */\n      tag_485\n      tag_349\n      jump\t// in\n    tag_485:\n        /* \"#utility.yul\":6343:6399   */\n    tag_484:\n        /* \"#utility.yul\":6417:6446   */\n      tag_486\n        /* \"#utility.yul\":6439:6445   */\n      dup3\n        /* \"#utility.yul\":6417:6446   */\n      tag_326\n      jump\t// in\n    tag_486:\n        /* \"#utility.yul\":6409:6446   */\n      swap1\n      pop\n        /* \"#utility.yul\":6501:6505   */\n      0x20\n        /* \"#utility.yul\":6495:6499   */\n      dup2\n        /* \"#utility.yul\":6491:6506   */\n      add\n        /* \"#utility.yul\":6483:6506   */\n      swap1\n      pop\n        /* \"#utility.yul\":6206:6513   */\n      swap2\n      swap1\n      pop\n      jump\t// out\n        /* \"#utility.yul\":6519:6667   */\n    tag_353:\n        /* \"#utility.yul\":6617:6623   */\n      dup3\n        /* \"#utility.yul\":6612:6615   */\n      dup2\n        /* \"#utility.yul\":6607:6610   */\n      dup4\n        /* \"#utility.yul\":6594:6624   */\n      calldatacopy\n        /* \"#utility.yul\":6658:6659   */\n      0x00\n        /* \"#utility.yul\":6649:6655   */\n      dup4\n        /* \"#utility.yul\":6644:6647   */\n      dup4\n        /* \"#utility.yul\":6640:6656   */\n      add\n        /* \"#utility.yul\":6633:6660   */\n      mstore\n        /* \"#utility.yul\":6519:6667   */\n      pop\n      pop\n      pop\n      jump\t// out\n        /* \"#utility.yul\":6673:7096   */\n    tag_354:\n        /* \"#utility.yul\":6750:6755   */\n      0x00\n        /* \"#utility.yul\":6775:6840   */\n      tag_489\n        /* \"#utility.yul\":6791:6839   */\n      tag_490\n        /* \"#utility.yul\":6832:6838   */\n      dup5\n        /* \"#utility.yul\":6791:6839   */\n      tag_352\n      jump\t// in\n    tag_490:\n        /* \"#utility.yul\":6775:6840   */\n      tag_351\n      jump\t// in\n    tag_489:\n        /* \"#utility.yul\":6766:6840   */\n      swap1\n      pop\n        /* \"#utility.yul\":6863:6869   */\n      dup3\n        /* \"#utility.yul\":6856:6861   */\n      dup2\n        /* \"#utility.yul\":6849:6870   */\n      mstore\n        /* \"#utility.yul\":6901:6905   */\n      0x20\n        /* \"#utility.yul\":6894:6899   */\n      dup2\n        /* \"#utility.yul\":6890:6906   */\n      add\n        /* \"#utility.yul\":6939:6942   */\n      dup5\n        /* \"#utility.yul\":6930:6936   */\n      dup5\n        /* \"#utility.yul\":6925:6928   */\n      dup5\n        /* \"#utility.yul\":6921:6937   */\n      add\n        /* \"#utility.yul\":6918:6943   */\n      gt\n        /* \"#utility.yul\":6915:7027   */\n      iszero\n      tag_491\n      jumpi\n        /* \"#utility.yul\":6946:7025   */\n      tag_492\n      tag_348\n      jump\t// in\n    tag_492:\n        /* \"#utility.yul\":6915:7027   */\n    tag_491:\n        /* \"#utility.yul\":7036:7090   */\n      tag_493\n        /* \"#utility.yul\":7083:7089   */\n      dup5\n        /* \"#utility.yul\":7078:7081   */\n      dup3\n        /* \"#utility.yul\":7073:7076   */\n      dup6\n        /* \"#utility.yul\":7036:7090   */\n      tag_353\n      jump\t// in\n    tag_493:\n        /* \"#utility.yul\":6756:7096   */\n      pop\n        /* \"#utility.yul\":6673:7096   */\n      swap4\n      swap3\n      pop\n      pop\n      pop\n      jump\t// out\n        /* \"#utility.yul\":7115:7453   */\n    tag_355:\n        /* \"#utility.yul\":7170:7175   */\n      0x00\n        /* \"#utility.yul\":7219:7222   */\n      dup3\n        /* \"#utility.yul\":7212:7216   */\n      0x1f\n        /* \"#utility.yul\":7204:7210   */\n      dup4\n        /* \"#utility.yul\":7200:7217   */\n      add\n        /* \"#utility.yul\":7196:7223   */\n      slt\n        /* \"#utility.yul\":7186:7308   */\n      tag_495\n      jumpi\n        /* \"#utility.yul\":7227:7306   */\n      tag_496\n      tag_347\n      jump\t// in\n    tag_496:\n        /* \"#utility.yul\":7186:7308   */\n    tag_495:\n        /* \"#utility.yul\":7344:7350   */\n      dup2\n        /* \"#utility.yul\":7331:7351   */\n      calldataload\n        /* \"#utility.yul\":7369:7447   */\n      tag_497\n        /* \"#utility.yul\":7443:7446   */\n      dup5\n        /* \"#utility.yul\":7435:7441   */\n      dup3\n        /* \"#utility.yul\":7428:7432   */\n      0x20\n        /* \"#utility.yul\":7420:7426   */\n      dup7\n        /* \"#utility.yul\":7416:7433   */\n      add\n        /* \"#utility.yul\":7369:7447   */\n      tag_354\n      jump\t// in\n    tag_497:\n        /* \"#utility.yul\":7360:7447   */\n      swap2\n      pop\n        /* \"#utility.yul\":7176:7453   */\n      pop\n        /* \"#utility.yul\":7115:7453   */\n      swap3\n      swap2\n      pop\n      pop\n      jump\t// out\n        /* \"#utility.yul\":7459:8402   */\n    tag_40:\n        /* \"#utility.yul\":7554:7560   */\n      0x00\n        /* \"#utility.yul\":7562:7568   */\n      dup1\n        /* \"#utility.yul\":7570:7576   */\n      0x00\n        /* \"#utility.yul\":7578:7584   */\n      dup1\n        /* \"#utility.yul\":7627:7630   */\n      0x80\n        /* \"#utility.yul\":7615:7624   */\n      dup6\n        /* \"#utility.yul\":7606:7613   */\n      dup8\n        /* \"#utility.yul\":7602:7625   */\n      sub\n        /* \"#utility.yul\":7598:7631   */\n      slt\n        /* \"#utility.yul\":7595:7715   */\n      iszero\n      tag_499\n      jumpi\n        /* \"#utility.yul\":7634:7713   */\n      tag_500\n      tag_329\n      jump\t// in\n    tag_500:\n        /* \"#utility.yul\":7595:7715   */\n    tag_499:\n        /* \"#utility.yul\":7754:7755   */\n      0x00\n        /* \"#utility.yul\":7779:7832   */\n      tag_501\n        /* \"#utility.yul\":7824:7831   */\n      dup8\n        /* \"#utility.yul\":7815:7821   */\n      dup3\n        /* \"#utility.yul\":7804:7813   */\n      dup9\n        /* \"#utility.yul\":7800:7822   */\n      add\n        /* \"#utility.yul\":7779:7832   */\n      tag_334\n      jump\t// in\n    tag_501:\n        /* \"#utility.yul\":7769:7832   */\n      swap5\n      pop\n        /* \"#utility.yul\":7725:7842   */\n      pop\n        /* \"#utility.yul\":7881:7883   */\n      0x20\n        /* \"#utility.yul\":7907:7960   */\n      tag_502\n        /* \"#utility.yul\":7952:7959   */\n      dup8\n        /* \"#utility.yul\":7943:7949   */\n      dup3\n        /* \"#utility.yul\":7932:7941   */\n      dup9\n        /* \"#utility.yul\":7928:7950   */\n      add\n        /* \"#utility.yul\":7907:7960   */\n      tag_334\n      jump\t// in\n    tag_502:\n        /* \"#utility.yul\":7897:7960   */\n      swap4\n      pop\n        /* \"#utility.yul\":7852:7970   */\n      pop\n        /* \"#utility.yul\":8009:8011   */\n      0x40\n        /* \"#utility.yul\":8035:8088   */\n      tag_503\n        /* \"#utility.yul\":8080:8087   */\n      dup8\n        /* \"#utility.yul\":8071:8077   */\n      dup3\n        /* \"#utility.yul\":8060:8069   */\n      dup9\n        /* \"#utility.yul\":8056:8078   */\n      add\n        /* \"#utility.yul\":8035:8088   */\n      tag_337\n      jump\t// in\n    tag_503:\n        /* \"#utility.yul\":8025:8088   */\n      swap3\n      pop\n        /* \"#utility.yul\":7980:8098   */\n      pop\n        /* \"#utility.yul\":8165:8167   */\n      0x60\n        /* \"#utility.yul\":8154:8163   */\n      dup6\n        /* \"#utility.yul\":8150:8168   */\n      add\n        /* \"#utility.yul\":8137:8169   */\n      calldataload\n        /* \"#utility.yul\":8196:8214   */\n      0xffffffffffffffff\n        /* \"#utility.yul\":8188:8194   */\n      dup2\n        /* \"#utility.yul\":8185:8215   */\n      gt\n        /* \"#utility.yul\":8182:8299   */\n      iszero\n      tag_504\n      jumpi\n        /* \"#utility.yul\":8218:8297   */\n      tag_505\n      tag_330\n      jump\t// in\n    tag_505:\n        /* \"#utility.yul\":8182:8299   */\n    tag_504:\n        /* \"#utility.yul\":8323:8385   */\n      tag_506\n        /* \"#utility.yul\":8377:8384   */\n      dup8\n        /* \"#utility.yul\":8368:8374   */\n      dup3\n        /* \"#utility.yul\":8357:8366   */\n      dup9\n        /* \"#utility.yul\":8353:8375   */\n      add\n        /* \"#utility.yul\":8323:8385   */\n      tag_355\n      jump\t// in\n    tag_506:\n        /* \"#utility.yul\":8313:8385   */\n      swap2\n      pop\n        /* \"#utility.yul\":8108:8395   */\n      pop\n        /* \"#utility.yul\":7459:8402   */\n      swap3\n      swap6\n      swap2\n      swap5\n      pop\n      swap3\n      pop\n      jump\t// out\n        /* \"#utility.yul\":8408:8557   */\n    tag_356:\n        /* \"#utility.yul\":8444:8451   */\n      0x00\n        /* \"#utility.yul\":8484:8550   */\n      0xffffffff00000000000000000000000000000000000000000000000000000000\n        /* \"#utility.yul\":8477:8482   */\n      dup3\n        /* \"#utility.yul\":8473:8551   */\n      and\n        /* \"#utility.yul\":8462:8551   */\n      swap1\n      pop\n        /* \"#utility.yul\":8408:8557   */\n      swap2\n      swap1\n      pop\n      jump\t// out\n        /* \"#utility.yul\":8563:8678   */\n    tag_357:\n        /* \"#utility.yul\":8648:8671   */\n      tag_509\n        /* \"#utility.yul\":8665:8670   */\n      dup2\n        /* \"#utility.yul\":8648:8671   */\n      tag_356\n      jump\t// in\n    tag_509:\n        /* \"#utility.yul\":8643:8646   */\n      dup3\n        /* \"#utility.yul\":8636:8672   */\n      mstore\n        /* \"#utility.yul\":8563:8678   */\n      pop\n      pop\n      jump\t// out\n        /* \"#utility.yul\":8684:8902   */\n    tag_43:\n        /* \"#utility.yul\":8775:8779   */\n      0x00\n        /* \"#utility.yul\":8813:8815   */\n      0x20\n        /* \"#utility.yul\":8802:8811   */\n      dup3\n        /* \"#utility.yul\":8798:8816   */\n      add\n        /* \"#utility.yul\":8790:8816   */\n      swap1\n      pop\n        /* \"#utility.yul\":8826:8895   */\n      tag_511\n        /* \"#utility.yul\":8892:8893   */\n      0x00\n        /* \"#utility.yul\":8881:8890   */\n      dup4\n        /* \"#utility.yul\":8877:8894   */\n      add\n        /* \"#utility.yul\":8868:8874   */\n      dup5\n        /* \"#utility.yul\":8826:8895   */\n      tag_357\n      jump\t// in\n    tag_511:\n        /* \"#utility.yul\":8684:8902   */\n      swap3\n      swap2\n      pop\n      pop\n      jump\t// out\n        /* \"#utility.yul\":8908:9026   */\n    tag_358:\n        /* \"#utility.yul\":8995:9019   */\n      tag_513\n        /* \"#utility.yul\":9013:9018   */\n      dup2\n        /* \"#utility.yul\":8995:9019   */\n      tag_335\n      jump\t// in\n    tag_513:\n        /* \"#utility.yul\":8990:8993   */\n      dup3\n        /* \"#utility.yul\":8983:9020   */\n      mstore\n        /* \"#utility.yul\":8908:9026   */\n      pop\n      pop\n      jump\t// out\n        /* \"#utility.yul\":9032:9254   */\n    tag_47:\n        /* \"#utility.yul\":9125:9129   */\n      0x00\n        /* \"#utility.yul\":9163:9165   */\n      0x20\n        /* \"#utility.yul\":9152:9161   */\n      dup3\n        /* \"#utility.yul\":9148:9166   */\n      add\n        /* \"#utility.yul\":9140:9166   */\n      swap1\n      pop\n        /* \"#utility.yul\":9176:9247   */\n      tag_515\n        /* \"#utility.yul\":9244:9245   */\n      0x00\n        /* \"#utility.yul\":9233:9242   */\n      dup4\n        /* \"#utility.yul\":9229:9246   */\n      add\n        /* \"#utility.yul\":9220:9226   */\n      dup5\n        /* \"#utility.yul\":9176:9247   */\n      tag_358\n      jump\t// in\n    tag_515:\n        /* \"#utility.yul\":9032:9254   */\n      swap3\n      swap2\n      pop\n      pop\n      jump\t// out\n        /* \"#utility.yul\":9260:9879   */\n    tag_50:\n        /* \"#utility.yul\":9337:9343   */\n      0x00\n        /* \"#utility.yul\":9345:9351   */\n      dup1\n        /* \"#utility.yul\":9353:9359   */\n      0x00\n        /* \"#utility.yul\":9402:9404   */\n      0x60\n        /* \"#utility.yul\":9390:9399   */\n      dup5\n        /* \"#utility.yul\":9381:9388   */\n      dup7\n        /* \"#utility.yul\":9377:9400   */\n      sub\n        /* \"#utility.yul\":9373:9405   */\n      slt\n        /* \"#utility.yul\":9370:9489   */\n      iszero\n      tag_517\n      jumpi\n        /* \"#utility.yul\":9408:9487   */\n      tag_518\n      tag_329\n      jump\t// in\n    tag_518:\n        /* \"#utility.yul\":9370:9489   */\n    tag_517:\n        /* \"#utility.yul\":9528:9529   */\n      0x00\n        /* \"#utility.yul\":9553:9606   */\n      tag_519\n        /* \"#utility.yul\":9598:9605   */\n      dup7\n        /* \"#utility.yul\":9589:9595   */\n      dup3\n        /* \"#utility.yul\":9578:9587   */\n      dup8\n        /* \"#utility.yul\":9574:9596   */\n      add\n        /* \"#utility.yul\":9553:9606   */\n      tag_334\n      jump\t// in\n    tag_519:\n        /* \"#utility.yul\":9543:9606   */\n      swap4\n      pop\n        /* \"#utility.yul\":9499:9616   */\n      pop\n        /* \"#utility.yul\":9655:9657   */\n      0x20\n        /* \"#utility.yul\":9681:9734   */\n      tag_520\n        /* \"#utility.yul\":9726:9733   */\n      dup7\n        /* \"#utility.yul\":9717:9723   */\n      dup3\n        /* \"#utility.yul\":9706:9715   */\n      dup8\n        /* \"#utility.yul\":9702:9724   */\n      add\n        /* \"#utility.yul\":9681:9734   */\n      tag_334\n      jump\t// in\n    tag_520:\n        /* \"#utility.yul\":9671:9734   */\n      swap3\n      pop\n        /* \"#utility.yul\":9626:9744   */\n      pop\n        /* \"#utility.yul\":9783:9785   */\n      0x40\n        /* \"#utility.yul\":9809:9862   */\n      tag_521\n        /* \"#utility.yul\":9854:9861   */\n      dup7\n        /* \"#utility.yul\":9845:9851   */\n      dup3\n        /* \"#utility.yul\":9834:9843   */\n      dup8\n        /* \"#utility.yul\":9830:9852   */\n      add\n        /* \"#utility.yul\":9809:9862   */\n      tag_337\n      jump\t// in\n    tag_521:\n        /* \"#utility.yul\":9799:9862   */\n      swap2\n      pop\n        /* \"#utility.yul\":9754:9872   */\n      pop\n        /* \"#utility.yul\":9260:9879   */\n      swap3\n      pop\n      swap3\n      pop\n      swap3\n      jump\t// out\n        /* \"#utility.yul\":9885:9971   */\n    tag_359:\n        /* \"#utility.yul\":9920:9927   */\n      0x00\n        /* \"#utility.yul\":9960:9964   */\n      0xff\n        /* \"#utility.yul\":9953:9958   */\n      dup3\n        /* \"#utility.yul\":9949:9965   */\n      and\n        /* \"#utility.yul\":9938:9965   */\n      swap1\n      pop\n        /* \"#utility.yul\":9885:9971   */\n      swap2\n      swap1\n      pop\n      jump\t// out\n        /* \"#utility.yul\":9977:10089   */\n    tag_360:\n        /* \"#utility.yul\":10060:10082   */\n      tag_524\n        /* \"#utility.yul\":10076:10081   */\n      dup2\n        /* \"#utility.yul\":10060:10082   */\n      tag_359\n      jump\t// in\n    tag_524:\n        /* \"#utility.yul\":10055:10058   */\n      dup3\n        /* \"#utility.yul\":10048:10083   */\n      mstore\n        /* \"#utility.yul\":9977:10089   */\n      pop\n      pop\n      jump\t// out\n        /* \"#utility.yul\":10095:10309   */\n    tag_56:\n        /* \"#utility.yul\":10184:10188   */\n      0x00\n        /* \"#utility.yul\":10222:10224   */\n      0x20\n        /* \"#utility.yul\":10211:10220   */\n      dup3\n        /* \"#utility.yul\":10207:10225   */\n      add\n        /* \"#utility.yul\":10199:10225   */\n      swap1\n      pop\n        /* \"#utility.yul\":10235:10302   */\n      tag_526\n        /* \"#utility.yul\":10299:10300   */\n      0x00\n        /* \"#utility.yul\":10288:10297   */\n      dup4\n        /* \"#utility.yul\":10284:10301   */\n      add\n        /* \"#utility.yul\":10275:10281   */\n      dup5\n        /* \"#utility.yul\":10235:10302   */\n      tag_360\n      jump\t// in\n    tag_526:\n        /* \"#utility.yul\":10095:10309   */\n      swap3\n      swap2\n      pop\n      pop\n      jump\t// out\n        /* \"#utility.yul\":10315:10432   */\n    tag_361:\n        /* \"#utility.yul\":10424:10425   */\n      0x00\n        /* \"#utility.yul\":10421:10422   */\n      dup1\n        /* \"#utility.yul\":10414:10426   */\n      revert\n        /* \"#utility.yul\":10438:10555   */\n    tag_362:\n        /* \"#utility.yul\":10547:10548   */\n      0x00\n        /* \"#utility.yul\":10544:10545   */\n      dup1\n        /* \"#utility.yul\":10537:10549   */\n      revert\n        /* \"#utility.yul\":10578:11146   */\n    tag_363:\n        /* \"#utility.yul\":10651:10659   */\n      0x00\n        /* \"#utility.yul\":10661:10667   */\n      dup1\n        /* \"#utility.yul\":10711:10714   */\n      dup4\n        /* \"#utility.yul\":10704:10708   */\n      0x1f\n        /* \"#utility.yul\":10696:10702   */\n      dup5\n        /* \"#utility.yul\":10692:10709   */\n      add\n        /* \"#utility.yul\":10688:10715   */\n      slt\n        /* \"#utility.yul\":10678:10800   */\n      tag_530\n      jumpi\n        /* \"#utility.yul\":10719:10798   */\n      tag_531\n      tag_347\n      jump\t// in\n    tag_531:\n        /* \"#utility.yul\":10678:10800   */\n    tag_530:\n        /* \"#utility.yul\":10832:10838   */\n      dup3\n        /* \"#utility.yul\":10819:10839   */\n      calldataload\n        /* \"#utility.yul\":10809:10839   */\n      swap1\n      pop\n        /* \"#utility.yul\":10862:10880   */\n      0xffffffffffffffff\n        /* \"#utility.yul\":10854:10860   */\n      dup2\n        /* \"#utility.yul\":10851:10881   */\n      gt\n        /* \"#utility.yul\":10848:10965   */\n      iszero\n      tag_532\n      jumpi\n        /* \"#utility.yul\":10884:10963   */\n      tag_533\n      tag_361\n      jump\t// in\n    tag_533:\n        /* \"#utility.yul\":10848:10965   */\n    tag_532:\n        /* \"#utility.yul\":10998:11002   */\n      0x20\n        /* \"#utility.yul\":10990:10996   */\n      dup4\n        /* \"#utility.yul\":10986:11003   */\n      add\n        /* \"#utility.yul\":10974:11003   */\n      swap2\n      pop\n        /* \"#utility.yul\":11052:11055   */\n      dup4\n        /* \"#utility.yul\":11044:11048   */\n      0x20\n        /* \"#utility.yul\":11036:11042   */\n      dup3\n        /* \"#utility.yul\":11032:11049   */\n      mul\n        /* \"#utility.yul\":11022:11030   */\n      dup4\n        /* \"#utility.yul\":11018:11050   */\n      add\n        /* \"#utility.yul\":11015:11056   */\n      gt\n        /* \"#utility.yul\":11012:11140   */\n      iszero\n      tag_534\n      jumpi\n        /* \"#utility.yul\":11059:11138   */\n      tag_535\n      tag_362\n      jump\t// in\n    tag_535:\n        /* \"#utility.yul\":11012:11140   */\n    tag_534:\n        /* \"#utility.yul\":10578:11146   */\n      swap3\n      pop\n      swap3\n      swap1\n      pop\n      jump\t// out\n        /* \"#utility.yul\":11152:11711   */\n    tag_59:\n        /* \"#utility.yul\":11238:11244   */\n      0x00\n        /* \"#utility.yul\":11246:11252   */\n      dup1\n        /* \"#utility.yul\":11295:11297   */\n      0x20\n        /* \"#utility.yul\":11283:11292   */\n      dup4\n        /* \"#utility.yul\":11274:11281   */\n      dup6\n        /* \"#utility.yul\":11270:11293   */\n      sub\n        /* \"#utility.yul\":11266:11298   */\n      slt\n        /* \"#utility.yul\":11263:11382   */\n      iszero\n      tag_537\n      jumpi\n        /* \"#utility.yul\":11301:11380   */\n      tag_538\n      tag_329\n      jump\t// in\n    tag_538:\n        /* \"#utility.yul\":11263:11382   */\n    tag_537:\n        /* \"#utility.yul\":11449:11450   */\n      0x00\n        /* \"#utility.yul\":11438:11447   */\n      dup4\n        /* \"#utility.yul\":11434:11451   */\n      add\n        /* \"#utility.yul\":11421:11452   */\n      calldataload\n        /* \"#utility.yul\":11479:11497   */\n      0xffffffffffffffff\n        /* \"#utility.yul\":11471:11477   */\n      dup2\n        /* \"#utility.yul\":11468:11498   */\n      gt\n        /* \"#utility.yul\":11465:11582   */\n      iszero\n      tag_539\n      jumpi\n        /* \"#utility.yul\":11501:11580   */\n      tag_540\n      tag_330\n      jump\t// in\n    tag_540:\n        /* \"#utility.yul\":11465:11582   */\n    tag_539:\n        /* \"#utility.yul\":11614:11694   */\n      tag_541\n        /* \"#utility.yul\":11686:11693   */\n      dup6\n        /* \"#utility.yul\":11677:11683   */\n      dup3\n        /* \"#utility.yul\":11666:11675   */\n      dup7\n        /* \"#utility.yul\":11662:11684   */\n      add\n        /* \"#utility.yul\":11614:11694   */\n      tag_363\n      jump\t// in\n    tag_541:\n        /* \"#utility.yul\":11596:11694   */\n      swap3\n      pop\n      swap3\n      pop\n        /* \"#utility.yul\":11392:11704   */\n      pop\n        /* \"#utility.yul\":11152:11711   */\n      swap3\n      pop\n      swap3\n      swap1\n      pop\n      jump\t// out\n        /* \"#utility.yul\":11717:12046   */\n    tag_67:\n        /* \"#utility.yul\":11776:11782   */\n      0x00\n        /* \"#utility.yul\":11825:11827   */\n      0x20\n        /* \"#utility.yul\":11813:11822   */\n      dup3\n        /* \"#utility.yul\":11804:11811   */\n      dup5\n        /* \"#utility.yul\":11800:11823   */\n      sub\n        /* \"#utility.yul\":11796:11828   */\n      slt\n        /* \"#utility.yul\":11793:11912   */\n      iszero\n      tag_543\n      jumpi\n        /* \"#utility.yul\":11831:11910   */\n      tag_544\n      tag_329\n      jump\t// in\n    tag_544:\n        /* \"#utility.yul\":11793:11912   */\n    tag_543:\n        /* \"#utility.yul\":11951:11952   */\n      0x00\n        /* \"#utility.yul\":11976:12029   */\n      tag_545\n        /* \"#utility.yul\":12021:12028   */\n      dup5\n        /* \"#utility.yul\":12012:12018   */\n      dup3\n        /* \"#utility.yul\":12001:12010   */\n      dup6\n        /* \"#utility.yul\":11997:12019   */\n      add\n        /* \"#utility.yul\":11976:12029   */\n      tag_334\n      jump\t// in\n    tag_545:\n        /* \"#utility.yul\":11966:12029   */\n      swap2\n      pop\n        /* \"#utility.yul\":11922:12039   */\n      pop\n        /* \"#utility.yul\":11717:12046   */\n      swap3\n      swap2\n      pop\n      pop\n      jump\t// out\n        /* \"#utility.yul\":12052:12381   */\n    tag_79:\n        /* \"#utility.yul\":12111:12117   */\n      0x00\n        /* \"#utility.yul\":12160:12162   */\n      0x20\n        /* \"#utility.yul\":12148:12157   */\n      dup3\n        /* \"#utility.yul\":12139:12146   */\n      dup5\n        /* \"#utility.yul\":12135:12158   */\n      sub\n        /* \"#utility.yul\":12131:12163   */\n      slt\n        /* \"#utility.yul\":12128:12247   */\n      iszero\n      tag_547\n      jumpi\n        /* \"#utility.yul\":12166:12245   */\n      tag_548\n      tag_329\n      jump\t// in\n    tag_548:\n        /* \"#utility.yul\":12128:12247   */\n    tag_547:\n        /* \"#utility.yul\":12286:12287   */\n      0x00\n        /* \"#utility.yul\":12311:12364   */\n      tag_549\n        /* \"#utility.yul\":12356:12363   */\n      dup5\n        /* \"#utility.yul\":12347:12353   */\n      dup3\n        /* \"#utility.yul\":12336:12345   */\n      dup6\n        /* \"#utility.yul\":12332:12354   */\n      add\n        /* \"#utility.yul\":12311:12364   */\n      tag_337\n      jump\t// in\n    tag_549:\n        /* \"#utility.yul\":12301:12364   */\n      swap2\n      pop\n        /* \"#utility.yul\":12257:12374   */\n      pop\n        /* \"#utility.yul\":12052:12381   */\n      swap3\n      swap2\n      pop\n      pop\n      jump\t// out\n        /* \"#utility.yul\":12404:12972   */\n    tag_364:\n        /* \"#utility.yul\":12477:12485   */\n      0x00\n        /* \"#utility.yul\":12487:12493   */\n      dup1\n        /* \"#utility.yul\":12537:12540   */\n      dup4\n        /* \"#utility.yul\":12530:12534   */\n      0x1f\n        /* \"#utility.yul\":12522:12528   */\n      dup5\n        /* \"#utility.yul\":12518:12535   */\n      add\n        /* \"#utility.yul\":12514:12541   */\n      slt\n        /* \"#utility.yul\":12504:12626   */\n      tag_551\n      jumpi\n        /* \"#utility.yul\":12545:12624   */\n      tag_552\n      tag_347\n      jump\t// in\n    tag_552:\n        /* \"#utility.yul\":12504:12626   */\n    tag_551:\n        /* \"#utility.yul\":12658:12664   */\n      dup3\n        /* \"#utility.yul\":12645:12665   */\n      calldataload\n        /* \"#utility.yul\":12635:12665   */\n      swap1\n      pop\n        /* \"#utility.yul\":12688:12706   */\n      0xffffffffffffffff\n        /* \"#utility.yul\":12680:12686   */\n      dup2\n        /* \"#utility.yul\":12677:12707   */\n      gt\n        /* \"#utility.yul\":12674:12791   */\n      iszero\n      tag_553\n      jumpi\n        /* \"#utility.yul\":12710:12789   */\n      tag_554\n      tag_361\n      jump\t// in\n    tag_554:\n        /* \"#utility.yul\":12674:12791   */\n    tag_553:\n        /* \"#utility.yul\":12824:12828   */\n      0x20\n        /* \"#utility.yul\":12816:12822   */\n      dup4\n        /* \"#utility.yul\":12812:12829   */\n      add\n        /* \"#utility.yul\":12800:12829   */\n      swap2\n      pop\n        /* \"#utility.yul\":12878:12881   */\n      dup4\n        /* \"#utility.yul\":12870:12874   */\n      0x20\n        /* \"#utility.yul\":12862:12868   */\n      dup3\n        /* \"#utility.yul\":12858:12875   */\n      mul\n        /* \"#utility.yul\":12848:12856   */\n      dup4\n        /* \"#utility.yul\":12844:12876   */\n      add\n        /* \"#utility.yul\":12841:12882   */\n      gt\n        /* \"#utility.yul\":12838:12966   */\n      iszero\n      tag_555\n      jumpi\n        /* \"#utility.yul\":12885:12964   */\n      tag_556\n      tag_362\n      jump\t// in\n    tag_556:\n        /* \"#utility.yul\":12838:12966   */\n    tag_555:\n        /* \"#utility.yul\":12404:12972   */\n      swap3\n      pop\n      swap3\n      swap1\n      pop\n      jump\t// out\n        /* \"#utility.yul\":12978:13537   */\n    tag_84:\n        /* \"#utility.yul\":13064:13070   */\n      0x00\n        /* \"#utility.yul\":13072:13078   */\n      dup1\n        /* \"#utility.yul\":13121:13123   */\n      0x20\n        /* \"#utility.yul\":13109:13118   */\n      dup4\n        /* \"#utility.yul\":13100:13107   */\n      dup6\n        /* \"#utility.yul\":13096:13119   */\n      sub\n        /* \"#utility.yul\":13092:13124   */\n      slt\n        /* \"#utility.yul\":13089:13208   */\n      iszero\n      tag_558\n      jumpi\n        /* \"#utility.yul\":13127:13206   */\n      tag_559\n      tag_329\n      jump\t// in\n    tag_559:\n        /* \"#utility.yul\":13089:13208   */\n    tag_558:\n        /* \"#utility.yul\":13275:13276   */\n      0x00\n        /* \"#utility.yul\":13264:13273   */\n      dup4\n        /* \"#utility.yul\":13260:13277   */\n      add\n        /* \"#utility.yul\":13247:13278   */\n      calldataload\n        /* \"#utility.yul\":13305:13323   */\n      0xffffffffffffffff\n        /* \"#utility.yul\":13297:13303   */\n      dup2\n        /* \"#utility.yul\":13294:13324   */\n      gt\n        /* \"#utility.yul\":13291:13408   */\n      iszero\n      tag_560\n      jumpi\n        /* \"#utility.yul\":13327:13406   */\n      tag_561\n      tag_330\n      jump\t// in\n    tag_561:\n        /* \"#utility.yul\":13291:13408   */\n    tag_560:\n        /* \"#utility.yul\":13440:13520   */\n      tag_562\n        /* \"#utility.yul\":13512:13519   */\n      dup6\n        /* \"#utility.yul\":13503:13509   */\n      dup3\n        /* \"#utility.yul\":13492:13501   */\n      dup7\n        /* \"#utility.yul\":13488:13510   */\n      add\n        /* \"#utility.yul\":13440:13520   */\n      tag_364\n      jump\t// in\n    tag_562:\n        /* \"#utility.yul\":13422:13520   */\n      swap3\n      pop\n      swap3\n      pop\n        /* \"#utility.yul\":13218:13530   */\n      pop\n        /* \"#utility.yul\":12978:13537   */\n      swap3\n      pop\n      swap3\n      swap1\n      pop\n      jump\t// out\n        /* \"#utility.yul\":13543:14017   */\n    tag_100:\n        /* \"#utility.yul\":13611:13617   */\n      0x00\n        /* \"#utility.yul\":13619:13625   */\n      dup1\n        /* \"#utility.yul\":13668:13670   */\n      0x40\n        /* \"#utility.yul\":13656:13665   */\n      dup4\n        /* \"#utility.yul\":13647:13654   */\n      dup6\n        /* \"#utility.yul\":13643:13666   */\n      sub\n        /* \"#utility.yul\":13639:13671   */\n      slt\n        /* \"#utility.yul\":13636:13755   */\n      iszero\n      tag_564\n      jumpi\n        /* \"#utility.yul\":13674:13753   */\n      tag_565\n      tag_329\n      jump\t// in\n    tag_565:\n        /* \"#utility.yul\":13636:13755   */\n    tag_564:\n        /* \"#utility.yul\":13794:13795   */\n      0x00\n        /* \"#utility.yul\":13819:13872   */\n      tag_566\n        /* \"#utility.yul\":13864:13871   */\n      dup6\n        /* \"#utility.yul\":13855:13861   */\n      dup3\n        /* \"#utility.yul\":13844:13853   */\n      dup7\n        /* \"#utility.yul\":13840:13862   */\n      add\n        /* \"#utility.yul\":13819:13872   */\n      tag_334\n      jump\t// in\n    tag_566:\n        /* \"#utility.yul\":13809:13872   */\n      swap3\n      pop\n        /* \"#utility.yul\":13765:13882   */\n      pop\n        /* \"#utility.yul\":13921:13923   */\n      0x20\n        /* \"#utility.yul\":13947:14000   */\n      tag_567\n        /* \"#utility.yul\":13992:13999   */\n      dup6\n        /* \"#utility.yul\":13983:13989   */\n      dup3\n        /* \"#utility.yul\":13972:13981   */\n      dup7\n        /* \"#utility.yul\":13968:13990   */\n      add\n        /* \"#utility.yul\":13947:14000   */\n      tag_334\n      jump\t// in\n    tag_567:\n        /* \"#utility.yul\":13937:14000   */\n      swap2\n      pop\n        /* \"#utility.yul\":13892:14010   */\n      pop\n        /* \"#utility.yul\":13543:14017   */\n      swap3\n      pop\n      swap3\n      swap1\n      pop\n      jump\t// out\n        /* \"#utility.yul\":14023:14203   */\n    tag_365:\n        /* \"#utility.yul\":14071:14148   */\n      0x4e487b7100000000000000000000000000000000000000000000000000000000\n        /* \"#utility.yul\":14068:14069   */\n      0x00\n        /* \"#utility.yul\":14061:14149   */\n      mstore\n        /* \"#utility.yul\":14168:14172   */\n      0x22\n        /* \"#utility.yul\":14165:14166   */\n      0x04\n        /* \"#utility.yul\":14158:14173   */\n      mstore\n        /* \"#utility.yul\":14192:14196   */\n      0x24\n        /* \"#utility.yul\":14189:14190   */\n      0x00\n        /* \"#utility.yul\":14182:14197   */\n      revert\n        /* \"#utility.yul\":14209:14529   */\n    tag_105:\n        /* \"#utility.yul\":14253:14259   */\n      0x00\n        /* \"#utility.yul\":14290:14291   */\n      0x02\n        /* \"#utility.yul\":14284:14288   */\n      dup3\n        /* \"#utility.yul\":14280:14292   */\n      div\n        /* \"#utility.yul\":14270:14292   */\n      swap1\n      pop\n        /* \"#utility.yul\":14337:14338   */\n      0x01\n        /* \"#utility.yul\":14331:14335   */\n      dup3\n        /* \"#utility.yul\":14327:14339   */\n      and\n        /* \"#utility.yul\":14358:14376   */\n      dup1\n        /* \"#utility.yul\":14348:14429   */\n      tag_570\n      jumpi\n        /* \"#utility.yul\":14414:14418   */\n      0x7f\n        /* \"#utility.yul\":14406:14412   */\n      dup3\n        /* \"#utility.yul\":14402:14419   */\n      and\n        /* \"#utility.yul\":14392:14419   */\n      swap2\n      pop\n        /* \"#utility.yul\":14348:14429   */\n    tag_570:\n        /* \"#utility.yul\":14476:14478   */\n      0x20\n        /* \"#utility.yul\":14468:14474   */\n      dup3\n        /* \"#utility.yul\":14465:14479   */\n      lt\n        /* \"#utility.yul\":14445:14463   */\n      dup2\n        /* \"#utility.yul\":14442:14480   */\n      sub\n        /* \"#utility.yul\":14439:14523   */\n      tag_571\n      jumpi\n        /* \"#utility.yul\":14495:14513   */\n      tag_572\n      tag_365\n      jump\t// in\n    tag_572:\n        /* \"#utility.yul\":14439:14523   */\n    tag_571:\n        /* \"#utility.yul\":14260:14529   */\n      pop\n        /* \"#utility.yul\":14209:14529   */\n      swap2\n      swap1\n      pop\n      jump\t// out\n        /* \"#utility.yul\":14535:14653   */\n    tag_366:\n        /* \"#utility.yul\":14622:14646   */\n      tag_574\n        /* \"#utility.yul\":14640:14645   */\n      dup2\n        /* \"#utility.yul\":14622:14646   */\n      tag_332\n      jump\t// in\n    tag_574:\n        /* \"#utility.yul\":14617:14620   */\n      dup3\n        /* \"#utility.yul\":14610:14647   */\n      mstore\n        /* \"#utility.yul\":14535:14653   */\n      pop\n      pop\n      jump\t// out\n        /* \"#utility.yul\":14659:14757   */\n    tag_367:\n        /* \"#utility.yul\":14710:14716   */\n      0x00\n        /* \"#utility.yul\":14744:14749   */\n      dup2\n        /* \"#utility.yul\":14738:14750   */\n      mload\n        /* \"#utility.yul\":14728:14750   */\n      swap1\n      pop\n        /* \"#utility.yul\":14659:14757   */\n      swap2\n      swap1\n      pop\n      jump\t// out\n        /* \"#utility.yul\":14763:14931   */\n    tag_368:\n        /* \"#utility.yul\":14846:14857   */\n      0x00\n        /* \"#utility.yul\":14880:14886   */\n      dup3\n        /* \"#utility.yul\":14875:14878   */\n      dup3\n        /* \"#utility.yul\":14868:14887   */\n      mstore\n        /* \"#utility.yul\":14920:14924   */\n      0x20\n        /* \"#utility.yul\":14915:14918   */\n      dup3\n        /* \"#utility.yul\":14911:14925   */\n      add\n        /* \"#utility.yul\":14896:14925   */\n      swap1\n      pop\n        /* \"#utility.yul\":14763:14931   */\n      swap3\n      swap2\n      pop\n      pop\n      jump\t// out\n        /* \"#utility.yul\":14937:15310   */\n    tag_369:\n        /* \"#utility.yul\":15023:15026   */\n      0x00\n        /* \"#utility.yul\":15051:15089   */\n      tag_578\n        /* \"#utility.yul\":15083:15088   */\n      dup3\n        /* \"#utility.yul\":15051:15089   */\n      tag_367\n      jump\t// in\n    tag_578:\n        /* \"#utility.yul\":15105:15175   */\n      tag_579\n        /* \"#utility.yul\":15168:15174   */\n      dup2\n        /* \"#utility.yul\":15163:15166   */\n      dup6\n        /* \"#utility.yul\":15105:15175   */\n      tag_368\n      jump\t// in\n    tag_579:\n        /* \"#utility.yul\":15098:15175   */\n      swap4\n      pop\n        /* \"#utility.yul\":15184:15249   */\n      tag_580\n        /* \"#utility.yul\":15242:15248   */\n      dup2\n        /* \"#utility.yul\":15237:15240   */\n      dup6\n        /* \"#utility.yul\":15230:15234   */\n      0x20\n        /* \"#utility.yul\":15223:15228   */\n      dup7\n        /* \"#utility.yul\":15219:15235   */\n      add\n        /* \"#utility.yul\":15184:15249   */\n      tag_325\n      jump\t// in\n    tag_580:\n        /* \"#utility.yul\":15274:15303   */\n      tag_581\n        /* \"#utility.yul\":15296:15302   */\n      dup2\n        /* \"#utility.yul\":15274:15303   */\n      tag_326\n      jump\t// in\n    tag_581:\n        /* \"#utility.yul\":15269:15272   */\n      dup5\n        /* \"#utility.yul\":15265:15304   */\n      add\n        /* \"#utility.yul\":15258:15304   */\n      swap2\n      pop\n        /* \"#utility.yul\":15027:15310   */\n      pop\n        /* \"#utility.yul\":14937:15310   */\n      swap3\n      swap2\n      pop\n      pop\n      jump\t// out\n        /* \"#utility.yul\":15316:15956   */\n    tag_120:\n        /* \"#utility.yul\":15511:15515   */\n      0x00\n        /* \"#utility.yul\":15549:15552   */\n      0x80\n        /* \"#utility.yul\":15538:15547   */\n      dup3\n        /* \"#utility.yul\":15534:15553   */\n      add\n        /* \"#utility.yul\":15526:15553   */\n      swap1\n      pop\n        /* \"#utility.yul\":15563:15634   */\n      tag_583\n        /* \"#utility.yul\":15631:15632   */\n      0x00\n        /* \"#utility.yul\":15620:15629   */\n      dup4\n        /* \"#utility.yul\":15616:15633   */\n      add\n        /* \"#utility.yul\":15607:15613   */\n      dup8\n        /* \"#utility.yul\":15563:15634   */\n      tag_366\n      jump\t// in\n    tag_583:\n        /* \"#utility.yul\":15644:15716   */\n      tag_584\n        /* \"#utility.yul\":15712:15714   */\n      0x20\n        /* \"#utility.yul\":15701:15710   */\n      dup4\n        /* \"#utility.yul\":15697:15715   */\n      add\n        /* \"#utility.yul\":15688:15694   */\n      dup7\n        /* \"#utility.yul\":15644:15716   */\n      tag_366\n      jump\t// in\n    tag_584:\n        /* \"#utility.yul\":15726:15798   */\n      tag_585\n        /* \"#utility.yul\":15794:15796   */\n      0x40\n        /* \"#utility.yul\":15783:15792   */\n      dup4\n        /* \"#utility.yul\":15779:15797   */\n      add\n        /* \"#utility.yul\":15770:15776   */\n      dup6\n        /* \"#utility.yul\":15726:15798   */\n      tag_358\n      jump\t// in\n    tag_585:\n        /* \"#utility.yul\":15845:15854   */\n      dup2\n        /* \"#utility.yul\":15839:15843   */\n      dup2\n        /* \"#utility.yul\":15835:15855   */\n      sub\n        /* \"#utility.yul\":15830:15832   */\n      0x60\n        /* \"#utility.yul\":15819:15828   */\n      dup4\n        /* \"#utility.yul\":15815:15833   */\n      add\n        /* \"#utility.yul\":15808:15856   */\n      mstore\n        /* \"#utility.yul\":15873:15949   */\n      tag_586\n        /* \"#utility.yul\":15944:15948   */\n      dup2\n        /* \"#utility.yul\":15935:15941   */\n      dup5\n        /* \"#utility.yul\":15873:15949   */\n      tag_369\n      jump\t// in\n    tag_586:\n        /* \"#utility.yul\":15865:15949   */\n      swap1\n      pop\n        /* \"#utility.yul\":15316:15956   */\n      swap6\n      swap5\n      pop\n      pop\n      pop\n      pop\n      pop\n      jump\t// out\n        /* \"#utility.yul\":15962:16404   */\n    tag_168:\n        /* \"#utility.yul\":16111:16115   */\n      0x00\n        /* \"#utility.yul\":16149:16151   */\n      0x60\n        /* \"#utility.yul\":16138:16147   */\n      dup3\n        /* \"#utility.yul\":16134:16152   */\n      add\n        /* \"#utility.yul\":16126:16152   */\n      swap1\n      pop\n        /* \"#utility.yul\":16162:16233   */\n      tag_588\n        /* \"#utility.yul\":16230:16231   */\n      0x00\n        /* \"#utility.yul\":16219:16228   */\n      dup4\n        /* \"#utility.yul\":16215:16232   */\n      add\n        /* \"#utility.yul\":16206:16212   */\n      dup7\n        /* \"#utility.yul\":16162:16233   */\n      tag_366\n      jump\t// in\n    tag_588:\n        /* \"#utility.yul\":16243:16315   */\n      tag_589\n        /* \"#utility.yul\":16311:16313   */\n      0x20\n        /* \"#utility.yul\":16300:16309   */\n      dup4\n        /* \"#utility.yul\":16296:16314   */\n      add\n        /* \"#utility.yul\":16287:16293   */\n      dup6\n        /* \"#utility.yul\":16243:16315   */\n      tag_358\n      jump\t// in\n    tag_589:\n        /* \"#utility.yul\":16325:16397   */\n      tag_590\n        /* \"#utility.yul\":16393:16395   */\n      0x40\n        /* \"#utility.yul\":16382:16391   */\n      dup4\n        /* \"#utility.yul\":16378:16396   */\n      add\n        /* \"#utility.yul\":16369:16375   */\n      dup5\n        /* \"#utility.yul\":16325:16397   */\n      tag_358\n      jump\t// in\n    tag_590:\n        /* \"#utility.yul\":15962:16404   */\n      swap5\n      swap4\n      pop\n      pop\n      pop\n      pop\n      jump\t// out\n        /* \"#utility.yul\":16410:16632   */\n    tag_173:\n        /* \"#utility.yul\":16503:16507   */\n      0x00\n        /* \"#utility.yul\":16541:16543   */\n      0x20\n        /* \"#utility.yul\":16530:16539   */\n      dup3\n        /* \"#utility.yul\":16526:16544   */\n      add\n        /* \"#utility.yul\":16518:16544   */\n      swap1\n      pop\n        /* \"#utility.yul\":16554:16625   */\n      tag_592\n        /* \"#utility.yul\":16622:16623   */\n      0x00\n        /* \"#utility.yul\":16611:16620   */\n      dup4\n        /* \"#utility.yul\":16607:16624   */\n      add\n        /* \"#utility.yul\":16598:16604   */\n      dup5\n        /* \"#utility.yul\":16554:16625   */\n      tag_366\n      jump\t// in\n    tag_592:\n        /* \"#utility.yul\":16410:16632   */\n      swap3\n      swap2\n      pop\n      pop\n      jump\t// out\n        /* \"#utility.yul\":16638:16818   */\n    tag_184:\n        /* \"#utility.yul\":16686:16763   */\n      0x4e487b7100000000000000000000000000000000000000000000000000000000\n        /* \"#utility.yul\":16683:16684   */\n      0x00\n        /* \"#utility.yul\":16676:16764   */\n      mstore\n        /* \"#utility.yul\":16783:16787   */\n      0x32\n        /* \"#utility.yul\":16780:16781   */\n      0x04\n        /* \"#utility.yul\":16773:16788   */\n      mstore\n        /* \"#utility.yul\":16807:16811   */\n      0x24\n        /* \"#utility.yul\":16804:16805   */\n      0x00\n        /* \"#utility.yul\":16797:16812   */\n      revert\n        /* \"#utility.yul\":16824:16994   */\n    tag_370:\n        /* \"#utility.yul\":16964:16986   */\n      0x5a65726f20416464726573732070726573656e74000000000000000000000000\n        /* \"#utility.yul\":16960:16961   */\n      0x00\n        /* \"#utility.yul\":16952:16958   */\n      dup3\n        /* \"#utility.yul\":16948:16962   */\n      add\n        /* \"#utility.yul\":16941:16987   */\n      mstore\n        /* \"#utility.yul\":16824:16994   */\n      pop\n      jump\t// out\n        /* \"#utility.yul\":17000:17366   */\n    tag_371:\n        /* \"#utility.yul\":17142:17145   */\n      0x00\n        /* \"#utility.yul\":17163:17230   */\n      tag_596\n        /* \"#utility.yul\":17227:17229   */\n      0x14\n        /* \"#utility.yul\":17222:17225   */\n      dup4\n        /* \"#utility.yul\":17163:17230   */\n      tag_324\n      jump\t// in\n    tag_596:\n        /* \"#utility.yul\":17156:17230   */\n      swap2\n      pop\n        /* \"#utility.yul\":17239:17332   */\n      tag_597\n        /* \"#utility.yul\":17328:17331   */\n      dup3\n        /* \"#utility.yul\":17239:17332   */\n      tag_370\n      jump\t// in\n    tag_597:\n        /* \"#utility.yul\":17357:17359   */\n      0x20\n        /* \"#utility.yul\":17352:17355   */\n      dup3\n        /* \"#utility.yul\":17348:17360   */\n      add\n        /* \"#utility.yul\":17341:17360   */\n      swap1\n      pop\n        /* \"#utility.yul\":17000:17366   */\n      swap2\n      swap1\n      pop\n      jump\t// out\n        /* \"#utility.yul\":17372:17791   */\n    tag_188:\n        /* \"#utility.yul\":17538:17542   */\n      0x00\n        /* \"#utility.yul\":17576:17578   */\n      0x20\n        /* \"#utility.yul\":17565:17574   */\n      dup3\n        /* \"#utility.yul\":17561:17579   */\n      add\n        /* \"#utility.yul\":17553:17579   */\n      swap1\n      pop\n        /* \"#utility.yul\":17625:17634   */\n      dup2\n        /* \"#utility.yul\":17619:17623   */\n      dup2\n        /* \"#utility.yul\":17615:17635   */\n      sub\n        /* \"#utility.yul\":17611:17612   */\n      0x00\n        /* \"#utility.yul\":17600:17609   */\n      dup4\n        /* \"#utility.yul\":17596:17613   */\n      add\n        /* \"#utility.yul\":17589:17636   */\n      mstore\n        /* \"#utility.yul\":17653:17784   */\n      tag_599\n        /* \"#utility.yul\":17779:17783   */\n      dup2\n        /* \"#utility.yul\":17653:17784   */\n      tag_371\n      jump\t// in\n    tag_599:\n        /* \"#utility.yul\":17645:17784   */\n      swap1\n      pop\n        /* \"#utility.yul\":17372:17791   */\n      swap2\n      swap1\n      pop\n      jump\t// out\n        /* \"#utility.yul\":17797:17967   */\n    tag_372:\n        /* \"#utility.yul\":17937:17959   */\n      0x4661756c7479206164647265737320666f756e64000000000000000000000000\n        /* \"#utility.yul\":17933:17934   */\n      0x00\n        /* \"#utility.yul\":17925:17931   */\n      dup3\n        /* \"#utility.yul\":17921:17935   */\n      add\n        /* \"#utility.yul\":17914:17960   */\n      mstore\n        /* \"#utility.yul\":17797:17967   */\n      pop\n      jump\t// out\n        /* \"#utility.yul\":17973:18339   */\n    tag_373:\n        /* \"#utility.yul\":18115:18118   */\n      0x00\n        /* \"#utility.yul\":18136:18203   */\n      tag_602\n        /* \"#utility.yul\":18200:18202   */\n      0x14\n        /* \"#utility.yul\":18195:18198   */\n      dup4\n        /* \"#utility.yul\":18136:18203   */\n      tag_324\n      jump\t// in\n    tag_602:\n        /* \"#utility.yul\":18129:18203   */\n      swap2\n      pop\n        /* \"#utility.yul\":18212:18305   */\n      tag_603\n        /* \"#utility.yul\":18301:18304   */\n      dup3\n        /* \"#utility.yul\":18212:18305   */\n      tag_372\n      jump\t// in\n    tag_603:\n        /* \"#utility.yul\":18330:18332   */\n      0x20\n        /* \"#utility.yul\":18325:18328   */\n      dup3\n        /* \"#utility.yul\":18321:18333   */\n      add\n        /* \"#utility.yul\":18314:18333   */\n      swap1\n      pop\n        /* \"#utility.yul\":17973:18339   */\n      swap2\n      swap1\n      pop\n      jump\t// out\n        /* \"#utility.yul\":18345:18764   */\n    tag_197:\n        /* \"#utility.yul\":18511:18515   */\n      0x00\n        /* \"#utility.yul\":18549:18551   */\n      0x20\n        /* \"#utility.yul\":18538:18547   */\n      dup3\n        /* \"#utility.yul\":18534:18552   */\n      add\n        /* \"#utility.yul\":18526:18552   */\n      swap1\n      pop\n        /* \"#utility.yul\":18598:18607   */\n      dup2\n        /* \"#utility.yul\":18592:18596   */\n      dup2\n        /* \"#utility.yul\":18588:18608   */\n      sub\n        /* \"#utility.yul\":18584:18585   */\n      0x00\n        /* \"#utility.yul\":18573:18582   */\n      dup4\n        /* \"#utility.yul\":18569:18586   */\n      add\n        /* \"#utility.yul\":18562:18609   */\n      mstore\n        /* \"#utility.yul\":18626:18757   */\n      tag_605\n        /* \"#utility.yul\":18752:18756   */\n      dup2\n        /* \"#utility.yul\":18626:18757   */\n      tag_373\n      jump\t// in\n    tag_605:\n        /* \"#utility.yul\":18618:18757   */\n      swap1\n      pop\n        /* \"#utility.yul\":18345:18764   */\n      swap2\n      swap1\n      pop\n      jump\t// out\n        /* \"#utility.yul\":18770:18943   */\n    tag_374:\n        /* \"#utility.yul\":18910:18935   */\n      0x4164647265737320616c6c726561647920457869737473000000000000000000\n        /* \"#utility.yul\":18906:18907   */\n      0x00\n        /* \"#utility.yul\":18898:18904   */\n      dup3\n        /* \"#utility.yul\":18894:18908   */\n      add\n        /* \"#utility.yul\":18887:18936   */\n      mstore\n        /* \"#utility.yul\":18770:18943   */\n      pop\n      jump\t// out\n        /* \"#utility.yul\":18949:19315   */\n    tag_375:\n        /* \"#utility.yul\":19091:19094   */\n      0x00\n        /* \"#utility.yul\":19112:19179   */\n      tag_608\n        /* \"#utility.yul\":19176:19178   */\n      0x17\n        /* \"#utility.yul\":19171:19174   */\n      dup4\n        /* \"#utility.yul\":19112:19179   */\n      tag_324\n      jump\t// in\n    tag_608:\n        /* \"#utility.yul\":19105:19179   */\n      swap2\n      pop\n        /* \"#utility.yul\":19188:19281   */\n      tag_609\n        /* \"#utility.yul\":19277:19280   */\n      dup3\n        /* \"#utility.yul\":19188:19281   */\n      tag_374\n      jump\t// in\n    tag_609:\n        /* \"#utility.yul\":19306:19308   */\n      0x20\n        /* \"#utility.yul\":19301:19304   */\n      dup3\n        /* \"#utility.yul\":19297:19309   */\n      add\n        /* \"#utility.yul\":19290:19309   */\n      swap1\n      pop\n        /* \"#utility.yul\":18949:19315   */\n      swap2\n      swap1\n      pop\n      jump\t// out\n        /* \"#utility.yul\":19321:19740   */\n    tag_204:\n        /* \"#utility.yul\":19487:19491   */\n      0x00\n        /* \"#utility.yul\":19525:19527   */\n      0x20\n        /* \"#utility.yul\":19514:19523   */\n      dup3\n        /* \"#utility.yul\":19510:19528   */\n      add\n        /* \"#utility.yul\":19502:19528   */\n      swap1\n      pop\n        /* \"#utility.yul\":19574:19583   */\n      dup2\n        /* \"#utility.yul\":19568:19572   */\n      dup2\n        /* \"#utility.yul\":19564:19584   */\n      sub\n        /* \"#utility.yul\":19560:19561   */\n      0x00\n        /* \"#utility.yul\":19549:19558   */\n      dup4\n        /* \"#utility.yul\":19545:19562   */\n      add\n        /* \"#utility.yul\":19538:19585   */\n      mstore\n        /* \"#utility.yul\":19602:19733   */\n      tag_611\n        /* \"#utility.yul\":19728:19732   */\n      dup2\n        /* \"#utility.yul\":19602:19733   */\n      tag_375\n      jump\t// in\n    tag_611:\n        /* \"#utility.yul\":19594:19733   */\n      swap1\n      pop\n        /* \"#utility.yul\":19321:19740   */\n      swap2\n      swap1\n      pop\n      jump\t// out\n        /* \"#utility.yul\":19746:19848   */\n    tag_376:\n        /* \"#utility.yul\":19815:19819   */\n      0x00\n        /* \"#utility.yul\":19838:19841   */\n      dup2\n        /* \"#utility.yul\":19830:19841   */\n      swap1\n      pop\n        /* \"#utility.yul\":19746:19848   */\n      swap2\n      swap1\n      pop\n      jump\t// out\n        /* \"#utility.yul\":19854:19976   */\n    tag_377:\n        /* \"#utility.yul\":19906:19911   */\n      0x00\n        /* \"#utility.yul\":19931:19970   */\n      tag_614\n        /* \"#utility.yul\":19966:19968   */\n      0x20\n        /* \"#utility.yul\":19961:19964   */\n      dup5\n        /* \"#utility.yul\":19957:19969   */\n      add\n        /* \"#utility.yul\":19952:19955   */\n      dup5\n        /* \"#utility.yul\":19931:19970   */\n      tag_334\n      jump\t// in\n    tag_614:\n        /* \"#utility.yul\":19922:19970   */\n      swap1\n      pop\n        /* \"#utility.yul\":19854:19976   */\n      swap3\n      swap2\n      pop\n      pop\n      jump\t// out\n        /* \"#utility.yul\":19982:20097   */\n    tag_378:\n        /* \"#utility.yul\":20054:20058   */\n      0x00\n        /* \"#utility.yul\":20086:20090   */\n      0x20\n        /* \"#utility.yul\":20081:20084   */\n      dup3\n        /* \"#utility.yul\":20077:20091   */\n      add\n        /* \"#utility.yul\":20069:20091   */\n      swap1\n      pop\n        /* \"#utility.yul\":19982:20097   */\n      swap2\n      swap1\n      pop\n      jump\t// out\n        /* \"#utility.yul\":20133:20832   */\n    tag_379:\n        /* \"#utility.yul\":20262:20265   */\n      0x00\n        /* \"#utility.yul\":20285:20371   */\n      tag_617\n        /* \"#utility.yul\":20364:20370   */\n      dup4\n        /* \"#utility.yul\":20359:20362   */\n      dup6\n        /* \"#utility.yul\":20285:20371   */\n      tag_341\n      jump\t// in\n    tag_617:\n        /* \"#utility.yul\":20278:20371   */\n      swap4\n      pop\n        /* \"#utility.yul\":20395:20453   */\n      tag_618\n        /* \"#utility.yul\":20447:20452   */\n      dup3\n        /* \"#utility.yul\":20395:20453   */\n      tag_376\n      jump\t// in\n    tag_618:\n        /* \"#utility.yul\":20476:20483   */\n      dup1\n        /* \"#utility.yul\":20507:20508   */\n      0x00\n        /* \"#utility.yul\":20492:20807   */\n    tag_619:\n        /* \"#utility.yul\":20517:20523   */\n      dup6\n        /* \"#utility.yul\":20514:20515   */\n      dup2\n        /* \"#utility.yul\":20511:20524   */\n      lt\n        /* \"#utility.yul\":20492:20807   */\n      iszero\n      tag_621\n      jumpi\n        /* \"#utility.yul\":20587:20629   */\n      tag_622\n        /* \"#utility.yul\":20622:20628   */\n      dup3\n        /* \"#utility.yul\":20613:20620   */\n      dup5\n        /* \"#utility.yul\":20587:20629   */\n      tag_377\n      jump\t// in\n    tag_622:\n        /* \"#utility.yul\":20649:20712   */\n      tag_623\n        /* \"#utility.yul\":20708:20711   */\n      dup9\n        /* \"#utility.yul\":20693:20706   */\n      dup3\n        /* \"#utility.yul\":20649:20712   */\n      tag_344\n      jump\t// in\n    tag_623:\n        /* \"#utility.yul\":20642:20712   */\n      swap8\n      pop\n        /* \"#utility.yul\":20735:20797   */\n      tag_624\n        /* \"#utility.yul\":20790:20796   */\n      dup4\n        /* \"#utility.yul\":20735:20797   */\n      tag_378\n      jump\t// in\n    tag_624:\n        /* \"#utility.yul\":20725:20797   */\n      swap3\n      pop\n        /* \"#utility.yul\":20552:20807   */\n      pop\n        /* \"#utility.yul\":20539:20540   */\n      0x01\n        /* \"#utility.yul\":20536:20537   */\n      dup2\n        /* \"#utility.yul\":20532:20541   */\n      add\n        /* \"#utility.yul\":20527:20541   */\n      swap1\n      pop\n        /* \"#utility.yul\":20492:20807   */\n      jump(tag_619)\n    tag_621:\n        /* \"#utility.yul\":20496:20510   */\n      pop\n        /* \"#utility.yul\":20823:20826   */\n      dup6\n        /* \"#utility.yul\":20816:20826   */\n      swap3\n      pop\n        /* \"#utility.yul\":20267:20832   */\n      pop\n      pop\n        /* \"#utility.yul\":20133:20832   */\n      swap4\n      swap3\n      pop\n      pop\n      pop\n      jump\t// out\n        /* \"#utility.yul\":20838:21231   */\n    tag_210:\n        /* \"#utility.yul\":20991:20995   */\n      0x00\n        /* \"#utility.yul\":21029:21031   */\n      0x20\n        /* \"#utility.yul\":21018:21027   */\n      dup3\n        /* \"#utility.yul\":21014:21032   */\n      add\n        /* \"#utility.yul\":21006:21032   */\n      swap1\n      pop\n        /* \"#utility.yul\":21078:21087   */\n      dup2\n        /* \"#utility.yul\":21072:21076   */\n      dup2\n        /* \"#utility.yul\":21068:21088   */\n      sub\n        /* \"#utility.yul\":21064:21065   */\n      0x00\n        /* \"#utility.yul\":21053:21062   */\n      dup4\n        /* \"#utility.yul\":21049:21066   */\n      add\n        /* \"#utility.yul\":21042:21089   */\n      mstore\n        /* \"#utility.yul\":21106:21224   */\n      tag_626\n        /* \"#utility.yul\":21219:21223   */\n      dup2\n        /* \"#utility.yul\":21210:21216   */\n      dup5\n        /* \"#utility.yul\":21202:21208   */\n      dup7\n        /* \"#utility.yul\":21106:21224   */\n      tag_379\n      jump\t// in\n    tag_626:\n        /* \"#utility.yul\":21098:21224   */\n      swap1\n      pop\n        /* \"#utility.yul\":20838:21231   */\n      swap4\n      swap3\n      pop\n      pop\n      pop\n      jump\t// out\n        /* \"#utility.yul\":21237:21399   */\n    tag_380:\n        /* \"#utility.yul\":21377:21391   */\n      0x5a65726f20616464726573730000000000000000000000000000000000000000\n        /* \"#utility.yul\":21373:21374   */\n      0x00\n        /* \"#utility.yul\":21365:21371   */\n      dup3\n        /* \"#utility.yul\":21361:21375   */\n      add\n        /* \"#utility.yul\":21354:21392   */\n      mstore\n        /* \"#utility.yul\":21237:21399   */\n      pop\n      jump\t// out\n        /* \"#utility.yul\":21405:21771   */\n    tag_381:\n        /* \"#utility.yul\":21547:21550   */\n      0x00\n        /* \"#utility.yul\":21568:21635   */\n      tag_629\n        /* \"#utility.yul\":21632:21634   */\n      0x0c\n        /* \"#utility.yul\":21627:21630   */\n      dup4\n        /* \"#utility.yul\":21568:21635   */\n      tag_324\n      jump\t// in\n    tag_629:\n        /* \"#utility.yul\":21561:21635   */\n      swap2\n      pop\n        /* \"#utility.yul\":21644:21737   */\n      tag_630\n        /* \"#utility.yul\":21733:21736   */\n      dup3\n        /* \"#utility.yul\":21644:21737   */\n      tag_380\n      jump\t// in\n    tag_630:\n        /* \"#utility.yul\":21762:21764   */\n      0x20\n        /* \"#utility.yul\":21757:21760   */\n      dup3\n        /* \"#utility.yul\":21753:21765   */\n      add\n        /* \"#utility.yul\":21746:21765   */\n      swap1\n      pop\n        /* \"#utility.yul\":21405:21771   */\n      swap2\n      swap1\n      pop\n      jump\t// out\n        /* \"#utility.yul\":21777:22196   */\n    tag_226:\n        /* \"#utility.yul\":21943:21947   */\n      0x00\n        /* \"#utility.yul\":21981:21983   */\n      0x20\n        /* \"#utility.yul\":21970:21979   */\n      dup3\n        /* \"#utility.yul\":21966:21984   */\n      add\n        /* \"#utility.yul\":21958:21984   */\n      swap1\n      pop\n        /* \"#utility.yul\":22030:22039   */\n      dup2\n        /* \"#utility.yul\":22024:22028   */\n      dup2\n        /* \"#utility.yul\":22020:22040   */\n      sub\n        /* \"#utility.yul\":22016:22017   */\n      0x00\n        /* \"#utility.yul\":22005:22014   */\n      dup4\n        /* \"#utility.yul\":22001:22018   */\n      add\n        /* \"#utility.yul\":21994:22041   */\n      mstore\n        /* \"#utility.yul\":22058:22189   */\n      tag_632\n        /* \"#utility.yul\":22184:22188   */\n      dup2\n        /* \"#utility.yul\":22058:22189   */\n      tag_381\n      jump\t// in\n    tag_632:\n        /* \"#utility.yul\":22050:22189   */\n      swap1\n      pop\n        /* \"#utility.yul\":21777:22196   */\n      swap2\n      swap1\n      pop\n      jump\t// out\n        /* \"#utility.yul\":22202:22374   */\n    tag_382:\n        /* \"#utility.yul\":22342:22366   */\n      0x4e6f2077686974656c6973746564206164647265737300000000000000000000\n        /* \"#utility.yul\":22338:22339   */\n      0x00\n        /* \"#utility.yul\":22330:22336   */\n      dup3\n        /* \"#utility.yul\":22326:22340   */\n      add\n        /* \"#utility.yul\":22319:22367   */\n      mstore\n        /* \"#utility.yul\":22202:22374   */\n      pop\n      jump\t// out\n        /* \"#utility.yul\":22380:22746   */\n    tag_383:\n        /* \"#utility.yul\":22522:22525   */\n      0x00\n        /* \"#utility.yul\":22543:22610   */\n      tag_635\n        /* \"#utility.yul\":22607:22609   */\n      0x16\n        /* \"#utility.yul\":22602:22605   */\n      dup4\n        /* \"#utility.yul\":22543:22610   */\n      tag_324\n      jump\t// in\n    tag_635:\n        /* \"#utility.yul\":22536:22610   */\n      swap2\n      pop\n        /* \"#utility.yul\":22619:22712   */\n      tag_636\n        /* \"#utility.yul\":22708:22711   */\n      dup3\n        /* \"#utility.yul\":22619:22712   */\n      tag_382\n      jump\t// in\n    tag_636:\n        /* \"#utility.yul\":22737:22739   */\n      0x20\n        /* \"#utility.yul\":22732:22735   */\n      dup3\n        /* \"#utility.yul\":22728:22740   */\n      add\n        /* \"#utility.yul\":22721:22740   */\n      swap1\n      pop\n        /* \"#utility.yul\":22380:22746   */\n      swap2\n      swap1\n      pop\n      jump\t// out\n        /* \"#utility.yul\":22752:23171   */\n    tag_229:\n        /* \"#utility.yul\":22918:22922   */\n      0x00\n        /* \"#utility.yul\":22956:22958   */\n      0x20\n        /* \"#utility.yul\":22945:22954   */\n      dup3\n        /* \"#utility.yul\":22941:22959   */\n      add\n        /* \"#utility.yul\":22933:22959   */\n      swap1\n      pop\n        /* \"#utility.yul\":23005:23014   */\n      dup2\n        /* \"#utility.yul\":22999:23003   */\n      dup2\n        /* \"#utility.yul\":22995:23015   */\n      sub\n        /* \"#utility.yul\":22991:22992   */\n      0x00\n        /* \"#utility.yul\":22980:22989   */\n      dup4\n        /* \"#utility.yul\":22976:22993   */\n      add\n        /* \"#utility.yul\":22969:23016   */\n      mstore\n        /* \"#utility.yul\":23033:23164   */\n      tag_638\n        /* \"#utility.yul\":23159:23163   */\n      dup2\n        /* \"#utility.yul\":23033:23164   */\n      tag_383\n      jump\t// in\n    tag_638:\n        /* \"#utility.yul\":23025:23164   */\n      swap1\n      pop\n        /* \"#utility.yul\":22752:23171   */\n      swap2\n      swap1\n      pop\n      jump\t// out\n        /* \"#utility.yul\":23177:23467   */\n    tag_384:\n        /* \"#utility.yul\":23317:23351   */\n      0x4e756d626572206f6620546f6b656e7320616e64206e756d626572206f662077\n        /* \"#utility.yul\":23313:23314   */\n      0x00\n        /* \"#utility.yul\":23305:23311   */\n      dup3\n        /* \"#utility.yul\":23301:23315   */\n      add\n        /* \"#utility.yul\":23294:23352   */\n      mstore\n        /* \"#utility.yul\":23386:23420   */\n      0x686974656c69737465642061646472657373657320617265206e6f7420657175\n        /* \"#utility.yul\":23381:23383   */\n      0x20\n        /* \"#utility.yul\":23373:23379   */\n      dup3\n        /* \"#utility.yul\":23369:23384   */\n      add\n        /* \"#utility.yul\":23362:23421   */\n      mstore\n        /* \"#utility.yul\":23455:23459   */\n      0x616c000000000000000000000000000000000000000000000000000000000000\n        /* \"#utility.yul\":23450:23452   */\n      0x40\n        /* \"#utility.yul\":23442:23448   */\n      dup3\n        /* \"#utility.yul\":23438:23453   */\n      add\n        /* \"#utility.yul\":23431:23460   */\n      mstore\n        /* \"#utility.yul\":23177:23467   */\n      pop\n      jump\t// out\n        /* \"#utility.yul\":23473:23839   */\n    tag_385:\n        /* \"#utility.yul\":23615:23618   */\n      0x00\n        /* \"#utility.yul\":23636:23703   */\n      tag_641\n        /* \"#utility.yul\":23700:23702   */\n      0x42\n        /* \"#utility.yul\":23695:23698   */\n      dup4\n        /* \"#utility.yul\":23636:23703   */\n      tag_324\n      jump\t// in\n    tag_641:\n        /* \"#utility.yul\":23629:23703   */\n      swap2\n      pop\n        /* \"#utility.yul\":23712:23805   */\n      tag_642\n        /* \"#utility.yul\":23801:23804   */\n      dup3\n        /* \"#utility.yul\":23712:23805   */\n      tag_384\n      jump\t// in\n    tag_642:\n        /* \"#utility.yul\":23830:23832   */\n      0x60\n        /* \"#utility.yul\":23825:23828   */\n      dup3\n        /* \"#utility.yul\":23821:23833   */\n      add\n        /* \"#utility.yul\":23814:23833   */\n      swap1\n      pop\n        /* \"#utility.yul\":23473:23839   */\n      swap2\n      swap1\n      pop\n      jump\t// out\n        /* \"#utility.yul\":23845:24264   */\n    tag_232:\n        /* \"#utility.yul\":24011:24015   */\n      0x00\n        /* \"#utility.yul\":24049:24051   */\n      0x20\n        /* \"#utility.yul\":24038:24047   */\n      dup3\n        /* \"#utility.yul\":24034:24052   */\n      add\n        /* \"#utility.yul\":24026:24052   */\n      swap1\n      pop\n        /* \"#utility.yul\":24098:24107   */\n      dup2\n        /* \"#utility.yul\":24092:24096   */\n      dup2\n        /* \"#utility.yul\":24088:24108   */\n      sub\n        /* \"#utility.yul\":24084:24085   */\n      0x00\n        /* \"#utility.yul\":24073:24082   */\n      dup4\n        /* \"#utility.yul\":24069:24086   */\n      add\n        /* \"#utility.yul\":24062:24109   */\n      mstore\n        /* \"#utility.yul\":24126:24257   */\n      tag_644\n        /* \"#utility.yul\":24252:24256   */\n      dup2\n        /* \"#utility.yul\":24126:24257   */\n      tag_385\n      jump\t// in\n    tag_644:\n        /* \"#utility.yul\":24118:24257   */\n      swap1\n      pop\n        /* \"#utility.yul\":23845:24264   */\n      swap2\n      swap1\n      pop\n      jump\t// out\n        /* \"#utility.yul\":24270:24381   */\n    tag_386:\n        /* \"#utility.yul\":24334:24340   */\n      0x00\n        /* \"#utility.yul\":24368:24373   */\n      dup2\n        /* \"#utility.yul\":24362:24374   */\n      sload\n        /* \"#utility.yul\":24352:24374   */\n      swap1\n      pop\n        /* \"#utility.yul\":24270:24381   */\n      swap2\n      swap1\n      pop\n      jump\t// out\n        /* \"#utility.yul\":24387:24543   */\n    tag_387:\n        /* \"#utility.yul\":24451:24455   */\n      0x00\n        /* \"#utility.yul\":24474:24477   */\n      dup2\n        /* \"#utility.yul\":24466:24477   */\n      swap1\n      pop\n        /* \"#utility.yul\":24497:24500   */\n      dup2\n        /* \"#utility.yul\":24494:24495   */\n      0x00\n        /* \"#utility.yul\":24487:24501   */\n      mstore\n        /* \"#utility.yul\":24531:24535   */\n      0x20\n        /* \"#utility.yul\":24528:24529   */\n      0x00\n        /* \"#utility.yul\":24518:24536   */\n      keccak256\n        /* \"#utility.yul\":24510:24536   */\n      swap1\n      pop\n        /* \"#utility.yul\":24387:24543   */\n      swap2\n      swap1\n      pop\n      jump\t// out\n        /* \"#utility.yul\":24549:24651   */\n    tag_388:\n        /* \"#utility.yul\":24591:24599   */\n      0x00\n        /* \"#utility.yul\":24638:24643   */\n      dup2\n        /* \"#utility.yul\":24635:24636   */\n      0x00\n        /* \"#utility.yul\":24631:24644   */\n      shr\n        /* \"#utility.yul\":24610:24644   */\n      swap1\n      pop\n        /* \"#utility.yul\":24549:24651   */\n      swap2\n      swap1\n      pop\n      jump\t// out\n        /* \"#utility.yul\":24657:24796   */\n    tag_389:\n        /* \"#utility.yul\":24707:24714   */\n      0x00\n        /* \"#utility.yul\":24747:24789   */\n      0xffffffffffffffffffffffffffffffffffffffff\n        /* \"#utility.yul\":24740:24745   */\n      dup3\n        /* \"#utility.yul\":24736:24790   */\n      and\n        /* \"#utility.yul\":24725:24790   */\n      swap1\n      pop\n        /* \"#utility.yul\":24657:24796   */\n      swap2\n      swap1\n      pop\n      jump\t// out\n        /* \"#utility.yul\":24802:24968   */\n    tag_390:\n        /* \"#utility.yul\":24871:24876   */\n      0x00\n        /* \"#utility.yul\":24896:24962   */\n      tag_650\n        /* \"#utility.yul\":24927:24961   */\n      tag_651\n        /* \"#utility.yul\":24950:24960   */\n      dup4\n        /* \"#utility.yul\":24927:24961   */\n      tag_388\n      jump\t// in\n    tag_651:\n        /* \"#utility.yul\":24896:24962   */\n      tag_389\n      jump\t// in\n    tag_650:\n        /* \"#utility.yul\":24887:24962   */\n      swap1\n      pop\n        /* \"#utility.yul\":24802:24968   */\n      swap2\n      swap1\n      pop\n      jump\t// out\n        /* \"#utility.yul\":24974:25118   */\n    tag_391:\n        /* \"#utility.yul\":25029:25034   */\n      0x00\n        /* \"#utility.yul\":25054:25111   */\n      tag_653\n        /* \"#utility.yul\":25105:25109   */\n      dup3\n        /* \"#utility.yul\":25099:25110   */\n      sload\n        /* \"#utility.yul\":25054:25111   */\n      tag_390\n      jump\t// in\n    tag_653:\n        /* \"#utility.yul\":25045:25111   */\n      swap1\n      pop\n        /* \"#utility.yul\":24974:25118   */\n      swap2\n      swap1\n      pop\n      jump\t// out\n        /* \"#utility.yul\":25124:25234   */\n    tag_392:\n        /* \"#utility.yul\":25191:25195   */\n      0x00\n        /* \"#utility.yul\":25223:25227   */\n      0x01\n        /* \"#utility.yul\":25218:25221   */\n      dup3\n        /* \"#utility.yul\":25214:25228   */\n      add\n        /* \"#utility.yul\":25206:25228   */\n      swap1\n      pop\n        /* \"#utility.yul\":25124:25234   */\n      swap2\n      swap1\n      pop\n      jump\t// out\n        /* \"#utility.yul\":25270:26021   */\n    tag_393:\n        /* \"#utility.yul\":25386:25389   */\n      0x00\n        /* \"#utility.yul\":25415:25466   */\n      tag_656\n        /* \"#utility.yul\":25460:25465   */\n      dup3\n        /* \"#utility.yul\":25415:25466   */\n      tag_386\n      jump\t// in\n    tag_656:\n        /* \"#utility.yul\":25482:25568   */\n      tag_657\n        /* \"#utility.yul\":25561:25567   */\n      dup2\n        /* \"#utility.yul\":25556:25559   */\n      dup6\n        /* \"#utility.yul\":25482:25568   */\n      tag_341\n      jump\t// in\n    tag_657:\n        /* \"#utility.yul\":25475:25568   */\n      swap4\n      pop\n        /* \"#utility.yul\":25592:25645   */\n      tag_658\n        /* \"#utility.yul\":25639:25644   */\n      dup4\n        /* \"#utility.yul\":25592:25645   */\n      tag_387\n      jump\t// in\n    tag_658:\n        /* \"#utility.yul\":25668:25675   */\n      dup1\n        /* \"#utility.yul\":25699:25700   */\n      0x00\n        /* \"#utility.yul\":25684:25996   */\n    tag_659:\n        /* \"#utility.yul\":25709:25715   */\n      dup4\n        /* \"#utility.yul\":25706:25707   */\n      dup2\n        /* \"#utility.yul\":25703:25716   */\n      lt\n        /* \"#utility.yul\":25684:25996   */\n      iszero\n      tag_661\n      jumpi\n        /* \"#utility.yul\":25779:25823   */\n      tag_662\n        /* \"#utility.yul\":25816:25822   */\n      dup3\n        /* \"#utility.yul\":25779:25823   */\n      tag_391\n      jump\t// in\n    tag_662:\n        /* \"#utility.yul\":25843:25906   */\n      tag_663\n        /* \"#utility.yul\":25902:25905   */\n      dup9\n        /* \"#utility.yul\":25887:25900   */\n      dup3\n        /* \"#utility.yul\":25843:25906   */\n      tag_344\n      jump\t// in\n    tag_663:\n        /* \"#utility.yul\":25836:25906   */\n      swap8\n      pop\n        /* \"#utility.yul\":25929:25986   */\n      tag_664\n        /* \"#utility.yul\":25979:25985   */\n      dup4\n        /* \"#utility.yul\":25929:25986   */\n      tag_392\n      jump\t// in\n    tag_664:\n        /* \"#utility.yul\":25919:25986   */\n      swap3\n      pop\n        /* \"#utility.yul\":25744:25996   */\n      pop\n        /* \"#utility.yul\":25731:25732   */\n      0x01\n        /* \"#utility.yul\":25728:25729   */\n      dup2\n        /* \"#utility.yul\":25724:25733   */\n      add\n        /* \"#utility.yul\":25719:25733   */\n      swap1\n      pop\n        /* \"#utility.yul\":25684:25996   */\n      jump(tag_659)\n    tag_661:\n        /* \"#utility.yul\":25688:25702   */\n      pop\n        /* \"#utility.yul\":26012:26015   */\n      dup6\n        /* \"#utility.yul\":26005:26015   */\n      swap4\n      pop\n        /* \"#utility.yul\":25391:26021   */\n      pop\n      pop\n      pop\n        /* \"#utility.yul\":25270:26021   */\n      swap3\n      swap2\n      pop\n      pop\n      jump\t// out\n        /* \"#utility.yul\":26027:26211   */\n    tag_394:\n        /* \"#utility.yul\":26126:26137   */\n      0x00\n        /* \"#utility.yul\":26160:26166   */\n      dup3\n        /* \"#utility.yul\":26155:26158   */\n      dup3\n        /* \"#utility.yul\":26148:26167   */\n      mstore\n        /* \"#utility.yul\":26200:26204   */\n      0x20\n        /* \"#utility.yul\":26195:26198   */\n      dup3\n        /* \"#utility.yul\":26191:26205   */\n      add\n        /* \"#utility.yul\":26176:26205   */\n      swap1\n      pop\n        /* \"#utility.yul\":26027:26211   */\n      swap3\n      swap2\n      pop\n      pop\n      jump\t// out\n        /* \"#utility.yul\":26217:26334   */\n    tag_395:\n        /* \"#utility.yul\":26326:26327   */\n      0x00\n        /* \"#utility.yul\":26323:26324   */\n      dup1\n        /* \"#utility.yul\":26316:26328   */\n      revert\n        /* \"#utility.yul\":26340:26439   */\n    tag_396:\n        /* \"#utility.yul\":26425:26431   */\n      dup3\n        /* \"#utility.yul\":26420:26423   */\n      dup2\n        /* \"#utility.yul\":26415:26418   */\n      dup4\n        /* \"#utility.yul\":26402:26432   */\n      calldatacopy\n        /* \"#utility.yul\":26340:26439   */\n      pop\n      pop\n      pop\n      jump\t// out\n        /* \"#utility.yul\":26475:27012   */\n    tag_397:\n        /* \"#utility.yul\":26603:26606   */\n      0x00\n        /* \"#utility.yul\":26624:26710   */\n      tag_669\n        /* \"#utility.yul\":26703:26709   */\n      dup4\n        /* \"#utility.yul\":26698:26701   */\n      dup6\n        /* \"#utility.yul\":26624:26710   */\n      tag_394\n      jump\t// in\n    tag_669:\n        /* \"#utility.yul\":26617:26710   */\n      swap4\n      pop\n        /* \"#utility.yul\":26734:26800   */\n      0x07ffffffffffffffffffffffffffffffffffffffffffffffffffffffffffffff\n        /* \"#utility.yul\":26726:26732   */\n      dup4\n        /* \"#utility.yul\":26723:26801   */\n      gt\n        /* \"#utility.yul\":26720:26885   */\n      iszero\n      tag_670\n      jumpi\n        /* \"#utility.yul\":26804:26883   */\n      tag_671\n      tag_395\n      jump\t// in\n    tag_671:\n        /* \"#utility.yul\":26720:26885   */\n    tag_670:\n        /* \"#utility.yul\":26916:26920   */\n      0x20\n        /* \"#utility.yul\":26908:26914   */\n      dup4\n        /* \"#utility.yul\":26904:26921   */\n      mul\n        /* \"#utility.yul\":26894:26921   */\n      swap3\n      pop\n        /* \"#utility.yul\":26931:26974   */\n      tag_672\n        /* \"#utility.yul\":26967:26973   */\n      dup4\n        /* \"#utility.yul\":26962:26965   */\n      dup6\n        /* \"#utility.yul\":26955:26960   */\n      dup5\n        /* \"#utility.yul\":26931:26974   */\n      tag_396\n      jump\t// in\n    tag_672:\n        /* \"#utility.yul\":26999:27005   */\n      dup3\n        /* \"#utility.yul\":26994:26997   */\n      dup5\n        /* \"#utility.yul\":26990:27006   */\n      add\n        /* \"#utility.yul\":26983:27006   */\n      swap1\n      pop\n        /* \"#utility.yul\":26475:27012   */\n      swap4\n      swap3\n      pop\n      pop\n      pop\n      jump\t// out\n        /* \"#utility.yul\":27018:27666   */\n    tag_236:\n        /* \"#utility.yul\":27246:27250   */\n      0x00\n        /* \"#utility.yul\":27284:27286   */\n      0x40\n        /* \"#utility.yul\":27273:27282   */\n      dup3\n        /* \"#utility.yul\":27269:27287   */\n      add\n        /* \"#utility.yul\":27261:27287   */\n      swap1\n      pop\n        /* \"#utility.yul\":27333:27342   */\n      dup2\n        /* \"#utility.yul\":27327:27331   */\n      dup2\n        /* \"#utility.yul\":27323:27343   */\n      sub\n        /* \"#utility.yul\":27319:27320   */\n      0x00\n        /* \"#utility.yul\":27308:27317   */\n      dup4\n        /* \"#utility.yul\":27304:27321   */\n      add\n        /* \"#utility.yul\":27297:27344   */\n      mstore\n        /* \"#utility.yul\":27361:27466   */\n      tag_674\n        /* \"#utility.yul\":27461:27465   */\n      dup2\n        /* \"#utility.yul\":27452:27458   */\n      dup7\n        /* \"#utility.yul\":27361:27466   */\n      tag_393\n      jump\t// in\n    tag_674:\n        /* \"#utility.yul\":27353:27466   */\n      swap1\n      pop\n        /* \"#utility.yul\":27513:27522   */\n      dup2\n        /* \"#utility.yul\":27507:27511   */\n      dup2\n        /* \"#utility.yul\":27503:27523   */\n      sub\n        /* \"#utility.yul\":27498:27500   */\n      0x20\n        /* \"#utility.yul\":27487:27496   */\n      dup4\n        /* \"#utility.yul\":27483:27501   */\n      add\n        /* \"#utility.yul\":27476:27524   */\n      mstore\n        /* \"#utility.yul\":27541:27659   */\n      tag_675\n        /* \"#utility.yul\":27654:27658   */\n      dup2\n        /* \"#utility.yul\":27645:27651   */\n      dup5\n        /* \"#utility.yul\":27637:27643   */\n      dup7\n        /* \"#utility.yul\":27541:27659   */\n      tag_397\n      jump\t// in\n    tag_675:\n        /* \"#utility.yul\":27533:27659   */\n      swap1\n      pop\n        /* \"#utility.yul\":27018:27666   */\n      swap5\n      swap4\n      pop\n      pop\n      pop\n      pop\n      jump\t// out\n        /* \"#utility.yul\":27672:27815   */\n    tag_398:\n        /* \"#utility.yul\":27729:27734   */\n      0x00\n        /* \"#utility.yul\":27760:27766   */\n      dup2\n        /* \"#utility.yul\":27754:27767   */\n      mload\n        /* \"#utility.yul\":27745:27767   */\n      swap1\n      pop\n        /* \"#utility.yul\":27776:27809   */\n      tag_677\n        /* \"#utility.yul\":27803:27808   */\n      dup2\n        /* \"#utility.yul\":27776:27809   */\n      tag_336\n      jump\t// in\n    tag_677:\n        /* \"#utility.yul\":27672:27815   */\n      swap3\n      swap2\n      pop\n      pop\n      jump\t// out\n        /* \"#utility.yul\":27821:28172   */\n    tag_250:\n        /* \"#utility.yul\":27891:27897   */\n      0x00\n        /* \"#utility.yul\":27940:27942   */\n      0x20\n        /* \"#utility.yul\":27928:27937   */\n      dup3\n        /* \"#utility.yul\":27919:27926   */\n      dup5\n        /* \"#utility.yul\":27915:27938   */\n      sub\n        /* \"#utility.yul\":27911:27943   */\n      slt\n        /* \"#utility.yul\":27908:28027   */\n      iszero\n      tag_679\n      jumpi\n        /* \"#utility.yul\":27946:28025   */\n      tag_680\n      tag_329\n      jump\t// in\n    tag_680:\n        /* \"#utility.yul\":27908:28027   */\n    tag_679:\n        /* \"#utility.yul\":28066:28067   */\n      0x00\n        /* \"#utility.yul\":28091:28155   */\n      tag_681\n        /* \"#utility.yul\":28147:28154   */\n      dup5\n        /* \"#utility.yul\":28138:28144   */\n      dup3\n        /* \"#utility.yul\":28127:28136   */\n      dup6\n        /* \"#utility.yul\":28123:28145   */\n      add\n        /* \"#utility.yul\":28091:28155   */\n      tag_398\n      jump\t// in\n    tag_681:\n        /* \"#utility.yul\":28081:28155   */\n      swap2\n      pop\n        /* \"#utility.yul\":28037:28165   */\n      pop\n        /* \"#utility.yul\":27821:28172   */\n      swap3\n      swap2\n      pop\n      pop\n      jump\t// out\n        /* \"#utility.yul\":28178:28346   */\n    tag_399:\n        /* \"#utility.yul\":28318:28338   */\n      0x4e6f7420656e6f7567682062616c616e63650000000000000000000000000000\n        /* \"#utility.yul\":28314:28315   */\n      0x00\n        /* \"#utility.yul\":28306:28312   */\n      dup3\n        /* \"#utility.yul\":28302:28316   */\n      add\n        /* \"#utility.yul\":28295:28339   */\n      mstore\n        /* \"#utility.yul\":28178:28346   */\n      pop\n      jump\t// out\n        /* \"#utility.yul\":28352:28718   */\n    tag_400:\n        /* \"#utility.yul\":28494:28497   */\n      0x00\n        /* \"#utility.yul\":28515:28582   */\n      tag_684\n        /* \"#utility.yul\":28579:28581   */\n      0x12\n        /* \"#utility.yul\":28574:28577   */\n      dup4\n        /* \"#utility.yul\":28515:28582   */\n      tag_324\n      jump\t// in\n    tag_684:\n        /* \"#utility.yul\":28508:28582   */\n      swap2\n      pop\n        /* \"#utility.yul\":28591:28684   */\n      tag_685\n        /* \"#utility.yul\":28680:28683   */\n      dup3\n        /* \"#utility.yul\":28591:28684   */\n      tag_399\n      jump\t// in\n    tag_685:\n        /* \"#utility.yul\":28709:28711   */\n      0x20\n        /* \"#utility.yul\":28704:28707   */\n      dup3\n        /* \"#utility.yul\":28700:28712   */\n      add\n        /* \"#utility.yul\":28693:28712   */\n      swap1\n      pop\n        /* \"#utility.yul\":28352:28718   */\n      swap2\n      swap1\n      pop\n      jump\t// out\n        /* \"#utility.yul\":28724:29143   */\n    tag_253:\n        /* \"#utility.yul\":28890:28894   */\n      0x00\n        /* \"#utility.yul\":28928:28930   */\n      0x20\n        /* \"#utility.yul\":28917:28926   */\n      dup3\n        /* \"#utility.yul\":28913:28931   */\n      add\n        /* \"#utility.yul\":28905:28931   */\n      swap1\n      pop\n        /* \"#utility.yul\":28977:28986   */\n      dup2\n        /* \"#utility.yul\":28971:28975   */\n      dup2\n        /* \"#utility.yul\":28967:28987   */\n      sub\n        /* \"#utility.yul\":28963:28964   */\n      0x00\n        /* \"#utility.yul\":28952:28961   */\n      dup4\n        /* \"#utility.yul\":28948:28965   */\n      add\n        /* \"#utility.yul\":28941:28988   */\n      mstore\n        /* \"#utility.yul\":29005:29136   */\n      tag_687\n        /* \"#utility.yul\":29131:29135   */\n      dup2\n        /* \"#utility.yul\":29005:29136   */\n      tag_400\n      jump\t// in\n    tag_687:\n        /* \"#utility.yul\":28997:29136   */\n      swap1\n      pop\n        /* \"#utility.yul\":28724:29143   */\n      swap2\n      swap1\n      pop\n      jump\t// out\n        /* \"#utility.yul\":29149:29292   */\n    tag_401:\n        /* \"#utility.yul\":29206:29211   */\n      0x00\n        /* \"#utility.yul\":29237:29243   */\n      dup2\n        /* \"#utility.yul\":29231:29244   */\n      mload\n        /* \"#utility.yul\":29222:29244   */\n      swap1\n      pop\n        /* \"#utility.yul\":29253:29286   */\n      tag_689\n        /* \"#utility.yul\":29280:29285   */\n      dup2\n        /* \"#utility.yul\":29253:29286   */\n      tag_333\n      jump\t// in\n    tag_689:\n        /* \"#utility.yul\":29149:29292   */\n      swap3\n      swap2\n      pop\n      pop\n      jump\t// out\n        /* \"#utility.yul\":29298:29649   */\n    tag_261:\n        /* \"#utility.yul\":29368:29374   */\n      0x00\n        /* \"#utility.yul\":29417:29419   */\n      0x20\n        /* \"#utility.yul\":29405:29414   */\n      dup3\n        /* \"#utility.yul\":29396:29403   */\n      dup5\n        /* \"#utility.yul\":29392:29415   */\n      sub\n        /* \"#utility.yul\":29388:29420   */\n      slt\n        /* \"#utility.yul\":29385:29504   */\n      iszero\n      tag_691\n      jumpi\n        /* \"#utility.yul\":29423:29502   */\n      tag_692\n      tag_329\n      jump\t// in\n    tag_692:\n        /* \"#utility.yul\":29385:29504   */\n    tag_691:\n        /* \"#utility.yul\":29543:29544   */\n      0x00\n        /* \"#utility.yul\":29568:29632   */\n      tag_693\n        /* \"#utility.yul\":29624:29631   */\n      dup5\n        /* \"#utility.yul\":29615:29621   */\n      dup3\n        /* \"#utility.yul\":29604:29613   */\n      dup6\n        /* \"#utility.yul\":29600:29622   */\n      add\n        /* \"#utility.yul\":29568:29632   */\n      tag_401\n      jump\t// in\n    tag_693:\n        /* \"#utility.yul\":29558:29632   */\n      swap2\n      pop\n        /* \"#utility.yul\":29514:29642   */\n      pop\n        /* \"#utility.yul\":29298:29649   */\n      swap3\n      swap2\n      pop\n      pop\n      jump\t// out\n        /* \"#utility.yul\":29655:29832   */\n    tag_402:\n        /* \"#utility.yul\":29795:29824   */\n      0x4e6f7420746865206f776e6572206f662074686973204e46545b5d0000000000\n        /* \"#utility.yul\":29791:29792   */\n      0x00\n        /* \"#utility.yul\":29783:29789   */\n      dup3\n        /* \"#utility.yul\":29779:29793   */\n      add\n        /* \"#utility.yul\":29772:29825   */\n      mstore\n        /* \"#utility.yul\":29655:29832   */\n      pop\n      jump\t// out\n        /* \"#utility.yul\":29838:30204   */\n    tag_403:\n        /* \"#utility.yul\":29980:29983   */\n      0x00\n        /* \"#utility.yul\":30001:30068   */\n      tag_696\n        /* \"#utility.yul\":30065:30067   */\n      0x1b\n        /* \"#utility.yul\":30060:30063   */\n      dup4\n        /* \"#utility.yul\":30001:30068   */\n      tag_324\n      jump\t// in\n    tag_696:\n        /* \"#utility.yul\":29994:30068   */\n      swap2\n      pop\n        /* \"#utility.yul\":30077:30170   */\n      tag_697\n        /* \"#utility.yul\":30166:30169   */\n      dup3\n        /* \"#utility.yul\":30077:30170   */\n      tag_402\n      jump\t// in\n    tag_697:\n        /* \"#utility.yul\":30195:30197   */\n      0x20\n        /* \"#utility.yul\":30190:30193   */\n      dup3\n        /* \"#utility.yul\":30186:30198   */\n      add\n        /* \"#utility.yul\":30179:30198   */\n      swap1\n      pop\n        /* \"#utility.yul\":29838:30204   */\n      swap2\n      swap1\n      pop\n      jump\t// out\n        /* \"#utility.yul\":30210:30629   */\n    tag_264:\n        /* \"#utility.yul\":30376:30380   */\n      0x00\n        /* \"#utility.yul\":30414:30416   */\n      0x20\n        /* \"#utility.yul\":30403:30412   */\n      dup3\n        /* \"#utility.yul\":30399:30417   */\n      add\n        /* \"#utility.yul\":30391:30417   */\n      swap1\n      pop\n        /* \"#utility.yul\":30463:30472   */\n      dup2\n        /* \"#utility.yul\":30457:30461   */\n      dup2\n        /* \"#utility.yul\":30453:30473   */\n      sub\n        /* \"#utility.yul\":30449:30450   */\n      0x00\n        /* \"#utility.yul\":30438:30447   */\n      dup4\n        /* \"#utility.yul\":30434:30451   */\n      add\n        /* \"#utility.yul\":30427:30474   */\n      mstore\n        /* \"#utility.yul\":30491:30622   */\n      tag_699\n        /* \"#utility.yul\":30617:30621   */\n      dup2\n        /* \"#utility.yul\":30491:30622   */\n      tag_403\n      jump\t// in\n    tag_699:\n        /* \"#utility.yul\":30483:30622   */\n      swap1\n      pop\n        /* \"#utility.yul\":30210:30629   */\n      swap2\n      swap1\n      pop\n      jump\t// out\n        /* \"#utility.yul\":30635:30790   */\n    tag_404:\n        /* \"#utility.yul\":30775:30782   */\n      0x546f6b656e000000000000000000000000000000000000000000000000000000\n        /* \"#utility.yul\":30771:30772   */\n      0x00\n        /* \"#utility.yul\":30763:30769   */\n      dup3\n        /* \"#utility.yul\":30759:30773   */\n      add\n        /* \"#utility.yul\":30752:30783   */\n      mstore\n        /* \"#utility.yul\":30635:30790   */\n      pop\n      jump\t// out\n        /* \"#utility.yul\":30796:31161   */\n    tag_405:\n        /* \"#utility.yul\":30938:30941   */\n      0x00\n        /* \"#utility.yul\":30959:31025   */\n      tag_702\n        /* \"#utility.yul\":31023:31024   */\n      0x05\n        /* \"#utility.yul\":31018:31021   */\n      dup4\n        /* \"#utility.yul\":30959:31025   */\n      tag_324\n      jump\t// in\n    tag_702:\n        /* \"#utility.yul\":30952:31025   */\n      swap2\n      pop\n        /* \"#utility.yul\":31034:31127   */\n      tag_703\n        /* \"#utility.yul\":31123:31126   */\n      dup3\n        /* \"#utility.yul\":31034:31127   */\n      tag_404\n      jump\t// in\n    tag_703:\n        /* \"#utility.yul\":31152:31154   */\n      0x20\n        /* \"#utility.yul\":31147:31150   */\n      dup3\n        /* \"#utility.yul\":31143:31155   */\n      add\n        /* \"#utility.yul\":31136:31155   */\n      swap1\n      pop\n        /* \"#utility.yul\":30796:31161   */\n      swap2\n      swap1\n      pop\n      jump\t// out\n        /* \"#utility.yul\":31167:31696   */\n    tag_270:\n        /* \"#utility.yul\":31361:31365   */\n      0x00\n        /* \"#utility.yul\":31399:31401   */\n      0x40\n        /* \"#utility.yul\":31388:31397   */\n      dup3\n        /* \"#utility.yul\":31384:31402   */\n      add\n        /* \"#utility.yul\":31376:31402   */\n      swap1\n      pop\n        /* \"#utility.yul\":31412:31483   */\n      tag_705\n        /* \"#utility.yul\":31480:31481   */\n      0x00\n        /* \"#utility.yul\":31469:31478   */\n      dup4\n        /* \"#utility.yul\":31465:31482   */\n      add\n        /* \"#utility.yul\":31456:31462   */\n      dup5\n        /* \"#utility.yul\":31412:31483   */\n      tag_358\n      jump\t// in\n    tag_705:\n        /* \"#utility.yul\":31530:31539   */\n      dup2\n        /* \"#utility.yul\":31524:31528   */\n      dup2\n        /* \"#utility.yul\":31520:31540   */\n      sub\n        /* \"#utility.yul\":31515:31517   */\n      0x20\n        /* \"#utility.yul\":31504:31513   */\n      dup4\n        /* \"#utility.yul\":31500:31518   */\n      add\n        /* \"#utility.yul\":31493:31541   */\n      mstore\n        /* \"#utility.yul\":31558:31689   */\n      tag_706\n        /* \"#utility.yul\":31684:31688   */\n      dup2\n        /* \"#utility.yul\":31558:31689   */\n      tag_405\n      jump\t// in\n    tag_706:\n        /* \"#utility.yul\":31550:31689   */\n      swap1\n      pop\n        /* \"#utility.yul\":31167:31696   */\n      swap3\n      swap2\n      pop\n      pop\n      jump\t// out\n        /* \"#utility.yul\":31702:31855   */\n    tag_406:\n        /* \"#utility.yul\":31842:31847   */\n      0x4e66740000000000000000000000000000000000000000000000000000000000\n        /* \"#utility.yul\":31838:31839   */\n      0x00\n        /* \"#utility.yul\":31830:31836   */\n      dup3\n        /* \"#utility.yul\":31826:31840   */\n      add\n        /* \"#utility.yul\":31819:31848   */\n      mstore\n        /* \"#utility.yul\":31702:31855   */\n      pop\n      jump\t// out\n        /* \"#utility.yul\":31861:32226   */\n    tag_407:\n        /* \"#utility.yul\":32003:32006   */\n      0x00\n        /* \"#utility.yul\":32024:32090   */\n      tag_709\n        /* \"#utility.yul\":32088:32089   */\n      0x03\n        /* \"#utility.yul\":32083:32086   */\n      dup4\n        /* \"#utility.yul\":32024:32090   */\n      tag_324\n      jump\t// in\n    tag_709:\n        /* \"#utility.yul\":32017:32090   */\n      swap2\n      pop\n        /* \"#utility.yul\":32099:32192   */\n      tag_710\n        /* \"#utility.yul\":32188:32191   */\n      dup3\n        /* \"#utility.yul\":32099:32192   */\n      tag_406\n      jump\t// in\n    tag_710:\n        /* \"#utility.yul\":32217:32219   */\n      0x20\n        /* \"#utility.yul\":32212:32215   */\n      dup3\n        /* \"#utility.yul\":32208:32220   */\n      add\n        /* \"#utility.yul\":32201:32220   */\n      swap1\n      pop\n        /* \"#utility.yul\":31861:32226   */\n      swap2\n      swap1\n      pop\n      jump\t// out\n        /* \"#utility.yul\":32232:32761   */\n    tag_275:\n        /* \"#utility.yul\":32426:32430   */\n      0x00\n        /* \"#utility.yul\":32464:32466   */\n      0x40\n        /* \"#utility.yul\":32453:32462   */\n      dup3\n        /* \"#utility.yul\":32449:32467   */\n      add\n        /* \"#utility.yul\":32441:32467   */\n      swap1\n      pop\n        /* \"#utility.yul\":32477:32548   */\n      tag_712\n        /* \"#utility.yul\":32545:32546   */\n      0x00\n        /* \"#utility.yul\":32534:32543   */\n      dup4\n        /* \"#utility.yul\":32530:32547   */\n      add\n        /* \"#utility.yul\":32521:32527   */\n      dup5\n        /* \"#utility.yul\":32477:32548   */\n      tag_358\n      jump\t// in\n    tag_712:\n        /* \"#utility.yul\":32595:32604   */\n      dup2\n        /* \"#utility.yul\":32589:32593   */\n      dup2\n        /* \"#utility.yul\":32585:32605   */\n      sub\n        /* \"#utility.yul\":32580:32582   */\n      0x20\n        /* \"#utility.yul\":32569:32578   */\n      dup4\n        /* \"#utility.yul\":32565:32583   */\n      add\n        /* \"#utility.yul\":32558:32606   */\n      mstore\n        /* \"#utility.yul\":32623:32754   */\n      tag_713\n        /* \"#utility.yul\":32749:32753   */\n      dup2\n        /* \"#utility.yul\":32623:32754   */\n      tag_407\n      jump\t// in\n    tag_713:\n        /* \"#utility.yul\":32615:32754   */\n      swap1\n      pop\n        /* \"#utility.yul\":32232:32761   */\n      swap3\n      swap2\n      pop\n      pop\n      jump\t// out\n        /* \"#utility.yul\":32767:33209   */\n    tag_280:\n        /* \"#utility.yul\":32916:32920   */\n      0x00\n        /* \"#utility.yul\":32954:32956   */\n      0x60\n        /* \"#utility.yul\":32943:32952   */\n      dup3\n        /* \"#utility.yul\":32939:32957   */\n      add\n        /* \"#utility.yul\":32931:32957   */\n      swap1\n      pop\n        /* \"#utility.yul\":32967:33038   */\n      tag_715\n        /* \"#utility.yul\":33035:33036   */\n      0x00\n        /* \"#utility.yul\":33024:33033   */\n      dup4\n        /* \"#utility.yul\":33020:33037   */\n      add\n        /* \"#utility.yul\":33011:33017   */\n      dup7\n        /* \"#utility.yul\":32967:33038   */\n      tag_366\n      jump\t// in\n    tag_715:\n        /* \"#utility.yul\":33048:33120   */\n      tag_716\n        /* \"#utility.yul\":33116:33118   */\n      0x20\n        /* \"#utility.yul\":33105:33114   */\n      dup4\n        /* \"#utility.yul\":33101:33119   */\n      add\n        /* \"#utility.yul\":33092:33098   */\n      dup6\n        /* \"#utility.yul\":33048:33120   */\n      tag_366\n      jump\t// in\n    tag_716:\n        /* \"#utility.yul\":33130:33202   */\n      tag_717\n        /* \"#utility.yul\":33198:33200   */\n      0x40\n        /* \"#utility.yul\":33187:33196   */\n      dup4\n        /* \"#utility.yul\":33183:33201   */\n      add\n        /* \"#utility.yul\":33174:33180   */\n      dup5\n        /* \"#utility.yul\":33130:33202   */\n      tag_358\n      jump\t// in\n    tag_717:\n        /* \"#utility.yul\":32767:33209   */\n      swap5\n      swap4\n      pop\n      pop\n      pop\n      pop\n      jump\t// out\n        /* \"#utility.yul\":33215:33331   */\n    tag_408:\n        /* \"#utility.yul\":33285:33306   */\n      tag_719\n        /* \"#utility.yul\":33300:33305   */\n      dup2\n        /* \"#utility.yul\":33285:33306   */\n      tag_338\n      jump\t// in\n    tag_719:\n        /* \"#utility.yul\":33278:33283   */\n      dup2\n        /* \"#utility.yul\":33275:33307   */\n      eq\n        /* \"#utility.yul\":33265:33325   */\n      tag_720\n      jumpi\n        /* \"#utility.yul\":33321:33322   */\n      0x00\n        /* \"#utility.yul\":33318:33319   */\n      dup1\n        /* \"#utility.yul\":33311:33323   */\n      revert\n        /* \"#utility.yul\":33265:33325   */\n    tag_720:\n        /* \"#utility.yul\":33215:33331   */\n      pop\n      jump\t// out\n        /* \"#utility.yul\":33337:33474   */\n    tag_409:\n        /* \"#utility.yul\":33391:33396   */\n      0x00\n        /* \"#utility.yul\":33422:33428   */\n      dup2\n        /* \"#utility.yul\":33416:33429   */\n      mload\n        /* \"#utility.yul\":33407:33429   */\n      swap1\n      pop\n        /* \"#utility.yul\":33438:33468   */\n      tag_722\n        /* \"#utility.yul\":33462:33467   */\n      dup2\n        /* \"#utility.yul\":33438:33468   */\n      tag_408\n      jump\t// in\n    tag_722:\n        /* \"#utility.yul\":33337:33474   */\n      swap3\n      swap2\n      pop\n      pop\n      jump\t// out\n        /* \"#utility.yul\":33480:33825   */\n    tag_284:\n        /* \"#utility.yul\":33547:33553   */\n      0x00\n        /* \"#utility.yul\":33596:33598   */\n      0x20\n        /* \"#utility.yul\":33584:33593   */\n      dup3\n        /* \"#utility.yul\":33575:33582   */\n      dup5\n        /* \"#utility.yul\":33571:33594   */\n      sub\n        /* \"#utility.yul\":33567:33599   */\n      slt\n        /* \"#utility.yul\":33564:33683   */\n      iszero\n      tag_724\n      jumpi\n        /* \"#utility.yul\":33602:33681   */\n      tag_725\n      tag_329\n      jump\t// in\n    tag_725:\n        /* \"#utility.yul\":33564:33683   */\n    tag_724:\n        /* \"#utility.yul\":33722:33723   */\n      0x00\n        /* \"#utility.yul\":33747:33808   */\n      tag_726\n        /* \"#utility.yul\":33800:33807   */\n      dup5\n        /* \"#utility.yul\":33791:33797   */\n      dup3\n        /* \"#utility.yul\":33780:33789   */\n      dup6\n        /* \"#utility.yul\":33776:33798   */\n      add\n        /* \"#utility.yul\":33747:33808   */\n      tag_409\n      jump\t// in\n    tag_726:\n        /* \"#utility.yul\":33737:33808   */\n      swap2\n      pop\n        /* \"#utility.yul\":33693:33818   */\n      pop\n        /* \"#utility.yul\":33480:33825   */\n      swap3\n      swap2\n      pop\n      pop\n      jump\t// out\n        /* \"#utility.yul\":33831:34011   */\n    tag_410:\n        /* \"#utility.yul\":33879:33956   */\n      0x4e487b7100000000000000000000000000000000000000000000000000000000\n        /* \"#utility.yul\":33876:33877   */\n      0x00\n        /* \"#utility.yul\":33869:33957   */\n      mstore\n        /* \"#utility.yul\":33976:33980   */\n      0x11\n        /* \"#utility.yul\":33973:33974   */\n      0x04\n        /* \"#utility.yul\":33966:33981   */\n      mstore\n        /* \"#utility.yul\":34000:34004   */\n      0x24\n        /* \"#utility.yul\":33997:33998   */\n      0x00\n        /* \"#utility.yul\":33990:34005   */\n      revert\n        /* \"#utility.yul\":34017:34250   */\n    tag_294:\n        /* \"#utility.yul\":34056:34059   */\n      0x00\n        /* \"#utility.yul\":34079:34103   */\n      tag_729\n        /* \"#utility.yul\":34097:34102   */\n      dup3\n        /* \"#utility.yul\":34079:34103   */\n      tag_335\n      jump\t// in\n    tag_729:\n        /* \"#utility.yul\":34070:34103   */\n      swap2\n      pop\n        /* \"#utility.yul\":34125:34191   */\n      0xffffffffffffffffffffffffffffffffffffffffffffffffffffffffffffffff\n        /* \"#utility.yul\":34118:34123   */\n      dup3\n        /* \"#utility.yul\":34115:34192   */\n      sub\n        /* \"#utility.yul\":34112:34215   */\n      tag_730\n      jumpi\n        /* \"#utility.yul\":34195:34213   */\n      tag_731\n      tag_410\n      jump\t// in\n    tag_731:\n        /* \"#utility.yul\":34112:34215   */\n    tag_730:\n        /* \"#utility.yul\":34242:34243   */\n      0x01\n        /* \"#utility.yul\":34235:34240   */\n      dup3\n        /* \"#utility.yul\":34231:34244   */\n      add\n        /* \"#utility.yul\":34224:34244   */\n      swap1\n      pop\n        /* \"#utility.yul\":34017:34250   */\n      swap2\n      swap1\n      pop\n      jump\t// out\n        /* \"#utility.yul\":34256:34447   */\n    tag_305:\n        /* \"#utility.yul\":34296:34299   */\n      0x00\n        /* \"#utility.yul\":34315:34335   */\n      tag_733\n        /* \"#utility.yul\":34333:34334   */\n      dup3\n        /* \"#utility.yul\":34315:34335   */\n      tag_335\n      jump\t// in\n    tag_733:\n        /* \"#utility.yul\":34310:34335   */\n      swap2\n      pop\n        /* \"#utility.yul\":34349:34369   */\n      tag_734\n        /* \"#utility.yul\":34367:34368   */\n      dup4\n        /* \"#utility.yul\":34349:34369   */\n      tag_335\n      jump\t// in\n    tag_734:\n        /* \"#utility.yul\":34344:34369   */\n      swap3\n      pop\n        /* \"#utility.yul\":34392:34393   */\n      dup3\n        /* \"#utility.yul\":34389:34390   */\n      dup3\n        /* \"#utility.yul\":34385:34394   */\n      add\n        /* \"#utility.yul\":34378:34394   */\n      swap1\n      pop\n        /* \"#utility.yul\":34413:34416   */\n      dup1\n        /* \"#utility.yul\":34410:34411   */\n      dup3\n        /* \"#utility.yul\":34407:34417   */\n      gt\n        /* \"#utility.yul\":34404:34440   */\n      iszero\n      tag_735\n      jumpi\n        /* \"#utility.yul\":34420:34438   */\n      tag_736\n      tag_410\n      jump\t// in\n    tag_736:\n        /* \"#utility.yul\":34404:34440   */\n    tag_735:\n        /* \"#utility.yul\":34256:34447   */\n      swap3\n      swap2\n      pop\n      pop\n      jump\t// out\n        /* \"#utility.yul\":34453:34567   */\n    tag_411:\n      pop\n      jump\t// out\n        /* \"#utility.yul\":34573:34935   */\n    tag_412:\n        /* \"#utility.yul\":34714:34717   */\n      0x00\n        /* \"#utility.yul\":34735:34800   */\n      tag_739\n        /* \"#utility.yul\":34798:34799   */\n      0x00\n        /* \"#utility.yul\":34793:34796   */\n      dup4\n        /* \"#utility.yul\":34735:34800   */\n      tag_368\n      jump\t// in\n    tag_739:\n        /* \"#utility.yul\":34728:34800   */\n      swap2\n      pop\n        /* \"#utility.yul\":34809:34902   */\n      tag_740\n        /* \"#utility.yul\":34898:34901   */\n      dup3\n        /* \"#utility.yul\":34809:34902   */\n      tag_411\n      jump\t// in\n    tag_740:\n        /* \"#utility.yul\":34927:34928   */\n      0x00\n        /* \"#utility.yul\":34922:34925   */\n      dup3\n        /* \"#utility.yul\":34918:34929   */\n      add\n        /* \"#utility.yul\":34911:34929   */\n      swap1\n      pop\n        /* \"#utility.yul\":34573:34935   */\n      swap2\n      swap1\n      pop\n      jump\t// out\n        /* \"#utility.yul\":34941:35689   */\n    tag_317:\n        /* \"#utility.yul\":35190:35194   */\n      0x00\n        /* \"#utility.yul\":35228:35231   */\n      0x80\n        /* \"#utility.yul\":35217:35226   */\n      dup3\n        /* \"#utility.yul\":35213:35232   */\n      add\n        /* \"#utility.yul\":35205:35232   */\n      swap1\n      pop\n        /* \"#utility.yul\":35242:35313   */\n      tag_742\n        /* \"#utility.yul\":35310:35311   */\n      0x00\n        /* \"#utility.yul\":35299:35308   */\n      dup4\n        /* \"#utility.yul\":35295:35312   */\n      add\n        /* \"#utility.yul\":35286:35292   */\n      dup7\n        /* \"#utility.yul\":35242:35313   */\n      tag_366\n      jump\t// in\n    tag_742:\n        /* \"#utility.yul\":35323:35395   */\n      tag_743\n        /* \"#utility.yul\":35391:35393   */\n      0x20\n        /* \"#utility.yul\":35380:35389   */\n      dup4\n        /* \"#utility.yul\":35376:35394   */\n      add\n        /* \"#utility.yul\":35367:35373   */\n      dup6\n        /* \"#utility.yul\":35323:35395   */\n      tag_366\n      jump\t// in\n    tag_743:\n        /* \"#utility.yul\":35405:35477   */\n      tag_744\n        /* \"#utility.yul\":35473:35475   */\n      0x40\n        /* \"#utility.yul\":35462:35471   */\n      dup4\n        /* \"#utility.yul\":35458:35476   */\n      add\n        /* \"#utility.yul\":35449:35455   */\n      dup5\n        /* \"#utility.yul\":35405:35477   */\n      tag_358\n      jump\t// in\n    tag_744:\n        /* \"#utility.yul\":35524:35533   */\n      dup2\n        /* \"#utility.yul\":35518:35522   */\n      dup2\n        /* \"#utility.yul\":35514:35534   */\n      sub\n        /* \"#utility.yul\":35509:35511   */\n      0x60\n        /* \"#utility.yul\":35498:35507   */\n      dup4\n        /* \"#utility.yul\":35494:35512   */\n      add\n        /* \"#utility.yul\":35487:35535   */\n      mstore\n        /* \"#utility.yul\":35552:35682   */\n      tag_745\n        /* \"#utility.yul\":35677:35681   */\n      dup2\n        /* \"#utility.yul\":35552:35682   */\n      tag_412\n      jump\t// in\n    tag_745:\n        /* \"#utility.yul\":35544:35682   */\n      swap1\n      pop\n        /* \"#utility.yul\":34941:35689   */\n      swap5\n      swap4\n      pop\n      pop\n      pop\n      pop\n      jump\t// out\n        /* \"#utility.yul\":35695:35815   */\n    tag_413:\n        /* \"#utility.yul\":35767:35790   */\n      tag_747\n        /* \"#utility.yul\":35784:35789   */\n      dup2\n        /* \"#utility.yul\":35767:35790   */\n      tag_356\n      jump\t// in\n    tag_747:\n        /* \"#utility.yul\":35760:35765   */\n      dup2\n        /* \"#utility.yul\":35757:35791   */\n      eq\n        /* \"#utility.yul\":35747:35809   */\n      tag_748\n      jumpi\n        /* \"#utility.yul\":35805:35806   */\n      0x00\n        /* \"#utility.yul\":35802:35803   */\n      dup1\n        /* \"#utility.yul\":35795:35807   */\n      revert\n        /* \"#utility.yul\":35747:35809   */\n    tag_748:\n        /* \"#utility.yul\":35695:35815   */\n      pop\n      jump\t// out\n        /* \"#utility.yul\":35821:35962   */\n    tag_414:\n        /* \"#utility.yul\":35877:35882   */\n      0x00\n        /* \"#utility.yul\":35908:35914   */\n      dup2\n        /* \"#utility.yul\":35902:35915   */\n      mload\n        /* \"#utility.yul\":35893:35915   */\n      swap1\n      pop\n        /* \"#utility.yul\":35924:35956   */\n      tag_750\n        /* \"#utility.yul\":35950:35955   */\n      dup2\n        /* \"#utility.yul\":35924:35956   */\n      tag_413\n      jump\t// in\n    tag_750:\n        /* \"#utility.yul\":35821:35962   */\n      swap3\n      swap2\n      pop\n      pop\n      jump\t// out\n        /* \"#utility.yul\":35968:36317   */\n    tag_321:\n        /* \"#utility.yul\":36037:36043   */\n      0x00\n        /* \"#utility.yul\":36086:36088   */\n      0x20\n        /* \"#utility.yul\":36074:36083   */\n      dup3\n        /* \"#utility.yul\":36065:36072   */\n      dup5\n        /* \"#utility.yul\":36061:36084   */\n      sub\n        /* \"#utility.yul\":36057:36089   */\n      slt\n        /* \"#utility.yul\":36054:36173   */\n      iszero\n      tag_752\n      jumpi\n        /* \"#utility.yul\":36092:36171   */\n      tag_753\n      tag_329\n      jump\t// in\n    tag_753:\n        /* \"#utility.yul\":36054:36173   */\n    tag_752:\n        /* \"#utility.yul\":36212:36213   */\n      0x00\n        /* \"#utility.yul\":36237:36300   */\n      tag_754\n        /* \"#utility.yul\":36292:36299   */\n      dup5\n        /* \"#utility.yul\":36283:36289   */\n      dup3\n        /* \"#utility.yul\":36272:36281   */\n      dup6\n        /* \"#utility.yul\":36268:36290   */\n      add\n        /* \"#utility.yul\":36237:36300   */\n      tag_414\n      jump\t// in\n    tag_754:\n        /* \"#utility.yul\":36227:36300   */\n      swap2\n      pop\n        /* \"#utility.yul\":36183:36310   */\n      pop\n        /* \"#utility.yul\":35968:36317   */\n      swap3\n      swap2\n      pop\n      pop\n      jump\t// out\n\n    auxdata: 0xa2646970667358221220526a3a1306af304712f74f9e0e04f6f4ad54d5485adb25a152dffbb530fac5fb64736f6c634300081a0033\n}\n",
				"bytecode": {
					"linkReferences": {},
					"object": "608060405234801561000f575f80fd5b5030335f6040518060400160405280600b81526020017f42696e616e6365205553440000000000000000000000000000000000000000008152506040518060400160405280600481526020017f4255534400000000000000000000000000000000000000000000000000000000815250816003908161008e9190610872565b50806004908161009e9190610872565b5050505f8114806100af5750600181145b6100ee576040517f08c379a00000000000000000000000000000000000000000000000000000000081526004016100e5906109c1565b60405180910390fd5b8260085f6101000a81548173ffffffffffffffffffffffffffffffffffffffff021916908373ffffffffffffffffffffffffffffffffffffffff1602179055508160095f6101000a81548173ffffffffffffffffffffffffffffffffffffffff021916908373ffffffffffffffffffffffffffffffffffffffff16021790555080600a81905550505050610193336a52b7d2dcc80cd2e40000006101b360201b60201c565b6101ae333069021e19e0c9bab240000061023860201b60201c565b610af4565b5f73ffffffffffffffffffffffffffffffffffffffff168273ffffffffffffffffffffffffffffffffffffffff1603610223575f6040517fec442f0500000000000000000000000000000000000000000000000000000000815260040161021a9190610a1e565b60405180910390fd5b6102345f838361025060201b60201c565b5050565b61024b838383600161046960201b60201c565b505050565b5f73ffffffffffffffffffffffffffffffffffffffff168373ffffffffffffffffffffffffffffffffffffffff16036102a0578060025f8282546102949190610a64565b9250508190555061036e565b5f805f8573ffffffffffffffffffffffffffffffffffffffff1673ffffffffffffffffffffffffffffffffffffffff1681526020019081526020015f2054905081811015610329578381836040517fe450d38c00000000000000000000000000000000000000000000000000000000815260040161032093929190610aa6565b60405180910390fd5b8181035f808673ffffffffffffffffffffffffffffffffffffffff1673ffffffffffffffffffffffffffffffffffffffff1681526020019081526020015f2081905550505b5f73ffffffffffffffffffffffffffffffffffffffff168273ffffffffffffffffffffffffffffffffffffffff16036103b5578060025f82825403925050819055506103ff565b805f808473ffffffffffffffffffffffffffffffffffffffff1673ffffffffffffffffffffffffffffffffffffffff1681526020019081526020015f205f82825401925050819055505b8173ffffffffffffffffffffffffffffffffffffffff168373ffffffffffffffffffffffffffffffffffffffff167fddf252ad1be2c89b69c2b068fc378daa952ba7f163c4a11628f55a4df523b3ef8360405161045c9190610adb565b60405180910390a3505050565b5f73ffffffffffffffffffffffffffffffffffffffff168473ffffffffffffffffffffffffffffffffffffffff16036104d9575f6040517fe602df050000000000000000000000000000000000000000000000000000000081526004016104d09190610a1e565b60405180910390fd5b5f73ffffffffffffffffffffffffffffffffffffffff168373ffffffffffffffffffffffffffffffffffffffff1603610549575f6040517f94280d620000000000000000000000000000000000000000000000000000000081526004016105409190610a1e565b60405180910390fd5b8160015f8673ffffffffffffffffffffffffffffffffffffffff1673ffffffffffffffffffffffffffffffffffffffff1681526020019081526020015f205f8573ffffffffffffffffffffffffffffffffffffffff1673ffffffffffffffffffffffffffffffffffffffff1681526020019081526020015f20819055508015610632578273ffffffffffffffffffffffffffffffffffffffff168473ffffffffffffffffffffffffffffffffffffffff167f8c5be1e5ebec7d5bd14f71427d1e84f3dd0314c0f7b2291e5b200ac8c7c3b925846040516106299190610adb565b60405180910390a35b50505050565b5f81519050919050565b7f4e487b71000000000000000000000000000000000000000000000000000000005f52604160045260245ffd5b7f4e487b71000000000000000000000000000000000000000000000000000000005f52602260045260245ffd5b5f60028204905060018216806106b357607f821691505b6020821081036106c6576106c561066f565b5b50919050565b5f819050815f5260205f209050919050565b5f6020601f8301049050919050565b5f82821b905092915050565b5f600883026107287fffffffffffffffffffffffffffffffffffffffffffffffffffffffffffffffff826106ed565b61073286836106ed565b95508019841693508086168417925050509392505050565b5f819050919050565b5f819050919050565b5f61077661077161076c8461074a565b610753565b61074a565b9050919050565b5f819050919050565b61078f8361075c565b6107a361079b8261077d565b8484546106f9565b825550505050565b5f90565b6107b76107ab565b6107c2818484610786565b505050565b5b818110156107e5576107da5f826107af565b6001810190506107c8565b5050565b601f82111561082a576107fb816106cc565b610804846106de565b81016020851015610813578190505b61082761081f856106de565b8301826107c7565b50505b505050565b5f82821c905092915050565b5f61084a5f198460080261082f565b1980831691505092915050565b5f610862838361083b565b9150826002028217905092915050565b61087b82610638565b67ffffffffffffffff81111561089457610893610642565b5b61089e825461069c565b6108a98282856107e9565b5f60209050601f8311600181146108da575f84156108c8578287015190505b6108d28582610857565b865550610939565b601f1984166108e8866106cc565b5f5b8281101561090f578489015182556001820191506020850194506020810190506108ea565b8683101561092c5784890151610928601f89168261083b565b8355505b6001600288020188555050505b505050505050565b5f82825260208201905092915050565b7f4f6e6c792030206f7220312061636365707465642061732061697264726f70205f8201527f7479706500000000000000000000000000000000000000000000000000000000602082015250565b5f6109ab602483610941565b91506109b682610951565b604082019050919050565b5f6020820190508181035f8301526109d88161099f565b9050919050565b5f73ffffffffffffffffffffffffffffffffffffffff82169050919050565b5f610a08826109df565b9050919050565b610a18816109fe565b82525050565b5f602082019050610a315f830184610a0f565b92915050565b7f4e487b71000000000000000000000000000000000000000000000000000000005f52601160045260245ffd5b5f610a6e8261074a565b9150610a798361074a565b9250828201905080821115610a9157610a90610a37565b5b92915050565b610aa08161074a565b82525050565b5f606082019050610ab95f830186610a0f565b610ac66020830185610a97565b610ad36040830184610a97565b949350505050565b5f602082019050610aee5f830184610a97565b92915050565b612b2c80610b015f395ff3fe608060405234801561000f575f80fd5b5060043610610114575f3560e01c80636f9170f6116100a0578063a2efa6ae1161006f578063a2efa6ae1461031c578063a9059cbb1461034c578063d826f88f1461037c578063dca11ab81461039a578063dd62ed3e146103ca57610114565b80636f9170f61461026e57806370a082311461029e57806395d89b41146102ce578063a0712d68146102ec57610114565b806318160ddd116100e757806318160ddd146101b457806323b872dd146101d2578063313ce567146102025780634e41cfdb1461022057806351d6e8a41461025057610114565b806306fdde0314610118578063095ea7b31461013657806309a9d76c14610166578063150b7a0214610184575b5f80fd5b6101206103fa565b60405161012d91906119c8565b60405180910390f35b610150600480360381019061014b9190611a86565b61048a565b60405161015d9190611ade565b60405180910390f35b61016e6104ac565b60405161017b9190611bae565b60405180910390f35b61019e60048036038101906101999190611cfa565b610537565b6040516101ab9190611db4565b60405180910390f35b6101bc610587565b6040516101c99190611ddc565b60405180910390f35b6101ec60048036038101906101e79190611df5565b610590565b6040516101f99190611ade565b60405180910390f35b61020a6105be565b6040516102179190611e60565b60405180910390f35b61023a60048036038101906102359190611ed6565b6105c6565b6040516102479190611ade565b60405180910390f35b6102586105d8565b6040516102659190611ddc565b60405180910390f35b61028860048036038101906102839190611f21565b6105e1565b6040516102959190611ade565b60405180910390f35b6102b860048036038101906102b39190611f21565b6105f2565b6040516102c59190611ddc565b60405180910390f35b6102d6610637565b6040516102e391906119c8565b60405180910390f35b61030660048036038101906103019190611f4c565b6106c7565b6040516103139190611ade565b60405180910390f35b61033660048036038101906103319190611fcc565b6106d7565b6040516103439190611ade565b60405180910390f35b61036660048036038101906103619190611a86565b6106e9565b6040516103739190611ade565b60405180910390f35b61038461070b565b6040516103919190611ade565b60405180910390f35b6103b460048036038101906103af9190611f21565b610718565b6040516103c19190611ade565b60405180910390f35b6103e460048036038101906103df9190612017565b61078d565b6040516103f19190611ddc565b60405180910390f35b60606003805461040990612082565b80601f016020809104026020016040519081016040528092919081815260200182805461043590612082565b80156104805780601f1061045757610100808354040283529160200191610480565b820191905f5260205f20905b81548152906001019060200180831161046357829003601f168201915b5050505050905090565b5f8061049461080f565b90506104a1818585610816565b600191505092915050565b6060600680548060200260200160405190810160405280929190818152602001828054801561052d57602002820191905f5260205f20905b815f9054906101000a900473ffffffffffffffffffffffffffffffffffffffff1673ffffffffffffffffffffffffffffffffffffffff16815260200190600101908083116104e4575b5050505050905090565b5f7f541cb930dbb178d9d0a40b098c309dda5a70e722066990941158d1f77b5bfcf38585858560405161056d9493929190612113565b60405180910390a163150b7a0260e01b9050949350505050565b5f600254905090565b5f8061059a61080f565b90506105a7858285610828565b6105b28585856108bb565b60019150509392505050565b5f6012905090565b5f6105d183836109ab565b5092915050565b5f600754905090565b5f6105eb82610c14565b9050919050565b5f805f8373ffffffffffffffffffffffffffffffffffffffff1673ffffffffffffffffffffffffffffffffffffffff1681526020019081526020015f20549050919050565b60606004805461064690612082565b80601f016020809104026020016040519081016040528092919081815260200182805461067290612082565b80156106bd5780601f10610694576101008083540402835291602001916106bd565b820191905f5260205f20905b8154815290600101906020018083116106a057829003601f168201915b5050505050905090565b5f6106d23383610cb9565b919050565b5f6106e28383610d38565b5092915050565b5f806106f361080f565b90506107008185856108bb565b600191505092915050565b5f61071461145b565b5090565b5f60055f60075481526020019081526020015f205f8373ffffffffffffffffffffffffffffffffffffffff1673ffffffffffffffffffffffffffffffffffffffff1681526020019081526020015f205f9054906101000a900460ff16158015610786575061078582610c14565b5b9050919050565b5f60015f8473ffffffffffffffffffffffffffffffffffffffff1673ffffffffffffffffffffffffffffffffffffffff1681526020019081526020015f205f8373ffffffffffffffffffffffffffffffffffffffff1673ffffffffffffffffffffffffffffffffffffffff1681526020019081526020015f2054905092915050565b5f33905090565b610823838383600161147a565b505050565b5f610833848461078d565b90507fffffffffffffffffffffffffffffffffffffffffffffffffffffffffffffffff8110156108b557818110156108a6578281836040517ffb8f41b200000000000000000000000000000000000000000000000000000000815260040161089d9392919061215d565b60405180910390fd5b6108b484848484035f61147a565b5b50505050565b5f73ffffffffffffffffffffffffffffffffffffffff168373ffffffffffffffffffffffffffffffffffffffff160361092b575f6040517f96c6fd1e0000000000000000000000000000000000000000000000000000000081526004016109229190612192565b60405180910390fd5b5f73ffffffffffffffffffffffffffffffffffffffff168273ffffffffffffffffffffffffffffffffffffffff160361099b575f6040517fec442f050000000000000000000000000000000000000000000000000000000081526004016109929190612192565b60405180910390fd5b6109a6838383611649565b505050565b5f805f90505b83839050811015610bd0575f73ffffffffffffffffffffffffffffffffffffffff168484838181106109e6576109e56121ab565b5b90506020020160208101906109fb9190611f21565b73ffffffffffffffffffffffffffffffffffffffff1603610a51576040517f08c379a0000000000000000000000000000000000000000000000000000000008152600401610a4890612222565b60405180910390fd5b6001600a5403610acc57610a8c848483818110610a7157610a706121ab565b5b9050602002016020810190610a869190611f21565b5f611862565b610acb576040517f08c379a0000000000000000000000000000000000000000000000000000000008152600401610ac29061228a565b60405180910390fd5b5b610afc848483818110610ae257610ae16121ab565b5b9050602002016020810190610af79190611f21565b6105e1565b15610b3c576040517f08c379a0000000000000000000000000000000000000000000000000000000008152600401610b33906122f2565b60405180910390fd5b6006848483818110610b5157610b506121ab565b5b9050602002016020810190610b669190611f21565b908060018154018082558091505060019003905f5260205f20015f9091909190916101000a81548173ffffffffffffffffffffffffffffffffffffffff021916908373ffffffffffffffffffffffffffffffffffffffff16021790555080806001019150506109b1565b507f8f47a973c821cca98d90b2c53821dc01e2971b8b14db8aae5776f42ea6cccc9a8383604051610c02929190612396565b60405180910390a16001905092915050565b5f8060068054905090505f5b81811015610cae578373ffffffffffffffffffffffffffffffffffffffff1660068281548110610c5357610c526121ab565b5b905f5260205f20015f9054906101000a900473ffffffffffffffffffffffffffffffffffffffff1673ffffffffffffffffffffffffffffffffffffffff1603610ca157600192505050610cb4565b8080600101915050610c20565b505f9150505b919050565b5f73ffffffffffffffffffffffffffffffffffffffff168273ffffffffffffffffffffffffffffffffffffffff1603610d29575f6040517fec442f05000000000000000000000000000000000000000000000000000000008152600401610d209190612192565b60405180910390fd5b610d345f8383611649565b5050565b5f8073ffffffffffffffffffffffffffffffffffffffff1660085f9054906101000a900473ffffffffffffffffffffffffffffffffffffffff1673ffffffffffffffffffffffffffffffffffffffff1603610dc8576040517f08c379a0000000000000000000000000000000000000000000000000000000008152600401610dbf90612402565b60405180910390fd5b5f60068054905011610e0f576040517f08c379a0000000000000000000000000000000000000000000000000000000008152600401610e069061246a565b60405180910390fd5b8282905060068054905014610e59576040517f08c379a0000000000000000000000000000000000000000000000000000000008152600401610e509061251e565b60405180910390fd5b5f805f600a5403610e8d5760085f9054906101000a900473ffffffffffffffffffffffffffffffffffffffff169050610eb2565b60085f9054906101000a900473ffffffffffffffffffffffffffffffffffffffff1691505b7fe92cfca7bdc1f76f97b0cecc8d1ddabb94d01c99d9429c0963302a2f2a92714d60068686604051610ee693929190612694565b60405180910390a15f805f90505b60068054905081101561144d5760068181548110610f1557610f146121ab565b5b905f5260205f20015f9054906101000a900473ffffffffffffffffffffffffffffffffffffffff1691505f600a540361104057868682818110610f5b57610f5a6121ab565b5b905060200201358373ffffffffffffffffffffffffffffffffffffffff166370a0823160095f9054906101000a900473ffffffffffffffffffffffffffffffffffffffff166040518263ffffffff1660e01b8152600401610fbc9190612192565b602060405180830381865afa158015610fd7573d5f803e3d5ffd5b505050506040513d601f19601f82011682018060405250810190610ffb91906126df565b1161103b576040517f08c379a000000000000000000000000000000000000000000000000000000000815260040161103290612754565b60405180910390fd5b611160565b60095f9054906101000a900473ffffffffffffffffffffffffffffffffffffffff1673ffffffffffffffffffffffffffffffffffffffff168473ffffffffffffffffffffffffffffffffffffffff16636352211e8989858181106110a7576110a66121ab565b5b905060200201356040518263ffffffff1660e01b81526004016110ca9190611ddc565b602060405180830381865afa1580156110e5573d5f803e3d5ffd5b505050506040513d601f19601f820116820180604052508101906111099190612786565b73ffffffffffffffffffffffffffffffffffffffff161461115f576040517f08c379a0000000000000000000000000000000000000000000000000000000008152600401611156906127fb565b60405180910390fd5b5b60055f60075481526020019081526020015f205f8373ffffffffffffffffffffffffffffffffffffffff1673ffffffffffffffffffffffffffffffffffffffff1681526020019081526020015f205f9054906101000a900460ff1661144057600160055f60075481526020019081526020015f205f8473ffffffffffffffffffffffffffffffffffffffff1673ffffffffffffffffffffffffffffffffffffffff1681526020019081526020015f205f6101000a81548160ff0219169083151502179055505f600a5403611283577fccd301c3c585e9d034f1404f101f4d1b3828a9eb5a4bc60b5c2935736dffe4a9878783818110611262576112616121ab565b5b905060200201356040516112769190612863565b60405180910390a16112d4565b7fccd301c3c585e9d034f1404f101f4d1b3828a9eb5a4bc60b5c2935736dffe4a98787838181106112b7576112b66121ab565b5b905060200201356040516112cb91906128d9565b60405180910390a15b5f600a540361139a578273ffffffffffffffffffffffffffffffffffffffff166323b872dd60095f9054906101000a900473ffffffffffffffffffffffffffffffffffffffff16848a8a8681811061132f5761132e6121ab565b5b905060200201356040518463ffffffff1660e01b815260040161135493929190612905565b6020604051808303815f875af1158015611370573d5f803e3d5ffd5b505050506040513d601f19601f820116820180604052508101906113949190612964565b5061143f565b8373ffffffffffffffffffffffffffffffffffffffff166323b872dd60095f9054906101000a900473ffffffffffffffffffffffffffffffffffffffff16848a8a868181106113ec576113eb6121ab565b5b905060200201356040518463ffffffff1660e01b815260040161141193929190612905565b5f604051808303815f87803b158015611428575f80fd5b505af115801561143a573d5f803e3d5ffd5b505050505b5b8080600101915050610ef4565b506001935050505092915050565b5f60075f81548092919061146e906129bc565b91905055506001905090565b5f73ffffffffffffffffffffffffffffffffffffffff168473ffffffffffffffffffffffffffffffffffffffff16036114ea575f6040517fe602df050000000000000000000000000000000000000000000000000000000081526004016114e19190612192565b60405180910390fd5b5f73ffffffffffffffffffffffffffffffffffffffff168373ffffffffffffffffffffffffffffffffffffffff160361155a575f6040517f94280d620000000000000000000000000000000000000000000000000000000081526004016115519190612192565b60405180910390fd5b8160015f8673ffffffffffffffffffffffffffffffffffffffff1673ffffffffffffffffffffffffffffffffffffffff1681526020019081526020015f205f8573ffffffffffffffffffffffffffffffffffffffff1673ffffffffffffffffffffffffffffffffffffffff1681526020019081526020015f20819055508015611643578273ffffffffffffffffffffffffffffffffffffffff168473ffffffffffffffffffffffffffffffffffffffff167f8c5be1e5ebec7d5bd14f71427d1e84f3dd0314c0f7b2291e5b200ac8c7c3b9258460405161163a9190611ddc565b60405180910390a35b50505050565b5f73ffffffffffffffffffffffffffffffffffffffff168373ffffffffffffffffffffffffffffffffffffffff1603611699578060025f82825461168d9190612a03565b92505081905550611767565b5f805f8573ffffffffffffffffffffffffffffffffffffffff1673ffffffffffffffffffffffffffffffffffffffff1681526020019081526020015f2054905081811015611722578381836040517fe450d38c0000000000000000000000000000000000000000000000000000000081526004016117199392919061215d565b60405180910390fd5b8181035f808673ffffffffffffffffffffffffffffffffffffffff1673ffffffffffffffffffffffffffffffffffffffff1681526020019081526020015f2081905550505b5f73ffffffffffffffffffffffffffffffffffffffff168273ffffffffffffffffffffffffffffffffffffffff16036117ae578060025f82825403925050819055506117f8565b805f808473ffffffffffffffffffffffffffffffffffffffff1673ffffffffffffffffffffffffffffffffffffffff1681526020019081526020015f205f82825401925050819055505b8173ffffffffffffffffffffffffffffffffffffffff168373ffffffffffffffffffffffffffffffffffffffff167fddf252ad1be2c89b69c2b068fc378daa952ba7f163c4a11628f55a4df523b3ef836040516118559190611ddc565b60405180910390a3505050565b5f8061186d8461194e565b111561187c5760019050611948565b5f83905063150b7a0260e01b7bffffffffffffffffffffffffffffffffffffffffffffffffffffffff19168173ffffffffffffffffffffffffffffffffffffffff1663150b7a023033876040518463ffffffff1660e01b81526004016118e493929190612a59565b6020604051808303815f875af1158015611900573d5f803e3d5ffd5b505050506040513d601f19601f820116820180604052508101906119249190612acb565b7bffffffffffffffffffffffffffffffffffffffffffffffffffffffff1916149150505b92915050565b5f813b9050919050565b5f81519050919050565b5f82825260208201905092915050565b8281835e5f83830152505050565b5f601f19601f8301169050919050565b5f61199a82611958565b6119a48185611962565b93506119b4818560208601611972565b6119bd81611980565b840191505092915050565b5f6020820190508181035f8301526119e08184611990565b905092915050565b5f604051905090565b5f80fd5b5f80fd5b5f73ffffffffffffffffffffffffffffffffffffffff82169050919050565b5f611a22826119f9565b9050919050565b611a3281611a18565b8114611a3c575f80fd5b50565b5f81359050611a4d81611a29565b92915050565b5f819050919050565b611a6581611a53565b8114611a6f575f80fd5b50565b5f81359050611a8081611a5c565b92915050565b5f8060408385031215611a9c57611a9b6119f1565b5b5f611aa985828601611a3f565b9250506020611aba85828601611a72565b9150509250929050565b5f8115159050919050565b611ad881611ac4565b82525050565b5f602082019050611af15f830184611acf565b92915050565b5f81519050919050565b5f82825260208201905092915050565b5f819050602082019050919050565b611b2981611a18565b82525050565b5f611b3a8383611b20565b60208301905092915050565b5f602082019050919050565b5f611b5c82611af7565b611b668185611b01565b9350611b7183611b11565b805f5b83811015611ba1578151611b888882611b2f565b9750611b9383611b46565b925050600181019050611b74565b5085935050505092915050565b5f6020820190508181035f830152611bc68184611b52565b905092915050565b5f80fd5b5f80fd5b7f4e487b71000000000000000000000000000000000000000000000000000000005f52604160045260245ffd5b611c0c82611980565b810181811067ffffffffffffffff82111715611c2b57611c2a611bd6565b5b80604052505050565b5f611c3d6119e8565b9050611c498282611c03565b919050565b5f67ffffffffffffffff821115611c6857611c67611bd6565b5b611c7182611980565b9050602081019050919050565b828183375f83830152505050565b5f611c9e611c9984611c4e565b611c34565b905082815260208101848484011115611cba57611cb9611bd2565b5b611cc5848285611c7e565b509392505050565b5f82601f830112611ce157611ce0611bce565b5b8135611cf1848260208601611c8c565b91505092915050565b5f805f8060808587031215611d1257611d116119f1565b5b5f611d1f87828801611a3f565b9450506020611d3087828801611a3f565b9350506040611d4187828801611a72565b925050606085013567ffffffffffffffff811115611d6257611d616119f5565b5b611d6e87828801611ccd565b91505092959194509250565b5f7fffffffff0000000000000000000000000000000000000000000000000000000082169050919050565b611dae81611d7a565b82525050565b5f602082019050611dc75f830184611da5565b92915050565b611dd681611a53565b82525050565b5f602082019050611def5f830184611dcd565b92915050565b5f805f60608486031215611e0c57611e0b6119f1565b5b5f611e1986828701611a3f565b9350506020611e2a86828701611a3f565b9250506040611e3b86828701611a72565b9150509250925092565b5f60ff82169050919050565b611e5a81611e45565b82525050565b5f602082019050611e735f830184611e51565b92915050565b5f80fd5b5f80fd5b5f8083601f840112611e9657611e95611bce565b5b8235905067ffffffffffffffff811115611eb357611eb2611e79565b5b602083019150836020820283011115611ecf57611ece611e7d565b5b9250929050565b5f8060208385031215611eec57611eeb6119f1565b5b5f83013567ffffffffffffffff811115611f0957611f086119f5565b5b611f1585828601611e81565b92509250509250929050565b5f60208284031215611f3657611f356119f1565b5b5f611f4384828501611a3f565b91505092915050565b5f60208284031215611f6157611f606119f1565b5b5f611f6e84828501611a72565b91505092915050565b5f8083601f840112611f8c57611f8b611bce565b5b8235905067ffffffffffffffff811115611fa957611fa8611e79565b5b602083019150836020820283011115611fc557611fc4611e7d565b5b9250929050565b5f8060208385031215611fe257611fe16119f1565b5b5f83013567ffffffffffffffff811115611fff57611ffe6119f5565b5b61200b85828601611f77565b92509250509250929050565b5f806040838503121561202d5761202c6119f1565b5b5f61203a85828601611a3f565b925050602061204b85828601611a3f565b9150509250929050565b7f4e487b71000000000000000000000000000000000000000000000000000000005f52602260045260245ffd5b5f600282049050600182168061209957607f821691505b6020821081036120ac576120ab612055565b5b50919050565b6120bb81611a18565b82525050565b5f81519050919050565b5f82825260208201905092915050565b5f6120e5826120c1565b6120ef81856120cb565b93506120ff818560208601611972565b61210881611980565b840191505092915050565b5f6080820190506121265f8301876120b2565b61213360208301866120b2565b6121406040830185611dcd565b818103606083015261215281846120db565b905095945050505050565b5f6060820190506121705f8301866120b2565b61217d6020830185611dcd565b61218a6040830184611dcd565b949350505050565b5f6020820190506121a55f8301846120b2565b92915050565b7f4e487b71000000000000000000000000000000000000000000000000000000005f52603260045260245ffd5b7f5a65726f20416464726573732070726573656e740000000000000000000000005f82015250565b5f61220c601483611962565b9150612217826121d8565b602082019050919050565b5f6020820190508181035f83015261223981612200565b9050919050565b7f4661756c7479206164647265737320666f756e640000000000000000000000005f82015250565b5f612274601483611962565b915061227f82612240565b602082019050919050565b5f6020820190508181035f8301526122a181612268565b9050919050565b7f4164647265737320616c6c7265616479204578697374730000000000000000005f82015250565b5f6122dc601783611962565b91506122e7826122a8565b602082019050919050565b5f6020820190508181035f830152612309816122d0565b9050919050565b5f819050919050565b5f6123276020840184611a3f565b905092915050565b5f602082019050919050565b5f6123468385611b01565b935061235182612310565b805f5b85811015612389576123668284612319565b6123708882611b2f565b975061237b8361232f565b925050600181019050612354565b5085925050509392505050565b5f6020820190508181035f8301526123af81848661233b565b90509392505050565b7f5a65726f206164647265737300000000000000000000000000000000000000005f82015250565b5f6123ec600c83611962565b91506123f7826123b8565b602082019050919050565b5f6020820190508181035f830152612419816123e0565b9050919050565b7f4e6f2077686974656c69737465642061646472657373000000000000000000005f82015250565b5f612454601683611962565b915061245f82612420565b602082019050919050565b5f6020820190508181035f83015261248181612448565b9050919050565b7f4e756d626572206f6620546f6b656e7320616e64206e756d626572206f6620775f8201527f686974656c69737465642061646472657373657320617265206e6f742065717560208201527f616c000000000000000000000000000000000000000000000000000000000000604082015250565b5f612508604283611962565b915061251382612488565b606082019050919050565b5f6020820190508181035f830152612535816124fc565b9050919050565b5f81549050919050565b5f819050815f5260205f209050919050565b5f815f1c9050919050565b5f73ffffffffffffffffffffffffffffffffffffffff82169050919050565b5f61259461258f83612558565b612563565b9050919050565b5f6125a68254612582565b9050919050565b5f600182019050919050565b5f6125c38261253c565b6125cd8185611b01565b93506125d883612546565b805f5b8381101561260f576125ec8261259b565b6125f68882611b2f565b9750612601836125ad565b9250506001810190506125db565b5085935050505092915050565b5f82825260208201905092915050565b5f80fd5b82818337505050565b5f612644838561261c565b93507f07ffffffffffffffffffffffffffffffffffffffffffffffffffffffffffffff8311156126775761267661262c565b5b602083029250612688838584612630565b82840190509392505050565b5f6040820190508181035f8301526126ac81866125b9565b905081810360208301526126c1818486612639565b9050949350505050565b5f815190506126d981611a5c565b92915050565b5f602082840312156126f4576126f36119f1565b5b5f612701848285016126cb565b91505092915050565b7f4e6f7420656e6f7567682062616c616e636500000000000000000000000000005f82015250565b5f61273e601283611962565b91506127498261270a565b602082019050919050565b5f6020820190508181035f83015261276b81612732565b9050919050565b5f8151905061278081611a29565b92915050565b5f6020828403121561279b5761279a6119f1565b5b5f6127a884828501612772565b91505092915050565b7f4e6f7420746865206f776e6572206f662074686973204e46545b5d00000000005f82015250565b5f6127e5601b83611962565b91506127f0826127b1565b602082019050919050565b5f6020820190508181035f830152612812816127d9565b9050919050565b7f546f6b656e0000000000000000000000000000000000000000000000000000005f82015250565b5f61284d600583611962565b915061285882612819565b602082019050919050565b5f6040820190506128765f830184611dcd565b818103602083015261288781612841565b905092915050565b7f4e667400000000000000000000000000000000000000000000000000000000005f82015250565b5f6128c3600383611962565b91506128ce8261288f565b602082019050919050565b5f6040820190506128ec5f830184611dcd565b81810360208301526128fd816128b7565b905092915050565b5f6060820190506129185f8301866120b2565b61292560208301856120b2565b6129326040830184611dcd565b949350505050565b61294381611ac4565b811461294d575f80fd5b50565b5f8151905061295e8161293a565b92915050565b5f60208284031215612979576129786119f1565b5b5f61298684828501612950565b91505092915050565b7f4e487b71000000000000000000000000000000000000000000000000000000005f52601160045260245ffd5b5f6129c682611a53565b91507fffffffffffffffffffffffffffffffffffffffffffffffffffffffffffffffff82036129f8576129f761298f565b5b600182019050919050565b5f612a0d82611a53565b9150612a1883611a53565b9250828201905080821115612a3057612a2f61298f565b5b92915050565b50565b5f612a445f836120cb565b9150612a4f82612a36565b5f82019050919050565b5f608082019050612a6c5f8301866120b2565b612a7960208301856120b2565b612a866040830184611dcd565b8181036060830152612a9781612a39565b9050949350505050565b612aaa81611d7a565b8114612ab4575f80fd5b50565b5f81519050612ac581612aa1565b92915050565b5f60208284031215612ae057612adf6119f1565b5b5f612aed84828501612ab7565b9150509291505056fea2646970667358221220526a3a1306af304712f74f9e0e04f6f4ad54d5485adb25a152dffbb530fac5fb64736f6c634300081a0033",
					"opcodes": "PUSH1 0x80 PUSH1 0x40 MSTORE CALLVALUE DUP1 ISZERO PUSH2 0xF JUMPI PUSH0 DUP1 REVERT JUMPDEST POP ADDRESS CALLER PUSH0 PUSH1 0x40 MLOAD DUP1 PUSH1 0x40 ADD PUSH1 0x40 MSTORE DUP1 PUSH1 0xB DUP2 MSTORE PUSH1 0x20 ADD PUSH32 0x42696E616E636520555344000000000000000000000000000000000000000000 DUP2 MSTORE POP PUSH1 0x40 MLOAD DUP1 PUSH1 0x40 ADD PUSH1 0x40 MSTORE DUP1 PUSH1 0x4 DUP2 MSTORE PUSH1 0x20 ADD PUSH32 0x4255534400000000000000000000000000000000000000000000000000000000 DUP2 MSTORE POP DUP2 PUSH1 0x3 SWAP1 DUP2 PUSH2 0x8E SWAP2 SWAP1 PUSH2 0x872 JUMP JUMPDEST POP DUP1 PUSH1 0x4 SWAP1 DUP2 PUSH2 0x9E SWAP2 SWAP1 PUSH2 0x872 JUMP JUMPDEST POP POP POP PUSH0 DUP2 EQ DUP1 PUSH2 0xAF JUMPI POP PUSH1 0x1 DUP2 EQ JUMPDEST PUSH2 0xEE JUMPI PUSH1 0x40 MLOAD PUSH32 0x8C379A000000000000000000000000000000000000000000000000000000000 DUP2 MSTORE PUSH1 0x4 ADD PUSH2 0xE5 SWAP1 PUSH2 0x9C1 JUMP JUMPDEST PUSH1 0x40 MLOAD DUP1 SWAP2 SUB SWAP1 REVERT JUMPDEST DUP3 PUSH1 0x8 PUSH0 PUSH2 0x100 EXP DUP2 SLOAD DUP2 PUSH20 0xFFFFFFFFFFFFFFFFFFFFFFFFFFFFFFFFFFFFFFFF MUL NOT AND SWAP1 DUP4 PUSH20 0xFFFFFFFFFFFFFFFFFFFFFFFFFFFFFFFFFFFFFFFF AND MUL OR SWAP1 SSTORE POP DUP2 PUSH1 0x9 PUSH0 PUSH2 0x100 EXP DUP2 SLOAD DUP2 PUSH20 0xFFFFFFFFFFFFFFFFFFFFFFFFFFFFFFFFFFFFFFFF MUL NOT AND SWAP1 DUP4 PUSH20 0xFFFFFFFFFFFFFFFFFFFFFFFFFFFFFFFFFFFFFFFF AND MUL OR SWAP1 SSTORE POP DUP1 PUSH1 0xA DUP2 SWAP1 SSTORE POP POP POP POP PUSH2 0x193 CALLER PUSH11 0x52B7D2DCC80CD2E4000000 PUSH2 0x1B3 PUSH1 0x20 SHL PUSH1 0x20 SHR JUMP JUMPDEST PUSH2 0x1AE CALLER ADDRESS PUSH10 0x21E19E0C9BAB2400000 PUSH2 0x238 PUSH1 0x20 SHL PUSH1 0x20 SHR JUMP JUMPDEST PUSH2 0xAF4 JUMP JUMPDEST PUSH0 PUSH20 0xFFFFFFFFFFFFFFFFFFFFFFFFFFFFFFFFFFFFFFFF AND DUP3 PUSH20 0xFFFFFFFFFFFFFFFFFFFFFFFFFFFFFFFFFFFFFFFF AND SUB PUSH2 0x223 JUMPI PUSH0 PUSH1 0x40 MLOAD PUSH32 0xEC442F0500000000000000000000000000000000000000000000000000000000 DUP2 MSTORE PUSH1 0x4 ADD PUSH2 0x21A SWAP2 SWAP1 PUSH2 0xA1E JUMP JUMPDEST PUSH1 0x40 MLOAD DUP1 SWAP2 SUB SWAP1 REVERT JUMPDEST PUSH2 0x234 PUSH0 DUP4 DUP4 PUSH2 0x250 PUSH1 0x20 SHL PUSH1 0x20 SHR JUMP JUMPDEST POP POP JUMP JUMPDEST PUSH2 0x24B DUP4 DUP4 DUP4 PUSH1 0x1 PUSH2 0x469 PUSH1 0x20 SHL PUSH1 0x20 SHR JUMP JUMPDEST POP POP POP JUMP JUMPDEST PUSH0 PUSH20 0xFFFFFFFFFFFFFFFFFFFFFFFFFFFFFFFFFFFFFFFF AND DUP4 PUSH20 0xFFFFFFFFFFFFFFFFFFFFFFFFFFFFFFFFFFFFFFFF AND SUB PUSH2 0x2A0 JUMPI DUP1 PUSH1 0x2 PUSH0 DUP3 DUP3 SLOAD PUSH2 0x294 SWAP2 SWAP1 PUSH2 0xA64 JUMP JUMPDEST SWAP3 POP POP DUP2 SWAP1 SSTORE POP PUSH2 0x36E JUMP JUMPDEST PUSH0 DUP1 PUSH0 DUP6 PUSH20 0xFFFFFFFFFFFFFFFFFFFFFFFFFFFFFFFFFFFFFFFF AND PUSH20 0xFFFFFFFFFFFFFFFFFFFFFFFFFFFFFFFFFFFFFFFF AND DUP2 MSTORE PUSH1 0x20 ADD SWAP1 DUP2 MSTORE PUSH1 0x20 ADD PUSH0 KECCAK256 SLOAD SWAP1 POP DUP2 DUP2 LT ISZERO PUSH2 0x329 JUMPI DUP4 DUP2 DUP4 PUSH1 0x40 MLOAD PUSH32 0xE450D38C00000000000000000000000000000000000000000000000000000000 DUP2 MSTORE PUSH1 0x4 ADD PUSH2 0x320 SWAP4 SWAP3 SWAP2 SWAP1 PUSH2 0xAA6 JUMP JUMPDEST PUSH1 0x40 MLOAD DUP1 SWAP2 SUB SWAP1 REVERT JUMPDEST DUP2 DUP2 SUB PUSH0 DUP1 DUP7 PUSH20 0xFFFFFFFFFFFFFFFFFFFFFFFFFFFFFFFFFFFFFFFF AND PUSH20 0xFFFFFFFFFFFFFFFFFFFFFFFFFFFFFFFFFFFFFFFF AND DUP2 MSTORE PUSH1 0x20 ADD SWAP1 DUP2 MSTORE PUSH1 0x20 ADD PUSH0 KECCAK256 DUP2 SWAP1 SSTORE POP POP JUMPDEST PUSH0 PUSH20 0xFFFFFFFFFFFFFFFFFFFFFFFFFFFFFFFFFFFFFFFF AND DUP3 PUSH20 0xFFFFFFFFFFFFFFFFFFFFFFFFFFFFFFFFFFFFFFFF AND SUB PUSH2 0x3B5 JUMPI DUP1 PUSH1 0x2 PUSH0 DUP3 DUP3 SLOAD SUB SWAP3 POP POP DUP2 SWAP1 SSTORE POP PUSH2 0x3FF JUMP JUMPDEST DUP1 PUSH0 DUP1 DUP5 PUSH20 0xFFFFFFFFFFFFFFFFFFFFFFFFFFFFFFFFFFFFFFFF AND PUSH20 0xFFFFFFFFFFFFFFFFFFFFFFFFFFFFFFFFFFFFFFFF AND DUP2 MSTORE PUSH1 0x20 ADD SWAP1 DUP2 MSTORE PUSH1 0x20 ADD PUSH0 KECCAK256 PUSH0 DUP3 DUP3 SLOAD ADD SWAP3 POP POP DUP2 SWAP1 SSTORE POP JUMPDEST DUP2 PUSH20 0xFFFFFFFFFFFFFFFFFFFFFFFFFFFFFFFFFFFFFFFF AND DUP4 PUSH20 0xFFFFFFFFFFFFFFFFFFFFFFFFFFFFFFFFFFFFFFFF AND PUSH32 0xDDF252AD1BE2C89B69C2B068FC378DAA952BA7F163C4A11628F55A4DF523B3EF DUP4 PUSH1 0x40 MLOAD PUSH2 0x45C SWAP2 SWAP1 PUSH2 0xADB JUMP JUMPDEST PUSH1 0x40 MLOAD DUP1 SWAP2 SUB SWAP1 LOG3 POP POP POP JUMP JUMPDEST PUSH0 PUSH20 0xFFFFFFFFFFFFFFFFFFFFFFFFFFFFFFFFFFFFFFFF AND DUP5 PUSH20 0xFFFFFFFFFFFFFFFFFFFFFFFFFFFFFFFFFFFFFFFF AND SUB PUSH2 0x4D9 JUMPI PUSH0 PUSH1 0x40 MLOAD PUSH32 0xE602DF0500000000000000000000000000000000000000000000000000000000 DUP2 MSTORE PUSH1 0x4 ADD PUSH2 0x4D0 SWAP2 SWAP1 PUSH2 0xA1E JUMP JUMPDEST PUSH1 0x40 MLOAD DUP1 SWAP2 SUB SWAP1 REVERT JUMPDEST PUSH0 PUSH20 0xFFFFFFFFFFFFFFFFFFFFFFFFFFFFFFFFFFFFFFFF AND DUP4 PUSH20 0xFFFFFFFFFFFFFFFFFFFFFFFFFFFFFFFFFFFFFFFF AND SUB PUSH2 0x549 JUMPI PUSH0 PUSH1 0x40 MLOAD PUSH32 0x94280D6200000000000000000000000000000000000000000000000000000000 DUP2 MSTORE PUSH1 0x4 ADD PUSH2 0x540 SWAP2 SWAP1 PUSH2 0xA1E JUMP JUMPDEST PUSH1 0x40 MLOAD DUP1 SWAP2 SUB SWAP1 REVERT JUMPDEST DUP2 PUSH1 0x1 PUSH0 DUP7 PUSH20 0xFFFFFFFFFFFFFFFFFFFFFFFFFFFFFFFFFFFFFFFF AND PUSH20 0xFFFFFFFFFFFFFFFFFFFFFFFFFFFFFFFFFFFFFFFF AND DUP2 MSTORE PUSH1 0x20 ADD SWAP1 DUP2 MSTORE PUSH1 0x20 ADD PUSH0 KECCAK256 PUSH0 DUP6 PUSH20 0xFFFFFFFFFFFFFFFFFFFFFFFFFFFFFFFFFFFFFFFF AND PUSH20 0xFFFFFFFFFFFFFFFFFFFFFFFFFFFFFFFFFFFFFFFF AND DUP2 MSTORE PUSH1 0x20 ADD SWAP1 DUP2 MSTORE PUSH1 0x20 ADD PUSH0 KECCAK256 DUP2 SWAP1 SSTORE POP DUP1 ISZERO PUSH2 0x632 JUMPI DUP3 PUSH20 0xFFFFFFFFFFFFFFFFFFFFFFFFFFFFFFFFFFFFFFFF AND DUP5 PUSH20 0xFFFFFFFFFFFFFFFFFFFFFFFFFFFFFFFFFFFFFFFF AND PUSH32 0x8C5BE1E5EBEC7D5BD14F71427D1E84F3DD0314C0F7B2291E5B200AC8C7C3B925 DUP5 PUSH1 0x40 MLOAD PUSH2 0x629 SWAP2 SWAP1 PUSH2 0xADB JUMP JUMPDEST PUSH1 0x40 MLOAD DUP1 SWAP2 SUB SWAP1 LOG3 JUMPDEST POP POP POP POP JUMP JUMPDEST PUSH0 DUP2 MLOAD SWAP1 POP SWAP2 SWAP1 POP JUMP JUMPDEST PUSH32 0x4E487B7100000000000000000000000000000000000000000000000000000000 PUSH0 MSTORE PUSH1 0x41 PUSH1 0x4 MSTORE PUSH1 0x24 PUSH0 REVERT JUMPDEST PUSH32 0x4E487B7100000000000000000000000000000000000000000000000000000000 PUSH0 MSTORE PUSH1 0x22 PUSH1 0x4 MSTORE PUSH1 0x24 PUSH0 REVERT JUMPDEST PUSH0 PUSH1 0x2 DUP3 DIV SWAP1 POP PUSH1 0x1 DUP3 AND DUP1 PUSH2 0x6B3 JUMPI PUSH1 0x7F DUP3 AND SWAP2 POP JUMPDEST PUSH1 0x20 DUP3 LT DUP2 SUB PUSH2 0x6C6 JUMPI PUSH2 0x6C5 PUSH2 0x66F JUMP JUMPDEST JUMPDEST POP SWAP2 SWAP1 POP JUMP JUMPDEST PUSH0 DUP2 SWAP1 POP DUP2 PUSH0 MSTORE PUSH1 0x20 PUSH0 KECCAK256 SWAP1 POP SWAP2 SWAP1 POP JUMP JUMPDEST PUSH0 PUSH1 0x20 PUSH1 0x1F DUP4 ADD DIV SWAP1 POP SWAP2 SWAP1 POP JUMP JUMPDEST PUSH0 DUP3 DUP3 SHL SWAP1 POP SWAP3 SWAP2 POP POP JUMP JUMPDEST PUSH0 PUSH1 0x8 DUP4 MUL PUSH2 0x728 PUSH32 0xFFFFFFFFFFFFFFFFFFFFFFFFFFFFFFFFFFFFFFFFFFFFFFFFFFFFFFFFFFFFFFFF DUP3 PUSH2 0x6ED JUMP JUMPDEST PUSH2 0x732 DUP7 DUP4 PUSH2 0x6ED JUMP JUMPDEST SWAP6 POP DUP1 NOT DUP5 AND SWAP4 POP DUP1 DUP7 AND DUP5 OR SWAP3 POP POP POP SWAP4 SWAP3 POP POP POP JUMP JUMPDEST PUSH0 DUP2 SWAP1 POP SWAP2 SWAP1 POP JUMP JUMPDEST PUSH0 DUP2 SWAP1 POP SWAP2 SWAP1 POP JUMP JUMPDEST PUSH0 PUSH2 0x776 PUSH2 0x771 PUSH2 0x76C DUP5 PUSH2 0x74A JUMP JUMPDEST PUSH2 0x753 JUMP JUMPDEST PUSH2 0x74A JUMP JUMPDEST SWAP1 POP SWAP2 SWAP1 POP JUMP JUMPDEST PUSH0 DUP2 SWAP1 POP SWAP2 SWAP1 POP JUMP JUMPDEST PUSH2 0x78F DUP4 PUSH2 0x75C JUMP JUMPDEST PUSH2 0x7A3 PUSH2 0x79B DUP3 PUSH2 0x77D JUMP JUMPDEST DUP5 DUP5 SLOAD PUSH2 0x6F9 JUMP JUMPDEST DUP3 SSTORE POP POP POP POP JUMP JUMPDEST PUSH0 SWAP1 JUMP JUMPDEST PUSH2 0x7B7 PUSH2 0x7AB JUMP JUMPDEST PUSH2 0x7C2 DUP2 DUP5 DUP5 PUSH2 0x786 JUMP JUMPDEST POP POP POP JUMP JUMPDEST JUMPDEST DUP2 DUP2 LT ISZERO PUSH2 0x7E5 JUMPI PUSH2 0x7DA PUSH0 DUP3 PUSH2 0x7AF JUMP JUMPDEST PUSH1 0x1 DUP2 ADD SWAP1 POP PUSH2 0x7C8 JUMP JUMPDEST POP POP JUMP JUMPDEST PUSH1 0x1F DUP3 GT ISZERO PUSH2 0x82A JUMPI PUSH2 0x7FB DUP2 PUSH2 0x6CC JUMP JUMPDEST PUSH2 0x804 DUP5 PUSH2 0x6DE JUMP JUMPDEST DUP2 ADD PUSH1 0x20 DUP6 LT ISZERO PUSH2 0x813 JUMPI DUP2 SWAP1 POP JUMPDEST PUSH2 0x827 PUSH2 0x81F DUP6 PUSH2 0x6DE JUMP JUMPDEST DUP4 ADD DUP3 PUSH2 0x7C7 JUMP JUMPDEST POP POP JUMPDEST POP POP POP JUMP JUMPDEST PUSH0 DUP3 DUP3 SHR SWAP1 POP SWAP3 SWAP2 POP POP JUMP JUMPDEST PUSH0 PUSH2 0x84A PUSH0 NOT DUP5 PUSH1 0x8 MUL PUSH2 0x82F JUMP JUMPDEST NOT DUP1 DUP4 AND SWAP2 POP POP SWAP3 SWAP2 POP POP JUMP JUMPDEST PUSH0 PUSH2 0x862 DUP4 DUP4 PUSH2 0x83B JUMP JUMPDEST SWAP2 POP DUP3 PUSH1 0x2 MUL DUP3 OR SWAP1 POP SWAP3 SWAP2 POP POP JUMP JUMPDEST PUSH2 0x87B DUP3 PUSH2 0x638 JUMP JUMPDEST PUSH8 0xFFFFFFFFFFFFFFFF DUP2 GT ISZERO PUSH2 0x894 JUMPI PUSH2 0x893 PUSH2 0x642 JUMP JUMPDEST JUMPDEST PUSH2 0x89E DUP3 SLOAD PUSH2 0x69C JUMP JUMPDEST PUSH2 0x8A9 DUP3 DUP3 DUP6 PUSH2 0x7E9 JUMP JUMPDEST PUSH0 PUSH1 0x20 SWAP1 POP PUSH1 0x1F DUP4 GT PUSH1 0x1 DUP2 EQ PUSH2 0x8DA JUMPI PUSH0 DUP5 ISZERO PUSH2 0x8C8 JUMPI DUP3 DUP8 ADD MLOAD SWAP1 POP JUMPDEST PUSH2 0x8D2 DUP6 DUP3 PUSH2 0x857 JUMP JUMPDEST DUP7 SSTORE POP PUSH2 0x939 JUMP JUMPDEST PUSH1 0x1F NOT DUP5 AND PUSH2 0x8E8 DUP7 PUSH2 0x6CC JUMP JUMPDEST PUSH0 JUMPDEST DUP3 DUP2 LT ISZERO PUSH2 0x90F JUMPI DUP5 DUP10 ADD MLOAD DUP3 SSTORE PUSH1 0x1 DUP3 ADD SWAP2 POP PUSH1 0x20 DUP6 ADD SWAP5 POP PUSH1 0x20 DUP2 ADD SWAP1 POP PUSH2 0x8EA JUMP JUMPDEST DUP7 DUP4 LT ISZERO PUSH2 0x92C JUMPI DUP5 DUP10 ADD MLOAD PUSH2 0x928 PUSH1 0x1F DUP10 AND DUP3 PUSH2 0x83B JUMP JUMPDEST DUP4 SSTORE POP JUMPDEST PUSH1 0x1 PUSH1 0x2 DUP9 MUL ADD DUP9 SSTORE POP POP POP JUMPDEST POP POP POP POP POP POP JUMP JUMPDEST PUSH0 DUP3 DUP3 MSTORE PUSH1 0x20 DUP3 ADD SWAP1 POP SWAP3 SWAP2 POP POP JUMP JUMPDEST PUSH32 0x4F6E6C792030206F7220312061636365707465642061732061697264726F7020 PUSH0 DUP3 ADD MSTORE PUSH32 0x7479706500000000000000000000000000000000000000000000000000000000 PUSH1 0x20 DUP3 ADD MSTORE POP JUMP JUMPDEST PUSH0 PUSH2 0x9AB PUSH1 0x24 DUP4 PUSH2 0x941 JUMP JUMPDEST SWAP2 POP PUSH2 0x9B6 DUP3 PUSH2 0x951 JUMP JUMPDEST PUSH1 0x40 DUP3 ADD SWAP1 POP SWAP2 SWAP1 POP JUMP JUMPDEST PUSH0 PUSH1 0x20 DUP3 ADD SWAP1 POP DUP2 DUP2 SUB PUSH0 DUP4 ADD MSTORE PUSH2 0x9D8 DUP2 PUSH2 0x99F JUMP JUMPDEST SWAP1 POP SWAP2 SWAP1 POP JUMP JUMPDEST PUSH0 PUSH20 0xFFFFFFFFFFFFFFFFFFFFFFFFFFFFFFFFFFFFFFFF DUP3 AND SWAP1 POP SWAP2 SWAP1 POP JUMP JUMPDEST PUSH0 PUSH2 0xA08 DUP3 PUSH2 0x9DF JUMP JUMPDEST SWAP1 POP SWAP2 SWAP1 POP JUMP JUMPDEST PUSH2 0xA18 DUP2 PUSH2 0x9FE JUMP JUMPDEST DUP3 MSTORE POP POP JUMP JUMPDEST PUSH0 PUSH1 0x20 DUP3 ADD SWAP1 POP PUSH2 0xA31 PUSH0 DUP4 ADD DUP5 PUSH2 0xA0F JUMP JUMPDEST SWAP3 SWAP2 POP POP JUMP JUMPDEST PUSH32 0x4E487B7100000000000000000000000000000000000000000000000000000000 PUSH0 MSTORE PUSH1 0x11 PUSH1 0x4 MSTORE PUSH1 0x24 PUSH0 REVERT JUMPDEST PUSH0 PUSH2 0xA6E DUP3 PUSH2 0x74A JUMP JUMPDEST SWAP2 POP PUSH2 0xA79 DUP4 PUSH2 0x74A JUMP JUMPDEST SWAP3 POP DUP3 DUP3 ADD SWAP1 POP DUP1 DUP3 GT ISZERO PUSH2 0xA91 JUMPI PUSH2 0xA90 PUSH2 0xA37 JUMP JUMPDEST JUMPDEST SWAP3 SWAP2 POP POP JUMP JUMPDEST PUSH2 0xAA0 DUP2 PUSH2 0x74A JUMP JUMPDEST DUP3 MSTORE POP POP JUMP JUMPDEST PUSH0 PUSH1 0x60 DUP3 ADD SWAP1 POP PUSH2 0xAB9 PUSH0 DUP4 ADD DUP7 PUSH2 0xA0F JUMP JUMPDEST PUSH2 0xAC6 PUSH1 0x20 DUP4 ADD DUP6 PUSH2 0xA97 JUMP JUMPDEST PUSH2 0xAD3 PUSH1 0x40 DUP4 ADD DUP5 PUSH2 0xA97 JUMP JUMPDEST SWAP5 SWAP4 POP POP POP POP JUMP JUMPDEST PUSH0 PUSH1 0x20 DUP3 ADD SWAP1 POP PUSH2 0xAEE PUSH0 DUP4 ADD DUP5 PUSH2 0xA97 JUMP JUMPDEST SWAP3 SWAP2 POP POP JUMP JUMPDEST PUSH2 0x2B2C DUP1 PUSH2 0xB01 PUSH0 CODECOPY PUSH0 RETURN INVALID PUSH1 0x80 PUSH1 0x40 MSTORE CALLVALUE DUP1 ISZERO PUSH2 0xF JUMPI PUSH0 DUP1 REVERT JUMPDEST POP PUSH1 0x4 CALLDATASIZE LT PUSH2 0x114 JUMPI PUSH0 CALLDATALOAD PUSH1 0xE0 SHR DUP1 PUSH4 0x6F9170F6 GT PUSH2 0xA0 JUMPI DUP1 PUSH4 0xA2EFA6AE GT PUSH2 0x6F JUMPI DUP1 PUSH4 0xA2EFA6AE EQ PUSH2 0x31C JUMPI DUP1 PUSH4 0xA9059CBB EQ PUSH2 0x34C JUMPI DUP1 PUSH4 0xD826F88F EQ PUSH2 0x37C JUMPI DUP1 PUSH4 0xDCA11AB8 EQ PUSH2 0x39A JUMPI DUP1 PUSH4 0xDD62ED3E EQ PUSH2 0x3CA JUMPI PUSH2 0x114 JUMP JUMPDEST DUP1 PUSH4 0x6F9170F6 EQ PUSH2 0x26E JUMPI DUP1 PUSH4 0x70A08231 EQ PUSH2 0x29E JUMPI DUP1 PUSH4 0x95D89B41 EQ PUSH2 0x2CE JUMPI DUP1 PUSH4 0xA0712D68 EQ PUSH2 0x2EC JUMPI PUSH2 0x114 JUMP JUMPDEST DUP1 PUSH4 0x18160DDD GT PUSH2 0xE7 JUMPI DUP1 PUSH4 0x18160DDD EQ PUSH2 0x1B4 JUMPI DUP1 PUSH4 0x23B872DD EQ PUSH2 0x1D2 JUMPI DUP1 PUSH4 0x313CE567 EQ PUSH2 0x202 JUMPI DUP1 PUSH4 0x4E41CFDB EQ PUSH2 0x220 JUMPI DUP1 PUSH4 0x51D6E8A4 EQ PUSH2 0x250 JUMPI PUSH2 0x114 JUMP JUMPDEST DUP1 PUSH4 0x6FDDE03 EQ PUSH2 0x118 JUMPI DUP1 PUSH4 0x95EA7B3 EQ PUSH2 0x136 JUMPI DUP1 PUSH4 0x9A9D76C EQ PUSH2 0x166 JUMPI DUP1 PUSH4 0x150B7A02 EQ PUSH2 0x184 JUMPI JUMPDEST PUSH0 DUP1 REVERT JUMPDEST PUSH2 0x120 PUSH2 0x3FA JUMP JUMPDEST PUSH1 0x40 MLOAD PUSH2 0x12D SWAP2 SWAP1 PUSH2 0x19C8 JUMP JUMPDEST PUSH1 0x40 MLOAD DUP1 SWAP2 SUB SWAP1 RETURN JUMPDEST PUSH2 0x150 PUSH1 0x4 DUP1 CALLDATASIZE SUB DUP2 ADD SWAP1 PUSH2 0x14B SWAP2 SWAP1 PUSH2 0x1A86 JUMP JUMPDEST PUSH2 0x48A JUMP JUMPDEST PUSH1 0x40 MLOAD PUSH2 0x15D SWAP2 SWAP1 PUSH2 0x1ADE JUMP JUMPDEST PUSH1 0x40 MLOAD DUP1 SWAP2 SUB SWAP1 RETURN JUMPDEST PUSH2 0x16E PUSH2 0x4AC JUMP JUMPDEST PUSH1 0x40 MLOAD PUSH2 0x17B SWAP2 SWAP1 PUSH2 0x1BAE JUMP JUMPDEST PUSH1 0x40 MLOAD DUP1 SWAP2 SUB SWAP1 RETURN JUMPDEST PUSH2 0x19E PUSH1 0x4 DUP1 CALLDATASIZE SUB DUP2 ADD SWAP1 PUSH2 0x199 SWAP2 SWAP1 PUSH2 0x1CFA JUMP JUMPDEST PUSH2 0x537 JUMP JUMPDEST PUSH1 0x40 MLOAD PUSH2 0x1AB SWAP2 SWAP1 PUSH2 0x1DB4 JUMP JUMPDEST PUSH1 0x40 MLOAD DUP1 SWAP2 SUB SWAP1 RETURN JUMPDEST PUSH2 0x1BC PUSH2 0x587 JUMP JUMPDEST PUSH1 0x40 MLOAD PUSH2 0x1C9 SWAP2 SWAP1 PUSH2 0x1DDC JUMP JUMPDEST PUSH1 0x40 MLOAD DUP1 SWAP2 SUB SWAP1 RETURN JUMPDEST PUSH2 0x1EC PUSH1 0x4 DUP1 CALLDATASIZE SUB DUP2 ADD SWAP1 PUSH2 0x1E7 SWAP2 SWAP1 PUSH2 0x1DF5 JUMP JUMPDEST PUSH2 0x590 JUMP JUMPDEST PUSH1 0x40 MLOAD PUSH2 0x1F9 SWAP2 SWAP1 PUSH2 0x1ADE JUMP JUMPDEST PUSH1 0x40 MLOAD DUP1 SWAP2 SUB SWAP1 RETURN JUMPDEST PUSH2 0x20A PUSH2 0x5BE JUMP JUMPDEST PUSH1 0x40 MLOAD PUSH2 0x217 SWAP2 SWAP1 PUSH2 0x1E60 JUMP JUMPDEST PUSH1 0x40 MLOAD DUP1 SWAP2 SUB SWAP1 RETURN JUMPDEST PUSH2 0x23A PUSH1 0x4 DUP1 CALLDATASIZE SUB DUP2 ADD SWAP1 PUSH2 0x235 SWAP2 SWAP1 PUSH2 0x1ED6 JUMP JUMPDEST PUSH2 0x5C6 JUMP JUMPDEST PUSH1 0x40 MLOAD PUSH2 0x247 SWAP2 SWAP1 PUSH2 0x1ADE JUMP JUMPDEST PUSH1 0x40 MLOAD DUP1 SWAP2 SUB SWAP1 RETURN JUMPDEST PUSH2 0x258 PUSH2 0x5D8 JUMP JUMPDEST PUSH1 0x40 MLOAD PUSH2 0x265 SWAP2 SWAP1 PUSH2 0x1DDC JUMP JUMPDEST PUSH1 0x40 MLOAD DUP1 SWAP2 SUB SWAP1 RETURN JUMPDEST PUSH2 0x288 PUSH1 0x4 DUP1 CALLDATASIZE SUB DUP2 ADD SWAP1 PUSH2 0x283 SWAP2 SWAP1 PUSH2 0x1F21 JUMP JUMPDEST PUSH2 0x5E1 JUMP JUMPDEST PUSH1 0x40 MLOAD PUSH2 0x295 SWAP2 SWAP1 PUSH2 0x1ADE JUMP JUMPDEST PUSH1 0x40 MLOAD DUP1 SWAP2 SUB SWAP1 RETURN JUMPDEST PUSH2 0x2B8 PUSH1 0x4 DUP1 CALLDATASIZE SUB DUP2 ADD SWAP1 PUSH2 0x2B3 SWAP2 SWAP1 PUSH2 0x1F21 JUMP JUMPDEST PUSH2 0x5F2 JUMP JUMPDEST PUSH1 0x40 MLOAD PUSH2 0x2C5 SWAP2 SWAP1 PUSH2 0x1DDC JUMP JUMPDEST PUSH1 0x40 MLOAD DUP1 SWAP2 SUB SWAP1 RETURN JUMPDEST PUSH2 0x2D6 PUSH2 0x637 JUMP JUMPDEST PUSH1 0x40 MLOAD PUSH2 0x2E3 SWAP2 SWAP1 PUSH2 0x19C8 JUMP JUMPDEST PUSH1 0x40 MLOAD DUP1 SWAP2 SUB SWAP1 RETURN JUMPDEST PUSH2 0x306 PUSH1 0x4 DUP1 CALLDATASIZE SUB DUP2 ADD SWAP1 PUSH2 0x301 SWAP2 SWAP1 PUSH2 0x1F4C JUMP JUMPDEST PUSH2 0x6C7 JUMP JUMPDEST PUSH1 0x40 MLOAD PUSH2 0x313 SWAP2 SWAP1 PUSH2 0x1ADE JUMP JUMPDEST PUSH1 0x40 MLOAD DUP1 SWAP2 SUB SWAP1 RETURN JUMPDEST PUSH2 0x336 PUSH1 0x4 DUP1 CALLDATASIZE SUB DUP2 ADD SWAP1 PUSH2 0x331 SWAP2 SWAP1 PUSH2 0x1FCC JUMP JUMPDEST PUSH2 0x6D7 JUMP JUMPDEST PUSH1 0x40 MLOAD PUSH2 0x343 SWAP2 SWAP1 PUSH2 0x1ADE JUMP JUMPDEST PUSH1 0x40 MLOAD DUP1 SWAP2 SUB SWAP1 RETURN JUMPDEST PUSH2 0x366 PUSH1 0x4 DUP1 CALLDATASIZE SUB DUP2 ADD SWAP1 PUSH2 0x361 SWAP2 SWAP1 PUSH2 0x1A86 JUMP JUMPDEST PUSH2 0x6E9 JUMP JUMPDEST PUSH1 0x40 MLOAD PUSH2 0x373 SWAP2 SWAP1 PUSH2 0x1ADE JUMP JUMPDEST PUSH1 0x40 MLOAD DUP1 SWAP2 SUB SWAP1 RETURN JUMPDEST PUSH2 0x384 PUSH2 0x70B JUMP JUMPDEST PUSH1 0x40 MLOAD PUSH2 0x391 SWAP2 SWAP1 PUSH2 0x1ADE JUMP JUMPDEST PUSH1 0x40 MLOAD DUP1 SWAP2 SUB SWAP1 RETURN JUMPDEST PUSH2 0x3B4 PUSH1 0x4 DUP1 CALLDATASIZE SUB DUP2 ADD SWAP1 PUSH2 0x3AF SWAP2 SWAP1 PUSH2 0x1F21 JUMP JUMPDEST PUSH2 0x718 JUMP JUMPDEST PUSH1 0x40 MLOAD PUSH2 0x3C1 SWAP2 SWAP1 PUSH2 0x1ADE JUMP JUMPDEST PUSH1 0x40 MLOAD DUP1 SWAP2 SUB SWAP1 RETURN JUMPDEST PUSH2 0x3E4 PUSH1 0x4 DUP1 CALLDATASIZE SUB DUP2 ADD SWAP1 PUSH2 0x3DF SWAP2 SWAP1 PUSH2 0x2017 JUMP JUMPDEST PUSH2 0x78D JUMP JUMPDEST PUSH1 0x40 MLOAD PUSH2 0x3F1 SWAP2 SWAP1 PUSH2 0x1DDC JUMP JUMPDEST PUSH1 0x40 MLOAD DUP1 SWAP2 SUB SWAP1 RETURN JUMPDEST PUSH1 0x60 PUSH1 0x3 DUP1 SLOAD PUSH2 0x409 SWAP1 PUSH2 0x2082 JUMP JUMPDEST DUP1 PUSH1 0x1F ADD PUSH1 0x20 DUP1 SWAP2 DIV MUL PUSH1 0x20 ADD PUSH1 0x40 MLOAD SWAP1 DUP2 ADD PUSH1 0x40 MSTORE DUP1 SWAP3 SWAP2 SWAP1 DUP2 DUP2 MSTORE PUSH1 0x20 ADD DUP3 DUP1 SLOAD PUSH2 0x435 SWAP1 PUSH2 0x2082 JUMP JUMPDEST DUP1 ISZERO PUSH2 0x480 JUMPI DUP1 PUSH1 0x1F LT PUSH2 0x457 JUMPI PUSH2 0x100 DUP1 DUP4 SLOAD DIV MUL DUP4 MSTORE SWAP2 PUSH1 0x20 ADD SWAP2 PUSH2 0x480 JUMP JUMPDEST DUP3 ADD SWAP2 SWAP1 PUSH0 MSTORE PUSH1 0x20 PUSH0 KECCAK256 SWAP1 JUMPDEST DUP2 SLOAD DUP2 MSTORE SWAP1 PUSH1 0x1 ADD SWAP1 PUSH1 0x20 ADD DUP1 DUP4 GT PUSH2 0x463 JUMPI DUP3 SWAP1 SUB PUSH1 0x1F AND DUP3 ADD SWAP2 JUMPDEST POP POP POP POP POP SWAP1 POP SWAP1 JUMP JUMPDEST PUSH0 DUP1 PUSH2 0x494 PUSH2 0x80F JUMP JUMPDEST SWAP1 POP PUSH2 0x4A1 DUP2 DUP6 DUP6 PUSH2 0x816 JUMP JUMPDEST PUSH1 0x1 SWAP2 POP POP SWAP3 SWAP2 POP POP JUMP JUMPDEST PUSH1 0x60 PUSH1 0x6 DUP1 SLOAD DUP1 PUSH1 0x20 MUL PUSH1 0x20 ADD PUSH1 0x40 MLOAD SWAP1 DUP2 ADD PUSH1 0x40 MSTORE DUP1 SWAP3 SWAP2 SWAP1 DUP2 DUP2 MSTORE PUSH1 0x20 ADD DUP3 DUP1 SLOAD DUP1 ISZERO PUSH2 0x52D JUMPI PUSH1 0x20 MUL DUP3 ADD SWAP2 SWAP1 PUSH0 MSTORE PUSH1 0x20 PUSH0 KECCAK256 SWAP1 JUMPDEST DUP2 PUSH0 SWAP1 SLOAD SWAP1 PUSH2 0x100 EXP SWAP1 DIV PUSH20 0xFFFFFFFFFFFFFFFFFFFFFFFFFFFFFFFFFFFFFFFF AND PUSH20 0xFFFFFFFFFFFFFFFFFFFFFFFFFFFFFFFFFFFFFFFF AND DUP2 MSTORE PUSH1 0x20 ADD SWAP1 PUSH1 0x1 ADD SWAP1 DUP1 DUP4 GT PUSH2 0x4E4 JUMPI JUMPDEST POP POP POP POP POP SWAP1 POP SWAP1 JUMP JUMPDEST PUSH0 PUSH32 0x541CB930DBB178D9D0A40B098C309DDA5A70E722066990941158D1F77B5BFCF3 DUP6 DUP6 DUP6 DUP6 PUSH1 0x40 MLOAD PUSH2 0x56D SWAP5 SWAP4 SWAP3 SWAP2 SWAP1 PUSH2 0x2113 JUMP JUMPDEST PUSH1 0x40 MLOAD DUP1 SWAP2 SUB SWAP1 LOG1 PUSH4 0x150B7A02 PUSH1 0xE0 SHL SWAP1 POP SWAP5 SWAP4 POP POP POP POP JUMP JUMPDEST PUSH0 PUSH1 0x2 SLOAD SWAP1 POP SWAP1 JUMP JUMPDEST PUSH0 DUP1 PUSH2 0x59A PUSH2 0x80F JUMP JUMPDEST SWAP1 POP PUSH2 0x5A7 DUP6 DUP3 DUP6 PUSH2 0x828 JUMP JUMPDEST PUSH2 0x5B2 DUP6 DUP6 DUP6 PUSH2 0x8BB JUMP JUMPDEST PUSH1 0x1 SWAP2 POP POP SWAP4 SWAP3 POP POP POP JUMP JUMPDEST PUSH0 PUSH1 0x12 SWAP1 POP SWAP1 JUMP JUMPDEST PUSH0 PUSH2 0x5D1 DUP4 DUP4 PUSH2 0x9AB JUMP JUMPDEST POP SWAP3 SWAP2 POP POP JUMP JUMPDEST PUSH0 PUSH1 0x7 SLOAD SWAP1 POP SWAP1 JUMP JUMPDEST PUSH0 PUSH2 0x5EB DUP3 PUSH2 0xC14 JUMP JUMPDEST SWAP1 POP SWAP2 SWAP1 POP JUMP JUMPDEST PUSH0 DUP1 PUSH0 DUP4 PUSH20 0xFFFFFFFFFFFFFFFFFFFFFFFFFFFFFFFFFFFFFFFF AND PUSH20 0xFFFFFFFFFFFFFFFFFFFFFFFFFFFFFFFFFFFFFFFF AND DUP2 MSTORE PUSH1 0x20 ADD SWAP1 DUP2 MSTORE PUSH1 0x20 ADD PUSH0 KECCAK256 SLOAD SWAP1 POP SWAP2 SWAP1 POP JUMP JUMPDEST PUSH1 0x60 PUSH1 0x4 DUP1 SLOAD PUSH2 0x646 SWAP1 PUSH2 0x2082 JUMP JUMPDEST DUP1 PUSH1 0x1F ADD PUSH1 0x20 DUP1 SWAP2 DIV MUL PUSH1 0x20 ADD PUSH1 0x40 MLOAD SWAP1 DUP2 ADD PUSH1 0x40 MSTORE DUP1 SWAP3 SWAP2 SWAP1 DUP2 DUP2 MSTORE PUSH1 0x20 ADD DUP3 DUP1 SLOAD PUSH2 0x672 SWAP1 PUSH2 0x2082 JUMP JUMPDEST DUP1 ISZERO PUSH2 0x6BD JUMPI DUP1 PUSH1 0x1F LT PUSH2 0x694 JUMPI PUSH2 0x100 DUP1 DUP4 SLOAD DIV MUL DUP4 MSTORE SWAP2 PUSH1 0x20 ADD SWAP2 PUSH2 0x6BD JUMP JUMPDEST DUP3 ADD SWAP2 SWAP1 PUSH0 MSTORE PUSH1 0x20 PUSH0 KECCAK256 SWAP1 JUMPDEST DUP2 SLOAD DUP2 MSTORE SWAP1 PUSH1 0x1 ADD SWAP1 PUSH1 0x20 ADD DUP1 DUP4 GT PUSH2 0x6A0 JUMPI DUP3 SWAP1 SUB PUSH1 0x1F AND DUP3 ADD SWAP2 JUMPDEST POP POP POP POP POP SWAP1 POP SWAP1 JUMP JUMPDEST PUSH0 PUSH2 0x6D2 CALLER DUP4 PUSH2 0xCB9 JUMP JUMPDEST SWAP2 SWAP1 POP JUMP JUMPDEST PUSH0 PUSH2 0x6E2 DUP4 DUP4 PUSH2 0xD38 JUMP JUMPDEST POP SWAP3 SWAP2 POP POP JUMP JUMPDEST PUSH0 DUP1 PUSH2 0x6F3 PUSH2 0x80F JUMP JUMPDEST SWAP1 POP PUSH2 0x700 DUP2 DUP6 DUP6 PUSH2 0x8BB JUMP JUMPDEST PUSH1 0x1 SWAP2 POP POP SWAP3 SWAP2 POP POP JUMP JUMPDEST PUSH0 PUSH2 0x714 PUSH2 0x145B JUMP JUMPDEST POP SWAP1 JUMP JUMPDEST PUSH0 PUSH1 0x5 PUSH0 PUSH1 0x7 SLOAD DUP2 MSTORE PUSH1 0x20 ADD SWAP1 DUP2 MSTORE PUSH1 0x20 ADD PUSH0 KECCAK256 PUSH0 DUP4 PUSH20 0xFFFFFFFFFFFFFFFFFFFFFFFFFFFFFFFFFFFFFFFF AND PUSH20 0xFFFFFFFFFFFFFFFFFFFFFFFFFFFFFFFFFFFFFFFF AND DUP2 MSTORE PUSH1 0x20 ADD SWAP1 DUP2 MSTORE PUSH1 0x20 ADD PUSH0 KECCAK256 PUSH0 SWAP1 SLOAD SWAP1 PUSH2 0x100 EXP SWAP1 DIV PUSH1 0xFF AND ISZERO DUP1 ISZERO PUSH2 0x786 JUMPI POP PUSH2 0x785 DUP3 PUSH2 0xC14 JUMP JUMPDEST JUMPDEST SWAP1 POP SWAP2 SWAP1 POP JUMP JUMPDEST PUSH0 PUSH1 0x1 PUSH0 DUP5 PUSH20 0xFFFFFFFFFFFFFFFFFFFFFFFFFFFFFFFFFFFFFFFF AND PUSH20 0xFFFFFFFFFFFFFFFFFFFFFFFFFFFFFFFFFFFFFFFF AND DUP2 MSTORE PUSH1 0x20 ADD SWAP1 DUP2 MSTORE PUSH1 0x20 ADD PUSH0 KECCAK256 PUSH0 DUP4 PUSH20 0xFFFFFFFFFFFFFFFFFFFFFFFFFFFFFFFFFFFFFFFF AND PUSH20 0xFFFFFFFFFFFFFFFFFFFFFFFFFFFFFFFFFFFFFFFF AND DUP2 MSTORE PUSH1 0x20 ADD SWAP1 DUP2 MSTORE PUSH1 0x20 ADD PUSH0 KECCAK256 SLOAD SWAP1 POP SWAP3 SWAP2 POP POP JUMP JUMPDEST PUSH0 CALLER SWAP1 POP SWAP1 JUMP JUMPDEST PUSH2 0x823 DUP4 DUP4 DUP4 PUSH1 0x1 PUSH2 0x147A JUMP JUMPDEST POP POP POP JUMP JUMPDEST PUSH0 PUSH2 0x833 DUP5 DUP5 PUSH2 0x78D JUMP JUMPDEST SWAP1 POP PUSH32 0xFFFFFFFFFFFFFFFFFFFFFFFFFFFFFFFFFFFFFFFFFFFFFFFFFFFFFFFFFFFFFFFF DUP2 LT ISZERO PUSH2 0x8B5 JUMPI DUP2 DUP2 LT ISZERO PUSH2 0x8A6 JUMPI DUP3 DUP2 DUP4 PUSH1 0x40 MLOAD PUSH32 0xFB8F41B200000000000000000000000000000000000000000000000000000000 DUP2 MSTORE PUSH1 0x4 ADD PUSH2 0x89D SWAP4 SWAP3 SWAP2 SWAP1 PUSH2 0x215D JUMP JUMPDEST PUSH1 0x40 MLOAD DUP1 SWAP2 SUB SWAP1 REVERT JUMPDEST PUSH2 0x8B4 DUP5 DUP5 DUP5 DUP5 SUB PUSH0 PUSH2 0x147A JUMP JUMPDEST JUMPDEST POP POP POP POP JUMP JUMPDEST PUSH0 PUSH20 0xFFFFFFFFFFFFFFFFFFFFFFFFFFFFFFFFFFFFFFFF AND DUP4 PUSH20 0xFFFFFFFFFFFFFFFFFFFFFFFFFFFFFFFFFFFFFFFF AND SUB PUSH2 0x92B JUMPI PUSH0 PUSH1 0x40 MLOAD PUSH32 0x96C6FD1E00000000000000000000000000000000000000000000000000000000 DUP2 MSTORE PUSH1 0x4 ADD PUSH2 0x922 SWAP2 SWAP1 PUSH2 0x2192 JUMP JUMPDEST PUSH1 0x40 MLOAD DUP1 SWAP2 SUB SWAP1 REVERT JUMPDEST PUSH0 PUSH20 0xFFFFFFFFFFFFFFFFFFFFFFFFFFFFFFFFFFFFFFFF AND DUP3 PUSH20 0xFFFFFFFFFFFFFFFFFFFFFFFFFFFFFFFFFFFFFFFF AND SUB PUSH2 0x99B JUMPI PUSH0 PUSH1 0x40 MLOAD PUSH32 0xEC442F0500000000000000000000000000000000000000000000000000000000 DUP2 MSTORE PUSH1 0x4 ADD PUSH2 0x992 SWAP2 SWAP1 PUSH2 0x2192 JUMP JUMPDEST PUSH1 0x40 MLOAD DUP1 SWAP2 SUB SWAP1 REVERT JUMPDEST PUSH2 0x9A6 DUP4 DUP4 DUP4 PUSH2 0x1649 JUMP JUMPDEST POP POP POP JUMP JUMPDEST PUSH0 DUP1 PUSH0 SWAP1 POP JUMPDEST DUP4 DUP4 SWAP1 POP DUP2 LT ISZERO PUSH2 0xBD0 JUMPI PUSH0 PUSH20 0xFFFFFFFFFFFFFFFFFFFFFFFFFFFFFFFFFFFFFFFF AND DUP5 DUP5 DUP4 DUP2 DUP2 LT PUSH2 0x9E6 JUMPI PUSH2 0x9E5 PUSH2 0x21AB JUMP JUMPDEST JUMPDEST SWAP1 POP PUSH1 0x20 MUL ADD PUSH1 0x20 DUP2 ADD SWAP1 PUSH2 0x9FB SWAP2 SWAP1 PUSH2 0x1F21 JUMP JUMPDEST PUSH20 0xFFFFFFFFFFFFFFFFFFFFFFFFFFFFFFFFFFFFFFFF AND SUB PUSH2 0xA51 JUMPI PUSH1 0x40 MLOAD PUSH32 0x8C379A000000000000000000000000000000000000000000000000000000000 DUP2 MSTORE PUSH1 0x4 ADD PUSH2 0xA48 SWAP1 PUSH2 0x2222 JUMP JUMPDEST PUSH1 0x40 MLOAD DUP1 SWAP2 SUB SWAP1 REVERT JUMPDEST PUSH1 0x1 PUSH1 0xA SLOAD SUB PUSH2 0xACC JUMPI PUSH2 0xA8C DUP5 DUP5 DUP4 DUP2 DUP2 LT PUSH2 0xA71 JUMPI PUSH2 0xA70 PUSH2 0x21AB JUMP JUMPDEST JUMPDEST SWAP1 POP PUSH1 0x20 MUL ADD PUSH1 0x20 DUP2 ADD SWAP1 PUSH2 0xA86 SWAP2 SWAP1 PUSH2 0x1F21 JUMP JUMPDEST PUSH0 PUSH2 0x1862 JUMP JUMPDEST PUSH2 0xACB JUMPI PUSH1 0x40 MLOAD PUSH32 0x8C379A000000000000000000000000000000000000000000000000000000000 DUP2 MSTORE PUSH1 0x4 ADD PUSH2 0xAC2 SWAP1 PUSH2 0x228A JUMP JUMPDEST PUSH1 0x40 MLOAD DUP1 SWAP2 SUB SWAP1 REVERT JUMPDEST JUMPDEST PUSH2 0xAFC DUP5 DUP5 DUP4 DUP2 DUP2 LT PUSH2 0xAE2 JUMPI PUSH2 0xAE1 PUSH2 0x21AB JUMP JUMPDEST JUMPDEST SWAP1 POP PUSH1 0x20 MUL ADD PUSH1 0x20 DUP2 ADD SWAP1 PUSH2 0xAF7 SWAP2 SWAP1 PUSH2 0x1F21 JUMP JUMPDEST PUSH2 0x5E1 JUMP JUMPDEST ISZERO PUSH2 0xB3C JUMPI PUSH1 0x40 MLOAD PUSH32 0x8C379A000000000000000000000000000000000000000000000000000000000 DUP2 MSTORE PUSH1 0x4 ADD PUSH2 0xB33 SWAP1 PUSH2 0x22F2 JUMP JUMPDEST PUSH1 0x40 MLOAD DUP1 SWAP2 SUB SWAP1 REVERT JUMPDEST PUSH1 0x6 DUP5 DUP5 DUP4 DUP2 DUP2 LT PUSH2 0xB51 JUMPI PUSH2 0xB50 PUSH2 0x21AB JUMP JUMPDEST JUMPDEST SWAP1 POP PUSH1 0x20 MUL ADD PUSH1 0x20 DUP2 ADD SWAP1 PUSH2 0xB66 SWAP2 SWAP1 PUSH2 0x1F21 JUMP JUMPDEST SWAP1 DUP1 PUSH1 0x1 DUP2 SLOAD ADD DUP1 DUP3 SSTORE DUP1 SWAP2 POP POP PUSH1 0x1 SWAP1 SUB SWAP1 PUSH0 MSTORE PUSH1 0x20 PUSH0 KECCAK256 ADD PUSH0 SWAP1 SWAP2 SWAP1 SWAP2 SWAP1 SWAP2 PUSH2 0x100 EXP DUP2 SLOAD DUP2 PUSH20 0xFFFFFFFFFFFFFFFFFFFFFFFFFFFFFFFFFFFFFFFF MUL NOT AND SWAP1 DUP4 PUSH20 0xFFFFFFFFFFFFFFFFFFFFFFFFFFFFFFFFFFFFFFFF AND MUL OR SWAP1 SSTORE POP DUP1 DUP1 PUSH1 0x1 ADD SWAP2 POP POP PUSH2 0x9B1 JUMP JUMPDEST POP PUSH32 0x8F47A973C821CCA98D90B2C53821DC01E2971B8B14DB8AAE5776F42EA6CCCC9A DUP4 DUP4 PUSH1 0x40 MLOAD PUSH2 0xC02 SWAP3 SWAP2 SWAP1 PUSH2 0x2396 JUMP JUMPDEST PUSH1 0x40 MLOAD DUP1 SWAP2 SUB SWAP1 LOG1 PUSH1 0x1 SWAP1 POP SWAP3 SWAP2 POP POP JUMP JUMPDEST PUSH0 DUP1 PUSH1 0x6 DUP1 SLOAD SWAP1 POP SWAP1 POP PUSH0 JUMPDEST DUP2 DUP2 LT ISZERO PUSH2 0xCAE JUMPI DUP4 PUSH20 0xFFFFFFFFFFFFFFFFFFFFFFFFFFFFFFFFFFFFFFFF AND PUSH1 0x6 DUP3 DUP2 SLOAD DUP2 LT PUSH2 0xC53 JUMPI PUSH2 0xC52 PUSH2 0x21AB JUMP JUMPDEST JUMPDEST SWAP1 PUSH0 MSTORE PUSH1 0x20 PUSH0 KECCAK256 ADD PUSH0 SWAP1 SLOAD SWAP1 PUSH2 0x100 EXP SWAP1 DIV PUSH20 0xFFFFFFFFFFFFFFFFFFFFFFFFFFFFFFFFFFFFFFFF AND PUSH20 0xFFFFFFFFFFFFFFFFFFFFFFFFFFFFFFFFFFFFFFFF AND SUB PUSH2 0xCA1 JUMPI PUSH1 0x1 SWAP3 POP POP POP PUSH2 0xCB4 JUMP JUMPDEST DUP1 DUP1 PUSH1 0x1 ADD SWAP2 POP POP PUSH2 0xC20 JUMP JUMPDEST POP PUSH0 SWAP2 POP POP JUMPDEST SWAP2 SWAP1 POP JUMP JUMPDEST PUSH0 PUSH20 0xFFFFFFFFFFFFFFFFFFFFFFFFFFFFFFFFFFFFFFFF AND DUP3 PUSH20 0xFFFFFFFFFFFFFFFFFFFFFFFFFFFFFFFFFFFFFFFF AND SUB PUSH2 0xD29 JUMPI PUSH0 PUSH1 0x40 MLOAD PUSH32 0xEC442F0500000000000000000000000000000000000000000000000000000000 DUP2 MSTORE PUSH1 0x4 ADD PUSH2 0xD20 SWAP2 SWAP1 PUSH2 0x2192 JUMP JUMPDEST PUSH1 0x40 MLOAD DUP1 SWAP2 SUB SWAP1 REVERT JUMPDEST PUSH2 0xD34 PUSH0 DUP4 DUP4 PUSH2 0x1649 JUMP JUMPDEST POP POP JUMP JUMPDEST PUSH0 DUP1 PUSH20 0xFFFFFFFFFFFFFFFFFFFFFFFFFFFFFFFFFFFFFFFF AND PUSH1 0x8 PUSH0 SWAP1 SLOAD SWAP1 PUSH2 0x100 EXP SWAP1 DIV PUSH20 0xFFFFFFFFFFFFFFFFFFFFFFFFFFFFFFFFFFFFFFFF AND PUSH20 0xFFFFFFFFFFFFFFFFFFFFFFFFFFFFFFFFFFFFFFFF AND SUB PUSH2 0xDC8 JUMPI PUSH1 0x40 MLOAD PUSH32 0x8C379A000000000000000000000000000000000000000000000000000000000 DUP2 MSTORE PUSH1 0x4 ADD PUSH2 0xDBF SWAP1 PUSH2 0x2402 JUMP JUMPDEST PUSH1 0x40 MLOAD DUP1 SWAP2 SUB SWAP1 REVERT JUMPDEST PUSH0 PUSH1 0x6 DUP1 SLOAD SWAP1 POP GT PUSH2 0xE0F JUMPI PUSH1 0x40 MLOAD PUSH32 0x8C379A000000000000000000000000000000000000000000000000000000000 DUP2 MSTORE PUSH1 0x4 ADD PUSH2 0xE06 SWAP1 PUSH2 0x246A JUMP JUMPDEST PUSH1 0x40 MLOAD DUP1 SWAP2 SUB SWAP1 REVERT JUMPDEST DUP3 DUP3 SWAP1 POP PUSH1 0x6 DUP1 SLOAD SWAP1 POP EQ PUSH2 0xE59 JUMPI PUSH1 0x40 MLOAD PUSH32 0x8C379A000000000000000000000000000000000000000000000000000000000 DUP2 MSTORE PUSH1 0x4 ADD PUSH2 0xE50 SWAP1 PUSH2 0x251E JUMP JUMPDEST PUSH1 0x40 MLOAD DUP1 SWAP2 SUB SWAP1 REVERT JUMPDEST PUSH0 DUP1 PUSH0 PUSH1 0xA SLOAD SUB PUSH2 0xE8D JUMPI PUSH1 0x8 PUSH0 SWAP1 SLOAD SWAP1 PUSH2 0x100 EXP SWAP1 DIV PUSH20 0xFFFFFFFFFFFFFFFFFFFFFFFFFFFFFFFFFFFFFFFF AND SWAP1 POP PUSH2 0xEB2 JUMP JUMPDEST PUSH1 0x8 PUSH0 SWAP1 SLOAD SWAP1 PUSH2 0x100 EXP SWAP1 DIV PUSH20 0xFFFFFFFFFFFFFFFFFFFFFFFFFFFFFFFFFFFFFFFF AND SWAP2 POP JUMPDEST PUSH32 0xE92CFCA7BDC1F76F97B0CECC8D1DDABB94D01C99D9429C0963302A2F2A92714D PUSH1 0x6 DUP7 DUP7 PUSH1 0x40 MLOAD PUSH2 0xEE6 SWAP4 SWAP3 SWAP2 SWAP1 PUSH2 0x2694 JUMP JUMPDEST PUSH1 0x40 MLOAD DUP1 SWAP2 SUB SWAP1 LOG1 PUSH0 DUP1 PUSH0 SWAP1 POP JUMPDEST PUSH1 0x6 DUP1 SLOAD SWAP1 POP DUP2 LT ISZERO PUSH2 0x144D JUMPI PUSH1 0x6 DUP2 DUP2 SLOAD DUP2 LT PUSH2 0xF15 JUMPI PUSH2 0xF14 PUSH2 0x21AB JUMP JUMPDEST JUMPDEST SWAP1 PUSH0 MSTORE PUSH1 0x20 PUSH0 KECCAK256 ADD PUSH0 SWAP1 SLOAD SWAP1 PUSH2 0x100 EXP SWAP1 DIV PUSH20 0xFFFFFFFFFFFFFFFFFFFFFFFFFFFFFFFFFFFFFFFF AND SWAP2 POP PUSH0 PUSH1 0xA SLOAD SUB PUSH2 0x1040 JUMPI DUP7 DUP7 DUP3 DUP2 DUP2 LT PUSH2 0xF5B JUMPI PUSH2 0xF5A PUSH2 0x21AB JUMP JUMPDEST JUMPDEST SWAP1 POP PUSH1 0x20 MUL ADD CALLDATALOAD DUP4 PUSH20 0xFFFFFFFFFFFFFFFFFFFFFFFFFFFFFFFFFFFFFFFF AND PUSH4 0x70A08231 PUSH1 0x9 PUSH0 SWAP1 SLOAD SWAP1 PUSH2 0x100 EXP SWAP1 DIV PUSH20 0xFFFFFFFFFFFFFFFFFFFFFFFFFFFFFFFFFFFFFFFF AND PUSH1 0x40 MLOAD DUP3 PUSH4 0xFFFFFFFF AND PUSH1 0xE0 SHL DUP2 MSTORE PUSH1 0x4 ADD PUSH2 0xFBC SWAP2 SWAP1 PUSH2 0x2192 JUMP JUMPDEST PUSH1 0x20 PUSH1 0x40 MLOAD DUP1 DUP4 SUB DUP2 DUP7 GAS STATICCALL ISZERO DUP1 ISZERO PUSH2 0xFD7 JUMPI RETURNDATASIZE PUSH0 DUP1 RETURNDATACOPY RETURNDATASIZE PUSH0 REVERT JUMPDEST POP POP POP POP PUSH1 0x40 MLOAD RETURNDATASIZE PUSH1 0x1F NOT PUSH1 0x1F DUP3 ADD AND DUP3 ADD DUP1 PUSH1 0x40 MSTORE POP DUP2 ADD SWAP1 PUSH2 0xFFB SWAP2 SWAP1 PUSH2 0x26DF JUMP JUMPDEST GT PUSH2 0x103B JUMPI PUSH1 0x40 MLOAD PUSH32 0x8C379A000000000000000000000000000000000000000000000000000000000 DUP2 MSTORE PUSH1 0x4 ADD PUSH2 0x1032 SWAP1 PUSH2 0x2754 JUMP JUMPDEST PUSH1 0x40 MLOAD DUP1 SWAP2 SUB SWAP1 REVERT JUMPDEST PUSH2 0x1160 JUMP JUMPDEST PUSH1 0x9 PUSH0 SWAP1 SLOAD SWAP1 PUSH2 0x100 EXP SWAP1 DIV PUSH20 0xFFFFFFFFFFFFFFFFFFFFFFFFFFFFFFFFFFFFFFFF AND PUSH20 0xFFFFFFFFFFFFFFFFFFFFFFFFFFFFFFFFFFFFFFFF AND DUP5 PUSH20 0xFFFFFFFFFFFFFFFFFFFFFFFFFFFFFFFFFFFFFFFF AND PUSH4 0x6352211E DUP10 DUP10 DUP6 DUP2 DUP2 LT PUSH2 0x10A7 JUMPI PUSH2 0x10A6 PUSH2 0x21AB JUMP JUMPDEST JUMPDEST SWAP1 POP PUSH1 0x20 MUL ADD CALLDATALOAD PUSH1 0x40 MLOAD DUP3 PUSH4 0xFFFFFFFF AND PUSH1 0xE0 SHL DUP2 MSTORE PUSH1 0x4 ADD PUSH2 0x10CA SWAP2 SWAP1 PUSH2 0x1DDC JUMP JUMPDEST PUSH1 0x20 PUSH1 0x40 MLOAD DUP1 DUP4 SUB DUP2 DUP7 GAS STATICCALL ISZERO DUP1 ISZERO PUSH2 0x10E5 JUMPI RETURNDATASIZE PUSH0 DUP1 RETURNDATACOPY RETURNDATASIZE PUSH0 REVERT JUMPDEST POP POP POP POP PUSH1 0x40 MLOAD RETURNDATASIZE PUSH1 0x1F NOT PUSH1 0x1F DUP3 ADD AND DUP3 ADD DUP1 PUSH1 0x40 MSTORE POP DUP2 ADD SWAP1 PUSH2 0x1109 SWAP2 SWAP1 PUSH2 0x2786 JUMP JUMPDEST PUSH20 0xFFFFFFFFFFFFFFFFFFFFFFFFFFFFFFFFFFFFFFFF AND EQ PUSH2 0x115F JUMPI PUSH1 0x40 MLOAD PUSH32 0x8C379A000000000000000000000000000000000000000000000000000000000 DUP2 MSTORE PUSH1 0x4 ADD PUSH2 0x1156 SWAP1 PUSH2 0x27FB JUMP JUMPDEST PUSH1 0x40 MLOAD DUP1 SWAP2 SUB SWAP1 REVERT JUMPDEST JUMPDEST PUSH1 0x5 PUSH0 PUSH1 0x7 SLOAD DUP2 MSTORE PUSH1 0x20 ADD SWAP1 DUP2 MSTORE PUSH1 0x20 ADD PUSH0 KECCAK256 PUSH0 DUP4 PUSH20 0xFFFFFFFFFFFFFFFFFFFFFFFFFFFFFFFFFFFFFFFF AND PUSH20 0xFFFFFFFFFFFFFFFFFFFFFFFFFFFFFFFFFFFFFFFF AND DUP2 MSTORE PUSH1 0x20 ADD SWAP1 DUP2 MSTORE PUSH1 0x20 ADD PUSH0 KECCAK256 PUSH0 SWAP1 SLOAD SWAP1 PUSH2 0x100 EXP SWAP1 DIV PUSH1 0xFF AND PUSH2 0x1440 JUMPI PUSH1 0x1 PUSH1 0x5 PUSH0 PUSH1 0x7 SLOAD DUP2 MSTORE PUSH1 0x20 ADD SWAP1 DUP2 MSTORE PUSH1 0x20 ADD PUSH0 KECCAK256 PUSH0 DUP5 PUSH20 0xFFFFFFFFFFFFFFFFFFFFFFFFFFFFFFFFFFFFFFFF AND PUSH20 0xFFFFFFFFFFFFFFFFFFFFFFFFFFFFFFFFFFFFFFFF AND DUP2 MSTORE PUSH1 0x20 ADD SWAP1 DUP2 MSTORE PUSH1 0x20 ADD PUSH0 KECCAK256 PUSH0 PUSH2 0x100 EXP DUP2 SLOAD DUP2 PUSH1 0xFF MUL NOT AND SWAP1 DUP4 ISZERO ISZERO MUL OR SWAP1 SSTORE POP PUSH0 PUSH1 0xA SLOAD SUB PUSH2 0x1283 JUMPI PUSH32 0xCCD301C3C585E9D034F1404F101F4D1B3828A9EB5A4BC60B5C2935736DFFE4A9 DUP8 DUP8 DUP4 DUP2 DUP2 LT PUSH2 0x1262 JUMPI PUSH2 0x1261 PUSH2 0x21AB JUMP JUMPDEST JUMPDEST SWAP1 POP PUSH1 0x20 MUL ADD CALLDATALOAD PUSH1 0x40 MLOAD PUSH2 0x1276 SWAP2 SWAP1 PUSH2 0x2863 JUMP JUMPDEST PUSH1 0x40 MLOAD DUP1 SWAP2 SUB SWAP1 LOG1 PUSH2 0x12D4 JUMP JUMPDEST PUSH32 0xCCD301C3C585E9D034F1404F101F4D1B3828A9EB5A4BC60B5C2935736DFFE4A9 DUP8 DUP8 DUP4 DUP2 DUP2 LT PUSH2 0x12B7 JUMPI PUSH2 0x12B6 PUSH2 0x21AB JUMP JUMPDEST JUMPDEST SWAP1 POP PUSH1 0x20 MUL ADD CALLDATALOAD PUSH1 0x40 MLOAD PUSH2 0x12CB SWAP2 SWAP1 PUSH2 0x28D9 JUMP JUMPDEST PUSH1 0x40 MLOAD DUP1 SWAP2 SUB SWAP1 LOG1 JUMPDEST PUSH0 PUSH1 0xA SLOAD SUB PUSH2 0x139A JUMPI DUP3 PUSH20 0xFFFFFFFFFFFFFFFFFFFFFFFFFFFFFFFFFFFFFFFF AND PUSH4 0x23B872DD PUSH1 0x9 PUSH0 SWAP1 SLOAD SWAP1 PUSH2 0x100 EXP SWAP1 DIV PUSH20 0xFFFFFFFFFFFFFFFFFFFFFFFFFFFFFFFFFFFFFFFF AND DUP5 DUP11 DUP11 DUP7 DUP2 DUP2 LT PUSH2 0x132F JUMPI PUSH2 0x132E PUSH2 0x21AB JUMP JUMPDEST JUMPDEST SWAP1 POP PUSH1 0x20 MUL ADD CALLDATALOAD PUSH1 0x40 MLOAD DUP5 PUSH4 0xFFFFFFFF AND PUSH1 0xE0 SHL DUP2 MSTORE PUSH1 0x4 ADD PUSH2 0x1354 SWAP4 SWAP3 SWAP2 SWAP1 PUSH2 0x2905 JUMP JUMPDEST PUSH1 0x20 PUSH1 0x40 MLOAD DUP1 DUP4 SUB DUP2 PUSH0 DUP8 GAS CALL ISZERO DUP1 ISZERO PUSH2 0x1370 JUMPI RETURNDATASIZE PUSH0 DUP1 RETURNDATACOPY RETURNDATASIZE PUSH0 REVERT JUMPDEST POP POP POP POP PUSH1 0x40 MLOAD RETURNDATASIZE PUSH1 0x1F NOT PUSH1 0x1F DUP3 ADD AND DUP3 ADD DUP1 PUSH1 0x40 MSTORE POP DUP2 ADD SWAP1 PUSH2 0x1394 SWAP2 SWAP1 PUSH2 0x2964 JUMP JUMPDEST POP PUSH2 0x143F JUMP JUMPDEST DUP4 PUSH20 0xFFFFFFFFFFFFFFFFFFFFFFFFFFFFFFFFFFFFFFFF AND PUSH4 0x23B872DD PUSH1 0x9 PUSH0 SWAP1 SLOAD SWAP1 PUSH2 0x100 EXP SWAP1 DIV PUSH20 0xFFFFFFFFFFFFFFFFFFFFFFFFFFFFFFFFFFFFFFFF AND DUP5 DUP11 DUP11 DUP7 DUP2 DUP2 LT PUSH2 0x13EC JUMPI PUSH2 0x13EB PUSH2 0x21AB JUMP JUMPDEST JUMPDEST SWAP1 POP PUSH1 0x20 MUL ADD CALLDATALOAD PUSH1 0x40 MLOAD DUP5 PUSH4 0xFFFFFFFF AND PUSH1 0xE0 SHL DUP2 MSTORE PUSH1 0x4 ADD PUSH2 0x1411 SWAP4 SWAP3 SWAP2 SWAP1 PUSH2 0x2905 JUMP JUMPDEST PUSH0 PUSH1 0x40 MLOAD DUP1 DUP4 SUB DUP2 PUSH0 DUP8 DUP1 EXTCODESIZE ISZERO DUP1 ISZERO PUSH2 0x1428 JUMPI PUSH0 DUP1 REVERT JUMPDEST POP GAS CALL ISZERO DUP1 ISZERO PUSH2 0x143A JUMPI RETURNDATASIZE PUSH0 DUP1 RETURNDATACOPY RETURNDATASIZE PUSH0 REVERT JUMPDEST POP POP POP POP JUMPDEST JUMPDEST DUP1 DUP1 PUSH1 0x1 ADD SWAP2 POP POP PUSH2 0xEF4 JUMP JUMPDEST POP PUSH1 0x1 SWAP4 POP POP POP POP SWAP3 SWAP2 POP POP JUMP JUMPDEST PUSH0 PUSH1 0x7 PUSH0 DUP2 SLOAD DUP1 SWAP3 SWAP2 SWAP1 PUSH2 0x146E SWAP1 PUSH2 0x29BC JUMP JUMPDEST SWAP2 SWAP1 POP SSTORE POP PUSH1 0x1 SWAP1 POP SWAP1 JUMP JUMPDEST PUSH0 PUSH20 0xFFFFFFFFFFFFFFFFFFFFFFFFFFFFFFFFFFFFFFFF AND DUP5 PUSH20 0xFFFFFFFFFFFFFFFFFFFFFFFFFFFFFFFFFFFFFFFF AND SUB PUSH2 0x14EA JUMPI PUSH0 PUSH1 0x40 MLOAD PUSH32 0xE602DF0500000000000000000000000000000000000000000000000000000000 DUP2 MSTORE PUSH1 0x4 ADD PUSH2 0x14E1 SWAP2 SWAP1 PUSH2 0x2192 JUMP JUMPDEST PUSH1 0x40 MLOAD DUP1 SWAP2 SUB SWAP1 REVERT JUMPDEST PUSH0 PUSH20 0xFFFFFFFFFFFFFFFFFFFFFFFFFFFFFFFFFFFFFFFF AND DUP4 PUSH20 0xFFFFFFFFFFFFFFFFFFFFFFFFFFFFFFFFFFFFFFFF AND SUB PUSH2 0x155A JUMPI PUSH0 PUSH1 0x40 MLOAD PUSH32 0x94280D6200000000000000000000000000000000000000000000000000000000 DUP2 MSTORE PUSH1 0x4 ADD PUSH2 0x1551 SWAP2 SWAP1 PUSH2 0x2192 JUMP JUMPDEST PUSH1 0x40 MLOAD DUP1 SWAP2 SUB SWAP1 REVERT JUMPDEST DUP2 PUSH1 0x1 PUSH0 DUP7 PUSH20 0xFFFFFFFFFFFFFFFFFFFFFFFFFFFFFFFFFFFFFFFF AND PUSH20 0xFFFFFFFFFFFFFFFFFFFFFFFFFFFFFFFFFFFFFFFF AND DUP2 MSTORE PUSH1 0x20 ADD SWAP1 DUP2 MSTORE PUSH1 0x20 ADD PUSH0 KECCAK256 PUSH0 DUP6 PUSH20 0xFFFFFFFFFFFFFFFFFFFFFFFFFFFFFFFFFFFFFFFF AND PUSH20 0xFFFFFFFFFFFFFFFFFFFFFFFFFFFFFFFFFFFFFFFF AND DUP2 MSTORE PUSH1 0x20 ADD SWAP1 DUP2 MSTORE PUSH1 0x20 ADD PUSH0 KECCAK256 DUP2 SWAP1 SSTORE POP DUP1 ISZERO PUSH2 0x1643 JUMPI DUP3 PUSH20 0xFFFFFFFFFFFFFFFFFFFFFFFFFFFFFFFFFFFFFFFF AND DUP5 PUSH20 0xFFFFFFFFFFFFFFFFFFFFFFFFFFFFFFFFFFFFFFFF AND PUSH32 0x8C5BE1E5EBEC7D5BD14F71427D1E84F3DD0314C0F7B2291E5B200AC8C7C3B925 DUP5 PUSH1 0x40 MLOAD PUSH2 0x163A SWAP2 SWAP1 PUSH2 0x1DDC JUMP JUMPDEST PUSH1 0x40 MLOAD DUP1 SWAP2 SUB SWAP1 LOG3 JUMPDEST POP POP POP POP JUMP JUMPDEST PUSH0 PUSH20 0xFFFFFFFFFFFFFFFFFFFFFFFFFFFFFFFFFFFFFFFF AND DUP4 PUSH20 0xFFFFFFFFFFFFFFFFFFFFFFFFFFFFFFFFFFFFFFFF AND SUB PUSH2 0x1699 JUMPI DUP1 PUSH1 0x2 PUSH0 DUP3 DUP3 SLOAD PUSH2 0x168D SWAP2 SWAP1 PUSH2 0x2A03 JUMP JUMPDEST SWAP3 POP POP DUP2 SWAP1 SSTORE POP PUSH2 0x1767 JUMP JUMPDEST PUSH0 DUP1 PUSH0 DUP6 PUSH20 0xFFFFFFFFFFFFFFFFFFFFFFFFFFFFFFFFFFFFFFFF AND PUSH20 0xFFFFFFFFFFFFFFFFFFFFFFFFFFFFFFFFFFFFFFFF AND DUP2 MSTORE PUSH1 0x20 ADD SWAP1 DUP2 MSTORE PUSH1 0x20 ADD PUSH0 KECCAK256 SLOAD SWAP1 POP DUP2 DUP2 LT ISZERO PUSH2 0x1722 JUMPI DUP4 DUP2 DUP4 PUSH1 0x40 MLOAD PUSH32 0xE450D38C00000000000000000000000000000000000000000000000000000000 DUP2 MSTORE PUSH1 0x4 ADD PUSH2 0x1719 SWAP4 SWAP3 SWAP2 SWAP1 PUSH2 0x215D JUMP JUMPDEST PUSH1 0x40 MLOAD DUP1 SWAP2 SUB SWAP1 REVERT JUMPDEST DUP2 DUP2 SUB PUSH0 DUP1 DUP7 PUSH20 0xFFFFFFFFFFFFFFFFFFFFFFFFFFFFFFFFFFFFFFFF AND PUSH20 0xFFFFFFFFFFFFFFFFFFFFFFFFFFFFFFFFFFFFFFFF AND DUP2 MSTORE PUSH1 0x20 ADD SWAP1 DUP2 MSTORE PUSH1 0x20 ADD PUSH0 KECCAK256 DUP2 SWAP1 SSTORE POP POP JUMPDEST PUSH0 PUSH20 0xFFFFFFFFFFFFFFFFFFFFFFFFFFFFFFFFFFFFFFFF AND DUP3 PUSH20 0xFFFFFFFFFFFFFFFFFFFFFFFFFFFFFFFFFFFFFFFF AND SUB PUSH2 0x17AE JUMPI DUP1 PUSH1 0x2 PUSH0 DUP3 DUP3 SLOAD SUB SWAP3 POP POP DUP2 SWAP1 SSTORE POP PUSH2 0x17F8 JUMP JUMPDEST DUP1 PUSH0 DUP1 DUP5 PUSH20 0xFFFFFFFFFFFFFFFFFFFFFFFFFFFFFFFFFFFFFFFF AND PUSH20 0xFFFFFFFFFFFFFFFFFFFFFFFFFFFFFFFFFFFFFFFF AND DUP2 MSTORE PUSH1 0x20 ADD SWAP1 DUP2 MSTORE PUSH1 0x20 ADD PUSH0 KECCAK256 PUSH0 DUP3 DUP3 SLOAD ADD SWAP3 POP POP DUP2 SWAP1 SSTORE POP JUMPDEST DUP2 PUSH20 0xFFFFFFFFFFFFFFFFFFFFFFFFFFFFFFFFFFFFFFFF AND DUP4 PUSH20 0xFFFFFFFFFFFFFFFFFFFFFFFFFFFFFFFFFFFFFFFF AND PUSH32 0xDDF252AD1BE2C89B69C2B068FC378DAA952BA7F163C4A11628F55A4DF523B3EF DUP4 PUSH1 0x40 MLOAD PUSH2 0x1855 SWAP2 SWAP1 PUSH2 0x1DDC JUMP JUMPDEST PUSH1 0x40 MLOAD DUP1 SWAP2 SUB SWAP1 LOG3 POP POP POP JUMP JUMPDEST PUSH0 DUP1 PUSH2 0x186D DUP5 PUSH2 0x194E JUMP JUMPDEST GT ISZERO PUSH2 0x187C JUMPI PUSH1 0x1 SWAP1 POP PUSH2 0x1948 JUMP JUMPDEST PUSH0 DUP4 SWAP1 POP PUSH4 0x150B7A02 PUSH1 0xE0 SHL PUSH28 0xFFFFFFFFFFFFFFFFFFFFFFFFFFFFFFFFFFFFFFFFFFFFFFFFFFFFFFFF NOT AND DUP2 PUSH20 0xFFFFFFFFFFFFFFFFFFFFFFFFFFFFFFFFFFFFFFFF AND PUSH4 0x150B7A02 ADDRESS CALLER DUP8 PUSH1 0x40 MLOAD DUP5 PUSH4 0xFFFFFFFF AND PUSH1 0xE0 SHL DUP2 MSTORE PUSH1 0x4 ADD PUSH2 0x18E4 SWAP4 SWAP3 SWAP2 SWAP1 PUSH2 0x2A59 JUMP JUMPDEST PUSH1 0x20 PUSH1 0x40 MLOAD DUP1 DUP4 SUB DUP2 PUSH0 DUP8 GAS CALL ISZERO DUP1 ISZERO PUSH2 0x1900 JUMPI RETURNDATASIZE PUSH0 DUP1 RETURNDATACOPY RETURNDATASIZE PUSH0 REVERT JUMPDEST POP POP POP POP PUSH1 0x40 MLOAD RETURNDATASIZE PUSH1 0x1F NOT PUSH1 0x1F DUP3 ADD AND DUP3 ADD DUP1 PUSH1 0x40 MSTORE POP DUP2 ADD SWAP1 PUSH2 0x1924 SWAP2 SWAP1 PUSH2 0x2ACB JUMP JUMPDEST PUSH28 0xFFFFFFFFFFFFFFFFFFFFFFFFFFFFFFFFFFFFFFFFFFFFFFFFFFFFFFFF NOT AND EQ SWAP2 POP POP JUMPDEST SWAP3 SWAP2 POP POP JUMP JUMPDEST PUSH0 DUP2 EXTCODESIZE SWAP1 POP SWAP2 SWAP1 POP JUMP JUMPDEST PUSH0 DUP2 MLOAD SWAP1 POP SWAP2 SWAP1 POP JUMP JUMPDEST PUSH0 DUP3 DUP3 MSTORE PUSH1 0x20 DUP3 ADD SWAP1 POP SWAP3 SWAP2 POP POP JUMP JUMPDEST DUP3 DUP2 DUP4 MCOPY PUSH0 DUP4 DUP4 ADD MSTORE POP POP POP JUMP JUMPDEST PUSH0 PUSH1 0x1F NOT PUSH1 0x1F DUP4 ADD AND SWAP1 POP SWAP2 SWAP1 POP JUMP JUMPDEST PUSH0 PUSH2 0x199A DUP3 PUSH2 0x1958 JUMP JUMPDEST PUSH2 0x19A4 DUP2 DUP6 PUSH2 0x1962 JUMP JUMPDEST SWAP4 POP PUSH2 0x19B4 DUP2 DUP6 PUSH1 0x20 DUP7 ADD PUSH2 0x1972 JUMP JUMPDEST PUSH2 0x19BD DUP2 PUSH2 0x1980 JUMP JUMPDEST DUP5 ADD SWAP2 POP POP SWAP3 SWAP2 POP POP JUMP JUMPDEST PUSH0 PUSH1 0x20 DUP3 ADD SWAP1 POP DUP2 DUP2 SUB PUSH0 DUP4 ADD MSTORE PUSH2 0x19E0 DUP2 DUP5 PUSH2 0x1990 JUMP JUMPDEST SWAP1 POP SWAP3 SWAP2 POP POP JUMP JUMPDEST PUSH0 PUSH1 0x40 MLOAD SWAP1 POP SWAP1 JUMP JUMPDEST PUSH0 DUP1 REVERT JUMPDEST PUSH0 DUP1 REVERT JUMPDEST PUSH0 PUSH20 0xFFFFFFFFFFFFFFFFFFFFFFFFFFFFFFFFFFFFFFFF DUP3 AND SWAP1 POP SWAP2 SWAP1 POP JUMP JUMPDEST PUSH0 PUSH2 0x1A22 DUP3 PUSH2 0x19F9 JUMP JUMPDEST SWAP1 POP SWAP2 SWAP1 POP JUMP JUMPDEST PUSH2 0x1A32 DUP2 PUSH2 0x1A18 JUMP JUMPDEST DUP2 EQ PUSH2 0x1A3C JUMPI PUSH0 DUP1 REVERT JUMPDEST POP JUMP JUMPDEST PUSH0 DUP2 CALLDATALOAD SWAP1 POP PUSH2 0x1A4D DUP2 PUSH2 0x1A29 JUMP JUMPDEST SWAP3 SWAP2 POP POP JUMP JUMPDEST PUSH0 DUP2 SWAP1 POP SWAP2 SWAP1 POP JUMP JUMPDEST PUSH2 0x1A65 DUP2 PUSH2 0x1A53 JUMP JUMPDEST DUP2 EQ PUSH2 0x1A6F JUMPI PUSH0 DUP1 REVERT JUMPDEST POP JUMP JUMPDEST PUSH0 DUP2 CALLDATALOAD SWAP1 POP PUSH2 0x1A80 DUP2 PUSH2 0x1A5C JUMP JUMPDEST SWAP3 SWAP2 POP POP JUMP JUMPDEST PUSH0 DUP1 PUSH1 0x40 DUP4 DUP6 SUB SLT ISZERO PUSH2 0x1A9C JUMPI PUSH2 0x1A9B PUSH2 0x19F1 JUMP JUMPDEST JUMPDEST PUSH0 PUSH2 0x1AA9 DUP6 DUP3 DUP7 ADD PUSH2 0x1A3F JUMP JUMPDEST SWAP3 POP POP PUSH1 0x20 PUSH2 0x1ABA DUP6 DUP3 DUP7 ADD PUSH2 0x1A72 JUMP JUMPDEST SWAP2 POP POP SWAP3 POP SWAP3 SWAP1 POP JUMP JUMPDEST PUSH0 DUP2 ISZERO ISZERO SWAP1 POP SWAP2 SWAP1 POP JUMP JUMPDEST PUSH2 0x1AD8 DUP2 PUSH2 0x1AC4 JUMP JUMPDEST DUP3 MSTORE POP POP JUMP JUMPDEST PUSH0 PUSH1 0x20 DUP3 ADD SWAP1 POP PUSH2 0x1AF1 PUSH0 DUP4 ADD DUP5 PUSH2 0x1ACF JUMP JUMPDEST SWAP3 SWAP2 POP POP JUMP JUMPDEST PUSH0 DUP2 MLOAD SWAP1 POP SWAP2 SWAP1 POP JUMP JUMPDEST PUSH0 DUP3 DUP3 MSTORE PUSH1 0x20 DUP3 ADD SWAP1 POP SWAP3 SWAP2 POP POP JUMP JUMPDEST PUSH0 DUP2 SWAP1 POP PUSH1 0x20 DUP3 ADD SWAP1 POP SWAP2 SWAP1 POP JUMP JUMPDEST PUSH2 0x1B29 DUP2 PUSH2 0x1A18 JUMP JUMPDEST DUP3 MSTORE POP POP JUMP JUMPDEST PUSH0 PUSH2 0x1B3A DUP4 DUP4 PUSH2 0x1B20 JUMP JUMPDEST PUSH1 0x20 DUP4 ADD SWAP1 POP SWAP3 SWAP2 POP POP JUMP JUMPDEST PUSH0 PUSH1 0x20 DUP3 ADD SWAP1 POP SWAP2 SWAP1 POP JUMP JUMPDEST PUSH0 PUSH2 0x1B5C DUP3 PUSH2 0x1AF7 JUMP JUMPDEST PUSH2 0x1B66 DUP2 DUP6 PUSH2 0x1B01 JUMP JUMPDEST SWAP4 POP PUSH2 0x1B71 DUP4 PUSH2 0x1B11 JUMP JUMPDEST DUP1 PUSH0 JUMPDEST DUP4 DUP2 LT ISZERO PUSH2 0x1BA1 JUMPI DUP2 MLOAD PUSH2 0x1B88 DUP9 DUP3 PUSH2 0x1B2F JUMP JUMPDEST SWAP8 POP PUSH2 0x1B93 DUP4 PUSH2 0x1B46 JUMP JUMPDEST SWAP3 POP POP PUSH1 0x1 DUP2 ADD SWAP1 POP PUSH2 0x1B74 JUMP JUMPDEST POP DUP6 SWAP4 POP POP POP POP SWAP3 SWAP2 POP POP JUMP JUMPDEST PUSH0 PUSH1 0x20 DUP3 ADD SWAP1 POP DUP2 DUP2 SUB PUSH0 DUP4 ADD MSTORE PUSH2 0x1BC6 DUP2 DUP5 PUSH2 0x1B52 JUMP JUMPDEST SWAP1 POP SWAP3 SWAP2 POP POP JUMP JUMPDEST PUSH0 DUP1 REVERT JUMPDEST PUSH0 DUP1 REVERT JUMPDEST PUSH32 0x4E487B7100000000000000000000000000000000000000000000000000000000 PUSH0 MSTORE PUSH1 0x41 PUSH1 0x4 MSTORE PUSH1 0x24 PUSH0 REVERT JUMPDEST PUSH2 0x1C0C DUP3 PUSH2 0x1980 JUMP JUMPDEST DUP2 ADD DUP2 DUP2 LT PUSH8 0xFFFFFFFFFFFFFFFF DUP3 GT OR ISZERO PUSH2 0x1C2B JUMPI PUSH2 0x1C2A PUSH2 0x1BD6 JUMP JUMPDEST JUMPDEST DUP1 PUSH1 0x40 MSTORE POP POP POP JUMP JUMPDEST PUSH0 PUSH2 0x1C3D PUSH2 0x19E8 JUMP JUMPDEST SWAP1 POP PUSH2 0x1C49 DUP3 DUP3 PUSH2 0x1C03 JUMP JUMPDEST SWAP2 SWAP1 POP JUMP JUMPDEST PUSH0 PUSH8 0xFFFFFFFFFFFFFFFF DUP3 GT ISZERO PUSH2 0x1C68 JUMPI PUSH2 0x1C67 PUSH2 0x1BD6 JUMP JUMPDEST JUMPDEST PUSH2 0x1C71 DUP3 PUSH2 0x1980 JUMP JUMPDEST SWAP1 POP PUSH1 0x20 DUP2 ADD SWAP1 POP SWAP2 SWAP1 POP JUMP JUMPDEST DUP3 DUP2 DUP4 CALLDATACOPY PUSH0 DUP4 DUP4 ADD MSTORE POP POP POP JUMP JUMPDEST PUSH0 PUSH2 0x1C9E PUSH2 0x1C99 DUP5 PUSH2 0x1C4E JUMP JUMPDEST PUSH2 0x1C34 JUMP JUMPDEST SWAP1 POP DUP3 DUP2 MSTORE PUSH1 0x20 DUP2 ADD DUP5 DUP5 DUP5 ADD GT ISZERO PUSH2 0x1CBA JUMPI PUSH2 0x1CB9 PUSH2 0x1BD2 JUMP JUMPDEST JUMPDEST PUSH2 0x1CC5 DUP5 DUP3 DUP6 PUSH2 0x1C7E JUMP JUMPDEST POP SWAP4 SWAP3 POP POP POP JUMP JUMPDEST PUSH0 DUP3 PUSH1 0x1F DUP4 ADD SLT PUSH2 0x1CE1 JUMPI PUSH2 0x1CE0 PUSH2 0x1BCE JUMP JUMPDEST JUMPDEST DUP2 CALLDATALOAD PUSH2 0x1CF1 DUP5 DUP3 PUSH1 0x20 DUP7 ADD PUSH2 0x1C8C JUMP JUMPDEST SWAP2 POP POP SWAP3 SWAP2 POP POP JUMP JUMPDEST PUSH0 DUP1 PUSH0 DUP1 PUSH1 0x80 DUP6 DUP8 SUB SLT ISZERO PUSH2 0x1D12 JUMPI PUSH2 0x1D11 PUSH2 0x19F1 JUMP JUMPDEST JUMPDEST PUSH0 PUSH2 0x1D1F DUP8 DUP3 DUP9 ADD PUSH2 0x1A3F JUMP JUMPDEST SWAP5 POP POP PUSH1 0x20 PUSH2 0x1D30 DUP8 DUP3 DUP9 ADD PUSH2 0x1A3F JUMP JUMPDEST SWAP4 POP POP PUSH1 0x40 PUSH2 0x1D41 DUP8 DUP3 DUP9 ADD PUSH2 0x1A72 JUMP JUMPDEST SWAP3 POP POP PUSH1 0x60 DUP6 ADD CALLDATALOAD PUSH8 0xFFFFFFFFFFFFFFFF DUP2 GT ISZERO PUSH2 0x1D62 JUMPI PUSH2 0x1D61 PUSH2 0x19F5 JUMP JUMPDEST JUMPDEST PUSH2 0x1D6E DUP8 DUP3 DUP9 ADD PUSH2 0x1CCD JUMP JUMPDEST SWAP2 POP POP SWAP3 SWAP6 SWAP2 SWAP5 POP SWAP3 POP JUMP JUMPDEST PUSH0 PUSH32 0xFFFFFFFF00000000000000000000000000000000000000000000000000000000 DUP3 AND SWAP1 POP SWAP2 SWAP1 POP JUMP JUMPDEST PUSH2 0x1DAE DUP2 PUSH2 0x1D7A JUMP JUMPDEST DUP3 MSTORE POP POP JUMP JUMPDEST PUSH0 PUSH1 0x20 DUP3 ADD SWAP1 POP PUSH2 0x1DC7 PUSH0 DUP4 ADD DUP5 PUSH2 0x1DA5 JUMP JUMPDEST SWAP3 SWAP2 POP POP JUMP JUMPDEST PUSH2 0x1DD6 DUP2 PUSH2 0x1A53 JUMP JUMPDEST DUP3 MSTORE POP POP JUMP JUMPDEST PUSH0 PUSH1 0x20 DUP3 ADD SWAP1 POP PUSH2 0x1DEF PUSH0 DUP4 ADD DUP5 PUSH2 0x1DCD JUMP JUMPDEST SWAP3 SWAP2 POP POP JUMP JUMPDEST PUSH0 DUP1 PUSH0 PUSH1 0x60 DUP5 DUP7 SUB SLT ISZERO PUSH2 0x1E0C JUMPI PUSH2 0x1E0B PUSH2 0x19F1 JUMP JUMPDEST JUMPDEST PUSH0 PUSH2 0x1E19 DUP7 DUP3 DUP8 ADD PUSH2 0x1A3F JUMP JUMPDEST SWAP4 POP POP PUSH1 0x20 PUSH2 0x1E2A DUP7 DUP3 DUP8 ADD PUSH2 0x1A3F JUMP JUMPDEST SWAP3 POP POP PUSH1 0x40 PUSH2 0x1E3B DUP7 DUP3 DUP8 ADD PUSH2 0x1A72 JUMP JUMPDEST SWAP2 POP POP SWAP3 POP SWAP3 POP SWAP3 JUMP JUMPDEST PUSH0 PUSH1 0xFF DUP3 AND SWAP1 POP SWAP2 SWAP1 POP JUMP JUMPDEST PUSH2 0x1E5A DUP2 PUSH2 0x1E45 JUMP JUMPDEST DUP3 MSTORE POP POP JUMP JUMPDEST PUSH0 PUSH1 0x20 DUP3 ADD SWAP1 POP PUSH2 0x1E73 PUSH0 DUP4 ADD DUP5 PUSH2 0x1E51 JUMP JUMPDEST SWAP3 SWAP2 POP POP JUMP JUMPDEST PUSH0 DUP1 REVERT JUMPDEST PUSH0 DUP1 REVERT JUMPDEST PUSH0 DUP1 DUP4 PUSH1 0x1F DUP5 ADD SLT PUSH2 0x1E96 JUMPI PUSH2 0x1E95 PUSH2 0x1BCE JUMP JUMPDEST JUMPDEST DUP3 CALLDATALOAD SWAP1 POP PUSH8 0xFFFFFFFFFFFFFFFF DUP2 GT ISZERO PUSH2 0x1EB3 JUMPI PUSH2 0x1EB2 PUSH2 0x1E79 JUMP JUMPDEST JUMPDEST PUSH1 0x20 DUP4 ADD SWAP2 POP DUP4 PUSH1 0x20 DUP3 MUL DUP4 ADD GT ISZERO PUSH2 0x1ECF JUMPI PUSH2 0x1ECE PUSH2 0x1E7D JUMP JUMPDEST JUMPDEST SWAP3 POP SWAP3 SWAP1 POP JUMP JUMPDEST PUSH0 DUP1 PUSH1 0x20 DUP4 DUP6 SUB SLT ISZERO PUSH2 0x1EEC JUMPI PUSH2 0x1EEB PUSH2 0x19F1 JUMP JUMPDEST JUMPDEST PUSH0 DUP4 ADD CALLDATALOAD PUSH8 0xFFFFFFFFFFFFFFFF DUP2 GT ISZERO PUSH2 0x1F09 JUMPI PUSH2 0x1F08 PUSH2 0x19F5 JUMP JUMPDEST JUMPDEST PUSH2 0x1F15 DUP6 DUP3 DUP7 ADD PUSH2 0x1E81 JUMP JUMPDEST SWAP3 POP SWAP3 POP POP SWAP3 POP SWAP3 SWAP1 POP JUMP JUMPDEST PUSH0 PUSH1 0x20 DUP3 DUP5 SUB SLT ISZERO PUSH2 0x1F36 JUMPI PUSH2 0x1F35 PUSH2 0x19F1 JUMP JUMPDEST JUMPDEST PUSH0 PUSH2 0x1F43 DUP5 DUP3 DUP6 ADD PUSH2 0x1A3F JUMP JUMPDEST SWAP2 POP POP SWAP3 SWAP2 POP POP JUMP JUMPDEST PUSH0 PUSH1 0x20 DUP3 DUP5 SUB SLT ISZERO PUSH2 0x1F61 JUMPI PUSH2 0x1F60 PUSH2 0x19F1 JUMP JUMPDEST JUMPDEST PUSH0 PUSH2 0x1F6E DUP5 DUP3 DUP6 ADD PUSH2 0x1A72 JUMP JUMPDEST SWAP2 POP POP SWAP3 SWAP2 POP POP JUMP JUMPDEST PUSH0 DUP1 DUP4 PUSH1 0x1F DUP5 ADD SLT PUSH2 0x1F8C JUMPI PUSH2 0x1F8B PUSH2 0x1BCE JUMP JUMPDEST JUMPDEST DUP3 CALLDATALOAD SWAP1 POP PUSH8 0xFFFFFFFFFFFFFFFF DUP2 GT ISZERO PUSH2 0x1FA9 JUMPI PUSH2 0x1FA8 PUSH2 0x1E79 JUMP JUMPDEST JUMPDEST PUSH1 0x20 DUP4 ADD SWAP2 POP DUP4 PUSH1 0x20 DUP3 MUL DUP4 ADD GT ISZERO PUSH2 0x1FC5 JUMPI PUSH2 0x1FC4 PUSH2 0x1E7D JUMP JUMPDEST JUMPDEST SWAP3 POP SWAP3 SWAP1 POP JUMP JUMPDEST PUSH0 DUP1 PUSH1 0x20 DUP4 DUP6 SUB SLT ISZERO PUSH2 0x1FE2 JUMPI PUSH2 0x1FE1 PUSH2 0x19F1 JUMP JUMPDEST JUMPDEST PUSH0 DUP4 ADD CALLDATALOAD PUSH8 0xFFFFFFFFFFFFFFFF DUP2 GT ISZERO PUSH2 0x1FFF JUMPI PUSH2 0x1FFE PUSH2 0x19F5 JUMP JUMPDEST JUMPDEST PUSH2 0x200B DUP6 DUP3 DUP7 ADD PUSH2 0x1F77 JUMP JUMPDEST SWAP3 POP SWAP3 POP POP SWAP3 POP SWAP3 SWAP1 POP JUMP JUMPDEST PUSH0 DUP1 PUSH1 0x40 DUP4 DUP6 SUB SLT ISZERO PUSH2 0x202D JUMPI PUSH2 0x202C PUSH2 0x19F1 JUMP JUMPDEST JUMPDEST PUSH0 PUSH2 0x203A DUP6 DUP3 DUP7 ADD PUSH2 0x1A3F JUMP JUMPDEST SWAP3 POP POP PUSH1 0x20 PUSH2 0x204B DUP6 DUP3 DUP7 ADD PUSH2 0x1A3F JUMP JUMPDEST SWAP2 POP POP SWAP3 POP SWAP3 SWAP1 POP JUMP JUMPDEST PUSH32 0x4E487B7100000000000000000000000000000000000000000000000000000000 PUSH0 MSTORE PUSH1 0x22 PUSH1 0x4 MSTORE PUSH1 0x24 PUSH0 REVERT JUMPDEST PUSH0 PUSH1 0x2 DUP3 DIV SWAP1 POP PUSH1 0x1 DUP3 AND DUP1 PUSH2 0x2099 JUMPI PUSH1 0x7F DUP3 AND SWAP2 POP JUMPDEST PUSH1 0x20 DUP3 LT DUP2 SUB PUSH2 0x20AC JUMPI PUSH2 0x20AB PUSH2 0x2055 JUMP JUMPDEST JUMPDEST POP SWAP2 SWAP1 POP JUMP JUMPDEST PUSH2 0x20BB DUP2 PUSH2 0x1A18 JUMP JUMPDEST DUP3 MSTORE POP POP JUMP JUMPDEST PUSH0 DUP2 MLOAD SWAP1 POP SWAP2 SWAP1 POP JUMP JUMPDEST PUSH0 DUP3 DUP3 MSTORE PUSH1 0x20 DUP3 ADD SWAP1 POP SWAP3 SWAP2 POP POP JUMP JUMPDEST PUSH0 PUSH2 0x20E5 DUP3 PUSH2 0x20C1 JUMP JUMPDEST PUSH2 0x20EF DUP2 DUP6 PUSH2 0x20CB JUMP JUMPDEST SWAP4 POP PUSH2 0x20FF DUP2 DUP6 PUSH1 0x20 DUP7 ADD PUSH2 0x1972 JUMP JUMPDEST PUSH2 0x2108 DUP2 PUSH2 0x1980 JUMP JUMPDEST DUP5 ADD SWAP2 POP POP SWAP3 SWAP2 POP POP JUMP JUMPDEST PUSH0 PUSH1 0x80 DUP3 ADD SWAP1 POP PUSH2 0x2126 PUSH0 DUP4 ADD DUP8 PUSH2 0x20B2 JUMP JUMPDEST PUSH2 0x2133 PUSH1 0x20 DUP4 ADD DUP7 PUSH2 0x20B2 JUMP JUMPDEST PUSH2 0x2140 PUSH1 0x40 DUP4 ADD DUP6 PUSH2 0x1DCD JUMP JUMPDEST DUP2 DUP2 SUB PUSH1 0x60 DUP4 ADD MSTORE PUSH2 0x2152 DUP2 DUP5 PUSH2 0x20DB JUMP JUMPDEST SWAP1 POP SWAP6 SWAP5 POP POP POP POP POP JUMP JUMPDEST PUSH0 PUSH1 0x60 DUP3 ADD SWAP1 POP PUSH2 0x2170 PUSH0 DUP4 ADD DUP7 PUSH2 0x20B2 JUMP JUMPDEST PUSH2 0x217D PUSH1 0x20 DUP4 ADD DUP6 PUSH2 0x1DCD JUMP JUMPDEST PUSH2 0x218A PUSH1 0x40 DUP4 ADD DUP5 PUSH2 0x1DCD JUMP JUMPDEST SWAP5 SWAP4 POP POP POP POP JUMP JUMPDEST PUSH0 PUSH1 0x20 DUP3 ADD SWAP1 POP PUSH2 0x21A5 PUSH0 DUP4 ADD DUP5 PUSH2 0x20B2 JUMP JUMPDEST SWAP3 SWAP2 POP POP JUMP JUMPDEST PUSH32 0x4E487B7100000000000000000000000000000000000000000000000000000000 PUSH0 MSTORE PUSH1 0x32 PUSH1 0x4 MSTORE PUSH1 0x24 PUSH0 REVERT JUMPDEST PUSH32 0x5A65726F20416464726573732070726573656E74000000000000000000000000 PUSH0 DUP3 ADD MSTORE POP JUMP JUMPDEST PUSH0 PUSH2 0x220C PUSH1 0x14 DUP4 PUSH2 0x1962 JUMP JUMPDEST SWAP2 POP PUSH2 0x2217 DUP3 PUSH2 0x21D8 JUMP JUMPDEST PUSH1 0x20 DUP3 ADD SWAP1 POP SWAP2 SWAP1 POP JUMP JUMPDEST PUSH0 PUSH1 0x20 DUP3 ADD SWAP1 POP DUP2 DUP2 SUB PUSH0 DUP4 ADD MSTORE PUSH2 0x2239 DUP2 PUSH2 0x2200 JUMP JUMPDEST SWAP1 POP SWAP2 SWAP1 POP JUMP JUMPDEST PUSH32 0x4661756C7479206164647265737320666F756E64000000000000000000000000 PUSH0 DUP3 ADD MSTORE POP JUMP JUMPDEST PUSH0 PUSH2 0x2274 PUSH1 0x14 DUP4 PUSH2 0x1962 JUMP JUMPDEST SWAP2 POP PUSH2 0x227F DUP3 PUSH2 0x2240 JUMP JUMPDEST PUSH1 0x20 DUP3 ADD SWAP1 POP SWAP2 SWAP1 POP JUMP JUMPDEST PUSH0 PUSH1 0x20 DUP3 ADD SWAP1 POP DUP2 DUP2 SUB PUSH0 DUP4 ADD MSTORE PUSH2 0x22A1 DUP2 PUSH2 0x2268 JUMP JUMPDEST SWAP1 POP SWAP2 SWAP1 POP JUMP JUMPDEST PUSH32 0x4164647265737320616C6C726561647920457869737473000000000000000000 PUSH0 DUP3 ADD MSTORE POP JUMP JUMPDEST PUSH0 PUSH2 0x22DC PUSH1 0x17 DUP4 PUSH2 0x1962 JUMP JUMPDEST SWAP2 POP PUSH2 0x22E7 DUP3 PUSH2 0x22A8 JUMP JUMPDEST PUSH1 0x20 DUP3 ADD SWAP1 POP SWAP2 SWAP1 POP JUMP JUMPDEST PUSH0 PUSH1 0x20 DUP3 ADD SWAP1 POP DUP2 DUP2 SUB PUSH0 DUP4 ADD MSTORE PUSH2 0x2309 DUP2 PUSH2 0x22D0 JUMP JUMPDEST SWAP1 POP SWAP2 SWAP1 POP JUMP JUMPDEST PUSH0 DUP2 SWAP1 POP SWAP2 SWAP1 POP JUMP JUMPDEST PUSH0 PUSH2 0x2327 PUSH1 0x20 DUP5 ADD DUP5 PUSH2 0x1A3F JUMP JUMPDEST SWAP1 POP SWAP3 SWAP2 POP POP JUMP JUMPDEST PUSH0 PUSH1 0x20 DUP3 ADD SWAP1 POP SWAP2 SWAP1 POP JUMP JUMPDEST PUSH0 PUSH2 0x2346 DUP4 DUP6 PUSH2 0x1B01 JUMP JUMPDEST SWAP4 POP PUSH2 0x2351 DUP3 PUSH2 0x2310 JUMP JUMPDEST DUP1 PUSH0 JUMPDEST DUP6 DUP2 LT ISZERO PUSH2 0x2389 JUMPI PUSH2 0x2366 DUP3 DUP5 PUSH2 0x2319 JUMP JUMPDEST PUSH2 0x2370 DUP9 DUP3 PUSH2 0x1B2F JUMP JUMPDEST SWAP8 POP PUSH2 0x237B DUP4 PUSH2 0x232F JUMP JUMPDEST SWAP3 POP POP PUSH1 0x1 DUP2 ADD SWAP1 POP PUSH2 0x2354 JUMP JUMPDEST POP DUP6 SWAP3 POP POP POP SWAP4 SWAP3 POP POP POP JUMP JUMPDEST PUSH0 PUSH1 0x20 DUP3 ADD SWAP1 POP DUP2 DUP2 SUB PUSH0 DUP4 ADD MSTORE PUSH2 0x23AF DUP2 DUP5 DUP7 PUSH2 0x233B JUMP JUMPDEST SWAP1 POP SWAP4 SWAP3 POP POP POP JUMP JUMPDEST PUSH32 0x5A65726F20616464726573730000000000000000000000000000000000000000 PUSH0 DUP3 ADD MSTORE POP JUMP JUMPDEST PUSH0 PUSH2 0x23EC PUSH1 0xC DUP4 PUSH2 0x1962 JUMP JUMPDEST SWAP2 POP PUSH2 0x23F7 DUP3 PUSH2 0x23B8 JUMP JUMPDEST PUSH1 0x20 DUP3 ADD SWAP1 POP SWAP2 SWAP1 POP JUMP JUMPDEST PUSH0 PUSH1 0x20 DUP3 ADD SWAP1 POP DUP2 DUP2 SUB PUSH0 DUP4 ADD MSTORE PUSH2 0x2419 DUP2 PUSH2 0x23E0 JUMP JUMPDEST SWAP1 POP SWAP2 SWAP1 POP JUMP JUMPDEST PUSH32 0x4E6F2077686974656C6973746564206164647265737300000000000000000000 PUSH0 DUP3 ADD MSTORE POP JUMP JUMPDEST PUSH0 PUSH2 0x2454 PUSH1 0x16 DUP4 PUSH2 0x1962 JUMP JUMPDEST SWAP2 POP PUSH2 0x245F DUP3 PUSH2 0x2420 JUMP JUMPDEST PUSH1 0x20 DUP3 ADD SWAP1 POP SWAP2 SWAP1 POP JUMP JUMPDEST PUSH0 PUSH1 0x20 DUP3 ADD SWAP1 POP DUP2 DUP2 SUB PUSH0 DUP4 ADD MSTORE PUSH2 0x2481 DUP2 PUSH2 0x2448 JUMP JUMPDEST SWAP1 POP SWAP2 SWAP1 POP JUMP JUMPDEST PUSH32 0x4E756D626572206F6620546F6B656E7320616E64206E756D626572206F662077 PUSH0 DUP3 ADD MSTORE PUSH32 0x686974656C69737465642061646472657373657320617265206E6F7420657175 PUSH1 0x20 DUP3 ADD MSTORE PUSH32 0x616C000000000000000000000000000000000000000000000000000000000000 PUSH1 0x40 DUP3 ADD MSTORE POP JUMP JUMPDEST PUSH0 PUSH2 0x2508 PUSH1 0x42 DUP4 PUSH2 0x1962 JUMP JUMPDEST SWAP2 POP PUSH2 0x2513 DUP3 PUSH2 0x2488 JUMP JUMPDEST PUSH1 0x60 DUP3 ADD SWAP1 POP SWAP2 SWAP1 POP JUMP JUMPDEST PUSH0 PUSH1 0x20 DUP3 ADD SWAP1 POP DUP2 DUP2 SUB PUSH0 DUP4 ADD MSTORE PUSH2 0x2535 DUP2 PUSH2 0x24FC JUMP JUMPDEST SWAP1 POP SWAP2 SWAP1 POP JUMP JUMPDEST PUSH0 DUP2 SLOAD SWAP1 POP SWAP2 SWAP1 POP JUMP JUMPDEST PUSH0 DUP2 SWAP1 POP DUP2 PUSH0 MSTORE PUSH1 0x20 PUSH0 KECCAK256 SWAP1 POP SWAP2 SWAP1 POP JUMP JUMPDEST PUSH0 DUP2 PUSH0 SHR SWAP1 POP SWAP2 SWAP1 POP JUMP JUMPDEST PUSH0 PUSH20 0xFFFFFFFFFFFFFFFFFFFFFFFFFFFFFFFFFFFFFFFF DUP3 AND SWAP1 POP SWAP2 SWAP1 POP JUMP JUMPDEST PUSH0 PUSH2 0x2594 PUSH2 0x258F DUP4 PUSH2 0x2558 JUMP JUMPDEST PUSH2 0x2563 JUMP JUMPDEST SWAP1 POP SWAP2 SWAP1 POP JUMP JUMPDEST PUSH0 PUSH2 0x25A6 DUP3 SLOAD PUSH2 0x2582 JUMP JUMPDEST SWAP1 POP SWAP2 SWAP1 POP JUMP JUMPDEST PUSH0 PUSH1 0x1 DUP3 ADD SWAP1 POP SWAP2 SWAP1 POP JUMP JUMPDEST PUSH0 PUSH2 0x25C3 DUP3 PUSH2 0x253C JUMP JUMPDEST PUSH2 0x25CD DUP2 DUP6 PUSH2 0x1B01 JUMP JUMPDEST SWAP4 POP PUSH2 0x25D8 DUP4 PUSH2 0x2546 JUMP JUMPDEST DUP1 PUSH0 JUMPDEST DUP4 DUP2 LT ISZERO PUSH2 0x260F JUMPI PUSH2 0x25EC DUP3 PUSH2 0x259B JUMP JUMPDEST PUSH2 0x25F6 DUP9 DUP3 PUSH2 0x1B2F JUMP JUMPDEST SWAP8 POP PUSH2 0x2601 DUP4 PUSH2 0x25AD JUMP JUMPDEST SWAP3 POP POP PUSH1 0x1 DUP2 ADD SWAP1 POP PUSH2 0x25DB JUMP JUMPDEST POP DUP6 SWAP4 POP POP POP POP SWAP3 SWAP2 POP POP JUMP JUMPDEST PUSH0 DUP3 DUP3 MSTORE PUSH1 0x20 DUP3 ADD SWAP1 POP SWAP3 SWAP2 POP POP JUMP JUMPDEST PUSH0 DUP1 REVERT JUMPDEST DUP3 DUP2 DUP4 CALLDATACOPY POP POP POP JUMP JUMPDEST PUSH0 PUSH2 0x2644 DUP4 DUP6 PUSH2 0x261C JUMP JUMPDEST SWAP4 POP PUSH32 0x7FFFFFFFFFFFFFFFFFFFFFFFFFFFFFFFFFFFFFFFFFFFFFFFFFFFFFFFFFFFFFF DUP4 GT ISZERO PUSH2 0x2677 JUMPI PUSH2 0x2676 PUSH2 0x262C JUMP JUMPDEST JUMPDEST PUSH1 0x20 DUP4 MUL SWAP3 POP PUSH2 0x2688 DUP4 DUP6 DUP5 PUSH2 0x2630 JUMP JUMPDEST DUP3 DUP5 ADD SWAP1 POP SWAP4 SWAP3 POP POP POP JUMP JUMPDEST PUSH0 PUSH1 0x40 DUP3 ADD SWAP1 POP DUP2 DUP2 SUB PUSH0 DUP4 ADD MSTORE PUSH2 0x26AC DUP2 DUP7 PUSH2 0x25B9 JUMP JUMPDEST SWAP1 POP DUP2 DUP2 SUB PUSH1 0x20 DUP4 ADD MSTORE PUSH2 0x26C1 DUP2 DUP5 DUP7 PUSH2 0x2639 JUMP JUMPDEST SWAP1 POP SWAP5 SWAP4 POP POP POP POP JUMP JUMPDEST PUSH0 DUP2 MLOAD SWAP1 POP PUSH2 0x26D9 DUP2 PUSH2 0x1A5C JUMP JUMPDEST SWAP3 SWAP2 POP POP JUMP JUMPDEST PUSH0 PUSH1 0x20 DUP3 DUP5 SUB SLT ISZERO PUSH2 0x26F4 JUMPI PUSH2 0x26F3 PUSH2 0x19F1 JUMP JUMPDEST JUMPDEST PUSH0 PUSH2 0x2701 DUP5 DUP3 DUP6 ADD PUSH2 0x26CB JUMP JUMPDEST SWAP2 POP POP SWAP3 SWAP2 POP POP JUMP JUMPDEST PUSH32 0x4E6F7420656E6F7567682062616C616E63650000000000000000000000000000 PUSH0 DUP3 ADD MSTORE POP JUMP JUMPDEST PUSH0 PUSH2 0x273E PUSH1 0x12 DUP4 PUSH2 0x1962 JUMP JUMPDEST SWAP2 POP PUSH2 0x2749 DUP3 PUSH2 0x270A JUMP JUMPDEST PUSH1 0x20 DUP3 ADD SWAP1 POP SWAP2 SWAP1 POP JUMP JUMPDEST PUSH0 PUSH1 0x20 DUP3 ADD SWAP1 POP DUP2 DUP2 SUB PUSH0 DUP4 ADD MSTORE PUSH2 0x276B DUP2 PUSH2 0x2732 JUMP JUMPDEST SWAP1 POP SWAP2 SWAP1 POP JUMP JUMPDEST PUSH0 DUP2 MLOAD SWAP1 POP PUSH2 0x2780 DUP2 PUSH2 0x1A29 JUMP JUMPDEST SWAP3 SWAP2 POP POP JUMP JUMPDEST PUSH0 PUSH1 0x20 DUP3 DUP5 SUB SLT ISZERO PUSH2 0x279B JUMPI PUSH2 0x279A PUSH2 0x19F1 JUMP JUMPDEST JUMPDEST PUSH0 PUSH2 0x27A8 DUP5 DUP3 DUP6 ADD PUSH2 0x2772 JUMP JUMPDEST SWAP2 POP POP SWAP3 SWAP2 POP POP JUMP JUMPDEST PUSH32 0x4E6F7420746865206F776E6572206F662074686973204E46545B5D0000000000 PUSH0 DUP3 ADD MSTORE POP JUMP JUMPDEST PUSH0 PUSH2 0x27E5 PUSH1 0x1B DUP4 PUSH2 0x1962 JUMP JUMPDEST SWAP2 POP PUSH2 0x27F0 DUP3 PUSH2 0x27B1 JUMP JUMPDEST PUSH1 0x20 DUP3 ADD SWAP1 POP SWAP2 SWAP1 POP JUMP JUMPDEST PUSH0 PUSH1 0x20 DUP3 ADD SWAP1 POP DUP2 DUP2 SUB PUSH0 DUP4 ADD MSTORE PUSH2 0x2812 DUP2 PUSH2 0x27D9 JUMP JUMPDEST SWAP1 POP SWAP2 SWAP1 POP JUMP JUMPDEST PUSH32 0x546F6B656E000000000000000000000000000000000000000000000000000000 PUSH0 DUP3 ADD MSTORE POP JUMP JUMPDEST PUSH0 PUSH2 0x284D PUSH1 0x5 DUP4 PUSH2 0x1962 JUMP JUMPDEST SWAP2 POP PUSH2 0x2858 DUP3 PUSH2 0x2819 JUMP JUMPDEST PUSH1 0x20 DUP3 ADD SWAP1 POP SWAP2 SWAP1 POP JUMP JUMPDEST PUSH0 PUSH1 0x40 DUP3 ADD SWAP1 POP PUSH2 0x2876 PUSH0 DUP4 ADD DUP5 PUSH2 0x1DCD JUMP JUMPDEST DUP2 DUP2 SUB PUSH1 0x20 DUP4 ADD MSTORE PUSH2 0x2887 DUP2 PUSH2 0x2841 JUMP JUMPDEST SWAP1 POP SWAP3 SWAP2 POP POP JUMP JUMPDEST PUSH32 0x4E66740000000000000000000000000000000000000000000000000000000000 PUSH0 DUP3 ADD MSTORE POP JUMP JUMPDEST PUSH0 PUSH2 0x28C3 PUSH1 0x3 DUP4 PUSH2 0x1962 JUMP JUMPDEST SWAP2 POP PUSH2 0x28CE DUP3 PUSH2 0x288F JUMP JUMPDEST PUSH1 0x20 DUP3 ADD SWAP1 POP SWAP2 SWAP1 POP JUMP JUMPDEST PUSH0 PUSH1 0x40 DUP3 ADD SWAP1 POP PUSH2 0x28EC PUSH0 DUP4 ADD DUP5 PUSH2 0x1DCD JUMP JUMPDEST DUP2 DUP2 SUB PUSH1 0x20 DUP4 ADD MSTORE PUSH2 0x28FD DUP2 PUSH2 0x28B7 JUMP JUMPDEST SWAP1 POP SWAP3 SWAP2 POP POP JUMP JUMPDEST PUSH0 PUSH1 0x60 DUP3 ADD SWAP1 POP PUSH2 0x2918 PUSH0 DUP4 ADD DUP7 PUSH2 0x20B2 JUMP JUMPDEST PUSH2 0x2925 PUSH1 0x20 DUP4 ADD DUP6 PUSH2 0x20B2 JUMP JUMPDEST PUSH2 0x2932 PUSH1 0x40 DUP4 ADD DUP5 PUSH2 0x1DCD JUMP JUMPDEST SWAP5 SWAP4 POP POP POP POP JUMP JUMPDEST PUSH2 0x2943 DUP2 PUSH2 0x1AC4 JUMP JUMPDEST DUP2 EQ PUSH2 0x294D JUMPI PUSH0 DUP1 REVERT JUMPDEST POP JUMP JUMPDEST PUSH0 DUP2 MLOAD SWAP1 POP PUSH2 0x295E DUP2 PUSH2 0x293A JUMP JUMPDEST SWAP3 SWAP2 POP POP JUMP JUMPDEST PUSH0 PUSH1 0x20 DUP3 DUP5 SUB SLT ISZERO PUSH2 0x2979 JUMPI PUSH2 0x2978 PUSH2 0x19F1 JUMP JUMPDEST JUMPDEST PUSH0 PUSH2 0x2986 DUP5 DUP3 DUP6 ADD PUSH2 0x2950 JUMP JUMPDEST SWAP2 POP POP SWAP3 SWAP2 POP POP JUMP JUMPDEST PUSH32 0x4E487B7100000000000000000000000000000000000000000000000000000000 PUSH0 MSTORE PUSH1 0x11 PUSH1 0x4 MSTORE PUSH1 0x24 PUSH0 REVERT JUMPDEST PUSH0 PUSH2 0x29C6 DUP3 PUSH2 0x1A53 JUMP JUMPDEST SWAP2 POP PUSH32 0xFFFFFFFFFFFFFFFFFFFFFFFFFFFFFFFFFFFFFFFFFFFFFFFFFFFFFFFFFFFFFFFF DUP3 SUB PUSH2 0x29F8 JUMPI PUSH2 0x29F7 PUSH2 0x298F JUMP JUMPDEST JUMPDEST PUSH1 0x1 DUP3 ADD SWAP1 POP SWAP2 SWAP1 POP JUMP JUMPDEST PUSH0 PUSH2 0x2A0D DUP3 PUSH2 0x1A53 JUMP JUMPDEST SWAP2 POP PUSH2 0x2A18 DUP4 PUSH2 0x1A53 JUMP JUMPDEST SWAP3 POP DUP3 DUP3 ADD SWAP1 POP DUP1 DUP3 GT ISZERO PUSH2 0x2A30 JUMPI PUSH2 0x2A2F PUSH2 0x298F JUMP JUMPDEST JUMPDEST SWAP3 SWAP2 POP POP JUMP JUMPDEST POP JUMP JUMPDEST PUSH0 PUSH2 0x2A44 PUSH0 DUP4 PUSH2 0x20CB JUMP JUMPDEST SWAP2 POP PUSH2 0x2A4F DUP3 PUSH2 0x2A36 JUMP JUMPDEST PUSH0 DUP3 ADD SWAP1 POP SWAP2 SWAP1 POP JUMP JUMPDEST PUSH0 PUSH1 0x80 DUP3 ADD SWAP1 POP PUSH2 0x2A6C PUSH0 DUP4 ADD DUP7 PUSH2 0x20B2 JUMP JUMPDEST PUSH2 0x2A79 PUSH1 0x20 DUP4 ADD DUP6 PUSH2 0x20B2 JUMP JUMPDEST PUSH2 0x2A86 PUSH1 0x40 DUP4 ADD DUP5 PUSH2 0x1DCD JUMP JUMPDEST DUP2 DUP2 SUB PUSH1 0x60 DUP4 ADD MSTORE PUSH2 0x2A97 DUP2 PUSH2 0x2A39 JUMP JUMPDEST SWAP1 POP SWAP5 SWAP4 POP POP POP POP JUMP JUMPDEST PUSH2 0x2AAA DUP2 PUSH2 0x1D7A JUMP JUMPDEST DUP2 EQ PUSH2 0x2AB4 JUMPI PUSH0 DUP1 REVERT JUMPDEST POP JUMP JUMPDEST PUSH0 DUP2 MLOAD SWAP1 POP PUSH2 0x2AC5 DUP2 PUSH2 0x2AA1 JUMP JUMPDEST SWAP3 SWAP2 POP POP JUMP JUMPDEST PUSH0 PUSH1 0x20 DUP3 DUP5 SUB SLT ISZERO PUSH2 0x2AE0 JUMPI PUSH2 0x2ADF PUSH2 0x19F1 JUMP JUMPDEST JUMPDEST PUSH0 PUSH2 0x2AED DUP5 DUP3 DUP6 ADD PUSH2 0x2AB7 JUMP JUMPDEST SWAP2 POP POP SWAP3 SWAP2 POP POP JUMP INVALID LOG2 PUSH5 0x6970667358 0x22 SLT KECCAK256 MSTORE PUSH11 0x3A1306AF304712F74F9E0E DIV 0xF6 DELEGATECALL 0xAD SLOAD 0xD5 BASEFEE GAS 0xDB 0x25 LOG1 MSTORE 0xDF 0xFB 0xB5 ADDRESS STATICCALL 0xC5 0xFB PUSH5 0x736F6C6343 STOP ADDMOD BYTE STOP CALLER "
				},
				"gasEstimates": {
					"creation": {
						"codeDepositCost": "2210400",
						"executionCost": "infinite",
						"totalCost": "infinite"
					},
					"external": {
						"airdropVersion()": "2543",
						"allowance(address,address)": "infinite",
						"approve(address,uint256)": "infinite",
						"balanceOf(address)": "2874",
						"decimals()": "405",
						"getEligibility(address)": "infinite",
						"getWhiteList()": "infinite",
						"isWhiteListed(address)": "infinite",
						"mint(uint256)": "infinite",
						"name()": "infinite",
						"onERC721Received(address,address,uint256,bytes)": "infinite",
						"reset()": "24789",
						"sartAirdrop(uint256[])": "infinite",
						"symbol()": "infinite",
						"totalSupply()": "2455",
						"transfer(address,uint256)": "infinite",
						"transferFrom(address,address,uint256)": "infinite",
						"whiteListAddress(address[])": "infinite"
					}
				},
				"methodIdentifiers": {
					"airdropVersion()": "51d6e8a4",
					"allowance(address,address)": "dd62ed3e",
					"approve(address,uint256)": "095ea7b3",
					"balanceOf(address)": "70a08231",
					"decimals()": "313ce567",
					"getEligibility(address)": "dca11ab8",
					"getWhiteList()": "09a9d76c",
					"isWhiteListed(address)": "6f9170f6",
					"mint(uint256)": "a0712d68",
					"name()": "06fdde03",
					"onERC721Received(address,address,uint256,bytes)": "150b7a02",
					"reset()": "d826f88f",
					"sartAirdrop(uint256[])": "a2efa6ae",
					"symbol()": "95d89b41",
					"totalSupply()": "18160ddd",
					"transfer(address,uint256)": "a9059cbb",
					"transferFrom(address,address,uint256)": "23b872dd",
					"whiteListAddress(address[])": "4e41cfdb"
				}
			},
			"storageLayout": {
				"storage": [
					{
						"astId": 159,
						"contract": "COAT/test/token.sol:BUSD",
						"label": "_balances",
						"offset": 0,
						"slot": "0",
						"type": "t_mapping(t_address,t_uint256)"
					},
					{
						"astId": 165,
						"contract": "COAT/test/token.sol:BUSD",
						"label": "_allowances",
						"offset": 0,
						"slot": "1",
						"type": "t_mapping(t_address,t_mapping(t_address,t_uint256))"
					},
					{
						"astId": 167,
						"contract": "COAT/test/token.sol:BUSD",
						"label": "_totalSupply",
						"offset": 0,
						"slot": "2",
						"type": "t_uint256"
					},
					{
						"astId": 169,
						"contract": "COAT/test/token.sol:BUSD",
						"label": "_name",
						"offset": 0,
						"slot": "3",
						"type": "t_string_storage"
					},
					{
						"astId": 171,
						"contract": "COAT/test/token.sol:BUSD",
						"label": "_symbol",
						"offset": 0,
						"slot": "4",
						"type": "t_string_storage"
					},
					{
						"astId": 1032,
						"contract": "COAT/test/token.sol:BUSD",
						"label": "_hasClaimed",
						"offset": 0,
						"slot": "5",
						"type": "t_mapping(t_uint256,t_mapping(t_address,t_bool))"
					},
					{
						"astId": 1035,
						"contract": "COAT/test/token.sol:BUSD",
						"label": "_whiteList",
						"offset": 0,
						"slot": "6",
						"type": "t_array(t_address)dyn_storage"
					},
					{
						"astId": 1037,
						"contract": "COAT/test/token.sol:BUSD",
						"label": "airdropCount",
						"offset": 0,
						"slot": "7",
						"type": "t_uint256"
					},
					{
						"astId": 1039,
						"contract": "COAT/test/token.sol:BUSD",
						"label": "tokenAddress",
						"offset": 0,
						"slot": "8",
						"type": "t_address"
					},
					{
						"astId": 1041,
						"contract": "COAT/test/token.sol:BUSD",
						"label": "fromAddress",
						"offset": 0,
						"slot": "9",
						"type": "t_address"
					},
					{
						"astId": 1043,
						"contract": "COAT/test/token.sol:BUSD",
						"label": "airdropType",
						"offset": 0,
						"slot": "10",
						"type": "t_uint256"
					}
				],
				"types": {
					"t_address": {
						"encoding": "inplace",
						"label": "address",
						"numberOfBytes": "20"
					},
					"t_array(t_address)dyn_storage": {
						"base": "t_address",
						"encoding": "dynamic_array",
						"label": "address[]",
						"numberOfBytes": "32"
					},
					"t_bool": {
						"encoding": "inplace",
						"label": "bool",
						"numberOfBytes": "1"
					},
					"t_mapping(t_address,t_bool)": {
						"encoding": "mapping",
						"key": "t_address",
						"label": "mapping(address => bool)",
						"numberOfBytes": "32",
						"value": "t_bool"
					},
					"t_mapping(t_address,t_mapping(t_address,t_uint256))": {
						"encoding": "mapping",
						"key": "t_address",
						"label": "mapping(address => mapping(address => uint256))",
						"numberOfBytes": "32",
						"value": "t_mapping(t_address,t_uint256)"
					},
					"t_mapping(t_address,t_uint256)": {
						"encoding": "mapping",
						"key": "t_address",
						"label": "mapping(address => uint256)",
						"numberOfBytes": "32",
						"value": "t_uint256"
					},
					"t_mapping(t_uint256,t_mapping(t_address,t_bool))": {
						"encoding": "mapping",
						"key": "t_uint256",
						"label": "mapping(uint256 => mapping(address => bool))",
						"numberOfBytes": "32",
						"value": "t_mapping(t_address,t_bool)"
					},
					"t_string_storage": {
						"encoding": "bytes",
						"label": "string",
						"numberOfBytes": "32"
					},
					"t_uint256": {
						"encoding": "inplace",
						"label": "uint256",
						"numberOfBytes": "32"
					}
				}
			},
			"userdoc": {
				"kind": "user",
				"methods": {},
				"version": 1
			}
		}
	}
}