{
	"data": {
		"bytecode": {
			"linkReferences": {},
			"object": "608060405234801561000f575f80fd5b5030335f6040518060400160405280600b81526020017f42696e616e6365205553440000000000000000000000000000000000000000008152506040518060400160405280600481526020017f4255534400000000000000000000000000000000000000000000000000000000815250816003908161008e9190610872565b50806004908161009e9190610872565b5050505f8114806100af5750600181145b6100ee576040517f08c379a00000000000000000000000000000000000000000000000000000000081526004016100e5906109c1565b60405180910390fd5b8260085f6101000a81548173ffffffffffffffffffffffffffffffffffffffff021916908373ffffffffffffffffffffffffffffffffffffffff1602179055508160095f6101000a81548173ffffffffffffffffffffffffffffffffffffffff021916908373ffffffffffffffffffffffffffffffffffffffff16021790555080600a81905550505050610193336a52b7d2dcc80cd2e40000006101b360201b60201c565b6101ae333069021e19e0c9bab240000061023860201b60201c565b610af4565b5f73ffffffffffffffffffffffffffffffffffffffff168273ffffffffffffffffffffffffffffffffffffffff1603610223575f6040517fec442f0500000000000000000000000000000000000000000000000000000000815260040161021a9190610a1e565b60405180910390fd5b6102345f838361025060201b60201c565b5050565b61024b838383600161046960201b60201c565b505050565b5f73ffffffffffffffffffffffffffffffffffffffff168373ffffffffffffffffffffffffffffffffffffffff16036102a0578060025f8282546102949190610a64565b9250508190555061036e565b5f805f8573ffffffffffffffffffffffffffffffffffffffff1673ffffffffffffffffffffffffffffffffffffffff1681526020019081526020015f2054905081811015610329578381836040517fe450d38c00000000000000000000000000000000000000000000000000000000815260040161032093929190610aa6565b60405180910390fd5b8181035f808673ffffffffffffffffffffffffffffffffffffffff1673ffffffffffffffffffffffffffffffffffffffff1681526020019081526020015f2081905550505b5f73ffffffffffffffffffffffffffffffffffffffff168273ffffffffffffffffffffffffffffffffffffffff16036103b5578060025f82825403925050819055506103ff565b805f808473ffffffffffffffffffffffffffffffffffffffff1673ffffffffffffffffffffffffffffffffffffffff1681526020019081526020015f205f82825401925050819055505b8173ffffffffffffffffffffffffffffffffffffffff168373ffffffffffffffffffffffffffffffffffffffff167fddf252ad1be2c89b69c2b068fc378daa952ba7f163c4a11628f55a4df523b3ef8360405161045c9190610adb565b60405180910390a3505050565b5f73ffffffffffffffffffffffffffffffffffffffff168473ffffffffffffffffffffffffffffffffffffffff16036104d9575f6040517fe602df050000000000000000000000000000000000000000000000000000000081526004016104d09190610a1e565b60405180910390fd5b5f73ffffffffffffffffffffffffffffffffffffffff168373ffffffffffffffffffffffffffffffffffffffff1603610549575f6040517f94280d620000000000000000000000000000000000000000000000000000000081526004016105409190610a1e565b60405180910390fd5b8160015f8673ffffffffffffffffffffffffffffffffffffffff1673ffffffffffffffffffffffffffffffffffffffff1681526020019081526020015f205f8573ffffffffffffffffffffffffffffffffffffffff1673ffffffffffffffffffffffffffffffffffffffff1681526020019081526020015f20819055508015610632578273ffffffffffffffffffffffffffffffffffffffff168473ffffffffffffffffffffffffffffffffffffffff167f8c5be1e5ebec7d5bd14f71427d1e84f3dd0314c0f7b2291e5b200ac8c7c3b925846040516106299190610adb565b60405180910390a35b50505050565b5f81519050919050565b7f4e487b71000000000000000000000000000000000000000000000000000000005f52604160045260245ffd5b7f4e487b71000000000000000000000000000000000000000000000000000000005f52602260045260245ffd5b5f60028204905060018216806106b357607f821691505b6020821081036106c6576106c561066f565b5b50919050565b5f819050815f5260205f209050919050565b5f6020601f8301049050919050565b5f82821b905092915050565b5f600883026107287fffffffffffffffffffffffffffffffffffffffffffffffffffffffffffffffff826106ed565b61073286836106ed565b95508019841693508086168417925050509392505050565b5f819050919050565b5f819050919050565b5f61077661077161076c8461074a565b610753565b61074a565b9050919050565b5f819050919050565b61078f8361075c565b6107a361079b8261077d565b8484546106f9565b825550505050565b5f90565b6107b76107ab565b6107c2818484610786565b505050565b5b818110156107e5576107da5f826107af565b6001810190506107c8565b5050565b601f82111561082a576107fb816106cc565b610804846106de565b81016020851015610813578190505b61082761081f856106de565b8301826107c7565b50505b505050565b5f82821c905092915050565b5f61084a5f198460080261082f565b1980831691505092915050565b5f610862838361083b565b9150826002028217905092915050565b61087b82610638565b67ffffffffffffffff81111561089457610893610642565b5b61089e825461069c565b6108a98282856107e9565b5f60209050601f8311600181146108da575f84156108c8578287015190505b6108d28582610857565b865550610939565b601f1984166108e8866106cc565b5f5b8281101561090f578489015182556001820191506020850194506020810190506108ea565b8683101561092c5784890151610928601f89168261083b565b8355505b6001600288020188555050505b505050505050565b5f82825260208201905092915050565b7f4f6e6c792030206f7220312061636365707465642061732061697264726f70205f8201527f7479706500000000000000000000000000000000000000000000000000000000602082015250565b5f6109ab602483610941565b91506109b682610951565b604082019050919050565b5f6020820190508181035f8301526109d88161099f565b9050919050565b5f73ffffffffffffffffffffffffffffffffffffffff82169050919050565b5f610a08826109df565b9050919050565b610a18816109fe565b82525050565b5f602082019050610a315f830184610a0f565b92915050565b7f4e487b71000000000000000000000000000000000000000000000000000000005f52601160045260245ffd5b5f610a6e8261074a565b9150610a798361074a565b9250828201905080821115610a9157610a90610a37565b5b92915050565b610aa08161074a565b82525050565b5f606082019050610ab95f830186610a0f565b610ac66020830185610a97565b610ad36040830184610a97565b949350505050565b5f602082019050610aee5f830184610a97565b92915050565b612b2c80610b015f395ff3fe608060405234801561000f575f80fd5b5060043610610114575f3560e01c80636f9170f6116100a0578063a2efa6ae1161006f578063a2efa6ae1461031c578063a9059cbb1461034c578063d826f88f1461037c578063dca11ab81461039a578063dd62ed3e146103ca57610114565b80636f9170f61461026e57806370a082311461029e57806395d89b41146102ce578063a0712d68146102ec57610114565b806318160ddd116100e757806318160ddd146101b457806323b872dd146101d2578063313ce567146102025780634e41cfdb1461022057806351d6e8a41461025057610114565b806306fdde0314610118578063095ea7b31461013657806309a9d76c14610166578063150b7a0214610184575b5f80fd5b6101206103fa565b60405161012d91906119c8565b60405180910390f35b610150600480360381019061014b9190611a86565b61048a565b60405161015d9190611ade565b60405180910390f35b61016e6104ac565b60405161017b9190611bae565b60405180910390f35b61019e60048036038101906101999190611cfa565b610537565b6040516101ab9190611db4565b60405180910390f35b6101bc610587565b6040516101c99190611ddc565b60405180910390f35b6101ec60048036038101906101e79190611df5565b610590565b6040516101f99190611ade565b60405180910390f35b61020a6105be565b6040516102179190611e60565b60405180910390f35b61023a60048036038101906102359190611ed6565b6105c6565b6040516102479190611ade565b60405180910390f35b6102586105d8565b6040516102659190611ddc565b60405180910390f35b61028860048036038101906102839190611f21565b6105e1565b6040516102959190611ade565b60405180910390f35b6102b860048036038101906102b39190611f21565b6105f2565b6040516102c59190611ddc565b60405180910390f35b6102d6610637565b6040516102e391906119c8565b60405180910390f35b61030660048036038101906103019190611f4c565b6106c7565b6040516103139190611ade565b60405180910390f35b61033660048036038101906103319190611fcc565b6106d7565b6040516103439190611ade565b60405180910390f35b61036660048036038101906103619190611a86565b6106e9565b6040516103739190611ade565b60405180910390f35b61038461070b565b6040516103919190611ade565b60405180910390f35b6103b460048036038101906103af9190611f21565b610718565b6040516103c19190611ade565b60405180910390f35b6103e460048036038101906103df9190612017565b61078d565b6040516103f19190611ddc565b60405180910390f35b60606003805461040990612082565b80601f016020809104026020016040519081016040528092919081815260200182805461043590612082565b80156104805780601f1061045757610100808354040283529160200191610480565b820191905f5260205f20905b81548152906001019060200180831161046357829003601f168201915b5050505050905090565b5f8061049461080f565b90506104a1818585610816565b600191505092915050565b6060600680548060200260200160405190810160405280929190818152602001828054801561052d57602002820191905f5260205f20905b815f9054906101000a900473ffffffffffffffffffffffffffffffffffffffff1673ffffffffffffffffffffffffffffffffffffffff16815260200190600101908083116104e4575b5050505050905090565b5f7f541cb930dbb178d9d0a40b098c309dda5a70e722066990941158d1f77b5bfcf38585858560405161056d9493929190612113565b60405180910390a163150b7a0260e01b9050949350505050565b5f600254905090565b5f8061059a61080f565b90506105a7858285610828565b6105b28585856108bb565b60019150509392505050565b5f6012905090565b5f6105d183836109ab565b5092915050565b5f600754905090565b5f6105eb82610c14565b9050919050565b5f805f8373ffffffffffffffffffffffffffffffffffffffff1673ffffffffffffffffffffffffffffffffffffffff1681526020019081526020015f20549050919050565b60606004805461064690612082565b80601f016020809104026020016040519081016040528092919081815260200182805461067290612082565b80156106bd5780601f10610694576101008083540402835291602001916106bd565b820191905f5260205f20905b8154815290600101906020018083116106a057829003601f168201915b5050505050905090565b5f6106d23383610cb9565b919050565b5f6106e28383610d38565b5092915050565b5f806106f361080f565b90506107008185856108bb565b600191505092915050565b5f61071461145b565b5090565b5f60055f60075481526020019081526020015f205f8373ffffffffffffffffffffffffffffffffffffffff1673ffffffffffffffffffffffffffffffffffffffff1681526020019081526020015f205f9054906101000a900460ff16158015610786575061078582610c14565b5b9050919050565b5f60015f8473ffffffffffffffffffffffffffffffffffffffff1673ffffffffffffffffffffffffffffffffffffffff1681526020019081526020015f205f8373ffffffffffffffffffffffffffffffffffffffff1673ffffffffffffffffffffffffffffffffffffffff1681526020019081526020015f2054905092915050565b5f33905090565b610823838383600161147a565b505050565b5f610833848461078d565b90507fffffffffffffffffffffffffffffffffffffffffffffffffffffffffffffffff8110156108b557818110156108a6578281836040517ffb8f41b200000000000000000000000000000000000000000000000000000000815260040161089d9392919061215d565b60405180910390fd5b6108b484848484035f61147a565b5b50505050565b5f73ffffffffffffffffffffffffffffffffffffffff168373ffffffffffffffffffffffffffffffffffffffff160361092b575f6040517f96c6fd1e0000000000000000000000000000000000000000000000000000000081526004016109229190612192565b60405180910390fd5b5f73ffffffffffffffffffffffffffffffffffffffff168273ffffffffffffffffffffffffffffffffffffffff160361099b575f6040517fec442f050000000000000000000000000000000000000000000000000000000081526004016109929190612192565b60405180910390fd5b6109a6838383611649565b505050565b5f805f90505b83839050811015610bd0575f73ffffffffffffffffffffffffffffffffffffffff168484838181106109e6576109e56121ab565b5b90506020020160208101906109fb9190611f21565b73ffffffffffffffffffffffffffffffffffffffff1603610a51576040517f08c379a0000000000000000000000000000000000000000000000000000000008152600401610a4890612222565b60405180910390fd5b6001600a5403610acc57610a8c848483818110610a7157610a706121ab565b5b9050602002016020810190610a869190611f21565b5f611862565b610acb576040517f08c379a0000000000000000000000000000000000000000000000000000000008152600401610ac29061228a565b60405180910390fd5b5b610afc848483818110610ae257610ae16121ab565b5b9050602002016020810190610af79190611f21565b6105e1565b15610b3c576040517f08c379a0000000000000000000000000000000000000000000000000000000008152600401610b33906122f2565b60405180910390fd5b6006848483818110610b5157610b506121ab565b5b9050602002016020810190610b669190611f21565b908060018154018082558091505060019003905f5260205f20015f9091909190916101000a81548173ffffffffffffffffffffffffffffffffffffffff021916908373ffffffffffffffffffffffffffffffffffffffff16021790555080806001019150506109b1565b507f8f47a973c821cca98d90b2c53821dc01e2971b8b14db8aae5776f42ea6cccc9a8383604051610c02929190612396565b60405180910390a16001905092915050565b5f8060068054905090505f5b81811015610cae578373ffffffffffffffffffffffffffffffffffffffff1660068281548110610c5357610c526121ab565b5b905f5260205f20015f9054906101000a900473ffffffffffffffffffffffffffffffffffffffff1673ffffffffffffffffffffffffffffffffffffffff1603610ca157600192505050610cb4565b8080600101915050610c20565b505f9150505b919050565b5f73ffffffffffffffffffffffffffffffffffffffff168273ffffffffffffffffffffffffffffffffffffffff1603610d29575f6040517fec442f05000000000000000000000000000000000000000000000000000000008152600401610d209190612192565b60405180910390fd5b610d345f8383611649565b5050565b5f8073ffffffffffffffffffffffffffffffffffffffff1660085f9054906101000a900473ffffffffffffffffffffffffffffffffffffffff1673ffffffffffffffffffffffffffffffffffffffff1603610dc8576040517f08c379a0000000000000000000000000000000000000000000000000000000008152600401610dbf90612402565b60405180910390fd5b5f60068054905011610e0f576040517f08c379a0000000000000000000000000000000000000000000000000000000008152600401610e069061246a565b60405180910390fd5b8282905060068054905014610e59576040517f08c379a0000000000000000000000000000000000000000000000000000000008152600401610e509061251e565b60405180910390fd5b5f805f600a5403610e8d5760085f9054906101000a900473ffffffffffffffffffffffffffffffffffffffff169050610eb2565b60085f9054906101000a900473ffffffffffffffffffffffffffffffffffffffff1691505b7fe92cfca7bdc1f76f97b0cecc8d1ddabb94d01c99d9429c0963302a2f2a92714d60068686604051610ee693929190612694565b60405180910390a15f805f90505b60068054905081101561144d5760068181548110610f1557610f146121ab565b5b905f5260205f20015f9054906101000a900473ffffffffffffffffffffffffffffffffffffffff1691505f600a540361104057868682818110610f5b57610f5a6121ab565b5b905060200201358373ffffffffffffffffffffffffffffffffffffffff166370a0823160095f9054906101000a900473ffffffffffffffffffffffffffffffffffffffff166040518263ffffffff1660e01b8152600401610fbc9190612192565b602060405180830381865afa158015610fd7573d5f803e3d5ffd5b505050506040513d601f19601f82011682018060405250810190610ffb91906126df565b1161103b576040517f08c379a000000000000000000000000000000000000000000000000000000000815260040161103290612754565b60405180910390fd5b611160565b60095f9054906101000a900473ffffffffffffffffffffffffffffffffffffffff1673ffffffffffffffffffffffffffffffffffffffff168473ffffffffffffffffffffffffffffffffffffffff16636352211e8989858181106110a7576110a66121ab565b5b905060200201356040518263ffffffff1660e01b81526004016110ca9190611ddc565b602060405180830381865afa1580156110e5573d5f803e3d5ffd5b505050506040513d601f19601f820116820180604052508101906111099190612786565b73ffffffffffffffffffffffffffffffffffffffff161461115f576040517f08c379a0000000000000000000000000000000000000000000000000000000008152600401611156906127fb565b60405180910390fd5b5b60055f60075481526020019081526020015f205f8373ffffffffffffffffffffffffffffffffffffffff1673ffffffffffffffffffffffffffffffffffffffff1681526020019081526020015f205f9054906101000a900460ff1661144057600160055f60075481526020019081526020015f205f8473ffffffffffffffffffffffffffffffffffffffff1673ffffffffffffffffffffffffffffffffffffffff1681526020019081526020015f205f6101000a81548160ff0219169083151502179055505f600a5403611283577fccd301c3c585e9d034f1404f101f4d1b3828a9eb5a4bc60b5c2935736dffe4a9878783818110611262576112616121ab565b5b905060200201356040516112769190612863565b60405180910390a16112d4565b7fccd301c3c585e9d034f1404f101f4d1b3828a9eb5a4bc60b5c2935736dffe4a98787838181106112b7576112b66121ab565b5b905060200201356040516112cb91906128d9565b60405180910390a15b5f600a540361139a578273ffffffffffffffffffffffffffffffffffffffff166323b872dd60095f9054906101000a900473ffffffffffffffffffffffffffffffffffffffff16848a8a8681811061132f5761132e6121ab565b5b905060200201356040518463ffffffff1660e01b815260040161135493929190612905565b6020604051808303815f875af1158015611370573d5f803e3d5ffd5b505050506040513d601f19601f820116820180604052508101906113949190612964565b5061143f565b8373ffffffffffffffffffffffffffffffffffffffff166323b872dd60095f9054906101000a900473ffffffffffffffffffffffffffffffffffffffff16848a8a868181106113ec576113eb6121ab565b5b905060200201356040518463ffffffff1660e01b815260040161141193929190612905565b5f604051808303815f87803b158015611428575f80fd5b505af115801561143a573d5f803e3d5ffd5b505050505b5b8080600101915050610ef4565b506001935050505092915050565b5f60075f81548092919061146e906129bc565b91905055506001905090565b5f73ffffffffffffffffffffffffffffffffffffffff168473ffffffffffffffffffffffffffffffffffffffff16036114ea575f6040517fe602df050000000000000000000000000000000000000000000000000000000081526004016114e19190612192565b60405180910390fd5b5f73ffffffffffffffffffffffffffffffffffffffff168373ffffffffffffffffffffffffffffffffffffffff160361155a575f6040517f94280d620000000000000000000000000000000000000000000000000000000081526004016115519190612192565b60405180910390fd5b8160015f8673ffffffffffffffffffffffffffffffffffffffff1673ffffffffffffffffffffffffffffffffffffffff1681526020019081526020015f205f8573ffffffffffffffffffffffffffffffffffffffff1673ffffffffffffffffffffffffffffffffffffffff1681526020019081526020015f20819055508015611643578273ffffffffffffffffffffffffffffffffffffffff168473ffffffffffffffffffffffffffffffffffffffff167f8c5be1e5ebec7d5bd14f71427d1e84f3dd0314c0f7b2291e5b200ac8c7c3b9258460405161163a9190611ddc565b60405180910390a35b50505050565b5f73ffffffffffffffffffffffffffffffffffffffff168373ffffffffffffffffffffffffffffffffffffffff1603611699578060025f82825461168d9190612a03565b92505081905550611767565b5f805f8573ffffffffffffffffffffffffffffffffffffffff1673ffffffffffffffffffffffffffffffffffffffff1681526020019081526020015f2054905081811015611722578381836040517fe450d38c0000000000000000000000000000000000000000000000000000000081526004016117199392919061215d565b60405180910390fd5b8181035f808673ffffffffffffffffffffffffffffffffffffffff1673ffffffffffffffffffffffffffffffffffffffff1681526020019081526020015f2081905550505b5f73ffffffffffffffffffffffffffffffffffffffff168273ffffffffffffffffffffffffffffffffffffffff16036117ae578060025f82825403925050819055506117f8565b805f808473ffffffffffffffffffffffffffffffffffffffff1673ffffffffffffffffffffffffffffffffffffffff1681526020019081526020015f205f82825401925050819055505b8173ffffffffffffffffffffffffffffffffffffffff168373ffffffffffffffffffffffffffffffffffffffff167fddf252ad1be2c89b69c2b068fc378daa952ba7f163c4a11628f55a4df523b3ef836040516118559190611ddc565b60405180910390a3505050565b5f8061186d8461194e565b111561187c5760019050611948565b5f83905063150b7a0260e01b7bffffffffffffffffffffffffffffffffffffffffffffffffffffffff19168173ffffffffffffffffffffffffffffffffffffffff1663150b7a023033876040518463ffffffff1660e01b81526004016118e493929190612a59565b6020604051808303815f875af1158015611900573d5f803e3d5ffd5b505050506040513d601f19601f820116820180604052508101906119249190612acb565b7bffffffffffffffffffffffffffffffffffffffffffffffffffffffff1916149150505b92915050565b5f813b9050919050565b5f81519050919050565b5f82825260208201905092915050565b8281835e5f83830152505050565b5f601f19601f8301169050919050565b5f61199a82611958565b6119a48185611962565b93506119b4818560208601611972565b6119bd81611980565b840191505092915050565b5f6020820190508181035f8301526119e08184611990565b905092915050565b5f604051905090565b5f80fd5b5f80fd5b5f73ffffffffffffffffffffffffffffffffffffffff82169050919050565b5f611a22826119f9565b9050919050565b611a3281611a18565b8114611a3c575f80fd5b50565b5f81359050611a4d81611a29565b92915050565b5f819050919050565b611a6581611a53565b8114611a6f575f80fd5b50565b5f81359050611a8081611a5c565b92915050565b5f8060408385031215611a9c57611a9b6119f1565b5b5f611aa985828601611a3f565b9250506020611aba85828601611a72565b9150509250929050565b5f8115159050919050565b611ad881611ac4565b82525050565b5f602082019050611af15f830184611acf565b92915050565b5f81519050919050565b5f82825260208201905092915050565b5f819050602082019050919050565b611b2981611a18565b82525050565b5f611b3a8383611b20565b60208301905092915050565b5f602082019050919050565b5f611b5c82611af7565b611b668185611b01565b9350611b7183611b11565b805f5b83811015611ba1578151611b888882611b2f565b9750611b9383611b46565b925050600181019050611b74565b5085935050505092915050565b5f6020820190508181035f830152611bc68184611b52565b905092915050565b5f80fd5b5f80fd5b7f4e487b71000000000000000000000000000000000000000000000000000000005f52604160045260245ffd5b611c0c82611980565b810181811067ffffffffffffffff82111715611c2b57611c2a611bd6565b5b80604052505050565b5f611c3d6119e8565b9050611c498282611c03565b919050565b5f67ffffffffffffffff821115611c6857611c67611bd6565b5b611c7182611980565b9050602081019050919050565b828183375f83830152505050565b5f611c9e611c9984611c4e565b611c34565b905082815260208101848484011115611cba57611cb9611bd2565b5b611cc5848285611c7e565b509392505050565b5f82601f830112611ce157611ce0611bce565b5b8135611cf1848260208601611c8c565b91505092915050565b5f805f8060808587031215611d1257611d116119f1565b5b5f611d1f87828801611a3f565b9450506020611d3087828801611a3f565b9350506040611d4187828801611a72565b925050606085013567ffffffffffffffff811115611d6257611d616119f5565b5b611d6e87828801611ccd565b91505092959194509250565b5f7fffffffff0000000000000000000000000000000000000000000000000000000082169050919050565b611dae81611d7a565b82525050565b5f602082019050611dc75f830184611da5565b92915050565b611dd681611a53565b82525050565b5f602082019050611def5f830184611dcd565b92915050565b5f805f60608486031215611e0c57611e0b6119f1565b5b5f611e1986828701611a3f565b9350506020611e2a86828701611a3f565b9250506040611e3b86828701611a72565b9150509250925092565b5f60ff82169050919050565b611e5a81611e45565b82525050565b5f602082019050611e735f830184611e51565b92915050565b5f80fd5b5f80fd5b5f8083601f840112611e9657611e95611bce565b5b8235905067ffffffffffffffff811115611eb357611eb2611e79565b5b602083019150836020820283011115611ecf57611ece611e7d565b5b9250929050565b5f8060208385031215611eec57611eeb6119f1565b5b5f83013567ffffffffffffffff811115611f0957611f086119f5565b5b611f1585828601611e81565b92509250509250929050565b5f60208284031215611f3657611f356119f1565b5b5f611f4384828501611a3f565b91505092915050565b5f60208284031215611f6157611f606119f1565b5b5f611f6e84828501611a72565b91505092915050565b5f8083601f840112611f8c57611f8b611bce565b5b8235905067ffffffffffffffff811115611fa957611fa8611e79565b5b602083019150836020820283011115611fc557611fc4611e7d565b5b9250929050565b5f8060208385031215611fe257611fe16119f1565b5b5f83013567ffffffffffffffff811115611fff57611ffe6119f5565b5b61200b85828601611f77565b92509250509250929050565b5f806040838503121561202d5761202c6119f1565b5b5f61203a85828601611a3f565b925050602061204b85828601611a3f565b9150509250929050565b7f4e487b71000000000000000000000000000000000000000000000000000000005f52602260045260245ffd5b5f600282049050600182168061209957607f821691505b6020821081036120ac576120ab612055565b5b50919050565b6120bb81611a18565b82525050565b5f81519050919050565b5f82825260208201905092915050565b5f6120e5826120c1565b6120ef81856120cb565b93506120ff818560208601611972565b61210881611980565b840191505092915050565b5f6080820190506121265f8301876120b2565b61213360208301866120b2565b6121406040830185611dcd565b818103606083015261215281846120db565b905095945050505050565b5f6060820190506121705f8301866120b2565b61217d6020830185611dcd565b61218a6040830184611dcd565b949350505050565b5f6020820190506121a55f8301846120b2565b92915050565b7f4e487b71000000000000000000000000000000000000000000000000000000005f52603260045260245ffd5b7f5a65726f20416464726573732070726573656e740000000000000000000000005f82015250565b5f61220c601483611962565b9150612217826121d8565b602082019050919050565b5f6020820190508181035f83015261223981612200565b9050919050565b7f4661756c7479206164647265737320666f756e640000000000000000000000005f82015250565b5f612274601483611962565b915061227f82612240565b602082019050919050565b5f6020820190508181035f8301526122a181612268565b9050919050565b7f4164647265737320616c6c7265616479204578697374730000000000000000005f82015250565b5f6122dc601783611962565b91506122e7826122a8565b602082019050919050565b5f6020820190508181035f830152612309816122d0565b9050919050565b5f819050919050565b5f6123276020840184611a3f565b905092915050565b5f602082019050919050565b5f6123468385611b01565b935061235182612310565b805f5b85811015612389576123668284612319565b6123708882611b2f565b975061237b8361232f565b925050600181019050612354565b5085925050509392505050565b5f6020820190508181035f8301526123af81848661233b565b90509392505050565b7f5a65726f206164647265737300000000000000000000000000000000000000005f82015250565b5f6123ec600c83611962565b91506123f7826123b8565b602082019050919050565b5f6020820190508181035f830152612419816123e0565b9050919050565b7f4e6f2077686974656c69737465642061646472657373000000000000000000005f82015250565b5f612454601683611962565b915061245f82612420565b602082019050919050565b5f6020820190508181035f83015261248181612448565b9050919050565b7f4e756d626572206f6620546f6b656e7320616e64206e756d626572206f6620775f8201527f686974656c69737465642061646472657373657320617265206e6f742065717560208201527f616c000000000000000000000000000000000000000000000000000000000000604082015250565b5f612508604283611962565b915061251382612488565b606082019050919050565b5f6020820190508181035f830152612535816124fc565b9050919050565b5f81549050919050565b5f819050815f5260205f209050919050565b5f815f1c9050919050565b5f73ffffffffffffffffffffffffffffffffffffffff82169050919050565b5f61259461258f83612558565b612563565b9050919050565b5f6125a68254612582565b9050919050565b5f600182019050919050565b5f6125c38261253c565b6125cd8185611b01565b93506125d883612546565b805f5b8381101561260f576125ec8261259b565b6125f68882611b2f565b9750612601836125ad565b9250506001810190506125db565b5085935050505092915050565b5f82825260208201905092915050565b5f80fd5b82818337505050565b5f612644838561261c565b93507f07ffffffffffffffffffffffffffffffffffffffffffffffffffffffffffffff8311156126775761267661262c565b5b602083029250612688838584612630565b82840190509392505050565b5f6040820190508181035f8301526126ac81866125b9565b905081810360208301526126c1818486612639565b9050949350505050565b5f815190506126d981611a5c565b92915050565b5f602082840312156126f4576126f36119f1565b5b5f612701848285016126cb565b91505092915050565b7f4e6f7420656e6f7567682062616c616e636500000000000000000000000000005f82015250565b5f61273e601283611962565b91506127498261270a565b602082019050919050565b5f6020820190508181035f83015261276b81612732565b9050919050565b5f8151905061278081611a29565b92915050565b5f6020828403121561279b5761279a6119f1565b5b5f6127a884828501612772565b91505092915050565b7f4e6f7420746865206f776e6572206f662074686973204e46545b5d00000000005f82015250565b5f6127e5601b83611962565b91506127f0826127b1565b602082019050919050565b5f6020820190508181035f830152612812816127d9565b9050919050565b7f546f6b656e0000000000000000000000000000000000000000000000000000005f82015250565b5f61284d600583611962565b915061285882612819565b602082019050919050565b5f6040820190506128765f830184611dcd565b818103602083015261288781612841565b905092915050565b7f4e667400000000000000000000000000000000000000000000000000000000005f82015250565b5f6128c3600383611962565b91506128ce8261288f565b602082019050919050565b5f6040820190506128ec5f830184611dcd565b81810360208301526128fd816128b7565b905092915050565b5f6060820190506129185f8301866120b2565b61292560208301856120b2565b6129326040830184611dcd565b949350505050565b61294381611ac4565b811461294d575f80fd5b50565b5f8151905061295e8161293a565b92915050565b5f60208284031215612979576129786119f1565b5b5f61298684828501612950565b91505092915050565b7f4e487b71000000000000000000000000000000000000000000000000000000005f52601160045260245ffd5b5f6129c682611a53565b91507fffffffffffffffffffffffffffffffffffffffffffffffffffffffffffffffff82036129f8576129f761298f565b5b600182019050919050565b5f612a0d82611a53565b9150612a1883611a53565b9250828201905080821115612a3057612a2f61298f565b5b92915050565b50565b5f612a445f836120cb565b9150612a4f82612a36565b5f82019050919050565b5f608082019050612a6c5f8301866120b2565b612a7960208301856120b2565b612a866040830184611dcd565b8181036060830152612a9781612a39565b9050949350505050565b612aaa81611d7a565b8114612ab4575f80fd5b50565b5f81519050612ac581612aa1565b92915050565b5f60208284031215612ae057612adf6119f1565b5b5f612aed84828501612ab7565b9150509291505056fea2646970667358221220526a3a1306af304712f74f9e0e04f6f4ad54d5485adb25a152dffbb530fac5fb64736f6c634300081a0033",
			"opcodes": "PUSH1 0x80 PUSH1 0x40 MSTORE CALLVALUE DUP1 ISZERO PUSH2 0xF JUMPI PUSH0 DUP1 REVERT JUMPDEST POP ADDRESS CALLER PUSH0 PUSH1 0x40 MLOAD DUP1 PUSH1 0x40 ADD PUSH1 0x40 MSTORE DUP1 PUSH1 0xB DUP2 MSTORE PUSH1 0x20 ADD PUSH32 0x42696E616E636520555344000000000000000000000000000000000000000000 DUP2 MSTORE POP PUSH1 0x40 MLOAD DUP1 PUSH1 0x40 ADD PUSH1 0x40 MSTORE DUP1 PUSH1 0x4 DUP2 MSTORE PUSH1 0x20 ADD PUSH32 0x4255534400000000000000000000000000000000000000000000000000000000 DUP2 MSTORE POP DUP2 PUSH1 0x3 SWAP1 DUP2 PUSH2 0x8E SWAP2 SWAP1 PUSH2 0x872 JUMP JUMPDEST POP DUP1 PUSH1 0x4 SWAP1 DUP2 PUSH2 0x9E SWAP2 SWAP1 PUSH2 0x872 JUMP JUMPDEST POP POP POP PUSH0 DUP2 EQ DUP1 PUSH2 0xAF JUMPI POP PUSH1 0x1 DUP2 EQ JUMPDEST PUSH2 0xEE JUMPI PUSH1 0x40 MLOAD PUSH32 0x8C379A000000000000000000000000000000000000000000000000000000000 DUP2 MSTORE PUSH1 0x4 ADD PUSH2 0xE5 SWAP1 PUSH2 0x9C1 JUMP JUMPDEST PUSH1 0x40 MLOAD DUP1 SWAP2 SUB SWAP1 REVERT JUMPDEST DUP3 PUSH1 0x8 PUSH0 PUSH2 0x100 EXP DUP2 SLOAD DUP2 PUSH20 0xFFFFFFFFFFFFFFFFFFFFFFFFFFFFFFFFFFFFFFFF MUL NOT AND SWAP1 DUP4 PUSH20 0xFFFFFFFFFFFFFFFFFFFFFFFFFFFFFFFFFFFFFFFF AND MUL OR SWAP1 SSTORE POP DUP2 PUSH1 0x9 PUSH0 PUSH2 0x100 EXP DUP2 SLOAD DUP2 PUSH20 0xFFFFFFFFFFFFFFFFFFFFFFFFFFFFFFFFFFFFFFFF MUL NOT AND SWAP1 DUP4 PUSH20 0xFFFFFFFFFFFFFFFFFFFFFFFFFFFFFFFFFFFFFFFF AND MUL OR SWAP1 SSTORE POP DUP1 PUSH1 0xA DUP2 SWAP1 SSTORE POP POP POP POP PUSH2 0x193 CALLER PUSH11 0x52B7D2DCC80CD2E4000000 PUSH2 0x1B3 PUSH1 0x20 SHL PUSH1 0x20 SHR JUMP JUMPDEST PUSH2 0x1AE CALLER ADDRESS PUSH10 0x21E19E0C9BAB2400000 PUSH2 0x238 PUSH1 0x20 SHL PUSH1 0x20 SHR JUMP JUMPDEST PUSH2 0xAF4 JUMP JUMPDEST PUSH0 PUSH20 0xFFFFFFFFFFFFFFFFFFFFFFFFFFFFFFFFFFFFFFFF AND DUP3 PUSH20 0xFFFFFFFFFFFFFFFFFFFFFFFFFFFFFFFFFFFFFFFF AND SUB PUSH2 0x223 JUMPI PUSH0 PUSH1 0x40 MLOAD PUSH32 0xEC442F0500000000000000000000000000000000000000000000000000000000 DUP2 MSTORE PUSH1 0x4 ADD PUSH2 0x21A SWAP2 SWAP1 PUSH2 0xA1E JUMP JUMPDEST PUSH1 0x40 MLOAD DUP1 SWAP2 SUB SWAP1 REVERT JUMPDEST PUSH2 0x234 PUSH0 DUP4 DUP4 PUSH2 0x250 PUSH1 0x20 SHL PUSH1 0x20 SHR JUMP JUMPDEST POP POP JUMP JUMPDEST PUSH2 0x24B DUP4 DUP4 DUP4 PUSH1 0x1 PUSH2 0x469 PUSH1 0x20 SHL PUSH1 0x20 SHR JUMP JUMPDEST POP POP POP JUMP JUMPDEST PUSH0 PUSH20 0xFFFFFFFFFFFFFFFFFFFFFFFFFFFFFFFFFFFFFFFF AND DUP4 PUSH20 0xFFFFFFFFFFFFFFFFFFFFFFFFFFFFFFFFFFFFFFFF AND SUB PUSH2 0x2A0 JUMPI DUP1 PUSH1 0x2 PUSH0 DUP3 DUP3 SLOAD PUSH2 0x294 SWAP2 SWAP1 PUSH2 0xA64 JUMP JUMPDEST SWAP3 POP POP DUP2 SWAP1 SSTORE POP PUSH2 0x36E JUMP JUMPDEST PUSH0 DUP1 PUSH0 DUP6 PUSH20 0xFFFFFFFFFFFFFFFFFFFFFFFFFFFFFFFFFFFFFFFF AND PUSH20 0xFFFFFFFFFFFFFFFFFFFFFFFFFFFFFFFFFFFFFFFF AND DUP2 MSTORE PUSH1 0x20 ADD SWAP1 DUP2 MSTORE PUSH1 0x20 ADD PUSH0 KECCAK256 SLOAD SWAP1 POP DUP2 DUP2 LT ISZERO PUSH2 0x329 JUMPI DUP4 DUP2 DUP4 PUSH1 0x40 MLOAD PUSH32 0xE450D38C00000000000000000000000000000000000000000000000000000000 DUP2 MSTORE PUSH1 0x4 ADD PUSH2 0x320 SWAP4 SWAP3 SWAP2 SWAP1 PUSH2 0xAA6 JUMP JUMPDEST PUSH1 0x40 MLOAD DUP1 SWAP2 SUB SWAP1 REVERT JUMPDEST DUP2 DUP2 SUB PUSH0 DUP1 DUP7 PUSH20 0xFFFFFFFFFFFFFFFFFFFFFFFFFFFFFFFFFFFFFFFF AND PUSH20 0xFFFFFFFFFFFFFFFFFFFFFFFFFFFFFFFFFFFFFFFF AND DUP2 MSTORE PUSH1 0x20 ADD SWAP1 DUP2 MSTORE PUSH1 0x20 ADD PUSH0 KECCAK256 DUP2 SWAP1 SSTORE POP POP JUMPDEST PUSH0 PUSH20 0xFFFFFFFFFFFFFFFFFFFFFFFFFFFFFFFFFFFFFFFF AND DUP3 PUSH20 0xFFFFFFFFFFFFFFFFFFFFFFFFFFFFFFFFFFFFFFFF AND SUB PUSH2 0x3B5 JUMPI DUP1 PUSH1 0x2 PUSH0 DUP3 DUP3 SLOAD SUB SWAP3 POP POP DUP2 SWAP1 SSTORE POP PUSH2 0x3FF JUMP JUMPDEST DUP1 PUSH0 DUP1 DUP5 PUSH20 0xFFFFFFFFFFFFFFFFFFFFFFFFFFFFFFFFFFFFFFFF AND PUSH20 0xFFFFFFFFFFFFFFFFFFFFFFFFFFFFFFFFFFFFFFFF AND DUP2 MSTORE PUSH1 0x20 ADD SWAP1 DUP2 MSTORE PUSH1 0x20 ADD PUSH0 KECCAK256 PUSH0 DUP3 DUP3 SLOAD ADD SWAP3 POP POP DUP2 SWAP1 SSTORE POP JUMPDEST DUP2 PUSH20 0xFFFFFFFFFFFFFFFFFFFFFFFFFFFFFFFFFFFFFFFF AND DUP4 PUSH20 0xFFFFFFFFFFFFFFFFFFFFFFFFFFFFFFFFFFFFFFFF AND PUSH32 0xDDF252AD1BE2C89B69C2B068FC378DAA952BA7F163C4A11628F55A4DF523B3EF DUP4 PUSH1 0x40 MLOAD PUSH2 0x45C SWAP2 SWAP1 PUSH2 0xADB JUMP JUMPDEST PUSH1 0x40 MLOAD DUP1 SWAP2 SUB SWAP1 LOG3 POP POP POP JUMP JUMPDEST PUSH0 PUSH20 0xFFFFFFFFFFFFFFFFFFFFFFFFFFFFFFFFFFFFFFFF AND DUP5 PUSH20 0xFFFFFFFFFFFFFFFFFFFFFFFFFFFFFFFFFFFFFFFF AND SUB PUSH2 0x4D9 JUMPI PUSH0 PUSH1 0x40 MLOAD PUSH32 0xE602DF0500000000000000000000000000000000000000000000000000000000 DUP2 MSTORE PUSH1 0x4 ADD PUSH2 0x4D0 SWAP2 SWAP1 PUSH2 0xA1E JUMP JUMPDEST PUSH1 0x40 MLOAD DUP1 SWAP2 SUB SWAP1 REVERT JUMPDEST PUSH0 PUSH20 0xFFFFFFFFFFFFFFFFFFFFFFFFFFFFFFFFFFFFFFFF AND DUP4 PUSH20 0xFFFFFFFFFFFFFFFFFFFFFFFFFFFFFFFFFFFFFFFF AND SUB PUSH2 0x549 JUMPI PUSH0 PUSH1 0x40 MLOAD PUSH32 0x94280D6200000000000000000000000000000000000000000000000000000000 DUP2 MSTORE PUSH1 0x4 ADD PUSH2 0x540 SWAP2 SWAP1 PUSH2 0xA1E JUMP JUMPDEST PUSH1 0x40 MLOAD DUP1 SWAP2 SUB SWAP1 REVERT JUMPDEST DUP2 PUSH1 0x1 PUSH0 DUP7 PUSH20 0xFFFFFFFFFFFFFFFFFFFFFFFFFFFFFFFFFFFFFFFF AND PUSH20 0xFFFFFFFFFFFFFFFFFFFFFFFFFFFFFFFFFFFFFFFF AND DUP2 MSTORE PUSH1 0x20 ADD SWAP1 DUP2 MSTORE PUSH1 0x20 ADD PUSH0 KECCAK256 PUSH0 DUP6 PUSH20 0xFFFFFFFFFFFFFFFFFFFFFFFFFFFFFFFFFFFFFFFF AND PUSH20 0xFFFFFFFFFFFFFFFFFFFFFFFFFFFFFFFFFFFFFFFF AND DUP2 MSTORE PUSH1 0x20 ADD SWAP1 DUP2 MSTORE PUSH1 0x20 ADD PUSH0 KECCAK256 DUP2 SWAP1 SSTORE POP DUP1 ISZERO PUSH2 0x632 JUMPI DUP3 PUSH20 0xFFFFFFFFFFFFFFFFFFFFFFFFFFFFFFFFFFFFFFFF AND DUP5 PUSH20 0xFFFFFFFFFFFFFFFFFFFFFFFFFFFFFFFFFFFFFFFF AND PUSH32 0x8C5BE1E5EBEC7D5BD14F71427D1E84F3DD0314C0F7B2291E5B200AC8C7C3B925 DUP5 PUSH1 0x40 MLOAD PUSH2 0x629 SWAP2 SWAP1 PUSH2 0xADB JUMP JUMPDEST PUSH1 0x40 MLOAD DUP1 SWAP2 SUB SWAP1 LOG3 JUMPDEST POP POP POP POP JUMP JUMPDEST PUSH0 DUP2 MLOAD SWAP1 POP SWAP2 SWAP1 POP JUMP JUMPDEST PUSH32 0x4E487B7100000000000000000000000000000000000000000000000000000000 PUSH0 MSTORE PUSH1 0x41 PUSH1 0x4 MSTORE PUSH1 0x24 PUSH0 REVERT JUMPDEST PUSH32 0x4E487B7100000000000000000000000000000000000000000000000000000000 PUSH0 MSTORE PUSH1 0x22 PUSH1 0x4 MSTORE PUSH1 0x24 PUSH0 REVERT JUMPDEST PUSH0 PUSH1 0x2 DUP3 DIV SWAP1 POP PUSH1 0x1 DUP3 AND DUP1 PUSH2 0x6B3 JUMPI PUSH1 0x7F DUP3 AND SWAP2 POP JUMPDEST PUSH1 0x20 DUP3 LT DUP2 SUB PUSH2 0x6C6 JUMPI PUSH2 0x6C5 PUSH2 0x66F JUMP JUMPDEST JUMPDEST POP SWAP2 SWAP1 POP JUMP JUMPDEST PUSH0 DUP2 SWAP1 POP DUP2 PUSH0 MSTORE PUSH1 0x20 PUSH0 KECCAK256 SWAP1 POP SWAP2 SWAP1 POP JUMP JUMPDEST PUSH0 PUSH1 0x20 PUSH1 0x1F DUP4 ADD DIV SWAP1 POP SWAP2 SWAP1 POP JUMP JUMPDEST PUSH0 DUP3 DUP3 SHL SWAP1 POP SWAP3 SWAP2 POP POP JUMP JUMPDEST PUSH0 PUSH1 0x8 DUP4 MUL PUSH2 0x728 PUSH32 0xFFFFFFFFFFFFFFFFFFFFFFFFFFFFFFFFFFFFFFFFFFFFFFFFFFFFFFFFFFFFFFFF DUP3 PUSH2 0x6ED JUMP JUMPDEST PUSH2 0x732 DUP7 DUP4 PUSH2 0x6ED JUMP JUMPDEST SWAP6 POP DUP1 NOT DUP5 AND SWAP4 POP DUP1 DUP7 AND DUP5 OR SWAP3 POP POP POP SWAP4 SWAP3 POP POP POP JUMP JUMPDEST PUSH0 DUP2 SWAP1 POP SWAP2 SWAP1 POP JUMP JUMPDEST PUSH0 DUP2 SWAP1 POP SWAP2 SWAP1 POP JUMP JUMPDEST PUSH0 PUSH2 0x776 PUSH2 0x771 PUSH2 0x76C DUP5 PUSH2 0x74A JUMP JUMPDEST PUSH2 0x753 JUMP JUMPDEST PUSH2 0x74A JUMP JUMPDEST SWAP1 POP SWAP2 SWAP1 POP JUMP JUMPDEST PUSH0 DUP2 SWAP1 POP SWAP2 SWAP1 POP JUMP JUMPDEST PUSH2 0x78F DUP4 PUSH2 0x75C JUMP JUMPDEST PUSH2 0x7A3 PUSH2 0x79B DUP3 PUSH2 0x77D JUMP JUMPDEST DUP5 DUP5 SLOAD PUSH2 0x6F9 JUMP JUMPDEST DUP3 SSTORE POP POP POP POP JUMP JUMPDEST PUSH0 SWAP1 JUMP JUMPDEST PUSH2 0x7B7 PUSH2 0x7AB JUMP JUMPDEST PUSH2 0x7C2 DUP2 DUP5 DUP5 PUSH2 0x786 JUMP JUMPDEST POP POP POP JUMP JUMPDEST JUMPDEST DUP2 DUP2 LT ISZERO PUSH2 0x7E5 JUMPI PUSH2 0x7DA PUSH0 DUP3 PUSH2 0x7AF JUMP JUMPDEST PUSH1 0x1 DUP2 ADD SWAP1 POP PUSH2 0x7C8 JUMP JUMPDEST POP POP JUMP JUMPDEST PUSH1 0x1F DUP3 GT ISZERO PUSH2 0x82A JUMPI PUSH2 0x7FB DUP2 PUSH2 0x6CC JUMP JUMPDEST PUSH2 0x804 DUP5 PUSH2 0x6DE JUMP JUMPDEST DUP2 ADD PUSH1 0x20 DUP6 LT ISZERO PUSH2 0x813 JUMPI DUP2 SWAP1 POP JUMPDEST PUSH2 0x827 PUSH2 0x81F DUP6 PUSH2 0x6DE JUMP JUMPDEST DUP4 ADD DUP3 PUSH2 0x7C7 JUMP JUMPDEST POP POP JUMPDEST POP POP POP JUMP JUMPDEST PUSH0 DUP3 DUP3 SHR SWAP1 POP SWAP3 SWAP2 POP POP JUMP JUMPDEST PUSH0 PUSH2 0x84A PUSH0 NOT DUP5 PUSH1 0x8 MUL PUSH2 0x82F JUMP JUMPDEST NOT DUP1 DUP4 AND SWAP2 POP POP SWAP3 SWAP2 POP POP JUMP JUMPDEST PUSH0 PUSH2 0x862 DUP4 DUP4 PUSH2 0x83B JUMP JUMPDEST SWAP2 POP DUP3 PUSH1 0x2 MUL DUP3 OR SWAP1 POP SWAP3 SWAP2 POP POP JUMP JUMPDEST PUSH2 0x87B DUP3 PUSH2 0x638 JUMP JUMPDEST PUSH8 0xFFFFFFFFFFFFFFFF DUP2 GT ISZERO PUSH2 0x894 JUMPI PUSH2 0x893 PUSH2 0x642 JUMP JUMPDEST JUMPDEST PUSH2 0x89E DUP3 SLOAD PUSH2 0x69C JUMP JUMPDEST PUSH2 0x8A9 DUP3 DUP3 DUP6 PUSH2 0x7E9 JUMP JUMPDEST PUSH0 PUSH1 0x20 SWAP1 POP PUSH1 0x1F DUP4 GT PUSH1 0x1 DUP2 EQ PUSH2 0x8DA JUMPI PUSH0 DUP5 ISZERO PUSH2 0x8C8 JUMPI DUP3 DUP8 ADD MLOAD SWAP1 POP JUMPDEST PUSH2 0x8D2 DUP6 DUP3 PUSH2 0x857 JUMP JUMPDEST DUP7 SSTORE POP PUSH2 0x939 JUMP JUMPDEST PUSH1 0x1F NOT DUP5 AND PUSH2 0x8E8 DUP7 PUSH2 0x6CC JUMP JUMPDEST PUSH0 JUMPDEST DUP3 DUP2 LT ISZERO PUSH2 0x90F JUMPI DUP5 DUP10 ADD MLOAD DUP3 SSTORE PUSH1 0x1 DUP3 ADD SWAP2 POP PUSH1 0x20 DUP6 ADD SWAP5 POP PUSH1 0x20 DUP2 ADD SWAP1 POP PUSH2 0x8EA JUMP JUMPDEST DUP7 DUP4 LT ISZERO PUSH2 0x92C JUMPI DUP5 DUP10 ADD MLOAD PUSH2 0x928 PUSH1 0x1F DUP10 AND DUP3 PUSH2 0x83B JUMP JUMPDEST DUP4 SSTORE POP JUMPDEST PUSH1 0x1 PUSH1 0x2 DUP9 MUL ADD DUP9 SSTORE POP POP POP JUMPDEST POP POP POP POP POP POP JUMP JUMPDEST PUSH0 DUP3 DUP3 MSTORE PUSH1 0x20 DUP3 ADD SWAP1 POP SWAP3 SWAP2 POP POP JUMP JUMPDEST PUSH32 0x4F6E6C792030206F7220312061636365707465642061732061697264726F7020 PUSH0 DUP3 ADD MSTORE PUSH32 0x7479706500000000000000000000000000000000000000000000000000000000 PUSH1 0x20 DUP3 ADD MSTORE POP JUMP JUMPDEST PUSH0 PUSH2 0x9AB PUSH1 0x24 DUP4 PUSH2 0x941 JUMP JUMPDEST SWAP2 POP PUSH2 0x9B6 DUP3 PUSH2 0x951 JUMP JUMPDEST PUSH1 0x40 DUP3 ADD SWAP1 POP SWAP2 SWAP1 POP JUMP JUMPDEST PUSH0 PUSH1 0x20 DUP3 ADD SWAP1 POP DUP2 DUP2 SUB PUSH0 DUP4 ADD MSTORE PUSH2 0x9D8 DUP2 PUSH2 0x99F JUMP JUMPDEST SWAP1 POP SWAP2 SWAP1 POP JUMP JUMPDEST PUSH0 PUSH20 0xFFFFFFFFFFFFFFFFFFFFFFFFFFFFFFFFFFFFFFFF DUP3 AND SWAP1 POP SWAP2 SWAP1 POP JUMP JUMPDEST PUSH0 PUSH2 0xA08 DUP3 PUSH2 0x9DF JUMP JUMPDEST SWAP1 POP SWAP2 SWAP1 POP JUMP JUMPDEST PUSH2 0xA18 DUP2 PUSH2 0x9FE JUMP JUMPDEST DUP3 MSTORE POP POP JUMP JUMPDEST PUSH0 PUSH1 0x20 DUP3 ADD SWAP1 POP PUSH2 0xA31 PUSH0 DUP4 ADD DUP5 PUSH2 0xA0F JUMP JUMPDEST SWAP3 SWAP2 POP POP JUMP JUMPDEST PUSH32 0x4E487B7100000000000000000000000000000000000000000000000000000000 PUSH0 MSTORE PUSH1 0x11 PUSH1 0x4 MSTORE PUSH1 0x24 PUSH0 REVERT JUMPDEST PUSH0 PUSH2 0xA6E DUP3 PUSH2 0x74A JUMP JUMPDEST SWAP2 POP PUSH2 0xA79 DUP4 PUSH2 0x74A JUMP JUMPDEST SWAP3 POP DUP3 DUP3 ADD SWAP1 POP DUP1 DUP3 GT ISZERO PUSH2 0xA91 JUMPI PUSH2 0xA90 PUSH2 0xA37 JUMP JUMPDEST JUMPDEST SWAP3 SWAP2 POP POP JUMP JUMPDEST PUSH2 0xAA0 DUP2 PUSH2 0x74A JUMP JUMPDEST DUP3 MSTORE POP POP JUMP JUMPDEST PUSH0 PUSH1 0x60 DUP3 ADD SWAP1 POP PUSH2 0xAB9 PUSH0 DUP4 ADD DUP7 PUSH2 0xA0F JUMP JUMPDEST PUSH2 0xAC6 PUSH1 0x20 DUP4 ADD DUP6 PUSH2 0xA97 JUMP JUMPDEST PUSH2 0xAD3 PUSH1 0x40 DUP4 ADD DUP5 PUSH2 0xA97 JUMP JUMPDEST SWAP5 SWAP4 POP POP POP POP JUMP JUMPDEST PUSH0 PUSH1 0x20 DUP3 ADD SWAP1 POP PUSH2 0xAEE PUSH0 DUP4 ADD DUP5 PUSH2 0xA97 JUMP JUMPDEST SWAP3 SWAP2 POP POP JUMP JUMPDEST PUSH2 0x2B2C DUP1 PUSH2 0xB01 PUSH0 CODECOPY PUSH0 RETURN INVALID PUSH1 0x80 PUSH1 0x40 MSTORE CALLVALUE DUP1 ISZERO PUSH2 0xF JUMPI PUSH0 DUP1 REVERT JUMPDEST POP PUSH1 0x4 CALLDATASIZE LT PUSH2 0x114 JUMPI PUSH0 CALLDATALOAD PUSH1 0xE0 SHR DUP1 PUSH4 0x6F9170F6 GT PUSH2 0xA0 JUMPI DUP1 PUSH4 0xA2EFA6AE GT PUSH2 0x6F JUMPI DUP1 PUSH4 0xA2EFA6AE EQ PUSH2 0x31C JUMPI DUP1 PUSH4 0xA9059CBB EQ PUSH2 0x34C JUMPI DUP1 PUSH4 0xD826F88F EQ PUSH2 0x37C JUMPI DUP1 PUSH4 0xDCA11AB8 EQ PUSH2 0x39A JUMPI DUP1 PUSH4 0xDD62ED3E EQ PUSH2 0x3CA JUMPI PUSH2 0x114 JUMP JUMPDEST DUP1 PUSH4 0x6F9170F6 EQ PUSH2 0x26E JUMPI DUP1 PUSH4 0x70A08231 EQ PUSH2 0x29E JUMPI DUP1 PUSH4 0x95D89B41 EQ PUSH2 0x2CE JUMPI DUP1 PUSH4 0xA0712D68 EQ PUSH2 0x2EC JUMPI PUSH2 0x114 JUMP JUMPDEST DUP1 PUSH4 0x18160DDD GT PUSH2 0xE7 JUMPI DUP1 PUSH4 0x18160DDD EQ PUSH2 0x1B4 JUMPI DUP1 PUSH4 0x23B872DD EQ PUSH2 0x1D2 JUMPI DUP1 PUSH4 0x313CE567 EQ PUSH2 0x202 JUMPI DUP1 PUSH4 0x4E41CFDB EQ PUSH2 0x220 JUMPI DUP1 PUSH4 0x51D6E8A4 EQ PUSH2 0x250 JUMPI PUSH2 0x114 JUMP JUMPDEST DUP1 PUSH4 0x6FDDE03 EQ PUSH2 0x118 JUMPI DUP1 PUSH4 0x95EA7B3 EQ PUSH2 0x136 JUMPI DUP1 PUSH4 0x9A9D76C EQ PUSH2 0x166 JUMPI DUP1 PUSH4 0x150B7A02 EQ PUSH2 0x184 JUMPI JUMPDEST PUSH0 DUP1 REVERT JUMPDEST PUSH2 0x120 PUSH2 0x3FA JUMP JUMPDEST PUSH1 0x40 MLOAD PUSH2 0x12D SWAP2 SWAP1 PUSH2 0x19C8 JUMP JUMPDEST PUSH1 0x40 MLOAD DUP1 SWAP2 SUB SWAP1 RETURN JUMPDEST PUSH2 0x150 PUSH1 0x4 DUP1 CALLDATASIZE SUB DUP2 ADD SWAP1 PUSH2 0x14B SWAP2 SWAP1 PUSH2 0x1A86 JUMP JUMPDEST PUSH2 0x48A JUMP JUMPDEST PUSH1 0x40 MLOAD PUSH2 0x15D SWAP2 SWAP1 PUSH2 0x1ADE JUMP JUMPDEST PUSH1 0x40 MLOAD DUP1 SWAP2 SUB SWAP1 RETURN JUMPDEST PUSH2 0x16E PUSH2 0x4AC JUMP JUMPDEST PUSH1 0x40 MLOAD PUSH2 0x17B SWAP2 SWAP1 PUSH2 0x1BAE JUMP JUMPDEST PUSH1 0x40 MLOAD DUP1 SWAP2 SUB SWAP1 RETURN JUMPDEST PUSH2 0x19E PUSH1 0x4 DUP1 CALLDATASIZE SUB DUP2 ADD SWAP1 PUSH2 0x199 SWAP2 SWAP1 PUSH2 0x1CFA JUMP JUMPDEST PUSH2 0x537 JUMP JUMPDEST PUSH1 0x40 MLOAD PUSH2 0x1AB SWAP2 SWAP1 PUSH2 0x1DB4 JUMP JUMPDEST PUSH1 0x40 MLOAD DUP1 SWAP2 SUB SWAP1 RETURN JUMPDEST PUSH2 0x1BC PUSH2 0x587 JUMP JUMPDEST PUSH1 0x40 MLOAD PUSH2 0x1C9 SWAP2 SWAP1 PUSH2 0x1DDC JUMP JUMPDEST PUSH1 0x40 MLOAD DUP1 SWAP2 SUB SWAP1 RETURN JUMPDEST PUSH2 0x1EC PUSH1 0x4 DUP1 CALLDATASIZE SUB DUP2 ADD SWAP1 PUSH2 0x1E7 SWAP2 SWAP1 PUSH2 0x1DF5 JUMP JUMPDEST PUSH2 0x590 JUMP JUMPDEST PUSH1 0x40 MLOAD PUSH2 0x1F9 SWAP2 SWAP1 PUSH2 0x1ADE JUMP JUMPDEST PUSH1 0x40 MLOAD DUP1 SWAP2 SUB SWAP1 RETURN JUMPDEST PUSH2 0x20A PUSH2 0x5BE JUMP JUMPDEST PUSH1 0x40 MLOAD PUSH2 0x217 SWAP2 SWAP1 PUSH2 0x1E60 JUMP JUMPDEST PUSH1 0x40 MLOAD DUP1 SWAP2 SUB SWAP1 RETURN JUMPDEST PUSH2 0x23A PUSH1 0x4 DUP1 CALLDATASIZE SUB DUP2 ADD SWAP1 PUSH2 0x235 SWAP2 SWAP1 PUSH2 0x1ED6 JUMP JUMPDEST PUSH2 0x5C6 JUMP JUMPDEST PUSH1 0x40 MLOAD PUSH2 0x247 SWAP2 SWAP1 PUSH2 0x1ADE JUMP JUMPDEST PUSH1 0x40 MLOAD DUP1 SWAP2 SUB SWAP1 RETURN JUMPDEST PUSH2 0x258 PUSH2 0x5D8 JUMP JUMPDEST PUSH1 0x40 MLOAD PUSH2 0x265 SWAP2 SWAP1 PUSH2 0x1DDC JUMP JUMPDEST PUSH1 0x40 MLOAD DUP1 SWAP2 SUB SWAP1 RETURN JUMPDEST PUSH2 0x288 PUSH1 0x4 DUP1 CALLDATASIZE SUB DUP2 ADD SWAP1 PUSH2 0x283 SWAP2 SWAP1 PUSH2 0x1F21 JUMP JUMPDEST PUSH2 0x5E1 JUMP JUMPDEST PUSH1 0x40 MLOAD PUSH2 0x295 SWAP2 SWAP1 PUSH2 0x1ADE JUMP JUMPDEST PUSH1 0x40 MLOAD DUP1 SWAP2 SUB SWAP1 RETURN JUMPDEST PUSH2 0x2B8 PUSH1 0x4 DUP1 CALLDATASIZE SUB DUP2 ADD SWAP1 PUSH2 0x2B3 SWAP2 SWAP1 PUSH2 0x1F21 JUMP JUMPDEST PUSH2 0x5F2 JUMP JUMPDEST PUSH1 0x40 MLOAD PUSH2 0x2C5 SWAP2 SWAP1 PUSH2 0x1DDC JUMP JUMPDEST PUSH1 0x40 MLOAD DUP1 SWAP2 SUB SWAP1 RETURN JUMPDEST PUSH2 0x2D6 PUSH2 0x637 JUMP JUMPDEST PUSH1 0x40 MLOAD PUSH2 0x2E3 SWAP2 SWAP1 PUSH2 0x19C8 JUMP JUMPDEST PUSH1 0x40 MLOAD DUP1 SWAP2 SUB SWAP1 RETURN JUMPDEST PUSH2 0x306 PUSH1 0x4 DUP1 CALLDATASIZE SUB DUP2 ADD SWAP1 PUSH2 0x301 SWAP2 SWAP1 PUSH2 0x1F4C JUMP JUMPDEST PUSH2 0x6C7 JUMP JUMPDEST PUSH1 0x40 MLOAD PUSH2 0x313 SWAP2 SWAP1 PUSH2 0x1ADE JUMP JUMPDEST PUSH1 0x40 MLOAD DUP1 SWAP2 SUB SWAP1 RETURN JUMPDEST PUSH2 0x336 PUSH1 0x4 DUP1 CALLDATASIZE SUB DUP2 ADD SWAP1 PUSH2 0x331 SWAP2 SWAP1 PUSH2 0x1FCC JUMP JUMPDEST PUSH2 0x6D7 JUMP JUMPDEST PUSH1 0x40 MLOAD PUSH2 0x343 SWAP2 SWAP1 PUSH2 0x1ADE JUMP JUMPDEST PUSH1 0x40 MLOAD DUP1 SWAP2 SUB SWAP1 RETURN JUMPDEST PUSH2 0x366 PUSH1 0x4 DUP1 CALLDATASIZE SUB DUP2 ADD SWAP1 PUSH2 0x361 SWAP2 SWAP1 PUSH2 0x1A86 JUMP JUMPDEST PUSH2 0x6E9 JUMP JUMPDEST PUSH1 0x40 MLOAD PUSH2 0x373 SWAP2 SWAP1 PUSH2 0x1ADE JUMP JUMPDEST PUSH1 0x40 MLOAD DUP1 SWAP2 SUB SWAP1 RETURN JUMPDEST PUSH2 0x384 PUSH2 0x70B JUMP JUMPDEST PUSH1 0x40 MLOAD PUSH2 0x391 SWAP2 SWAP1 PUSH2 0x1ADE JUMP JUMPDEST PUSH1 0x40 MLOAD DUP1 SWAP2 SUB SWAP1 RETURN JUMPDEST PUSH2 0x3B4 PUSH1 0x4 DUP1 CALLDATASIZE SUB DUP2 ADD SWAP1 PUSH2 0x3AF SWAP2 SWAP1 PUSH2 0x1F21 JUMP JUMPDEST PUSH2 0x718 JUMP JUMPDEST PUSH1 0x40 MLOAD PUSH2 0x3C1 SWAP2 SWAP1 PUSH2 0x1ADE JUMP JUMPDEST PUSH1 0x40 MLOAD DUP1 SWAP2 SUB SWAP1 RETURN JUMPDEST PUSH2 0x3E4 PUSH1 0x4 DUP1 CALLDATASIZE SUB DUP2 ADD SWAP1 PUSH2 0x3DF SWAP2 SWAP1 PUSH2 0x2017 JUMP JUMPDEST PUSH2 0x78D JUMP JUMPDEST PUSH1 0x40 MLOAD PUSH2 0x3F1 SWAP2 SWAP1 PUSH2 0x1DDC JUMP JUMPDEST PUSH1 0x40 MLOAD DUP1 SWAP2 SUB SWAP1 RETURN JUMPDEST PUSH1 0x60 PUSH1 0x3 DUP1 SLOAD PUSH2 0x409 SWAP1 PUSH2 0x2082 JUMP JUMPDEST DUP1 PUSH1 0x1F ADD PUSH1 0x20 DUP1 SWAP2 DIV MUL PUSH1 0x20 ADD PUSH1 0x40 MLOAD SWAP1 DUP2 ADD PUSH1 0x40 MSTORE DUP1 SWAP3 SWAP2 SWAP1 DUP2 DUP2 MSTORE PUSH1 0x20 ADD DUP3 DUP1 SLOAD PUSH2 0x435 SWAP1 PUSH2 0x2082 JUMP JUMPDEST DUP1 ISZERO PUSH2 0x480 JUMPI DUP1 PUSH1 0x1F LT PUSH2 0x457 JUMPI PUSH2 0x100 DUP1 DUP4 SLOAD DIV MUL DUP4 MSTORE SWAP2 PUSH1 0x20 ADD SWAP2 PUSH2 0x480 JUMP JUMPDEST DUP3 ADD SWAP2 SWAP1 PUSH0 MSTORE PUSH1 0x20 PUSH0 KECCAK256 SWAP1 JUMPDEST DUP2 SLOAD DUP2 MSTORE SWAP1 PUSH1 0x1 ADD SWAP1 PUSH1 0x20 ADD DUP1 DUP4 GT PUSH2 0x463 JUMPI DUP3 SWAP1 SUB PUSH1 0x1F AND DUP3 ADD SWAP2 JUMPDEST POP POP POP POP POP SWAP1 POP SWAP1 JUMP JUMPDEST PUSH0 DUP1 PUSH2 0x494 PUSH2 0x80F JUMP JUMPDEST SWAP1 POP PUSH2 0x4A1 DUP2 DUP6 DUP6 PUSH2 0x816 JUMP JUMPDEST PUSH1 0x1 SWAP2 POP POP SWAP3 SWAP2 POP POP JUMP JUMPDEST PUSH1 0x60 PUSH1 0x6 DUP1 SLOAD DUP1 PUSH1 0x20 MUL PUSH1 0x20 ADD PUSH1 0x40 MLOAD SWAP1 DUP2 ADD PUSH1 0x40 MSTORE DUP1 SWAP3 SWAP2 SWAP1 DUP2 DUP2 MSTORE PUSH1 0x20 ADD DUP3 DUP1 SLOAD DUP1 ISZERO PUSH2 0x52D JUMPI PUSH1 0x20 MUL DUP3 ADD SWAP2 SWAP1 PUSH0 MSTORE PUSH1 0x20 PUSH0 KECCAK256 SWAP1 JUMPDEST DUP2 PUSH0 SWAP1 SLOAD SWAP1 PUSH2 0x100 EXP SWAP1 DIV PUSH20 0xFFFFFFFFFFFFFFFFFFFFFFFFFFFFFFFFFFFFFFFF AND PUSH20 0xFFFFFFFFFFFFFFFFFFFFFFFFFFFFFFFFFFFFFFFF AND DUP2 MSTORE PUSH1 0x20 ADD SWAP1 PUSH1 0x1 ADD SWAP1 DUP1 DUP4 GT PUSH2 0x4E4 JUMPI JUMPDEST POP POP POP POP POP SWAP1 POP SWAP1 JUMP JUMPDEST PUSH0 PUSH32 0x541CB930DBB178D9D0A40B098C309DDA5A70E722066990941158D1F77B5BFCF3 DUP6 DUP6 DUP6 DUP6 PUSH1 0x40 MLOAD PUSH2 0x56D SWAP5 SWAP4 SWAP3 SWAP2 SWAP1 PUSH2 0x2113 JUMP JUMPDEST PUSH1 0x40 MLOAD DUP1 SWAP2 SUB SWAP1 LOG1 PUSH4 0x150B7A02 PUSH1 0xE0 SHL SWAP1 POP SWAP5 SWAP4 POP POP POP POP JUMP JUMPDEST PUSH0 PUSH1 0x2 SLOAD SWAP1 POP SWAP1 JUMP JUMPDEST PUSH0 DUP1 PUSH2 0x59A PUSH2 0x80F JUMP JUMPDEST SWAP1 POP PUSH2 0x5A7 DUP6 DUP3 DUP6 PUSH2 0x828 JUMP JUMPDEST PUSH2 0x5B2 DUP6 DUP6 DUP6 PUSH2 0x8BB JUMP JUMPDEST PUSH1 0x1 SWAP2 POP POP SWAP4 SWAP3 POP POP POP JUMP JUMPDEST PUSH0 PUSH1 0x12 SWAP1 POP SWAP1 JUMP JUMPDEST PUSH0 PUSH2 0x5D1 DUP4 DUP4 PUSH2 0x9AB JUMP JUMPDEST POP SWAP3 SWAP2 POP POP JUMP JUMPDEST PUSH0 PUSH1 0x7 SLOAD SWAP1 POP SWAP1 JUMP JUMPDEST PUSH0 PUSH2 0x5EB DUP3 PUSH2 0xC14 JUMP JUMPDEST SWAP1 POP SWAP2 SWAP1 POP JUMP JUMPDEST PUSH0 DUP1 PUSH0 DUP4 PUSH20 0xFFFFFFFFFFFFFFFFFFFFFFFFFFFFFFFFFFFFFFFF AND PUSH20 0xFFFFFFFFFFFFFFFFFFFFFFFFFFFFFFFFFFFFFFFF AND DUP2 MSTORE PUSH1 0x20 ADD SWAP1 DUP2 MSTORE PUSH1 0x20 ADD PUSH0 KECCAK256 SLOAD SWAP1 POP SWAP2 SWAP1 POP JUMP JUMPDEST PUSH1 0x60 PUSH1 0x4 DUP1 SLOAD PUSH2 0x646 SWAP1 PUSH2 0x2082 JUMP JUMPDEST DUP1 PUSH1 0x1F ADD PUSH1 0x20 DUP1 SWAP2 DIV MUL PUSH1 0x20 ADD PUSH1 0x40 MLOAD SWAP1 DUP2 ADD PUSH1 0x40 MSTORE DUP1 SWAP3 SWAP2 SWAP1 DUP2 DUP2 MSTORE PUSH1 0x20 ADD DUP3 DUP1 SLOAD PUSH2 0x672 SWAP1 PUSH2 0x2082 JUMP JUMPDEST DUP1 ISZERO PUSH2 0x6BD JUMPI DUP1 PUSH1 0x1F LT PUSH2 0x694 JUMPI PUSH2 0x100 DUP1 DUP4 SLOAD DIV MUL DUP4 MSTORE SWAP2 PUSH1 0x20 ADD SWAP2 PUSH2 0x6BD JUMP JUMPDEST DUP3 ADD SWAP2 SWAP1 PUSH0 MSTORE PUSH1 0x20 PUSH0 KECCAK256 SWAP1 JUMPDEST DUP2 SLOAD DUP2 MSTORE SWAP1 PUSH1 0x1 ADD SWAP1 PUSH1 0x20 ADD DUP1 DUP4 GT PUSH2 0x6A0 JUMPI DUP3 SWAP1 SUB PUSH1 0x1F AND DUP3 ADD SWAP2 JUMPDEST POP POP POP POP POP SWAP1 POP SWAP1 JUMP JUMPDEST PUSH0 PUSH2 0x6D2 CALLER DUP4 PUSH2 0xCB9 JUMP JUMPDEST SWAP2 SWAP1 POP JUMP JUMPDEST PUSH0 PUSH2 0x6E2 DUP4 DUP4 PUSH2 0xD38 JUMP JUMPDEST POP SWAP3 SWAP2 POP POP JUMP JUMPDEST PUSH0 DUP1 PUSH2 0x6F3 PUSH2 0x80F JUMP JUMPDEST SWAP1 POP PUSH2 0x700 DUP2 DUP6 DUP6 PUSH2 0x8BB JUMP JUMPDEST PUSH1 0x1 SWAP2 POP POP SWAP3 SWAP2 POP POP JUMP JUMPDEST PUSH0 PUSH2 0x714 PUSH2 0x145B JUMP JUMPDEST POP SWAP1 JUMP JUMPDEST PUSH0 PUSH1 0x5 PUSH0 PUSH1 0x7 SLOAD DUP2 MSTORE PUSH1 0x20 ADD SWAP1 DUP2 MSTORE PUSH1 0x20 ADD PUSH0 KECCAK256 PUSH0 DUP4 PUSH20 0xFFFFFFFFFFFFFFFFFFFFFFFFFFFFFFFFFFFFFFFF AND PUSH20 0xFFFFFFFFFFFFFFFFFFFFFFFFFFFFFFFFFFFFFFFF AND DUP2 MSTORE PUSH1 0x20 ADD SWAP1 DUP2 MSTORE PUSH1 0x20 ADD PUSH0 KECCAK256 PUSH0 SWAP1 SLOAD SWAP1 PUSH2 0x100 EXP SWAP1 DIV PUSH1 0xFF AND ISZERO DUP1 ISZERO PUSH2 0x786 JUMPI POP PUSH2 0x785 DUP3 PUSH2 0xC14 JUMP JUMPDEST JUMPDEST SWAP1 POP SWAP2 SWAP1 POP JUMP JUMPDEST PUSH0 PUSH1 0x1 PUSH0 DUP5 PUSH20 0xFFFFFFFFFFFFFFFFFFFFFFFFFFFFFFFFFFFFFFFF AND PUSH20 0xFFFFFFFFFFFFFFFFFFFFFFFFFFFFFFFFFFFFFFFF AND DUP2 MSTORE PUSH1 0x20 ADD SWAP1 DUP2 MSTORE PUSH1 0x20 ADD PUSH0 KECCAK256 PUSH0 DUP4 PUSH20 0xFFFFFFFFFFFFFFFFFFFFFFFFFFFFFFFFFFFFFFFF AND PUSH20 0xFFFFFFFFFFFFFFFFFFFFFFFFFFFFFFFFFFFFFFFF AND DUP2 MSTORE PUSH1 0x20 ADD SWAP1 DUP2 MSTORE PUSH1 0x20 ADD PUSH0 KECCAK256 SLOAD SWAP1 POP SWAP3 SWAP2 POP POP JUMP JUMPDEST PUSH0 CALLER SWAP1 POP SWAP1 JUMP JUMPDEST PUSH2 0x823 DUP4 DUP4 DUP4 PUSH1 0x1 PUSH2 0x147A JUMP JUMPDEST POP POP POP JUMP JUMPDEST PUSH0 PUSH2 0x833 DUP5 DUP5 PUSH2 0x78D JUMP JUMPDEST SWAP1 POP PUSH32 0xFFFFFFFFFFFFFFFFFFFFFFFFFFFFFFFFFFFFFFFFFFFFFFFFFFFFFFFFFFFFFFFF DUP2 LT ISZERO PUSH2 0x8B5 JUMPI DUP2 DUP2 LT ISZERO PUSH2 0x8A6 JUMPI DUP3 DUP2 DUP4 PUSH1 0x40 MLOAD PUSH32 0xFB8F41B200000000000000000000000000000000000000000000000000000000 DUP2 MSTORE PUSH1 0x4 ADD PUSH2 0x89D SWAP4 SWAP3 SWAP2 SWAP1 PUSH2 0x215D JUMP JUMPDEST PUSH1 0x40 MLOAD DUP1 SWAP2 SUB SWAP1 REVERT JUMPDEST PUSH2 0x8B4 DUP5 DUP5 DUP5 DUP5 SUB PUSH0 PUSH2 0x147A JUMP JUMPDEST JUMPDEST POP POP POP POP JUMP JUMPDEST PUSH0 PUSH20 0xFFFFFFFFFFFFFFFFFFFFFFFFFFFFFFFFFFFFFFFF AND DUP4 PUSH20 0xFFFFFFFFFFFFFFFFFFFFFFFFFFFFFFFFFFFFFFFF AND SUB PUSH2 0x92B JUMPI PUSH0 PUSH1 0x40 MLOAD PUSH32 0x96C6FD1E00000000000000000000000000000000000000000000000000000000 DUP2 MSTORE PUSH1 0x4 ADD PUSH2 0x922 SWAP2 SWAP1 PUSH2 0x2192 JUMP JUMPDEST PUSH1 0x40 MLOAD DUP1 SWAP2 SUB SWAP1 REVERT JUMPDEST PUSH0 PUSH20 0xFFFFFFFFFFFFFFFFFFFFFFFFFFFFFFFFFFFFFFFF AND DUP3 PUSH20 0xFFFFFFFFFFFFFFFFFFFFFFFFFFFFFFFFFFFFFFFF AND SUB PUSH2 0x99B JUMPI PUSH0 PUSH1 0x40 MLOAD PUSH32 0xEC442F0500000000000000000000000000000000000000000000000000000000 DUP2 MSTORE PUSH1 0x4 ADD PUSH2 0x992 SWAP2 SWAP1 PUSH2 0x2192 JUMP JUMPDEST PUSH1 0x40 MLOAD DUP1 SWAP2 SUB SWAP1 REVERT JUMPDEST PUSH2 0x9A6 DUP4 DUP4 DUP4 PUSH2 0x1649 JUMP JUMPDEST POP POP POP JUMP JUMPDEST PUSH0 DUP1 PUSH0 SWAP1 POP JUMPDEST DUP4 DUP4 SWAP1 POP DUP2 LT ISZERO PUSH2 0xBD0 JUMPI PUSH0 PUSH20 0xFFFFFFFFFFFFFFFFFFFFFFFFFFFFFFFFFFFFFFFF AND DUP5 DUP5 DUP4 DUP2 DUP2 LT PUSH2 0x9E6 JUMPI PUSH2 0x9E5 PUSH2 0x21AB JUMP JUMPDEST JUMPDEST SWAP1 POP PUSH1 0x20 MUL ADD PUSH1 0x20 DUP2 ADD SWAP1 PUSH2 0x9FB SWAP2 SWAP1 PUSH2 0x1F21 JUMP JUMPDEST PUSH20 0xFFFFFFFFFFFFFFFFFFFFFFFFFFFFFFFFFFFFFFFF AND SUB PUSH2 0xA51 JUMPI PUSH1 0x40 MLOAD PUSH32 0x8C379A000000000000000000000000000000000000000000000000000000000 DUP2 MSTORE PUSH1 0x4 ADD PUSH2 0xA48 SWAP1 PUSH2 0x2222 JUMP JUMPDEST PUSH1 0x40 MLOAD DUP1 SWAP2 SUB SWAP1 REVERT JUMPDEST PUSH1 0x1 PUSH1 0xA SLOAD SUB PUSH2 0xACC JUMPI PUSH2 0xA8C DUP5 DUP5 DUP4 DUP2 DUP2 LT PUSH2 0xA71 JUMPI PUSH2 0xA70 PUSH2 0x21AB JUMP JUMPDEST JUMPDEST SWAP1 POP PUSH1 0x20 MUL ADD PUSH1 0x20 DUP2 ADD SWAP1 PUSH2 0xA86 SWAP2 SWAP1 PUSH2 0x1F21 JUMP JUMPDEST PUSH0 PUSH2 0x1862 JUMP JUMPDEST PUSH2 0xACB JUMPI PUSH1 0x40 MLOAD PUSH32 0x8C379A000000000000000000000000000000000000000000000000000000000 DUP2 MSTORE PUSH1 0x4 ADD PUSH2 0xAC2 SWAP1 PUSH2 0x228A JUMP JUMPDEST PUSH1 0x40 MLOAD DUP1 SWAP2 SUB SWAP1 REVERT JUMPDEST JUMPDEST PUSH2 0xAFC DUP5 DUP5 DUP4 DUP2 DUP2 LT PUSH2 0xAE2 JUMPI PUSH2 0xAE1 PUSH2 0x21AB JUMP JUMPDEST JUMPDEST SWAP1 POP PUSH1 0x20 MUL ADD PUSH1 0x20 DUP2 ADD SWAP1 PUSH2 0xAF7 SWAP2 SWAP1 PUSH2 0x1F21 JUMP JUMPDEST PUSH2 0x5E1 JUMP JUMPDEST ISZERO PUSH2 0xB3C JUMPI PUSH1 0x40 MLOAD PUSH32 0x8C379A000000000000000000000000000000000000000000000000000000000 DUP2 MSTORE PUSH1 0x4 ADD PUSH2 0xB33 SWAP1 PUSH2 0x22F2 JUMP JUMPDEST PUSH1 0x40 MLOAD DUP1 SWAP2 SUB SWAP1 REVERT JUMPDEST PUSH1 0x6 DUP5 DUP5 DUP4 DUP2 DUP2 LT PUSH2 0xB51 JUMPI PUSH2 0xB50 PUSH2 0x21AB JUMP JUMPDEST JUMPDEST SWAP1 POP PUSH1 0x20 MUL ADD PUSH1 0x20 DUP2 ADD SWAP1 PUSH2 0xB66 SWAP2 SWAP1 PUSH2 0x1F21 JUMP JUMPDEST SWAP1 DUP1 PUSH1 0x1 DUP2 SLOAD ADD DUP1 DUP3 SSTORE DUP1 SWAP2 POP POP PUSH1 0x1 SWAP1 SUB SWAP1 PUSH0 MSTORE PUSH1 0x20 PUSH0 KECCAK256 ADD PUSH0 SWAP1 SWAP2 SWAP1 SWAP2 SWAP1 SWAP2 PUSH2 0x100 EXP DUP2 SLOAD DUP2 PUSH20 0xFFFFFFFFFFFFFFFFFFFFFFFFFFFFFFFFFFFFFFFF MUL NOT AND SWAP1 DUP4 PUSH20 0xFFFFFFFFFFFFFFFFFFFFFFFFFFFFFFFFFFFFFFFF AND MUL OR SWAP1 SSTORE POP DUP1 DUP1 PUSH1 0x1 ADD SWAP2 POP POP PUSH2 0x9B1 JUMP JUMPDEST POP PUSH32 0x8F47A973C821CCA98D90B2C53821DC01E2971B8B14DB8AAE5776F42EA6CCCC9A DUP4 DUP4 PUSH1 0x40 MLOAD PUSH2 0xC02 SWAP3 SWAP2 SWAP1 PUSH2 0x2396 JUMP JUMPDEST PUSH1 0x40 MLOAD DUP1 SWAP2 SUB SWAP1 LOG1 PUSH1 0x1 SWAP1 POP SWAP3 SWAP2 POP POP JUMP JUMPDEST PUSH0 DUP1 PUSH1 0x6 DUP1 SLOAD SWAP1 POP SWAP1 POP PUSH0 JUMPDEST DUP2 DUP2 LT ISZERO PUSH2 0xCAE JUMPI DUP4 PUSH20 0xFFFFFFFFFFFFFFFFFFFFFFFFFFFFFFFFFFFFFFFF AND PUSH1 0x6 DUP3 DUP2 SLOAD DUP2 LT PUSH2 0xC53 JUMPI PUSH2 0xC52 PUSH2 0x21AB JUMP JUMPDEST JUMPDEST SWAP1 PUSH0 MSTORE PUSH1 0x20 PUSH0 KECCAK256 ADD PUSH0 SWAP1 SLOAD SWAP1 PUSH2 0x100 EXP SWAP1 DIV PUSH20 0xFFFFFFFFFFFFFFFFFFFFFFFFFFFFFFFFFFFFFFFF AND PUSH20 0xFFFFFFFFFFFFFFFFFFFFFFFFFFFFFFFFFFFFFFFF AND SUB PUSH2 0xCA1 JUMPI PUSH1 0x1 SWAP3 POP POP POP PUSH2 0xCB4 JUMP JUMPDEST DUP1 DUP1 PUSH1 0x1 ADD SWAP2 POP POP PUSH2 0xC20 JUMP JUMPDEST POP PUSH0 SWAP2 POP POP JUMPDEST SWAP2 SWAP1 POP JUMP JUMPDEST PUSH0 PUSH20 0xFFFFFFFFFFFFFFFFFFFFFFFFFFFFFFFFFFFFFFFF AND DUP3 PUSH20 0xFFFFFFFFFFFFFFFFFFFFFFFFFFFFFFFFFFFFFFFF AND SUB PUSH2 0xD29 JUMPI PUSH0 PUSH1 0x40 MLOAD PUSH32 0xEC442F0500000000000000000000000000000000000000000000000000000000 DUP2 MSTORE PUSH1 0x4 ADD PUSH2 0xD20 SWAP2 SWAP1 PUSH2 0x2192 JUMP JUMPDEST PUSH1 0x40 MLOAD DUP1 SWAP2 SUB SWAP1 REVERT JUMPDEST PUSH2 0xD34 PUSH0 DUP4 DUP4 PUSH2 0x1649 JUMP JUMPDEST POP POP JUMP JUMPDEST PUSH0 DUP1 PUSH20 0xFFFFFFFFFFFFFFFFFFFFFFFFFFFFFFFFFFFFFFFF AND PUSH1 0x8 PUSH0 SWAP1 SLOAD SWAP1 PUSH2 0x100 EXP SWAP1 DIV PUSH20 0xFFFFFFFFFFFFFFFFFFFFFFFFFFFFFFFFFFFFFFFF AND PUSH20 0xFFFFFFFFFFFFFFFFFFFFFFFFFFFFFFFFFFFFFFFF AND SUB PUSH2 0xDC8 JUMPI PUSH1 0x40 MLOAD PUSH32 0x8C379A000000000000000000000000000000000000000000000000000000000 DUP2 MSTORE PUSH1 0x4 ADD PUSH2 0xDBF SWAP1 PUSH2 0x2402 JUMP JUMPDEST PUSH1 0x40 MLOAD DUP1 SWAP2 SUB SWAP1 REVERT JUMPDEST PUSH0 PUSH1 0x6 DUP1 SLOAD SWAP1 POP GT PUSH2 0xE0F JUMPI PUSH1 0x40 MLOAD PUSH32 0x8C379A000000000000000000000000000000000000000000000000000000000 DUP2 MSTORE PUSH1 0x4 ADD PUSH2 0xE06 SWAP1 PUSH2 0x246A JUMP JUMPDEST PUSH1 0x40 MLOAD DUP1 SWAP2 SUB SWAP1 REVERT JUMPDEST DUP3 DUP3 SWAP1 POP PUSH1 0x6 DUP1 SLOAD SWAP1 POP EQ PUSH2 0xE59 JUMPI PUSH1 0x40 MLOAD PUSH32 0x8C379A000000000000000000000000000000000000000000000000000000000 DUP2 MSTORE PUSH1 0x4 ADD PUSH2 0xE50 SWAP1 PUSH2 0x251E JUMP JUMPDEST PUSH1 0x40 MLOAD DUP1 SWAP2 SUB SWAP1 REVERT JUMPDEST PUSH0 DUP1 PUSH0 PUSH1 0xA SLOAD SUB PUSH2 0xE8D JUMPI PUSH1 0x8 PUSH0 SWAP1 SLOAD SWAP1 PUSH2 0x100 EXP SWAP1 DIV PUSH20 0xFFFFFFFFFFFFFFFFFFFFFFFFFFFFFFFFFFFFFFFF AND SWAP1 POP PUSH2 0xEB2 JUMP JUMPDEST PUSH1 0x8 PUSH0 SWAP1 SLOAD SWAP1 PUSH2 0x100 EXP SWAP1 DIV PUSH20 0xFFFFFFFFFFFFFFFFFFFFFFFFFFFFFFFFFFFFFFFF AND SWAP2 POP JUMPDEST PUSH32 0xE92CFCA7BDC1F76F97B0CECC8D1DDABB94D01C99D9429C0963302A2F2A92714D PUSH1 0x6 DUP7 DUP7 PUSH1 0x40 MLOAD PUSH2 0xEE6 SWAP4 SWAP3 SWAP2 SWAP1 PUSH2 0x2694 JUMP JUMPDEST PUSH1 0x40 MLOAD DUP1 SWAP2 SUB SWAP1 LOG1 PUSH0 DUP1 PUSH0 SWAP1 POP JUMPDEST PUSH1 0x6 DUP1 SLOAD SWAP1 POP DUP2 LT ISZERO PUSH2 0x144D JUMPI PUSH1 0x6 DUP2 DUP2 SLOAD DUP2 LT PUSH2 0xF15 JUMPI PUSH2 0xF14 PUSH2 0x21AB JUMP JUMPDEST JUMPDEST SWAP1 PUSH0 MSTORE PUSH1 0x20 PUSH0 KECCAK256 ADD PUSH0 SWAP1 SLOAD SWAP1 PUSH2 0x100 EXP SWAP1 DIV PUSH20 0xFFFFFFFFFFFFFFFFFFFFFFFFFFFFFFFFFFFFFFFF AND SWAP2 POP PUSH0 PUSH1 0xA SLOAD SUB PUSH2 0x1040 JUMPI DUP7 DUP7 DUP3 DUP2 DUP2 LT PUSH2 0xF5B JUMPI PUSH2 0xF5A PUSH2 0x21AB JUMP JUMPDEST JUMPDEST SWAP1 POP PUSH1 0x20 MUL ADD CALLDATALOAD DUP4 PUSH20 0xFFFFFFFFFFFFFFFFFFFFFFFFFFFFFFFFFFFFFFFF AND PUSH4 0x70A08231 PUSH1 0x9 PUSH0 SWAP1 SLOAD SWAP1 PUSH2 0x100 EXP SWAP1 DIV PUSH20 0xFFFFFFFFFFFFFFFFFFFFFFFFFFFFFFFFFFFFFFFF AND PUSH1 0x40 MLOAD DUP3 PUSH4 0xFFFFFFFF AND PUSH1 0xE0 SHL DUP2 MSTORE PUSH1 0x4 ADD PUSH2 0xFBC SWAP2 SWAP1 PUSH2 0x2192 JUMP JUMPDEST PUSH1 0x20 PUSH1 0x40 MLOAD DUP1 DUP4 SUB DUP2 DUP7 GAS STATICCALL ISZERO DUP1 ISZERO PUSH2 0xFD7 JUMPI RETURNDATASIZE PUSH0 DUP1 RETURNDATACOPY RETURNDATASIZE PUSH0 REVERT JUMPDEST POP POP POP POP PUSH1 0x40 MLOAD RETURNDATASIZE PUSH1 0x1F NOT PUSH1 0x1F DUP3 ADD AND DUP3 ADD DUP1 PUSH1 0x40 MSTORE POP DUP2 ADD SWAP1 PUSH2 0xFFB SWAP2 SWAP1 PUSH2 0x26DF JUMP JUMPDEST GT PUSH2 0x103B JUMPI PUSH1 0x40 MLOAD PUSH32 0x8C379A000000000000000000000000000000000000000000000000000000000 DUP2 MSTORE PUSH1 0x4 ADD PUSH2 0x1032 SWAP1 PUSH2 0x2754 JUMP JUMPDEST PUSH1 0x40 MLOAD DUP1 SWAP2 SUB SWAP1 REVERT JUMPDEST PUSH2 0x1160 JUMP JUMPDEST PUSH1 0x9 PUSH0 SWAP1 SLOAD SWAP1 PUSH2 0x100 EXP SWAP1 DIV PUSH20 0xFFFFFFFFFFFFFFFFFFFFFFFFFFFFFFFFFFFFFFFF AND PUSH20 0xFFFFFFFFFFFFFFFFFFFFFFFFFFFFFFFFFFFFFFFF AND DUP5 PUSH20 0xFFFFFFFFFFFFFFFFFFFFFFFFFFFFFFFFFFFFFFFF AND PUSH4 0x6352211E DUP10 DUP10 DUP6 DUP2 DUP2 LT PUSH2 0x10A7 JUMPI PUSH2 0x10A6 PUSH2 0x21AB JUMP JUMPDEST JUMPDEST SWAP1 POP PUSH1 0x20 MUL ADD CALLDATALOAD PUSH1 0x40 MLOAD DUP3 PUSH4 0xFFFFFFFF AND PUSH1 0xE0 SHL DUP2 MSTORE PUSH1 0x4 ADD PUSH2 0x10CA SWAP2 SWAP1 PUSH2 0x1DDC JUMP JUMPDEST PUSH1 0x20 PUSH1 0x40 MLOAD DUP1 DUP4 SUB DUP2 DUP7 GAS STATICCALL ISZERO DUP1 ISZERO PUSH2 0x10E5 JUMPI RETURNDATASIZE PUSH0 DUP1 RETURNDATACOPY RETURNDATASIZE PUSH0 REVERT JUMPDEST POP POP POP POP PUSH1 0x40 MLOAD RETURNDATASIZE PUSH1 0x1F NOT PUSH1 0x1F DUP3 ADD AND DUP3 ADD DUP1 PUSH1 0x40 MSTORE POP DUP2 ADD SWAP1 PUSH2 0x1109 SWAP2 SWAP1 PUSH2 0x2786 JUMP JUMPDEST PUSH20 0xFFFFFFFFFFFFFFFFFFFFFFFFFFFFFFFFFFFFFFFF AND EQ PUSH2 0x115F JUMPI PUSH1 0x40 MLOAD PUSH32 0x8C379A000000000000000000000000000000000000000000000000000000000 DUP2 MSTORE PUSH1 0x4 ADD PUSH2 0x1156 SWAP1 PUSH2 0x27FB JUMP JUMPDEST PUSH1 0x40 MLOAD DUP1 SWAP2 SUB SWAP1 REVERT JUMPDEST JUMPDEST PUSH1 0x5 PUSH0 PUSH1 0x7 SLOAD DUP2 MSTORE PUSH1 0x20 ADD SWAP1 DUP2 MSTORE PUSH1 0x20 ADD PUSH0 KECCAK256 PUSH0 DUP4 PUSH20 0xFFFFFFFFFFFFFFFFFFFFFFFFFFFFFFFFFFFFFFFF AND PUSH20 0xFFFFFFFFFFFFFFFFFFFFFFFFFFFFFFFFFFFFFFFF AND DUP2 MSTORE PUSH1 0x20 ADD SWAP1 DUP2 MSTORE PUSH1 0x20 ADD PUSH0 KECCAK256 PUSH0 SWAP1 SLOAD SWAP1 PUSH2 0x100 EXP SWAP1 DIV PUSH1 0xFF AND PUSH2 0x1440 JUMPI PUSH1 0x1 PUSH1 0x5 PUSH0 PUSH1 0x7 SLOAD DUP2 MSTORE PUSH1 0x20 ADD SWAP1 DUP2 MSTORE PUSH1 0x20 ADD PUSH0 KECCAK256 PUSH0 DUP5 PUSH20 0xFFFFFFFFFFFFFFFFFFFFFFFFFFFFFFFFFFFFFFFF AND PUSH20 0xFFFFFFFFFFFFFFFFFFFFFFFFFFFFFFFFFFFFFFFF AND DUP2 MSTORE PUSH1 0x20 ADD SWAP1 DUP2 MSTORE PUSH1 0x20 ADD PUSH0 KECCAK256 PUSH0 PUSH2 0x100 EXP DUP2 SLOAD DUP2 PUSH1 0xFF MUL NOT AND SWAP1 DUP4 ISZERO ISZERO MUL OR SWAP1 SSTORE POP PUSH0 PUSH1 0xA SLOAD SUB PUSH2 0x1283 JUMPI PUSH32 0xCCD301C3C585E9D034F1404F101F4D1B3828A9EB5A4BC60B5C2935736DFFE4A9 DUP8 DUP8 DUP4 DUP2 DUP2 LT PUSH2 0x1262 JUMPI PUSH2 0x1261 PUSH2 0x21AB JUMP JUMPDEST JUMPDEST SWAP1 POP PUSH1 0x20 MUL ADD CALLDATALOAD PUSH1 0x40 MLOAD PUSH2 0x1276 SWAP2 SWAP1 PUSH2 0x2863 JUMP JUMPDEST PUSH1 0x40 MLOAD DUP1 SWAP2 SUB SWAP1 LOG1 PUSH2 0x12D4 JUMP JUMPDEST PUSH32 0xCCD301C3C585E9D034F1404F101F4D1B3828A9EB5A4BC60B5C2935736DFFE4A9 DUP8 DUP8 DUP4 DUP2 DUP2 LT PUSH2 0x12B7 JUMPI PUSH2 0x12B6 PUSH2 0x21AB JUMP JUMPDEST JUMPDEST SWAP1 POP PUSH1 0x20 MUL ADD CALLDATALOAD PUSH1 0x40 MLOAD PUSH2 0x12CB SWAP2 SWAP1 PUSH2 0x28D9 JUMP JUMPDEST PUSH1 0x40 MLOAD DUP1 SWAP2 SUB SWAP1 LOG1 JUMPDEST PUSH0 PUSH1 0xA SLOAD SUB PUSH2 0x139A JUMPI DUP3 PUSH20 0xFFFFFFFFFFFFFFFFFFFFFFFFFFFFFFFFFFFFFFFF AND PUSH4 0x23B872DD PUSH1 0x9 PUSH0 SWAP1 SLOAD SWAP1 PUSH2 0x100 EXP SWAP1 DIV PUSH20 0xFFFFFFFFFFFFFFFFFFFFFFFFFFFFFFFFFFFFFFFF AND DUP5 DUP11 DUP11 DUP7 DUP2 DUP2 LT PUSH2 0x132F JUMPI PUSH2 0x132E PUSH2 0x21AB JUMP JUMPDEST JUMPDEST SWAP1 POP PUSH1 0x20 MUL ADD CALLDATALOAD PUSH1 0x40 MLOAD DUP5 PUSH4 0xFFFFFFFF AND PUSH1 0xE0 SHL DUP2 MSTORE PUSH1 0x4 ADD PUSH2 0x1354 SWAP4 SWAP3 SWAP2 SWAP1 PUSH2 0x2905 JUMP JUMPDEST PUSH1 0x20 PUSH1 0x40 MLOAD DUP1 DUP4 SUB DUP2 PUSH0 DUP8 GAS CALL ISZERO DUP1 ISZERO PUSH2 0x1370 JUMPI RETURNDATASIZE PUSH0 DUP1 RETURNDATACOPY RETURNDATASIZE PUSH0 REVERT JUMPDEST POP POP POP POP PUSH1 0x40 MLOAD RETURNDATASIZE PUSH1 0x1F NOT PUSH1 0x1F DUP3 ADD AND DUP3 ADD DUP1 PUSH1 0x40 MSTORE POP DUP2 ADD SWAP1 PUSH2 0x1394 SWAP2 SWAP1 PUSH2 0x2964 JUMP JUMPDEST POP PUSH2 0x143F JUMP JUMPDEST DUP4 PUSH20 0xFFFFFFFFFFFFFFFFFFFFFFFFFFFFFFFFFFFFFFFF AND PUSH4 0x23B872DD PUSH1 0x9 PUSH0 SWAP1 SLOAD SWAP1 PUSH2 0x100 EXP SWAP1 DIV PUSH20 0xFFFFFFFFFFFFFFFFFFFFFFFFFFFFFFFFFFFFFFFF AND DUP5 DUP11 DUP11 DUP7 DUP2 DUP2 LT PUSH2 0x13EC JUMPI PUSH2 0x13EB PUSH2 0x21AB JUMP JUMPDEST JUMPDEST SWAP1 POP PUSH1 0x20 MUL ADD CALLDATALOAD PUSH1 0x40 MLOAD DUP5 PUSH4 0xFFFFFFFF AND PUSH1 0xE0 SHL DUP2 MSTORE PUSH1 0x4 ADD PUSH2 0x1411 SWAP4 SWAP3 SWAP2 SWAP1 PUSH2 0x2905 JUMP JUMPDEST PUSH0 PUSH1 0x40 MLOAD DUP1 DUP4 SUB DUP2 PUSH0 DUP8 DUP1 EXTCODESIZE ISZERO DUP1 ISZERO PUSH2 0x1428 JUMPI PUSH0 DUP1 REVERT JUMPDEST POP GAS CALL ISZERO DUP1 ISZERO PUSH2 0x143A JUMPI RETURNDATASIZE PUSH0 DUP1 RETURNDATACOPY RETURNDATASIZE PUSH0 REVERT JUMPDEST POP POP POP POP JUMPDEST JUMPDEST DUP1 DUP1 PUSH1 0x1 ADD SWAP2 POP POP PUSH2 0xEF4 JUMP JUMPDEST POP PUSH1 0x1 SWAP4 POP POP POP POP SWAP3 SWAP2 POP POP JUMP JUMPDEST PUSH0 PUSH1 0x7 PUSH0 DUP2 SLOAD DUP1 SWAP3 SWAP2 SWAP1 PUSH2 0x146E SWAP1 PUSH2 0x29BC JUMP JUMPDEST SWAP2 SWAP1 POP SSTORE POP PUSH1 0x1 SWAP1 POP SWAP1 JUMP JUMPDEST PUSH0 PUSH20 0xFFFFFFFFFFFFFFFFFFFFFFFFFFFFFFFFFFFFFFFF AND DUP5 PUSH20 0xFFFFFFFFFFFFFFFFFFFFFFFFFFFFFFFFFFFFFFFF AND SUB PUSH2 0x14EA JUMPI PUSH0 PUSH1 0x40 MLOAD PUSH32 0xE602DF0500000000000000000000000000000000000000000000000000000000 DUP2 MSTORE PUSH1 0x4 ADD PUSH2 0x14E1 SWAP2 SWAP1 PUSH2 0x2192 JUMP JUMPDEST PUSH1 0x40 MLOAD DUP1 SWAP2 SUB SWAP1 REVERT JUMPDEST PUSH0 PUSH20 0xFFFFFFFFFFFFFFFFFFFFFFFFFFFFFFFFFFFFFFFF AND DUP4 PUSH20 0xFFFFFFFFFFFFFFFFFFFFFFFFFFFFFFFFFFFFFFFF AND SUB PUSH2 0x155A JUMPI PUSH0 PUSH1 0x40 MLOAD PUSH32 0x94280D6200000000000000000000000000000000000000000000000000000000 DUP2 MSTORE PUSH1 0x4 ADD PUSH2 0x1551 SWAP2 SWAP1 PUSH2 0x2192 JUMP JUMPDEST PUSH1 0x40 MLOAD DUP1 SWAP2 SUB SWAP1 REVERT JUMPDEST DUP2 PUSH1 0x1 PUSH0 DUP7 PUSH20 0xFFFFFFFFFFFFFFFFFFFFFFFFFFFFFFFFFFFFFFFF AND PUSH20 0xFFFFFFFFFFFFFFFFFFFFFFFFFFFFFFFFFFFFFFFF AND DUP2 MSTORE PUSH1 0x20 ADD SWAP1 DUP2 MSTORE PUSH1 0x20 ADD PUSH0 KECCAK256 PUSH0 DUP6 PUSH20 0xFFFFFFFFFFFFFFFFFFFFFFFFFFFFFFFFFFFFFFFF AND PUSH20 0xFFFFFFFFFFFFFFFFFFFFFFFFFFFFFFFFFFFFFFFF AND DUP2 MSTORE PUSH1 0x20 ADD SWAP1 DUP2 MSTORE PUSH1 0x20 ADD PUSH0 KECCAK256 DUP2 SWAP1 SSTORE POP DUP1 ISZERO PUSH2 0x1643 JUMPI DUP3 PUSH20 0xFFFFFFFFFFFFFFFFFFFFFFFFFFFFFFFFFFFFFFFF AND DUP5 PUSH20 0xFFFFFFFFFFFFFFFFFFFFFFFFFFFFFFFFFFFFFFFF AND PUSH32 0x8C5BE1E5EBEC7D5BD14F71427D1E84F3DD0314C0F7B2291E5B200AC8C7C3B925 DUP5 PUSH1 0x40 MLOAD PUSH2 0x163A SWAP2 SWAP1 PUSH2 0x1DDC JUMP JUMPDEST PUSH1 0x40 MLOAD DUP1 SWAP2 SUB SWAP1 LOG3 JUMPDEST POP POP POP POP JUMP JUMPDEST PUSH0 PUSH20 0xFFFFFFFFFFFFFFFFFFFFFFFFFFFFFFFFFFFFFFFF AND DUP4 PUSH20 0xFFFFFFFFFFFFFFFFFFFFFFFFFFFFFFFFFFFFFFFF AND SUB PUSH2 0x1699 JUMPI DUP1 PUSH1 0x2 PUSH0 DUP3 DUP3 SLOAD PUSH2 0x168D SWAP2 SWAP1 PUSH2 0x2A03 JUMP JUMPDEST SWAP3 POP POP DUP2 SWAP1 SSTORE POP PUSH2 0x1767 JUMP JUMPDEST PUSH0 DUP1 PUSH0 DUP6 PUSH20 0xFFFFFFFFFFFFFFFFFFFFFFFFFFFFFFFFFFFFFFFF AND PUSH20 0xFFFFFFFFFFFFFFFFFFFFFFFFFFFFFFFFFFFFFFFF AND DUP2 MSTORE PUSH1 0x20 ADD SWAP1 DUP2 MSTORE PUSH1 0x20 ADD PUSH0 KECCAK256 SLOAD SWAP1 POP DUP2 DUP2 LT ISZERO PUSH2 0x1722 JUMPI DUP4 DUP2 DUP4 PUSH1 0x40 MLOAD PUSH32 0xE450D38C00000000000000000000000000000000000000000000000000000000 DUP2 MSTORE PUSH1 0x4 ADD PUSH2 0x1719 SWAP4 SWAP3 SWAP2 SWAP1 PUSH2 0x215D JUMP JUMPDEST PUSH1 0x40 MLOAD DUP1 SWAP2 SUB SWAP1 REVERT JUMPDEST DUP2 DUP2 SUB PUSH0 DUP1 DUP7 PUSH20 0xFFFFFFFFFFFFFFFFFFFFFFFFFFFFFFFFFFFFFFFF AND PUSH20 0xFFFFFFFFFFFFFFFFFFFFFFFFFFFFFFFFFFFFFFFF AND DUP2 MSTORE PUSH1 0x20 ADD SWAP1 DUP2 MSTORE PUSH1 0x20 ADD PUSH0 KECCAK256 DUP2 SWAP1 SSTORE POP POP JUMPDEST PUSH0 PUSH20 0xFFFFFFFFFFFFFFFFFFFFFFFFFFFFFFFFFFFFFFFF AND DUP3 PUSH20 0xFFFFFFFFFFFFFFFFFFFFFFFFFFFFFFFFFFFFFFFF AND SUB PUSH2 0x17AE JUMPI DUP1 PUSH1 0x2 PUSH0 DUP3 DUP3 SLOAD SUB SWAP3 POP POP DUP2 SWAP1 SSTORE POP PUSH2 0x17F8 JUMP JUMPDEST DUP1 PUSH0 DUP1 DUP5 PUSH20 0xFFFFFFFFFFFFFFFFFFFFFFFFFFFFFFFFFFFFFFFF AND PUSH20 0xFFFFFFFFFFFFFFFFFFFFFFFFFFFFFFFFFFFFFFFF AND DUP2 MSTORE PUSH1 0x20 ADD SWAP1 DUP2 MSTORE PUSH1 0x20 ADD PUSH0 KECCAK256 PUSH0 DUP3 DUP3 SLOAD ADD SWAP3 POP POP DUP2 SWAP1 SSTORE POP JUMPDEST DUP2 PUSH20 0xFFFFFFFFFFFFFFFFFFFFFFFFFFFFFFFFFFFFFFFF AND DUP4 PUSH20 0xFFFFFFFFFFFFFFFFFFFFFFFFFFFFFFFFFFFFFFFF AND PUSH32 0xDDF252AD1BE2C89B69C2B068FC378DAA952BA7F163C4A11628F55A4DF523B3EF DUP4 PUSH1 0x40 MLOAD PUSH2 0x1855 SWAP2 SWAP1 PUSH2 0x1DDC JUMP JUMPDEST PUSH1 0x40 MLOAD DUP1 SWAP2 SUB SWAP1 LOG3 POP POP POP JUMP JUMPDEST PUSH0 DUP1 PUSH2 0x186D DUP5 PUSH2 0x194E JUMP JUMPDEST GT ISZERO PUSH2 0x187C JUMPI PUSH1 0x1 SWAP1 POP PUSH2 0x1948 JUMP JUMPDEST PUSH0 DUP4 SWAP1 POP PUSH4 0x150B7A02 PUSH1 0xE0 SHL PUSH28 0xFFFFFFFFFFFFFFFFFFFFFFFFFFFFFFFFFFFFFFFFFFFFFFFFFFFFFFFF NOT AND DUP2 PUSH20 0xFFFFFFFFFFFFFFFFFFFFFFFFFFFFFFFFFFFFFFFF AND PUSH4 0x150B7A02 ADDRESS CALLER DUP8 PUSH1 0x40 MLOAD DUP5 PUSH4 0xFFFFFFFF AND PUSH1 0xE0 SHL DUP2 MSTORE PUSH1 0x4 ADD PUSH2 0x18E4 SWAP4 SWAP3 SWAP2 SWAP1 PUSH2 0x2A59 JUMP JUMPDEST PUSH1 0x20 PUSH1 0x40 MLOAD DUP1 DUP4 SUB DUP2 PUSH0 DUP8 GAS CALL ISZERO DUP1 ISZERO PUSH2 0x1900 JUMPI RETURNDATASIZE PUSH0 DUP1 RETURNDATACOPY RETURNDATASIZE PUSH0 REVERT JUMPDEST POP POP POP POP PUSH1 0x40 MLOAD RETURNDATASIZE PUSH1 0x1F NOT PUSH1 0x1F DUP3 ADD AND DUP3 ADD DUP1 PUSH1 0x40 MSTORE POP DUP2 ADD SWAP1 PUSH2 0x1924 SWAP2 SWAP1 PUSH2 0x2ACB JUMP JUMPDEST PUSH28 0xFFFFFFFFFFFFFFFFFFFFFFFFFFFFFFFFFFFFFFFFFFFFFFFFFFFFFFFF NOT AND EQ SWAP2 POP POP JUMPDEST SWAP3 SWAP2 POP POP JUMP JUMPDEST PUSH0 DUP2 EXTCODESIZE SWAP1 POP SWAP2 SWAP1 POP JUMP JUMPDEST PUSH0 DUP2 MLOAD SWAP1 POP SWAP2 SWAP1 POP JUMP JUMPDEST PUSH0 DUP3 DUP3 MSTORE PUSH1 0x20 DUP3 ADD SWAP1 POP SWAP3 SWAP2 POP POP JUMP JUMPDEST DUP3 DUP2 DUP4 MCOPY PUSH0 DUP4 DUP4 ADD MSTORE POP POP POP JUMP JUMPDEST PUSH0 PUSH1 0x1F NOT PUSH1 0x1F DUP4 ADD AND SWAP1 POP SWAP2 SWAP1 POP JUMP JUMPDEST PUSH0 PUSH2 0x199A DUP3 PUSH2 0x1958 JUMP JUMPDEST PUSH2 0x19A4 DUP2 DUP6 PUSH2 0x1962 JUMP JUMPDEST SWAP4 POP PUSH2 0x19B4 DUP2 DUP6 PUSH1 0x20 DUP7 ADD PUSH2 0x1972 JUMP JUMPDEST PUSH2 0x19BD DUP2 PUSH2 0x1980 JUMP JUMPDEST DUP5 ADD SWAP2 POP POP SWAP3 SWAP2 POP POP JUMP JUMPDEST PUSH0 PUSH1 0x20 DUP3 ADD SWAP1 POP DUP2 DUP2 SUB PUSH0 DUP4 ADD MSTORE PUSH2 0x19E0 DUP2 DUP5 PUSH2 0x1990 JUMP JUMPDEST SWAP1 POP SWAP3 SWAP2 POP POP JUMP JUMPDEST PUSH0 PUSH1 0x40 MLOAD SWAP1 POP SWAP1 JUMP JUMPDEST PUSH0 DUP1 REVERT JUMPDEST PUSH0 DUP1 REVERT JUMPDEST PUSH0 PUSH20 0xFFFFFFFFFFFFFFFFFFFFFFFFFFFFFFFFFFFFFFFF DUP3 AND SWAP1 POP SWAP2 SWAP1 POP JUMP JUMPDEST PUSH0 PUSH2 0x1A22 DUP3 PUSH2 0x19F9 JUMP JUMPDEST SWAP1 POP SWAP2 SWAP1 POP JUMP JUMPDEST PUSH2 0x1A32 DUP2 PUSH2 0x1A18 JUMP JUMPDEST DUP2 EQ PUSH2 0x1A3C JUMPI PUSH0 DUP1 REVERT JUMPDEST POP JUMP JUMPDEST PUSH0 DUP2 CALLDATALOAD SWAP1 POP PUSH2 0x1A4D DUP2 PUSH2 0x1A29 JUMP JUMPDEST SWAP3 SWAP2 POP POP JUMP JUMPDEST PUSH0 DUP2 SWAP1 POP SWAP2 SWAP1 POP JUMP JUMPDEST PUSH2 0x1A65 DUP2 PUSH2 0x1A53 JUMP JUMPDEST DUP2 EQ PUSH2 0x1A6F JUMPI PUSH0 DUP1 REVERT JUMPDEST POP JUMP JUMPDEST PUSH0 DUP2 CALLDATALOAD SWAP1 POP PUSH2 0x1A80 DUP2 PUSH2 0x1A5C JUMP JUMPDEST SWAP3 SWAP2 POP POP JUMP JUMPDEST PUSH0 DUP1 PUSH1 0x40 DUP4 DUP6 SUB SLT ISZERO PUSH2 0x1A9C JUMPI PUSH2 0x1A9B PUSH2 0x19F1 JUMP JUMPDEST JUMPDEST PUSH0 PUSH2 0x1AA9 DUP6 DUP3 DUP7 ADD PUSH2 0x1A3F JUMP JUMPDEST SWAP3 POP POP PUSH1 0x20 PUSH2 0x1ABA DUP6 DUP3 DUP7 ADD PUSH2 0x1A72 JUMP JUMPDEST SWAP2 POP POP SWAP3 POP SWAP3 SWAP1 POP JUMP JUMPDEST PUSH0 DUP2 ISZERO ISZERO SWAP1 POP SWAP2 SWAP1 POP JUMP JUMPDEST PUSH2 0x1AD8 DUP2 PUSH2 0x1AC4 JUMP JUMPDEST DUP3 MSTORE POP POP JUMP JUMPDEST PUSH0 PUSH1 0x20 DUP3 ADD SWAP1 POP PUSH2 0x1AF1 PUSH0 DUP4 ADD DUP5 PUSH2 0x1ACF JUMP JUMPDEST SWAP3 SWAP2 POP POP JUMP JUMPDEST PUSH0 DUP2 MLOAD SWAP1 POP SWAP2 SWAP1 POP JUMP JUMPDEST PUSH0 DUP3 DUP3 MSTORE PUSH1 0x20 DUP3 ADD SWAP1 POP SWAP3 SWAP2 POP POP JUMP JUMPDEST PUSH0 DUP2 SWAP1 POP PUSH1 0x20 DUP3 ADD SWAP1 POP SWAP2 SWAP1 POP JUMP JUMPDEST PUSH2 0x1B29 DUP2 PUSH2 0x1A18 JUMP JUMPDEST DUP3 MSTORE POP POP JUMP JUMPDEST PUSH0 PUSH2 0x1B3A DUP4 DUP4 PUSH2 0x1B20 JUMP JUMPDEST PUSH1 0x20 DUP4 ADD SWAP1 POP SWAP3 SWAP2 POP POP JUMP JUMPDEST PUSH0 PUSH1 0x20 DUP3 ADD SWAP1 POP SWAP2 SWAP1 POP JUMP JUMPDEST PUSH0 PUSH2 0x1B5C DUP3 PUSH2 0x1AF7 JUMP JUMPDEST PUSH2 0x1B66 DUP2 DUP6 PUSH2 0x1B01 JUMP JUMPDEST SWAP4 POP PUSH2 0x1B71 DUP4 PUSH2 0x1B11 JUMP JUMPDEST DUP1 PUSH0 JUMPDEST DUP4 DUP2 LT ISZERO PUSH2 0x1BA1 JUMPI DUP2 MLOAD PUSH2 0x1B88 DUP9 DUP3 PUSH2 0x1B2F JUMP JUMPDEST SWAP8 POP PUSH2 0x1B93 DUP4 PUSH2 0x1B46 JUMP JUMPDEST SWAP3 POP POP PUSH1 0x1 DUP2 ADD SWAP1 POP PUSH2 0x1B74 JUMP JUMPDEST POP DUP6 SWAP4 POP POP POP POP SWAP3 SWAP2 POP POP JUMP JUMPDEST PUSH0 PUSH1 0x20 DUP3 ADD SWAP1 POP DUP2 DUP2 SUB PUSH0 DUP4 ADD MSTORE PUSH2 0x1BC6 DUP2 DUP5 PUSH2 0x1B52 JUMP JUMPDEST SWAP1 POP SWAP3 SWAP2 POP POP JUMP JUMPDEST PUSH0 DUP1 REVERT JUMPDEST PUSH0 DUP1 REVERT JUMPDEST PUSH32 0x4E487B7100000000000000000000000000000000000000000000000000000000 PUSH0 MSTORE PUSH1 0x41 PUSH1 0x4 MSTORE PUSH1 0x24 PUSH0 REVERT JUMPDEST PUSH2 0x1C0C DUP3 PUSH2 0x1980 JUMP JUMPDEST DUP2 ADD DUP2 DUP2 LT PUSH8 0xFFFFFFFFFFFFFFFF DUP3 GT OR ISZERO PUSH2 0x1C2B JUMPI PUSH2 0x1C2A PUSH2 0x1BD6 JUMP JUMPDEST JUMPDEST DUP1 PUSH1 0x40 MSTORE POP POP POP JUMP JUMPDEST PUSH0 PUSH2 0x1C3D PUSH2 0x19E8 JUMP JUMPDEST SWAP1 POP PUSH2 0x1C49 DUP3 DUP3 PUSH2 0x1C03 JUMP JUMPDEST SWAP2 SWAP1 POP JUMP JUMPDEST PUSH0 PUSH8 0xFFFFFFFFFFFFFFFF DUP3 GT ISZERO PUSH2 0x1C68 JUMPI PUSH2 0x1C67 PUSH2 0x1BD6 JUMP JUMPDEST JUMPDEST PUSH2 0x1C71 DUP3 PUSH2 0x1980 JUMP JUMPDEST SWAP1 POP PUSH1 0x20 DUP2 ADD SWAP1 POP SWAP2 SWAP1 POP JUMP JUMPDEST DUP3 DUP2 DUP4 CALLDATACOPY PUSH0 DUP4 DUP4 ADD MSTORE POP POP POP JUMP JUMPDEST PUSH0 PUSH2 0x1C9E PUSH2 0x1C99 DUP5 PUSH2 0x1C4E JUMP JUMPDEST PUSH2 0x1C34 JUMP JUMPDEST SWAP1 POP DUP3 DUP2 MSTORE PUSH1 0x20 DUP2 ADD DUP5 DUP5 DUP5 ADD GT ISZERO PUSH2 0x1CBA JUMPI PUSH2 0x1CB9 PUSH2 0x1BD2 JUMP JUMPDEST JUMPDEST PUSH2 0x1CC5 DUP5 DUP3 DUP6 PUSH2 0x1C7E JUMP JUMPDEST POP SWAP4 SWAP3 POP POP POP JUMP JUMPDEST PUSH0 DUP3 PUSH1 0x1F DUP4 ADD SLT PUSH2 0x1CE1 JUMPI PUSH2 0x1CE0 PUSH2 0x1BCE JUMP JUMPDEST JUMPDEST DUP2 CALLDATALOAD PUSH2 0x1CF1 DUP5 DUP3 PUSH1 0x20 DUP7 ADD PUSH2 0x1C8C JUMP JUMPDEST SWAP2 POP POP SWAP3 SWAP2 POP POP JUMP JUMPDEST PUSH0 DUP1 PUSH0 DUP1 PUSH1 0x80 DUP6 DUP8 SUB SLT ISZERO PUSH2 0x1D12 JUMPI PUSH2 0x1D11 PUSH2 0x19F1 JUMP JUMPDEST JUMPDEST PUSH0 PUSH2 0x1D1F DUP8 DUP3 DUP9 ADD PUSH2 0x1A3F JUMP JUMPDEST SWAP5 POP POP PUSH1 0x20 PUSH2 0x1D30 DUP8 DUP3 DUP9 ADD PUSH2 0x1A3F JUMP JUMPDEST SWAP4 POP POP PUSH1 0x40 PUSH2 0x1D41 DUP8 DUP3 DUP9 ADD PUSH2 0x1A72 JUMP JUMPDEST SWAP3 POP POP PUSH1 0x60 DUP6 ADD CALLDATALOAD PUSH8 0xFFFFFFFFFFFFFFFF DUP2 GT ISZERO PUSH2 0x1D62 JUMPI PUSH2 0x1D61 PUSH2 0x19F5 JUMP JUMPDEST JUMPDEST PUSH2 0x1D6E DUP8 DUP3 DUP9 ADD PUSH2 0x1CCD JUMP JUMPDEST SWAP2 POP POP SWAP3 SWAP6 SWAP2 SWAP5 POP SWAP3 POP JUMP JUMPDEST PUSH0 PUSH32 0xFFFFFFFF00000000000000000000000000000000000000000000000000000000 DUP3 AND SWAP1 POP SWAP2 SWAP1 POP JUMP JUMPDEST PUSH2 0x1DAE DUP2 PUSH2 0x1D7A JUMP JUMPDEST DUP3 MSTORE POP POP JUMP JUMPDEST PUSH0 PUSH1 0x20 DUP3 ADD SWAP1 POP PUSH2 0x1DC7 PUSH0 DUP4 ADD DUP5 PUSH2 0x1DA5 JUMP JUMPDEST SWAP3 SWAP2 POP POP JUMP JUMPDEST PUSH2 0x1DD6 DUP2 PUSH2 0x1A53 JUMP JUMPDEST DUP3 MSTORE POP POP JUMP JUMPDEST PUSH0 PUSH1 0x20 DUP3 ADD SWAP1 POP PUSH2 0x1DEF PUSH0 DUP4 ADD DUP5 PUSH2 0x1DCD JUMP JUMPDEST SWAP3 SWAP2 POP POP JUMP JUMPDEST PUSH0 DUP1 PUSH0 PUSH1 0x60 DUP5 DUP7 SUB SLT ISZERO PUSH2 0x1E0C JUMPI PUSH2 0x1E0B PUSH2 0x19F1 JUMP JUMPDEST JUMPDEST PUSH0 PUSH2 0x1E19 DUP7 DUP3 DUP8 ADD PUSH2 0x1A3F JUMP JUMPDEST SWAP4 POP POP PUSH1 0x20 PUSH2 0x1E2A DUP7 DUP3 DUP8 ADD PUSH2 0x1A3F JUMP JUMPDEST SWAP3 POP POP PUSH1 0x40 PUSH2 0x1E3B DUP7 DUP3 DUP8 ADD PUSH2 0x1A72 JUMP JUMPDEST SWAP2 POP POP SWAP3 POP SWAP3 POP SWAP3 JUMP JUMPDEST PUSH0 PUSH1 0xFF DUP3 AND SWAP1 POP SWAP2 SWAP1 POP JUMP JUMPDEST PUSH2 0x1E5A DUP2 PUSH2 0x1E45 JUMP JUMPDEST DUP3 MSTORE POP POP JUMP JUMPDEST PUSH0 PUSH1 0x20 DUP3 ADD SWAP1 POP PUSH2 0x1E73 PUSH0 DUP4 ADD DUP5 PUSH2 0x1E51 JUMP JUMPDEST SWAP3 SWAP2 POP POP JUMP JUMPDEST PUSH0 DUP1 REVERT JUMPDEST PUSH0 DUP1 REVERT JUMPDEST PUSH0 DUP1 DUP4 PUSH1 0x1F DUP5 ADD SLT PUSH2 0x1E96 JUMPI PUSH2 0x1E95 PUSH2 0x1BCE JUMP JUMPDEST JUMPDEST DUP3 CALLDATALOAD SWAP1 POP PUSH8 0xFFFFFFFFFFFFFFFF DUP2 GT ISZERO PUSH2 0x1EB3 JUMPI PUSH2 0x1EB2 PUSH2 0x1E79 JUMP JUMPDEST JUMPDEST PUSH1 0x20 DUP4 ADD SWAP2 POP DUP4 PUSH1 0x20 DUP3 MUL DUP4 ADD GT ISZERO PUSH2 0x1ECF JUMPI PUSH2 0x1ECE PUSH2 0x1E7D JUMP JUMPDEST JUMPDEST SWAP3 POP SWAP3 SWAP1 POP JUMP JUMPDEST PUSH0 DUP1 PUSH1 0x20 DUP4 DUP6 SUB SLT ISZERO PUSH2 0x1EEC JUMPI PUSH2 0x1EEB PUSH2 0x19F1 JUMP JUMPDEST JUMPDEST PUSH0 DUP4 ADD CALLDATALOAD PUSH8 0xFFFFFFFFFFFFFFFF DUP2 GT ISZERO PUSH2 0x1F09 JUMPI PUSH2 0x1F08 PUSH2 0x19F5 JUMP JUMPDEST JUMPDEST PUSH2 0x1F15 DUP6 DUP3 DUP7 ADD PUSH2 0x1E81 JUMP JUMPDEST SWAP3 POP SWAP3 POP POP SWAP3 POP SWAP3 SWAP1 POP JUMP JUMPDEST PUSH0 PUSH1 0x20 DUP3 DUP5 SUB SLT ISZERO PUSH2 0x1F36 JUMPI PUSH2 0x1F35 PUSH2 0x19F1 JUMP JUMPDEST JUMPDEST PUSH0 PUSH2 0x1F43 DUP5 DUP3 DUP6 ADD PUSH2 0x1A3F JUMP JUMPDEST SWAP2 POP POP SWAP3 SWAP2 POP POP JUMP JUMPDEST PUSH0 PUSH1 0x20 DUP3 DUP5 SUB SLT ISZERO PUSH2 0x1F61 JUMPI PUSH2 0x1F60 PUSH2 0x19F1 JUMP JUMPDEST JUMPDEST PUSH0 PUSH2 0x1F6E DUP5 DUP3 DUP6 ADD PUSH2 0x1A72 JUMP JUMPDEST SWAP2 POP POP SWAP3 SWAP2 POP POP JUMP JUMPDEST PUSH0 DUP1 DUP4 PUSH1 0x1F DUP5 ADD SLT PUSH2 0x1F8C JUMPI PUSH2 0x1F8B PUSH2 0x1BCE JUMP JUMPDEST JUMPDEST DUP3 CALLDATALOAD SWAP1 POP PUSH8 0xFFFFFFFFFFFFFFFF DUP2 GT ISZERO PUSH2 0x1FA9 JUMPI PUSH2 0x1FA8 PUSH2 0x1E79 JUMP JUMPDEST JUMPDEST PUSH1 0x20 DUP4 ADD SWAP2 POP DUP4 PUSH1 0x20 DUP3 MUL DUP4 ADD GT ISZERO PUSH2 0x1FC5 JUMPI PUSH2 0x1FC4 PUSH2 0x1E7D JUMP JUMPDEST JUMPDEST SWAP3 POP SWAP3 SWAP1 POP JUMP JUMPDEST PUSH0 DUP1 PUSH1 0x20 DUP4 DUP6 SUB SLT ISZERO PUSH2 0x1FE2 JUMPI PUSH2 0x1FE1 PUSH2 0x19F1 JUMP JUMPDEST JUMPDEST PUSH0 DUP4 ADD CALLDATALOAD PUSH8 0xFFFFFFFFFFFFFFFF DUP2 GT ISZERO PUSH2 0x1FFF JUMPI PUSH2 0x1FFE PUSH2 0x19F5 JUMP JUMPDEST JUMPDEST PUSH2 0x200B DUP6 DUP3 DUP7 ADD PUSH2 0x1F77 JUMP JUMPDEST SWAP3 POP SWAP3 POP POP SWAP3 POP SWAP3 SWAP1 POP JUMP JUMPDEST PUSH0 DUP1 PUSH1 0x40 DUP4 DUP6 SUB SLT ISZERO PUSH2 0x202D JUMPI PUSH2 0x202C PUSH2 0x19F1 JUMP JUMPDEST JUMPDEST PUSH0 PUSH2 0x203A DUP6 DUP3 DUP7 ADD PUSH2 0x1A3F JUMP JUMPDEST SWAP3 POP POP PUSH1 0x20 PUSH2 0x204B DUP6 DUP3 DUP7 ADD PUSH2 0x1A3F JUMP JUMPDEST SWAP2 POP POP SWAP3 POP SWAP3 SWAP1 POP JUMP JUMPDEST PUSH32 0x4E487B7100000000000000000000000000000000000000000000000000000000 PUSH0 MSTORE PUSH1 0x22 PUSH1 0x4 MSTORE PUSH1 0x24 PUSH0 REVERT JUMPDEST PUSH0 PUSH1 0x2 DUP3 DIV SWAP1 POP PUSH1 0x1 DUP3 AND DUP1 PUSH2 0x2099 JUMPI PUSH1 0x7F DUP3 AND SWAP2 POP JUMPDEST PUSH1 0x20 DUP3 LT DUP2 SUB PUSH2 0x20AC JUMPI PUSH2 0x20AB PUSH2 0x2055 JUMP JUMPDEST JUMPDEST POP SWAP2 SWAP1 POP JUMP JUMPDEST PUSH2 0x20BB DUP2 PUSH2 0x1A18 JUMP JUMPDEST DUP3 MSTORE POP POP JUMP JUMPDEST PUSH0 DUP2 MLOAD SWAP1 POP SWAP2 SWAP1 POP JUMP JUMPDEST PUSH0 DUP3 DUP3 MSTORE PUSH1 0x20 DUP3 ADD SWAP1 POP SWAP3 SWAP2 POP POP JUMP JUMPDEST PUSH0 PUSH2 0x20E5 DUP3 PUSH2 0x20C1 JUMP JUMPDEST PUSH2 0x20EF DUP2 DUP6 PUSH2 0x20CB JUMP JUMPDEST SWAP4 POP PUSH2 0x20FF DUP2 DUP6 PUSH1 0x20 DUP7 ADD PUSH2 0x1972 JUMP JUMPDEST PUSH2 0x2108 DUP2 PUSH2 0x1980 JUMP JUMPDEST DUP5 ADD SWAP2 POP POP SWAP3 SWAP2 POP POP JUMP JUMPDEST PUSH0 PUSH1 0x80 DUP3 ADD SWAP1 POP PUSH2 0x2126 PUSH0 DUP4 ADD DUP8 PUSH2 0x20B2 JUMP JUMPDEST PUSH2 0x2133 PUSH1 0x20 DUP4 ADD DUP7 PUSH2 0x20B2 JUMP JUMPDEST PUSH2 0x2140 PUSH1 0x40 DUP4 ADD DUP6 PUSH2 0x1DCD JUMP JUMPDEST DUP2 DUP2 SUB PUSH1 0x60 DUP4 ADD MSTORE PUSH2 0x2152 DUP2 DUP5 PUSH2 0x20DB JUMP JUMPDEST SWAP1 POP SWAP6 SWAP5 POP POP POP POP POP JUMP JUMPDEST PUSH0 PUSH1 0x60 DUP3 ADD SWAP1 POP PUSH2 0x2170 PUSH0 DUP4 ADD DUP7 PUSH2 0x20B2 JUMP JUMPDEST PUSH2 0x217D PUSH1 0x20 DUP4 ADD DUP6 PUSH2 0x1DCD JUMP JUMPDEST PUSH2 0x218A PUSH1 0x40 DUP4 ADD DUP5 PUSH2 0x1DCD JUMP JUMPDEST SWAP5 SWAP4 POP POP POP POP JUMP JUMPDEST PUSH0 PUSH1 0x20 DUP3 ADD SWAP1 POP PUSH2 0x21A5 PUSH0 DUP4 ADD DUP5 PUSH2 0x20B2 JUMP JUMPDEST SWAP3 SWAP2 POP POP JUMP JUMPDEST PUSH32 0x4E487B7100000000000000000000000000000000000000000000000000000000 PUSH0 MSTORE PUSH1 0x32 PUSH1 0x4 MSTORE PUSH1 0x24 PUSH0 REVERT JUMPDEST PUSH32 0x5A65726F20416464726573732070726573656E74000000000000000000000000 PUSH0 DUP3 ADD MSTORE POP JUMP JUMPDEST PUSH0 PUSH2 0x220C PUSH1 0x14 DUP4 PUSH2 0x1962 JUMP JUMPDEST SWAP2 POP PUSH2 0x2217 DUP3 PUSH2 0x21D8 JUMP JUMPDEST PUSH1 0x20 DUP3 ADD SWAP1 POP SWAP2 SWAP1 POP JUMP JUMPDEST PUSH0 PUSH1 0x20 DUP3 ADD SWAP1 POP DUP2 DUP2 SUB PUSH0 DUP4 ADD MSTORE PUSH2 0x2239 DUP2 PUSH2 0x2200 JUMP JUMPDEST SWAP1 POP SWAP2 SWAP1 POP JUMP JUMPDEST PUSH32 0x4661756C7479206164647265737320666F756E64000000000000000000000000 PUSH0 DUP3 ADD MSTORE POP JUMP JUMPDEST PUSH0 PUSH2 0x2274 PUSH1 0x14 DUP4 PUSH2 0x1962 JUMP JUMPDEST SWAP2 POP PUSH2 0x227F DUP3 PUSH2 0x2240 JUMP JUMPDEST PUSH1 0x20 DUP3 ADD SWAP1 POP SWAP2 SWAP1 POP JUMP JUMPDEST PUSH0 PUSH1 0x20 DUP3 ADD SWAP1 POP DUP2 DUP2 SUB PUSH0 DUP4 ADD MSTORE PUSH2 0x22A1 DUP2 PUSH2 0x2268 JUMP JUMPDEST SWAP1 POP SWAP2 SWAP1 POP JUMP JUMPDEST PUSH32 0x4164647265737320616C6C726561647920457869737473000000000000000000 PUSH0 DUP3 ADD MSTORE POP JUMP JUMPDEST PUSH0 PUSH2 0x22DC PUSH1 0x17 DUP4 PUSH2 0x1962 JUMP JUMPDEST SWAP2 POP PUSH2 0x22E7 DUP3 PUSH2 0x22A8 JUMP JUMPDEST PUSH1 0x20 DUP3 ADD SWAP1 POP SWAP2 SWAP1 POP JUMP JUMPDEST PUSH0 PUSH1 0x20 DUP3 ADD SWAP1 POP DUP2 DUP2 SUB PUSH0 DUP4 ADD MSTORE PUSH2 0x2309 DUP2 PUSH2 0x22D0 JUMP JUMPDEST SWAP1 POP SWAP2 SWAP1 POP JUMP JUMPDEST PUSH0 DUP2 SWAP1 POP SWAP2 SWAP1 POP JUMP JUMPDEST PUSH0 PUSH2 0x2327 PUSH1 0x20 DUP5 ADD DUP5 PUSH2 0x1A3F JUMP JUMPDEST SWAP1 POP SWAP3 SWAP2 POP POP JUMP JUMPDEST PUSH0 PUSH1 0x20 DUP3 ADD SWAP1 POP SWAP2 SWAP1 POP JUMP JUMPDEST PUSH0 PUSH2 0x2346 DUP4 DUP6 PUSH2 0x1B01 JUMP JUMPDEST SWAP4 POP PUSH2 0x2351 DUP3 PUSH2 0x2310 JUMP JUMPDEST DUP1 PUSH0 JUMPDEST DUP6 DUP2 LT ISZERO PUSH2 0x2389 JUMPI PUSH2 0x2366 DUP3 DUP5 PUSH2 0x2319 JUMP JUMPDEST PUSH2 0x2370 DUP9 DUP3 PUSH2 0x1B2F JUMP JUMPDEST SWAP8 POP PUSH2 0x237B DUP4 PUSH2 0x232F JUMP JUMPDEST SWAP3 POP POP PUSH1 0x1 DUP2 ADD SWAP1 POP PUSH2 0x2354 JUMP JUMPDEST POP DUP6 SWAP3 POP POP POP SWAP4 SWAP3 POP POP POP JUMP JUMPDEST PUSH0 PUSH1 0x20 DUP3 ADD SWAP1 POP DUP2 DUP2 SUB PUSH0 DUP4 ADD MSTORE PUSH2 0x23AF DUP2 DUP5 DUP7 PUSH2 0x233B JUMP JUMPDEST SWAP1 POP SWAP4 SWAP3 POP POP POP JUMP JUMPDEST PUSH32 0x5A65726F20616464726573730000000000000000000000000000000000000000 PUSH0 DUP3 ADD MSTORE POP JUMP JUMPDEST PUSH0 PUSH2 0x23EC PUSH1 0xC DUP4 PUSH2 0x1962 JUMP JUMPDEST SWAP2 POP PUSH2 0x23F7 DUP3 PUSH2 0x23B8 JUMP JUMPDEST PUSH1 0x20 DUP3 ADD SWAP1 POP SWAP2 SWAP1 POP JUMP JUMPDEST PUSH0 PUSH1 0x20 DUP3 ADD SWAP1 POP DUP2 DUP2 SUB PUSH0 DUP4 ADD MSTORE PUSH2 0x2419 DUP2 PUSH2 0x23E0 JUMP JUMPDEST SWAP1 POP SWAP2 SWAP1 POP JUMP JUMPDEST PUSH32 0x4E6F2077686974656C6973746564206164647265737300000000000000000000 PUSH0 DUP3 ADD MSTORE POP JUMP JUMPDEST PUSH0 PUSH2 0x2454 PUSH1 0x16 DUP4 PUSH2 0x1962 JUMP JUMPDEST SWAP2 POP PUSH2 0x245F DUP3 PUSH2 0x2420 JUMP JUMPDEST PUSH1 0x20 DUP3 ADD SWAP1 POP SWAP2 SWAP1 POP JUMP JUMPDEST PUSH0 PUSH1 0x20 DUP3 ADD SWAP1 POP DUP2 DUP2 SUB PUSH0 DUP4 ADD MSTORE PUSH2 0x2481 DUP2 PUSH2 0x2448 JUMP JUMPDEST SWAP1 POP SWAP2 SWAP1 POP JUMP JUMPDEST PUSH32 0x4E756D626572206F6620546F6B656E7320616E64206E756D626572206F662077 PUSH0 DUP3 ADD MSTORE PUSH32 0x686974656C69737465642061646472657373657320617265206E6F7420657175 PUSH1 0x20 DUP3 ADD MSTORE PUSH32 0x616C000000000000000000000000000000000000000000000000000000000000 PUSH1 0x40 DUP3 ADD MSTORE POP JUMP JUMPDEST PUSH0 PUSH2 0x2508 PUSH1 0x42 DUP4 PUSH2 0x1962 JUMP JUMPDEST SWAP2 POP PUSH2 0x2513 DUP3 PUSH2 0x2488 JUMP JUMPDEST PUSH1 0x60 DUP3 ADD SWAP1 POP SWAP2 SWAP1 POP JUMP JUMPDEST PUSH0 PUSH1 0x20 DUP3 ADD SWAP1 POP DUP2 DUP2 SUB PUSH0 DUP4 ADD MSTORE PUSH2 0x2535 DUP2 PUSH2 0x24FC JUMP JUMPDEST SWAP1 POP SWAP2 SWAP1 POP JUMP JUMPDEST PUSH0 DUP2 SLOAD SWAP1 POP SWAP2 SWAP1 POP JUMP JUMPDEST PUSH0 DUP2 SWAP1 POP DUP2 PUSH0 MSTORE PUSH1 0x20 PUSH0 KECCAK256 SWAP1 POP SWAP2 SWAP1 POP JUMP JUMPDEST PUSH0 DUP2 PUSH0 SHR SWAP1 POP SWAP2 SWAP1 POP JUMP JUMPDEST PUSH0 PUSH20 0xFFFFFFFFFFFFFFFFFFFFFFFFFFFFFFFFFFFFFFFF DUP3 AND SWAP1 POP SWAP2 SWAP1 POP JUMP JUMPDEST PUSH0 PUSH2 0x2594 PUSH2 0x258F DUP4 PUSH2 0x2558 JUMP JUMPDEST PUSH2 0x2563 JUMP JUMPDEST SWAP1 POP SWAP2 SWAP1 POP JUMP JUMPDEST PUSH0 PUSH2 0x25A6 DUP3 SLOAD PUSH2 0x2582 JUMP JUMPDEST SWAP1 POP SWAP2 SWAP1 POP JUMP JUMPDEST PUSH0 PUSH1 0x1 DUP3 ADD SWAP1 POP SWAP2 SWAP1 POP JUMP JUMPDEST PUSH0 PUSH2 0x25C3 DUP3 PUSH2 0x253C JUMP JUMPDEST PUSH2 0x25CD DUP2 DUP6 PUSH2 0x1B01 JUMP JUMPDEST SWAP4 POP PUSH2 0x25D8 DUP4 PUSH2 0x2546 JUMP JUMPDEST DUP1 PUSH0 JUMPDEST DUP4 DUP2 LT ISZERO PUSH2 0x260F JUMPI PUSH2 0x25EC DUP3 PUSH2 0x259B JUMP JUMPDEST PUSH2 0x25F6 DUP9 DUP3 PUSH2 0x1B2F JUMP JUMPDEST SWAP8 POP PUSH2 0x2601 DUP4 PUSH2 0x25AD JUMP JUMPDEST SWAP3 POP POP PUSH1 0x1 DUP2 ADD SWAP1 POP PUSH2 0x25DB JUMP JUMPDEST POP DUP6 SWAP4 POP POP POP POP SWAP3 SWAP2 POP POP JUMP JUMPDEST PUSH0 DUP3 DUP3 MSTORE PUSH1 0x20 DUP3 ADD SWAP1 POP SWAP3 SWAP2 POP POP JUMP JUMPDEST PUSH0 DUP1 REVERT JUMPDEST DUP3 DUP2 DUP4 CALLDATACOPY POP POP POP JUMP JUMPDEST PUSH0 PUSH2 0x2644 DUP4 DUP6 PUSH2 0x261C JUMP JUMPDEST SWAP4 POP PUSH32 0x7FFFFFFFFFFFFFFFFFFFFFFFFFFFFFFFFFFFFFFFFFFFFFFFFFFFFFFFFFFFFFF DUP4 GT ISZERO PUSH2 0x2677 JUMPI PUSH2 0x2676 PUSH2 0x262C JUMP JUMPDEST JUMPDEST PUSH1 0x20 DUP4 MUL SWAP3 POP PUSH2 0x2688 DUP4 DUP6 DUP5 PUSH2 0x2630 JUMP JUMPDEST DUP3 DUP5 ADD SWAP1 POP SWAP4 SWAP3 POP POP POP JUMP JUMPDEST PUSH0 PUSH1 0x40 DUP3 ADD SWAP1 POP DUP2 DUP2 SUB PUSH0 DUP4 ADD MSTORE PUSH2 0x26AC DUP2 DUP7 PUSH2 0x25B9 JUMP JUMPDEST SWAP1 POP DUP2 DUP2 SUB PUSH1 0x20 DUP4 ADD MSTORE PUSH2 0x26C1 DUP2 DUP5 DUP7 PUSH2 0x2639 JUMP JUMPDEST SWAP1 POP SWAP5 SWAP4 POP POP POP POP JUMP JUMPDEST PUSH0 DUP2 MLOAD SWAP1 POP PUSH2 0x26D9 DUP2 PUSH2 0x1A5C JUMP JUMPDEST SWAP3 SWAP2 POP POP JUMP JUMPDEST PUSH0 PUSH1 0x20 DUP3 DUP5 SUB SLT ISZERO PUSH2 0x26F4 JUMPI PUSH2 0x26F3 PUSH2 0x19F1 JUMP JUMPDEST JUMPDEST PUSH0 PUSH2 0x2701 DUP5 DUP3 DUP6 ADD PUSH2 0x26CB JUMP JUMPDEST SWAP2 POP POP SWAP3 SWAP2 POP POP JUMP JUMPDEST PUSH32 0x4E6F7420656E6F7567682062616C616E63650000000000000000000000000000 PUSH0 DUP3 ADD MSTORE POP JUMP JUMPDEST PUSH0 PUSH2 0x273E PUSH1 0x12 DUP4 PUSH2 0x1962 JUMP JUMPDEST SWAP2 POP PUSH2 0x2749 DUP3 PUSH2 0x270A JUMP JUMPDEST PUSH1 0x20 DUP3 ADD SWAP1 POP SWAP2 SWAP1 POP JUMP JUMPDEST PUSH0 PUSH1 0x20 DUP3 ADD SWAP1 POP DUP2 DUP2 SUB PUSH0 DUP4 ADD MSTORE PUSH2 0x276B DUP2 PUSH2 0x2732 JUMP JUMPDEST SWAP1 POP SWAP2 SWAP1 POP JUMP JUMPDEST PUSH0 DUP2 MLOAD SWAP1 POP PUSH2 0x2780 DUP2 PUSH2 0x1A29 JUMP JUMPDEST SWAP3 SWAP2 POP POP JUMP JUMPDEST PUSH0 PUSH1 0x20 DUP3 DUP5 SUB SLT ISZERO PUSH2 0x279B JUMPI PUSH2 0x279A PUSH2 0x19F1 JUMP JUMPDEST JUMPDEST PUSH0 PUSH2 0x27A8 DUP5 DUP3 DUP6 ADD PUSH2 0x2772 JUMP JUMPDEST SWAP2 POP POP SWAP3 SWAP2 POP POP JUMP JUMPDEST PUSH32 0x4E6F7420746865206F776E6572206F662074686973204E46545B5D0000000000 PUSH0 DUP3 ADD MSTORE POP JUMP JUMPDEST PUSH0 PUSH2 0x27E5 PUSH1 0x1B DUP4 PUSH2 0x1962 JUMP JUMPDEST SWAP2 POP PUSH2 0x27F0 DUP3 PUSH2 0x27B1 JUMP JUMPDEST PUSH1 0x20 DUP3 ADD SWAP1 POP SWAP2 SWAP1 POP JUMP JUMPDEST PUSH0 PUSH1 0x20 DUP3 ADD SWAP1 POP DUP2 DUP2 SUB PUSH0 DUP4 ADD MSTORE PUSH2 0x2812 DUP2 PUSH2 0x27D9 JUMP JUMPDEST SWAP1 POP SWAP2 SWAP1 POP JUMP JUMPDEST PUSH32 0x546F6B656E000000000000000000000000000000000000000000000000000000 PUSH0 DUP3 ADD MSTORE POP JUMP JUMPDEST PUSH0 PUSH2 0x284D PUSH1 0x5 DUP4 PUSH2 0x1962 JUMP JUMPDEST SWAP2 POP PUSH2 0x2858 DUP3 PUSH2 0x2819 JUMP JUMPDEST PUSH1 0x20 DUP3 ADD SWAP1 POP SWAP2 SWAP1 POP JUMP JUMPDEST PUSH0 PUSH1 0x40 DUP3 ADD SWAP1 POP PUSH2 0x2876 PUSH0 DUP4 ADD DUP5 PUSH2 0x1DCD JUMP JUMPDEST DUP2 DUP2 SUB PUSH1 0x20 DUP4 ADD MSTORE PUSH2 0x2887 DUP2 PUSH2 0x2841 JUMP JUMPDEST SWAP1 POP SWAP3 SWAP2 POP POP JUMP JUMPDEST PUSH32 0x4E66740000000000000000000000000000000000000000000000000000000000 PUSH0 DUP3 ADD MSTORE POP JUMP JUMPDEST PUSH0 PUSH2 0x28C3 PUSH1 0x3 DUP4 PUSH2 0x1962 JUMP JUMPDEST SWAP2 POP PUSH2 0x28CE DUP3 PUSH2 0x288F JUMP JUMPDEST PUSH1 0x20 DUP3 ADD SWAP1 POP SWAP2 SWAP1 POP JUMP JUMPDEST PUSH0 PUSH1 0x40 DUP3 ADD SWAP1 POP PUSH2 0x28EC PUSH0 DUP4 ADD DUP5 PUSH2 0x1DCD JUMP JUMPDEST DUP2 DUP2 SUB PUSH1 0x20 DUP4 ADD MSTORE PUSH2 0x28FD DUP2 PUSH2 0x28B7 JUMP JUMPDEST SWAP1 POP SWAP3 SWAP2 POP POP JUMP JUMPDEST PUSH0 PUSH1 0x60 DUP3 ADD SWAP1 POP PUSH2 0x2918 PUSH0 DUP4 ADD DUP7 PUSH2 0x20B2 JUMP JUMPDEST PUSH2 0x2925 PUSH1 0x20 DUP4 ADD DUP6 PUSH2 0x20B2 JUMP JUMPDEST PUSH2 0x2932 PUSH1 0x40 DUP4 ADD DUP5 PUSH2 0x1DCD JUMP JUMPDEST SWAP5 SWAP4 POP POP POP POP JUMP JUMPDEST PUSH2 0x2943 DUP2 PUSH2 0x1AC4 JUMP JUMPDEST DUP2 EQ PUSH2 0x294D JUMPI PUSH0 DUP1 REVERT JUMPDEST POP JUMP JUMPDEST PUSH0 DUP2 MLOAD SWAP1 POP PUSH2 0x295E DUP2 PUSH2 0x293A JUMP JUMPDEST SWAP3 SWAP2 POP POP JUMP JUMPDEST PUSH0 PUSH1 0x20 DUP3 DUP5 SUB SLT ISZERO PUSH2 0x2979 JUMPI PUSH2 0x2978 PUSH2 0x19F1 JUMP JUMPDEST JUMPDEST PUSH0 PUSH2 0x2986 DUP5 DUP3 DUP6 ADD PUSH2 0x2950 JUMP JUMPDEST SWAP2 POP POP SWAP3 SWAP2 POP POP JUMP JUMPDEST PUSH32 0x4E487B7100000000000000000000000000000000000000000000000000000000 PUSH0 MSTORE PUSH1 0x11 PUSH1 0x4 MSTORE PUSH1 0x24 PUSH0 REVERT JUMPDEST PUSH0 PUSH2 0x29C6 DUP3 PUSH2 0x1A53 JUMP JUMPDEST SWAP2 POP PUSH32 0xFFFFFFFFFFFFFFFFFFFFFFFFFFFFFFFFFFFFFFFFFFFFFFFFFFFFFFFFFFFFFFFF DUP3 SUB PUSH2 0x29F8 JUMPI PUSH2 0x29F7 PUSH2 0x298F JUMP JUMPDEST JUMPDEST PUSH1 0x1 DUP3 ADD SWAP1 POP SWAP2 SWAP1 POP JUMP JUMPDEST PUSH0 PUSH2 0x2A0D DUP3 PUSH2 0x1A53 JUMP JUMPDEST SWAP2 POP PUSH2 0x2A18 DUP4 PUSH2 0x1A53 JUMP JUMPDEST SWAP3 POP DUP3 DUP3 ADD SWAP1 POP DUP1 DUP3 GT ISZERO PUSH2 0x2A30 JUMPI PUSH2 0x2A2F PUSH2 0x298F JUMP JUMPDEST JUMPDEST SWAP3 SWAP2 POP POP JUMP JUMPDEST POP JUMP JUMPDEST PUSH0 PUSH2 0x2A44 PUSH0 DUP4 PUSH2 0x20CB JUMP JUMPDEST SWAP2 POP PUSH2 0x2A4F DUP3 PUSH2 0x2A36 JUMP JUMPDEST PUSH0 DUP3 ADD SWAP1 POP SWAP2 SWAP1 POP JUMP JUMPDEST PUSH0 PUSH1 0x80 DUP3 ADD SWAP1 POP PUSH2 0x2A6C PUSH0 DUP4 ADD DUP7 PUSH2 0x20B2 JUMP JUMPDEST PUSH2 0x2A79 PUSH1 0x20 DUP4 ADD DUP6 PUSH2 0x20B2 JUMP JUMPDEST PUSH2 0x2A86 PUSH1 0x40 DUP4 ADD DUP5 PUSH2 0x1DCD JUMP JUMPDEST DUP2 DUP2 SUB PUSH1 0x60 DUP4 ADD MSTORE PUSH2 0x2A97 DUP2 PUSH2 0x2A39 JUMP JUMPDEST SWAP1 POP SWAP5 SWAP4 POP POP POP POP JUMP JUMPDEST PUSH2 0x2AAA DUP2 PUSH2 0x1D7A JUMP JUMPDEST DUP2 EQ PUSH2 0x2AB4 JUMPI PUSH0 DUP1 REVERT JUMPDEST POP JUMP JUMPDEST PUSH0 DUP2 MLOAD SWAP1 POP PUSH2 0x2AC5 DUP2 PUSH2 0x2AA1 JUMP JUMPDEST SWAP3 SWAP2 POP POP JUMP JUMPDEST PUSH0 PUSH1 0x20 DUP3 DUP5 SUB SLT ISZERO PUSH2 0x2AE0 JUMPI PUSH2 0x2ADF PUSH2 0x19F1 JUMP JUMPDEST JUMPDEST PUSH0 PUSH2 0x2AED DUP5 DUP3 DUP6 ADD PUSH2 0x2AB7 JUMP JUMPDEST SWAP2 POP POP SWAP3 SWAP2 POP POP JUMP INVALID LOG2 PUSH5 0x6970667358 0x22 SLT KECCAK256 MSTORE PUSH11 0x3A1306AF304712F74F9E0E DIV 0xF6 DELEGATECALL 0xAD SLOAD 0xD5 BASEFEE GAS 0xDB 0x25 LOG1 MSTORE 0xDF 0xFB 0xB5 ADDRESS STATICCALL 0xC5 0xFB PUSH5 0x736F6C6343 STOP ADDMOD BYTE STOP CALLER "
		},
		"gasEstimates": {
			"creation": {
				"codeDepositCost": "2210400",
				"executionCost": "infinite",
				"totalCost": "infinite"
			},
			"external": {
				"airdropVersion()": "2543",
				"allowance(address,address)": "infinite",
				"approve(address,uint256)": "infinite",
				"balanceOf(address)": "2874",
				"decimals()": "405",
				"getEligibility(address)": "infinite",
				"getWhiteList()": "infinite",
				"isWhiteListed(address)": "infinite",
				"mint(uint256)": "infinite",
				"name()": "infinite",
				"onERC721Received(address,address,uint256,bytes)": "infinite",
				"reset()": "24789",
				"sartAirdrop(uint256[])": "infinite",
				"symbol()": "infinite",
				"totalSupply()": "2455",
				"transfer(address,uint256)": "infinite",
				"transferFrom(address,address,uint256)": "infinite",
				"whiteListAddress(address[])": "infinite"
			}
		},
		"methodIdentifiers": {
			"airdropVersion()": "51d6e8a4",
			"allowance(address,address)": "dd62ed3e",
			"approve(address,uint256)": "095ea7b3",
			"balanceOf(address)": "70a08231",
			"decimals()": "313ce567",
			"getEligibility(address)": "dca11ab8",
			"getWhiteList()": "09a9d76c",
			"isWhiteListed(address)": "6f9170f6",
			"mint(uint256)": "a0712d68",
			"name()": "06fdde03",
			"onERC721Received(address,address,uint256,bytes)": "150b7a02",
			"reset()": "d826f88f",
			"sartAirdrop(uint256[])": "a2efa6ae",
			"symbol()": "95d89b41",
			"totalSupply()": "18160ddd",
			"transfer(address,uint256)": "a9059cbb",
			"transferFrom(address,address,uint256)": "23b872dd",
			"whiteListAddress(address[])": "4e41cfdb"
		}
	},
	"abi": [
		{
			"inputs": [],
			"stateMutability": "nonpayable",
			"type": "constructor"
		},
		{
			"inputs": [
				{
					"internalType": "address",
					"name": "spender",
					"type": "address"
				},
				{
					"internalType": "uint256",
					"name": "allowance",
					"type": "uint256"
				},
				{
					"internalType": "uint256",
					"name": "needed",
					"type": "uint256"
				}
			],
			"name": "ERC20InsufficientAllowance",
			"type": "error"
		},
		{
			"inputs": [
				{
					"internalType": "address",
					"name": "sender",
					"type": "address"
				},
				{
					"internalType": "uint256",
					"name": "balance",
					"type": "uint256"
				},
				{
					"internalType": "uint256",
					"name": "needed",
					"type": "uint256"
				}
			],
			"name": "ERC20InsufficientBalance",
			"type": "error"
		},
		{
			"inputs": [
				{
					"internalType": "address",
					"name": "approver",
					"type": "address"
				}
			],
			"name": "ERC20InvalidApprover",
			"type": "error"
		},
		{
			"inputs": [
				{
					"internalType": "address",
					"name": "receiver",
					"type": "address"
				}
			],
			"name": "ERC20InvalidReceiver",
			"type": "error"
		},
		{
			"inputs": [
				{
					"internalType": "address",
					"name": "sender",
					"type": "address"
				}
			],
			"name": "ERC20InvalidSender",
			"type": "error"
		},
		{
			"inputs": [
				{
					"internalType": "address",
					"name": "spender",
					"type": "address"
				}
			],
			"name": "ERC20InvalidSpender",
			"type": "error"
		},
		{
			"anonymous": false,
			"inputs": [
				{
					"indexed": true,
					"internalType": "address",
					"name": "owner",
					"type": "address"
				},
				{
					"indexed": true,
					"internalType": "address",
					"name": "spender",
					"type": "address"
				},
				{
					"indexed": false,
					"internalType": "uint256",
					"name": "value",
					"type": "uint256"
				}
			],
			"name": "Approval",
			"type": "event"
		},
		{
			"anonymous": false,
			"inputs": [
				{
					"indexed": false,
					"internalType": "uint256",
					"name": "unitOfToken",
					"type": "uint256"
				},
				{
					"indexed": false,
					"internalType": "string",
					"name": "airdropType",
					"type": "string"
				}
			],
			"name": "TOKENtransfered",
			"type": "event"
		},
		{
			"anonymous": false,
			"inputs": [
				{
					"indexed": true,
					"internalType": "address",
					"name": "from",
					"type": "address"
				},
				{
					"indexed": true,
					"internalType": "address",
					"name": "to",
					"type": "address"
				},
				{
					"indexed": false,
					"internalType": "uint256",
					"name": "value",
					"type": "uint256"
				}
			],
			"name": "Transfer",
			"type": "event"
		},
		{
			"anonymous": false,
			"inputs": [
				{
					"indexed": false,
					"internalType": "address[]",
					"name": "_address",
					"type": "address[]"
				}
			],
			"name": "addressAddedToWhitelist",
			"type": "event"
		},
		{
			"anonymous": false,
			"inputs": [
				{
					"indexed": false,
					"internalType": "address[]",
					"name": "recipients",
					"type": "address[]"
				},
				{
					"indexed": false,
					"internalType": "uint256[]",
					"name": "unitOfToken",
					"type": "uint256[]"
				}
			],
			"name": "airdroped",
			"type": "event"
		},
		{
			"anonymous": false,
			"inputs": [
				{
					"indexed": false,
					"internalType": "address",
					"name": "operator",
					"type": "address"
				},
				{
					"indexed": false,
					"internalType": "address",
					"name": "from",
					"type": "address"
				},
				{
					"indexed": false,
					"internalType": "uint256",
					"name": "tokenId",
					"type": "uint256"
				},
				{
					"indexed": false,
					"internalType": "bytes",
					"name": "data",
					"type": "bytes"
				}
			],
			"name": "receivedTokens",
			"type": "event"
		},
		{
			"anonymous": false,
			"inputs": [
				{
					"indexed": false,
					"internalType": "address",
					"name": "_address",
					"type": "address"
				}
			],
			"name": "removedAddress",
			"type": "event"
		},
		{
			"inputs": [],
			"name": "airdropVersion",
			"outputs": [
				{
					"internalType": "uint256",
					"name": "",
					"type": "uint256"
				}
			],
			"stateMutability": "view",
			"type": "function"
		},
		{
			"inputs": [
				{
					"internalType": "address",
					"name": "owner",
					"type": "address"
				},
				{
					"internalType": "address",
					"name": "spender",
					"type": "address"
				}
			],
			"name": "allowance",
			"outputs": [
				{
					"internalType": "uint256",
					"name": "",
					"type": "uint256"
				}
			],
			"stateMutability": "view",
			"type": "function"
		},
		{
			"inputs": [
				{
					"internalType": "address",
					"name": "spender",
					"type": "address"
				},
				{
					"internalType": "uint256",
					"name": "value",
					"type": "uint256"
				}
			],
			"name": "approve",
			"outputs": [
				{
					"internalType": "bool",
					"name": "",
					"type": "bool"
				}
			],
			"stateMutability": "nonpayable",
			"type": "function"
		},
		{
			"inputs": [
				{
					"internalType": "address",
					"name": "account",
					"type": "address"
				}
			],
			"name": "balanceOf",
			"outputs": [
				{
					"internalType": "uint256",
					"name": "",
					"type": "uint256"
				}
			],
			"stateMutability": "view",
			"type": "function"
		},
		{
			"inputs": [],
			"name": "decimals",
			"outputs": [
				{
					"internalType": "uint8",
					"name": "",
					"type": "uint8"
				}
			],
			"stateMutability": "view",
			"type": "function"
		},
		{
			"inputs": [
				{
					"internalType": "address",
					"name": "_address",
					"type": "address"
				}
			],
			"name": "getEligibility",
			"outputs": [
				{
					"internalType": "bool",
					"name": "",
					"type": "bool"
				}
			],
			"stateMutability": "view",
			"type": "function"
		},
		{
			"inputs": [],
			"name": "getWhiteList",
			"outputs": [
				{
					"internalType": "address[]",
					"name": "",
					"type": "address[]"
				}
			],
			"stateMutability": "view",
			"type": "function"
		},
		{
			"inputs": [
				{
					"internalType": "address",
					"name": "_address",
					"type": "address"
				}
			],
			"name": "isWhiteListed",
			"outputs": [
				{
					"internalType": "bool",
					"name": "",
					"type": "bool"
				}
			],
			"stateMutability": "view",
			"type": "function"
		},
		{
			"inputs": [
				{
					"internalType": "uint256",
					"name": "amount",
					"type": "uint256"
				}
			],
			"name": "mint",
			"outputs": [
				{
					"internalType": "bool",
					"name": "",
					"type": "bool"
				}
			],
			"stateMutability": "nonpayable",
			"type": "function"
		},
		{
			"inputs": [],
			"name": "name",
			"outputs": [
				{
					"internalType": "string",
					"name": "",
					"type": "string"
				}
			],
			"stateMutability": "view",
			"type": "function"
		},
		{
			"inputs": [
				{
					"internalType": "address",
					"name": "operator",
					"type": "address"
				},
				{
					"internalType": "address",
					"name": "from",
					"type": "address"
				},
				{
					"internalType": "uint256",
					"name": "tokenId",
					"type": "uint256"
				},
				{
					"internalType": "bytes",
					"name": "data",
					"type": "bytes"
				}
			],
			"name": "onERC721Received",
			"outputs": [
				{
					"internalType": "bytes4",
					"name": "",
					"type": "bytes4"
				}
			],
			"stateMutability": "nonpayable",
			"type": "function"
		},
		{
			"inputs": [],
			"name": "reset",
			"outputs": [
				{
					"internalType": "bool",
					"name": "",
					"type": "bool"
				}
			],
			"stateMutability": "nonpayable",
			"type": "function"
		},
		{
			"inputs": [
				{
					"internalType": "uint256[]",
					"name": "unitOfToken",
					"type": "uint256[]"
				}
			],
			"name": "sartAirdrop",
			"outputs": [
				{
					"internalType": "bool",
					"name": "",
					"type": "bool"
				}
			],
			"stateMutability": "nonpayable",
			"type": "function"
		},
		{
			"inputs": [],
			"name": "symbol",
			"outputs": [
				{
					"internalType": "string",
					"name": "",
					"type": "string"
				}
			],
			"stateMutability": "view",
			"type": "function"
		},
		{
			"inputs": [],
			"name": "totalSupply",
			"outputs": [
				{
					"internalType": "uint256",
					"name": "",
					"type": "uint256"
				}
			],
			"stateMutability": "view",
			"type": "function"
		},
		{
			"inputs": [
				{
					"internalType": "address",
					"name": "to",
					"type": "address"
				},
				{
					"internalType": "uint256",
					"name": "value",
					"type": "uint256"
				}
			],
			"name": "transfer",
			"outputs": [
				{
					"internalType": "bool",
					"name": "",
					"type": "bool"
				}
			],
			"stateMutability": "nonpayable",
			"type": "function"
		},
		{
			"inputs": [
				{
					"internalType": "address",
					"name": "from",
					"type": "address"
				},
				{
					"internalType": "address",
					"name": "to",
					"type": "address"
				},
				{
					"internalType": "uint256",
					"name": "value",
					"type": "uint256"
				}
			],
			"name": "transferFrom",
			"outputs": [
				{
					"internalType": "bool",
					"name": "",
					"type": "bool"
				}
			],
			"stateMutability": "nonpayable",
			"type": "function"
		},
		{
			"inputs": [
				{
					"internalType": "address[]",
					"name": "_address",
					"type": "address[]"
				}
			],
			"name": "whiteListAddress",
			"outputs": [
				{
					"internalType": "bool",
					"name": "",
					"type": "bool"
				}
			],
			"stateMutability": "nonpayable",
			"type": "function"
		}
	]
}